:100000000C9407020C9424020C9424020C942402F5
:100010000C9424020C9424020C9424020C942402C8
:100020000C9424020C9424020C94B11E0C94831F93
:100030000C94D1190C9424020C9424020C942402E4
:100040000C9424020C9424020C9424020C94240298
:100050000C9424020C945A1A0C9424020C9424023A
:100060000C9424020C9424020C9424020C94240278
:100070000C9424020C9424020C9424020C94240268
:100080000C9424020C9424020C9424020C94240258
:100090000C9424020C9424020C9424020C94240248
:1000A0000C9424020C9424020C9424023E053E0578
:1000B0006A056A05D805F605E506E506FB0571063D
:1000C00082068206BE163017C61690169416CA16F9
:1000D0009716CD16D816A2162617A616DC16AA163F
:1000E000E0160A17AE16E4161417B416EA16F4163C
:1000F0009B16D1169E16D416B916EF1600172017A8
:1001000022178C16C216391704180A18F817FE178A
:10011000101816181C18EB1F12200A2112200A2191
:100120005E2081200A21D820E72014001A00080050
:10013000150017001C0018000C001200130004002A
:100140001600070009000A000B000D000E000F004A
:1001500028321D211B24064319442A422C410545FF
:100160001124103137001E001F0020002100220042
:100170002300240029002B002A0021002200230054
:100180003D003E005000510052004F00330024005B
:100190002500260027004C0001000100010001009D
:1001A00036001E021F022002210222022302240224
:1001B000250226022702440045000100010001003B
:1001C00001000100010001003500010001000100F3
:1001D0000100010001000100010001000100010017
:1001E00001000100010001002D002E002F00300051
:1001F00031002B0001000100010001003600370032
:10020000380033003400010001000100010001004A
:1002100001005000510052004F0001000100010098
:10022000010001002D022E022F02300231022B00AC
:1002300001000100010001003602370238023302DA
:1002400034020100010001000100010001004A0028
:100250004E004B004D00B200B500B100B3000100EC
:100260000100010001000100460001000100010041
:100270000100010001000100010003780478010081
:10028000010001000100007C0100010001000100EB
:100290000100100347006800650072006B006900F0
:1002A0006E00000020033400300020005000650084
:1002B0007200630065006E007400200043006C0053
:1002C0007500620000000403090409023B000201FA
:1002D00000A0FA0904000001030101000921110135
:1002E0000001224000070581030800010904010004
:1002F000010300000009211101000122B6000705D9
:100300008203200001120100020000000825406065
:100310006001000102000105010902A10185020935
:1003200001A1000509190129081500250195087585
:100330000181020501093009311581257F9502757A
:1003400008810609381581257F9501750881060504
:100350000C0A38021581257F950175088106C0C0F9
:1003600005010980A101850319012AB7001501269D
:10037000B700950175108100C0050C0901A1018528
:100380000419012AA002150126A002950175108109
:1003900000C005010906A1018506050719E029E746
:1003A000150025019508750181020507190029EF3F
:1003B0001500250195F0750181020508190129052F
:1003C000950575019102950175039101C00501091B
:1003D00006A101050719E029E71500250195087513
:1003E0000181029501750881010507190029FF1592
:1003F0000026FF00950675088100050819012905EA
:10040000950575019102950175039101C0001124B4
:100410001FBECFEFDAE0DEBFCDBF11E0A0E0B1E05C
:10042000E6E8F4E402C005900D92A838B107D9F7C8
:1004300022E0A8E8B1E001C01D92AC38B207E1F7B4
:100440000E94E9110C9441220C940000559A209AC4
:10045000089580FF02C05D9801C05D9A81FF02C0CF
:1004600028980895289A08958630B0F46530A0F44D
:10047000463090F49EE1899FF001112486E0689F48
:10048000E00DF11D1124E40FF11DEE0FFF1FE65DDD
:10049000FE4F85919491089580E090E008950E9428
:1004A0003402089581E0089581E008950E94540285
:1004B000089508950E9459020895A5E0B0E0E3E68A
:1004C000F2E00C94C12149835A8330918F018981D4
:1004D0009A81311114C0662359F0222349F00E94F9
:1004E000C308182F682F89819A810E949F0803C032
:1004F0000E94B108182F69817A81812F04C00E945F
:10050000C30869817A810E94740F2596E3E00C94F8
:10051000DD21FC01262F408151816281738184811C
:100520000E945D02089581E00895CF93DF93EC016E
:1005300060E00E948902BE010E945A02DF91CF91C1
:1005400008950E94B81008950E94B2100895089569
:100550000E9468070E94A7022FEF84E39CE02150CD
:1005600080409040E1F700C0000008950E94A8027A
:100570000E94801A08950E94A8020E94911A08956C
:100580000F931F93CF93DF938C0161E00E94890248
:10059000EC01B8010E945602882309F449C0B80151
:1005A000CE010E947A15882309F442C0B801CE0119
:1005B0000E94EC178823E1F1B801CE010E94681671
:1005C0008823B1F1B801CE010E945217882381F12E
:1005D000F8018281882341F1C3308CE7D807D1F03C
:1005E00040F4C115FCE7DF0791F0C130DC47A1F012
:1005F0001BC0CB35ECE7DE07A9F0CC35FCE7DF0705
:1006000071F0CA35DC4781F40E94FE0C0DC00E94D7
:10061000B6020EC00E94060D0E94BB0209C00E94D5
:10062000F40C02C00E94020DC8010E94520201C0D7
:1006300080E0DF91CF911F910F9108950E94AA1938
:1006400080E00E94AF150E944C0308950E9495140B
:100650000E9450030E94B31908950E942902089530
:1006600081E008950895CF93DF93D82F0E9430033F
:10067000C82F882319F08D2F0E9432038C2FDF9111
:10068000CF9108950895CF93C82F0E942D038C2FEA
:100690000E943303CF91089580E00E9443030895A0
:1006A0000E9439180E9443030895CF930E9439187D
:1006B000C82F80918A01C81779F0C0938A010E94DF
:1006C0003F1A60938B0170938C0180938D019093FE
:1006D0008E018C2F0E944303CF910895ABE0B0E0D0
:1006E000E4E7F3E00C94C2214F83588769877A8747
:1006F0008B8761110E943C0C9E012F5F3F4F86E06B
:10070000F90111928A95E9F785E0FE013796D90142
:1007100001900D928A95E1F789819A814C815D81E2
:10072000452B31F09F3F31F491E08F3F19F403C026
:1007300091E001C090E090FF09C049815A816B812E
:100740007C818D819E810E94680B05C0C9010E9439
:1007500093028111F2CF2B96E2E00C94DE21FC0192
:10076000808191810E94F5080895662319F00E9406
:100770006E1202C00E94C9120E9440130895CF93C6
:10078000882309F4A4C0C82F8238C1F40E94391804
:1007900081FD9DC069E380910001909101010E945B
:1007A0004E190E94600C2FEF87EE93E0215080409D
:1007B0009040E1F700C0000069E319C0833801F5FB
:1007C0000E94391880FD83C063E5809100019091FB
:1007D00001010E944E190E94600C2FEF81EE94E0FF
:1007E000215080409040E1F700C0000063E5809117
:1007F0000001909101010E945C190E94600C67C089
:100800008438C1F40E94391882FD61C067E4809188
:100810000001909101010E944E190E94600C2FEF7F
:1008200081EE94E0215080409040E1F700C000004C
:1008300067E4DDCF8CEF8C0F813AD0F46C2F809180
:100840000001909101010E94CE18882349F06C2F7D
:1008500080910001909101010E945C190E94600C3E
:100860006C2F80910001909101010E944E19C5CF1B
:1008700080E28C0F883048F4C77081E001C0880F97
:10088000CA95EAF70E941F0CB8CFEBE5EC0FE330F6
:1008900040F4F0E0EB5BFE4F808190E00E946E1828
:1008A00016C0E8E5EC0FE93150F4F0E0EE0FFF1F61
:1008B000ED5EFE4F808191810E94931808C083E312
:1008C0008C0F833120F461E08C2F0E94B503CF910F
:1008D0000895882309F468C0823879F40E94391891
:1008E00081FF62C069E380910001909101010E9443
:1008F0004E190E94600C69E310C08338B9F40E945D
:10090000391880FF51C063E5809100019091010189
:100910000E944E190E94600C63E580910001909145
:1009200001010E945C190E94600C0895843879F4DA
:100930000E94391882FF38C067E4809100019091CD
:1009400001010E944E190E94600C67E4E6CF9CEF03
:10095000980F913A10F4682FE0CF90E2980F9830FA
:1009600050F4877091E001C0990F8A95EAF7892FBA
:100970000E94250CD8CF9BE5980F933028F480E097
:1009800090E00E946E18089598E5980F993128F428
:1009900080E090E00E949318089593E3980F9331BC
:1009A00018F460E00E94B50308951F93CF93DF937E
:1009B000182FEB010E94BF03209741F08FE99FE0C1
:1009C0000197F1F700C000002197F6CF812F0E9418
:1009D0006904DF91CF911F910895893319F060E088
:1009E00070E002C060E570E00E94D504089588239D
:1009F00021F00E941F0C0E94600C0895882321F0B2
:100A00000E94250C0E94600C0895A0E0B0E0EBE08D
:100A1000F5E00C94BC217C01162FC72FFC01D2817C
:100A2000058102950F700E94150C8823B9F0DD2313
:100A3000A9F08C2F807F803421F080E2810F8830F4
:100A400068F080916F0282FF09C082E00E94C20CB0
:100A50000E94150C91E0D82ED92601C0D12CCC2EA5
:100A6000C2948FE0C8228C2D90E08C30910508F064
:100A7000ACC1FC01EA5AFF4F0C9492218C2F807F6D
:100A8000CF70882311F0C295C07FDD2399F0CC236D
:100A900009F487C180E2810F883010F0111104C081
:100AA0008C2F0E941F0C03C08C2F0E942F0C0E94C1
:100AB000600C77C1812F0E946904CC2309F485C1A1
:100AC00080E2810F883038F1112329F18C2F0E94A8
:100AD000350C24C08C2F807FCF70803211F0C295EE
:100AE000C07F112319F01130D1F143C080916F0202
:100AF00082FD17C0DD2349F0CC2329F08C2F0E9402
:100B00001F0C0E94600C80E04DC180E00E946904CF
:100B1000CC2309F45AC18C2F0E94250C0E94600C32
:100B200054C1DD2371F0002341F0013031F40E9403
:100B30003F0C8C2B0E94490C48C10E943F0C8C2B0F
:100B400023C0011103C00E94560C2EC0013009F4CD
:100B50003CC18C2F0E94FE040E94560C36C1DD233E
:100B600021F0063008F031C10EC0053008F02DC16B
:100B70001BC0DD2361F0002331F0F701858180FF88
:100B800010C18F7085838C2F0E94F7041EC1002333
:100B900059F0193309F016C1FFEF27EE83E0F15049
:100BA00020408040E1F70CC18C2F0E94FE040DC153
:100BB0008C2F86958695837019F0813061F005C180
:100BC000DD2321F0812F9C2F937002C080E090E004
:100BD0000E946E1802C1DD2321F0812F9C2F93709B
:100BE00002C080E090E00E949318F7C06D2F812F23
:100BF0000E94B503F2C08C2F8370B1F5D111E9C00A
:100C0000412F429546954770440F440F812F8F70B6
:100C100090E09C01042E02C0220F331F0A94E2F7D9
:100C200014FF0AC08FE090E002C0880F991F4A9518
:100C3000E2F78095909502C080E090E0C695C69559
:100C4000C370822B932BC23049F058F4C13019F095
:100C50000E94D207BEC00E94C907BBC00E94DB072A
:100C6000B8C00E94C607B5C0DD2319F08C2F817073
:100C700001C08695882309F4ACC0412F4295469562
:100C80004770440F440F812F8F7090E09C01042E19
:100C900002C0220F331F0A94E2F714FF0AC08FE04C
:100CA00090E002C0880F991F4A95E2F780959095D1
:100CB00002C080E090E0C695C695C370822B932B4E
:100CC000C23049F058F4C13019F00E943A0881C08E
:100CD0000E9431087EC00E9443087BC00E94E70743
:100CE00078C0CF70DD2339F08C2F0E94FF07812F51
:100CF0000E94F7046EC0812F0E94FE048C2F0E9478
:100D00000F0867C0123F21F128F4103F41F0113F56
:100D1000C1F043C0133F19F1143F79F03EC0DD2309
:100D200041F0053008F051C08C2F8F710E942108CE
:100D30004CC0063008F049C0F7CF80916F0282FDA9
:100D400018C0DD2339F08C2F8F710E94FF073DC042
:100D5000DD23C9F38C2F8F710E940F0836C0DD236D
:100D600029F08C2F8F710E94F3072FC00E94EE078D
:100D70002CC0DD2349F0CF718C2F0E94FF0763E068
:100D80008C2F0E94A40C21C081E00E94C20C023072
:100D9000E0F082E00E94C20C18C0DD2331F0002395
:100DA00091F2812F0E94BF0310C0002399F21933E2
:100DB00049F49FEFE7EEF3E09150E040F040E1F7B7
:100DC00000C00000812F0E94690488EF8C0D8430E0
:100DD00020F40E9439180E944303DD2089F00E940C
:100DE000110C80FD0DC0F70112820E940B0C0E94B5
:100DF000FF07C7010E941D070E940B0C0E940F08ED
:100E0000CDB7DEB7E8E00C94D8210F931F93CF93B2
:100E1000DF93EC01688179818A810E9400098C014D
:100E20000E944C080E94B707B801CE010E94050538
:100E3000DF91CF911F910F910895CF93DF93EC0134
:100E4000988189812B813C81232B31F08F3F31F4B4
:100E500081E09F3F19F403C081E001C080E080FD84
:100E60001AC0CE010E94C00281110FC00E94150C51
:100E7000882389F08A81882371F080916F0282FF34
:100E80000AC082E00E94C20C06C0CE010E94050783
:100E9000CE010E949502DF91CF91089580E090E00D
:100EA0000E946E1880E090E00E9493180E943C0C13
:100EB0000E94600C0E945F130E944013089580916D
:100EC0000001909101010E946A190E944E07089545
:100ED0000E942C0C0E945F07089592959F70963097
:100EE00079F010F4925001C09A50923068F4803F2B
:100EF00069F018F4883E40F409C0843F29F406C024
:100F0000883E20F0813F11F080E0089581E008954F
:100F1000FC019081818123813481232B31F08F3F2B
:100F200031F481E09F3F19F403C081E001C080E00B
:100F300080FD07C0808191810E94F5080E946D07A5
:100F4000089580E00895A5E0B0E0E9EAF7E00C94A8
:100F5000C2212596E2E00C94DE21A6E0B0E0E3EBAE
:100F6000F7E00C94C2212696E2E00C94DE2108956D
:100F700008950E94B80708950E94B90708950E9435
:100F8000BC079093A3018093A20108950E94BF071C
:100F900008952091A2013091A301822B932B0E94EE
:100FA000BF0708952091A2013091A30182239323CA
:100FB0000E94BF0708952091A2013091A3018227CA
:100FC00093270E94BF0708950E94B80708950E94C2
:100FD000E4079093A1018093A001089580E090E040
:100FE0000E94E707089521E030E0A90102C0440F04
:100FF000551F8A95E2F7CA010E94E707089521E08C
:1010000030E002C0220F331F8A95E2F78091A001E1
:101010009091A101822B932B0E94E707089521E074
:1010200030E002C0220F331F8A95E2F720953095F9
:101030008091A0019091A101822393230E94E70750
:10104000089521E030E002C0220F331F8A95E2F7B5
:101050008091A0019091A101822793270E94E70728
:1010600008952091A0013091A101822B932B0E9421
:10107000E70708952091A0013091A10182239323D5
:101080000E94E70708952091A0013091A1018227D5
:1010900093270E94E70708950895962F9770A1E07F
:1010A00001C0AA0F9A95EAF793E0769567959A950D
:1010B000E1F7660F771F660F771FFA01E60FF71F3C
:1010C00040E050E0682F70E090819B01042E02C048
:1010D000369527950A94E2F72170219529272A232E
:1010E000292721934F5F5F4F4430510569F70895D9
:1010F000FB01782F777023E0969587952A95E1F785
:10110000880F991F880F991FE80FF91F40E050E0E2
:1011100080E0219130E0072E02C0369527950A9491
:10112000E2F721703327042E01C0220F0A94EAF758
:10113000822B4F5F5F4F4430510559F70895282F98
:10114000953070F4863060F4862F622F70E026E0D0
:10115000929F600D711D112440E951E00E944D08DD
:101160000895953070F4863060F4292F90E060E99E
:1011700071E036E0239F800D911D11240E947808B4
:10118000089580E00895A0E0B0E0E9ECF8E00C9468
:10119000BB217C010091A0011091A1018091A201CD
:1011A0009091A301082B192BCFE0D0E0CC24C3945D
:1011B000D12CC6010C2E02C0880F991F0A94E2F7A9
:1011C00080239123892B21F4219798F7B12C07C014
:1011D000BC2EB7018C2F0E94800F0197A9F38B2D95
:1011E000CDB7DEB7E9E00C94D721CF93DF93EC01C4
:1011F0000E94C308BE010E94800FDF91CF91089525
:101200001F93CF93DF93EB0190918F01992321F0EE
:10121000CB010E94F50813C0882349F0CB010E943E
:10122000C308182F682FCE010E949F0804C0CB016D
:101230000E94B108182FBE01812F0E94800FDF91FC
:10124000CF911F9108951F93CF93DF93C091A40175
:1012500016E08091A501C81799F0D0E01C9FF0011D
:101260001D9FF00D1124EA55FE4F4081518162818E
:101270007381848195810E94AD072196C770E9CF63
:10128000DF91CF911F9108954091D6015091D701E0
:101290006091D8017091D9018091DA019091DB01C0
:1012A0000E94AD0708950F931F93CF93DF93809112
:1012B000DB0182958F7009F05AC08091D801882394
:1012C00009F455C08091A4011091A5016091D60147
:1012D0007091D701C091D901D091DA0191E06F3FAF
:1012E00009F090E0292F06E0811709F440C020970B
:1012F00021F07F3F21F030E003C031E001C0322F08
:1013000090E030FD31C0089FF001099FF00D1124DD
:10131000DF01AA55BE4F11963C911197371324C097
:101320003C91361321C012963C91129731111CC08A
:1013300013964D915C9114974C1B5D0B483C5105E5
:1013400098F48091DB018F7080618093DB01E5551B
:10135000FE4F80818F708061808386ED91E00E94D6
:101360001D070E94230903C001968770BDCFDF913E
:10137000CF911F910F910895A1E1B0E0E2ECF9E067
:101380000C94B9218C0185E0F801DE011D960190D5
:101390000D928A95E1F7F801E2809091D601609173
:1013A000D7012091D9013091DA012115310531F0B1
:1013B0006F3F31F481E09F3F19F403C081E001C029
:1013C00080E0F82FF1709F2E80FD40C1F801408130
:1013D0005181A380B48086EDC82E81E0D82EF09094
:1013E000D801F501E21BF30BFF2009F4DAC080916C
:1013F000DB01E83CF10508F096C0282F207F09F0BA
:1014000053C0561313C0491311C0FE2CE1100EC077
:101410008F7080618093DB010E944409C6010E94A5
:101420001D078091DB01F80185834DC1A114B10432
:1014300031F05F3F31F481E04F3F19F403C081E0A8
:1014400001C080E080FD03C081E08E2502C080E005
:1014500090E0F82FF170FF2E80FF1CC08091A40156
:101460002091A50136E0821709F40BC190E0389F66
:10147000F001399FF00D1124EA55FE4F618156139A
:1014800006C06081461303C06281E61203C0019664
:101490008770E9CFFE2CEE2009F415C18091DB01A5
:1014A00081608093DB0154C0561306C0491304C009
:1014B000E11002C0F80199C0C8010E948807882382
:1014C00061F1EE2051F12091DB01822F82958F7026
:1014D00090E0029774F08091D6019091D70198879F
:1014E0008F831986BB86AA862C87CE0107960E9419
:1014F0001D0786E0F801A6EDB1E001900D928A95F6
:10150000E1F70E9453090E9444090AC0561711F1DD
:10151000C8010E94880781112CC0C8010E941D07C4
:10152000FF24F394D0C0282F207F81F77A2DB98A29
:10153000A88A6E2D89890E94A30786ED91E00E94FA
:101540001D0786E0F60111928A95E9F70E94440989
:10155000F12CB9C04913DCCFE110DACFF801858353
:10156000C8010E941D0786E0F60111928A95E9F7ED
:10157000AAC0EE2091F22091DB01822F82958F701C
:1015800090E002970CF4B5CF8091D6019091D701ED
:101590009A8389831B82BD82AC822E83CE01019601
:1015A000A6CFE83CF10508F044C0FE2CEE2009F47B
:1015B000B4CF561330C049132EC02091DB0120FD5B
:1015C00021C0822F82958F70482F50E04115510520
:1015D000C9F0F80125834F30510541F08F5F982FF6
:1015E0009295907F822F8F70892B8583C8010E94EE
:1015F0001D0786E0F801A6EDB1E001900D928A95F5
:10160000E1F73CC086E0F801A6EDB1E001900D9253
:101610008A95E1F758C0C8010E948807811169CFF7
:101620008091DB0181608093DB01C8010E941D076E
:101630004AC07A2DB98AA88A6E2D89890E94A3078B
:1016400086E0F60111928A95E9F718C0EE2009F4B8
:1016500064CFC8010E948807F82E882309F45DCF63
:1016600086E0F801A6EDB1E001900D928A95E1F7D0
:1016700086ED91E00E94AF030E9453090E94440945
:1016800022C04D875E878D859E850E94F508292F93
:1016900022952F70223028F49F7039F0811105C0F7
:1016A0000BC0243028F49F7049F4805E883020F00D
:1016B000C8010E941D079F2CF92C05C0F8019581D7
:1016C000907F99F7F9CF8F2D6196EBE00C94D5219F
:1016D000ACE0B0E0EEE6FBE00C94C1214F8358870C
:1016E00069877A878B879C87CE0107960E94BC0901
:1016F0008823D1F09F8188852A853B85232B31F073
:101700008F3F31F481E09F3F19F403C081E001C0B5
:1017100080E080FD47C04F81588569857A858B853B
:101720009C850E94AD073EC086E0FE013796DE0133
:10173000119601900D928A95E1F7FF81E8856A85FF
:101740007B856115710531F0EF3F31F481E0FF3F9A
:1017500019F403C081E001C080E080FD23C0209126
:10176000A50130E0C9010196877099274091A40135
:1017700050E084179507F1F1F983EA837D836C8348
:1017800096E0929FD001939FB00D1124AA55BE4FB1
:10179000FE01319601900D929A95E1F78093A50193
:1017A0000E94230916E08091A4019091A501891758
:1017B00071F1189FC00111248A559E4F0E94BC09E7
:1017C000882329F1E091A4011E9FF0011124EA551C
:1017D000FE4F4081518162817381848195810E9495
:1017E000AD078091A40190E00196877099278093BE
:1017F000A401D9CF0E9468071092A5011092A401FC
:10180000E6EDF1E086E0DF011D928A95E9F72C967E
:10181000E3E00C94DD218091FC018595859585950B
:1018200008958091FC01877008959091FC01977054
:1018300081E009F480E0089580911F02089590915D
:101840001F02892B80931F020895809590911F029B
:10185000892380931F02089510921F02089590918A
:101860001E02892B80931E020895809590911E027E
:10187000892380931E02089510921E02089580917C
:10188000FD01089508950E94420C08950E94430CA2
:10189000089590916F0292FF08C09091FD019817F2
:1018A00021F08093FD010E94460C08958091FD0176
:1018B000882329F01092FD0180E00E94460C0895D3
:1018C000CF93DF93E0910001F091010180911F021D
:1018D0008083E0910001F0910101908180911E02CE
:1018E000892B80838091FD01882381F0E0910001A4
:1018F000F09101019081892B80838091000190916A
:1019000001010E94B81881110E94560CC09100017B
:10191000D091010140E250E06CED71E0CE010E94F7
:10192000E921892B59F080E2FE01ACEDB1E0019094
:101930000D928A95E1F7CE010E944618DF91CF9172
:1019400008950E94420C089590916F0292FF11C079
:1019500098E0899F90011124262B2093FC010E947E
:10196000FF078091FC018595859585950E94A10CC6
:1019700008950E94FF0708951092FC0180E00E94E4
:10198000A10C08952091FC01809582238093FC0195
:10199000982F977099F430E0482F082E000C550BC3
:1019A0002417350759F090916F0292FF07C0859573
:1019B000859585950E940F080E94BC0C0895909112
:1019C0006F0292FB222720F9281769F080FB92F919
:1019D00090936F0280916E0290916F020E94270D8A
:1019E00082E00E94C20C089580916F0282FB8827DA
:1019F00080F991E089270E94DF0C089581E00E9420
:101A0000DF0C089580E00E94DF0C08956FEF7FEFF8
:101A100080E090E00E942B22089580E090E00E94F8
:101A2000072221E0873E9E4F09F020E0822F089593
:101A300082E090E00E94FF21089583E090E00E9400
:101A4000FF21089584E090E00E9407220895BC01E0
:101A500084E090E00E942B220895AB01BC018FE04E
:101A600090E00E941F220895AB01BC0183E190E049
:101A70000E941F22089560E070E0CB010E94340DA7
:101A8000089560E070E0CB010E942D0D0E943B0D97
:101A9000089567EE7EEF80E090E00E942B2260E0E8
:101AA00082E090E00E940D2260E083E090E00E94DE
:101AB0000D221092A3011092A20160E074E184E073
:101AC00090E00E942B2260E086E090E00E940D22D0
:101AD0006FEF87E090E00E940D2240E050E0BA01F5
:101AE00088E090E00E941F2260E08DE090E00E947C
:101AF0000D2240E050E0BA0188E190E00E941F22F0
:101B000060E087E190E00E940D2240E050E0BA01E1
:101B10008CE190E00E941F2260E070E080E290E0A3
:101B20000E942B2240E050E0BA0188E190E00E9440
:101B30001F220E94410D08950E94490D0895682FAB
:101B40008EE090E00E940D2208950E943F1A60935B
:101B50002B0270932C0280932D0290932E0260939F
:101B60002702709328028093290290932A020895F5
:101B700081E008950E94B80D089508950E94BD0D5A
:101B800008950E94BD0D08950E94C10D08950E9400
:101B9000260208950E94BD0D089584E690E10E94FA
:101BA0002F180E94CA0D0E94C70D08950E94BE0DF5
:101BB0000E94BD0D08950E9480100E9442030E9461
:101BC000571608950E942A1A0E9450110E94DB0D98
:101BD0000E9495140E94C40D0895AAE0B0E0E3EFBE
:101BE000FDE00C94BA210E94661182E2E82E82E0A8
:101BF000F82E670100E0F60111916F01802F0E941D
:101C00009E1081270F5F053019F08823A1F322C0B1
:101C1000811120C00E94331A8C0180912002909182
:101C200021020817190709F450C08FEF89838A83AE
:101C30001B820E94331A8160782F9D838C83498197
:101C40005A816B818D810E946E0310932102009353
:101C500020023BC080912F0281FD0E94A4100E94AF
:101C6000BA0DA82E10E0812F0E949E10B82EF70109
:101C7000C080C82611F100E0DD24D3948C2D8D2185
:101C8000B1F0AA20A1F00E831F8391E08B2D8D214E
:101C900009F490E098870E94331A8160782F9A8720
:101CA00089874E815F8168858A850E946E030F5FF8
:101CB000DD0C063019F7F701B0821F5FFFEFEF1A56
:101CC000FF0A153081F60E94A50D0E9456160E944B
:101CD00081130E9455032A96EAE00C94D621CF93F3
:101CE000DF930E94850FEC01811520E59207E0F556
:101CF000811530E4930708F09FC0803E910528F5D8
:101D00008D3C910508F096C0883A910570F4853AAB
:101D1000910508F085C08130910509F47EC008F472
:101D2000DCC0049708F0DCC0D8C0813C910508F005
:101D3000D4C0C85AD0E0CC0FDD1FC85BDE4F09907D
:101D4000D881C02DCE019464CCC0811540E29407A7
:101D500008F0B8C0811551E0950708F0C1C0883E71
:101D6000910508F4BDC0B9C0803662E5960720F53C
:101D7000803472E5970708F06CC0C03282E5D8075E
:101D800008F05EC0C11592E5D90708F489C02C2F70
:101D90002695269560E2269F90011124C37081E06C
:101DA00090E002C0880F991FCA95E2F7E901C82B9D
:101DB000D92BCE019D6895C0803A22E59207E0F4C8
:101DC0008F71C03832E5D30708F059C086958695E3
:101DD00070E2879F900111249C2F9370C1E0D0E0A6
:101DE000AE0102C0440F551F9A95E2F7EA01DA6886
:101DF000C9018C2B9D2B75C0803C42E5940708F4EB
:101E000045C0803E924508F068C0CF71DD27DC2FC9
:101E1000CC27CE01806F906A64C081E090E061C001
:101E2000C55AD0E0C658DE4F8881C82FD0E0CE0119
:101E3000906457C0906555C0DF70CE01906A51C064
:101E4000CF718C2F90E0D82FCC27CE01816F906A74
:101E500048C08F718695869570E2879FA0011124F6
:101E60009C2F937021E030E0B90102C0660F771F0C
:101E70009A95E2F7CB019C68842B952B32C090E0B9
:101E8000D82FCC27CE01846F906A2BC08F710E940F
:101E900021108F7190E0D82FCC27CE01906221C005
:101EA0008C2F8F710E94211095E0D695C7959A9539
:101EB000E1F7CF70D0E0DC2FCC27D069BE01682BD2
:101EC000CB010FC08D2F8F710E942110DD27D062B2
:101ED0008F719E01382BC90104C080E090E001C0E1
:101EE000CE01DF91CF910895753038F4663028F433
:101EF000462F672F0E944F02089580E090E00895DA
:101F00000E94740F0E946F0E08958238910569F146
:101F1000B0F48133910509F475C048F48932910514
:101F200009F467C08A32910509F471C008958533B8
:101F3000910509F459C089339105B9F00895833E9C
:101F4000910589F138F4803E9105D1F0823E9105EA
:101F500029F10895863E9105C9F1873E9105D9F191
:101F6000843E910509F06CC027C020916E0220FDCF
:101F700057C021FD55C020916F0223FD5BC008951D
:101F800080916E0280FD48C080916F0280FF48C042
:101F900080916E0284FD46C083EE51C080916E0236
:101FA00082FF3CC0F5CF80916E0282FD37C08091E8
:101FB0006F0280FD35C0ECCF80916F0281FF36C08B
:101FC00080916E0284FD2EC087EE39C080916E0232
:101FD00083FF2AC0F5CF80916E0283FD25C08091DA
:101FE0006F0281FD23C0ECCF80916E0285FD22C07F
:101FF0001FC080916E0285FD1BC080916F0283FF20
:1020000019C00AC080916E0286FD16C017C080916B
:102010006E0286FD13C010C089E311C082EE0FC0AE
:1020200080EE0DC080E00BC086EE09C084EE07C0D4
:1020300085E305C089E203C08AE201C081E390E044
:10204000089590916E0292FF0DC0282F28712830BC
:1020500019F4877F846006C0282F2471243011F47E
:102060008B7F886093FF0DC0282F2871283119F4C9
:10207000877E846106C0282F2471243111F48B7E61
:10208000886120916F0220FF0DC0382F38713830E1
:1020900019F4877F816006C0382F3171313011F417
:1020A0008E7F886021FF0DC0282F2871283119F4F8
:1020B000877E816106C0282F2171213111F48E7E27
:1020C000886194FD877E089580E008950E94060D42
:1020D00008950E9466118FE39CE90197F1F700C013
:1020E00000000E94661180E00E949E1080FF04C0E4
:1020F0000E9466100E94801A08950E946910089537
:102100000E940D0D811102C00E949C0D0E94180DAD
:1021100080932F020E94220D90936F0280936E0293
:102120000E947D100E941D0D90E00E94C6078091C4
:10213000A0019091A1010E94E4070895E82FF0E02A
:10214000EB58FD4F80810895089580EA8A95F1F754
:10215000089500C008950E94A510089508950E9452
:10216000AE1008950E94AF1008950E94AE10089519
:102170000E94B5100895F894E82FE295EF70F0E012
:1021800031A1282F2F7081E090E001C0880F2A959F
:10219000EAF7982F9095932391A392A1892B82A37C
:1021A000789408950F931F93CF93DF93C3E8D1E002
:1021B00089918F3F11F00E94BB1081E0C838D80789
:1021C000B9F7CDE7D1E003E811E089918F3F11F035
:1021D0000E94BB100C171D07C1F7DF91CF911F9113
:1021E0000F910895A0E0B0E0E8EFF0E10C94BC217D
:1021F0008C01C62FD0E0CE018D579E4F7C01FC0193
:1022000090819F3F09F447C0D62EF894E92FE295BC
:10221000EF70F0E081A19F7021E030E001C0220F5B
:102220009A95EAF7822B81A382A12095282322A3E5
:1022300078940E94A910EDE7F1E043E851E031E025
:10224000C12C21912F3F89F0A22FA295AF70B0E051
:1022500090968C9190E02F7002C0959587952A9565
:10226000E2F780FD02C0832F01C080E0C82A330F4F
:102270004E175F0731F7F70180818F3F11F00E9401
:10228000BB1061E0C11001C060E08D2D0E94AB1059
:10229000C00FD11FC882CDB7DEB7E8E00C94D821BB
:1022A0000E94D21085E0E5E7F2E0DF01982F1D9251
:1022B0009A95E9F7E0E7F2E0DF011D928A95E9F7E8
:1022C00085E00E94A1110E94A1020895A5E0B0E05E
:1022D000ECE6F1E10C94BF218E010F5F1F4F85E00A
:1022E000F80111928A95E9F7F12C6F2DC8010E942F
:1022F000F210F394F5E0FF12F8CF45E050E0B8019A
:1023000080E792E00E94E92121E0009709F420E0B3
:10231000892B41F085E0F801A0E7B2E001900D9231
:102320008A95E1F745E065E772E080E792E00E9478
:10233000A211182F0E94A402812F2596E5E00C948B
:10234000DB210895EF92FF920F931F93CF93DF93BA
:102350007C018B01C42F222349F081E0809332025B
:102360000E94331A9093310280933002809132029E
:10237000811102C080E01AC0809130029091310238
:102380000E944B1A0597B0F3D0E0AE01B701C80127
:102390000E94E921892B39F0AE01B701C8010E94E2
:1023A000F62181E001C080E010923202CDB7DEB7A5
:1023B000E6E00C94DA210E940B1C0E94E20D0E94C0
:1023C000181C08950E941D1C0E94ED0D0E94371CD0
:1023D00008950E94CA190E94F11B0E94CD0D0E940F
:1023E000DB110E94E2110E94D60DFBCF80913902D1
:1023F00080FF06C06091070170E0660F771F26C05E
:1024000081FF04C06091070184E005C082FF07C01E
:102410006091070188E0689FB001112417C0909176
:1024200038029923D1F060910601961788F7209120
:10243000070188E0289F90011124929FA001939F9B
:10244000500D112470E0CA010E945C2160387105B2
:1024500040F46115710519F406C068E070E0862F3C
:1024600008958FE7089581E008958091390280FFF3
:1024700008C06091030170E0759567957595679543
:1024800021C081FF06C06091030170E075956795DA
:1024900019C082FF04C06091030170E010C09091E8
:1024A0003702992399F0609102019617A0F7809165
:1024B0000301899FC001112470E00E945C216038F3
:1024C000710540F46115710519F406C061E070E012
:1024D000862F08958FE7089581E008958D3C21F4BB
:1024E0000E94F611819504C08E3C29F40E94F611D9
:1024F00080933D0208958F3C21F40E94F61181954E
:1025000004C0803D29F40E94F61180933C02089596
:10251000893D19F40E94351205C08A3D31F40E94AC
:102520003512819580933E0208958B3D21F40E94DF
:102530003512819504C08C3D29F40E943512809398
:102540003F0208959FE2980F983078F421E030E040
:10255000A90102C0440F551F9A95E2F7CA01909154
:102560003B02892B80933B0208958D3D21F480919D
:10257000390281600BC08E3D21F480913902826066
:1025800005C08F3D29F4809139028460809339021F
:1025900008958D3C39F490913D0297FF35C010921B
:1025A0003D0259C08E3C29F490913D021916BCF3AE
:1025B0002BC090913C028F3C29F497FF25C01092CC
:1025C0003C0249C0803D19F41916CCF31DC090910E
:1025D0003E02893D29F41916BCF410923E023BC01C
:1025E0008A3D19F497FF10C0F8CF8B3D39F49091D4
:1025F0003F0297FF09C010923F022DC08C3D21F48D
:1026000090913F021916BCF39FE2980F983080F426
:1026100021E030E0A90102C0440F551F9A95E2F76E
:10262000CA01809590913B02892380933B0213C09D
:102630008D3D21F4809139028E7F0BC08E3D21F4B7
:10264000809139028D7F05C08F3D29F48091390238
:102650008B7F8093390280913C02811106C080916A
:102660003D02811102C01092380280913E02811118
:1026700006C080913F02811102C010923702089576
:102680000E94331A20913C02211104C020913D0286
:10269000222321F0909336028093350220913E024E
:1026A000211104C020913F02222321F09093340293
:1026B000809333028AE392E00E9460180895EAE36F
:1026C000F2E086E0DF011D928A95E9F71092380268
:1026D00010923702109239020895FC018281811113
:1026E0000DC0838181110AC08481811107C091E0EE
:1026F0008581811101C090E0892F01C081E0817046
:102700000895A6E0B0E0E7E8F3E10C94C12186E08B
:10271000EAE3F2E0DE01119601900D928A95E1F76D
:1027200010923C0210923D0210923E0210923F0223
:102730008B81811104C08C81882309F45FC0809152
:102740003502909136020E944B1AAC0190913802EA
:10275000992339F02091080130E02417350758F00B
:102760004DC0209109018AE0289F9001112424176F
:10277000350718F043C09F3F19F09F5F90933802D0
:102780001B81112361F00E94F611111614F09FEFC6
:1027900001C091E0989F902D112490933C021C81E0
:1027A000112361F00E94F611111614F09FEF01C081
:1027B00091E0989F902D112490933D0230913C021E
:1027C0003323E1F020913D022223C1F045EB340395
:1027D000C0011124992319F090933C0203C081E0B9
:1027E00080933C0235EB2303C0011124992319F097
:1027F00090933D0203C081E080933D028D81811161
:1028000004C08E81882309F45FC0809133029091C7
:1028100034020E944B1AAC0190913702992339F08F
:102820002091040130E02417350758F04DC0209165
:1028300005018AE0289F900111242417350718F01C
:1028400043C09F3F19F09F5F909337021D81112372
:1028500061F00E943512111614F09FEF01C091E053
:10286000989F902D112490933E021E81112361F0B8
:102870000E943512111614F09FEF01C091E0989F4D
:10288000902D112490933F0230913E023323E1F0CA
:1028900020913F022223C1F045EB3403C0011124F3
:1028A000992319F090933E0203C081E080933E0289
:1028B00035EB2303C0011124992319F090933F02B3
:1028C00003C081E080933F02BE016F5F7F4F8AE3C8
:1028D00092E00E947C19811105C08AE392E00E9477
:1028E0006D1381110E94401386E0FE013196AAE328
:1028F000B2E001900D928A95E1F72696E3E00C9400
:10290000DD2186E090E00E94FF210895682F86E097
:1029100090E00E940D22089580917A02847089616E
:1029200080937A020E94861408950E940D0D8111F1
:1029300004C00E949C0D0E948C140E9481148093FC
:102940007A02282F26952695269530E024303105E9
:1029500024F08770886180937A0280917A0280FFE8
:1029600004C086958695869501C080E00E94AF15CB
:10297000089520917A02822F869586958695482F14
:1029800050E04330510554F48F5F982F990F990F01
:10299000990F822F8770892B80937A0280917A0217
:1029A000816080937A020E94861480917A028695D3
:1029B000869586950E94AF15089580917A02982F8A
:1029C000969596959695A1F0915E990F990F990F0E
:1029D0008770892B80937A02887F91E009F490E0D8
:1029E00080917A0290FB80F980937A020E9486148B
:1029F00080917A028695869586950E94AF150895F6
:102A000080917A0280FD13C0816080937A028130C8
:102A100019F489E080937A0280917A020E948614E8
:102A200080917A028695869586950E94AF150895C5
:102A300080917A0280FF08C08E7F80937A020E9484
:102A4000861480E00E94AF15089580917A0280FF7D
:102A500003C00E94181508950E94001508959091D2
:102A60007A02892F8695869586958F5F8F719770EC
:102A7000843038F4880F880F880F892B80937A026E
:102A800002C090937A0280917A02887F91E009F4E3
:102A900090E080917A0290FB80F980937A020E9404
:102AA000861480917A028695869586950E94AF1548
:102AB0000895843008F083E090917A029770282F6F
:102AC000220F220F220F922B90937A02987F21E0FF
:102AD00009F420E090917A0220FB90F990937A0219
:102AE0000E94AF1508950E94591580917A020E94A4
:102AF000861408959C01FB018281882349F12230CC
:102B0000F8E73F07F9F040F42115E8E73E0769F0E0
:102B10002130384761F00895243098E7390779F07B
:102B200058F02530384789F0089583E001C080E0EF
:102B30000E94731580E008950E94DD14FBCF0E946F
:102B4000B914F8CF0E942515F5CF0E942F15F2CFAA
:102B500081E00895259A2D9808952D980895A0E074
:102B6000B0E0E5EBF5E10C94B821C82F843050F4C7
:102B7000811109C0809180008F77809380000E942E
:102B8000AD1506C0C3E0809180008068809380000E
:102B9000A0918600B09187002C2F30E00E949821F0
:102BA00023E030E040E050E00E9470210027122F27
:102BB000232F342F012F122F232F332780918600AC
:102BC000909187006CE070E00E94482160177107C7
:102BD00030F0C80169E070E00E9448215EC0809139
:102BE000860090918700E0908600F0908700E09149
:102BF0008600F0918700C6E0D0E0BE010E94482127
:102C0000060F171F211D311D4801590185E0880C51
:102C1000991CAA1CBB1C8A95D1F7C701BE010E9452
:102C200048216F01E12CF12CA7019601260F371FD7
:102C3000411D511DC501B4010E94702169017A0135
:102C4000E0918600F0918700CA01B9010E94382105
:102C50009B01AC01DF010E94A7219B01AC01C701D0
:102C6000B6010E943821DC01CB012FE0B695A79573
:102C7000979587952A95D1F7009186001091870046
:102C800020E030E0081719072A073B0728F4609175
:102C9000860070918700CB01BC017093890060931E
:102CA0008800CDB7DEB7ECE00C94D42108950E94E3
:102CB000AA1582E88093800089E1809381008FEFDC
:102CC0009FEF90938700809386000E94951408954B
:102CD000CF93DF93FC01DB0112968C91882309F4DA
:102CE000DDC09F0130572332310508F0D8C0EF0115
:102CF0000E94220D90936F0280936E02FE01E150BC
:102D0000F047E232F10520F4EE59FF4F0C94922186
:102D100080916E028160AAC080916F028860B2C00B
:102D200080916E028260A2C080916E0220C080916C
:102D30006E0288609BC080916F021EC080916F02FE
:102D40008260A0C080916E02806190C080916E020E
:102D500080628CC080916E02806488C00E94680787
:102D600080916E02806882C080916E02886084606B
:102D70007DC080916F028260816084C080916E020C
:102D80008E7F74C080916F02877F7CC080916E02BD
:102D90008D7F6CC080916E0220C080916E02877F13
:102DA00065C080916F021EC080916F028D7F6AC0E6
:102DB00080916E028F7E5AC080916E028F7D56C0C8
:102DC00080916E028F7B52C00E94680780916E02D4
:102DD0008F774CC080916E02877F8B7F47C0809138
:102DE0006F028D7F8E7F4EC080916E0282FB222704
:102DF00020F991E0922790FB82F990FB83F936C08D
:102E000080916F02982F909591708E7F892B90FB07
:102E100081F938C080916E0286FB222720F991E06B
:102E2000922790FB86F922C00E94680780916E026B
:102E300087FB222720F991E0922790FB87F916C0A3
:102E400081E001C080E00E949F0D1EC080916E0253
:102E500084FB222720F991E0922790FB84F906C099
:102E600080916E02982F909590FB80F980936E026E
:102E70000BC080916F0283FB222720F991E09227FB
:102E800090FB83F980936F0280916E0290916F02A4
:102E90000E94270D0E94680780E001C081E0DF9159
:102EA000CF910895CF93DF9386319C4741F5EB0195
:102EB0000E941C0C982F8A81209100013091010101
:102EC000882379F09A7A81E009F480E080934002C7
:102ED000911102C069E201C065E3C9010E944E1967
:102EE0000AC080914002811102C069E201C065E31D
:102EF000C9010E945C190E94600C80E001C081E061
:102F0000DF91CF9108950F931F93CF93DF93C42F39
:102F1000D22FFC0182818823B1F0409343020E94AA
:102F2000331A909342028093410280E28C0F8830E2
:102F300008F04DC0C77081E001C0880FCA95EAF75C
:102F40000E94F70444C080914302481330C080912E
:102F50004102909142020E944B1A883C910538F53B
:102F600010E21D0FCD17B9F080E28C0F883040F4CD
:102F7000C77081E001C0880FCA95EAF70E94FE047D
:102F8000183010F581E09D2F977001C0880F9A9539
:102F9000EAF70E94F704802F0E94ED041830B8F47D
:102FA000D77081E001C0880FDA95EAF70AC080E2A5
:102FB0008C0F883060F4C77081E001C0880FCA951B
:102FC000EAF70E94FE0403C0802F0E94ED04DF9107
:102FD000CF911F910F9108950F93FC01E851FC4789
:102FE000E730F10590F5CB01EC57FF4F0C9492219F
:102FF00006E221EE41EE6AE17CE723C007E225EE1E
:1030000045EE6BE17CE71DC006E221EE40EE68E193
:103010007CE717C007E225EE44EE69E17CE711C0CA
:1030200006E221EE42EE6CE17CE70BC007E225EE02
:1030300046EE6DE17CE705C008E221E045EE6EE179
:103040007CE70E94831780E008C0FB01828188230F
:1030500019F01092430201C081E00F9108959093FE
:1030600089018093880108959093490280934802D2
:103070000895E0914802F0914902309729F00190BB
:10308000F081E02D0995089580E00895FC01A0915C
:103090004802B0914902109791F080911201882363
:1030A00041F080916E0287FF04C08081818386E0B9
:1030B0008083CF011296ED91FC91139709950895A5
:1030C000E0914802F0914902309739F022E0DC01AA
:1030D0002C930480F581E02D09950895A3E0B0E0DC
:1030E000E4E7F8E10C94C2212091460230914702B6
:1030F00028173907A1F09093470280934602E09188
:103100004802F0914902309751F023E029839B83D4
:103110008A830680F781E02DCE01019609952396DA
:10312000E2E00C94DE21A3E0B0E0E9E9F8E10C94E0
:10313000C221209144023091450228173907A1F09D
:103140009093450280934402E0914802F091490235
:10315000309751F024E029839B838A830680F7818E
:10316000E02DCE01019609952396E2E00C94DE2134
:10317000FC01329680911201882331F080916E0219
:1031800087FF02C09EE101C096E080E0915028F0E8
:1031900021912223D9F38F5FF9CF0895662351F14E
:1031A000209112012223E9F020916E0227FF19C01D
:1031B000462F4695469546954E31E0F4677021E0DE
:1031C00030E002C0220F331F6A95E2F7FC01E40FE2
:1031D000F11D828190E02823392381E0232B69F4BB
:1031E00009C0FC01329608962191621729F0E81770
:1031F000F907D1F780E0089581E008959C01FC0172
:1032000032969FEF80E04191461789F09F3F19F475
:10321000411101C0982F8F5F8630A9F79F3F39F089
:10322000F901E90FF11D97FDFA956283089508955C
:103230009C012A5F3F4FFC014281461301C012826C
:10324000019682179307B9F70895262F269526959C
:1032500026952E3168F4FC01E20FF11D677021E024
:1032600030E001C0220F6A95EAF78281282B228381
:103270000895262F2695269526952E3170F4FC016B
:10328000E20FF11D677021E030E001C0220F6A9566
:10329000EAF7209582812823228308952091120144
:1032A000222339F020916E0227FF03C00E942519C6
:1032B00008950E94FE18089520911201222339F0EA
:1032C00020916E0227FF03C00E94391908950E94C1
:1032D0001819089520911201FC013296222331F031
:1032E00080916E0287FF02C08EE101C086E0DF019F
:1032F0001D928A95E9F7089546E050E00E94E92181
:1033000021E0892B09F420E0822F089508950E947E
:103310008619089583E080934A020E9487190895D0
:10332000811102C081E001C082E080934A020E94C4
:10333000871908950E949019089581E080934A02A8
:103340000E94871908950E949D19089508950E946A
:10335000A61908950E94A71908950E94A619089514
:103360000E94A61908950E94A6190895CF930E945D
:10337000B0190E9466110E94AD19C0E08C2F0E9406
:103380009E10811104C0CF5FC530C1F701C081E03C
:10339000CF91089585B7806885BF85B7806885BF60
:1033A00008951F920F920FB60F9211248F939F933F
:1033B000AF93BF9380914B02811113C080917B0228
:1033C00090917C02A0917D02B0917E024196A11D58
:1033D000B11D80937B0290937C02A0937D02B093F9
:1033E0007E02BF91AF919F918F910F900FBE0F9072
:1033F0001F90189580918302843031F10E941E0342
:1034000010924B0220E488E190E00FB6F894A89562
:10341000809360000FBE2093600083B7817F84603B
:1034200083BF83B7816083BF7894889583B78E7F8D
:1034300083BF0FB6F894A89580916000886180934F
:103440006000109260000FBE08950E9468070E94FD
:103450002603089582E084BD93E095BD9AEF97BD61
:1034600080936E0008952FB7F89480917B0290911D
:103470007C02A0917D02B0917E022FBF08952FB7EC
:10348000F89460917B0270917C0280917D02909112
:103490007E022FBF08959C014FB7F89480917B0264
:1034A00090917C02A0917D02B0917E024FBF821B61
:1034B000930B089578941F920F920FB60F921124D8
:1034C0008F939F93AF93BF9380917B0290917C02E7
:1034D000A0917D02B0917E020196A11DB11D809345
:1034E0007B0290937C02A0937D02B0937E02BF91F9
:1034F000AF919F918F910F900FBE0F901F901895D5
:1035000087E797E790930108809300089AE088E1A5
:103510000FB6F894A895809360000FBE909360005A
:10352000FFCF9AE088E10FB6F894A89580936000E9
:103530000FBE90936000FFCF80916C0208959B01B5
:10354000909183029430F1F48F708093E9008FEFB3
:103550009091E800815095FD06C095ED9A95F1F7A0
:1035600000008111F5CF8091E80085FF0BC0BA0102
:10357000C90140E050E00E94AA1C8091E8008E77CB
:103580008093E800089543E050E0BC0182E00E948F
:103590009F1A089546E050E0BC0182E00E949F1A05
:1035A0000895CF93DF93EC0180911201811105C042
:1035B00048E050E0BE0181E00BC080916E0287FFC1
:1035C00003C040E282E002C048E081E050E0BE017A
:1035D0000E949F1A80E2FE01ACE4B2E001900D92DD
:1035E0008A95E1F7DF91CF91089580918202811150
:1035F00009C00E94351E0E94921E8091E2008460E4
:103600008093E20008951092820208950E94A31907
:10361000089560917F0281E0611101C080E00E9405
:103620008A1908959091830281E0943009F080E036
:1036300060917F020E949019089542E061EC81E060
:103640000E94AE1D42E261EC82E00E94AE1D9091AC
:10365000830281E0943009F080E060917F020E9453
:103660009A19089580918502833009F461C030F47D
:10367000813071F0823009F49BC008958A3009F4DA
:1036800087C08B3009F46CC0893009F0A9C020C014
:1036900080918402813A09F0A3C08091E800877F7D
:1036A0008093E8008091880290918902892B21F40F
:1036B00060E28CE492E003C060E080E090E070E0C3
:1036C0000E94EF1C8091E8008B778093E8000895BA
:1036D00080918402813209F083C0809188029091A8
:1036E0008902029708F07CC08091E800877F809370
:1036F000E8008091E80082FD05C08091830281117D
:10370000F8CF6EC02091F3008091F20090E0922BF0
:10371000029731F48091F100813011F0863021F46C
:103720008091F10080936C028091E8008B7754C007
:1037300080918402813A09F053C08091880290916F
:103740008902892B09F04CC08091E800877F809323
:10375000E8008091E80080FFFCCF8091120137C023
:10376000809184028132E1F58091880290918902F2
:10377000892BB1F58091E800877F8093E8000E9453
:10378000E31D80918602809312010E9468070895CC
:1037900080918402813221F58091E800877F8093B7
:1037A000E8000E94E31D8091870280936D020895D6
:1037B00080918402813AA1F48091E800877F809310
:1037C000E8008091E80080FFFCCF80916D0280933B
:1037D000F1008091E8008E778093E8000E94E31D5D
:1037E000089584B7877F84BF0FB6F894A895809119
:1037F0006000886180936000109260000FBE90E0CE
:1038000080E80FB6F89480936100909361000FBE3A
:103810000E949D1908950E94351E0E94921EE2EE9C
:10382000F0E080818460808378940E941D21089557
:103830008AE091E00E9434180895809183028530D7
:10384000A9F480918302853079F40E94FA1980915D
:1038500081028823B1F30E94B619882391F30E9454
:10386000941C0E946807EDCF0E94251A08950895C0
:103870000E943B1C0895292F332723303105C9F0BE
:1038800060F42130310581F02230310509F044C067
:103890008BE390E02AEC32E043C021323105E1F0C5
:1038A0002232310549F138C082E190E025E033E071
:1038B00037C099278130910549F028F0029761F5CA
:1038C000E2E9F2E005C0E6ECF2E002C0E4EAF2E090
:1038D000849190E09F0124C06115710541F0613031
:1038E0007105D1F489E090E025EF32E019C089E05C
:1038F00090E02CED32E014C06115710541F06130AB
:10390000710551F486EB90E027E133E009C080E4D3
:1039100090E02DEC33E004C080E090E020E030E067
:10392000FA0131832083089580E189BD82E189BD58
:1039300009B400FEFDCF8091D8008F7D8093D80020
:103940008091E00082608093E0008091E00081FD42
:10395000FCCF0895A0E0B0E0E0EBFCE10C94BC21CA
:10396000EC018B017A010E94021E811133C0E11427
:10397000F10439F0F70180819181081B190BC80F00
:10398000D91FC12CD12C0115110519F18091E80026
:1039900085FD16C08091E8008E778093E800E114E1
:1039A000F10449F0F70180819181C80ED91ED182BE
:1039B000C08285E00FC00E94021E882321F30AC046
:1039C00089918093F10001501109FFEFCF1ADF0AAE
:1039D000DACF80E0CDB7DEB7E8E00C94D8212091B3
:1039E0008A0230918B022617370748F0611571055E
:1039F00039F42091E8002E772093E80001C0B90146
:103A0000FC0120E06115710579F180918302882322
:103A1000F1F18530F1F18091E80083FD3CC08091A7
:103A2000E80082FD2EC08091E80080FFEBCF20915E
:103A3000F3008091F20090E0922B6115710551F036
:103A40008830910538F421912093F100615071097B
:103A50000196F3CF21E0089709F020E08091E8007B
:103A60008E778093E800CECF2111CFCF0AC080910E
:103A70008302882361F0853061F08091E80083FD46
:103A80000AC08091E80082FFF2CF80E0089582E0D2
:103A9000089583E0089581E0089520918A0230918D
:103AA0008B022617370748F06115710539F420910C
:103AB000E8002E772093E80001C0B901FC0120E066
:103AC0006115710591F180918302882309F440C04A
:103AD000853009F43FC08091E80083FD3DC08091AE
:103AE000E80082FD2FC08091E80080FFE9CF20919F
:103AF000F3008091F20090E0922B6115710559F06E
:103B00008830910540F424912093F1003196615062
:103B100071090196F2CF21E0089709F020E0809129
:103B2000E8008E778093E800CBCF2111CCCF0AC07C
:103B300080918302882361F0853061F08091E800F4
:103B400083FD0AC08091E80082FFF2CF80E00895F3
:103B500082E0089583E0089581E00895982F9730DA
:103B600068F59093E900981739F07091EC00209176
:103B7000ED005091F00003C0242F762F50E021FD7E
:103B800002C09F5FECCF3091EB003E7F3093EB00A3
:103B90003091ED003D7F3093ED003091EB003160CE
:103BA0003093EB007093EC002093ED005093F00005
:103BB0002091EE0027FDE5CF80E008958F7080937F
:103BC000E90081E008958091840287FF11C080910F
:103BD000E80082FD05C0809183028111F8CF11C0F9
:103BE0008091E8008B770BC080918302882349F095
:103BF0008091E80080FFF8CF8091E8008E77809375
:103C0000E80008952091E4003091E50095E64091A8
:103C1000EC00842F817040FF23C08091E80080FD7C
:103C20001DC080918302882399F0853099F080919E
:103C3000EB0085FD11C04091E4005091E500241790
:103C4000350729F3915011F09A01E1CF84E00895EE
:103C500082E0089583E0089581E0089580E008956A
:103C60004091E80042FFDDCF08950E94A41E0E940B
:103C7000AC1EE0EEF0E0808181608083E8EDF0E052
:103C800080818F77808319BCA7EDB0E08C918E7F07
:103C90008C9380818F7E80831092820208950F938F
:103CA0001F93CF93DF930E94A41E0E94AC1EC8ED09
:103CB000D0E088818F778883888180688883888135
:103CC0008F7D888319BC1092830210927F0210921C
:103CD00081021092800200EE10E0F80180818B7F5B
:103CE000808388818160888342E060E080E00E9478
:103CF000AE1DE1EEF0E080818E7F8083E2EEF0E0A9
:103D0000808181608083808188608083F8018081E8
:103D10008E7F8083888180618883DF91CF911F911E
:103D20000F910895E8EDF0E080818F7E8083E7EDCC
:103D3000F0E080818160808384E082BF81E08093B5
:103D400082020E944F1E0895E8EDF0E080818E7F90
:103D500080831092E20008951092DA001092E10040
:103D600008951F920F920FB60F9211242F933F9335
:103D70004F935F936F937F938F939F93AF93BF9373
:103D8000EF93FF938091E10082FF0BC08091E200EE
:103D900082FF07C08091E1008B7F8093E1000E9449
:103DA0001C218091DA0080FF1FC08091D80080FF25
:103DB0001BC08091DA008E7F8093DA008091D90059
:103DC00080FF0DC080E189BD82E189BD09B400FE9C
:103DD000FDCF81E0809383020E94F51A05C019BCD3
:103DE000109283020E94031B8091E10080FF19C0A2
:103DF0008091E20080FF15C08091E2008E7F809369
:103E0000E2008091E20080618093E2008091D8001E
:103E100080628093D80019BC85E0809383020E9461
:103E2000091B8091E10084FF30C08091E20084FF93
:103E30002CC080E189BD82E189BD09B400FEFDCFBF
:103E40008091D8008F7D8093D8008091E1008F7E93
:103E50008093E1008091E2008F7E8093E200809168
:103E6000E20081608093E20080917F02882311F05C
:103E700084E007C08091E30087FD02C081E001C0BB
:103E800083E0809383020E94121B8091E10083FFF4
:103E900029C08091E20083FF25C08091E100877FE7
:103EA0008093E10082E08093830210927F028091F0
:103EB000E1008E7F8093E1008091E2008E7F80930D
:103EC000E2008091E20080618093E20042E060E0E5
:103ED00080E00E94AE1D8091F00088608093F00029
:103EE0000E94061BFF91EF91BF91AF919F918F911F
:103EF0007F916F915F914F913F912F910F900FBEE6
:103F00000F901F9018951F920F920FB60F921124C9
:103F10002F933F934F935F936F937F938F939F93D1
:103F2000AF93BF93CF93DF93EF93FF93C091E900DB
:103F3000CF708091EC00D82FD17080FDD0E8109226
:103F4000E9008091F000877F8093F00078940E94D0
:103F5000C71F1092E9008091F00088608093F00004
:103F6000CD2BCF70C093E900FF91EF91DF91CF91FE
:103F7000BF91AF919F918F917F916F915F914F9181
:103F80003F912F910F900FBE0F901F901895AAE2AE
:103F9000B0E0EDECFFE10C94C121E4E8F2E08091A7
:103FA000F100819322E0EC38F207C9F70E94321B3E
:103FB0008091E80083FF2EC1809184029091850258
:103FC000492F50E04A30510508F024C1FA01E55765
:103FD000FF4F0C949221803821F0823809F01AC1E9
:103FE00008C08091800290918102992389F08260BB
:103FF0000FC0809188028F70873008F00BC18093CA
:10400000E9008091EB0085FB882780F91092E90098
:104010009091E800977F9093E8008093F1001092D0
:10402000F100D1C0282F2D7F09F0F4C0882319F0AA
:10403000823061F0EFC080918602813009F0EAC0E1
:10404000933009F080E0809381022EC08091860237
:1040500081112AC0809188028F702FEF280F26309F
:1040600008F0D8C08093E9002091EB0020FF1CC02D
:10407000933021F48091EB00806214C09091EB00AA
:1040800090619093EB0021E030E0A90102C0440F61
:10409000551F8A95E2F74093EA001092EA0080915A
:1040A000EB0088608093EB001092E9008091E800BB
:1040B000877F8093E8000E94E31DACC08111AAC0F5
:1040C000109186021F778091E3008078812B809386
:1040D000E3008091E800877F8093E8000E94E31D61
:1040E0008091E80080FFFCCF8091E300806880939E
:1040F000E300111102C082E001C083E080938302DB
:1041000089C08058823008F085C0809186029091E5
:1041100087028C3D53E0950779F583E08A838AE234
:1041200089834FB7F894DE01139620E03EE051E218
:10413000E32FF0E050935700E49120FF03C0E29595
:10414000EF703F5FEF708E2F90E0EA3010F0C7966F
:1041500001C0C0968D939D932F5F243149F74FBFC7
:104160008091E800877F8093E8006AE270E0CE01EA
:1041700001960E94EF1C16C060918802709189021E
:10418000AE014F5F5F4F0E94381CBC01892B09F4C0
:1041900041C09091E800977F9093E80089819A81CF
:1041A0000E944D1D8091E8008B778093E80032C01B
:1041B000803881F58091E800877F8093E8008091C6
:1041C0007F028093F1008091E8008E7772CF811199
:1041D00021C0809186029091870299270297D4F49A
:1041E0008091E800877F8093E80080918602809329
:1041F0007F020E94E31D80917F02811106C08091A1
:10420000E30087FD02C081E001C084E08093830267
:104210000E941D1B8091E80083FF0AC08091E80086
:10422000877F8093E8008091EB0080628093EB00B1
:10423000AA96E3E00C94DD210895CF938091830248
:104240008823A1F0C091E900CF709091EC00892FF4
:10425000817090FD80E8C82B1092E9008091E80001
:1042600083FD0E94C71FCF70C093E900CF910895CE
:10427000DB018F939F930E94A721BF91AF91A29FD3
:10428000800D911DA39F900DB29F900D1124089554
:10429000AA1BBB1B51E107C0AA1FBB1FA617B7076C
:1042A00010F0A61BB70B881F991F5A95A9F7809588
:1042B0009095BC01CD01089597FB072E16F400944C
:1042C00007D077FD09D00E94482107FC05D03EF4B5
:1042D000909581959F4F0895709561957F4F0895B2
:1042E000A1E21A2EAA1BBB1BFD010DC0AA1FBB1FFA
:1042F000EE1FFF1FA217B307E407F50720F0A21B6C
:10430000B30BE40BF50B661F771F881F991F1A94D8
:1043100069F760957095809590959B01AC01BD0102
:10432000CF010895EE0FFF1F0590F491E02D099441
:10433000A29FB001B39FC001A39F700D811D1124E6
:10434000911DB29F700D811D1124911D08950E9431
:104350009821A59F900DB49F900DA49F800D911D55
:10436000112408952F923F924F925F926F927F9205
:104370008F929F92AF92BF92CF92DF92EF92FF9275
:104380000F931F93CF93DF93CDB7DEB7CA1BDB0B21
:104390000FB6F894DEBF0FBECDBF09942A883988C6
:1043A00048885F846E847D848C849B84AA84B984CD
:1043B000C884DF80EE80FD800C811B81AA81B981D9
:1043C000CE0FD11D0FB6F894DEBF0FBECDBFED01ED
:1043D0000895FB01DC0104C08D910190801921F446
:1043E00041505040C8F7881B990B0895FB01DC0130
:1043F00002C001900D9241505040D8F70895F999AC
:10440000FECF92BD81BDF89A992780B50895A8E1A5
:10441000B0E042E050E00C943322262FF999FECF11
:1044200092BD81BDF89A019700B4021639F01FBA07
:1044300020BD0FB6F894FA9AF99A0FBE0895039624
:10444000272F0E940E220E940D22252F0E940E224D
:10445000242F0C940E220196272F0E940E220C94DA
:104460000D22DC01CB01FC01F999FECF06C0F2BDA3
:10447000E1BDF89A319600B40D9241505040B8F722
:064480000895F894FFCF3F
:10448600FE01280850011E0A14019C1AD11ACA1AE4
:10449600C31A01E200E900EA00B500B600B700CD94
:1044A600008301CC008A0192019401210223022497
:1044B600022502260227022A02B300B4006F00700A
:1044C600009F01CB01818283E200E900EA00B5008A
:1044D600B600B700CD008301CC008A019201940199
:1044E6002102230224022502260227022A02B30001
:1044F600B4006F0070009F01CB0181828334C697A0
:08450600669490F73133323660
:00000001FF
