:100000000C9472050C94AA050C94AA050C94A128D2
:100010000C94AA050C94AA050C94AA050C94AA05A4
:100020000C94AA050C94AA050C947E1C0C94C01B7D
:100030000C94EF230C94AA050C94AA050C94AA0521
:100040000C94AA050C94AA050C94AA050C94AA0574
:100050000C94AA050C94A2230C94AA050C94AA054E
:100060000C94AA050C94AA050C94AA050C94AA0554
:100070000C94AA050C94AA050C94AA050C94AA0544
:100080000C94AA050C94AA050C94AA050C94AA0534
:100090000C94AA050C94AA050C94AA050C94AA0524
:1000A0000C94AA050C94AA050C94AA057109E509FB
:1000B0007909430947097D094A0980098B095509CE
:1000C000DB0959098F095D099309BD096109970980
:1000D000C70967099D09A7094E09840951098709BC
:1000E0006C09A209B309D309D5093F097509EE09BD
:1000F000140A1A0A080A0E0A200A260A2C0AF20A08
:10010000F20A240B240BA00BBE0BE20CE20CC30B77
:10011000510C620C620CBA0FC70FBD0FC70FC00F96
:10012000C70FC70FC70FC30FC70FC30FC70FC30F2B
:10013000C70FC30FDF19061A9E1B061A9E1B4E1A05
:10014000711A9E1B601B731B202020206162636458
:1001500065666768696A6B6C6D6E6F7071727374D7
:1001600075767778797A31323334353637383930B5
:10017000524542545F2D3D5B5D5C233B27602C2E36
:100180002F202020000000000000000000000000E0
:10019000000000000000000000000000000000005F
:1001A00000000000000000007E0F00D4FFFFFFC72A
:1001B0000000007800000000000000002A2B28004A
:1001C0000000000000000000000000000000002906
:1001D000000000002C1E3420212224342627252E46
:1001E000362D3738271E1F2021222324252633337E
:1001F000362E37381F0405060708090A0B0C0D0EAA
:100200000F101112131415161718191A1B1C1D2F75
:100210003130232D350405060708090A0B0C0D0E95
:100220000F101112131415161718191A1B1C1D2F55
:100230003130354C00DA0281FFD9F1DB20A4A62E43
:10024000AF00A0C0D30000A1C8D30000AED580A8E5
:100250001F408D14200041646A75737400526169F7
:100260007365004C6F7765720044656661756C74E8
:10027000004C617965723A20008081828384858692
:100280008788898A8B8C8D8E8F9091929394A0A170
:10029000A2A3A4A5A6A7A8A9AAABACADAEAFB0B1C6
:1002A000B2B3B4C0C1C2C3C4C5C6C7C8C9CACBCC27
:1002B000CDCECFD0D1D2D3D4002B0014001A000859
:1002C0000015001700292104001600070009000A84
:1002D0000064221D001B000600190005000000003C
:1002E0000000002B2421522A002A00130012000CC7
:1002F0000018001C00340033000F000E000D000B2E
:1003000000283238003700360010001100000000CD
:100310000000003E2122522C0029003A003B003C04
:10032000003D000100E0003E003F00400041002889
:1003300013E10042004300440045000F08000000A4
:10034000000000E200010028004C052A002B0029D3
:10035000004C053500460034004F0052005100505B
:1003600000440028324D004B004E004A00000000BF
:10037000000000E3002352280035001E001F00206B
:10038000000100460019132100220023000100197A
:1003900013511324002500260027005113000000EC
:1003A000000000E20023522C004C00270226022508
:1003B0000224020100350030002F002E002D000124
:1003C00000D100B700B60064003200010000000058
:1003D000000000E30001002800007C007C00000019
:1003E000000000000020782378257827780000009E
:1003F000002178247826782878000000000000008A
:10040000000000E20001002C0000000000000000DD
:1004100000000000000000000000000000000000DC
:1004200000000000000000000000000000000000CC
:10043000000000E3000100280005010902A1018578
:10044000020901A1000509190129081500250195D6
:1004500008750181020501093009311581257F9553
:10046000027508810609381581257F950175088177
:1004700006050C0A38021581257F9501750881064D
:10048000C0C005010980A101850319012AB7001523
:100490000126B700950175108100C0050C0901A166
:1004A00001850419012AA002150126A002950175F3
:1004B000108100C005010906A1018506050719E0A4
:1004C00029E7150025019508750181020507190026
:1004D00029EF1500250195F0750181020508190124
:1004E0002905950575019102950175039101C005D6
:1004F000010906A101050719E029E7150025019565
:100500000875018102950175088101050719002907
:10051000FF150026FF0095067508810005081901E2
:100520002905950575019102950175039101C00991
:10053000023B00020100A0FA0904000001030101CE
:100540000009211101000122400007058103080074
:10055000010904010001030000000921110100014B
:1005600022B60007058203200001120100020000EC
:100570000008534601000100010200010C03430082
:100580006F0072006E0065000000100366006F00CF
:100590006F007300740061006E0000000403090422
:1005A0000000000000003E5B4F5B3E003E6B4F6B67
:1005B0003E001C3E7C3E1C00183C7E3C18001C5734
:1005C0007D571C001C5E7F5E1C0000183C1800005C
:1005D000FFE7C3E7FF00001824180000FFE7DBE790
:1005E000FF0030483A060E00262979292600407F70
:1005F00005050700407F05253F005A3CE73C5A00AF
:100600007F3E1C1C0800081C1C3E7F0014227F2219
:1006100014005F5F005F5F0006097F017F000066D6
:1006200089956A0060606060600094A2FFA29400F7
:1006300008047E04080010207E20100008082A1CF0
:100640000800081C2A0808001E10101010000C1EBC
:100650000C1E0C0030383E383000060E3E0E0600F0
:1006600000000000000000005F000000000700071D
:100670000000147F147F1400242A7F2A1200231301
:100680000864620036495620500000080703000045
:10069000001C224100000041221C00002A1C7F1C7B
:1006A0002A0008083E080800008070300000080892
:1006B0000808080000006060000020100804020024
:1006C0003E5149453E0000427F4000007249494981
:1006D00046002141494D33001814127F1000274570
:1006E000454539003C4A494931004121110907007B
:1006F000364949493600464949291E000000140080
:1007000000000040340000000008142241001414CE
:1007100014141400004122140800020159090600B3
:100720003E415D594E007C1211127C007F494949BF
:1007300036003E41414122007F4141413E007F4918
:10074000494941007F09090901003E4141517300B7
:100750007F0808087F0000417F4100002040413FA2
:1007600001007F08142241007F40404040007F028A
:100770001C027F007F0408107F003E4141413E0083
:100780007F09090906003E4151215E007F091929B0
:10079000460026494949320003017F0103003F40DA
:1007A00040403F001F2040201F003F4038403F0096
:1007B0006314081463000304780403006159494D6D
:1007C0004300007F41414100020408102000004125
:1007D00041417F00040201020400404040404000CB
:1007E0000003070800002054547840007F28444448
:1007F0003800384444442800384444287F003854A2
:100800005454180000087E0902001824241C7800A3
:100810007F080404780000447D4000002040403DF3
:1008200000007F102844000000417F4000007C044D
:10083000780478007C080404780038444444380084
:100840007C1824241800182424187C007C08040434
:10085000080048545454240004043F4424003C40FD
:1008600040207C001C2040201C003C4030403C00CC
:100870004428102844004C9090907C004464544CD0
:1008800044000008364100000000770000000041ED
:10089000360800000201020402003C2623263C0028
:1008A0000000000000000000000000000000000048
:1008B000C0E0F0F8F81800C0F0FCFEFFFFFFFFFFFB
:1008C000FFFF7E00000000000000000080C0E0E0AC
:1008D000E0E0E0E0E0E0C0800000000080C0E0E098
:1008E000E0E0E0E0E0E0C080000000E0E0C0C0E068
:1008F000E0E0E00000E0E0C0C0E0E0E0E0E0C08078
:100900000000000080C0E0E0E0E0E0E0E0E0C08067
:100910000000000000000000000000000000E0F007
:10092000F0F0E0ECEEF7F37020007C7C7C7E007E43
:100930007E7E7F7F7F000080C0E07E5B4F5BFEC0DD
:100940000000C000DCD7DEDEDED7DC00C000000027
:100950000000000000000000000000000000000097
:10096000000000000000000000F8FCFEFFE000FFB7
:10097000FFFFFFFFFF80FFFFFFFFFFFFFFFFFF1FE6
:100980000701000000000000000000FFFFFF8100E1
:10099000000000000081C3C3C30000FFFFFF81000F
:1009A000000000000081FFFFFF0000FFFFFF0100CB
:1009B0000000000000FFFFFF010000000001FFFF3A
:1009C000FF0000FFFFFF9D1C1C1C1C1C1C9DDFDF8B
:1009D000DF000000000000000000000000000F1F0A
:1009E0003F7F7F7F7F7F3F1E0C001F1F1F3F003F09
:1009F0003F3F7F7F7F00307B7F7830202030787FC3
:100A00003B0003000F7F0F0F0F7F0F00030000005C
:100A100000000000000000000000000000000000D6
:100A2000000000000000000000030F1F3F3F3F3F99
:100A30001F1F3F3F7F7F7F3F3F1F3F7F7F7F7F7C29
:100A40007878381C0F000000000000000103070741
:100A50000707070707070301000000000103070756
:100A60000707070707070301000000070707000043
:100A70000000000000070707000000000000070753
:100A8000070000000103070707070707070703011F
:100A90000000000000000000000000000000000056
:100AA0000000000000000000000000000000000046
:100AB0000000000000000000000000000000000036
:100AC0000000000000000000000000000000000026
:100AD0000000000000000000000000000000000016
:100AE00000AF00AE11241FBECFEFDAE0DEBFCDBFF6
:100AF00004B603FE18C08091450590914605A0916B
:100B00004705B09148058730904BA740B04B59F44A
:100B1000109245051092460510924705109248051F
:100B2000E0E0F8E3099511E0A0E0B1E0E2E1FBE5E7
:100B300002C005900D92AE38B107D9F725E0AEE8B6
:100B4000B1E001C01D92A534B207E1F70E941D0D6E
:100B50000C94872D0C9400009C013A9521153F417F
:100B600030F5BC0166277270AC01442754709C01BB
:100B70002227387094FF0FC090FF02C080E101C0AF
:100B800080E0672B09F08062452B09F08064232BFD
:100B900079F080680895892F8170672B09F0826051
:100BA000452B09F08460232B19F08860089580E0BC
:100BB0000895A6E0B0E0EFEDF5E00C94E529498357
:100BC0005A8349815A81992361F0222351F0CA0145
:100BD0000E94E11D182F682F89819A810E94FF1FB2
:100BE00004C0CA010E94CC1F182F69817A81812F0D
:100BF0000E9465142696E3E00C94012A0E945F206F
:100C00002FEF84E39CE0215080409040E1F700C04A
:100C100000009CE088E10FB6F894A89580936000EE
:100C20000FBE90936000FFCFABE1B0E0EAE1F6E0E9
:100C30000C94E4294E8B5F8B688F798F8A8F9B8F02
:100C4000192F911110921005DE011F9687E0FD010A
:100C500011928A95E9F786E0FE01769601900D9251
:100C60008A95E1F70A8D002341F021E04F855889EC
:100C700069897A89C8010E94D9050B8B1C8B87E092
:100C8000FE013F96DE01189601900D928A95E1F7DC
:100C9000CE0108960E94451E81112CC087E0FE01FE
:100CA0003896DE01119601900D928A95E1F76C85D8
:100CB000662301F12091240230E0C901019687707A
:100CC000992740915D0250E08417950761F16D838B
:100CD00097E0929FD001939FB00D1124AB5DBD4F63
:100CE000FE01319601900D929A95E1F780932402CE
:100CF0000E94531617E080915D029091240289179B
:100D0000F9F0189FC00111248B5D9D4F0E94451E74
:100D10008823B1F080915D0290E001968770992759
:100D200080935D02E8CF0E945F201092240210920F
:100D30005D02EDE1F2E087E0DF011D928A95E9F7BF
:100D40006B96E4E00C94002ACF93DF93EC010E94B1
:100D50008C21CE01805E9109089710F0209731F424
:100D6000CE010E94AC050E94A32005C0CE010E94C6
:100D7000AC050E948E20DF91CF910895CF93DF9331
:100D8000EC01805E9109089710F0209731F4CE01B4
:100D90000E94AC050E94AA2005C0CE010E94AC05AD
:100DA0000E9499208C2F0E94C221DF91CF9108953B
:100DB000A0E0B0E0EEEDF6E00C94D829FC018481CF
:100DC000882309F435C67F0121E040815181628189
:100DD000738195810E94D905EC01F70185818823F3
:100DE00009F466C080E280930901D093D501C093D5
:100DF000D401AE01505221814115F0E25F0728F481
:100E0000F7018681807F79F428C0CE019054811546
:100E1000904120F4F7018681807F29F4CE019A95D4
:100E200081159F4118F4FE01FF2707C0CE01805AAB
:100E30009245809708F483C1FE01ED33F10508F077
:100E40007EC1E85BFE4FE491E09309012093D70156
:100E5000F70180818093D60172C1CE0199278C332E
:100E6000910528F4FC01E85BFE4F308101C030E2BF
:100E70001F923F939F938F93F70180811F928F93CF
:100E80001F922F938FE291E09F938F931F9288E19F
:100E90008F938AEB91E09F938F930E94C62A2DB780
:100EA0003EB7225F3F4F0FB6F8943EBF0FBE2DBF37
:100EB0000E94E3234C01F7018581882309F40CC1CA
:100EC00080912E0182FF07C043EB51E0B40180E026
:100ED00090E00E945C25C231FCE7DF07C9F178F49D
:100EE000C0313CE7D30751F1C1318CE7D80709F095
:100EF000E9C080912C0190912D01059624C0C43148
:100F00009CE7D90799F060F0C531FCE7DF0709F0ED
:100F1000D9C080912E01982F909590FB80F909C03F
:100F200080912E01816080932E01CCC080912E0192
:100F30008E7F80932E010E943925C4C080912C01A0
:100F400090912D01059790932D0180932C01BAC0AB
:100F500080912C0190912D010E9498188C0101968E
:100F6000F80120812032D1F33AE0432EF8012081AC
:100F7000222309F4A7C0213009F04CC081818130BF
:100F800049F46801F2E0CF0ED11CF80182810E9481
:100F90003A220AC0823051F46801F2E0CF0ED11C2F
:100FA000F80182810E94C221860189C0833049F400
:100FB0006801F2E0CF0ED11CF80182810E948C21E1
:100FC000F3CF843019F00F5F1F4F79C0F8012281F1
:100FD0000E5F1F4F80E090E030E0205331092A304F
:100FE000310568F4489EA001499E500D1124C901A5
:100FF000840F951F0F5F1F4FF8012081EDCF0097E1
:1010000009F45DC0EFE9FFE03197F1F700C000009F
:101010000197F5CFE22FF0E0EC54FE4F5490822F71
:1010200086958695869590E0FC01EC55FE4F649080
:101030002770712C022E02C0759467940A94E2F70F
:10104000F1E06F227724FC01EC56FE4FA490B12C06
:10105000022E02C0B594A7940A94E2F731E0A322CD
:10106000BB24FC01EC57FE4FC490D12C02C0D59498
:10107000C7942A95E2F781E0C822DD246114710447
:1010800019F081EE0E94C221A114B10419F086EE7C
:101090000E94C221852D0E943A22A114B10419F0A8
:1010A00086EE0E948C216114710419F081EE0E9479
:1010B0008C21C114D10419F08CE20E943A220F5FF6
:1010C0001F4F54CFCE01905281159043D8F4109207
:1010D000340510923305AAC0C13ED10521F4809198
:1010E0002E018F7E06C0C53ED10531F480912E01C0
:1010F0008F7D80932E0106C0CE01905281159043C2
:1011000008F494C080912E0180FF90C0F701858182
:10111000CB32D105D1F040F49E0124503109243264
:10112000310508F076C011C0CD32D10508F471C088
:10113000C933D10550F0C436D10539F06AC0411524
:10114000504308F48ACECE018ACE882309F45BC0CE
:1011500080917F0290910F05982B292F2D7F49F1C7
:101160001092340510923305FE0194E0F695E79550
:101170009A95E1F7EE0FFF1FEF5EFA4F9E012F7079
:10118000332781E090E002C0880F991F2A95E2F78B
:101190008095909520813181822393239183808350
:1011A000CE010E94BE0680917F028D7F0E949F1516
:1011B00026C027E0F701A3EBB1E001900D922A953C
:1011C000E1F71092B8011092B6011092B501969510
:1011D000917020912E0190FB21F920932E018D7F9B
:1011E0000E949F15D0933405C09333059092320529
:1011F0008092310580912E01846080932E0182E0DF
:101200000E94051647C1A701B401CE010E945C25CA
:1012100041C1882359F01092340510923305FE0124
:10122000E851FC47E730F10568F4EEC0FE01E851F3
:10123000FC47E730F10508F4E7C0F7018581882312
:1012400009F43AC110923705CE019057839708F000
:101250000CC184E090E00E941E2A90934405809384
:101260004305FE01E150F047E232F10520F4EA5A6D
:10127000FF4F0C94AA2A809143058160ACC08091F5
:1012800044058860B4C0809143058260A4C0809109
:10129000430520C08091430588609DC0809144052E
:1012A0001EC0809144058260A2C080914305806188
:1012B00092C08091430580628EC080914305806416
:1012C0008AC00E945F2080914305806884C080911D
:1012D0004305886084607FC080914405826081609E
:1012E00086C0809143058E7F76C080914405877FBC
:1012F0007EC0809143058D7F6EC08091430520C0E4
:1013000080914305877F67C0809144051EC080910E
:1013100044058D7F6CC0809143058F7E5CC08091B9
:1013200043058F7D58C0809143058F7B54C00E9438
:101330005F20809143058F774EC080914305877F62
:101340008B7F49C0809144058D7F8E7F50C08091F6
:10135000430582FB222720F991E0922790FB82F936
:1013600090FB83F938C080914405982F9095917037
:101370008E7F892B90FB81F93AC08091430586FBD3
:10138000222720F991E0922790FB86F924C00E9441
:101390005F208091430587FB222720F991E0922767
:1013A00090FB87F918C061E001C060E08EE090E03A
:1013B0000E94342A1EC08091430584FB222720F915
:1013C00091E0922790FB84F906C080914305982F05
:1013D000909590FB80F9809343050BC08091440564
:1013E00083FB222720F991E0922790FB83F98093D9
:1013F0004405609143057091440584E090E00E94AB
:10140000522A0E945F2046C0E858FF4F0C94AA2A37
:1014100006E221EE41EE6AE17CE723C007E225EE19
:1014200045EE6BE17CE71DC006E221EE40EE68E18F
:101430007CE717C007E225EE44EE69E17CE711C0C6
:1014400006E221EE42EE6CE17CE70BC007E225EEFE
:1014500046EE6DE17CE705C008E221E045EE6EE175
:101460007CE7C7010E94D02415C0C631FCE7DF0726
:1014700041F580910F058A7A91E009F490E090930C
:1014800090018111C7C269E28DEF91E00E94402472
:101490000E94B01580915E02877009F4C9C2F701FD
:1014A0008581882309F4C4C28091440582FFC0C2AB
:1014B00082E00E940516BCC2C6312CE7D20709F4AF
:1014C000ABC2F70185818823D9F1C330FCE7DF0780
:1014D00021F140F4C1153CE7D30789F0C130DC4766
:1014E00011F12EC0CB359CE7D90739F1CC35ECE7AB
:1014F000DE07D9F0CA35DC4719F581E01FC00E942C
:101500005F202FEF34E38CE0215030408040E1F742
:1015100000C000000E947E23BDCF6FEF7FEF80E010
:1015200090E00E94522A0E94FE058091440582FBB1
:10153000882780F991E0892701C080E00E941C166D
:10154000F7018581C081D181882349F0CE010E94B5
:10155000E11D182F682FCE010E94FF1F04C0CE018D
:101560000E94CC1F182FBE01812F0E9465140E947B
:101570008214D82FC92FC82EF70115810681029534
:101580000F7080915E028770E9F01123D9F0892FE6
:10159000807F803451F080E28D0F883098F0011107
:1015A00004C0892F807E803269F08091440582FFDB
:1015B00009C082E00E94051680915E028770DD24DA
:1015C000D3948111D12CBC2EB2948FE0B8228B2DF4
:1015D00090E08C30910508F0F5C1FC01E158FF4F17
:1015E0000C94AA2A8C2F807FCF70882311F0C2958B
:1015F000C07F1123B9F0CC2309F4D2C180E28D0F52
:10160000883010F0C11006C090910F05C92BC0930F
:101610000F0505C090911005C92BC09310050E94BD
:10162000B015BEC18D2F0E948C21CC2309F4CAC1F4
:10163000D05ED83080F1CC2071F1C095909110052A
:10164000C923C09310052AC08C2F807FCF708032B1
:1016500011F0C295C07FCC2029F0F1E0CF1609F43B
:101660004CC055C08091440582FD1BC0112369F018
:10167000CC2339F090910F05C92BC0930F050E9420
:10168000B01580E00E94C2219DC180E00E948C21A3
:10169000CC2309F497C18C2F0E94A9150E94B01584
:1016A00091C1112381F00023B1F1013009F08AC109
:1016B00090917F028C2F8923C81709F483C1C92B0D
:1016C000C0937F027FC101117DC18C2F0E94A32096
:1016D00080917F029C2F982329F09C2F909589233D
:1016E00080937F02809191019C2F982309F46AC115
:1016F000C0958C238093910165C1112321F00630A0
:1017000008F060C108C0053008F05CC115C01123A5
:1017100031F0011145C18C2F0E94AA2053C1002332
:1017200059F0D93309F04BC12FEF37EE83E0215048
:1017300030408040E1F741C18C2F0E94A32042C17C
:101740008C2F86958695837019F0813061F03AC1AF
:10175000112321F08D2F9C2F937002C080E090E028
:101760000E949A2435C1112321F08D2F9C2F937054
:1017700002C080E090E00E9475242AC1612F8D2F65
:101780000E94B42025C18C2F837009F041C0111133
:101790001DC12D2F229526952770220F220F8D2FE8
:1017A0008F7090E0022E02C0880F991F0A94E2F712
:1017B000D4FF0BC04FE050E002C0440F551F2A95E4
:1017C000E2F79A012095309502C020E030E0C695FE
:1017D000C695C370C23099F068F44091A001509151
:1017E000A101C13029F0822B932B8423952304C0BF
:1017F000842B952B822B932B0E945A20E7C0822B9F
:10180000932B2091A0013091A10182279327F4CF3F
:10181000112319F08C2F817001C08695882309F45B
:10182000D5C02D2F229526952770220F220F8D2FA0
:101830008F7090E0022E02C0880F991F0A94E2F781
:10184000D4FF0BC04FE050E002C0440F551F2A9553
:10185000E2F79A012095309502C020E030E0C6956D
:10186000C695C370C23079F0B8F44091D20150915E
:10187000D301C13029F0822B932B842395230EC0F2
:10188000842B952B09C0822B932B2091D201309170
:10189000D3018227932702C0822B932B0E943320EF
:1018A00095C0CF70112339F08C2F0E944A208D2FC4
:1018B0000E94AA208BC08D2F0E94A3208C2F0E94F3
:1018C000382084C08D2F92EFC91689F19C1538F00D
:1018D000E0EFCE1659F0F1EFCF1621F15DC023EF06
:1018E000C21661F134EFC316C9F056C0112391F04E
:1018F000053008F067C0CF7181E090E002C0880F2A
:10190000991FCA95E2F72091D2013091D301822725
:10191000932721C0063008F055C0EDCF80914405D3
:1019200082FD1CC0112329F08C2F8F7129C0112337
:10193000D9F38C2F8F710E94382044C0112349F0B5
:10194000CF7181E090E002C0880F991FCA95E2F73D
:1019500002C080E090E00E94332034C0112399F04F
:10196000CF718C2F0E944A208091440582FF07C0CE
:10197000E8E0CE9FC0011124836080935E028C2F2B
:101980000E944A201FC081E00E9405160230D0F05C
:1019900082E00E94051616C0112321F0002321F2D7
:1019A0008D2F70CE002329F2893349F4FFEF27EE03
:1019B00033E0F15020403040E1F700C000008D2FAF
:1019C0000E948C2188EF8B0D843010F40E94BF247C
:1019D000DD20A9F080915E0280FD11C0F701158223
:1019E0008695869586950E944A20C7010E94D80652
:1019F00080915E028695869586950E94382020E02B
:101A0000F7014081518162817381848195810E94B7
:101A1000D9050EC065E338CD80919001811106C0D3
:101A200069E28DEF91E00E94182432CD65E3F9CF91
:101A3000CDB7DEB7E0E10C94F429A0E1B0E0E3E239
:101A4000FDE00C94D62985B7806885BF85B780688E
:101A500085BF84B7877F84BF0FB6F894A89580911F
:101A60006000886180936000109260000FBE90E07B
:101A700080E80FB6F89480936100909361000FBEE8
:101A80008AEF91E190938F0180938E010E94041C54
:101A90000E94231C8091E20084608093E20078948D
:101AA0008091C8028823A1F01091E9001F709091E5
:101AB000EC00892F817090FD80E8182B1092E900CE
:101AC0008091E80083FD0E94FE181F701093E900CA
:101AD00082E084BD93E095BD9AEF97BD80936E0040
:101AE000109292011092930110929401109295011C
:101AF0000E94BB13809300010E94BB1381110E94BE
:101B00005C288091000180910001811102C094E065
:101B100001C090E090939F0184E0891B80939E0117
:101B200000E411E084E4E82E81E0F82ED8018D91E4
:101B30008D018F3F11F00E94DF13E016F106B1F71F
:101B400004E411E0F80181918F018F3F11F00E94B0
:101B5000DF13F1E00A341F07A9F788E0E2EAF1E0B9
:101B6000DF01282F1D922A95E9F7E6E9F1E0DF0170
:101B70001D928A95E9F780E090E00E941E2A863E39
:101B80009E4F09F464C066EE7EEF80E090E00E9414
:101B9000522A60E082E090E00E94342A60E083E014
:101BA00090E00E94342A1092A1011092A00160E0FE
:101BB00074E184E090E00E94522A60E086E090E0C8
:101BC0000E94342A6FEF87E090E00E94342A40E0C0
:101BD00050E0BA0188E090E00E94462A60E084E28A
:101BE00090E00E94342A60E087E190E00E94342A6D
:101BF00060E08CE090E00E94342A60E08DE090E0AC
:101C00000E94342A19821A821B821C821D821E8223
:101C10001F82188648E050E068E170E0CE0101962E
:101C20000E94242A40E050E0BA0180E290E00E9445
:101C3000462A40E050E0BA018FE090E00E94462A38
:101C400040E050E0BA0183E190E00E94462A82E041
:101C500090E00E94162A8093AA0184E090E00E94FE
:101C60001E2A90934405809343050E948116EFEF4E
:101C7000F6E721E0E150F0402040E1F700C000002D
:101C80000E9481160E94BB13811102C0E4E001C0D2
:101C9000E0E0F0E0EE55FE4F808181FF08C06FEF7D
:101CA0007FEF80E090E00E94522A0E947E2383E032
:101CB00090E00E94162A90E00E945A200E94BB13D6
:101CC000882311F010E001C012E00E94BB138111C3
:101CD00001C012E01093F80180E88093D9020E94BD
:101CE00012276BE070E08BE492E00E943B26882391
:101CF00009F443C08091F80165E070E081FD3AC0CD
:101D000086E492E00E943B268823B9F16DE070E002
:101D100084E392E00E943B26882379F10E94D72336
:101D2000DC01CB01805A9541AF4FBF4F809309052D
:101D300090930A05A0930B05B0930C05ECEDF2E02F
:101D400080E092E0DF019C011D9221503040E1F7DC
:101D5000F093E304E093E2048FEF9FEF9093DB02B4
:101D60008093DA0281E080930E0580930D05109236
:101D7000F90103C081E492E0C5CF0E94BB13811139
:101D800002C00E945F2881E091E090933B05809320
:101D90003A0522242394312C8091C802853009F021
:101DA00046C000E112E18091C802853009F03BC0D5
:101DB0008091C802843031F10E94662610923E055F
:101DC00088E190E0A0E40FB6F894A89580936000B5
:101DD0000FBEA093600083B7817F846083BF83B709
:101DE000816083BF7894889583B78E7F83BF0FB659
:101DF000F894A895809160008861809360001092AB
:101E000060000FBE8091C702882309F4CCCF0E94E6
:101E10008116E2EAF1E081918111CCC2B1E0EA3AA7
:101E2000FB07C9F7C0CF0E945F200E94BF240E9419
:101E30008116ABEAEA2EA1E0FA2EB2EACB2EB1E08F
:101E4000DB2ED601F70191918D91892723EB31E0AB
:101E50002E173F0719F08823B1F306C0811104C083
:101E60000E945D16D12C39C00E94BB13882E10E051
:101E700077247394D6019D906D01F701A080A92469
:101E800011F100E0BB24B3948B2D8A21B1F088209E
:101E9000A1F009871A870E94E3239C878B877D86A0
:101EA00091E08B2D892109F490E09E8749855A8520
:101EB0006B857C858D850E9414060F5FBB0C0630F8
:101EC00019F7D7019C921F5FBFEFEB1AFB0A18307E
:101ED00089F60E94F613DD24D3940E94BB13882355
:101EE000E9F080912E0182FF19C00E94E323209126
:101EF000310530913205AC01421B530B20912C016E
:101F000030912D014217530748F043EB51E0BC01DB
:101F100080913305909134050E945C2580910E05D7
:101F2000882309F448C18091FA019091FB010E9435
:101F3000C823C297A8F10E94E3239093FB018093EA
:101F4000FA018CED92E09093E3048093E2040E9406
:101F5000BB13882309F181E792E00E946C18E0919D
:101F6000D201F091D301EF30F10588F4E557FF4F2E
:101F70000C94AA2A89E692E008C083E692E005C0A4
:101F80008DE592E002C086E592E00E947A188AEB25
:101F900091E00E94801804C089E792E00E946C18CA
:101FA0008091DA029091DB02892B31F480910D054A
:101FB000882309F400C1E8C080910E058823B1F39D
:101FC0008091F9018111F2CF0E9480262091DA02DE
:101FD0003091DB022115310549F380E0082F10E034
:101FE0007101082E02C0EE0CFF1C0A94E2F7A70153
:101FF00042235323452B11F48F5FF0CF9091F801CA
:102000009801F5E0220F331FFA95E1F790FF13C016
:10201000E5E036952795EA95E1F7220F220F220F8A
:1020200020930C0110920F01295F20930D0183E092
:102030008093100111C0220F232F221F330B3195E3
:102040008295880F807680930C0120930F01815E2A
:1020500080930D012093100124E630E047E050E02A
:102060006AE071E088E70E94BA27892B09F09ECFC9
:102070008091F80180FF68C080E2E8EDF1E0DF01C7
:102080001D928A95E9F7A80135E0440F551F3A954E
:10209000E1F7EEE4F1E0F88BEF870AE411E062E5A6
:1020A000462E61E0562EAF85B8898D91B88BAF87EB
:1020B000F80191918F01BA01690F711D64527D4F32
:1020C00090E088529E4FFC0127E0922E9F01281B32
:1020D000390B722C01C0770C2A95EAF75B01812C31
:1020E000D501CD905D01C720292D28192770622EBA
:1020F000022E000C330BBC2D01C0BB0F6A94EAF713
:102100006B2E3195219531092770332701C0C69474
:102110002A95EAF76C28C0806C286082839428E0B6
:102120008212DECF9A9431963FEF9312CFCF8F85F4
:1021300098894816590609F0B6CF04E610E020E267
:1021400030E048ED51E00CC0A80185E0440F551F78
:102150008A95E1F744525D4F04E610E020E230E05A
:1021600060E488E70E94DB27892B09F01FCFE09409
:10217000F0948091DA029091DB02E822F922F09249
:10218000DB02E092DA0212CF0E94D7230091090508
:1021900010910A0520910B0530910C05DC01CB0153
:1021A000801B910BA20BB30B8F3F9F4FAF4FBF47CD
:1021B00010F40E946626D1100E94802686E0E3E09B
:1021C000F5E0DE01119601900D928A95E1F71092EB
:1021D00005051092060510920705109208058B81DF
:1021E000811104C08C81882309F453C080910105BA
:1021F000909102050E94C8239C019091FC049923B0
:1022000009F4EEC02531310508F443C09F3F19F0B1
:102210009F5F9093FC041B81112361F00E94F226C2
:10222000111614F09FEF01C091E0899F802D1124B9
:10223000809305051C81112361F00E94F22611167E
:1022400014F09FEF01C091E0899F802D11248093AD
:102250000605309105053323E1F020910605222380
:10226000C1F045EB3403C0011124992319F0909378
:10227000050503C081E08093050535EB2303C0010C
:102280001124992319F09093060503C081E08093EF
:1022900006058D81811104C08E81882309F453C005
:1022A0008091FF04909100050E94C8239C019091A9
:1022B000FD04992309F499C02135310508F443C080
:1022C0009F3F19F09F5F9093FD041D81112361F0E2
:1022D0000E94D026111614F09FEF01C091E0899F53
:1022E000802D1124809307051E81112361F00E9427
:1022F000D026111614F09FEF01C091E0899F802D28
:10230000112480930805309107053323E1F02091D3
:1023100008052223C1F045EB3403C00111249923A1
:1023200019F09093070503C081E08093070535EB12
:102330002303C0011124992319F09093080503C0C9
:1023400081E08093080546E050E0BE016F5F7F4F5B
:1023500083E095E00E94B02A892BA9F480910505BD
:1023600081110FC08091060581110BC08091070576
:10237000811107C081E090910805911103C080E0B0
:1023800001C081E080FD0E94A62686E0FE01319614
:10239000A3E0B5E001900D928A95E1F70E94BF2479
:1023A0009091FC01891709F4F7CC8093FC010E94FD
:1023B000D723F2CC09BD19BD09B400FEFDCF809131
:1023C000D8008F7D8093D8008091E0008260809358
:1023D000E0008091E00081FDFCCF0E945F20E3CC13
:1023E0002B30310508F014CF54CF2B30310508F0D5
:1023F00069CFA9CF80E008959091430592FF0DC069
:10240000282F2871283019F4877F846006C0282F70
:102410002471243011F48B7F886093FF0DC0282F26
:102420002871283119F4877E846106C0282F247111
:10243000243111F48B7E88612091440520FF0DC06A
:10244000382F3871383019F4877F816006C0382FF3
:102450003171313011F48E7F886021FF0DC0282F3B
:102460002871283119F4877E816106C0282F2171D7
:10247000213111F48E7E886194FD877E0895823823
:10248000910569F1B0F48133910509F475C048F400
:102490008932910509F467C08A32910509F471C047
:1024A00008958533910509F459C089339105B9F030
:1024B0000895833E910589F138F4803E9105D1F06D
:1024C000823E910529F10895863E9105C9F1873E26
:1024D0009105D9F1843E910509F06CC027C0209187
:1024E000430520FD57C021FD55C02091440523FD23
:1024F0005BC008958091430580FD48C080914405EC
:1025000080FF48C08091430584FD46C083EE51C0E2
:102510008091430582FF3CC0F5CF8091430582FD49
:1025200037C08091440580FD35C0ECCF80914405D3
:1025300081FF36C08091430584FD2EC087EE39C0EF
:102540008091430583FF2AC0F5CF8091430583FD29
:1025500025C08091440581FD23C0ECCF80914305C7
:1025600085FD22C01FC08091430585FD1BC0809161
:10257000440583FF19C00AC08091430586FD16C03B
:1025800017C08091430586FD13C010C089E311C0B8
:1025900082EE0FC080EE0DC080E00BC086EE09C059
:1025A00084EE07C085E305C089E203C08AE201C06A
:1025B00081E390E00895A0E0B0E0E1EEF2E10C9458
:1025C000DE297C015B016A018091A2028A3018F049
:1025D00001E010E002C00AE010E0C1E0D0E0B50187
:1025E000C701F6010995811115C021960C171D0729
:1025F00094F0CC9F9001CD9F300D300D112480E0E0
:1026000090E045E34A95F1F70000019682179307A1
:10261000C1F7E5CF81E0CDB7DEB7EAE00C94FA2947
:10262000EF92FF921F93CF93DF9300D000D01F92C1
:10263000CDB7DEB77B0180E090E00E944729882378
:1026400009F463C04091140150E04115510511F0A7
:1026500041E050E060911501709116016B567D4F7D
:10266000CE0105960E94BD2A40919102509192029E
:1026700060919302709194022FB7F89480913F0576
:1026800090914005A0914105B09142052FBF841B58
:10269000950BA60BB70B84369105A105B10538F44F
:1026A00086E992E00E94E7189D81891781F181E017
:1026B00090E00E944729182F882391F040911C0137
:1026C00050E04530510510F044E050E060911D01AC
:1026D00070911E016B567D4FCE0101960E94BD2A5E
:1026E00086E992E00E94E71891E02D81281390E09E
:1026F000192341F10E94D7236093910270939202B3
:1027000080939302909394020FC010E001C011E0F7
:102710008091960290919702A0919802B0919902AF
:1027200089839A83AB83BC83112361F089819A8169
:10273000AB81BC8180938D0290938E02A0938F0217
:10274000B093900280918D0290918E02A0918F02A1
:10275000B0919002F70180839183A283B383812F8C
:102760000F900F900F900F900F90DF91CF911F91CE
:10277000FF90EF90089580918C02811119C088EC30
:1027800090E02091E30027FD0AC0EFE3FCE93197D8
:10279000F1F700C000000197A1F782E001C081E0DD
:1027A00080938C02823021F40E94041C1092C80293
:1027B00081E090918C02913009F080E00895F894C6
:1027C000E82FE295EF70F0E031A1282F2F7081E023
:1027D00090E001C0880F2A95EAF7982F90959323EF
:1027E00091A392A1892B82A3789408950F931F93AC
:1027F0000E94BB13882319F00E94D7230EC00E94A9
:10280000D72300919201109193012091940130916E
:102810009501600F711F821F931F1F910F910895E3
:10282000A4E0B0E0E6E1F4E10C94E62940919E02D8
:1028300050919F026091A0027091A1022FB7F8946D
:1028400080913F0590914005A0914105B0914205CE
:102850002FBF841B950BA60BB70B84369105A105E2
:10286000B10570F10E94F613DC01CB010296A11DA7
:10287000B11D89839A83AB83BC838091220190919F
:1028800023018B569D4F4091210150E04530510569
:1028900010F044E050E0BE016F5F7F4F0E94BD2A00
:1028A00082E090E00E944729882359F00E94D723B4
:1028B00060939E0270939F028093A0029093A10266
:1028C00081E02496E2E00C94022A7830B0F466307D
:1028D000A0F48430A0F490E3899FF001112486E0F5
:1028E000789FE00DF11D1124E60FF11DEE0FFF1F83
:1028F000E754FD4F85919491089580E001C081E0F7
:1029000090E008951F93CF93DF930E943F12EC0154
:10291000C11580E5D807E8F5C11590E4D90708F09E
:10292000A8C0C03ED10530F5CD3CD10508F094C01B
:10293000C83AD10578F4C53AD10508F083C0C13052
:10294000D10509F47CC008F4F2C0C430D10508F008
:10295000F1C0EDC0C33CD10508F0E9C0C85AD0E0D1
:10296000CC0FDD1FCB5ADE4F0990D881C02DCE0190
:102970009464E1C0C11580E2D80708F0CBC0C1154E
:1029800091E0D90708F06BC0C83ED10508F4D2C069
:10299000CEC0C03682E5D80728F5C03492E5D90705
:1029A00008F079C0C03282E5D80708F06CC0C115C4
:1029B00092E5D90708F481C04C2F4695469580E2F0
:1029C000489FA0011124C37021E030E0C90102C07A
:1029D000880F991FCA95E2F7EA01C82BD92BCE01BF
:1029E0009D68A9C0C03A82E5D807B8F48C2F8F71D2
:1029F000C03892E5D90708F07BC08695869590E2AD
:102A0000899F90011124C37081E090E002C0880F7B
:102A1000991FCA95E2F79A6868C0C03C82E5D8075A
:102A200008F46DC0C03E92E5D90708F080C0CF71B0
:102A3000DD27DC2FCC27CE01806F906A7CC081E03F
:102A400090E079C0C55AD0E0CE5ADE4F8881C82FB9
:102A5000D0E0CE0190646FC0CE0190656CC08D2F28
:102A60000E94FC11182FCE0199270E943F121F715E
:102A70005CC0CE0199270E943F12CC27DF70D06A3C
:102A80008C2B9D2B58C0CF71D0E0DC2FCC27CE01F2
:102A9000816F906A50C08C2F8F718695869590E2D9
:102AA000899F90011124C37081E090E002C0880FDB
:102AB000991FCA95E2F79C6818C08C2F8F710E94ED
:102AC000FC1195E0D695C7959A95E1F7CF70D0E0C7
:102AD000DC2FCC27282F30E084FF05C084E0220FB4
:102AE000331F8A95E1F7D069CE01822B932B23C047
:102AF00090E0D82FCC27CE01846F906A1CC08C2F19
:102B00008F710E94FC118F7190E0D82FCC27CE01DD
:102B1000906211C08D2F8F710E94FC11182FCE0171
:102B200099270E943F121F719062912B04C080E090
:102B300090E001C0CE01DF91CF911F910895909157
:102B4000440592FF05C090917F02981380937F0205
:102B50000895809590910F05892380930F0508951E
:102B600090910F0580911005982B9093FD01809115
:102B70007F028823D9F0892B8093FD018091290160
:102B8000882331F08091430587FF02C08EE101C0A8
:102B900086E0EFEFF1E090E0815028F021912223D0
:102BA000D9F39F5FF9CF911110927F0240E250E07C
:102BB0006FE572E08DEF91E00E94B02A892B21F140
:102BC00080E2EDEFF1E0AFE5B2E001900D928A9581
:102BD000E1F7E0913A05F0913B053097A9F080913B
:102BE0002901882359F08091430587FF07C0809110
:102BF000FD018093FE0186E08093FD010280F38158
:102C0000E02D8DEF91E00995089590915E028095F9
:102C1000892380935E02282F277069F4981759F052
:102C20009091440592FF07C08695869586950E94EF
:102C3000382010925E0208959091440592FB22275D
:102C400020F9281779F080FB92F990934405609160
:102C500043057091440584E090E00E94522A82E08E
:102C60000E940516089520915D029091240257E07C
:102C70002917A9F030E0529FF001539FF00D112465
:102C8000EB5DFD4F7181761306C07081781303C030
:102C90007581741306C02F5F3F4F2770E9CF80E026
:102CA000089581E0089580915D0290912402891732
:102CB00019F08F5F8770FBCF0895A6E0B0E0E3E6E0
:102CC000F6E10C94E4290E94E3238C0180918002B8
:102CD000909181020817190781F019821A820E94C7
:102CE000E323682F49815A81792F80E090E00E9488
:102CF000140610938102009380022696E4E00C945F
:102D0000002AACE0B0E0E7E8F6E10C94D929AE0186
:102D10004F5F5F4F7A0188E0DA011D928A95E9F7EB
:102D200000E411E06A0184E4682E81E0782EAA2490
:102D3000A394B12C2AE4822E21E0922EF801808106
:102D40008F3F09F440C0F894E82FE295EF70F0E06F
:102D500021A18F70A50102C0440F551F8A95E2F78B
:102D6000CA01922F982B91A392A18095892382A3C7
:102D7000789400C0E4E4F1E0512C31E021912F3F40
:102D800089F0A22FA295AF70B0E090968C9190E060
:102D90002F7002C0959587952A95E2F780FD02C0B5
:102DA000832F01C080E0582A330F8E169F0631F71B
:102DB000D8018C918F3F11F00E94DF13B0EABA95D1
:102DC000F1F7F60150820F5F1F4FFFEFCF1ADF0AB6
:102DD0006016710609F0B2CF48E050E0B70186E90D
:102DE00091E00E94B02A009741F028E0F701A6E99F
:102DF000B1E001900D922A95E1F700919F01892B96
:102E000049F081E0809384020E94E323909383023F
:102E10008093820280918402811102C0F12C22C031
:102E200080918202909183020E94C8230597B0F39B
:102E300010E00E551E4F44E050E066E971E0C80115
:102E40000E94B02A892B59F084E0E6E9F1E0D8012C
:102E500001900D928A95E1F7FF24F39401C0F12CC3
:102E6000109284020E94BB13E0919F01882309F411
:102E70005AC019861A861B861C860E2F10E00E5526
:102E80001E4F8091A2028A3058F440E153E1BE0106
:102E9000675F7F4FC8010E94DB128823A9F00AC038
:102EA00080918502909186020E94C823843F9140C0
:102EB00060F71CC040E154E1BE01675F7F4FC8016D
:102EC0000E94DB12811174C08091A2028F3F19F021
:102ED0008F5F8093A2028091A2028A3008F46AC0B8
:102EE0000E94E323909386028093850280918B0257
:102EF000882309F457C0FE01399684E0DF011D9252
:102F00008A95E9F710928B02E0919E01F0E0EE5570
:102F1000FE4F89859A85AB85BC8580839183A2838A
:102F2000B38381E040C0F0E0EE55FE4F84E0A6E9B7
:102F3000B2E001900D928A95E1F786E992E00E9455
:102F4000E7188093950280909A0290909B02A0903F
:102F50009C02B0909D028091870290918802A0917E
:102F60008902B0918A0288169906AA06BB06D1F09A
:102F70008092870290928802A0928902B0928A027F
:102F80000E94BB1381110EC00E94D723861A970A94
:102F9000A80AB90A8092920190929301A09294019A
:102FA000B092950180E08F292C96EFE00C94F529E2
:102FB0001092A20280919E0190E044E050E0BE0198
:102FC000675F7F4F8E559E4F0E94B02A21E020936D
:102FD0008B02892B09F098CFE5CFCF93DF93682F31
:102FE0008A3011F481E003C08D3021F480E00E942A
:102FF0000B266FC08091E2049091E30426E0FC016F
:10300000ACEDB4E001900D922A95E1F7603E30F00E
:1030100026E0FC0111922A95E9F70AC0F6E06F9FBD
:10302000B001112460567A4F46E050E00E940D2A0C
:10303000C091E204D091E30446E050E0BE018CED83
:1030400094E00E94B02A892B49F19E012C5D324008
:10305000A90185E0569547958A95E1F781E090E0D2
:10306000BC0102C0660F771F4A95E2F74091DA0271
:103070005091DB02462B572B2B5F3F4F65E0369577
:1030800027956A95E1F702C0880F991F2A95E2F704
:10309000842B952B9093DB028093DA029E01265DB0
:1030A00032404091D902642F70E0C9010E94C229C8
:1030B000481B463010F4240F311D211582E03807DB
:1030C00010F020E030E024523D4F3093E304209391
:1030D000E204DF91CF910895CF93DF93EC01FE01DD
:1030E0008491882321F00E94ED172196F8CFDF917B
:1030F000CF9108950E946C1881E00E940B260895DC
:103100000F931F93CF93DF93EC01FC0101900020FC
:10311000E9F78F0101501109C017D10720F48991F7
:103120000E94ED17F9CFDF91CF911F910F91089574
:10313000A0E0B0E0EEE9F8E10C94DC2920912A014E
:1031400030912B012817390721F42091D802203221
:10315000B9F190932B0180932A0120E22093D802A9
:103160006C01E12CF12C1092D70207ED12E0C0E0C7
:10317000D0E08AE0882E912CA12CB12CC701B60199
:10318000A50194010E94882A605D603311F42097A4
:1031900039F0C114D104E104F10419F460E201C072
:1031A00060E3F80162938F01C701B601A5019401A4
:1031B0000E94882A69017A012196C530D105F1F66D
:1031C00082ED92E0CDB7DEB7ECE00C94F829FC017B
:1031D000AC014C5F5F4F8FEF91E32191822728E094
:1031E00030E087FF03C0880F892701C0880F215076
:1031F0003109B9F7E417F50781F70895AAE2B0E0BD
:10320000E4E0F9E10C94E529EAECF2E082ED92E0E9
:103210002091F10021938E179F07D1F78091CB0267
:10322000833009F461C030F4813071F0823009F4E8
:103230009BC0B2C08A3009F487C08B3009F46CC0DF
:10324000893009F0A9C020C08091CA02813A09F0F2
:10325000A3C08091E800877F8093E8008091CE0230
:103260009091CF02892B21F460E286EA92E003C0BC
:1032700060E080E090E070E00E9420238091E80010
:103280008B778093E80088C08091CA02813209F070
:1032900083C08091CE029091CF02029708F07CC04B
:1032A0008091E800877F8093E8008091E80082FDAC
:1032B00005C08091C8028111F8CF6EC02091F30043
:1032C0008091F20090E0922B029731F48091F1000E
:1032D000813011F0863021F48091F1008093A502B5
:1032E0008091E8008B7754C08091CA02813A09F03E
:1032F00053C08091CE029091CF02892B09F04CC02F
:103300008091E800877F8093E8008091E80080FF4B
:10331000FCCF8091290137C08091CA028132E1F54A
:103320008091CE029091CF02892BB1F58091E80077
:10333000877F8093E8000E94CC228091CC0280930A
:1033400029010E945F2028C08091CA02813221F5A4
:103350008091E800877F8093E8000E94CC228091D2
:10336000CD028093A40218C08091CA02813AA1F4D0
:103370008091E800877F8093E8008091E80080FFDB
:10338000FCCF8091A4028093F1008091E8008E77B9
:103390008093E8000E94CC228091E80083FFCEC198
:1033A0008091CA029091CB02492F50E04A305105DA
:1033B00008F0C4C1FA01E656FF4F0C94AA2A8038DF
:1033C00021F0823809F0BAC108C08091C6029091FC
:1033D000C702992389F082600FC08091CE028F705E
:1033E000873008F0ABC18093E9008091EB0085FB4A
:1033F000882780F91092E9009091E800977F9093D8
:10340000E8008093F1001092F10065C1282F2D7F14
:1034100009F094C1882319F0823061F08FC1809146
:10342000CC02813009F08AC1933009F080E08093AA
:10343000C7022EC08091CC0281112AC08091CE0299
:103440008F702FEF280F263008F078C18093E900A5
:103450002091EB0020FF1CC0933021F48091EB0001
:10346000806214C09091EB0090619093EB0021E09A
:1034700030E0A90102C0440F551F8A95E2F740933E
:10348000EA001092EA008091EB0088608093EB00E4
:103490001092E9008091E800877F20C181114EC120
:1034A0001091CC021F778091E3008078812B80936C
:1034B000E3008091E800877F8093E8000E94CC229F
:1034C0008091E80080FFFCCF8091E30080688093CA
:1034D000E300111102C082E001C083E08093C802C2
:1034E0002DC18058823008F029C18091CC02909182
:1034F000CD028C3D53E0950779F583E08A838AE21B
:1035000089834FB7F894DE01139620E03EE051E244
:10351000E32FF0E050935700E49120FF03C0E295C1
:10352000EF703F5FEF708E2F90E0EA3010F0C7969B
:1035300001C0C0968D939D932F5F243149F74FBFF3
:103540008091E800877F8093E8006AE270E0CE0116
:1035500001960E942023AEC04091CE025091CF022E
:10356000292F332723303105A9F068F421303105A4
:1035700009F4F3C02230310509F0E0C08BE390E09C
:10358000EFE2F5E044C02132310521F1223231056C
:1035900071F1D4C0992781309105A1F058F00297BC
:1035A00009F0CCC0ECE7F5E0E4918E2F90E0ECE779
:1035B000F5E02AC0ECE9F5E0E4918E2F90E0ECE92B
:1035C000F5E022C0EAE8F5E0E4918E2F90E0EAE829
:1035D000F5E01AC04115510509F4C4C04130510548
:1035E00009F0ACC089E090E0EAE5F5E010C04115D3
:1035F000510509F4BCC04130510509F09FC086EB6C
:1036000090E0E9E3F4E003C0009709F497C020914B
:10361000E800277F2093E8002091D0023091D1026A
:103620008217930708F49C0140E02115310589F1C8
:103630008091C802882309F43DC08530D9F180917A
:10364000E80083FD37C08091E80082FD2FC08091A3
:10365000E80080FFEACF4091F3008091F20090E013
:10366000942B2115310559F08830910540F444918F
:103670004093F1003196215031090196F2CF41E09B
:10368000089709F040E08091E8008E778093E80089
:10369000CCCF4111CDCF0AC08091C802882351F010
:1036A000853041F08091E80083FD04C08091E800FE
:1036B00082FFF2CF8091E8008B778093E8003EC0D4
:1036C0008038E1F58091E800877F8093E800809161
:1036D000C9028093F1008091E8008E778093E80022
:1036E0000E94CC222BC0811129C08091CC029091E4
:1036F000CD029927029714F58091E800877F809387
:10370000E8001091CC021093C9020E94CC22111142
:1037100006C08091E30087FD02C081E001C084E023
:103720008093C80242E061EC81E00E94EB2242E219
:1037300061EC82E00E94EB228091C8028091E80057
:1037400083FF1AC08091E800877F8093E800809112
:10375000EB0080628093EB000FC082E190E0EAE62C
:10376000F5E055CF89E090E0E1E4F5E050CF80E46A
:1037700090E0EFEEF4E04BCFAA96E3E00C94012A40
:103780001F920F920FB60F9211242F933F934F93D6
:103790005F936F937F938F939F93AF93BF93CF93D9
:1037A000DF93EF93FF93C091E900CF708091EC001D
:1037B000D82FD17080FDD0E81092E9008091F00000
:1037C000877F8093F00078940E94FE181092E900A1
:1037D0008091F00088608093F000CD2BCF70C09373
:1037E000E900FF91EF91DF91CF91BF91AF919F9150
:1037F0008F917F916F915F914F913F912F910F909A
:103800000FBE0F901F901895E8EDF0E080818E7F3D
:1038100080831092E2001092DA001092E100A0EE94
:10382000B0E08C9181608C9380818F77808319BC0C
:10383000A7EDB0E08C918E7F8C9380818F7E80830A
:103840001092A3020895A0E0B0E0E9E2FCE10C943C
:10385000E029C8EDD0E088818F7E8883E7EDF0E035
:1038600080818160808384E082BF81E08093A302B5
:1038700088818E7F888302EE10E0F801108210921A
:10388000DA0081EEC82ED12CF601108288818F7764
:10389000888388818068888388818F7D888319BC2C
:1038A0001092C8021092C9021092C7021092C6026A
:1038B00090EEE92EF12CF70180818B7F8083888147
:1038C0008160888342E060E080E00E94EB22F601A4
:1038D00080818E7F8083F8018081816080838081F8
:1038E00088608083F70180818E7F808388818061FA
:1038F0008883CDB7DEB7E8E00C94FC291F920F92C5
:103900000FB60F9211242F933F934F935F936F93B2
:103910007F938F939F93AF93BF93EF93FF93809188
:10392000E10082FF09C08091E20082FF05C0809122
:10393000E1008B7F8093E1008091DA0080FF2AC054
:103940008091D80080FF26C08091DA008E7F80931E
:10395000DA008091D90080FF18C080E189BD82E142
:1039600089BD09B400FEFDCF81E08093C80280913B
:10397000A30281110FC00E94041C0E94231C80918D
:10398000E20084608093E20005C019BC1092C80276
:103990001092A3028091E10080FF17C08091E200A5
:1039A00080FF13C08091E2008E7F8093E2008091BF
:1039B000E20080618093E2008091D8008062809371
:1039C000D80019BC85E08093C8028091E10084FF93
:1039D00030C08091E20084FF2CC080E189BD82E18B
:1039E00089BD09B400FEFDCF8091D8008F7D809302
:1039F000D8008091E1008F7E8093E1008091E20009
:103A00008F7E8093E2008091E20081608093E200EB
:103A10008091C902882311F084E007C08091E300FF
:103A200087FD02C081E001C083E08093C8028091DD
:103A3000C8028091E10083FF27C08091E20083FFEC
:103A400023C08091E100877F8093E10082E0809332
:103A5000C8021092C9028091E1008E7F8093E1003C
:103A60008091E2008E7F8093E2008091E20080618D
:103A70008093E20042E060E080E00E94EB228091CF
:103A8000F00088608093F000FF91EF91BF91AF91BB
:103A90009F918F917F916F915F914F913F912F9166
:103AA0000F900FBE0F901F9018952091E400309159
:103AB000E50095E64091EC00842F817040FF23C023
:103AC0008091E80080FD1DC08091C802882399F094
:103AD000853099F08091EB0085FD11C04091E400A4
:103AE0005091E5002417350729F3915011F09A0100
:103AF000E1CF84E0089582E0089583E0089581E0B5
:103B0000089580E008954091E80042FFDDCF0895D8
:103B1000CF93DF938091230282958F7009F04EC07E
:103B200080912202882309F449C080915D0240916E
:103B3000240250911E0260911D02C0911F02D0917B
:103B4000200277E08417D1F190E0789FF001799F0F
:103B5000F00D1124DF01AB5DBD4F14962C9114972D
:103B6000222349F111962C911197251324C02C91F1
:103B7000261321C015962C91159721111CC0129661
:103B80002D913C9113972C1B3D0B2436310598F455
:103B9000809123028F70806180932302E55DFD4F49
:103BA00080818F70806180838DE192E00E94D806D1
:103BB0000E94531603C001968770C4CFDF91CF9146
:103BC0000895A0E0B0E0E7EEFDE10C94DF297C0170
:103BD0000091D2011091D3018091A0019091A10197
:103BE000082B192BCFE0D0E0CC24C394D12CC601F4
:103BF0000C2E02C0880F991F0A94E2F780239123AC
:103C0000892B21F4219798F7B12C09C0BC2EB7015C
:103C10008C2F0E9465140E948214019799F38B2DBA
:103C2000CDB7DEB7E9E00C94FB29CF93DF93EC012D
:103C30000E94E11DBE010E9465140E948214DF9162
:103C4000CF910895FC0124812223D9F080819181B4
:103C50000E94151E92959F70963079F010F4925044
:103C600001C09A50923068F4803F69F018F4883EA1
:103C700040F409C0843F29F406C0883E20F0813F0B
:103C800011F080E0089581E00895A4E1B0E0EBE454
:103C9000FEE10C94DC298C0186E0F801DE011F9620
:103CA00001900D928A95E1F7F8018481E5809DE10C
:103CB000892E92E0992E90912102911120C08823A3
:103CC00009F463C1EE2009F442C0C8010E94221E1B
:103CD000F82E8823E1F187E0F801D40101900D92DC
:103CE0008A95E1F780912102813031F480911D02A3
:103CF00090911E020E94151E0E94881D48C1F80165
:103D0000D080C180A280B380F090220220911F0257
:103D100030912002FF2009F4E7C0A501421B530B9C
:103D20004436510508F09DC0882309F430C18091C4
:103D30002302282F207F90911E02222361F09C15E0
:103D400009F460C0C8010E94221E811163C0C8012D
:103D50000E94D8061AC19C1113C090911D029D119A
:103D60000FC0E1100DC08F708061809323028DE140
:103D700092E00E94D80680912302F801868303C155
:103D8000E1103AC040E06C2D8D2D0E94331640E0CA
:103D90006C2D8D2D0E943316E82E8111F4C0DF8624
:103DA000C88A8F8598890E94151E292F22952F7009
:103DB000243020F49F70223028F009C02A5022308D
:103DC00080F014C0992349F0811107C013C09923D2
:103DD00021F0F8019681907F69F0805E883030F4A0
:103DE00009C0803F38F0815F833020F0C8010E9415
:103DF000D806EF2CFE2CCBC08091230281608093EB
:103E00002302C1C090911D029D119CCFE1109ACF59
:103E1000F80198C0EE2009F49ACF20912302822F56
:103E200082958F7090E002978CF080911D029091A6
:103E30001E0299878887BB86AA86809121028C877B
:103E40001D862E87CE0108960E94D80687E0F801CD
:103E5000ADE1B2E001900D928A95E1F70E94881DD4
:103E600094C090912302292F207F51F48DE192E09C
:103E70000E94D80687E0F40111928A95E9F783C081
:103E8000882309F484C080911E028C110CC080919B
:103E90001D028D1108C0E11006C0F8019683C8010B
:103EA0000E94D8066AC0C8010E94221E882309F415
:103EB0004ECFEE2009F44BCF20912302822F829522
:103EC0008F7090E0029714F280911D0290911E0273
:103ED0009A838983BC82AB82809121028D831E826A
:103EE0002F83CE010196B0CFA21AB30AF4E6AF1623
:103EF000B10408F042C0882309F447C0FE2CEE202C
:103F000009F425CF80911E028C1129C080911D02D9
:103F10008D1125C09091230290FD18C0892F8295A4
:103F20008F70282F30E02115310581F0F80196833C
:103F30002F30310541F08F5F982F9295907F8681C9
:103F40008F70892B8683C8010E94D80687E0F8010C
:103F5000ADE1B2E001900D928A95E1F718C0C80179
:103F60000E94221E811172CF809123028160809372
:103F70002302C8010E94D8060AC087E0F40111920A
:103F80008A95E9F704C0F12C02C0FF24F3948F2D29
:103F90006496ECE00C94F829983078F5863068F552
:103FA000E82FF0E086E0989FE00DF11D11249E2F90
:103FB000977083E0F695E7958A95E1F7EE0FFF1F7E
:103FC000EE0FFF1FEC51FB4F40E050E080E02191ED
:103FD00030E0092E02C0369527950A94E2F7217049
:103FE0003327042E01C0220F0A94EAF7822B4F5F79
:103FF0005F4F4430510559F7089580E00895983097
:1040000088F5863078F5E82FF0E086E0989FE00D9F
:10401000F11D11248E2F877051E001C0550F8A9534
:10402000EAF783E0F695E7958A95E1F7EE0FFF1F33
:10403000EE0FFF1FEC51FB4F20E030E070E04081BD
:10404000CB01022E02C0969587950A94E2F7817003
:10405000819584278523842781932F5F3F4F2430C8
:10406000310569F708959093D3018093D2010895A3
:1040700021E030E002C0220F331F8A95E2F720953D
:1040800030958091D2019091D301822393230E9495
:104090003320089521E030E002C0220F331F8A95BB
:1040A000E2F78091D2019091D301822B932B0E9451
:1040B000332008959093A1018093A0010895109258
:1040C0000F0580912901882331F08091430587FFF6
:1040D00002C08EE101C086E0EFEFF1E0DF011D924A
:1040E0008A95E9F780E090E00E949A2480E090E0D1
:1040F0000E947524109210050E94B015E3E0F5E0CF
:1041000086E0DF011D928A95E9F71092FC04109277
:10411000FD041092FE040E94A6260895882341F013
:104120008095909110058923809310050E94B01509
:104130000895882339F090911005892B80931005FC
:104140000E94B0150895882321F00E94A9150E94AD
:10415000B0150895882339F090910F05892B80932D
:104160000F050E94B0150895662309F45CC08D3CCC
:1041700021F40E94F226819504C08E3C29F40E940D
:10418000F22680930605C5C08F3C21F40E94F226DA
:10419000819504C0803D29F40E94F2268093050594
:1041A000B8C0893D19F40E94D02605C08A3D31F47B
:1041B0000E94D026819580930705ABC08B3D21F4EA
:1041C0000E94D026819504C08C3D29F40E94D026FF
:1041D000809308059EC09FE2980F983078F421E004
:1041E00030E0A90102C0440F551F9A95E2F7CA01B9
:1041F00090910405892B809304058BC08D3D21F49B
:104200008091FE0481600CC08E3D21F48091FE04FB
:10421000826006C08F3D09F07CC08091FE048460FE
:104220008093FE0476C08D3C39F49091060597FF8B
:1042300035C01092060559C08E3C29F490910605B0
:104240001916BCF32BC0909105058F3C29F497FFFC
:1042500025C01092050549C0803D19F41916CCF30C
:104260001DC090910705893D29F41916BCF41092E0
:1042700007053BC08A3D19F497FF10C0F8CF8B3D6E
:1042800039F49091080597FF09C0109208052DC0D8
:104290008C3D21F4909108051916BCF39FE2980F0C
:1042A000983080F421E030E0A90102C0440F551F8E
:1042B0009A95E2F7CA01809590910405892380932D
:1042C000040513C08D3D21F48091FE048E7F0BC048
:1042D0008E3D21F48091FE048D7F05C08F3D29F431
:1042E0008091FE048B7F8093FE04809105058111EF
:1042F00006C080910605811102C01092FC048091D5
:104300000705811106C080910805811102C0109235
:10431000FD040E94A6260895882399F19CEF980F2A
:10432000913A30F4682F8DEF91E00E9418240DC06F
:1043300090E2980F983060F4877091E001C0990F77
:104340008A95EAF7892F0E94A9150E94B015089551
:104350009BE5980F933028F480E090E00E949A2427
:10436000089598E5980F9B3128F480E090E00E9432
:104370007524089593E3980F933118F460E00E9438
:10438000B4200895CF93882309F472C0C82F8CEF0E
:104390008C0F813AC0F5809129018823E1F080914A
:1043A000430587FF18C0EC2FE695E695E695F0E00B
:1043B000E350FE4F8281282F30E04C2F477081E080
:1043C00090E002C0880F991F4A95E2F78223932359
:1043D000892B61F412C0EFEFF1E085E092E02191CA
:1043E000C21721F08E179F07D1F707C06C2F8DEFF2
:1043F00091E00E9418240E94B0156C2F8DEF91E07F
:104400000E94402410C080E28C0F883078F4C7707E
:1044100081E090E001C0880FCA95EAF790910F05FE
:10442000892B80930F050E94B01522C0EBE5EC0F9D
:10443000E33040F4F0E0EE5AFE4F808190E00E94BD
:104440009A2416C0E8E5EC0FEB3150F4F0E0EE0FE3
:10445000FF1FEB5AFE4F808191810E94752408C096
:1044600083E38C0F833120F461E08C2F0E94B42011
:10447000CF9108951F93CF93DF93182F893319F0AD
:10448000C0E0D0E002C0C0E5D0E0812F0E94C22190
:10449000209741F08FE99FE00197F1F700C00000FD
:1044A0002197F6CF812F0E948C21DF91CF911F9110
:1044B00008958091A50208950F931F93CF93DF93E2
:1044C0008B01EA019091C802943079F58F70809346
:1044D000E9008FEF9091E800815095FD06C095EDC1
:1044E0009A95F1F700008111F5CF8091E80085FFE2
:1044F0001CC00E94551D882361F08091E8008E77D2
:104500008093E80012C0F80181918F018093F1003F
:104510002197209791F38091E80085FDF4CF809159
:10452000E8008E778093E800E4CFDF91CF911F9170
:104530000F91089543E050E0BC0182E00E945C22AC
:10454000089546E050E0BC0182E00E945C2208959C
:10455000CF93DF93EC0180912901811105C048E0E0
:1045600050E0BE0181E00BC08091430587FF03C08E
:1045700040E282E002C048E081E050E0BE010E94DB
:104580005C2280E2FE01A6EAB2E001900D928A95DB
:10459000E1F7DF91CF9108958091CA0287FF11C0A2
:1045A0008091E80082FD05C08091C8028111F8CF9A
:1045B00011C08091E8008B770BC08091C8028823DE
:1045C00049F08091E80080FFF8CF8091E8008E7775
:1045D0008093E8000895982F973068F59093E9004C
:1045E000981739F07091EC002091ED005091F00097
:1045F00003C0242F762F50E021FD02C09F5FECCF37
:104600003091EB003E7F3093EB003091ED003D7F29
:104610003093ED003091EB0031603093EB007093FC
:10462000EC002093ED005093F0002091EE0027FD68
:10463000E5CF80E008958F708093E90081E00895D0
:104640002091D0023091D1022617370748F061152A
:10465000710539F42091E8002E772093E80001C01D
:10466000B901FC0120E06115710579F18091C80262
:104670008823F1F18530F1F18091E80083FD3CC0A1
:104680008091E80082FD2EC08091E80080FFEBCF92
:104690002091F3008091F20090E0922B611571055A
:1046A00051F08830910538F421912093F100615048
:1046B00071090196F3CF21E0089709F020E080917D
:1046C000E8008E778093E800CECF2111CFCF0AC0CB
:1046D0008091C802882361F0853061F08091E80004
:1046E00083FD0AC08091E80082FFF2CF80E0089548
:1046F00082E0089583E0089581E0089581E0809349
:10470000E00080E28093D8001092C9008FE19EE41F
:104710000197F1F700C0000087E090EBDC01809387
:10472000450590934605A0934705B09348059CE046
:1047300088E10FB6F894A895809360000FBE90931F
:104740006000FFCF78941F920F920FB60F92112442
:104750008F939F93AF93BF9380913F0590914005B6
:10476000A0914105B09142050196A11DB11D809314
:104770003F0590934005A0934105B0934205BF913A
:10478000AF919F918F910F900FBE0F901F90189532
:104790009C014FB7F89480913F0590914005A091FE
:1047A0004105B09142054FBF821B930B08952FB76F
:1047B000F89460913F05709140058091410590917A
:1047C00042052FBF08952FB7F89480913F0590912F
:1047D0004005A0914105B09142052FBF08951F9259
:1047E0000F920FB60F9211248F939F93AF93BF93A5
:1047F00080913E05811113C080913F059091400545
:10480000A0914105B09142054196A11DB11D809333
:104810003F0590934005A0934105B0934205BF9199
:10482000AF919F918F910F900FBE0F901F90189591
:10483000209129012223C9F02091430527FF15C0AB
:10484000262F2695269526952E31C8F4FC01E20FD9
:10485000F11D677081E090E001C0880F6A95EAF76A
:1048600080959281892382830895FC010696228196
:10487000621301C012823196E817F907C1F7089553
:10488000209129012223C1F02091430527FF14C064
:10489000262F2695269526952E3130F5FC01E20F20
:1048A000F11D677081E090E001C0880F6A95EAF71A
:1048B0009281892B82830895FC0132962FEF30E09C
:1048C0004191641789F02F3F19F4411101C0232F42
:1048D0003F5F3630A9F72F3F39F0FC01E20FF11DA1
:1048E00027FDFA95628308950895A3E0B0E0EBE711
:1048F000F4E20C94E62920913C0530913D052817FF
:104900003907A1F090933D0580933C05E0913A056D
:10491000F0913B05309751F024E029839B838A83F3
:104920000680F781E02DCE01019609952396E2E0FD
:104930000C94022AA3E0B0E0E0EAF4E20C94E62949
:10494000209138053091390528173907A1F0909347
:10495000390580933805E0913A05F0913B05309791
:1049600051F023E029839B838A830680F781E02D21
:10497000CE01019609952396E2E00C94022A0E944A
:10498000BB13882359F0E0913A05F0913B0530972D
:1049900029F00190F081E02D0995089580E00895B7
:1049A0000F931F93CF93DF93C42FD22FFC018581E8
:1049B0008823B1F0409337050E94E3239093360596
:1049C0008093350580E28C0F883008F04DC0C770A9
:1049D00081E001C0880FCA95EAF70E94AA2044C06E
:1049E00080913705481330C0809135059091360588
:1049F0000E94C8238436910538F510E21D0FCD17AB
:104A0000B9F080E28C0F883040F4C77081E001C0BB
:104A1000880FCA95EAF70E94A320183010F581E0AC
:104A20009D2F977001C0880F9A95EAF70E94AA20DF
:104A3000802F0E943A221830B8F4D77081E001C06C
:104A4000880FDA95EAF70AC080E28C0F883060F4AC
:104A5000C77081E001C0880FCA95EAF70E94A320C1
:104A600003C0802F0E943A22DF91CF911F910F91B6
:104A7000089580912E01877F80932E0190911005DB
:104A80009D7F9093100584FF08C08F7E80932E0138
:104A900080910F05826080930F0580912E0185FF24
:104AA00008C08F7D80932E0180910F0580628093D6
:104AB0000F050E94B0150895A0E0B0E0E2E6F5E22F
:104AC0000C94E1298C01EB0180912E0182FF86C0BC
:104AD000E0903305F0903405E016F10621F0011561
:104AE000110509F07BC080912E018B7F80932E01F0
:104AF00081FD11C08091310590913205AE01481BB6
:104B0000590B81E020912C0130912D014217530760
:104B100018F480E001C081E08170D82E80912E01D0
:104B2000D0FA81F980932E0187011127F80184E0E2
:104B3000F695E7958A95E1F797012F703327EE0FE9
:104B4000FF1FEF5EFA4F81E090E002C0880F991FCF
:104B50002A95E2F7DD2029F020813181822B932BE9
:104B600006C0809590952081318182239323918383
:104B7000808380910F0581FF08C080912E018061A4
:104B800080932E0182E00E94A91580910F0585FF78
:104B900008C080912E01806280932E0180E20E94E5
:104BA000A915DD2029F08091100582608093100501
:104BB000C70190528115904308F47801C7010E9403
:104BC000BE0680913305909134059C013052211529
:104BD000304308F499270E94A40612C0C8019052DD
:104BE0008115904318F4C801992701C0C8010E949B
:104BF000A40680913305909134050817190711F424
:104C00000E943925D0933205C0933105CDB7DEB768
:104C1000E7E00C94FD29CF93E82F2091E204309136
:104C2000E3042C5D32404091D902642F70E0C90149
:104C30000E94C229481B842FEE2351F066E00E9497
:104C4000682AC82FC150A8F080E20E94ED17FACF61
:104C5000A901480F511D4115524018F080E020E095
:104C600030E0280F311D24523D4F3093E304209350
:104C7000E204CF910895EF92FF920F931F93CF9389
:104C8000DF93EC017B0164E670E088E70E9418275F
:104C90008C01EC0EFD1ECE15DF0541F40E940228AA
:104CA00081E00115110569F080E00BC017FDF6CF1A
:104CB000FE01849164E670E00E948B278C012196AE
:104CC000EACFCDB7DEB7E6E00C94FE2980910E0561
:104CD00090910D05882389F0992369F062E070E0D6
:104CE00082EE9AE00E943B26811103C080910D055F
:104CF000089510920D0590910D0581E08927089582
:104D000080910E058823F9F00E94D723DC01CB01A6
:104D1000805A9541AF4FBF4F8093090590930A0584
:104D2000A0930B05B0930C0580910D0581110BC06C
:104D300062E070E080EE9AE00E943B26882319F042
:104D400081E080930D0580910D0508950E94E32375
:104D500020910505211104C020910605222321F090
:104D6000909302058093010520910705211104C04D
:104D700020910805222321F0909300058093FF04E1
:104D8000E0913A05F0913B05309749F082E080933D
:104D900003050480F581E02D83E095E009950895F1
:104DA0008091FE0480FD16C081FD16C082FD18C0F2
:104DB0008091FD04882391F0883290F428E0829F4E
:104DC000C001112468E270E00E94742A862F672BCC
:104DD00029F007C082E0089584E0089581E00895F5
:104DE00088E008958091FE0480FD14C081FD14C008
:104DF00082FD16C08091FC04882381F08E3180F4FE
:104E000020E5829FC00111246EE170E00E94742AA7
:104E1000862F089584E1089588E2089588E0089532
:104E200080E508951092B9008CE08093B800089551
:104E3000A0E0B0E0EEE1F7E20C94DD29B82EEB0142
:104E40000E94E3236C01C431D10558F0CF3F8FEFAE
:104E5000D80759F0CE0164E170E00E94C2297B01BD
:104E600007C0EE24E394F12C03C025E0E22EF12CE0
:104E700084E8A82E94EA992E1092BC009092BC006F
:104E80000E94E3238C018091BC0087FD07C0C8010C
:104E90000E94C823E816F906B0F729C08091B9002E
:104EA000887F883041F08091B900887F803119F087
:104EB0000FEF1FEF1EC0B092BB00A092BC000E947B
:104EC000E3238C018091BC0087FD07C0C8010E94CC
:104ED000C823E816F906B0F70AC08091B900887FA8
:104EE000883111F0803421F700E010E00EC00EEFA1
:104EF0001FEFCF3F8FEFD80709F4BECFC6010E9446
:104F0000C823C817D90708F0B7CFC801CDB7DEB797
:104F1000EBE00C94F9290F931F93CF93DF93EB01F0
:104F20008093BB0084E88093BC000E94E3238C0143
:104F30008091BC0087FD0DC0CF3F8FEFD807C1F334
:104F4000C8010E94C823C817D90790F78EEF9FEFBA
:104F50000CC02091B900287F81E090E0283211F444
:104F600080E090E0919581959109DF91CF911F911B
:104F70000F910895A0E0B0E0E0ECF7E20C94E02996
:104F80006B018A017901B9010E941827E6010C0D15
:104F90001D1DC017D10741F424E92093BC00CDB7F3
:104FA000DEB7E8E00C94FC2997FDF6CFB7018991B4
:104FB0000E948B27EECFA0E0B0E0E1EEF7E20C9488
:104FC000E029C62F6A017901B8010E94182797FDD0
:104FD00011C0B8018C2F0E948B27E601EC0CFD1C40
:104FE000CE15DF0539F097FD05C0B80189910E9403
:104FF0008B27F6CF24E92093BC00CDB7DEB7E8E0DD
:105000000C94FC2984E98093BC0008958EE14A9BAE
:1050100002C08150E1F74A9BFECF08955A9880E282
:105020008A95F1F75A9A0895FC012AE02A95F1F73A
:1050300028E090E080E031E040E14A95F1F7880F08
:105040004A9B02C08160932700C0000040E14A955E
:10505000F1F7215089F720E12A95F1F729B100C035
:10506000000030E13A95F1F722FB222720F9922740
:105070002081920F90830895A1E0B0E0E2E4F8E28D
:105080000C94E22919828C017C01E60EF11C0E15AC
:105090001F0551F00E940628CE0101960E94142897
:1050A000F80181938F01F3CF81E09981911180E024
:1050B0002196E6E00C94FE29529A5A9A0895529845
:1050C0005A9AEA9AE9E6F0E080818F7C808308951D
:1050D000615091E001C0990F6A95EAF720E031E054
:1050E000992361F0492F482319F05A9A232701C0C8
:1050F0005A9840E24A95F1F79695F2CF222311F0A3
:105100005A9A01C05A9880E28A95F1F75A98089500
:10511000FF920F931F93CF93DF93EC018C01060F47
:10512000111DC017D10741F0F9900E940E2868E0C8
:105130008F2D0E946828F5CFCDB7DEB7E5E00C943F
:10514000FF291F920F920FB60F9211240F931F93F6
:105150002F933F934F935F936F937F938F939F937F
:10516000AF93BF93EF93FF93CF93DF931F92CDB78E
:10517000DEB719820E940628CE0101960E941428EB
:10518000082F069506950695902F96959570202FD9
:105190002570920F292F237096959695920F877000
:1051A00089135FC0898181115CC0043008F059C047
:1051B00080E18A95F1F75A9A529A82E08A95F1F73E
:1051C00000C05A9888E0089F80011124D801AF5E82
:1051D000BE4F1696ED91FC9117973097A9F060910C
:1051E0008B0170918C0114962D913C911597260F8F
:1051F000371F11968D919C911297680F791F139606
:105200004C9113978C910995F801EF5EFE4F6381E5
:10521000662351F080918B0190918C01248135811E
:10522000820F931F0E9488280E940E2880E18A9591
:10523000F1F75A9852985A9A80E18A95F1F7F80155
:10524000EF5EFE4F6081662351F080918B0190915B
:105250008C0121813281820F931F0E943C280E9481
:1052600006280F90DF91CF91FF91EF91BF91AF9101
:105270009F918F917F916F915F914F913F912F916E
:105280001F910F910F900FBE0F901F9018950F93C5
:105290001F93CF93DF93843091050CF06DC0EC0128
:1052A000F894529A5A9885E08A95F1F700009C2F5D
:1052B000969595702C2F2570920F892F8370969557
:1052C000969523E0CC0FDD1F2A95E1F7980F8E010C
:1052D000092B0E940E2884E08A95F1F700C068E04F
:1052E000802F0E94682880E18A95F1F752985A9A97
:1052F0004A9902C000C0FCCF87E090E04A9B08C0FA
:10530000019721F4529A5A9A789436C000C0F6CF89
:10531000FE01EF5EFE4F6381662381F080918B0179
:1053200090918C0124813581820F931F0E943C282B
:10533000811104C0529A5A9A78941FC00E9406287C
:1053400080E28A95F1F75A98529A80E18A95F1F7AE
:10535000CF5EDE4F6881662351F080918B01909182
:105360008C0129813A81820F931F0E9488280E9414
:105370000E28789481E001C080E0DF91CF911F91E9
:105380000F910895AA1BBB1B51E107C0AA1FBB1FA9
:10539000A617B70710F0A61BB70B881F991F5A95C1
:1053A000A9F780959095BC01CD0108952F923F9269
:1053B0004F925F926F927F928F929F92AF92BF9225
:1053C000CF92DF92EF92FF920F931F93CF93DF93D1
:1053D000CDB7DEB7CA1BDB0B0FB6F894DEBF0FBE2E
:1053E000CDBF09942A88398848885F846E847D847B
:1053F0008C849B84AA84B984C884DF80EE80FD807D
:105400000C811B81AA81B981CE0FD11D0FB6F894F2
:10541000DEBF0FBECDBFED010895FB01DC0102C070
:1054200005900D9241505040D8F70895F999FECF5C
:1054300092BD81BDF89A992780B50895A8E1B0E0A2
:1054400042E050E00C945A2ADC01A40FB51F4150F1
:10545000504048F0CB01840F951F2E910E94352AB1
:1054600041505040D0F70895262FF999FECF92BDB4
:1054700081BDF89A019700B4021639F01FBA20BD19
:105480000FB6F894FA9AF99A0FBE08950396272F4B
:105490000E94352A0E94342A252F0E94352A242F63
:1054A0000C94352A0196272F0E94352A0C94342A11
:1054B000DC01CB01FC01F999FECF06C0F2BDE1BDD4
:1054C000F89A319600B40D9241505040B8F70895C3
:1054D000991B79E004C0991F961708F0961B881F46
:1054E0007A95C9F78095089597FB072E16F40094D6
:1054F00007D077FD09D00E94C22907FC05D03EF4F1
:10550000909581959F4F0895709561957F4F08956F
:10551000A1E21A2EAA1BBB1BFD010DC0AA1FBB1FB7
:10552000EE1FFF1FA217B307E407F50720F0A21B29
:10553000B30BE40BF50B661F771F881F991F1A9496
:1055400069F760957095809590959B01AC01BD01C0
:10555000CF010895EE0FFF1F0590F491E02D0994FF
:10556000FB01DC0104C08D910190801921F44150B0
:105570005040C8F7881B990B0895FB01DC0102C05D
:1055800001900D9241505040D8F70895AEE0B0E040
:10559000ECECFAE20C94E4290D891E898F89988D30
:1055A00026E02C831A83098397FF02C080E090E8ED
:1055B00001979E838D83AE01455E5F4F698D7A8D25
:1055C000CE0101960E94F62A4D815E8157FD0AC0E8
:1055D0002F813885421753070CF49A01F801E20F26
:1055E000F31F10822E96E4E00C94002AABE0B0E0AA
:1055F000ECEFFAE20C94D6296C017B018A01FC01E4
:1056000017821682838181FFCCC1CE0101963C01B5
:10561000F6019381F70193FD859193FF81917F01BD
:10562000882309F4BAC1853239F493FD859193FF3B
:1056300081917F01853229F4B60190E00E94ED2C22
:10564000E7CF912C212C312CFFE1F315D8F08B32D0
:1056500079F038F4803279F08332A1F4232D20617F
:105660001DC08D3261F0803369F4232D216016C096
:10567000832D8260382EE32DE4603E2E2AC0F32D68
:10568000F8601DC037FC2DC020ED280F2A3040F0F7
:105690008E32B9F436FC81C1232D2064322E19C01C
:1056A00036FE06C08AE0989E200D1124922E11C06D
:1056B000EAE02E9E200D1124222EF32DF0623F2EC3
:1056C00008C08C3621F4832D8068382E02C08836BD
:1056D00041F4F70193FD859193FF81917F01811141
:1056E000B3CF982F9F7D9554933028F40C5F1F4FB4
:1056F0009FE399830DC0833631F0833771F0833592
:1057000009F059C021C0F801808189830E5F1F4FC5
:1057100088248394912C530113C02801F2E04F0E8A
:10572000511CF801A080B18036FE03C0692D70E0E5
:1057300002C06FEF7FEFC5010E94E22C4C01820195
:10574000F32DFF773F2E16C0280122E0420E511C98
:10575000F801A080B18036FE03C0692D70E002C060
:105760006FEF7FEFC5010E94D72C4C01F32DF0683D
:105770003F2E820133FC1BC0822D90E088169906D3
:10578000B0F4B60180E290E00E94ED2C2A94F4CFB0
:10579000F50137FC859137FE81915F01B60190E0FC
:1057A0000E94ED2C21102A9421E0821A9108811484
:1057B000910471F7E8C0843611F0893641F5F8019B
:1057C00037FE07C060817181828193810C5F1F4F1A
:1057D00008C060817181072E000C880B990B0E5F49
:1057E0001F4FF32DFF763F2E97FF09C090958095B0
:1057F000709561957F4F8F4F9F4FF0683F2E2AE045
:1058000030E0A3010E94292D882E861845C08537D7
:1058100031F4232D2F7EB22E2AE030E025C0932DC7
:10582000997FB92E8F36C1F018F4883579F0B5C05C
:10583000803719F0883721F0B0C0E92FE061BE2E23
:10584000B4FE0DC0FB2DF460BF2E09C034FE0AC0AB
:10585000292F2660B22E06C028E030E005C020E1E6
:1058600030E002C020E132E0F801B7FE07C06081FD
:105870007181828193810C5F1F4F06C060817181AD
:1058800080E090E00E5F1F4FA3010E94292D882E1B
:105890008618FB2DFF773F2E36FE0DC0232D2E7F61
:1058A000A22E891458F434FE0BC032FC09C0832D9B
:1058B0008E7EA82E05C0B82CA32C03C0B82C01C026
:1058C000B92CA4FE0FC0FE01E80DF11D80818033CC
:1058D00021F49A2D997EA92E09C0A2FE06C0B39488
:1058E000B39404C08A2D867809F0B394A3FC11C048
:1058F000A0FE06C0B21488F4280C922C9B180EC08F
:10590000B21460F4B60180E290E00E94ED2CB394F2
:10591000F7CFB21418F42B1802C0982C212CA4FE37
:1059200010C0B60180E390E00E94ED2CA2FE17C0EB
:10593000A1FC03C088E790E002C088E590E0B601D2
:105940000CC08A2D867859F0A1FE02C08BE201C0FE
:1059500080E2A7FC8DE2B60190E00E94ED2C891454
:1059600038F4B60180E390E00E94ED2C9A94F7CFD2
:105970008A94F301E80DF11D8081B60190E00E9448
:10598000ED2C8110F5CF222009F442CEB60180E241
:1059900090E00E94ED2C2A94F6CFF6018681978143
:1059A00002C08FEF9FEF2B96E2E10C94F229FC01ED
:1059B0000590615070400110D8F7809590958E0F3A
:1059C0009F1F0895FC016150704001900110D8F7AD
:1059D000809590958E0F9F1F08950F931F93CF93DF
:1059E000DF93FB01238121FD03C08FEF9FEF2CC0CC
:1059F00022FF16C046815781248135814217530703
:105A000044F4A081B1819D012F5F3F4F31832083FA
:105A10008C93268137812F5F3F4F3783268314C0B5
:105A20008B01EC01FB010084F185E02D0995892BA8
:105A3000E1F6D80116968D919C91179701961796CD
:105A40009C938E931697CE01DF91CF911F910F916A
:105A50000895FA01AA27283051F1203181F1E89404
:105A60006F936E7F6E5F7F4F8F4F9F4FAF4FB1E051
:105A70003ED0B4E03CD0670F781F891F9A1FA11D4C
:105A8000680F791F8A1F911DA11D6A0F711D811D4D
:105A9000911DA11D20D009F468943F912AE0269F12
:105AA00011243019305D3193DEF6CF010895462F71
:105AB0004770405D4193B3E00FD0C9F7F6CF462F52
:105AC0004F70405D4A3318F0495D31FD40524193BB
:105AD00002D0A9F7EACFB4E0A69597958795779578
