:100000000C9453050C948B050C948B050C94FF27D2
:100010000C948B050C948B050C948B050C948B0520
:100020000C948B050C948B050C94481D0C948A1C25
:100030000C9478230C948B050C948B050C948B05F5
:100040000C948B050C948B050C948B050C948B05F0
:100050000C948B050C942B230C948B050C948B0522
:100060000C948B050C948B050C948B050C948B05D0
:100070000C948B050C948B050C948B050C948B05C0
:100080000C948B050C948B050C948B050C948B05B0
:100090000C948B050C948B050C948B050C948B05A0
:1000A0000C948B050C948B050C948B057609EA094E
:1000B0007E0948094C0982094F09850990095A09A6
:1000C000E0095E09940962099809C20966099C0958
:1000D000CC096C09A209AC095309890956098C0994
:1000E0007109A709B809D809DA0944097A09F30995
:1000F000190A1F0A0D0A130A250A2B0A310AF10AE6
:10010000F10A230B230B980BB40BDB0CDB0CB90BA4
:10011000470C580C580CC70FD70FCA0FD70FCD0F6D
:10012000D70FD70FD70FD00FD70FD00FD70FD00FB4
:10013000D70FD00FA91AD01A681CD01A681C181B28
:100140003B1B681C2A1C3D1C000000000000000036
:10015000000000000000000000000000000000009F
:100160000000000000000000000000007E0F00D42E
:10017000FFFFFFC700000078000000000000000043
:100180002A2B2800000000000000000000000000F2
:1001900000000029000000002C1E342021222434FD
:1001A0002627252E362D3738271E1F2021222324CF
:1001B00025263333362E37381F0405060708090A6B
:1001C0000B0C0D0E0F101112131415161718191A07
:1001D0001B1C1D2F3130232D350405060708090A85
:1001E0000B0C0D0E0F101112131415161718191AE7
:1001F0001B1C1D2F3130354C00DA0281FFD9F1DB99
:1002000020A4A62EAF00A0C000A1C800AED580A833
:100210001FD300408D14200041646A75737400522E
:1002200061697365004C6F7765720044656661753E
:100230006C74004C617965723A20008081828384FD
:1002400085868788898A8B8C8D8E8F9091929394E6
:10025000A0A1A2A3A4A5A6A7A8A9AAABACADAEAF26
:10026000B0B1B2B3B4C0C1C2C3C4C5C6C7C8C9CA9D
:10027000CBCCCDCECFD0D1D2D3D4002B0014001A0A
:1002800000080015001700292104001600070009C6
:10029000000A0064221D001B000600190005000072
:1002A0000000000000E20021522A002A0013001280
:1002B000000C0018001C00340033000F000E000D6D
:1002C000000B002832380037003600100011000003
:1002D00000000000003E2122522C0029003A003B81
:1002E000003C003D003200E0003E003F0040004185
:1002F000006400E1004200430044004500000000AB
:100300000000000000E200010028004C052A002B3C
:100310000029004C055113460034004F0052005193
:10032000005000440028324D004B004E004A0000AF
:100330000000000000E3002352280035001E001FCB
:1003400000200021022202191321002200230000B4
:1003500000000051132400250026002700000000A3
:100360000000000000E20023522C004C002702266F
:1003700002250224022302350030002F002E002D1A
:10038000003F0035024E004B006400320045000083
:100390000000000000E30001002800007C007C0059
:1003A00000000000000000207823782578277800DE
:1003B00000000021782478267828780000000000CA
:1003C0000000000000E20001002C0000000000001E
:1003D00000000000000000000000000F000000000E
:1003E000000000000000000000000000000000000D
:1003F0000000000000E3000100280005010902A13F
:100400000185020901A10005091901290815002526
:100410000195087501810205010930093115812511
:100420007F95027508810609381581257F9501752C
:10043000088106050C0A38021581257F950175088B
:100440008106C0C005010980A101850319012AB7F1
:1004500000150126B700950175108100C0050C0933
:1004600001A101850419012AA002150126A0029507
:100470000175108100C005010906A1018506050767
:1004800019E029E715002501950875018102050786
:10049000190029EF1500250195F075018102050865
:1004A00019012905950575019102950175039101C1
:1004B000C005010906A101050719E029E715002576
:1004C00001950875018102950175088101050719DB
:1004D0000029FF150026FF00950675088100050814
:1004E0001901290595057501910295017503910181
:1004F000C009023B00020100A0FA09040000010348
:1005000001010009211101000122400007058103BA
:100510000800010904010001030000000921110184
:10052000000122B60007058203200001120100022B
:1005300000000008534601000100010200010C0305
:1005400043006F0072006E0065000000100366003B
:100550006F006F007300740061006E000000040300
:1005600009040000000000003E5B4F5B3E003E6B54
:100570004F6B3E001C3E7C3E1C00183C7E3C18002D
:100580001C577D571C001C5E7F5E1C0000183C1829
:100590000000FFE7C3E7FF00001824180000FFE792
:1005A000DBE7FF0030483A060E00262979292600AD
:1005B000407F05050700407F05253F005A3CE73C8A
:1005C0005A007F3E1C1C0800081C1C3E7F001422A1
:1005D0007F2214005F5F005F5F0006097F017F00DC
:1005E000006689956A0060606060600094A2FFA266
:1005F000940008047E04080010207E2010000808E3
:100600002A1C0800081C2A0808001E1010101000E0
:100610000C1E0C1E0C0030383E383000060E3E0E0C
:10062000060000000000000000005F00000000075E
:1006300000070000147F147F1400242A7F2A120070
:10064000231308646200364956205000000807034F
:100650000000001C224100000041221C00002A1C56
:100660007F1C2A0008083E08080000807030000047
:100670000808080808000000606000002010080456
:1006800002003E5149453E0000427F400000724951
:10069000494946002141494D33001814127F10008A
:1006A0002745454539003C4A494931004121110956
:1006B0000700364949493600464949291E000000CD
:1006C0001400000000403400000000081422410023
:1006D00014141414140000412214080002015909D2
:1006E00006003E415D594E007C1211127C007F498C
:1006F000494936003E41414122007F4141413E008F
:100700007F49494941007F09090901003E414151A2
:1007100073007F0808087F0000417F4100002040EF
:10072000413F01007F08142241007F4040404000CB
:100730007F021C027F007F0408107F003E41414180
:100740003E007F09090906003E4151215E007F09F4
:100750001929460026494949320003017F01030057
:100760003F4040403F001F2040201F003F40384096
:100770003F00631408146300030478040300615904
:10078000494D4300007F4141410002040810200010
:10079000004141417F00040201020400404040400A
:1007A00040000003070800002054547840007F28D0
:1007B00044443800384444442800384444287F00E6
:1007C00038545454180000087E0902001824241CD0
:1007D00078007F080404780000447D400000204039
:1007E000403D00007F102844000000417F40000091
:1007F0007C04780478007C0804047800384444447D
:1008000038007C1824241800182424187C007C0844
:100810000404080048545454240004043F442400B1
:100820003C4040207C001C2040201C003C403040CC
:100830003C004428102844004C9090907C00446474
:10084000544C4400000836410000000077000000CE
:100850000041360800000201020402003C26232663
:100860003C0000000000000000000000000000004C
:100870000000C0E0F0F8F81800C0F0FCFEFFFFFF39
:10088000FFFFFFFF7E00000000000000000080C0AE
:10089000E0E0E0E0E0E0E0E0C0800000000080C0D8
:1008A000E0E0E0E0E0E0E0E0C080000000E0E0C088
:1008B000C0E0E0E0E00000E0E0C0C0E0E0E0E0E058
:1008C000C0800000000080C0E0E0E0E0E0E0E0E0A8
:1008D000C0800000000000000000000000000000D8
:1008E000E0F0F0F0E0ECEEF7F37020007C7C7C7E32
:1008F000007E7E7E7F7F7F000080C0E07E5B4F5B5E
:10090000FEC00000C000DCD7DEDEDED7DC00C000A9
:1009100000000000000000000000000000000000D7
:100920000000000000000000000000F8FCFEFFE0F6
:1009300000FFFFFFFFFFFF80FFFFFFFFFFFFFFFF45
:10094000FF1F0701000000000000000000FFFFFF84
:100950008100000000000081C3C3C30000FFFFFF4F
:100960008100000000000081FFFFFF0000FFFFFF8B
:1009700001000000000000FFFFFF01000000000177
:10098000FFFFFF0000FFFFFF9D1C1C1C1C1C1C9D8B
:10099000DFDFDF00000000000000000000000000BA
:1009A0000F1F3F7F7F7F7F7F3F1E0C001F1F1F3F5A
:1009B000003F3F3F7F7F7F00307B7F7830202030BB
:1009C000787F3B0003000F7F0F0F0F7F0F000300A6
:1009D0000000000000000000000000000000000017
:1009E0000000000000000000000000030F1F3F3F58
:1009F0003F3F1F1F3F3F7F7F7F3F3F1F3F7F7F7FE7
:100A00007F7C7878381C0F00000000000000010394
:100A10000707070707070707030100000000010396
:100A20000707070707070707030100000007070775
:100A300000000000000000070707000000000000A1
:100A40000707070000000103070707070707070755
:100A50000301000000000000000000000000000092
:100A60000000000000000000000000000000000086
:100A70000000000000000000000000000000000076
:100A80000000000000000000000000000000000066
:100A90000000000000000000000000000000000056
:100AA000000000AF00AE11241FBECFEFDAE0DEBFC2
:100AB000CDBF04B603FE18C080916C0590916D0502
:100AC000A0916E05B0916F058730904BA740B04B59
:100AD00059F410926C0510926D0510926E051092EB
:100AE0006F05E0E0F8E3099511E0A0E0B1E0EEEA7F
:100AF000F9E502C005900D92A43CB107D9F725E0B5
:100B0000A4ECB1E001C01D92AC36B207E1F70E943F
:100B10001B0D0C94D52C0C9400009C013A952115CA
:100B20003F4130F5BC0166277270AC014427547018
:100B30009C012227387094FF0FC090FF02C080E113
:100B400001C080E0672B09F08062452B09F08064CA
:100B5000232B79F080680895892F8170672B09F025
:100B60008260452B09F08460232B19F0886008957A
:100B700080E008950E94CC202FEF84E39CE0215078
:100B800080409040E1F700C000009CE088E10FB693
:100B9000F894A895809360000FBE90936000FFCFFB
:100BA000A7E1B0E0E6EDF5E00C9443294B8B5C8BBC
:100BB0006D8B7E8B8F8B61111092390586E09E01C3
:100BC000235F3F4FD901E82F1D92EA95E9F795E0A1
:100BD000FE017396D90101900D929A95E1F79C89D7
:100BE0004E895F897B897D879E876F87598B488B6C
:100BF000F901DE01179601900D928A95E1F7CE0179
:100C000007960E94CA1E81113EC086E0FE013796FB
:100C1000DE01119601900D928A95E1F7FF81E8853A
:100C20006A857B856115710531F0EF3F31F481E014
:100C3000FF3F19F403C081E001C080E080FD23C0C4
:100C400020915C0230E0C90101968770992740919C
:100C50008D0250E08417950779F1F983EA837D834B
:100C60006C8396E0929FD001939FB00D1124A35AFC
:100C7000BD4FFE01319601900D929A95E1F7809358
:100C80005C020E943A1616E080918D0290915C02FF
:100C90008917F9F0189FC0011124835A9D4F0E94B3
:100CA000CA1E8823B1F080918D0290E00196877072
:100CB000992780938D02E8CF0E94CC2010925C028D
:100CC00010928D02E6E5F2E086E0DF011D928A9542
:100CD000E9F76796E3E00C945F29CF93DF93EC018B
:100CE0000E94F921CE01805E9109089710F02097AB
:100CF00031F4CE010E948D050E94102105C0CE0165
:100D00000E948D050E94FB20DF91CF910895CF9323
:100D1000DF93EC01805E9109089710F0209731F481
:100D2000CE010E948D050E94172105C0CE010E94B0
:100D30008D050E9406218C2F0E942F22DF91CF91DA
:100D40000895AAE0B0E0E7EAF6E00C943429FC014B
:100D50008081918123813481232B31F09F3F31F4B5
:100D600091E08F3F19F403C091E001C090E090FD45
:100D70005EC67F0185E0DE01169601900D928A9590
:100D8000E1F7F70122818E819F81222349F00E94A1
:100D9000521E182F682F8E819F810E946C2003C0E5
:100DA0000E943920182F6E817F81812F0E94E113CC
:100DB0008C01F7018281882379F1C8019052811555
:100DC000904318F4C801992701C0C8018C339105DC
:100DD00028F4FC01E15CFE4F208101C020E21F925B
:100DE0002F939F938F93F70180811F928F9381811F
:100DF0001F928F938EE291E09F938F931F9288E1D1
:100E00008F9389EF91E09F938F930E94142A0FB6DE
:100E1000F894DEBF0FBECDBF0E946C236C01F701BA
:100E20008281882309F458C180912D0182FF07C077
:100E300041EF51E0B60180E090E00E94E5240231EC
:100E4000FCE71F07C9F178F400313CE7130751F1C3
:100E500001318CE7180709F035C180912B01909181
:100E60002C01059624C004319CE7190799F060F025
:100E70000531FCE71F0709F025C180912D01982F4E
:100E8000909590FB80F909C080912D01816080933D
:100E90002D0118C180912D018E7F80932D010E941C
:100EA000C22410C180912B0190912C010597909341
:100EB0002C0180932B0106C140902B0150902C01F6
:100EC00080910001909101014816590639F48091F2
:100ED000CC01803219F486EC91E03CC050920101C3
:100EE0004092000180E28093CC01612C712C109221
:100EF000CB015BEC852E51E0952EA12CB12CC301CA
:100F0000B2012AE030E040E050E00E94D629605D66
:100F1000603319F4A114B10439F04114510461048F
:100F2000710419F460E201C060E3F40162934F01BF
:100F3000C301B2012AE030E040E050E00E94D6292F
:100F400029013A01FFEFAF1ABF0A25E0A216B1044A
:100F5000B1F6C1CF5C010196F50120812032D1F3B9
:100F60004AE0342EF5012081222309F4ABC0213060
:100F700009F04FC08181813049F44501F2E08F0EC4
:100F8000911CF50182810E94A7220AC0823051F48F
:100F90004501F2E08F0E911CF50182810E942F2203
:100FA00054018CC0833049F44501F2E08F0E911C4E
:100FB000F50182810E94F921F3CF843021F0FFEF07
:100FC000AF1ABF0A7BC0F5012281C50102965C0100
:100FD00080E090E030E0205331092A30310570F490
:100FE000389EA001399E500D1124C901840F951F10
:100FF000EFEFAE1ABE0AF5012081ECCF009709F49D
:101000005DC0EFE9FFE03197F1F700C00000019704
:10101000F5CFE22FF0E0E858FE4F2490822F86951E
:101020008695869590E0FC01E859FE4F4490277024
:10103000512C022E02C0559447940A94E2F7F1E035
:101040004F225524FC01E85AFE4F6490712C022E69
:1010500002C0759467940A94E2F731E06322772422
:10106000FC01E85BFE4F8490912C02C0959487941C
:101070002A95E2F781E0882299244114510419F05D
:1010800081EE0E942F226114710419F086EE0E94F5
:101090002F22822D0E94A7226114710419F086EE7E
:1010A0000E94F9214114510419F081EE0E94F921A6
:1010B0008114910419F08CE20E94A7229FEFA91AD3
:1010C000B90A50CFC80190528115904330F5109263
:1010D0005D0510925C05AFC0013E110521F48091C1
:1010E0002D018F7E06C0053E110531F480912D0142
:1010F0008F7D80932D0111C0C801905281159043BE
:1011000060F480912D0182FF96C041EF51E0B6015D
:1011100080E090E00E94E5248EC080912D0180FF48
:101120008AC0F70182810B321105A1F040F49801C9
:10113000245031092432310508F070C00BC00D3243
:10114000110508F46BC00933110520F004361105B0
:1011500009F064C0882309F45BC08091AF029091CC
:101160003805982B292F2D7F49F110925D0510929B
:101170005C05F80124E0F695E7952A95E1F7EE0F76
:10118000FF1FE65CFA4F98012F70332781E090E053
:1011900002C0880F991F2A95E2F7809590952081CB
:1011A00031818223932391838083C8010E94870623
:1011B0008091AF028D7F0E94A01526C026E0F70126
:1011C000A1EFB1E001900D922A95E1F71092F301A1
:1011D0001092F5011092F4019695917020912D01D5
:1011E00090FB21F920932D018D7F0E94A015109373
:1011F0005D0500935C05D0925B05C0925A05809115
:101200002D01846080932D0182E00E94061647C163
:10121000A701B601C8010E94E52441C1882359F005
:1012200010925D0510925C05F801E851FC47E7302B
:10123000F10568F4EEC0F801E851FC47E730F1052C
:1012400008F4E7C0F7018281882309F43AC11092BB
:101250006005C8019057839708F00CC184E090E0C6
:101260000E947C299093D2028093D102F801E15030
:10127000F047E232F10520F4EA5AFF4F0C94F829C6
:101280008091D1028160ACC08091D2028860B4C0EC
:101290008091D1028260A4C08091D10220C080914F
:1012A000D10288609DC08091D2021EC08091D2027E
:1012B0008260A2C08091D102806192C08091D102EF
:1012C00080628EC08091D10280648AC00E94CC204E
:1012D0008091D102806884C08091D102886084604E
:1012E0007FC08091D2028260816086C08091D102ED
:1012F0008E7F76C08091D202877F7EC08091D1029E
:101300008D7F6EC08091D10220C08091D102877FF5
:1013100067C08091D2021EC08091D2028D7F6CC0C6
:101320008091D1028F7E5CC08091D1028F7D58C0A8
:101330008091D1028F7B54C00E94CC208091D10239
:101340008F774EC08091D102877F8B7F49C080917B
:10135000D2028D7F8E7F50C08091D10282FB2227E6
:1013600020F991E0922790FB82F990FB83F938C035
:101370008091D202982F909591708E7F892B90FB4F
:1013800081F93AC08091D10286FB222720F991E0B1
:10139000922790FB86F924C00E94CC208091D10234
:1013A00087FB222720F991E0922790FB87F918C04C
:1013B00061E001C060E08EE090E00E9482291EC0E2
:1013C0008091D10284FB222720F991E0922790FBA3
:1013D00084F906C08091D102982F909590FB80F9F6
:1013E0008093D1020BC08091D20283FB222720F987
:1013F00091E0922790FB83F98093D2026091D10211
:101400007091D20284E090E00E94A0290E94CC203A
:1014100046C0E858FF4F0C94F82906E221EE41EE51
:101420006AE17CE723C007E225EE45EE6BE17CE74D
:101430001DC006E221EE40EE68E17CE717C007E23E
:1014400025EE44EE69E17CE711C006E221EE42EEB2
:101450006CE17CE70BC007E225EE46EE6DE17CE730
:1014600005C008E221E045EE6EE17CE7C7010E947D
:10147000592415C00631FCE71F0741F58091380556
:101480008A7A91E009F490E09093CD018111C1C274
:1014900069E286E392E00E94C9230E94B11580911F
:1014A0008E02877009F4C3C2F7018281882309F490
:1014B000BEC28091D20282FFBAC282E00E940616AA
:1014C000B6C206312CE7120709F4A5C2F7018281E2
:1014D0008823D9F10330FCE71F0721F140F40115FF
:1014E0003CE7130789F001301C4711F12EC00B3582
:1014F0009CE7190739F10C35ECE71E07D9F00A35DE
:101500001C4719F581E01FC00E94CC202FEF34E367
:101510008CE0215030408040E1F700C000000E9484
:101520000723BDCF6FEF7FEF80E090E00E94A029FE
:101530000E94BA058091D20282FB882780F991E04F
:10154000892701C080E00E942316F7018281008173
:101550001181882349F0C8010E94521ED82E682F9D
:10156000C8010E946C2004C0C8010E943920D82EF6
:10157000B8018D2D0E94E1130E94FC138C01982E5E
:10158000F701D280A580A2949FE0A92280918E02CB
:101590008770B9F0DD20A9F0812F807F803421F0A1
:1015A00080E2800F883068F08091D20282FF09C00B
:1015B00082E00E94061680918E028770CC24C3942C
:1015C0008111C12CB12EB2948FE0B8228B2D90E006
:1015D0008C30910508F0EFC1FC01E158FF4F0C94ED
:1015E000F829812F807F1F70882311F01295107FBA
:1015F000DD20B9F0112309F4CCC180E2800F8830DE
:1016000010F0911006C090913805192B10933805F1
:1016100005C090913905192B109339050E94B11519
:10162000B8C1802F0E94F921112309F4C4C1005EC2
:10163000083078F1992069F11095909139051923B6
:101640001093390529C0812F807F1F70803211F0DF
:101650001295107F992021F0F1E09F16F1F14CC016
:101660008091D20282FD1BC0DD2069F0112339F088
:1016700090913805192B109338050E94B11580E020
:101680000E942F2298C180E00E94F921112309F4C1
:1016900092C1812F0E94AA150E94B1158CC1DD2034
:1016A00069F08091AF02A11002C0812B1DC021E022
:1016B000812BA21219C00E94A0157DC1A11003C0E8
:1016C0000E949A1531C031E0A31609F474C1812F2C
:1016D0000E9410210E949A156EC1DD2041F085E024
:1016E0008A1508F468C1812F0E94172164C194E013
:1016F0009A1508F460C118C0DD2049F0AA2099F3BA
:10170000F701858180FF45C18F708583ECCFAA20CA
:1017100059F0093309F04CC1FFEF27EE33E0F150E7
:1017200020403040E1F742C1812F0E94102143C187
:10173000812F86958695837019F0813059F03BC1D1
:10174000DD2019F0C801937002C080E090E00E9493
:10175000232437C1DD2019F0C801937002C080E056
:1017600090E00E94FE232DC16D2D802F0E9421212B
:1017700028C1812F837009F041C0D11020C1302FC2
:10178000329536953770330F330F802F8F7090E07E
:10179000032E02C0880F991F0A94E2F704FF0BC0C2
:1017A0004FE050E002C0440F551F3A95E2F79A010E
:1017B0002095309502C020E030E016951695137004
:1017C000123099F068F44091DC015091DD01113044
:1017D00029F0822B932B8423952304C0842B952BF3
:1017E000822B932B0E94C720EAC0822B932B20913F
:1017F000DC013091DD0182279327F4CFDD2019F041
:10180000812F817001C08695882309F4D8C0302FBC
:10181000329536953770330F330F802F8F7090E0ED
:10182000032E02C0880F991F0A94E2F704FF0BC031
:101830004FE050E002C0440F551F3A95E2F79A017D
:101840002095309502C020E030E016951695137073
:10185000123079F0B8F44091F7015091F80111304D
:1018600029F0822B932B842395230EC0842B952B58
:1018700009C0822B932B2091F7013091F801822728
:10188000932702C0822B932B0E94A02098C01F7028
:10189000DD2039F0812F0E94B720802F0E94172170
:1018A0008EC0802F0E941021812F0E94A52087C00A
:1018B000802F92EF991699F1991538F0E0EF9E1666
:1018C00059F0F1EF9F1631F160C023EF921671F1DC
:1018D00034EF9316D9F059C0DD2099F084E08A15D1
:1018E00008F469C01F7181E090E002C0880F991F61
:1018F0001A95E2F72091F7013091F801822793279A
:1019000022C095E09A1508F456C0ECCF8091D2021F
:1019100082FD1CC0DD2029F0812F8F7129C0DD20C0
:10192000D9F3812F8F710E94A52045C0DD2049F099
:101930001F7181E090E002C0880F991F1A95E2F7AD
:1019400002C080E090E00E94A02035C0DD2099F028
:101950001F71812F0E94B7208091D20282FF07C0A1
:10196000E8E01E9FC0011124836080938E02812FC6
:101970000E94B72020C081E00E940616F1E0FA150F
:10198000D0F482E00E94061616C0DD2021F0AA20C5
:1019900019F2802F75CEAA2021F2893349F42FEF56
:1019A00037EE83E0215030408040E1F700C0000076
:1019B000802F0E94F92188EF8B0D843010F40E9453
:1019C0004824CC20A9F080918E0280FD11C0F7013F
:1019D00012828595859585950E94B720C7010E9442
:1019E000A10680918E028595859585950E94A520FA
:1019F00085E0F701DE01119601900D928A95E1F7DD
:101A000009811A81C8010E943920B8010E94E1139E
:101A10000EC065E33ECD8091CD01811106C069E223
:101A200086E392E00E94A12338CD65E3F9CF2A96A0
:101A3000E2E10C945029A2E1B0E0E1E2FDE00C9477
:101A4000342985B7806885BF85B7806885BF84B72E
:101A5000877F84BF0FB6F894A89580916000886155
:101A600080936000109260000FBE90E080E80FB697
:101A7000F89480936100909361000FBE88E192E139
:101A80009093C5018093C4010E94CE1C0E94ED1C5E
:101A90008091E20084608093E20078948091F80263
:101AA0008823A1F01091E9001F709091EC00892F1C
:101AB000817090FD80E8182B1092E9008091E80079
:101AC00083FD0E94C8191F701093E90082E084BD55
:101AD00093E095BD9AEF97BD80936E001092CE0172
:101AE0001092CF011092D0011092D1010E943D13AB
:101AF000809302010E943D1381110E94BA278091B8
:101B0000020180910201811102C094E001C090E0C5
:101B10009093DB0184E0891B8093DA010BE711E0ED
:101B20008FE7E82E81E0F82ED8018D918D018F3F4F
:101B300011F00E94CA13E016F106B1F70FE711E0A9
:101B4000F80181918F018F3F11F00E94CA13F1E0DB
:101B500005381F07A9F788E0E0EEF1E0DF01282F44
:101B60001D922A95E9F7E2EDF1E0DF011D928A95D9
:101B7000E9F780E090E00E947C29873E9E4F09F4BF
:101B80005EC067EE7EEF80E090E00E94A02960E0FA
:101B900082E090E00E94822960E083E090E00E9471
:101BA00082291092DD011092DC0160E074E184E092
:101BB00090E00E94A02960E086E090E00E948229E7
:101BC0006FEF87E090E00E94822940E050E0BA0188
:101BD00088E090E00E94942960E08DE090E00E940F
:101BE000822940E050E0BA0188E190E00E94942907
:101BF00060E087E190E00E94822940E050E0BA0175
:101C00008CE190E00E94942960E070E080E290E036
:101C10000E94A02940E050E0BA0188E190E00E94D3
:101C2000942940E050E0BA018FE090E00E949429AE
:101C300040E050E0BA0183E190E00E94942982E004
:101C400090E00E9474298093E80184E090E00E9473
:101C50007C299093D2028093D1020E94AD16EFE3CB
:101C6000FCE93197F1F700C000000E94AD160E9418
:101C70003D13811102C0E4E001C0E0E0F0E0E05279
:101C8000FE4F808181FF08C06FEF7FEF80E090E022
:101C90000E94A0290E94072383E090E00E947429FB
:101CA00090E00E94C7200E943D13882311F080E03D
:101CB00001C082E08093310280E8809302030E9499
:101CC00070266DE070E08BE092E00E948A19892B0B
:101CD00009F043C08091310263E070E081FD3AC0B9
:101CE00088E092E00E948A19892BB9F56DE070E0D6
:101CF00088EF91E00E948A19892B79F50E94602370
:101D0000DC01CB01805A9541AF4FBF4F8093320524
:101D100090933305A0933405B0933505E5E0F3E0E7
:101D200080E092E0DF019C011D9221503040E1F7FC
:101D3000F0930C05E0930B058FEF9FEF9093040356
:101D40008093030381E080933705809336051092DA
:101D5000320203C085E092E0C5CF0E943D1381119D
:101D600002C00E94BD2783E091E0909364058093B8
:101D7000630544244394512CA1EF2A2EA1E03A2E6E
:101D80008091F802853009F046C000E112E18091AF
:101D9000F802853009F03BC08091F802843031F1BF
:101DA0000E9494251092670588E190E0A0E40FB6A8
:101DB000F894A895809360000FBEA093600083B74D
:101DC000817F846083BF83B7816083BF7894889567
:101DD00083B78E7F83BF0FB6F894A895809160007B
:101DE000886180936000109260000FBE8091F702BE
:101DF000882309F4CCCF0E94AD16E0EEF1E081918A
:101E00008111F4C2B1E0E83EFB07C9F7C0CF0E94E0
:101E1000CC200E9448240E94AD16E9EEEE2EE1E0AF
:101E2000FE2EF0EECF2EF1E0DF2ED601F7019191DC
:101E30008D9189272E163F0619F08823C1F322C001
:101E4000811120C00E946C238C018091DE01909151
:101E5000DF010817190709F4DFC28FEF8F83888726
:101E600019860E946C238160782F9B878A874F8117
:101E7000588569858B850E94D0051093DF010093FA
:101E8000DE01CAC20E943D13882E10E0F601919037
:101E90006F01D701AC90A92411F100E0BB24B394E9
:101EA0008B2D8A21B1F08820A1F00C871D8791E04D
:101EB0008B2D892109F490E09E870E946C2381601C
:101EC000782F988B8F874C855D856E8588890E94D9
:101ED000D0050F5FBB0C063019F7F70190821F5F2A
:101EE000FFEFEF1AFF0A183089F60E946023DD2405
:101EF000D3940E943D138823E9F080912D0182FF45
:101F000019C00E946C2320915A0530915B05AC01E9
:101F1000421B530B20912B0130912C014217530788
:101F200048F041EF51E0BC0180915C0590915D0566
:101F30000E94E52480913705882309F458C18091D7
:101F40003302909134020E945123C29708F448C092
:101F50000E946C23909334028093330285E093E0D7
:101F600090930C0580930B050E943D138823A1F1EB
:101F700083E392E00E947C19E091F701F091F8016F
:101F8000EF30F105A0F4E557FF4F0C94F8298BE2F0
:101F900092E008C085E292E005C08FE192E002C0C5
:101FA00088E192E00E947C1981E00E94D425E9EF4B
:101FB000F1E001900020E9F78F010150110979EF5C
:101FC000E72E71E0F72EE016F10650F4D7018D915F
:101FD0007D010E94FD18F7CF8BE392E00E947C19EF
:101FE0008091030390910403892B31F4809136058D
:101FF000882309F4FCC0E4C0809137058823B1F33D
:10200000809132028111F2CF0E94AE25209103030C
:10201000309104032115310549F380E0082F10E0C9
:102020007201082E02C0EE0CFF1C0A94E2F7A70111
:1020300042235323452B11F48F5FF0CF909131024F
:10204000980165E0220F331F6A95E1F790FF13C0F6
:1020500055E0369527955A95E1F7220F220F220F6A
:1020600020930D0110921001295F20930E0183E04F
:102070008093110111C08295880F807680930D01A5
:10208000220F232F221F330B319520931001815EE5
:1020900080930E011092110124E630E047E050E0F9
:1020A0006BE071E088E70E941827892B09F09ECF2A
:1020B0008091310280FF64C080E2E1E1F2E0DF0163
:1020C0001D928A95E9F7A80135E0440F551F3A950E
:1020D000E1F7E9E8F1E0FA8BE98B05E811E0A9897D
:1020E000BA898D91BA8BA98BF80191918F01BA01B0
:1020F000690F711D6B5F7C4F90E08F5E9D4FFC01FF
:1021000027E0922E9F01281B390B742C01C0770CFD
:102110002A95EAF75B01812CD501CD905D01C7209E
:10212000292D28192770622E022E000C330BBC2D8E
:1021300001C0BB0F6A94EAF76B2E319521953109E6
:102140002770332701C0C6942A95EAF76C28C0800F
:102150006C286082839428E08212DECF9A943196B4
:102160003FEF9312CFCF89899A898D58914009F01A
:10217000B6CF04E610E020E230E041E152E00CC0CE
:10218000A80185E0440F551F8A95E1F74B5F5C4F2E
:1021900004E610E020E230E060E488E70E9439279E
:1021A000892B09F023CFE094F09480910303909160
:1021B0000403E822F922F0920403E092030316CF0D
:1021C0000E9460230091320510913305209134055F
:1021D00030913505DC01CB01801B910BA20BB30BB9
:1021E0008F3F9F4FAF4FBF4710F40E949425D110EF
:1021F0000E94AE2586E0ECE2F5E0DE01119601904A
:102200000D928A95E1F710922E0510922F051092EB
:102210003005109231058B81811104C08C81882397
:1022200009F453C080912A0590912B050E945123F7
:102230009C0190912505992309F4F0C025313105C1
:1022400008F443C09F3F19F09F5F909325051B81C1
:10225000112361F00E945026111614F09FEF01C067
:1022600091E0899F802D112480932E051C811123DC
:1022700061F00E945026111614F09FEF01C091E00A
:10228000899F802D112480932F0530912E053323B3
:10229000E1F020912F052223C1F045EB3403C0016A
:1022A0001124992319F090932E0503C081E08093A7
:1022B0002E0535EB2303C0011124992319F09093C7
:1022C0002F0503C081E080932F058D81811104C00B
:1022D0008E81882309F453C08091280590912905A7
:1022E0000E9451239C0190912605992309F49BC0DB
:1022F0002135310508F443C09F3F19F09F5F90934B
:1023000026051D81112361F00E942E26111614F05E
:102310009FEF01C091E0899F802D112480933005AB
:102320001E81112361F00E942E26111614F09FEFDA
:1023300001C091E0899F802D112480933105309157
:1023400030053323E1F0209131052223C1F045EB24
:102350003403C0011124992319F09093300503C070
:1023600081E08093300535EB2303C00111249923CC
:1023700019F09093310503C081E08093310546E068
:1023800050E0BE016F5F7F4F8CE295E00E94FE2916
:10239000892BA9F480912E0581110FC080912F0502
:1023A00081110BC080913005811107C081E09091AF
:1023B0003105911103C080E001C081E080FD0E94E1
:1023C000042686E0FE013196ACE2B5E001900D9264
:1023D0008A95E1F70E94482490913502891709F403
:1023E000CFCC809335020E946023C6CC09BD19BDB5
:1023F00009B400FEFDCF8091D8008F7D8093D80076
:102400008091E00082608093E0008091E00081FD97
:10241000FCCF0E94CC20BBCCD12C6BCD2B30310516
:1024200008F012CF52CF2B30310508F067CFA7CF7D
:1024300080E008959091D10292FF0DC0282F28715D
:10244000283019F4877F846006C0282F2471243037
:1024500011F48B7F886093FF0DC0282F28712831DD
:1024600019F4877E846106C0282F2471243111F469
:102470008B7E88612091D20220FF0DC0382F3871E9
:10248000383019F4877F816006C0382F31713130C0
:1024900011F48E7F886021FF0DC0282F287128310C
:1024A00019F4877E816106C0282F2171213111F432
:1024B0008E7E886194FD877E0895A0E0B0E0E3E61B
:1024C000F2E10C943C297C015B016A018091D0020D
:1024D0008A3018F001E010E002C00AE010E0C1E02C
:1024E000D0E0B501C701F6010995811115C021960B
:1024F0000C171D0794F0CC9F9001CD9F300D300D2F
:10250000112480E090E045E34A95F1F70000019640
:1025100082179307C1F7E5CF81E0CDB7DEB7EAE0D8
:102520000C945829EF92FF921F93CF93DF9300D022
:1025300000D01F92CDB7DEB77B0180E090E00E9413
:10254000A528882309F463C04091150150E0411586
:10255000510511F041E050E06091160170911701B2
:102560006D537D4FCE0105960E940B2A4091BF020C
:102570005091C0026091C1027091C2022FB7F894CD
:102580008091680590916905A0916A05B0916B05ED
:102590002FBF841B950BA60BB70B84369105A105A5
:1025A000B10538F484EC92E00E94B1199D8189173D
:1025B00081F181E090E00E94A528182F882391F0F6
:1025C00040911D0150E04530510510F044E050E0CD
:1025D00060911E0170911F016D537D4FCE010196D8
:1025E0000E940B2A84EC92E00E94B11991E02D81A7
:1025F000281390E0192341F10E9460236093BF02E9
:102600007093C0028093C1029093C2020FC010E089
:1026100001C011E08091C4029091C502A091C60250
:10262000B091C70289839A83AB83BC83112361F085
:1026300089819A81AB81BC818093BB029093BC025B
:10264000A093BD02B093BE028091BB029091BC02E8
:10265000A091BD02B091BE02F70180839183A28355
:10266000B383812F0F900F900F900F900F90DF91F9
:10267000CF911F91FF90EF9008958091BA02811140
:1026800019C088EC90E02091E30027FD0AC0EFE339
:10269000FCE93197F1F700C000000197A1F782E053
:1026A00001C081E08093BA02823021F40E94CE1CE6
:1026B0001092F80281E09091BA02913009F080E026
:1026C0000895A4E0B0E0E7E6F3E10C9442294091DC
:1026D000CC025091CD026091CE027091CF022FB703
:1026E000F8948091680590916905A0916A05B09170
:1026F0006B052FBF841B950BA60BB70B843691057A
:10270000A105B10508F441C00E943D13882319F0CA
:102710000E9460230EC00E9460230091CE011091A0
:10272000CF012091D0013091D101600F711F821F24
:10273000931FDC01CB010296A11DB11D89839A83F1
:10274000AB83BC8380912301909124018D539D4FD5
:102750004091220150E04530510510F044E050E036
:10276000BE016F5F7F4F0E940B2A82E090E00E94C3
:10277000A528882359F00E9460236093CC027093AF
:10278000CD028093CE029093CF0281E02496E4E0C4
:102790000C945E29F894E82FE295EF70F0E031A1F7
:1027A000282F2F7081E090E001C0880F2A95EAF76A
:1027B000982F9095932391A392A1892B82A378942B
:1027C00008957830B0F46630A0F4843090F490E34B
:1027D000899FF001112486E0789FE00DF11D1124FE
:1027E000E60FF11DEE0FFF1FE558FD4F8591949107
:1027F000089580E090E00895CF93DF9382389105AB
:1028000069F1B0F48133910509F477C048F4893255
:10281000910509F469C08A32910509F473C092C028
:102820008533910509F45BC089339105B9F08AC0FD
:10283000833E910591F138F4803E9105D1F0823EBE
:10284000910531F17FC0863E9105D9F1873E910512
:10285000E9F1843E910509F075C028C02091D102AC
:1028600020FD5BC021FD59C02091D20223FD61C033
:1028700069C08091D10280FD4AC08091D20280FF60
:102880004CC08091D10284FD50C183EE90E04FC1D5
:102890008091D10282FF3EC0F4CF8091D10282FDAF
:1028A00039C08091D20280FD38C0EBCF8091D20236
:1028B00081FF39C08091D10284FD37C187EE90E05D
:1028C00036C18091D10283FF2BC0F4CF8091D10219
:1028D00083FD26C08091D20281FD25C0EBCF80917F
:1028E000D10285FD26C022C08091D10285FD1EC087
:1028F0008091D20283FF1DC00AC08091D10286FD63
:102900001BC01DC08091D10286FD19C015C089E38E
:1029100090E00DC182EE90E00AC180EE90E007C128
:1029200086EE90E004C184EE90E001C185E390E082
:10293000FEC089E290E0FBC08AE290E0F8C081E34B
:1029400090E0F5C0EC01811530E5930708F053C025
:10295000811560E4960720F0CE019F70906AE7C071
:10296000803E910588F58D3C910518F0CE0190656B
:10297000DEC0883A9105C0F4853A910550F08C2F5D
:10298000855AC82FD0E0C357DE4F888190E090640D
:10299000CEC08130910509F4C5C008F4C6C00497C3
:1029A00008F4C3C0CE01C3C0813C910508F0BDC08E
:1029B0008C2F885AC82FD0E0CC0FDD1FC057DE4FB8
:1029C000888199819464B3C08115904258F08D2F0D
:1029D0008F710E941A12282F2F71CE0199279062B1
:1029E000922BA5C0C11581E0D807E0F6C83ED105FD
:1029F00008F09BC0D7CFC03692E5D90708F053C086
:102A0000C03422E5D207B8F08C2F8F718695869559
:102A100070E2879FA00111248C2F837021E030E0A9
:102A2000B90102C0660F771F8A95E2F7CB019C6857
:102A3000842B952B7CC0C03232E5D30740F08C2F1D
:102A40008F7190E0982F8827816F906A70C0C115B0
:102A500062E5D607B0F08C2F8695869520E2829F9E
:102A6000A00111248C2F837021E030E0B90102C055
:102A7000660F771F8A95E2F7CB01842B952B9D6813
:102A800056C08C2F8F710E941A1295E0D695C7956B
:102A90009A95E1F7CF70D0E0DC2FCC27D0699E016A
:102AA000282BC90144C0C03A72E5D70708F58C2F1E
:102AB0008F71C03892E5D907A8F48695869570E2A3
:102AC000879F900111248C2F837041E050E0BA0160
:102AD00002C0660F771F8A95E2F7CB019A68822BB6
:102AE000932B25C090E0982F8827846F906A1FC091
:102AF000C03C22E5D20750F48C2F8F710E941A122D
:102B00008F7190E0982F8827906211C0C03E32E507
:102B1000D30758F4CE018F719927982F8827806F9B
:102B2000906A05C081E090E002C080E090E0DF9113
:102B3000CF9108958091AF0281111092AF02089554
:102B40009091D20292FF05C09091AF0298138093AA
:102B5000AF020895809590913805892380933805B8
:102B600008959091380580913905982B90933602FD
:102B70008091AF028823D9F0892B8093360280910F
:102B80002A01882331F08091D10287FF02C08EE1B3
:102B900001C086E0E8E3F2E090E0815028F0219166
:102BA0002223D9F39F5FF9CF91110E949A1540E239
:102BB00050E06FE872E086E392E00E94FE29892BE4
:102BC00021F180E2E6E3F2E0AFE8B2E001900D929D
:102BD0008A95E1F7E0916305F09164053097A9F0DB
:102BE00080912A01882359F08091D10287FF07C084
:102BF000809136028093370286E08093360202800D
:102C0000F381E02D86E392E00995089520918E02EC
:102C10008095822380938E02982F977099F430E0EC
:102C2000482F082E000C550B2417350759F09091AA
:102C3000D20292FF07C08595859585950E94A520B3
:102C400010928E0208959091D20292FB222720F9D1
:102C5000281779F080FB92F99093D2026091D1020B
:102C60007091D20284E090E00E94A02982E00E944C
:102C70000616089580918D0290915C02891719F0D3
:102C80008F5F8770FBCF08950F931F93CF93DF93D0
:102C900080915B0282958F7009F05AC08091580232
:102CA000882309F455C080918D0210915C026091D7
:102CB000560270915702C0915902D0915A0291E088
:102CC0006F3F09F090E0292F06E0811709F440C01A
:102CD000209721F07F3F21F030E003C031E001C0B8
:102CE000322F90E030FD31C0089FF001099FF00DB8
:102CF0001124DF01A35ABD4F11963C911197371350
:102D000024C03C91361321C012963C911297311188
:102D10001CC013964D915C9114974C1B5D0B44366F
:102D2000510598F480915B028F70806180935B0203
:102D3000EE59FD4F80818F708061808386E592E03F
:102D40000E94A1060E943A1603C001968770BDCF6B
:102D5000DF91CF911F910F910895ACE0B0E0E3EBCC
:102D6000F6E10C943729AE014F5F5F4F7A0188E09E
:102D7000DA011D928A95E9F70BE711E06A018FE706
:102D8000682E81E0782EAA24A394B12C25E8822E07
:102D900021E0922EF80180818F3F09F440C0F89421
:102DA000E82FE295EF70F0E021A18F70A50102C03D
:102DB000440F551F8A95E2F7CA01922F982B91A3D1
:102DC00092A18095892382A3789400C0EFE7F1E077
:102DD000512C31E021912F3F89F0A22FA295AF70A5
:102DE000B0E090968C9190E02F7002C095958795F9
:102DF0002A95E2F780FD02C0832F01C080E0582AA7
:102E0000330F8E169F0631F7D8018C918F3F11F04A
:102E10000E94CA13B0EABA95F1F7F60150820F5F2B
:102E20001F4FFFEFCF1ADF0A6016710609F0B2CF0D
:102E300048E050E0B70182ED91E00E94FE29009742
:102E400041F028E0F701A2EDB1E001900D922A9542
:102E5000E1F70091DB01892B49F081E08093B20218
:102E60000E946C239093B1028093B0028091B202D1
:102E7000811102C0F12C22C08091B0029091B10268
:102E80000E9451230597B0F310E000521E4F44E01A
:102E900050E062ED71E0C8010E94FE29892B59F0D3
:102EA00084E0E2EDF1E0D80101900D928A95E1F71E
:102EB000FF24F39401C0F12C1092B2020E943D1342
:102EC000E091DB01882309F45AC019861A861B8613
:102ED0001C860E2F10E000521E4F8091D0028A30C7
:102EE00058F442E952E1BE01675F7F4FC8010E947A
:102EF0005D128823A9F00AC08091B3029091B402B8
:102F00000E945123843F914060F71CC041E653E189
:102F1000BE01675F7F4FC8010E945D12811174C0BE
:102F20008091D0028F3F19F08F5F8093D002809103
:102F3000D0028A3008F46AC00E946C239093B402D5
:102F40008093B3028091B902882309F457C0FE012F
:102F5000399684E0DF011D928A95E9F71092B90253
:102F6000E091DA01F0E0E052FE4F89859A85AB8569
:102F7000BC8580839183A283B38381E040C0F0E06D
:102F8000E052FE4F84E0A4ECB2E001900D928A95ED
:102F9000E1F784EC92E00E94B1198093C302809023
:102FA000C8029090C902A090CA02B090CB02809152
:102FB000B5029091B602A091B702B091B8028816FE
:102FC0009906AA06BB06D1F08092B5029092B6028D
:102FD000A092B702B092B8020E943D1381110EC0B8
:102FE0000E946023861A970AA80AB90A8092CE0125
:102FF0009092CF01A092D001B092D10180E08F29B0
:103000002C96EFE00C9453291092D0028091DA01B3
:1030100090E044E050E0BE01675F7F4F80529E4FDA
:103020000E94FE2921E02093B902892B09F098CF54
:10303000E5CF8091FA0287FF11C08091E80082FD00
:1030400005C08091F8028111F8CF11C08091E8008D
:103050008B770BC08091F802882349F08091E800BB
:1030600080FFF8CF8091E8008E778093E800089584
:10307000982F973068F59093E900981739F0709180
:10308000EC002091ED005091F00003C0242F762F2A
:1030900050E021FD02C09F5FECCF3091EB003E7FFE
:1030A0003093EB003091ED003D7F3093ED00309197
:1030B000EB0031603093EB007093EC002093ED0057
:1030C0005093F0002091EE0027FDE5CF80E00895B9
:1030D0008F708093E90081E0089520910003309182
:1030E00001032617370748F06115710539F420915F
:1030F000E8002E772093E80001C0B901FC0120E030
:103100006115710579F18091F8028823F1F185301C
:10311000F1F18091E80083FD3CC08091E80082FDE0
:103120002EC08091E80080FFEBCF2091F3008091CA
:10313000F20090E0922B6115710551F088309105F5
:1031400038F421912093F100615071090196F3CF79
:1031500021E0089709F020E08091E8008E778093C5
:10316000E800CECF2111CFCF0AC08091F80288238A
:1031700061F0853061F08091E80083FD0AC08091A4
:10318000E80082FFF2CF80E0089582E0089583E0B6
:10319000089581E0089543E050E0BC0182E00E9480
:1031A000C922089546E050E0BC0182E00E94C92295
:1031B0000895CF93DF93EC0180912A01811105C01E
:1031C00048E050E0BE0181E00BC08091D10287FF52
:1031D00003C040E282E002C048E081E050E0BE016E
:1031E0000E94C92280E2FE01A6EDB2E001900D929C
:1031F0008A95E1F7DF91CF910895CF93DF93682F00
:103200008A3011F481E003C08D3021F480E00E9407
:10321000D4256FC080910B0590910C0526E0FC0130
:10322000A5E0B5E001900D922A95E1F7603E30F0FF
:1032300026E0FC0111922A95E9F70AC0F6E06F9F9B
:10324000B00111246E597A4F46E050E00E946B297C
:10325000C0910B05D0910C0546E050E0BE0185E021
:1032600095E00E94FE29892B49F19E0125503340AB
:10327000A90185E0569547958A95E1F781E090E0B0
:10328000BC0102C0660F771F4A95E2F74091030325
:1032900050910403462B572B2B5F3F4F65E036952B
:1032A00027956A95E1F702C0880F991F2A95E2F7E2
:1032B000842B952B90930403809303039E012F5F2F
:1032C000324040910203642F70E0C9010E9420291E
:1032D000481B463010F4240F311D211582E03807B9
:1032E00010F020E030E02B5F3C4F30930C05209332
:1032F0000B05DF91CF910895CF93DF93EC01FE0191
:103300008491882321F00E94FD182196F8CFDF9147
:10331000CF910895EF92FF920F931F93CF93DF9376
:10332000EC017B0164E670E088E70E9476268C0160
:10333000EC0EFD1ECE15DF0561F017FD0AC0FE0183
:10334000849164E670E00E94E9268C012196892B25
:1033500089F30E946027C801CDB7DEB7E6E00C9480
:103360005C29FC01AC014C5F5F4F8FEF91E3219131
:10337000822728E030E087FF03C0880F892701C03B
:10338000880F21503109B9F7E417F50781F708953F
:10339000AAE2B0E0EEECF9E10C944329EAEFF2E0A6
:1033A00082E093E02091F10021938E179F07D1F7DF
:1033B0008091FB02833009F461C030F4813071F0F8
:1033C000823009F49BC0B2C08A3009F487C08B30C8
:1033D00009F46CC0893009F0A9C020C08091FA02BC
:1033E000813A09F0A3C08091E800877F8093E800CC
:1033F0008091FE029091FF02892B21F460E286ED1C
:1034000092E003C060E080E090E070E00E946D1800
:103410008091E8008B778093E80088C08091FA0261
:10342000813209F083C08091FE029091FF020297E1
:1034300008F07CC08091E800877F8093E80080914D
:10344000E80082FD05C08091F8028111F8CF6EC0BE
:103450002091F3008091F20090E0922B029731F4DA
:103460008091F100813011F0863021F48091F100DB
:103470008093D5028091E8008B7754C08091FA0246
:10348000813A09F053C08091FE029091FF02892B8E
:1034900009F04CC08091E800877F8093E80080911C
:1034A000E80080FFFCCF80912A0137C08091FA02AA
:1034B0008132E1F58091FE029091FF02892BB1F5F6
:1034C0008091E800877F8093E8000E94191880911E
:1034D000FC0280932A010E94CC2028C08091FA022D
:1034E000813221F58091E800877F8093E8000E9477
:1034F00019188091FD028093D40218C08091FA02BD
:10350000813AA1F48091E800877F8093E800809160
:10351000E80080FFFCCF8091D4028093F10080917D
:10352000E8008E778093E8000E9419188091E800E7
:1035300083FFCEC18091FA029091FB02492F50E0A7
:103540004A30510508F0C4C1FA01E656FF4F0C9409
:10355000F829803821F0823809F0BAC108C080917A
:10356000F6029091F702992389F082600FC0809152
:10357000FE028F70873008F0ABC18093E900809124
:10358000EB0085FB882780F91092E9009091E80014
:10359000977F9093E8008093F1001092F10065C14D
:1035A000282F2D7F09F094C1882319F0823061F013
:1035B0008FC18091FC02813009F08AC1933009F0FB
:1035C00080E08093F7022EC08091FC0281112AC016
:1035D0008091FE028F702FEF280F263008F078C1FF
:1035E0008093E9002091EB0020FF1CC0933021F470
:1035F0008091EB00806214C09091EB0090619093F9
:10360000EB0021E030E0A90102C0440F551F8A956C
:10361000E2F74093EA001092EA008091EB008860A4
:103620008093EB001092E9008091E800877F20C131
:1036300081114EC11091FC021F778091E3008078C8
:10364000812B8093E3008091E800877F8093E800DE
:103650000E9419188091E80080FFFCCF8091E30060
:1036600080688093E300111102C082E001C083E012
:103670008093F8022DC18058823008F029C18091D2
:10368000FC029091FD028C3D53E0950779F583E0B3
:103690008A838AE289834FB7F894DE01139620E08B
:1036A0003EE051E2E32FF0E050935700E49120FF19
:1036B00003C0E295EF703F5FEF708E2F90E0EA302D
:1036C00010F0C79601C0C0968D939D932F5F243153
:1036D00049F74FBF8091E800877F8093E8006AE256
:1036E00070E0CE0101960E946D18AEC04091FE02BE
:1036F0005091FF02292F332723303105A9F068F4B8
:103700002130310509F4F3C02230310509F0E0C061
:103710008BE390E0E1EFF4E044C02132310521F188
:103720002232310571F1D4C0992781309105A1F081
:1037300058F0029709F0CCC0EEE3F5E0E4918E2F4B
:1037400090E0EEE3F5E02AC0EEE5F5E0E4918E2F9F
:1037500090E0EEE5F5E022C0ECE4F5E0E4918E2F98
:1037600090E0ECE4F5E01AC04115510509F4C4C03D
:103770004130510509F0ACC089E090E0ECE1F5E0A2
:1037800010C04115510509F4BCC04130510509F084
:103790009FC086EB90E0EBEFF3E003C0009709F4E5
:1037A00097C02091E800277F2093E8002091000334
:1037B000309101038217930708F49C0140E0211522
:1037C000310589F18091F802882309F43DC08530E4
:1037D000D9F18091E80083FD37C08091E80082FD37
:1037E0002FC08091E80080FFEACF4091F3008091E4
:1037F000F20090E0942B2115310559F088309105A5
:1038000040F444914093F1003196215031090196E2
:10381000F2CF41E0089709F040E08091E8008E7710
:103820008093E800CCCF4111CDCF0AC08091F8023F
:10383000882351F0853041F08091E80083FD04C079
:103840008091E80082FFF2CF8091E8008B7780932F
:10385000E8003EC08038E1F58091E800877F8093E2
:10386000E8008091F9028093F1008091E8008E7762
:103870008093E8000E9419182BC0811129C0809103
:10388000FC029091FD029927029714F58091E800BF
:10389000877F8093E8001091FC021093F9020E9448
:1038A0001918111106C08091E30087FD02C081E064
:1038B00001C084E08093F80242E061EC81E00E9464
:1038C000381842E261EC82E00E9438188091F802D8
:1038D0008091E80083FF1AC08091E800877F809381
:1038E000E8008091EB0080628093EB000FC082E1E2
:1038F00090E0ECE2F5E055CF89E090E0E3E0F5E020
:1039000050CF80E490E0E1EBF4E04BCFAA96E3E007
:103910000C945F291F920F920FB60F9211242F93D0
:103920003F934F935F936F937F938F939F93AF9347
:10393000BF93CF93DF93EF93FF93C091E900CF70D4
:103940008091EC00D82FD17080FDD0E81092E90072
:103950008091F000877F8093F00078940E94C819CE
:103960001092E9008091F00088608093F000CD2BE8
:10397000CF70C093E900FF91EF91DF91CF91BF919C
:10398000AF919F918F917F916F915F914F913F91F7
:103990002F910F900FBE0F901F901895E8EDF0E05B
:1039A00080818E7F80831092E2001092DA00109264
:1039B000E100A0EEB0E08C9181608C9380818F77E4
:1039C000808319BCA7EDB0E08C918E7F8C938081B1
:1039D0008F7E80831092D3020895A0E0B0E0E3EFE1
:1039E000FCE10C943E29C8EDD0E088818F7E88836D
:1039F000E7EDF0E080818160808384E082BF81E038
:103A00008093D30288818E7F888302EE10E0F801D4
:103A100010821092DA0081EEC82ED12CF6011082AD
:103A200088818F77888388818068888388818F7D6B
:103A3000888319BC1092F8021092F9021092F702D2
:103A40001092F60290EEE92EF12CF70180818B7F27
:103A5000808388818160888342E060E080E00E940A
:103A60003818F60180818E7F8083F8018081816023
:103A70008083808188608083F70180818E7F80834E
:103A8000888180618883CDB7DEB7E8E00C945A293D
:103A90001F920F920FB60F9211242F933F934F93C3
:103AA0005F936F937F938F939F93AF93BF93EF93A6
:103AB000FF938091E10082FF09C08091E20082FFC4
:103AC00005C08091E1008B7F8093E1008091DA0056
:103AD00080FF2AC08091D80080FF26C08091DA0044
:103AE0008E7F8093DA008091D90080FF18C080E13A
:103AF00089BD82E189BD09B400FEFDCF81E08093DC
:103B0000F8028091D30281110FC00E94CE1C0E9446
:103B1000ED1C8091E20084608093E20005C019BC36
:103B20001092F8021092D3028091E10080FF17C03A
:103B30008091E20080FF13C08091E2008E7F80932D
:103B4000E2008091E20080618093E2008091D800E1
:103B500080628093D80019BC85E08093F802809140
:103B6000E10084FF30C08091E20084FF2CC080E13E
:103B700089BD82E189BD09B400FEFDCF8091D800E6
:103B80008F7D8093D8008091E1008F7E8093E1004B
:103B90008091E2008F7E8093E2008091E20081605C
:103BA0008093E2008091F902882311F084E007C03D
:103BB0008091E30087FD02C081E001C083E0809333
:103BC000F8028091F8028091E10083FF27C0809184
:103BD000E20083FF23C08091E100877F8093E100B2
:103BE00082E08093F8021092F9028091E1008E7FCA
:103BF0008093E1008091E2008E7F8093E2008091CB
:103C0000E20080618093E20042E060E080E00E9498
:103C100038188091F00088608093F000FF91EF9158
:103C2000BF91AF919F918F917F916F915F914F91D4
:103C30003F912F910F900FBE0F901F9018952091DC
:103C4000E4003091E50095E64091EC00842F81700E
:103C500040FF23C08091E80080FD1DC08091F802E4
:103C6000882399F0853099F08091EB0085FD11C093
:103C70004091E4005091E5002417350729F3915055
:103C800011F09A01E1CF84E0089582E0089583E085
:103C9000089581E0089580E008954091E80042FF92
:103CA000DDCF0895A0E0B0E0E8E5FEE10C943D2909
:103CB0007C010091F7011091F8018091DC01909155
:103CC000DD01082B192BCFE0D0E0CC24C394D12CFC
:103CD000C6010C2E02C0880F991F0A94E2F78023B8
:103CE0009123892B21F4219798F7B12C09C0BC2E80
:103CF000B7018C2F0E94E1130E94FC13019799F3E6
:103D00008B2DCDB7DEB7E9E00C945929CF93DF9323
:103D1000EC010E94521EBE010E94E1130E94FC139E
:103D2000DF91CF910895CF93FC0180819181238110
:103D30003481232B31F09F3F31F491E08F3F19F410
:103D400003C091E001C090E0C92FC17090FD1CC07C
:103D5000808191810E94861E92959F70963079F0A5
:103D600010F4925001C09A50923088F4803F71F064
:103D700018F4883E60F40AC0843F49F407C0883EC6
:103D800028F0813F21F402C0C0E001C0C1E08C2FC7
:103D9000CF910895A1E1B0E0E0EDFEE10C943B2964
:103DA0008C0185E0F801DE011D9601900D928A9547
:103DB000E1F7F801E280909156026091570240913C
:103DC000590250915A024115510531F06F3F31F4BB
:103DD00081E09F3F19F403C081E001C080E0F82F2B
:103DE000F1709F2E80FD03C1F80130812181C380D5
:103DF000D48086E5A82E82E0B82EF0905802F60115
:103E0000E41BF50BFF2009F4CBC080915B02E43684
:103E1000F10508F096C0482F407F09F051C06213A9
:103E200011C093130FC0FE2CE1100CC08F70806185
:103E300080935B02C5010E94A10680915B02F8019C
:103E4000858312C1C114D10431F02F3F31F481E0D8
:103E50003F3F19F403C081E001C080E080FD03C052
:103E600081E08E2502C080E090E0F82FF170FF2EF7
:103E700080FF1CC080918D0240915C0256E0841747
:103E800009F4D0C090E0589FF001599FF00D112423
:103E9000E35AFD4F6181261306C06081631303C09E
:103EA0006281E61203C001968770E9CFFE2CEE20F6
:103EB00009F4DAC080915B02816080935B024DC09F
:103EC00062130AC0931308C0E11006C0F80185838D
:103ED000C8010E94A1066EC0C8010E94931E8823DB
:103EE00051F1EE2041F120915B02822F82958F707B
:103EF00090E0029774F08091560290915702988753
:103F00008F831986DB86CA862C87CE0107960E948E
:103F1000A10686E0F801A6E5B2E001900D928A952F
:103F2000E1F70E9444160AC06217C9F0C8010E9456
:103F3000931E81111EC0C8010E94A106FF24F394A4
:103F400093C0482F407F81F786E592E00E94A1064A
:103F500086E0F50111928A95E9F7F12C85C093135B
:103F6000E5CFE110E3CFF8018583C8010E94A106E7
:103F700038C0EE2001F320915B02822F82958F7072
:103F800090E0029734F280915602909157029A8302
:103F900089831B82DD82CC822E83CE010196B7CF2E
:103FA000E436F105F0F4FE2CEE2029F262130BC08A
:103FB000931309C086E0F801A6E5B2E001900D92E6
:103FC0008A95E1F751C0C8010E94931E8111A1CFCB
:103FD00080915B02816080935B02C8010E94A10610
:103FE00043C086E0F50111928A95E9F73DC0EE20C5
:103FF00009F4A1CFC8010E94931EF82E882309F46A
:104000009ACF86E0F801A6E5B2E001900D928A957C
:10401000E1F780915602909157020E94861E0E94FD
:10402000441622C03D872E878D859E850E94861E60
:10403000292F22952F70223028F49F7039F081119A
:1040400005C00BC0243028F49F7049F4805E88308E
:1040500020F0C8010E94A1069F2CF92C05C0F80190
:104060009581907F99F7F9CF8F2D6196EBE00C94B5
:104070005729983078F5863068F5E82FF0E086E02B
:10408000989FE00DF11D11249E2F977083E0F69507
:10409000E7958A95E1F7EE0FFF1FEE0FFF1FE35F35
:1040A000FA4F40E050E080E0219130E0092E02C05C
:1040B000369527950A94E2F721703327042E01C024
:1040C000220F0A94EAF7822B4F5F5F4F443051056D
:1040D00059F7089580E00895983088F5863078F58E
:1040E000E82FF0E086E0989FE00DF11D11248E2F5F
:1040F000877051E001C0550F8A95EAF783E0F69585
:10410000E7958A95E1F7EE0FFF1FEE0FFF1FE35FC4
:10411000FA4F20E030E070E04081CB01022E02C077
:10412000969587950A94E2F7817081958427852377
:10413000842781932F5F3F4F2430310569F708951D
:104140009093F8018093F701089521E030E002C0D8
:10415000220F331F8A95E2F7209530958091F70161
:104160009091F801822393230E94A020089521E0DA
:1041700030E002C0220F331F8A95E2F78091F701E9
:104180009091F801822B932B0E94A0200895909388
:10419000DD018093DC0108951092380580912A0199
:1041A000882331F08091D10287FF02C08EE101C0E7
:1041B00086E0E8E3F2E0DF011D928A95E9F780E00E
:1041C00090E00E94232480E090E00E94FE23109261
:1041D00039050E94B115ECE2F5E086E0DF011D92A1
:1041E0008A95E9F710922505109226051092270569
:1041F0000E9404260895882341F080959091390506
:104200008923809339050E94B1150895882339F0D8
:1042100090913905892B809339050E94B115089535
:10422000882321F00E94AA150E94B11508958823C1
:1042300039F090913805892B809338050E94B1158B
:104240000895662309F45CC08D3C21F40E94502639
:10425000819504C08E3C29F40E94502680932F053E
:10426000C5C08F3C21F40E945026819504C0803D3A
:1042700029F40E94502680932E05B8C0893D19F478
:104280000E942E2605C08A3D31F40E942E2681957B
:1042900080933005ABC08B3D21F40E942E26819582
:1042A00004C08C3D29F40E942E26809331059EC0C7
:1042B0009FE2980F983078F421E030E0A90102C025
:1042C000440F551F9A95E2F7CA0190912D05892B4D
:1042D00080932D058BC08D3D21F480912705816051
:1042E0000CC08E3D21F480912705826006C08F3D71
:1042F00009F07CC08091270584608093270576C0F3
:104300008D3C39F490912F0597FF35C010922F0501
:1043100059C08E3C29F490912F051916BCF32BC07F
:1043200090912E058F3C29F497FF25C010922E0501
:1043300049C0803D19F41916CCF31DC09091300589
:10434000893D29F41916BCF4109230053BC08A3D12
:1043500019F497FF10C0F8CF8B3D39F490913105D7
:1043600097FF09C0109231052DC08C3D21F490912A
:1043700031051916BCF39FE2980F983080F421E0C4
:1043800030E0A90102C0440F551F9A95E2F7CA0117
:10439000809590912D05892380932D0513C08D3D27
:1043A00021F4809127058E7F0BC08E3D21F48091F2
:1043B00027058D7F05C08F3D29F4809127058B7FD0
:1043C0008093270580912E05811106C080912F05CD
:1043D000811102C01092250580913005811106C01F
:1043E00080913105811102C0109226050E94042699
:1043F0000895882399F19CEF980F913A30F4682F33
:1044000086E392E00E94A1230DC090E2980F9830BD
:1044100060F4877091E001C0990F8A95EAF7892FBF
:104420000E94AA150E94B11508959BE5980F93303C
:1044300028F480E090E00E942324089598E5980FE6
:10444000993128F480E090E00E94FE23089593E3E0
:10445000980F933118F460E00E9421210895CF93C2
:10446000882309F472C0C82F8CEF8C0F813AC0F5F5
:1044700080912A018823E1F08091D10287FF18C042
:10448000EC2FE695E695E695F0E0EA5CFD4F82813B
:10449000282F30E04C2F477081E090E002C0880F59
:1044A000991F4A95E2F782239323892B61F412C066
:1044B000E8E3F2E08EE392E02191C21721F08E173B
:1044C0009F07D1F707C06C2F86E392E00E94A123DB
:1044D0000E94B1156C2F86E392E00E94C92310C0A0
:1044E00080E28C0F883078F4C77081E090E001C0E2
:1044F000880FCA95EAF790913805892B8093380583
:104500000E94B11522C0EBE5EC0FE33040F4F0E07F
:10451000E357FE4F808190E00E94232416C0E8E517
:10452000EC0FE93150F4F0E0EE0FFF1FE057FE4FC3
:10453000808191810E94FE2308C083E38C0F833128
:1045400020F461E08C2F0E942121CF9108951F93C8
:10455000CF93DF93182F893319F0C0E0D0E002C069
:10456000C0E5D0E0812F0E942F22209741F08FE9F3
:104570009FE00197F1F700C000002197F6CF812F4F
:104580000E94F921DF91CF911F9108958091D5026A
:1045900008950F931F93CF93DF938B01EA019091BE
:1045A000F802943079F58F708093E9008FEF909145
:1045B000E800815095FD06C095ED9A95F1F7000051
:1045C0008111F5CF8091E80085FF1CC00E941F1E5D
:1045D000882361F08091E8008E778093E80012C014
:1045E000F80181918F018093F1002197209791F339
:1045F0008091E80085FDF4CF8091E8008E7780936C
:10460000E800E4CFDF91CF911F910F91089581E0F1
:104610008093E00080E28093D8001092C9008FE17F
:104620009EE40197F1F700C0000087E090EBDC0109
:1046300080936C0590936D05A0936E05B0936F0504
:104640009CE088E10FB6F894A895809360000FBEB7
:1046500090936000FFCF78941F920F920FB60F9245
:1046600011248F939F93AF93BF938091680590918E
:104670006905A0916A05B0916B050196A11DB11D58
:104680008093680590936905A0936A05B0936B05C4
:10469000BF91AF919F918F910F900FBE0F901F9080
:1046A00018959C014FB7F894809168059091690521
:1046B000A0916A05B0916B054FBF821B930B0895C3
:1046C0002FB7F894609168057091690580916A052B
:1046D00090916B052FBF08952FB7F89480916805CE
:1046E00090916905A0916A05B0916B052FBF08955F
:1046F0001F920F920FB60F9211248F939F93AF9337
:10470000BF9380916705811113C0809168059091D6
:104710006905A0916A05B0916B054196A11DB11D77
:104720008093680590936905A0936A05B0936B0523
:10473000BF91AF919F918F910F900FBE0F901F90DF
:10474000189520912A012223C9F02091D10227FF38
:1047500015C0262F2695269526952E31C8F4FC01E6
:10476000E20FF11D677081E090E001C0880F6A954B
:10477000EAF780959281892382830895FC01069649
:104780002281621301C012823196E817F907C1F73E
:10479000089520912A012223C1F02091D10227FF00
:1047A00014C0262F2695269526952E3130F5FC012E
:1047B000E20FF11D677081E090E001C0880F6A95FB
:1047C000EAF79281892B82830895FC0132962FEFBC
:1047D00030E04191641789F02F3F19F4411101C075
:1047E000232F3F5F3630A9F72F3F39F0FC01E20F4E
:1047F000F11D27FDFA95628308950895A3E0B0E0C6
:10480000E4E0F4E20C9444292091650530916605BA
:1048100028173907A1F09093660580936505E0910C
:104820006305F0916405309751F024E029839B8360
:104830008A830680F781E02DCE01019609952396A3
:10484000E2E00C946029A3E0B0E0E9E2F4E20C9429
:104850004429209161053091620528173907A1F09C
:104860009093620580936105E0916305F091640582
:10487000309751F023E029839B838A830680F78158
:10488000E02DCE01019609952396E2E00C94602973
:104890000E943D13882359F0E0916305F09164056F
:1048A000309729F00190F081E02D0995089580E07E
:1048B00008950F931F93CF93DF93C42FD22FFC0142
:1048C00082818823B1F0409360050E946C2390930D
:1048D0005F0580935E0580E28C0F883008F04DC044
:1048E000C77081E001C0880FCA95EAF70E941721BE
:1048F00044C080916005481330C080915E0590915E
:104900005F050E9451238436910538F510E21D0F92
:10491000CD17B9F080E28C0F883040F4C77081E089
:1049200001C0880FCA95EAF70E941021183010F5CF
:1049300081E09D2F977001C0880F9A95EAF70E9439
:104940001721802F0E94A7221830B8F4D77081E079
:1049500001C0880FDA95EAF70AC080E28C0F883030
:1049600060F4C77081E001C0880FCA95EAF70E9421
:10497000102103C0802F0E94A722DF91CF911F91A9
:104980000F91089580912D01877F80932D01909143
:1049900039059D7F9093390584FF08C08F7E8093F1
:1049A0002D018091380582608093380580912D011A
:1049B00085FF08C08F7D80932D018091380580622E
:1049C000809338050E94B1150895A0E0B0E0EBEEA9
:1049D000F4E20C943F298C01EB0180912D0182FFC0
:1049E00086C0E0905C05F0905D05E016F10621F0D0
:1049F0000115110509F07BC080912D018B7F8093FB
:104A00002D0181FD11C080915A0590915B05AE0189
:104A1000481B590B81E020912B0130912C0142174A
:104A2000530718F480E001C081E08170D82E809196
:104A30002D01D0FA81F980932D0187011127F8010A
:104A400084E0F695E7958A95E1F797012F70332773
:104A5000EE0FFF1FE65CFA4F81E090E002C0880F86
:104A6000991F2A95E2F7DD2029F020813181822BE0
:104A7000932B06C0809590952081318182239323CA
:104A8000918380838091380581FF08C080912D013A
:104A9000806180932D0182E00E94AA1580913805E3
:104AA00085FF08C080912D01806280932D0180E2F6
:104AB0000E94AA15DD2029F080913905826080933B
:104AC0003905C70190528115904308F47801C70158
:104AD0000E94870680915C0590915D059C01305293
:104AE0002115304308F499270E946D0612C0C801B1
:104AF00090528115904318F4C801992701C0C8014C
:104B00000E946D0680915C0590915D05081719075C
:104B100011F40E94C224D0935B05C0935A05CDB70F
:104B2000DEB7E7E00C945B2980913705909136055C
:104B3000882389F0992369F062E070E084EA9AE0C2
:104B40000E948A19892B19F08091360508951092D8
:104B500036059091360581E08927089580913705C3
:104B60008823F9F00E946023DC01CB01805A954133
:104B7000AF4FBF4F8093320590933305A093340518
:104B8000B09335058091360581110BC062E070E06D
:104B900082EA9AE00E948A19892B19F481E08093B5
:104BA0003605809136050895CF93E82F20910B05A7
:104BB00030910C052550334040910203642F70E082
:104BC000C9010E942029481B842FEE2351F066E082
:104BD0000E94B629C82FC150A8F080E20E94FD189B
:104BE000FACFA901480F511D4115524018F080E03D
:104BF00020E030E0280F311D2B5F3C4F30930C0537
:104C000020930B05CF9108950E946C2320912E05CF
:104C1000211104C020912F05222321F090932B0510
:104C200080932A0520913005211104C0209131057F
:104C3000222321F09093290580932805E0916305B4
:104C4000F0916405309749F082E080932C05048050
:104C5000F581E02D8CE295E0099508958091270576
:104C600080FD16C081FD16C082FD18C0809126050A
:104C7000882391F0883290F428E0829FC0011124AB
:104C800068E270E00E94C229862F672B29F007C0D6
:104C900082E0089584E0089581E0089588E0089511
:104CA0008091270580FD14C081FD14C082FD16C0CF
:104CB00080912505882381F08E3180F420E5829F44
:104CC000C00111246EE170E00E94C229862F089570
:104CD00084E1089588E2089588E0089580E50895C4
:104CE0001092B9008CE08093B8000895A0E0B0E085
:104CF000ECE7F6E20C943B29B82EEB010E946C2302
:104D00006C01C431D10558F0CF3F8FEFD80759F06F
:104D1000CE0164E170E00E9420297B0107C0EE24EF
:104D2000E394F12C03C025E0E22EF12C84E8A82EB8
:104D300094EA992E1092BC009092BC000E946C23C1
:104D40008C018091BC0087FD07C0C8010E945123DF
:104D5000E816F906B0F729C08091B900887F88303D
:104D600041F08091B900887F803119F00FEF1FEF7B
:104D70001EC0B092BB00A092BC000E946C238C01AC
:104D80008091BC0087FD07C0C8010E945123E8162E
:104D9000F906B0F70AC08091B900887F883111F018
:104DA000803421F700E010E00EC00EEF1FEFCF3F80
:104DB0008FEFD80709F4BECFC6010E945123C81750
:104DC000D90708F0B7CFC801CDB7DEB7EBE00C9438
:104DD00057290F931F93CF93DF93EB018093BB0071
:104DE00084E88093BC000E946C238C018091BC00FD
:104DF00087FD0DC0CF3F8FEFD807C1F3C8010E94D8
:104E00005123C817D90790F78EEF9FEF0CC0209160
:104E1000B900287F81E090E0283211F480E090E032
:104E2000919581959109DF91CF911F910F910895EF
:104E3000A0E0B0E0EEE1F7E20C943E296B018A01BC
:104E40007901B9010E947626E6010C0D1D1DC017DF
:104E5000D10741F424E92093BC00CDB7DEB7E8E0E8
:104E60000C945A2997FDF6CFB70189910E94E92643
:104E7000EECFA0E0B0E0EFE3F7E20C943E29C62FBE
:104E80006A017901B8010E94762697FD11C0B80128
:104E90008C2F0E94E926E601EC0CFD1CCE15DF05E7
:104EA00039F097FD05C0B80189910E94E926F6CF37
:104EB00024E92093BC00CDB7DEB7E8E00C945A2972
:104EC00084E98093BC0008958EE14A9B02C0815022
:104ED000E1F74A9BFECF08955A9880E28A95F1F750
:104EE0005A9A0895FC012AE02A95F1F728E090E00B
:104EF00080E031E040E14A95F1F7880F4A9B02C01B
:104F00008160932700C0000040E14A95F1F72150ED
:104F100089F720E12A95F1F729B100C0000030E1BE
:104F20003A95F1F722FB222720F992272081920F50
:104F300090830895A1E0B0E0E0EAF7E20C94402904
:104F400019828C017C01E60EF11C0E151F0551F033
:104F50000E946427CE0101960E947227F801819376
:104F60008F01F3CF81E09981911180E02196E6E0F5
:104F70000C945C29529A5A9A089552985A9AEA9A2D
:104F8000E9E6F0E080818F7C80830895615091E0B4
:104F900001C0990F6A95EAF720E031E0992361F0AA
:104FA000492F482319F05A9A232701C05A9840E202
:104FB0004A95F1F79695F2CF222311F05A9A01C043
:104FC0005A9880E28A95F1F75A980895FF920F93C4
:104FD0001F93CF93DF93EC018C01060F111DC017B7
:104FE000D10741F0F9900E946C2768E08F2D0E9454
:104FF000C627F5CFCDB7DEB7E5E00C945D291F924B
:105000000F920FB60F9211240F931F932F933F937C
:105010004F935F936F937F938F939F93AF93BF93C0
:10502000EF93FF93CF93DF931F92CDB7DEB7198233
:105030000E946427CE0101960E947227082F0695D0
:1050400006950695902F96959570202F2570920FB6
:10505000292F237096959695920F877089135FC0BC
:10506000898181115CC0043008F059C080E18A95C3
:10507000F1F75A9A529A82E08A95F1F700C05A984D
:1050800088E0089F80011124D801AE5EBE4F1696BD
:10509000ED91FC9117973097A9F06091C201709142
:1050A000C30114962D913C911597260F371F119629
:1050B0008D919C911297680F791F13964C911397BD
:1050C0008C910995F801EE5EFE4F6381662351F0E5
:1050D0008091C2019091C30124813581820F931F79
:1050E0000E94E6270E946C2780E18A95F1F75A9882
:1050F00052985A9A80E18A95F1F7F801EE5EFE4FD8
:105100006081662351F08091C2019091C301218199
:105110003281820F931F0E949A270E9464270F906A
:10512000DF91CF91FF91EF91BF91AF919F918F91BF
:105130007F916F915F914F913F912F911F910F91AF
:105140000F900FBE0F901F9018950F931F93CF9342
:10515000DF93843091050CF06DC0EC01F894529A05
:105160005A9885E08A95F1F700009C2F96959570E6
:105170002C2F2570920F892F83709695969523E09A
:10518000CC0FDD1F2A95E1F7980F8E01092B0E94A5
:105190006C2784E08A95F1F700C068E0802F0E94B8
:1051A000C62780E18A95F1F752985A9A4A9902C027
:1051B00000C0FCCF87E090E04A9B08C0019721F433
:1051C000529A5A9A789436C000C0F6CFFE01EE5E2D
:1051D000FE4F6381662381F08091C2019091C301EB
:1051E00024813581820F931F0E949A27811104C068
:1051F000529A5A9A78941FC00E94642780E28A9536
:10520000F1F75A98529A80E18A95F1F7CE5EDE4F17
:105210006881662351F08091C2019091C301298178
:105220003A81820F931F0E94E6270E946C27789490
:1052300081E001C080E0DF91CF911F910F9108952F
:10524000AA1BBB1B51E107C0AA1FBB1FA617B707AC
:1052500010F0A61BB70B881F991F5A95A9F78095C8
:105260009095BC01CD0108952F923F924F925F928D
:105270006F927F928F929F92AF92BF92CF92DF9266
:10528000EF92FF920F931F93CF93DF93CDB7DEB7CB
:10529000CA1BDB0B0FB6F894DEBF0FBECDBF09945F
:1052A0002A88398848885F846E847D848C849B84B6
:1052B000AA84B984C884DF80EE80FD800C811B81C4
:1052C000AA81B981CE0FD11D0FB6F894DEBF0FBEF3
:1052D000CDBFED010895FB01DC0102C005900D92E8
:1052E00041505040D8F70895F999FECF92BD81BD45
:1052F000F89A992780B50895A8E1B0E042E050E01F
:105300000C94A829262FF999FECF92BD81BDF89A59
:10531000019700B4021639F01FBA20BD0FB6F894F9
:10532000FA9AF99A0FBE08950396272F0E948329AF
:105330000E948229252F0E948329242F0C948329DF
:105340000196272F0E9483290C948229DC01CB012E
:10535000FC01F999FECF06C0F2BDE1BDF89A319685
:1053600000B40D9241505040B8F70895991B79E070
:1053700004C0991F961708F0961B881F7A95C9F7E5
:105380008095089597FB072E16F4009407D077FDBB
:1053900009D00E94202907FC05D03EF49095819504
:1053A0009F4F0895709561957F4F0895A1E21A2E41
:1053B000AA1BBB1BFD010DC0AA1FBB1FEE1FFF1FB9
:1053C000A217B307E407F50720F0A21BB30BE40B09
:1053D000F50B661F771F881F991F1A9469F7609550
:1053E0007095809590959B01AC01BD01CF0108950A
:1053F000EE0FFF1F0590F491E02D0994FB01DC01F5
:1054000004C08D910190801921F441505040C8F79B
:10541000881B990B0895FB01DC0102C001900D92DD
:1054200041505040D8F70895AEE0B0E0EAE1FAE22A
:105430000C9442290D891E898F89988D26E02C8332
:105440001A83098397FF02C080E090E801979E834A
:105450008D83AE01455E5F4F698D7A8DCE010196D9
:105460000E94442A4D815E8157FD0AC02F813885F4
:10547000421753070CF49A01F801E20FF31F108250
:105480002E96E4E00C945E29ABE0B0E0EAE4FAE2A8
:105490000C9434296C017B018A01FC01178216826D
:1054A000838181FFCCC1CE0101963C01F60193813D
:1054B000F70193FD859193FF81917F01882309F482
:1054C000BAC1853239F493FD859193FF81917F01B3
:1054D000853229F4B60190E00E943B2CE7CF912C55
:1054E000212C312CFFE1F315D8F08B3279F038F410
:1054F000803279F08332A1F4232D20611DC08D32DA
:1055000061F0803369F4232D216016C0832D826001
:10551000382EE32DE4603E2E2AC0F32DF8601DC026
:1055200037FC2DC020ED280F2A3040F08E32B9F420
:1055300036FC81C1232D2064322E19C036FE06C0F0
:105540008AE0989E200D1124922E11C0EAE02E9E32
:10555000200D1124222EF32DF0623F2E08C08C3630
:1055600021F4832D8068382E02C0883641F4F7017B
:1055700093FD859193FF81917F018111B3CF982F86
:105580009F7D9554933028F40C5F1F4F9FE39983C0
:105590000DC0833631F0833771F0833509F059C07F
:1055A00021C0F801808189830E5F1F4F8824839476
:1055B000912C530113C02801F2E04F0E511CF80149
:1055C000A080B18036FE03C0692D70E002C06FEF8D
:1055D0007FEFC5010E94302C4C018201F32DFF7733
:1055E0003F2E16C0280122E0420E511CF801A08077
:1055F000B18036FE03C0692D70E002C06FEF7FEF0F
:10560000C5010E94252C4C01F32DF0683F2E82012C
:1056100033FC1BC0822D90E088169906B0F4B601C9
:1056200080E290E00E943B2C2A94F4CFF50137FCF5
:10563000859137FE81915F01B60190E00E943B2C7D
:1056400021102A9421E0821A91088114910471F7A3
:10565000E8C0843611F0893641F5F80137FE07C0FD
:1056600060817181828193810C5F1F4F08C06081CE
:105670007181072E000C880B990B0E5F1F4FF32DC5
:10568000FF763F2E97FF09C09095809570956195A4
:105690007F4F8F4F9F4FF0683F2E2AE030E0A301ED
:1056A0000E94772C882E861845C0853731F4232D2B
:1056B0002F7EB22E2AE030E025C0932D997FB92E9F
:1056C0008F36C1F018F4883579F0B5C0803719F0FD
:1056D000883721F0B0C0E92FE061BE2EB4FE0DC0C6
:1056E000FB2DF460BF2E09C034FE0AC0292F2660AE
:1056F000B22E06C028E030E005C020E130E002C054
:1057000020E132E0F801B7FE07C06081718182813B
:1057100093810C5F1F4F06C06081718180E090E033
:105720000E5F1F4FA3010E94772C882E8618FB2D39
:10573000FF773F2E36FE0DC0232D2E7FA22E89141B
:1057400058F434FE0BC032FC09C0832D8E7EA82E87
:1057500005C0B82CA32C03C0B82C01C0B92CA4FEE2
:105760000FC0FE01E80DF11D8081803321F49A2DD8
:10577000997EA92E09C0A2FE06C0B394B39404C0BA
:105780008A2D867809F0B394A3FC11C0A0FE06C050
:10579000B21488F4280C922C9B180EC0B21460F43A
:1057A000B60180E290E00E943B2CB394F7CFB21494
:1057B00018F42B1802C0982C212CA4FE10C0B6019E
:1057C00080E390E00E943B2CA2FE17C0A1FC03C026
:1057D00088E790E002C088E590E0B6010CC08A2D11
:1057E000867859F0A1FE02C08BE201C080E2A7FCDE
:1057F0008DE2B60190E00E943B2C891438F4B6018A
:1058000080E390E00E943B2C9A94F7CF8A94F301B6
:10581000E80DF11D8081B60190E00E943B2C8110C3
:10582000F5CF222009F442CEB60180E290E00E943A
:105830003B2C2A94F6CFF6018681978102C08FEF28
:105840009FEF2B96E2E10C945029FC0105906150EA
:1058500070400110D8F7809590958E0F9F1F089586
:10586000FC016150704001900110D8F7809590952F
:105870008E0F9F1F08950F931F93CF93DF93FB010C
:10588000238121FD03C08FEF9FEF2CC022FF16C0A4
:1058900046815781248135814217530744F4A08102
:1058A000B1819D012F5F3F4F318320838C932681EF
:1058B00037812F5F3F4F3783268314C08B01EC0164
:1058C000FB010084F185E02D0995892BE1F6D801D3
:1058D00016968D919C911797019617969C938E938F
:1058E0001697CE01DF91CF911F910F910895FA0184
:1058F000AA27283051F1203181F1E8946F936E7F0F
:105900006E5F7F4F8F4F9F4FAF4FB1E03ED0B4E0FF
:105910003CD0670F781F891F9A1FA11D680F791F40
:105920008A1F911DA11D6A0F711D811D911DA11D51
:1059300020D009F468943F912AE0269F1124301961
:10594000305D3193DEF6CF010895462F4770405DFC
:105950004193B3E00FD0C9F7F6CF462F4F70405DAB
:105960004A3318F0495D31FD4052419302D0A9F706
:10597000EACFB4E0A6959795879577956795BA9500
:10598000C9F700976105710508959B01AC010A2EC6
:1059900006945795479537952795BA95C9F7620F9D
:0E59A000731F841F951FA01D0895F894FFCF5C
:1059AE00FF0001C622D918D218CB180021007F2281
:1059BE0000030000000100000000000000040100D0
:1059CE000000040500000000000001AF0001256486
:1059DE007825642C206B253264203A202563002024
:1059EE002020206162636465666768696A6B6C6D0E
:1059FE006E6F707172737475767778797A3132331F
:105A0E0034353637383930524542545F2D3D5B5D63
:105A1E005C233B27602C2E2F202020946697C6F403
:105A2E00F5F6F7313300081018181008008182833C
:105A3E00E200E900EA00B500B600B700CD00830130
:105A4E00CC008A0192019401210223022402250234
:105A5E00260227022A02B300B4006F0070009F01D5
:045A6E00CB01C302A3
:00000001FF
