:100000000C94DF050C94FC050C94FC050C94072F54
:100010000C94FC050C94FC050C94FC050C94FC055C
:100020000C94FC050C94FC050C94CE240C94102428
:100030000C94671E0C94FC050C94FC050C94FC05B8
:100040000C94FC050C94FC050C94FC050C94FC052C
:100050000C94FC050C941A1E0C94FC050C94FC05E5
:100060000C94FC050C94FC050C94FC050C94FC050C
:100070000C94FC050C94FC050C94FC050C94FC05FC
:100080000C94FC050C94FC050C94FC050C94FC05EC
:100090000C94FC050C94FC050C94FC050C94FC05DC
:1000A0000C94FC050C94FC050C94FC056E0A6E0A7D
:1000B000A00AA00A120B2E0BC50CC50C390B170C8D
:1000C000280C280CE210F210E510F210E810F210E3
:1000D000F210F210EB10F210EB10F210EB10F21025
:1000E000EB102F225622EE235622EE239E22C1220F
:1000F000EE23B023C32300DA0281FFD9F1DB20A471
:10010000A62EAF00A0C000A1C800AED580A81FD306
:1001100000408D1420001E0F0500047F3F1F643235
:1001200014643214783C1E1E140A0541646A757307
:1001300074005261697365004C6F776572004465A5
:100140006661756C74004C617965723A200080813B
:1001500082838485868788898A8B8C8D8E8F909107
:10016000929394A0A1A2A3A4A5A6A7A8A9AAABAC68
:10017000ADAEAFB0B1B2B3B4C0C1C2C3C4C5C6C7DF
:10018000C8C9CACBCCCDCECFD0D1D2D3D4002B00CE
:1001900014001A00080015001700E0000400160003
:1001A000070009000A00E1001D001B0006001900FD
:1001B0000500000000000000E30001512C002A00AF
:1001C000130012000C0018001C00340033000F0054
:1001D0000E000D000B00290038003700360010001B
:1001E0001100000000000000E600025128002B0072
:1001F0001E001F00200021002200E000000000007F
:10020000000000000000E10000000000000000000D
:100210000000000000000000E30001002C002A00A4
:1002200027002600250024002300000000004F00C6
:1002300052005100500000000000000000000000CB
:100240000000000000000000E600035128002B0021
:100250001E021F02200221022202E0000000000014
:10026000000000000000E1000000000000000000AD
:100270000000000000000000E30003512C002A00F1
:100280002702260225022402230235003100300015
:100290002F002E002D003502310230022F022E02D7
:1002A0002D02000000000000E60001002800005CB4
:1002B00000000000000000000000C35CC65CC85CD9
:1002C000CA5C00000000C45CC75CC95CCB5C000079
:1002D0000000000000000000E30001002C0000000E
:1002E000000000000000000000000000000000000E
:1002F00000000000000000000000000000000000FE
:100300000000000000000000E60001002800222399
:10031000252628292A2C2D2F3032333536383A3BE2
:100320003D3E4042434547494A4C4E505153555734
:10033000595A5C5E6062646668696B6D6F71737553
:1003400077797B7D7F81838587898A8C8E90929453
:1003500096989A9C9E9FA1A3A5A7A8AAACAEAFB160
:10036000B3B4B6B8B9BBBCBEBFC1C2C3C5C6C7C9AA
:10037000CACBCCCDCED0D1D2D2D3D4D5D6D7D7D864
:10038000D9D9DADADBDBDBDCDCDCDCDCDDDDDDDDB6
:10039000DCDCDCDCDCDBDBDBDADAD9D9D8D7D7D6BE
:1003A000D5D4D3D2D2D1D0CECDCCCBCAC9C7C6C575
:1003B000C3C2C1BFBEBCBBB9B8B6B4B3B1AFAEACBB
:1003C000AAA8A7A5A3A19F9E9C9A98969492908E66
:1003D0008C8A89878583817F7D7B79777573716F3F
:1003E0006D6B6968666462605E5C5A59575553511B
:1003F000504E4C4A4947454342403E3D3B3A3836D1
:10040000353332302F2D2C2A29282625232200AFE0
:1004100000AE05010902A10185020901A10005093B
:1004200019012908150025019508750181020501AA
:10043000093009311581257F950275088106093833
:100440001581257F950175088106050C0A3802156E
:1004500081257F950175088106C0C005010980A12D
:1004600001850319012AB700150126B7009501750A
:10047000108100C0050C0901A101850419012AA001
:1004800002150126A002950175108100C005010921
:1004900006A1018506050719E029E7150025019544
:1004A00008750181020507190029EF15002501953E
:1004B000F07501810205081901290595057501915D
:1004C00002950175039101C005010906A101050707
:1004D00019E029E7150025019508750181029501AC
:1004E000750881010507190029FF150026FF0095F1
:1004F0000675088100050819012905950575019102
:1005000002950175039101C009023B00020100A0A0
:10051000FA09040000010301010009211101000191
:1005200022400007058103080001090401000103BE
:1005300000000009211101000122B6000705820315
:1005400020000112010002000000085346010001D2
:1005500000010200010C0343006F0072006E006591
:10056000000000100366006F006F007300740061EC
:10057000006E000000040309040000000000003EBB
:100580005B4F5B3E003E6B4F6B3E001C3E7C3E1C57
:1005900000183C7E3C18001C577D571C001C5E7FD9
:1005A0005E1C0000183C180000FFE7C3E7FF0000D6
:1005B0001824180000FFE7DBE7FF0030483A060E7A
:1005C00000262979292600407F05050700407F0580
:1005D000253F005A3CE73C5A007F3E1C1C0800089F
:1005E0001C1C3E7F0014227F2214005F5F005F5FAF
:1005F0000006097F017F00006689956A00606060DF
:1006000060600094A2FFA2940008047E0408001019
:10061000207E20100008082A1C0800081C2A080850
:10062000001E10101010000C1E0C1E0C0030383E66
:10063000383000060E3E0E060000000000000000EC
:10064000005F000000000700070000147F147F1403
:1006500000242A7F2A1200231308646200364956B8
:10066000205000000807030000001C224100000089
:1006700041221C00002A1C7F1C2A0008083E080892
:1006800000008070300000080808080800000060C2
:100690006000002010080402003E5149453E000061
:1006A000427F4000007249494946002141494D338B
:1006B000001814127F10002745454539003C4A496F
:1006C00049310041211109070036494949360046A0
:1006D0004949291E000000140000000040340000B9
:1006E00000000814224100141414141400004122C4
:1006F0001408000201590906003E415D594E007C74
:100700001211127C007F49494936003E4141412285
:10071000007F4141413E007F49494941007F09092D
:100720000901003E41415173007F0808087F000025
:10073000417F4100002040413F01007F08142241D9
:10074000007F40404040007F021C027F007F040881
:10075000107F003E4141413E007F09090906003EED
:100760004151215E007F0919294600264949493235
:100770000003017F0103003F4040403F001F204035
:10078000201F003F4038403F0063140814630003FB
:1007900004780403006159494D4300007F41414101
:1007A00000020408102000004141417F00040201C2
:1007B00002040040404040400000030708000020C1
:1007C00054547840007F2844443800384444442836
:1007D00000384444287F0038545454180000087EE0
:1007E0000902001824241C78007F08040478000003
:1007F000447D4000002040403D00007F1028440020
:100800000000417F4000007C04780478007C0804EC
:100810000478003844444438007C18242418001814
:100820002424187C007C08040408004854545424F0
:100830000004043F4424003C4040207C001C204035
:10084000201C003C4030403C004428102844004C10
:100850009090907C004464544C4400000836410061
:10086000000000770000000041360800000201028D
:100870000402003C2623263C00000000000000008B
:10088000000000000000000000C0E0F0F8F81800D0
:10089000C0F0FCFEFFFFFFFFFFFFFF7E0000000037
:1008A000000000000080C0E0E0E0E0E0E0E0E0C048
:1008B000800000000080C0E0E0E0E0E0E0E0E0C0B8
:1008C00080000000E0E0C0C0E0E0E0E00000E0E028
:1008D000C0C0E0E0E0E0E0C0800000000080C0E0D8
:1008E000E0E0E0E0E0E0E0C08000000000000000A8
:1008F00000000000000000E0F0F0F0E0ECEEF7F3A4
:100900007020007C7C7C7E007E7E7E7F7F7F00006E
:1009100080C0E07E5B4F5BFEC00000C000DCD7DE25
:10092000DEDED7DC00C00000000000000000000098
:1009300000000000000000000000000000000000B7
:100940000000F8FCFEFFE000FFFFFFFFFFFF80FF5D
:10095000FFFFFFFFFFFFFFFF1F0701000000000078
:1009600000000000FFFFFF8100000000000081C3C5
:10097000C3C30000FFFFFF8100000000000081FFF3
:10098000FFFF0000FFFFFF01000000000000FFFF6D
:10099000FF010000000001FFFFFF0000FFFFFF9DBF
:1009A0001C1C1C1C1C1C9DDFDFDF00000000000065
:1009B000000000000000000F1F3F7F7F7F7F7F3F10
:1009C0001E0C001F1F1F3F003F3F3F7F7F7F0030F7
:1009D0007B7F7830202030787F3B0003000F7F0F33
:1009E0000F0F7F0F00030000000000000000000058
:1009F00000000000000000000000000000000000F7
:100A00000000030F1F3F3F3F3F1F1F3F3F7F7F7F80
:100A10003F3F1F3F7F7F7F7F7C7878381C0F00002F
:100A20000000000000010307070707070707070387
:100A30000100000000010307070707070707070376
:100A40000100000007070700000000000000070782
:100A5000070000000000000707070000000103076F
:100A60000707070707070703010000000000000051
:100A70000000000000000000000000000000000076
:100A80000000000000000000000000000000000066
:100A90000000000000000000000000000000000056
:100AA0000000000000000000000000000000000046
:100AB0000000000000000000000001010101010130
:100AC0000101010202020202020202020303030305
:100AD00003030303040404040404040505050505D5
:100AE0000606060606070707070708080808090993
:100AF00009090A0A0A0B0B0B0C0C0C0D0D0D0E0E3E
:100B00000E0F0F0F101011111112121313141415D0
:100B10001516161717181819191A1A1B1B1C1D1D44
:100B20001E1E1F202021222223242425262627289A
:100B300029292A2B2C2D2D2E2F30313232333435CA
:100B4000363738393A3B3C3D3E3F404142434445CD
:100B5000464748494A4C4D4E4F50515354555658AC
:100B6000595A5B5D5E5F616264656668696B6C6D56
:100B70006F7072737577787A7B7D7E8082838587CC
:100B8000888A8C8E8F91939596989A9C9EA0A2A30A
:100B9000A5A7A9ABADAFB1B3B5B7BABCBEC0C2C40F
:100BA000C6C9CBCDCFD1D4D6D8DBDDDFE2E4E7E9CF
:100BB000EBEEF0F3F5F8FAFDFFFFAA7F55401124A4
:100BC0001FBECFEFDAE0DEBFCDBF12E0A0E0B1E0A4
:100BD000E8E5F9E602C005900D92AA30B107D9F711
:100BE00027E0AAE0B2E001C01D92AD35B207E1F7FF
:100BF0000E94AB0D0C94AA340C9400000E94822930
:100C00002FEF84E39CE0215080409040E1F700C04A
:100C100000009AE088E10FB6F894A89580936000F0
:100C20000FBE90936000FFCF882321F00E94A5257E
:100C30000E94AC250895882339F090914F07892BA5
:100C400080934F070E94AC250895882391F19CEF73
:100C5000980F913A30F4682F87EB96E00E94901E2F
:100C60000DC090E2980F983060F4877091E001C059
:100C7000990F8A95EAF7892F0E94A5250E94AC2535
:100C800008959BE5980F933028F480E090E00E944F
:100C9000031F089598E5980F973128F480E090E0BD
:100CA0000E94ED1E08958D3E20F00E94E22B0E94CE
:100CB000F62C0895CF93882309F471C0C82F8CEFC8
:100CC0008C0F813AC0F580914B018823E1F080912F
:100CD000780487FF18C0EC2FE695E695E695F0E0DE
:100CE000E954F94F8281282F30E04C2F477081E082
:100CF00090E002C0880F991F4A95E2F78223932360
:100D0000892B61F412C0E9EBF6E08FEB96E02191BC
:100D1000C21721F08E179F07D1F707C06C2F87EB02
:100D200096E00E94901E0E94AC256C2F87EB96E007
:100D30000E94B81E10C080E28C0F883078F4C77013
:100D400081E090E001C0880FCA95EAF790914F07C3
:100D5000892B80934F070E94AC2521C0EBE5EC0F57
:100D6000E33040F4F0E0E555FE4F808190E00E94D2
:100D7000031F15C0E8E5EC0FE73150F4F0E0EE0F8B
:100D8000FF1FE255FE4F808191810E94ED1E07C03A
:100D9000CD3E28F08C2F0E949B2C0E94F62CCF91E8
:100DA0000895A7E1B0E0E7EDF6E00C944B304B8BF3
:100DB0005C8B6D8B7E8B8F8B611110924E0786E062
:100DC0009E01235F3F4FD901E82F1D92EA95E9F775
:100DD00095E0FE017396D90101900D929A95E1F785
:100DE0009C894E895F897B897D879E876F87598B18
:100DF000488BF901DE01179601900D928A95E1F773
:100E0000CE0107960E94F92681113EC086E0FE01C0
:100E10003796DE01119601900D928A95E1F7FF81D8
:100E2000E8856A857B856115710531F0EF3F31F406
:100E300081E0FF3F19F403C081E001C080E080FD44
:100E400023C02091FB0630E0C901019687709927E5
:100E500040912C0750E08417950779F1F983EA83D4
:100E60007D836C8396E0929FD001939FB00D1124F7
:100E7000A450B94FFE01319601900D929A95E1F779
:100E80008093FB060E941D2616E080912C0790910E
:100E9000FB068917F9F0189FC00111248450994F5F
:100EA0000E94F9268823B1F080912C0790E00196EA
:100EB0008770992780932C07E8CF0E94822910928F
:100EC000FB0610922C07E5EFF6E086E0DF011D92AD
:100ED0008A95E9F76796E3E00C946730AAE0B0E002
:100EE000E4E7F7E00C944230FC018081918123819A
:100EF0003481232B31F09F3F31F491E08F3F19F47F
:100F000003C091E001C090E090FD21C67F0185E023
:100F1000DE01169601900D928A95E1F7F701228184
:100F20008E819F81222349F00E949026182F682FDE
:100F30008E819F810E94B52803C00E948028182FAF
:100F40006E817F81812F0E945B158C01F701828168
:100F50008823A1F1C80190568115F0E29F0720F087
:100F6000905E8115904118F4C801992701C0C8010D
:100F70008C33910528F4FC01E35AFE4F208101C017
:100F800020E21F922F939F938F93F70180811F92EE
:100F90008F9381811F928F938CE491E09F938F9325
:100FA0001F9288E18F9384E392E09F938F930E9436
:100FB000E9310FB6F894DEBF0FBECDBF043F3CE56C
:100FC000130759F190F4093D9CE51907E9F00A3D32
:100FD000ECE51E07A1F1083DFCE51F07B1F506E2AF
:100FE00021EE41EE68ED7CE514C0063F2CE51207CA
:100FF00001F1C8F0073F8CE5180739F507E225EE47
:1010000046EE67EF7CE505C007E225EE45EE69EDAB
:101010007CE5C7010E942A1F03C206E221EE40EED2
:1010200064EF7CE5F6CF07E225EE44EE65EF7CE564
:10103000F0CF06E221EE42EE66EF7CE5EACF08E271
:1010400021E045EE6AED7CE5E4CFF701828188235B
:1010500009F45EC110926C040430FDE51F0758F4DA
:101060000B3F2CE5120780F4C80182509C45449741
:1010700008F038C109C002363DE5130729F0063AE9
:101080008DE5180709F02EC10E940E179093790480
:101090008093780401319CE5190709F4C9C008F070
:1010A00043C00930FCE51F0709F49EC008F5053070
:1010B0003CE5130709F488C080F403309CE5190768
:1010C00009F47BC008F07DC00230FCE51F0709F081
:1010D000F9C0809178048160F3C007302CE51207D5
:1010E00009F47AC008F07CC0809178048061E8C07F
:1010F0000D308CE5180709F489C058F40B30ECE585
:101100001E0709F47BC008F07DC0809178048860D8
:1011100071C00F302CE5120709F482C008F084C0BA
:1011200080917804877FCCC00E3F8CE5180709F4C6
:1011300073C008F50531ECE51E0709F487C068F4B3
:1011400003312CE5120709F477C008F097C00E941C
:101150008229809178048F77B3C00C3F8CE5180703
:10116000B9F108F056C00B3FECE51E0709F0AAC024
:101170008091790441C00230FDE51F0709F48AC05F
:1011800058F401153DE5130709F45BC008F06AC087
:1011900080917904826030C002369DE5190709F418
:1011A0007FC0063AEDE51E0709F484C00330FDE573
:1011B0001F0709F087C060E06EC0809178048260EC
:1011C0007FC08091780416C080917804886078C0D0
:1011D0008091790482604FC080917804806270C0F1
:1011E0008091780480646CC00E9482298091780488
:1011F000806866C0846064C081603DC0809178046E
:101200008E7F5EC0809178048D7F5AC08091780473
:1012100016C08091790418C0809179048D7F2BC00D
:10122000809178048F7E4CC0809178048F7D48C077
:10123000809178048F7B44C080917804877F8B7F76
:101240003FC0809179048D7F8E7F15C08091780496
:1012500082FB222720F991E0922790FB82F990FBF4
:1012600083F92EC080917904982F909591708E7F8C
:10127000892B90FB81F98093790424C00E948229F4
:101280008091780487FB222720F991E0922790FB38
:1012900087F916C061E08EE090E00E94EC3012C049
:1012A0008091780484FB222720F991E0922790FB1B
:1012B00084F906C080917804982F909590FB80F96E
:1012C00080937804609178041091790484E090E030
:1012D0000E94EC30612F82E290E00E94EC300E948C
:1012E00082299EC00631FCE51F0721F580914F073A
:1012F0008A7A91E009F490E090930C02882311F02F
:1013000065E301C069E287EB96E00E94B81E0FC05A
:101310000631FCE51F0709F044C080910C028823C8
:1013200009F461C365E387EB96E00E94901E0E947A
:10133000AC2576C00B353DE5130769F158F401156E
:101340009CE5190781F00F3D1C4509F07BC00E9408
:101350001F1717C00D35FDE51F07A9F0F0F0083A7B
:101360001D4579F06FC00E9482298FEF94E3ECE075
:1013700081509040E040E1F700C000000E94091E4B
:101380004FC00E94FE058091790482FB882780F976
:1013900091E0892703C081E001C080E00E943929E3
:1013A00051C080914F0782720D3C2CE5120709F461
:1013B000ADC308F04DC3073C9CE5190709F492C37F
:1013C00008F022C3043CFCE51F0709F481C308F0C0
:1013D0000CC3033C3CE51307A9F580915F0480FF33
:1013E00071C38E7F80935F0460915F04709160048D
:1013F00080916104909162040E94192A0E94372012
:101400008091AB0281608093AB020FEF10E722E086
:10141000015010402040E1F700C000000E949829D0
:1014200080912D07877009F492C3F7018281882388
:1014300009F48DC38091790482FF89C382E00E9400
:101440001C2985C3F701828100811181882349F01D
:10145000C8010E949026D82E682FC8010E94B52886
:1014600004C0C8010E948028D82EB8018D2D0E948A
:101470005B150E9474158C01982EF701D280A5800F
:10148000A2949FE0A92280912D078770B9F0DD20FA
:10149000A9F0812F807F803421F080E2800F883096
:1014A00068F08091790482FF09C082E00E941C29C3
:1014B00080912D078770CC24C3948111C12CB12E4B
:1014C000B2948FE0B8228B2D90E08C30910508F01B
:1014D0005CC2FC01EA5AFF4F0C94B131812F807F2E
:1014E0001F70882311F01295107FDD20B9F01123B1
:1014F00009F438C280E2800F883010F0911006C0E5
:1015000080914F07182B10934F0705C080914E070D
:10151000182B10934E070E94AC2524C2802F0E94E6
:101520002506112309F431C2005E083078F19920B4
:1015300069F1109580914E07182310934E0729C02A
:10154000812F807F1F70803211F01295107F9920BB
:1015500021F0F1E09F16D9F149C08091790482FD14
:101560001BC0DD2069F0112339F080914F07182B43
:1015700010934F070E94AC2580E00E945A0605C2D6
:1015800080E00E942506112309F4FFC1812F0E94EB
:10159000A5250E94AC25F9C1DD2081F08091710262
:1015A000AA2051F001E0A01207C0182B181709F467
:1015B000ECC110937102E9C1812B10C0AA2021F067
:1015C00021E0A21609F4E1C10E948B1727C0DD209B
:1015D00041F035E03A1508F4D8C1812F0E941B066E
:1015E000D4C184E08A1508F4D0C118C0DD2049F0C8
:1015F000AA2099F3F701858180FFB4C18F7085839C
:10160000ECCFAA2059F0093309F0BCC1FFEF17EE67
:1016100023E0F15010402040E1F7B2C1812F0E9439
:101620001406B3C1812F86958695837019F0813099
:1016300059F0ABC1DD2019F0C801937002C080E001
:1016400090E00E94031FA7C1DD2019F0C80193702C
:1016500002C080E090E00E94ED1E9DC1802FDD2041
:1016600019F00E949B2C02C00E94E22B0E94F62CD3
:1016700092C1812F837009F069C0D1108AC1902F67
:10168000929596959770990F990F802F8F70882E4D
:10169000912CA12CB12C092E04C0880C991CAA1CD9
:1016A000BB1C0A94D2F704FF12C04FE050E060E088
:1016B00070E004C0440F551F661F771F9A95D2F73C
:1016C000DB01CA0180959095A095B09503C080E09C
:1016D00090E0DC0116951695412F4370423019F1C8
:1016E000C8F400917202109173022091740230913B
:1016F0007502413059F088299929AA29BB29BC01D2
:10170000CD0160237123822393230AC0802A912A6A
:10171000A22AB32ABC01CD01682979298A299B29EB
:101720000E94772936C188299929AA29BB290091C5
:101730007202109173022091740230917502BC0103
:10174000CD016027712782279327EACFDD2019F08A
:10175000812F817001C08695882309F41AC1902FCA
:10176000929596959770990F990F802F8F70882E6C
:10177000912CA12CB12C092E04C0880C991CAA1CF8
:10178000BB1C0A94D2F704FF12C04FE050E060E0A7
:1017900070E004C0440F551F661F771F9A95D2F75B
:1017A000DB01CA0180959095A095B09503C080E0BB
:1017B00090E0DC0116951695412F43704230D9F028
:1017C00068F500913002109131022091320230917F
:1017D0003302413059F088299929AA29BB29BC0133
:1017E000CD0160237123822393231EC0802A912A76
:1017F000A22AB32A13C088299929AA29BB290091B2
:101800003002109131022091320230913302BC013A
:10181000CD01602771278227932706C0BC01CD0127
:10182000682979298A299B290E94EB28B2C01F7058
:10183000DD2039F0812F0E945529802F0E941B0640
:10184000A8C0802F0E941406812F0E94F628A1C0F4
:10185000802F32EF931609F443C0391538F090EF1A
:10186000991659F0E1EF9E16B1F177C0F3EF9F168C
:10187000F1F124EF921659F170C0DD2019F134E036
:101880003A1508F482C01F7181E090E0A0E0B0E05A
:10189000AC01BD0104C0440F551F661F771F1A9588
:1018A000D2F78091300290913102A0913202B09132
:1018B00033028A019B01082719272A273B27C901E0
:1018C000B80129C025E02A1508F45FC0DCCF80915B
:1018D000790482FD23C0DD2029F0812F8F7130C073
:1018E000DD20D9F3812F8F710E94F6284EC0DD20B4
:1018F00079F01F7181E090E0A0E0B0E0BC01CD0183
:1019000004C0660F771F881F991F1A95D2F703C06E
:1019100060E070E0CB010E94EB2837C0DD2099F039
:101920001F71812F0E9455298091790482FF07C081
:1019300038E0139FC0011124836080932D07812F0D
:101940000E94552922C081E00E941C2981E08A154D
:10195000E0F482E00E941C2918C0DD2029F0AA20B2
:1019600009F4BBCF802F09CEAA2009F4BBCF89335D
:1019700049F49FEFE7EEF3E09150E040F040E1F7EB
:1019800000C00000802F0E94250688EF8B0D843058
:1019900010F40E94191FCC20A9F080912D0780FD22
:1019A00011C0F70112828595859585950E9455296C
:1019B000C7010E946E0780912D07859585958595B5
:1019C0000E94F62885E0F701DE01119601900D9244
:1019D0008A95E1F709811A81C8010E948028B8011F
:1019E0000E945B15B4C069E29ECC053C9CE51907DA
:1019F00009F473C0063CECE51E0709F023CD46EB65
:101A00005BE260EC7BE286C00A3CFCE51F0709F460
:101A100073C078F4083C3CE5130709F468C0093C3E
:101A20009CE5190709F00ECD49EA5BE26CE97BE21F
:101A300071C00B3CECE51E0709F463C00C3CFCE5EF
:101A40001F0709F0FFCC4CE25AE26EE37AE262C073
:101A5000023D2CE5120709F469C0A0F40F3C8CE5A7
:101A6000180709F45DC008F458C0003DECE51E07F6
:101A700009F459C0013DFCE51F0709F0E3CC6EE015
:101A800089E062C0053D2CE5120709F455C068F4F1
:101A9000033D8CE5180709F44CC0043D9CE519078B
:101AA00009F0D0CC61E088E14CC0063DECE51E07B2
:101AB00009F445C00E35FDE51F0709F0C3CC6AE205
:101AC00085E242C0816080935F0461E0869539C001
:101AD00040E65DE26AE67DE21DC04AE65DE260E660
:101AE0007DE218C040EC5BE266EB7BE213C04CE9A0
:101AF0005BE269EA7BE20EC042E85BE26FE87BE210
:101B000009C04FE85BE262E87BE204C04EE35AE2C0
:101B10006CE27AE20E94302083CC61E081E011C067
:101B200065E082E011C068E086E00EC064E18FE00D
:101B30000BC067E185E108C062E289E105C061E0B0
:101B400083E20E94202D6CCC0E941C2069CC2A9636
:101B5000ECE00C945E30A2E1B0E0E1EBFDE00C942F
:101B60003C3085B7806885BF85B7806885BF84B7FE
:101B7000877F84BF0FB6F894A89580916000886134
:101B800080936000109260000FBE90E080E80FB676
:101B9000F89480936100909361000FBE8CE293E112
:101BA00090930B0280930A020E9454240E94732493
:101BB0008091E20084608093E20078948091A20496
:101BC0008823A1F01091E9001F709091EC00892FFB
:101BD000817090FD80E8182B1092E9008091E80058
:101BE00083FD0E944E211F701093E90082E084BDA6
:101BF00093E095BD9AEF97BD80936E0010920D0211
:101C000010920E0210920F02109210020E94B21453
:101C10008093040180910401882321F010924601F1
:101C20008BE103C08BE180934601809347010E94C2
:101C3000B21481110E94C22E80910401809104018E
:101C4000811102C094E001C090E090931A0284E0F8
:101C5000891B8093190209E911E08DE9E82E81E0E2
:101C6000F82ED8018D918D018F3F11F00E944415FF
:101C7000E016F106B1F70DE911E0B3EAEB2EB1E0A1
:101C8000FB2EF80181918F018F3F11F00E944415C6
:101C9000E016F106B1F788E0ECE1F2E0DF01282F71
:101CA0001D922A95E9F7E1E1F2E0DF011D928A95A4
:101CB000E9F780E090E00E94E630883E9E4F11F008
:101CC0000E941F1782E090E00E94D8308093240287
:101CD0000E940E1790937904809378040E949C17B9
:101CE000EFE3FCE93197F1F700C000000E949C1778
:101CF0000E94B214811102C0E4E001C0E0E0F0E013
:101D0000E45EFD4F808181FF08C06FEF7FEF80E0D0
:101D100090E00E940A310E94091E83E090E00E9438
:101D2000D830682F70E080E090E00E9477290E9410
:101D3000B214882311F080E001C082E080936C022D
:101D400080E88093AC040E94752D6DE070E089E01E
:101D500091E00E94E620892B09F043C080916C023B
:101D600063E070E081FD3AC086E091E00E94E620E9
:101D7000892BB9F56DE070E086EF90E00E94E620D7
:101D8000892B79F50E944F1EDC01CB01805A9541C9
:101D9000AF4FBF4F8093640490936504A093660493
:101DA000B0936704EFEAF4E080E092E0DF019C0189
:101DB0001D9221503040E1F7F093B606E093B5064E
:101DC0008FEF9FEF9093AE048093AD0481E08093FA
:101DD00069048093680410926D0203C083E091E06F
:101DE000C5CF80911B0281113BC080E090E00E9432
:101DF000E630883E9E4F21F00E941F170E94502A15
:101E000088E090E00E94E03060935F04709360048B
:101E100080936104909362048091AB02836080930D
:101E2000AB026E7F71F40E94502A88E090E00E941D
:101E3000E03060935F04709360048093610490933A
:101E400062040E94FF290E94372080915F0480FF76
:101E500004C060E086950E94202D81E080931B02E3
:101E60000E94B214811102C00E94C52E85E091E04B
:101E70009093700480936F0422242394312C8091DA
:101E8000A204853009F047C000E112E18091A2046C
:101E9000853009F03CC08091A204843031F10E9469
:101EA000AC1F1092730488E190E0A0E40FB6F894A0
:101EB000A895809360000FBEA093600083B7817FD8
:101EC000846083BF83B7816083BF7894889583B72C
:101ED0008E7F83BF0FB6F894A895809160008861CB
:101EE00080936000109260000FBE8091A10488234F
:101EF00009F4CCCF0E949C17ECE1F2E081918111B2
:101F00008BC324E232E02E173F07C1F7BFCF0E94F8
:101F100082290E94191F0E949C17D82E81110E94AD
:101F20004F1EACE1B2E0E5E2F2E000E010E0B02EDE
:101F3000CD9081918C2549F1E12CFF24F3949F2DC4
:101F40009823F1F00E94B214882399F0EF82B886AA
:101F5000CF2081E009F480E089870E945B1E8160C8
:101F6000782F9B878A874F81588569858B850E944A
:101F7000D106F801EB5DFD4F8081F826F0821AC092
:101F8000E394FF0C36E0E312DACF0F5F1F4F083007
:101F9000110569F68FEF8C878D871E860E945B1E68
:101FA0008160782F988B8F874C855D856E858889B9
:101FB0000E94D1060E94B2148091AA02882309F4DB
:101FC000CFC08091A902E0915F04E695E81BE09301
:101FD000A502823059F4F0E0E95DFE4FE4910E2F46
:101FE00010E0F0E1EF2EFDE1FF2E6BC0863059F4DA
:101FF000F0E0EC5DFE4FE4910E2F10E0E0E0EE2EFD
:10200000EDE1FE2E5EC0893061F4E695F0E0EF5D13
:10201000FE4FE4910E2F10E074ECE72E7BE1F72EDB
:1020200050C08F3061F4E695F0E0E25EFE4FE4913F
:102030000E2F10E068E3E62E6BE1F62E42C08531EC
:1020400059F4F0E0E55EFE4FE4910E2F10E052EB04
:10205000E52E5AE1F52E35C08831F9F0833249F486
:10206000E9E1F1E00591149146ECE42E4CE1F42E07
:1020700028C08432C9F08532F1F48E2F63E00E94CB
:102080008331E92FF0E0EA5EFE4FE4910E2F10E07D
:102090003EEFE32E3BE1F32E14C008E210E02DE208
:1020A000E22E2AE1F22E0DC004EF11E09EEEE92EA1
:1020B00099E1F92E06C000ED17E088E5E82E89E1E8
:1020C000F82E8091A602882361F01092A6020E9449
:1020D00091179093A4028093A3021092A8021092E9
:1020E000A7020E949117E091A302F091A4029C0123
:1020F0002E1B3F0B2F3F3F4798F520912F022223A5
:10210000B1F010922F0220912D0230912E02821BED
:10211000930B8F3F9F4758F4205D3A4830932E022F
:1021200020932D028091AB0288608093AB02A09037
:10213000A702B090A8020E0F1F1F1093A4020093D5
:10214000A30283EA92E0F70109958091A70290919A
:10215000A802892B29F4AB2819F081E080932F0283
:1021600080916904882309F45AC180916E0290918C
:102170006F020E94401EC29708F44DC00E945B1E71
:1021800090936F0280936E028FEA94E09093B6066C
:102190008093B5060E94B2148823C9F186E491E0C9
:1021A0000E94D8208091300290913102A091320299
:1021B000B09133028F309105A8F4FC01EE59FF4F26
:1021C0000C94B1318EE391E008C088E391E005C042
:1021D00082E391E002C08BE291E00E94D82081E08E
:1021E0000E94EC1FE4E3F2E001900020E9F78F0188
:1021F00001501109B4E3EB2EB2E0FB2EE016F1061C
:1022000050F4D7018D917D010E945920F7CF8EE4C3
:1022100091E00E94D82080916904882309F4E4C0E9
:102220002091AD043091AE042115310509F4DCC0D4
:1022300080916D028111D8C0082F10E07101082E25
:1022400002C0EE0CFF1C0A94E2F7A9014E215F21A7
:10225000452B11F48F5FF0CF90916C029801A5E0AF
:10226000220F331FAA95E1F790FD12C08295880FC7
:10227000807680931301220F232F221F330B319579
:1022800020931601815E809314011092170112C0F1
:10229000E5E036952795EA95E1F7220F220F220F08
:1022A0002093130110921601295F2093140183E0FB
:1022B0008093170124E630E047E050E061E171E0EF
:1022C00088E70E94202E892B09F08EC080916C0235
:1022D00080FD22C0A80175E0440F551F7A95E1F7F3
:1022E00041555B4F04E610E020E230E060E488E70F
:1022F0000E94412E892B09F077C00E94C61FE094EE
:10230000F0948091AD049091AE04E822F922F0920D
:10231000AE04E092AD0468C080E2ECE4F2E0DF01DC
:102320001D928A95E9F7A80135E0440F551F3A95AB
:10233000E1F7E7EAF1E0FA8BE98B03EA11E06BEAF7
:10234000462E61E0562EA989BA898D91BA8BA98B48
:10235000F80191918F01BA01690F711D61557B4F91
:1023600090E0845B9D4FFC0127E0922E9F01281B8B
:10237000390B722C01C0770C2A95EAF75B01812C8E
:10238000D501CD905D01C720292D28192770622E17
:10239000022E000C330BBC2D01C0BB0F6A94EAF770
:1023A0006B2E3195219531092770332701C0C694D2
:1023B0002A95EAF76C28C0806C286082839428E014
:1023C0008212DECF9A9431963FEF9312CFCF898954
:1023D0009A894816590609F0B6CF04E610E020E2C3
:1023E00030E04CE452E082CF809168048823B9F059
:1023F0000E944F1E009164041091650420916604B0
:1024000030916704DC01CB01801B910BA20BB30B55
:102410008F3F9F4FAF4FBF4710F40E94AC1FD110AA
:102420000E94C61F86E0E7E5F7E0DE011196019005
:102430000D928A95E1F71092590710925A0710925F
:102440005B0710925C078B81811104C08C8188230B
:1024500009F453C080915507909156070E94401E81
:102460009C0190915107992309F4ECC02531310565
:1024700008F443C09F3F19F09F5F909351071B8161
:10248000112361F00E947B2C111614F09FEF01C004
:1024900091E0899F802D1124809359071C8111237D
:1024A00061F00E947B2C111614F09FEF01C091E0A7
:1024B000899F802D112480935A0730915907332327
:1024C000E1F020915A072223C1F045EB3403C0010B
:1024D0001124992319F09093590703C081E0809348
:1024E000590735EB2303C0011124992319F0909368
:1024F0005A0703C081E080935A078D81811104C07F
:102500008E81882309F453C080915307909154071A
:102510000E94401E9C0190915007992309F497C096
:102520002135310508F443C09F3F19F09F5F909318
:1025300050071D81112361F00E94592C111614F0CF
:102540009FEF01C091E0899F802D112480935B074C
:102550001E81112361F00E94592C111614F09FEF77
:1025600001C091E0899F802D112480935C073091F8
:102570005B073323E1F020915C072223C1F045EB98
:102580003403C0011124992319F090935B0703C011
:1025900081E080935B0735EB2303C001112499236D
:1025A00019F090935C0703C081E080935C0746E0DC
:1025B00050E0BE016F5F7F4F87E597E00E94D33107
:1025C000892BA9F48091590781110FC080915A0776
:1025D00081110BC080915B07811107C081E0909150
:1025E0005C07911103C080E001C081E080FD0E9482
:1025F000F62C86E0FE013196A7E5B7E001900D923A
:102600008A95E1F70E94191F90917002891709F4C9
:1026100036CC8093700233CC09BD19BD09B400FEDD
:10262000FDCF8091D8008F7D8093D8008091E0000D
:1026300082608093E0008091E00081FDFCCF0E94E9
:10264000822924CC2B30310508F016CF56CF2B3001
:10265000310508F06BCFABCF80E0089590917804FE
:1026600092FF0DC0282F2871283019F4877F8460CD
:1026700006C0282F2471243011F48B7F886093FFCB
:102680000DC0282F2871283119F4877E846106C077
:10269000282F2471243111F48B7E886120917904D4
:1026A00020FF0DC0382F3871383019F4877F8160D2
:1026B00006C0382F3171313011F48E7F886021FFD0
:1026C0000DC0282F2871283119F4877E816106C03A
:1026D000282F2171213111F48E7E886194FD877E2F
:1026E0000895A0E0B0E0E7E7F3E10C9444307C010A
:1026F0005B016A018091A2028A3018F001E010E0CB
:1027000002C00AE010E0C1E0D0E0B501C701F60167
:102710000995811115C021960C171D0794F0CC9FC7
:102720009001CD9F300D300D112480E090E045E305
:102730004A95F1F70000019682179307C1F7E5CF9C
:1027400081E0CDB7DEB7EAE00C946030A8E0B0E0FD
:10275000ECEAF3E10C944C3085E0EFE5F4E0DE01C7
:10276000119601900D928A95E1F78091A9029091BE
:10277000AA02A091AB028E839F83A88728854091EF
:102780009E0250919F026091A0027091A1023FB7FA
:10279000F8948091740490917504A0917604B0919E
:1027A00077043FBF841B950BA60BB70B84369105AE
:1027B000A105B10510F4222319F180913101909106
:1027C000320183579D4F4091300150E0493051050F
:1027D00010F048E050E0BE016F5F7F4F0E94E03193
:1027E00083E090E00E94AD2F882369F00E944F1E85
:1027F00060939E0270939F028093A0029093A10227
:102800001092AB0281E02896E2E00C946830EF92DF
:10281000FF921F93CF93DF9300D000D01F92CDB7CC
:10282000DEB77B0180E090E00E94AD2F882309F4A1
:1028300063C040911B0150E04115510511F041E08A
:1028400050E060911C0170911D0163577D4FCE01D6
:1028500005960E94E0314091850250918602609178
:102860008702709188022FB7F89480917404909138
:102870007504A0917604B09177042FBF841B950B4B
:10288000A60BB70B84369105A105B10538F48EE887
:1028900092E00E940D219D81891781F181E090E0F5
:1028A0000E94AD2F182F882391F04091230150E012
:1028B0004530510510F044E050E0609124017091E2
:1028C000250163577D4FCE0101960E94E0318EE8CD
:1028D00092E00E940D2191E02D81281390E01923B0
:1028E00041F10E944F1E609385027093860280938F
:1028F0008702909388020FC010E001C011E0809120
:102900008E0290918F02A0919002B09191028983E2
:102910009A83AB83BC83112361F089819A81AB8157
:10292000BC818093810290938202A0938302B09332
:1029300084028091810290918202A0918302B091E1
:102940008402F70180839183A283B383812F0F9048
:102950000F900F900F900F90DF91CF911F91FF90EC
:10296000EF90089580918002811118C08091D80065
:1029700080618093D8008AE18A95F1F700C0809148
:10298000D90080FD02C082E001C081E08093800216
:10299000823021F40E9454241092A20481E090918C
:1029A0008002913009F080E008950F931F930E94F8
:1029B000B214882319F00E944F1E0EC00E944F1EB1
:1029C00000910D0210910E0220910F023091100221
:1029D000600F711F821F931F1F910F910895A4E034
:1029E000B0E0E5EFF4E10C944C3040918902509155
:1029F0008A0260918B0270918C022FB7F8948091BB
:102A0000740490917504A0917604B09177042FBF5F
:102A1000841B950BA60BB70B84369105A105B10558
:102A200070F10E94D514DC01CB010296A11DB11DED
:102A300089839A83AB83BC838091290190912A0179
:102A400083579D4F4091280150E04530510510F0CB
:102A500044E050E0BE016F5F7F4F0E94E03182E0B2
:102A600090E00E94AD2F882359F00E944F1E609382
:102A7000890270938A0280938B0290938C0281E08A
:102A80002496E2E00C946830F894E82FE295EF7019
:102A9000F0E031A1282F2F7081E090E001C0880F75
:102AA0002A95EAF7982F9095932391A392A1892BC9
:102AB00082A3789408957830A0F4663090F490E37F
:102AC000899FF001112486E0789FE00DF11D11240B
:102AD000E60FF11DEE0FFF1FE257FE4F8591949117
:102AE000089580E090E00895CF93DF9382389105B8
:102AF00069F1B0F48133910509F46FC048F489326B
:102B0000910509F465C08A32910509F46BC08AC049
:102B10008533910509F457C089339105B9F082C016
:102B2000833E910571F138F4803E9105B1F0823E0B
:102B3000910511F177C0863E9105B9F1873E910567
:102B4000C9F1843E910509F06DC024C0209178043C
:102B500020FD53C021FD51C065C08091780480FDE7
:102B600046C08091790480FF48C08091780484FD3C
:102B700050C183EE90E04FC18091780482FF3AC04B
:102B8000F4CF8091780482FD35C08091790480FD76
:102B900034C0EBCF8091790481FF35C080917804F7
:102BA00084FD37C187EE90E036C18091780483FFC1
:102BB00027C0F4CF8091780483FD22C080917904EE
:102BC00081FD21C0EBCF8091780485FD1FC021C01D
:102BD0008091780485FD1DC019C08091780486FD20
:102BE0001BC01DC08091780486FD19C015C089E303
:102BF00090E011C182EE90E00EC180EE90E00BC13A
:102C000086EE90E008C184EE90E005C189E290E094
:102C100002C185E390E0FFC08AE290E0FCC081E35E
:102C200090E0F9C0811531E5930708F069C081157E
:102C300040E59407F0F09C0174E0369527957A956D
:102C4000E1F7922F9370482F437021E030E002C0EB
:102C5000220F331F4A95E2F73C68392B982F9F705B
:102C60009695969540E2949FC0011124822B932B58
:102C7000D2C0883E910568F5803E910508F0CBC032
:102C8000883A9105B8F4853A910548F0855AE82FBD
:102C9000F0E0E555FE4F808190E09064BCC081304B
:102CA000910509F4B3C008F4B4C08430910508F468
:102CB000B0C0B1C08F3B910508F0ABC0885AE82F77
:102CC000F0E0EE0FFF1FE255FE4F8081918194648A
:102CD000A2C0811520E2920758F4811531E09307D4
:102CE00008F099C08D3E910508F493C0906593C09B
:102CF000811540E4940708F48CC09F70906A8BC0E3
:102D0000811525E5920708F042C0811534E5930747
:102D100028F0982F8827846F906A7DC0811543E53D
:102D20009407B0F09C012370332741E050E002C0CB
:102D3000440F551F2A95E2F7282F2695269580E205
:102D4000289F90011124CA01822B932B9A6863C09B
:102D5000811522E5920728F4982F8827816F906AC1
:102D60005AC09C012370332741E050E002C0440F59
:102D7000551F2A95E2F7282F2695269580E2289F51
:102D800090011124CA01822B932B9C6844C0EC0152
:102D9000811539E59307A8F48115984528F09C2FF3
:102DA0008827806F906A37C0C11586E5D80788F5F7
:102DB0008C2F0E942E138F7190E0982F882790629D
:102DC0002AC081152AE5920790F48C2F8F700E94FB
:102DD0002E1394E0D695C7959A95E1F7CF70D0E081
:102DE000DC2FCC27D0699E01282BC90114C0905636
:102DF0008115904270F48D2F8F710E942E13282F11
:102E00002F71CE0199279062922B05C081E090E04E
:102E100002C080E090E0DF91CF910895CF9384E0ED
:102E200090E00E94D830C82F82E290E00E94D83013
:102E30002C2F30E0A901582BCA01CF91089568EEDC
:102E40007EEF80E090E00E940A3160E082E090E056
:102E50000E94EC3060E083E090E00E94EC30109241
:102E6000720210927302109274021092750260E066
:102E700084E090E00E94EC3064E082E290E00E9406
:102E8000EC3060E085E090E00E94EC3060E086E0AD
:102E900090E00E94EC306FEF87E090E00E94EC3011
:102EA00040E050E0BA0188E090E00E94FE3060E02F
:102EB0008DE090E00E94EC3040E050E0BA0188E103
:102EC00090E00E94FE3060E087E190E00E94EC30EC
:102ED00040E050E0BA018CE190E00E94FE3060E0FA
:102EE00070E080E290E00E940A3140E050E0BA01D8
:102EF00088E190E00E94FE3040E050E0BA018FE0AF
:102F000090E00E94FE3040E050E0BA0183E190E0A2
:102F10000E94FE3008958091710281111092710219
:102F200008950E94B214882319F00E945B1E089530
:102F30000E94D514CB010895ACE0B0E0E2EAF7E1DD
:102F40000C944330AE014F5F5F4F7A0188E0DA01A5
:102F50001D928A95E9F709E911E06A01AA24A39470
:102F6000B12CF80180818F3F09F441C0F894E82F1B
:102F7000E295EF70F0E021A18F70A50102C0440F2F
:102F8000551F8A95E2F7CA01922F982B91A392A11F
:102F90008095892382A3789400C0EDE9F1E0912C1B
:102FA00031E021912F3F89F0A22FA295AF70B0E0C0
:102FB00090968C9190E02F7002C0959587952A95F8
:102FC000E2F780FD02C0832F01C080E0982A330F12
:102FD00051E0E33AF50729F7D8018C918F3F11F0C2
:102FE0000E944415B0EABA95F1F7F60190820F5F9E
:102FF0001F4FFFEFCF1ADF0A21E00D39120709F04A
:10300000B0CF48E050E0B70181E192E00E94D331B7
:103010008C01892B41F088E0F701A1E1B2E0019039
:103020000D928A95E1F7F0901A020115110549F009
:1030300081E0809378020E945B1E909377028093D8
:103040007602809178028823B9F08091760290917F
:1030500077020E94401E059778F0A1E1B2E0EF2DC3
:10306000F0E0E45EFD4F85E192E02D9121938A1717
:103070009B07D9F7109278020115110509F00DC1CF
:103080000E94B214E0911A02882309F478C01986CC
:103090001A861B861C860E2F10E0045E1D4F809141
:1030A000A2028A3058F447E054E1BE01675F7F4FC7
:1030B000C8010E9471138823A1F10AC0809179028E
:1030C00090917A020E94401E843F914060F73AC07E
:1030D0004FEE54E1BE01675F7F4FC8010E9471133C
:1030E0008823F9F046EA53E1BE01675F7F4FC801CC
:1030F0000E9471138823A9F01092A20280911902F4
:1031000090E044E050E0BE01675F7F4F845E9D4FDA
:103110000E94D33121E020937F02892B01F500E04A
:103120002CC08091A2028F3F19F08F5F8093A20282
:103130008091A2028A3010F30E945B1E90937A0263
:103140008093790280917F02882349F3FE013996AA
:1031500084E0DF011D928A95E9F710927F02E091E9
:103160001902F0E0E45EFD4F89859A85AB85BC8548
:1031700080839183A283B38301E010E090C0F0E0EC
:10318000E45EFD4F84E0AEE8B2E001900D928A95D6
:10319000E1F78EE892E00E940D2180938D02C090AD
:1031A0009202D0909302E0909402F0909502809168
:1031B0007B0290917C02A0917D02B0917E02C816A4
:1031C000D906EA06FB06D1F0C0927B02D0927C02BF
:1031D000E0927D02F0927E020E94B21481110EC034
:1031E0000E944F1EC61AD70AE80AF90AC0920D02B9
:1031F000D0920E02E0920F02F092100280919D0296
:10320000882309F44CC080FF24C0909196028091DD
:103210005F0490FF09C0816080935F0460E0892FA4
:1032200086950E94202D15C08E7F80935F040E949A
:1032300037208091AB0281608093AB02BFEFE0E763
:10324000F2E0B150E040F040E1F700C000000E9421
:10325000982980919D0281FF09C020E04091990248
:1032600060919802809197020E94F82A80919D02B5
:1032700082FF09C080919C02882319F00E943E20A1
:1032800002C00E94372080919D0283FF03C081E02D
:103290008093A60210929D0202C001E010E0802FF0
:1032A0002C96EBE00C945F30089580917F04089594
:1032B000089580937A0470937C0460937B048091DA
:1032C000A204843001F582E08093E9008FEF9091B1
:1032D000E800815095FD06C095ED9A95F1F7000044
:1032E0008111F5CF8091E80085FF0DC040E050E0EE
:1032F00063E070E08AE794E00E9424218091E80076
:103300008E778093E8000895BC0184E00E945919EB
:103310000895BC0183E00E945919089522E020938A
:10332000E9002FEF3091E800215035FD06C035ED62
:103330003A95F1F700002111F5CF2091E80025FF23
:103340000BC040E050E066E070E00E9424218091D4
:10335000E8008E778093E8000895CF93DF93209163
:103360004B01222339F02091780427FF03C060E24B
:1033700022E002C068E021E02093E9002FEF3091C5
:10338000E800215035FD06C035ED3A95F1F7000013
:103390002111F5CF2091E80025FF1DC0EC0180919F
:1033A0004B01811105C040E050E068E070E003C0CF
:1033B00070E040E050E0CE010E9424218091E800BE
:1033C0008E778093E80080E2FE01A0E8B4E00190EF
:1033D0000D928A95E1F7DF91CF9108950F931F9396
:1033E000CF93DF93EC0100E010E080914A01282F99
:1033F00030E00217130724F5909148019801290F36
:10340000311DA901440F551F240F351F21553D4F74
:10341000869590E04C81081719071CF4442331F07D
:1034200002C0411103C04091620401C040E06091BC
:103430006104809160040E94692A0F5F1F4FD5CFFD
:103440000E9498298C8190E00196817099278C8345
:10345000DF91CF911F910F910895A0E0B0E0E3E3D9
:10346000FAE10C9442308C01FC014481C42FD0E07D
:103470009E01DE010E9474319B01AC010E943F312C
:103480006B017C01E0E2F0E0EC1BFD0BA5E5B0E098
:103490009B01AC010E943F314B015C019F01DF01A8
:1034A0000E94B7319B01AC010E944A319B01AC01E3
:1034B0002C0D3D1D4E1D5F1DC501B4010E945231F2
:1034C000C22FD22F2A3228F4F3E02F9F900111242B
:1034D0000DC025E530E02C1B3109C901880F991F6B
:1034E000280F391F37FF02C02F5F3F4F35952795B3
:1034F000C22FC095F12C85E5E82EED1A80914A0186
:10350000F816C8F4F1FC02C08E2D01C08D2F9091E9
:1035100048012F2D30E0290F311DA901440F551FFF
:10352000240F351F21553D4F4C2F609161040E949F
:10353000692AF394E3CF0E949829F80184818111CC
:1035400002C091E003C0803219F49FEF90934501CF
:1035500090914501890FF8018483CDB7DEB7ECE087
:103560000C945E301F93CF93DF93EC018C8181111B
:1035700009C081E08C831092AD0292E090934401E7
:10358000809343018091480190914901891770F41B
:10359000E82FF0E09F01220F331FE20FF31FE155E8
:1035A000FD4F1182108212828F5FF0CF10E0609188
:1035B0004A011617C0F5E12FF0E070E0CF010E943C
:1035C0009D3120914801820F2091AD02022E000C06
:1035D000330B90E0E217F307CCF020914401022E68
:1035E000000C330B2E173F078CF09C01220F331F6A
:1035F000820F931F9C0121553D4F409162046091C1
:103600006104809160040E94692A0BC0FC01EE0FE6
:10361000FF1F8E0F9F1FFC01E155FD4F118210828D
:1036200012821F5FC4CF0E9498298091430120918C
:10363000AD02280F2093AD0290914401980F909312
:10364000440119165CF4022E000C330B40914A0120
:1036500050E0415051092417350734F0819580938B
:103660004301813009F41C82DF91CF911F910895AD
:10367000A0E0B0E0EEE3FBE10C944130EC018A8184
:1036800080FF03C0BB24BA9402C0BB24B3948C81D6
:1036900081110DC081E0B81206C080914A018150AD
:1036A0008093AC0202C01092AC0281E08C83A12C0A
:1036B00046E3842E90904A01A91408F041C08091FD
:1036C0004801CA2CD12C8601080F111DC801880F92
:1036D000991F080F191F01551D4FF8011182108203
:1036E000128234E0E32EF12C712C8091AC02870D14
:1036F00087332CF0682D0E948F31892F02C087FDFF
:10370000890D082E000C990BC816D90691F48091EA
:1037100062048E9DA0018F9D500D112455954795F3
:1037200055954795980160916104809160040E94CD
:10373000692A7B0CF1E0EF1AF108B9F6A394BACF2D
:103740000E9498298091AC0291E0B9120EC08111BB
:1037500007C080914A0181508093AC021C820FC047
:1037600081508093AC02BC820AC090E001966091C7
:103770004A0170E00E949D318093AC028C83CDB7EA
:10378000DEB7EDE00C945D30FF920F931F93CF9363
:10379000DF93EC01F12C0FEF10E060914A01F61677
:1037A000F0F4809148012F2D30E0280F311DC90120
:1037B000880F991F280F391F21553D4F70E0C80110
:1037C0000E949D31962F8C8140916204609161042A
:1037D000F99E800D11240E94692AF394DECF0E9485
:1037E00098299A818C8190FF02C08F5F01C081501F
:1037F0008C83CDB7DEB7E5E00C946530A0E0B0E097
:10380000E4E0FCE10C944130FC018280748081E0B2
:103810008483EEE0F3E09490EDE8F3E0E491A12CF2
:10382000F5E0BF2ECC24CA94D12CE9190E2F10E05C
:1038300080914A01A81608F0A2C0EA2CF12C22E0DF
:10384000281568F0BE9CF001BF9CF00D1124EF5AC2
:10385000FC4F8091600480838091610481837110AA
:103860000AC0BE9CF001BF9CF00D1124EF5AFC4F22
:10387000138212826AC0BE9CE001BF9CD00D11244D
:10388000CF5ADC4F8B818823F9F081508B832FEF47
:10389000829FC00111246C8170E00E942830FB01DE
:1038A000FF27E25FFC4F8491E82FE9192FEFE29F99
:1038B000C0011124B8010E94283080916204689FE1
:1038C000B00111247A8341C00E94BF30209162046C
:1038D0002695215830E0A901440F551F322F222789
:1038E000240F351F232F33278217930774F582E0A7
:1038F000881588F40E94BF30B6010E949D318883EC
:103900000E94BF30209161042695622F70E00E94D2
:103910009D31280F2983BE9CF001BF9CF00D11241E
:10392000EF5AFC4F128280916204843120F0893C6E
:1039300018F088EC01C084E1BE9CF001BF9CF00D42
:103940001124EF5AFC4F84838383809148019701AF
:10395000280F311DC901880F991F280F391F2155C4
:103960003D4FBE9CF001BF9CF00D1124EF5AFC4F5F
:103970004281618180810E94692AA39459CF0E946B
:103980009829CDB7DEB7EDE00C945D30A3E0B0E050
:10399000ECECFCE10C944A308C018091AE02811178
:1039A0000AC09E012F5F3F4F48E76FEF0E94692AD0
:1039B0008A818093AE02F8018481813051F028F031
:1039C000823061F44091AE020AC08091AE0240E0C4
:1039D00007C06091AE0240E080E003C040E080E0BC
:1039E00060E00E94E429F801848190E0019663E0A0
:1039F00070E00E949D3184832396E4E00C9466304D
:103A0000CF93DF93EC01EFE5F4E0438162818C8199
:103A10000E94CA2B8C818F5F8C83DF91CF91089598
:103A2000CF93DF93EC01EC81F0E0E25FFC4F449137
:103A3000EFE5F4E0628181810E94CA2B8C818F5F67
:103A40008C83DF91CF9108952091E4003091E500BF
:103A500095E64091EC00842F817040FF23C0809157
:103A6000E80080FD1DC08091A204882399F0853074
:103A700099F08091EB0085FD11C04091E4005091D8
:103A8000E5002417350729F3915011F09A01E1CF91
:103A900084E0089582E0089583E0089581E0089528
:103AA00080E008954091E80042FFDDCF08958091C5
:103AB000A40487FF11C08091E80082FD05C08091B9
:103AC000A2048111F8CF11C08091E8008B770BC060
:103AD0008091A204882349F08091E80080FFF8CF0C
:103AE0008091E8008E778093E8000895982F9730B2
:103AF00068F59093E900981739F07091EC002091E7
:103B0000ED005091F00003C0242F762F50E021FDEE
:103B100002C09F5FECCF3091EB003E7F3093EB0013
:103B20003091ED003D7F3093ED003091EB0031603E
:103B30003093EB007093EC002093ED005093F00075
:103B40002091EE0027FDE5CF80E008958F708093EF
:103B5000E90081E008952091AA043091AB04261772
:103B6000370748F06115710539F42091E8002E7788
:103B70002093E80001C0B901FC0120E06115710546
:103B800079F18091A2048823F1F18530F1F18091DF
:103B9000E80083FD3CC08091E80082FD2EC080914A
:103BA000E80080FFEBCF2091F3008091F20090E0DD
:103BB000922B6115710551F08830910538F42191EF
:103BC0002093F100615071090196F3CF21E008972D
:103BD00009F020E08091E8008E778093E800CECF56
:103BE0002111CFCF0AC08091A204882361F08530D3
:103BF00061F08091E80083FD0AC08091E80082FFB7
:103C0000F2CF80E0089582E0089583E0089581E096
:103C1000089587E797E790930108809300089AE05A
:103C200088E10FB6F894A895809360000FBE90933A
:103C30006000FFCF78941F920F920FB60F9211245D
:103C40008F939F93AF93BF93809174049091750469
:103C5000A0917604B09177040196A11DB11D8093C7
:103C6000740490937504A0937604B0937704BF9185
:103C7000AF919F918F910F900FBE0F901F9018954D
:103C80009C014FB7F8948091740490917504A091B1
:103C90007604B09177044FBF821B930B08952FB722
:103CA000F8946091740470917504809176049091F9
:103CB00077042FBF08952FB7F894809174049091E2
:103CC0007504A0917604B09177042FBF08951F92D8
:103CD0000F920FB60F9211248F939F93AF93BF93C0
:103CE00080917304811113C08091740490917504C4
:103CF000A0917604B09177044196A11DB11D8093E7
:103D0000740490937504A0937604B0937704BF91E4
:103D1000AF919F918F910F900FBE0F901F901895AC
:103D200020914B012223C9F02091780427FF15C070
:103D3000262F2695269526952E31C8F4FC01E20FF4
:103D4000F11D677081E090E001C0880F6A95EAF785
:103D500080959281892382830895FC0106962281B1
:103D6000621301C012823196E817F907C1F708956E
:103D700020914B012223C1F02091780427FF14C029
:103D8000262F2695269526952E3130F5FC01E20F3B
:103D9000F11D677081E090E001C0880F6A95EAF735
:103DA0009281892B82830895FC0132962FEF30E0B7
:103DB0004191641789F02F3F19F4411101C0232F5D
:103DC0003F5F3630A9F72F3F39F0FC01E20FF11DBC
:103DD00027FDFA956283089508952091710430912A
:103DE00072042817390771F090937204809371045C
:103DF000E0916F04F0917004309721F00084F18518
:103E0000E02D0995089520916D0430916E042817D6
:103E1000390771F090936E0480936D04E0916F0404
:103E2000F0917004309721F00680F781E02D09951C
:103E300008950E94B214882359F0E0916F04F09124
:103E40007004309729F00190F081E02D09950895D4
:103E500080E00895EF92FF920F93CF93DF93C42FEA
:103E6000D22FFC0182818823B1F040936C040E9420
:103E70005B1E90936B0480936A0480E28C0F883001
:103E800008F064C0C77081E001C0880FCA95EAF7E6
:103E90000E941B065BC080916C0448134BC080914C
:103EA0006A0490916B040E94401E883C910508F0C2
:103EB00041C0CD17C9F080E28C0F883040F4C77044
:103EC00081E001C0880FCA95EAF70E94140680E2DB
:103ED0008D0F883048F481E09D2F977001C0880FC6
:103EE0009A95EAF70E941B06093319F0E12CF12C90
:103EF00003C080E5E82EF12C802F0E945A06E114C1
:103F0000F10451F08FE99FE00197F1F700C0000044
:103F100091E0E91AF108F3CF802F0E94250680E294
:103F20008D0F883098F4D77081E001C0880FDA9542
:103F3000EAF70AC080E28C0F883040F4C77081E055
:103F400001C0880FCA95EAF70E941406DF91CF914D
:103F50000F91FF90EF90089580916904909168040B
:103F6000882389F0992369F062E070E080E194E0B1
:103F70000E94E620892B19F0809168040895109220
:103F800068049091680481E089270895809169040C
:103F90008823F9F00E944F1EDC01CB01805A954125
:103FA000AF4FBF4F8093640490936504A093660461
:103FB000B09367048091680481110BC062E070E0E7
:103FC0008EE094E00E94E620892B19F481E0809332
:103FD0006804809168040895CF93E82F2091B50676
:103FE0003091B6062F5A34404091AC04642F70E0F3
:103FF000C9010E942830481B842FEE2351F066E04F
:104000000E948331C82FC150A8F080E20E9459203D
:10401000FACFA901480F511D4115524018F080E018
:1040200020E030E0280F311D21553B4F3093B6067C
:104030002093B506CF91089590915F0490FF04C03E
:104040009695981748F003C0811106C090E0961726
:1040500018F40E946A2D089561E00E94202D0895B1
:10406000882311F0FA0101C0FB0109950895E9EADE
:10407000F2E01182828184608283089560915F04FE
:10408000669570E04BE050E088E391E00E94C63115
:10409000892B19F481E08093AA020E9491179093D2
:1040A000A4028093A3028091AB0284608093AB0250
:1040B0000895CF93DF93682F8A3011F481E003C015
:1040C0008D3021F480E00E94EC1F6FC08091B50616
:1040D0009091B60626E0FC01AFEAB6E001900D92A1
:1040E0002A95E1F7603E30F026E0FC0111922A9516
:1040F000E9F70AC0F6E06F9FB001112467587A4FC4
:1041000046E050E00E94CF30C091B506D091B6068F
:1041100046E050E0BE018FEA96E00E94D331892B41
:1041200049F19E012F5A3440A90185E056954795E3
:104130008A95E1F781E090E0BC0102C0660F771F2D
:104140004A95E2F74091AD045091AE04462B572BAF
:104150002B5F3F4F65E0369527956A95E1F702C0E2
:10416000880F991F2A95E2F7842B952B9093AE0424
:104170008093AD049E01295A34404091AC04642FD1
:1041800070E0C9010E942830481B463010F4240F0B
:10419000311D211582E0380710F020E030E0215574
:1041A0003B4F3093B6062093B506DF91CF9108952B
:1041B000CF93DF93EC01FE018491882321F00E94CC
:1041C00059202196F8CFDF91CF910895EF92FF9279
:1041D0000F931F93CF93DF93EC017B0164E670E0B4
:1041E00088E70E947B2D8C01EC0EFD1ECE15DF05AD
:1041F00061F017FD0AC0FE01849164E670E00E9440
:10420000F02D8C012196892B89F30E94682EC8011C
:10421000CDB7DEB7E6E00C946430FC01AC014C5F36
:104220005F4F8FEF91E32191822728E030E087FFF5
:1042300003C0880F892701C0880F21503109B9F7C1
:10424000E417F50781F70895EF92FF920F931F93FC
:10425000CF93DF937C018B010E94241D811119C033
:10426000E70101151105A1F08091E80085FD0AC064
:104270008091E8008E778093E8000E94241D8823B7
:1042800081F307C089918093F10001501109E9CFB2
:1042900080E0CDB7DEB7E6E00C946430AAE2B0E08F
:1042A000E4E5F1E20C944B30E4EAF4E08CEA94E0CB
:1042B0002091F10021938E179F07D1F78091A504DB
:1042C000833009F461C030F4813071F0823009F438
:1042D0009BC0B2C08A3009F487C08B3009F46CC02F
:1042E000893009F0A9C020C08091A404813A09F066
:1042F000A3C08091E800877F8093E8008091A804A4
:104300009091A904892B21F460E280E894E003C035
:1043100060E080E090E070E00E94AB1D8091E800DA
:104320008B778093E80088C08091A404813209F0E3
:1043300083C08091A8049091A904029708F07CC0E2
:104340008091E800877F8093E8008091E80082FDFB
:1043500005C08091A2048111F8CF6EC02091F300B6
:104360008091F20090E0922B029731F48091F1005D
:10437000813011F0863021F48091F10080937F0428
:104380008091E8008B7754C08091A404813A09F0B1
:1043900053C08091A8049091A904892B09F04CC0C6
:1043A0008091E800877F8093E8008091E80080FF9B
:1043B000FCCF80914B0137C08091A4048132E1F59C
:1043C0008091A8049091A904892BB1F58091E8000F
:1043D000877F8093E8000E94571D8091A6048093F8
:1043E0004B010E94822928C08091A404813221F5CA
:1043F0008091E800877F8093E8000E94571D80919C
:10440000A70480937E0418C08091A404813AA1F48B
:104410008091E800877F8093E8008091E80080FF2A
:10442000FCCF80917E048093F1008091E8008E772C
:104430008093E8000E94571D8091E80083FFCEC161
:104440008091A4049091A504492F50E04A30510571
:1044500008F0C4C1FA01EF58FF4F0C94B131803815
:1044600021F0823809F0BAC108C08091A00490916F
:10447000A104992389F082600FC08091A8048F70F5
:10448000873008F0ABC18093E9008091EB0085FB99
:10449000882780F91092E9009091E800977F909327
:1044A000E8008093F1001092F10065C1282F2D7F64
:1044B00009F094C1882319F0823061F08FC1809196
:1044C000A604813009F08AC1933009F080E080931E
:1044D000A1042EC08091A60481112AC08091A80455
:1044E0008F702FEF280F263008F078C18093E900F5
:1044F0002091EB0020FF1CC0933021F48091EB0051
:10450000806214C09091EB0090619093EB0021E0E9
:1045100030E0A90102C0440F551F8A95E2F740938D
:10452000EA001092EA008091EB0088608093EB0033
:104530001092E9008091E800877F20C181114EC16F
:104540001091A6041F778091E3008078812B8093DF
:10455000E3008091E800877F8093E8000E94571D68
:104560008091E80080FFFCCF8091E3008068809319
:10457000E300111102C082E001C083E08093A20435
:104580002DC18058823008F029C18091A6049091F5
:10459000A7048C3D53E0950779F583E08A838AE28E
:1045A00089834FB7F894DE01139620E03EE051E294
:1045B000E32FF0E050935700E49120FF03C0E29511
:1045C000EF703F5FEF708E2F90E0EA3010F0C796EB
:1045D00001C0C0968D939D932F5F243149F74FBF43
:1045E0008091E800877F8093E8006AE270E0CE0166
:1045F00001960E94AB1DAEC04091A8045091A90441
:10460000292F332723303105A9F068F421303105F3
:1046100009F4F3C02230310509F0E0C08BE390E0EB
:10462000E8E0F5E044C02132310521F122323105C4
:1046300071F1D4C0992781309105A1F058F002970B
:1046400009F0CCC0E5E5F5E0E4918E2F90E0E5E5DA
:10465000F5E02AC0E5E7F5E0E4918E2F90E0E5E78C
:10466000F5E022C0E3E6F5E0E4918E2F90E0E3E68A
:10467000F5E01AC04115510509F4C4C04130510597
:1046800009F0ACC089E090E0E3E3F5E010C041152B
:10469000510509F4BCC04130510509F09FC086EBBB
:1046A00090E0E2E1F4E003C0009709F497C02091A4
:1046B000E800277F2093E8002091AA043091AB0402
:1046C0008217930708F49C0140E02115310589F118
:1046D0008091A204882309F43DC08530D9F18091EE
:1046E000E80083FD37C08091E80082FD2FC08091F3
:1046F000E80080FFEACF4091F3008091F20090E063
:10470000942B2115310559F08830910540F44491DE
:104710004093F1003196215031090196F2CF41E0EA
:10472000089709F040E08091E8008E778093E800D8
:10473000CCCF4111CDCF0AC08091A204882351F083
:10474000853041F08091E80083FD04C08091E8004D
:1047500082FFF2CF8091E8008B778093E8003EC023
:104760008038E1F58091E800877F8093E8008091B0
:10477000A3048093F1008091E8008E778093E80095
:104780000E94571D2BC0811129C08091A6049091D1
:10479000A7049927029714F58091E800877F8093FA
:1047A000E8001091A6041093A3040E94571D111154
:1047B00006C08091E30087FD02C081E001C084E073
:1047C0008093A20442E061EC81E00E94761D42E207
:1047D00061EC82E00E94761D8091A2048091E80045
:1047E00083FF1AC08091E800877F8093E800809162
:1047F000EB0080628093EB000FC082E190E0E3E485
:10480000F5E055CF89E090E0EAE1F5E050CF80E4B3
:1048100090E0E8ECF4E04BCFAA96E3E00C9467302C
:104820001F920F920FB60F9211242F933F934F9325
:104830005F936F937F938F939F93AF93BF93CF9328
:10484000DF93EF93FF93C091E900CF708091EC006C
:10485000D82FD17080FDD0E81092E9008091F0004F
:10486000877F8093F00078940E944E211092E90097
:104870008091F00088608093F000CD2BCF70C093C2
:10488000E900FF91EF91DF91CF91BF91AF919F919F
:104890008F917F916F915F914F913F912F910F90E9
:1048A0000FBE0F901F901895E8EDF0E080818E7F8D
:1048B00080831092E2001092DA001092E100A0EEE4
:1048C000B0E08C9181608C9380818F77808319BC5C
:1048D000A7EDB0E08C918E7F8C9380818F7E80835A
:1048E00010927D040895A0E0B0E0E9E7F4E20C94B2
:1048F0004630C8EDD0E088818F7E8883E7EDF0E018
:1049000080818160808384E082BF81E080937D0428
:1049100088818E7F888302EE10E0F8011082109269
:10492000DA0081EEC82ED12CF601108288818F77B3
:10493000888388818068888388818F7D888319BC7B
:104940001092A2041092A3041092A1041092A00449
:1049500090EEE92EF12CF70180818B7F8083888196
:104960008160888342E060E080E00E94761DF6016D
:1049700080818E7F8083F801808181608083808147
:1049800088608083F70180818E7F80838881806149
:104990008883CDB7DEB7E8E00C9462301F920F92A7
:1049A0000FB60F9211242F933F934F935F936F9302
:1049B0007F938F939F93AF93BF93EF93FF938091D8
:1049C000E10082FF09C08091E20082FF05C0809172
:1049D000E1008B7F8093E1008091DA0080FF2AC0A4
:1049E0008091D80080FF26C08091DA008E7F80936E
:1049F000DA008091D90080FF18C080E189BD82E192
:104A000089BD09B400FEFDCF81E08093A2048091AE
:104A10007D0481110FC00E9454240E947324809150
:104A2000E20084608093E20005C019BC1092A204E9
:104A300010927D048091E10080FF17C08091E20018
:104A400080FF13C08091E2008E7F8093E20080910E
:104A5000E20080618093E2008091D80080628093C0
:104A6000D80019BC85E08093A2048091E10084FF06
:104A700030C08091E20084FF2CC080E189BD82E1DA
:104A800089BD09B400FEFDCF8091D8008F7D809351
:104A9000D8008091E1008F7E8093E1008091E20058
:104AA0008F7E8093E2008091E20081608093E2003B
:104AB0008091A304882311F084E007C08091E30073
:104AC00087FD02C081E001C083E08093A204809151
:104AD000A2048091E10083FF27C08091E20083FF60
:104AE00023C08091E100877F8093E10082E0809382
:104AF000A2041092A3048091E1008E7F8093E100D4
:104B00008091E2008E7F8093E2008091E2008061DC
:104B10008093E20042E060E080E00E94761D809198
:104B2000F00088608093F000FF91EF91BF91AF910A
:104B30009F918F917F916F915F914F913F912F91B5
:104B40000F900FBE0F901F901895809590914F0772
:104B5000892380934F07089590914F0780914E07C6
:104B6000982B9093B706809171028823D9F0892BF6
:104B70008093B70680914B01882331F080917804AF
:104B800087FF02C08EE101C086E0E9EBF6E090E02D
:104B9000815028F021912223D9F39F5FF9CF911101
:104BA0000E948B1740E250E06EE277E087EB96E0E0
:104BB0000E94D331892B21F180E2E7EBF6E0AEE2EF
:104BC000B7E001900D928A95E1F7E0916F04F091C2
:104BD00070043097A9F080914B01882359F080919F
:104BE000780487FF07C08091B7068093B80686E0F7
:104BF0008093B7060280F381E02D87EB96E009955C
:104C0000089580E090E00E94031F80E090E00E9401
:104C1000ED1E10924E070E94AC25E7E5F7E086E016
:104C2000DF011D928A95E9F7109251071092500703
:104C3000109252070E94F62C089580912C079091B3
:104C4000FB06891719F08F5F8770FBCF08950F93CC
:104C50001F93CF93DF938091FA0682958F7009F0AE
:104C60005AC08091F706882309F455C080912C071B
:104C70001091FB066091F5067091F606C091F8065A
:104C8000D091F90691E06F3F09F090E0292F06E0FE
:104C9000811709F440C0209721F07F3F21F030E0D8
:104CA00003C031E001C0322F90E030FD31C0089FD9
:104CB000F001099FF00D1124DF01A450B94F1196A6
:104CC0003C911197371324C03C91361321C01296A2
:104CD0003C91129731111CC013964D915C91149721
:104CE0004C1B5D0B483C510598F48091FA068F707F
:104CF00080618093FA06EF5FF84F80818F7080614A
:104D0000808385EF96E00E946E070E941D2603C0F7
:104D100001968770BDCFDF91CF911F910F910895BC
:104D2000A0E0B0E0E6E9F6E20C9445308C01C090DA
:104D30003002D0903102E0903202F0903302809144
:104D4000720290917302A0917402B0917502C82A08
:104D5000D92AEA2AFB2ACFE1D0E0D701C6010C2EDE
:104D600004C0B695A795979587950A94D2F780FDCC
:104D700004C0219790F7B12C09C0BC2EB8018C2F2C
:104D80000E945B150E947415019799F38B2DCDB786
:104D9000DEB7E9E00C946130CF93DF93EC010E9421
:104DA0009026BE010E945B150E947415DF91CF9181
:104DB0000895FC01808191810E94CC2692959F707C
:104DC000963079F010F4925001C09A50923068F405
:104DD000803F69F018F4883E40F409C0843F29F40C
:104DE00006C0883E20F0813F11F080E0089581E008
:104DF0000895A1E1B0E0EFEFF6E20C9443308C01AE
:104E000085E0F801DE011D9601900D928A95E1F78B
:104E1000F801E2809091F5066091F6064091F8065F
:104E20005091F9064115510531F06F3F31F481E0A1
:104E30009F3F19F403C081E001C080E0F82FF170BA
:104E40009F2E80FD1BC1F80130812181C380D48059
:104E500085EFA82E86E0B82EF090F706F601E41B49
:104E6000F50BFF2009F4C7C08091FA06E83CF10574
:104E700008F092C0482F407F09F051C0621311C062
:104E800093130FC0FE2CE1100CC08F7080618093D3
:104E9000FA06C5010E946E078091FA06F801858323
:104EA0002AC1C114D10431F02F3F31F481E03F3FDA
:104EB00019F403C081E001C080E080FD03C081E0FF
:104EC0008E2502C080E090E0F82FF170FF2E80FF69
:104ED0001CC080912C074091FB0656E0841709F412
:104EE000E8C090E0589FF001599FF00D1124E45064
:104EF000F94F6181261306C06081631303C062818C
:104F0000E61203C001968770E9CFFE2CEE2009F46B
:104F1000F2C08091FA0681608093FA0649C062135C
:104F200006C0931304C0E11002C0F80186C0C80196
:104F30000E94D926882351F1EE2041F12091FA06F2
:104F4000822F82958F7090E0029774F08091F50621
:104F50009091F60698878F831986DB86CA862C8700
:104F6000CE0107960E946E0786E0F801A5EFB6E035
:104F700001900D928A95E1F70E9427260AC06217D8
:104F8000C9F0C8010E94D92681111EC0C8010E9423
:104F90006E07FF24F394AFC0482F407F81F785EF61
:104FA00096E00E946E0786E0F50111928A95E9F776
:104FB000F12CA1C09313E5CFE110E3CFF801858375
:104FC000C8010E946E0754C0EE2001F32091FA063A
:104FD000822F82958F7090E0029734F28091F506CF
:104FE0009091F6069A8389831B82DD82CC822E8380
:104FF000CE010196B7CFE83CF105D0F5FE2CEE20AE
:1050000029F2621327C0931325C02091FA0620FDD0
:1050100018C0822F82958F70482F50E0411551059E
:1050200081F0F80125834F30510541F08F5F982FB3
:105030009295907F822F8F70892B8583C8010E9463
:105040006E0786E0F801A5EFB6E001900D928A9513
:10505000E1F751C0C8010E94D926811185CF809106
:10506000FA0681608093FA06C8010E946E0743C069
:1050700086E0F50111928A95E9F73DC0EE2009F42A
:1050800085CFC8010E94D926F82E882309F47ECF47
:1050900086E0F801A5EFB6E001900D928A95E1F760
:1050A0008091F5069091F6060E94CC260E94272654
:1050B00022C03D872E878D859E850E94CC26292F74
:1050C00022952F70223028F49F7039F0811105C08D
:1050D0000BC0243028F49F7049F4805E883020F0A3
:1050E000C8010E946E079F2CF92C05C0F80195811C
:1050F000907F99F7F9CF8F2D6196EBE00C945F309C
:10510000292F983080F5863070F590E036E0239FA7
:10511000800D911D1124682F677023E09695879567
:105120002A95E1F725E0289FF001299FF00D112431
:10513000E952F94F40E050E080E0219130E0062E46
:1051400002C0369527950A94E2F721703327042E82
:1051500001C0220F0A94EAF7822B4F5F5F4F453060
:10516000510559F7089580E00895292F983090F55A
:10517000863080F590E036E0239F800D911D11244C
:10518000282F277051E001C0550F2A95EAF723E038
:10519000969587952A95E1F725E0289FF001299FAC
:1051A000F00D1124E952F94F20E030E070E0408129
:1051B000CB01022E02C0969587950A94E2F7817082
:1051C000819584278523842781932F5F3F4F253046
:1051D000310569F70895609330027093310280932E
:1051E0003202909333020E94012608950F931F9379
:1051F00041E050E060E070E004C0440F551F661FBE
:10520000771F8A95D2F7409550956095709580915B
:10521000300290913102A0913202B09133028A01A2
:105220009B01082319232A233B23C901B8010E94AB
:10523000EB281F910F91089520912D0780958223CF
:1052400080932D07982F977099F430E0482F082EFF
:10525000000C550B2417350759F09091790492FFF3
:1052600007C08595859585950E94F62810922D0793
:105270000895CF93C0917904C2FB992790F99817AC
:1052800091F080FBC2F9C09379046091780484E0C6
:1052900090E00E94EC306C2F82E290E00E94EC30B3
:1052A00082E00E941C29CF9108950F931F9341E043
:1052B00050E060E070E004C0440F551F661F771F88
:1052C0008A95D2F78091300290913102A0913202FA
:1052D000B09133028A019B01082B192B2A2B3B2BFF
:1052E000C901B8010E94EB281F910F9108956093A6
:1052F00072027093730280937402909375020E94FD
:105300000126089510924F0780914B01882331F0B8
:105310008091780487FF02C08EE101C086E0E9EB4E
:10532000F6E0DF011D928A95E9F70E9401260895B3
:105330003091470180915F0480FF16C0E0914601E3
:1053400063E0E69FF0011124E155FD4F539A8BB1C4
:10535000877F9BB198602FB7F894AF0163E0369FC9
:10536000400D511D112414C08091480190914901B4
:10537000891720F7E82FF0E0AF01440F551FE40F25
:10538000F51FE155FD4F1182108212828F5FF0CF21
:10539000E417F50789F0319168E09BB9000000C07F
:1053A00037FF8BB9330F000000C000C000C08BB9BD
:1053B00000C06A9591F7ECCF2FBF8FE594E001977D
:1053C000F1F700C00000089590915F0490FF16C0AF
:1053D0009091480120914901921770F4E92FF0E073
:1053E000DF01AA0FBB1FEA0FFB1FE155FD4F8183B1
:1053F000608342839F5FF0CF0E9498290895809137
:105400005F04282F269530E02115310519F48170AD
:10541000826005C02B32310524F081708465809351
:105420005F0480916204893718F088E780936204F2
:105430000895CF92DF92EF92FF926B017C010E9460
:10544000FF29B701A60188E090E00E94FE30FF909E
:10545000EF90DF90CF90089580916304882319F036
:1054600081508093630460915F0470916004809127
:105470006104909162040E94192A08958091630446
:10548000833018F48F5F8093630460915F047091A0
:10549000600480916104909162040E94192A089529
:1054A000EFE5F4E083E0808311828FEF828388E769
:1054B00083831482A9EAB2E012968C9112978360DA
:1054C00012968C9360817181828193810E94192A46
:1054D0000895A0E0B0E0EFE6FAE20C944430E82E44
:1054E000F62EE901493708F048E7E42FF0E0F11023
:1054F00006C0E754F54FE4914E2F2E2F71C00F2DAB
:1055000010E0E754F54F4491F42FC42ED12C26E03F
:10551000E29EC00111242FEF30E0B9010E94283033
:105520005BEA5603C001579F900D11248E0D911D0B
:105530008E0D911D582F550F580FD901A01BB10B7F
:10554000AC9DC001AD9D900DBC9D900D1124E92F27
:10555000F59ED0011124AB2FBB277901EA1AFB0A73
:10556000EC9CD001ED9CB00DFC9CB00D11245901B8
:10557000A51AB108A09E7001A19EF00CB09EF00C7F
:105580001124EF2CFF242E193F092C9D80012D9D05
:10559000100D3C9D100D1124212F6230710591F0EA
:1055A00048F461157105E1F061307105B9F4242FFB
:1055B0004B2F16C06430710569F040F066307105FC
:1055C00079F00CC0242F492FE12F0AC0492FEF2F6B
:1055D0002B2F06C0292FE42F412F02C0292FEB2F9C
:1055E00049832883EA83CDB7DEB7EAE00C946030C4
:1055F000A3E0B0E0EEEFFAE20C944530082FE62E7F
:10560000F42ED22E90915F0490FF78C0E92FE6959A
:10561000AE2FB0E0A252BE4F8C918093A9029E7F24
:10562000923061F49E012F5F3F4F802F0E94692AC4
:105630004B8169818A810E94E4293DC0823019F43E
:10564000F090620438C0863019F40091600433C0D1
:105650008930D9F3893179F5E9518E2F8170C82EBF
:10566000E695F0E0E754F44F1491B12C60914A01B3
:10567000B616F8F4B19EC001112470E00E942830E3
:10568000802FC11002C0860F01C0861B9091480177
:105690002B2D30E0290F311DA901440F551F240F78
:1056A000351F21553D4F4F2D6E2D0E94692AB39411
:1056B000DDCF0E94982980916004081308C0809172
:1056C0006104E81204C080916204F81629F0809108
:1056D000AB0282608093AB0200936004E0926104AD
:1056E000F0926204DD2051F060915F0470916004DB
:1056F00080916104909162040E94192A2396E9E046
:105700000C946130EFE5F4E0438121E1421B08F4A1
:1057100040E021E0628181810E94F82A0895EFE54E
:10572000F4E0438121E1420F08F44FEF21E0628170
:1057300081810E94F82A0895EFE5F4E0628121E179
:10574000621B08F460E021E0438181810E94F82A15
:105750000895EFE5F4E0628121E1620F08F46FEF54
:1057600021E0438181810E94F82A0895EFE5F4E069
:10577000818121E0438162818A500E94F82A089544
:10578000EFE5F4E0818121E043816281865F0E9440
:10579000F82A0895A3E0B0E0E0EDFBE20C944C3071
:1057A00090915F0490FF0AC09E012F5F3F4F0E94BF
:1057B000692A4B8169818A810E94E4292396E2E06B
:1057C0000C9468308D3E39F490915A0797FF35C09C
:1057D00010925A0759C08E3E29F490915A07191613
:1057E000BCF32BC0909159078F3E29F497FF25C039
:1057F0001092590749C0803F19F41916CCF31DC007
:1058000090915B07893F29F41916BCF410925B074D
:105810003BC08A3F19F497FF10C0F8CF8B3F39F493
:1058200090915C0797FF09C010925C072DC08C3FD8
:1058300021F490915C071916BCF39FE0980F983003
:1058400080F421E030E0A90102C0440F551F9A9571
:10585000E2F7CA01809590915807892380935807F1
:1058600013C08D3F21F4809152078E7F0BC08E3F75
:1058700021F4809152078D7F05C08F3F29F48091DC
:1058800052078B7F8093520780915907811106C080
:1058900080915A07811102C01092510780915B07D5
:1058A000811106C080915C07811102C010925007DF
:1058B00008958091520780FD16C081FD16C082FDBB
:1058C00018C080915007882391F0883290F428E026
:1058D000829FC001112468E270E00E949D31862FF2
:1058E000672B29F007C082E0089584E0089581E0E5
:1058F000089588E008958091520780FD14C081FDCD
:1059000014C082FD16C080915107882381F08E312A
:1059100080F420E5829FC00111246EE170E00E94B6
:105920009D31862F089584E1089588E2089588E0E6
:10593000089580E508958D3E21F40E947B2C819589
:1059400004C08E3E29F40E947B2C80935A07089550
:105950008F3E21F40E947B2C819504C0803F29F466
:105960000E947B2C809359070895893F19F40E9467
:10597000592C05C08A3F31F40E94592C819580939F
:105980005B0708958B3F21F40E94592C819504C038
:105990008C3F29F40E94592C80935C0708959FE066
:1059A000980F983078F421E030E0A90102C0440F4C
:1059B000551F9A95E2F7CA0190915807892B809359
:1059C000580708958D3F21F48091520781600BC0E4
:1059D0008E3F21F480915207826005C08F3F29F4E9
:1059E0008091520784608093520708950E945B1E45
:1059F00020915907211104C020915A07222321F038
:105A0000909356078093550720915B07211104C09E
:105A100020915C07222321F0909354078093530731
:105A2000E0916F04F0917004309749F082E0809328
:105A300057070480F581E02D87E597E009950895E3
:105A400090915F0490FF3BC09170811102C0926001
:105A500006C08B3210F0946502C0880F982B90938B
:105A60005F048091AB0281608093AB02662351F0AA
:105A700060915F0470916004809161049091620470
:105A80000E94192A60915F04669570E04BE050E037
:105A900088E391E00E94C631892B19F00E943720DB
:105AA00002C00E943E2081E08093A60220E0409147
:105AB000620460916104809160040E94F82A089554
:105AC00080915F048695815009F48AE261E00E942A
:105AD000202D089580915F0486958F5F8B3208F0AA
