:100000000C942A050C9462050C9462050C94C22889
:100010000C9462050C9462050C9462050C946205C4
:100020000C9462050C9462050C94811C0C94C31B07
:100030000C94471F0C9462050C9462050C946205A5
:100040000C9462050C9462050C9462050C94620594
:100050000C9462050C94FA1E0C9462050C946205D3
:100060000C9462050C9462050C9462050C94620574
:100070000C9462050C9462050C9462050C94620564
:100080000C9462050C9462050C9462050C94620554
:100090000C9462050C9462050C9462050C94620544
:1000A0000C9462050C9462050C946205690B690B53
:1000B0009B0B9B0B0A0C260C530D530D310CBF0CE4
:1000C000D00CD00CD70FE70FDA0FE70FDD0FE70FDB
:1000D000E70FE70FE00FE70FE00FE70FE00FE70F85
:1000E000E00FE219091AA11B091AA11B511A741A6F
:1000F000A11B631B761B0000000000000000000035
:1001000000000000000000000000000000000000EF
:10011000000000000000000000007E0F00D4FFFF80
:10012000FFC70000007800000000000000002A2B3C
:100130002800000000000000000000000000000097
:100140000029000000002C1E342021222434262700
:10015000252E362D3738271E1F2021222324252621
:100160003333362E37381F0405060708090A0B0CEF
:100170000D0E0F101112131415161718191A1B1C37
:100180001D2F3130232D350405060708090A0B0CF5
:100190000D0E0F101112131415161718191A1B1C17
:1001A0001D2F3130354C00DA0281FFD9F1DB20A45C
:1001B000A62EAF00A0C000A1C800AED580A81FD356
:1001C00000408D14200041646A75737400526169A7
:1001D0007365004C6F7765720044656661756C7479
:1001E000004C617965723A20008081828384858623
:1001F0008788898A8B8C8D8E8F9091929394A0A101
:10020000A2A3A4A5A6A7A8A9AAABACADAEAFB0B156
:10021000B2B3B4C0C1C2C3C4C5C6C7C8C9CACBCCB7
:10022000CDCECFD0D1D2D3D4002B0014001A0008E9
:100230000015001700296104001600070009000AD4
:100240000064621D001B000600190005000000008C
:10025000000000E20001512C002A00130012000CE3
:100260000018001C00340033000F000E000D000BBE
:10027000002872380037003600100011000000001E
:100280000000003E6102512C0029003A003B003C76
:10029000003D003200E0003E003F004000410064AD
:1002A00000E100420043004400450000000000005F
:1002B000000000E200010028004C052A002B002964
:1002C000004C055113460034004F005200510050BD
:1002D00000440028724D004B004E004A0000000010
:1002E000000000E3000351280035001E001F00201D
:1002F0000021022202191321002200230000000025
:1003000000511324002500260027000000000000F3
:10031000000000E20003512C004C002702260225B9
:100320000224022302350030002F002E002D003F52
:100330000035024E004B0064003200450000000012
:10034000000000E30001002800005C005C000000E9
:100350000000000000C35CC65CC85CCA5C00000012
:1003600000C45CC75CC95CCB5C00000000000000FE
:10037000000000E20001002C00000000000000006E
:100380000000000000000000000F0000000000005E
:10039000000000000000000000000000000000005D
:1003A000000000E3000100280005010902A1018509
:1003B000020901A100050919012908150025019567
:1003C00008750181020501093009311581257F95E4
:1003D000027508810609381581257F950175088108
:1003E00006050C0A38021581257F950175088106DE
:1003F000C0C005010980A101850319012AB70015B4
:100400000126B700950175108100C0050C0901A1F6
:1004100001850419012AA002150126A00295017583
:10042000108100C005010906A1018506050719E034
:1004300029E71500250195087501810205071900B6
:1004400029EF1500250195F07501810205081901B4
:100450002905950575019102950175039101C00566
:10046000010906A101050719E029E71500250195F5
:100470000875018102950175088101050719002998
:10048000FF150026FF009506750881000508190173
:100490002905950575019102950175039101C00922
:1004A000023B00020100A0FA09040000010301015F
:1004B0000009211101000122400007058103080005
:1004C00001090401000103000000092111010001DC
:1004D00022B600070582032000011201000200007D
:1004E0000008534601000100010200010C03430013
:1004F0006F0072006E0065000000100366006F0060
:100500006F007300740061006E00000004030904B2
:100510000000000000003E5B4F5B3E003E6B4F6BF7
:100520003E001C3E7C3E1C00183C7E3C18001C57C4
:100530007D571C001C5E7F5E1C0000183C180000EC
:10054000FFE7C3E7FF00001824180000FFE7DBE720
:10055000FF0030483A060E00262979292600407F00
:1005600005050700407F05253F005A3CE73C5A003F
:100570007F3E1C1C0800081C1C3E7F0014227F22AA
:1005800014005F5F005F5F0006097F017F00006667
:1005900089956A0060606060600094A2FFA2940088
:1005A00008047E04080010207E20100008082A1C81
:1005B0000800081C2A0808001E10101010000C1E4D
:1005C0000C1E0C0030383E383000060E3E0E060081
:1005D00000000000000000005F00000000070007AE
:1005E0000000147F147F1400242A7F2A1200231392
:1005F00008646200364956205000000807030000D6
:10060000001C224100000041221C00002A1C7F1C0B
:100610002A0008083E080800008070300000080822
:1006200008080800000060600000201008040200B4
:100630003E5149453E0000427F4000007249494911
:1006400046002141494D33001814127F1000274500
:10065000454539003C4A494931004121110907000B
:10066000364949493600464949291E000000140010
:10067000000000403400000000081422410014145F
:100680001414140000412214080002015909060044
:100690003E415D594E007C1211127C007F49494950
:1006A00036003E41414122007F4141413E007F49A9
:1006B000494941007F09090901003E414151730048
:1006C0007F0808087F0000417F4100002040413F33
:1006D00001007F08142241007F40404040007F021B
:1006E0001C027F007F0408107F003E4141413E0014
:1006F0007F09090906003E4151215E007F09192941
:10070000460026494949320003017F0103003F406A
:1007100040403F001F2040201F003F4038403F0026
:100720006314081463000304780403006159494DFD
:100730004300007F414141000204081020000041B5
:1007400041417F000402010204004040404040005B
:100750000003070800002054547840007F284444D8
:100760003800384444442800384444287F00385432
:100770005454180000087E0902001824241C780034
:100780007F080404780000447D4000002040403D84
:1007900000007F102844000000417F4000007C04DE
:1007A000780478007C080404780038444444380015
:1007B0007C1824241800182424187C007C080404C5
:1007C000080048545454240004043F4424003C408E
:1007D00040207C001C2040201C003C4030403C005D
:1007E0004428102844004C9090907C004464544C61
:1007F000440000083641000000007700000000417E
:10080000360800000201020402003C2623263C00B8
:1008100000000000000000000000000000000000D8
:10082000C0E0F0F8F81800C0F0FCFEFFFFFFFFFF8B
:10083000FFFF7E00000000000000000080C0E0E03C
:10084000E0E0E0E0E0E0C0800000000080C0E0E028
:10085000E0E0E0E0E0E0C080000000E0E0C0C0E0F8
:10086000E0E0E00000E0E0C0C0E0E0E0E0E0C08008
:100870000000000080C0E0E0E0E0E0E0E0E0C080F8
:100880000000000000000000000000000000E0F098
:10089000F0F0E0ECEEF7F37020007C7C7C7E007ED4
:1008A0007E7E7F7F7F000080C0E07E5B4F5BFEC06E
:1008B0000000C000DCD7DEDEDED7DC00C0000000B8
:1008C0000000000000000000000000000000000028
:1008D000000000000000000000F8FCFEFFE000FF48
:1008E000FFFFFFFFFF80FFFFFFFFFFFFFFFFFF1F77
:1008F0000701000000000000000000FFFFFF810072
:10090000000000000081C3C3C30000FFFFFF81009F
:10091000000000000081FFFFFF0000FFFFFF01005B
:100920000000000000FFFFFF010000000001FFFFCA
:10093000FF0000FFFFFF9D1C1C1C1C1C1C9DDFDF1B
:10094000DF000000000000000000000000000F1F9A
:100950003F7F7F7F7F7F3F1E0C001F1F1F3F003F99
:100960003F3F7F7F7F00307B7F7830202030787F53
:100970003B0003000F7F0F0F0F7F0F0003000000ED
:100980000000000000000000000000000000000067
:10099000000000000000000000030F1F3F3F3F3F2A
:1009A0001F1F3F3F7F7F7F3F3F1F3F7F7F7F7F7CBA
:1009B0007878381C0F0000000000000001030707D2
:1009C00007070707070703010000000001030707E7
:1009D00007070707070703010000000707070000D4
:1009E00000000000000707070000000000000707E4
:1009F00007000000010307070707070707070301B0
:100A000000000000000000000000000000000000E6
:100A100000000000000000000000000000000000D6
:100A200000000000000000000000000000000000C6
:100A300000000000000000000000000000000000B6
:100A400000000000000000000000000000000000A6
:100A500000AF00AE11241FBECFEFDAE0DEBFCDBF86
:100A600004B603FE18C080916C0590916D05A091AD
:100A70006E05B0916F058730904BA740B04B59F48D
:100A800010926C0510926D0510926E0510926F0514
:100A9000E0E0F8E3099511E0A0E0B1E0E0EFFAE56D
:100AA00002C005900D92A83CB107D9F725E0A8EC4B
:100AB000B1E001C01D92AC36B207E1F70E94870D8C
:100AC0000C94762D0C9400009C013A9521153F4121
:100AD00030F5BC0166277270AC01442754709C014C
:100AE0002227387094FF0FC090FF02C080E101C040
:100AF00080E0672B09F08062452B09F08064232B8E
:100B000079F080680895892F8170672B09F08260E1
:100B1000452B09F08460232B19F08860089580E04C
:100B200008950E942C262FEF84E39CE02150804002
:100B30009040E1F700C000009CE088E10FB6F89417
:100B4000A895809360000FBE90936000FFCFA7E14F
:100B5000B0E0EDEAF5E00C94062A4B8B5C8B6D8BD4
:100B60007E8B8F8B61111092E30486E09E01235FE0
:100B70003F4FD901E82F1D92EA95E9F795E0FE0174
:100B80007396D90101900D929A95E1F79C894E894F
:100B90005F897B897D879E876F87598B488BF90199
:100BA000DE01179601900D928A95E1F7CE01079626
:100BB0000E94092481113EC086E0FE013796DE01C5
:100BC000119601900D928A95E1F7FF81E8856A857B
:100BD0007B856115710531F0EF3F31F481E0FF3F16
:100BE00019F403C081E001C080E080FD23C02091A2
:100BF000390530E0C90101968770992740916A054F
:100C000050E08417950779F1F983EA837D836C833B
:100C100096E0929FD001939FB00D1124A65CBA4F2D
:100C2000FE01319601900D929A95E1F78093390576
:100C30000E941E2316E080916A059091390589175C
:100C4000F9F0189FC0011124865C9A4F0E94092474
:100C50008823B1F080916A0590E00196877099270A
:100C600080936A05E8CF0E942C26109239051092D5
:100C70006A05E3E3F5E086E0DF011D928A95E9F776
:100C80006796E3E00C94222ACF93DF93EC010E9455
:100C90006826CE01805E9109089710F0209731F404
:100CA000CE010E9464050E94572605C0CE010E9415
:100CB00064050E944226DF91CF910895CF93DF9380
:100CC000EC01805E9109089710F0209731F4CE0175
:100CD0000E9464050E945E2605C0CE010E94640544
:100CE0000E944D268C2F0E949D26DF91CF91089562
:100CF000ADE0B0E0EEE7F6E00C94F729FC0180816E
:100D0000918123813481232B31F09F3F31F491E095
:100D10008F3F19F403C091E001C090E090FDF3C64D
:100D20007F0185E0DE01199601900D928A95E1F729
:100D3000F701228189859A85222349F00E94912317
:100D4000182F682F89859A850E94AB2503C00E94C1
:100D50007825182F69857A85812F0E94EA138C01E6
:100D6000F70182818823A1F1C80190568115F0E234
:100D70009F0720F0905E8115904118F4C8019927D3
:100D800001C0C8018C33910528F4FC01EA5BFE4FD9
:100D9000208101C020E21F922F939F938F93F70130
:100DA00080811F928F9381811F928F9380E391E0C6
:100DB0009F938F931F9288E18F9384EF91E09F938D
:100DC0008F930E94B52A0FB6F894DEBF0FBECDBF39
:100DD0000E943B1F4C01F7018281882309F424C142
:100DE00080912F0182FF07C04CEE51E0B40180E0FA
:100DF00090E00E9496200931FCE51F07D1F178F4BC
:100E000007313CE5130759F108318CE5180709F063
:100E1000FCC080912D0190912E01059725C00B31CA
:100E20009CE5190789F048F00C31FCE51F0709F033
:100E3000ECC080912F018E7F0DC080912F01982FE3
:100E4000909590FB80F906C080912F01816080937E
:100E50002F01DBC080932F010E947320D6C08091A8
:100E60002D0190912E01059690932E0180932D01D6
:100E7000CCC080912E018F9380912D018F9381E4BE
:100E800091E09F938F931F9288E08F939E012F5F35
:100E90003F4F69013F932F930E94B52A0FB6F894F4
:100EA000DEBF0FBECDBF4AE0342EF60120812223E3
:100EB00009F4ABC0213009F04FC08181813049F481
:100EC0005601F2E0AF0EB11CF60182810E94142798
:100ED0000AC0823051F45601F2E0AF0EB11CF601A7
:100EE00082810E949D2665018CC0833049F45601A1
:100EF000F2E0AF0EB11CF60182810E946826F3CFAA
:100F0000843021F0FFEFCF1ADF0A7BC0F601228187
:100F1000C60102966C0180E090E030E02053310978
:100F20002A30310570F4389EA001399E500D1124ED
:100F3000C901840F951FEFEFCE1ADE0AF60120815A
:100F4000ECCF009709F45DC0EFE9FFE03197F1F7CE
:100F500000C000000197F5CFE22FF0E0EA5DFE4F00
:100F60002490822F86958695869590E0FC01EA5E16
:100F7000FE4F44902770512C022E02C05594479486
:100F80000A94E2F7F1E04F225524FC01EA5FFE4F9C
:100F90006490712C022E02C0759467940A94E2F753
:100FA00031E063227724FC01EA50FF4FA490B12C7A
:100FB00002C0B594A7942A95E2F781E0A822BB2449
:100FC0004114510419F081EE0E949D2661147104B0
:100FD00019F086EE0E949D26822D0E94142761142E
:100FE000710419F086EE0E9468264114510419F02C
:100FF00081EE0E946826A114B10419F08CE20E94CF
:1010000014279FEFC91AD90A50CFC80190568115ED
:10101000E0E29E0720F0905E8115904158F5109215
:1010200007051092060567C0013E110521F4809165
:101030002F018F7E06C0053E110531F480912F01EE
:101040008F7D80932F0116C0C8019056811520E234
:10105000920720F0905E8115904160F480912F01FD
:1010600082FF49C04CEE51E0B40180E090E00E9464
:10107000962041C080912F0180FF3DC0F701828101
:101080000B32110509F404C238F4980124503109D7
:101090002432310560F4FCC10D32110540F00933F2
:1010A000110508F4F5C10436110509F4F1C18823CE
:1010B00011F11092070510920605043FFCE51F0789
:1010C000B9F178F4093D3CE5130761F10A3D8CE57F
:1010D000180709F44EC0083D9CE5190709F057C0F0
:1010E0001BC0063FECE51E07A1F168F1073F2CE5A8
:1010F0001207C9F14CC0043FFCE51F07C9F0F0F42A
:10110000093D3CE5130771F00A3D8CE5180789F1AC
:10111000083D9CE51907B1F506E221EE41EE68EDC8
:101120007CE52CC007E225EE45EE69ED7CE526C0A6
:1011300006E221EE40EE64EF7CE520C0063FECE5E0
:101140001E0739F060F407E225EE44EE65EF7CE51A
:1011500015C006E221EE42EE66EF7CE50FC0073FC8
:101160002CE5120779F407E225EE46EE67EF7CE501
:1011700005C008E221E045EE6AED7CE5C7010E946A
:101180000A202CC2F7018281882309F4FBC1109246
:101190000A050430FDE51F0758F40B3F2CE5120744
:1011A000C0F4C80182509C45449708F0D5C111C0D5
:1011B000063A3DE5130769F030F402369DE519075C
:1011C00009F0CAC106C0C8018E5A9D45039708F0B0
:1011D000C3C10E949F159093170580931605023195
:1011E000ECE51E0709F40CC108F04DC009302CE5F0
:1011F000120709F4D9C008F505308CE5180709F481
:10120000C0C080F40330ECE51E0709F4B1C008F05B
:10121000B5C002302CE5120709F02AC180911605ED
:101220008160A9C007303CE5130709F4B5C008F098
:10123000B7C08091160580619EC00D309CE51907EE
:1012400009F4C8C058F40B30FCE51F0709F4B6C018
:1012500008F0BCC0809116058860ACC00F303CE53A
:10126000130709F4C5C008F4B8C000319CE519079C
:1012700009F4C2C00131ECE51E0709F0F9C0809104
:1012800016058F7B78C00115FDE51F0709F4C3C063
:1012900098F50B3F3CE5130709F477C0C0F404311F
:1012A0009CE5190709F4C6C008F4B0C00531FCE597
:1012B0001F0709F0DDC08091160582FB222720F967
:1012C00091E0922790FB82F990FB83F954C00D3F87
:1012D0002CE5120709F485C008F45AC00E3F8CE5CE
:1012E000180709F481C00F3F9CE5190709F0C0C039
:1012F00080911705826060C00236EDE51E0709F493
:10130000ABC070F402302DE5120709F49FC008F459
:1013100087C003308DE5180709F0AAC060E097C0C8
:101320000E3A9DE5190701F160F4063AFDE51F0745
:1013300009F09EC080911605982F909590FB80F93A
:101340001AC00F3A2DE51207E9F1003B3DE51307FE
:1013500009F08EC08091170583FB222720F991E0C8
:10136000922790FB83F982C08091170588607EC028
:10137000809116058260809316057AC080911605CB
:1013800019C0809116058860F6CF8091170514C0AA
:101390008091170582606AC0809116058062EBCF4C
:1013A000809116058064E7CF0E942C268091160557
:1013B0008068E1CF8460DFCF816058C080911605DE
:1013C0008E7FD9CF80911705877F50C080911605F9
:1013D0008D7FD1CF809116051CC080911605877F27
:1013E000CACF809117051AC0809117058D7F3EC026
:1013F000809116058F7EBFCF809116058F7DBBCF64
:101400000E942C26809116058F77B5CF8091160506
:10141000877F8B7FB0CF809117058D7F8E7F26C011
:1014200080911705982F909591708E7F892B90FB56
:1014300081F91CC00E942C268091160587FB22276B
:1014400020F991E0922790FB87F995CF61E08EE03B
:1014500090E00E94452A0CC08091160584FB22274B
:1014600020F991E0922790FB84F985CF80931705AE
:10147000609116051091170584E090E00E94452ABE
:10148000612F82E290E00E94452A0E942C26A6C08D
:10149000882309F45BC0809171029091E204982B3B
:1014A000292F2D7F49F11092070510920605F801AA
:1014B00024E0F695E7952A95E1F7EE0FFF1FEC5132
:1014C000FB4F98012F70332781E090E002C0880F16
:1014D000991F2A95E2F7809590952081318182238A
:1014E000932391838083C8010E945E0680917102DC
:1014F0008D7F0E941E1626C026E0F701ACEEB1E0FB
:1015000001900D922A95E1F71092EE011092F001F0
:101510001092EF019695917020912F0190FB21F987
:1015200020932F018D7F0E941E16109307050093B4
:101530000605909205058092040580912F01846034
:1015400080932F0182E00E94F82548C0A701B401D2
:10155000C8010E94962042C006313CE5130719F5E8
:101560008091E2048A7A91E009F490E09093CA01B4
:10157000882311F065E301C069E281E392E00E94F3
:10158000981F0EC00631FCE51F0769F48091CA015F
:10159000882309F4B6C265E381E392E00E94701FDC
:1015A0000E942F161BC0F7018281882309F445C0D1
:1015B0000B358DE51807E1F148F50115ECE51E073F
:1015C000F9F40E942C269FEFE4E3FCE09150E04008
:1015D000F040E1F700C000000E94D61E80916B052C
:1015E000877009F490C2F7018281882309F48BC2C5
:1015F0008091170582FF87C282E00E94F82583C28E
:101600000F3D1C45D1F40E94B01508C00D352DE5E5
:10161000120731F078F0083A1D4579F40E949105DF
:101620008091170582FB882780F991E0892703C004
:1016300081E001C080E00E948416F7018281008170
:101640001181882349F0C8010E949123D82E682F68
:10165000C8010E94AB2504C0C8010E947825D82E7D
:10166000B8018D2D0E94EA130E9403148C01982E5C
:10167000F701D280A580A2949FE0A92280916B05FA
:101680008770B9F0DD20A9F0812F807F803421F0B0
:1016900080E2800F883068F08091170582FF09C0D2
:1016A00082E00E94F82580916B058770CC24C3945A
:1016B0008111C12CB12EB2948FE0B8228B2D90E015
:1016C0008C30910508F0EFC1FC01EA5AFF4F0C94F1
:1016D000992A812F807F1F70882311F01295107F27
:1016E000DD20B9F0112309F4CCC180E2800F8830ED
:1016F00010F0911006C08091E204182B1093E204C0
:1017000005C08091E304182B1093E3040E942F1668
:10171000B8C1802F0E946826112309F4C4C1005E5D
:10172000083078F1992069F110958091E30418232D
:101730001093E30429C0812F807F1F70803211F045
:101740001295107F992021F0F1E09F16C1F146C05B
:101750008091170582FD1BC0DD2069F0112339F04F
:101760008091E204182B1093E2040E942F1680E06F
:101770000E949D2698C180E00E946826112309F4EA
:1017800092C1812F0E9428160E942F168CC1DD2045
:1017900069F080917102A11002C0812B17C021E075
:1017A000812BA21213C00E941E167DC1AA2021F017
:1017B00031E0A31609F477C10E94181627C0DD2076
:1017C00041F085E08A1508F46EC1812F0E945E26E3
:1017D0006AC194E09A1508F466C118C0DD2049F08A
:1017E000AA2099F3F701858180FF4BC18F70858313
:1017F000ECCFAA2059F0093309F052C1FFEF27EED0
:1018000033E0F15020403040E1F748C1812F0E9481
:10181000572649C1812F86958695837019F08130AE
:1018200059F041C1DD2019F0C801937002C080E079
:1018300090E00E94E31F3DC1DD2019F0C8019370C4
:1018400002C080E090E00E94CD1F33C1802FDD20D8
:1018500019F00E94A72202C00E94EE210E94C4211A
:1018600028C1812F837009F041C0D11020C1302FD1
:10187000329536953770330F330F802F8F7090E08D
:10188000032E02C0880F991F0A94E2F704FF0BC0D1
:101890004FE050E002C0440F551F3A95E2F79A011D
:1018A0002095309502C020E030E016951695137013
:1018B000123099F068F44091720250917302113025
:1018C00029F0822B932B8423952304C0842B952B02
:1018D000822B932B0E942526EAC0822B932B2091EA
:1018E00072023091730282279327F4CFDD2019F022
:1018F000812F817001C08695882309F4D8C0302FCC
:10190000329536953770330F330F802F8F7090E0FC
:10191000032E02C0880F991F0A94E2F704FF0BC040
:101920004FE050E002C0440F551F3A95E2F79A018C
:101930002095309502C020E030E016951695137082
:10194000123079F0B8F44091F2015091F301113066
:1019500029F0822B932B842395230EC0842B952B67
:1019600009C0822B932B2091F2013091F301822741
:10197000932702C0822B932B0E94DF2598C01F70F3
:10198000DD2039F0812F0E941526802F0E945E26CF
:101990008EC0802F0E945726812F0E94E62587C087
:1019A000802F92EF991699F1991538F0E0EF9E1675
:1019B00059F0F1EF9F1631F160C023EF921671F1EB
:1019C00034EF9316D9F059C0DD2099F084E08A15E0
:1019D00008F469C01F7181E090E002C0880F991F70
:1019E0001A95E2F72091F2013091F30182279327B3
:1019F00022C095E09A1508F456C0ECCF80911705E7
:101A000082FD1CC0DD2029F0812F8F7129C0DD20CF
:101A1000D9F3812F8F710E94E62545C0DD2049F062
:101A20001F7181E090E002C0880F991F1A95E2F7BC
:101A300002C080E090E00E94DF2535C0DD2099F0F3
:101A40001F71812F0E9415268091170582FF07C004
:101A5000E8E01E9FC0011124836080936B05812FF5
:101A60000E94152620C081E00E94F825F1E0FA15B9
:101A7000D0F482E00E94F82516C0DD2021F0AA20D3
:101A800019F2802F75CEAA2021F2893349F42FEF65
:101A900037EE83E0215030408040E1F700C0000085
:101AA000802F0E94682688EF8B0D843010F40E94EE
:101AB000F91FCC20A9F080916B0580FD11C0F701C2
:101AC00012828595859585950E941526C7010E94ED
:101AD000780680916B058595859585950E94E6250C
:101AE00085E0F701DE01119601900D928A95E1F7EC
:101AF00009811A81C8010E947825B8010E94EA1361
:101B000002C069E249CD2D96E2E10C94132AA2E1CC
:101B1000B0E0EDE8FDE00C94F72985B7806885BF5B
:101B200085B7806885BF84B7877F84BF0FB6F89478
:101B3000A895809160008861809360001092600099
:101B40000FBE90E080E80FB6F89480936100909308
:101B500061000FBE81E292E19093C9018093C801B8
:101B60000E94071C0E94261C8091E20084608093E2
:101B7000E20078948091BA028823A1F01091E900E4
:101B80001F709091EC00892F817090FD80E8182BD8
:101B90001092E9008091E80083FD0E9401191F70F6
:101BA0001093E90082E084BD93E095BD9AEF97BD64
:101BB00080936E001092CB011092CC011092CD0157
:101BC0001092CE010E944613809300010E9446139A
:101BD00081110E947D288091000180910001811176
:101BE00002C094E001C090E09093D80184E0891B8A
:101BF0008093D70102E811E026E8E22E21E0F22EE0
:101C0000D8018D918D018F3F11F00E94D313E01602
:101C1000F106B1F706E811E09CE8E92E91E0F92E13
:101C2000F80181918F018F3F11F00E94D313E016CC
:101C3000F106B1F788E0EBEDF1E0DF01282F1D920E
:101C40002A95E9F7EFECF1E0DF011D928A95E9F7BB
:101C500080E090E00E943F2A883E9E4F11F00E9453
:101C6000B01582E090E00E94372A8093E3010E9441
:101C70009F1590931705809316050E94A016EFE319
:101C8000FCE93197F1F700C000000E94A0160E9405
:101C90004613811102C0E4E001C0E0E0F0E0E5524B
:101CA000FE4F808181FF08C06FEF7FEF80E090E002
:101CB0000E94632A0E94D61E83E090E00E94372A89
:101CC00090E00E9425260E944613882311F080E0B0
:101CD00001C082E080932C0280E88093C4020E94BD
:101CE00033276DE070E089EB91E00E949918892B11
:101CF00009F043C080912C0263E070E081FD3AC09E
:101D000086EB91E00E949918892BB9F56DE070E09F
:101D100086EA91E00E949918892B79F50E942F1F7D
:101D2000DC01CB01805A9541AF4FBF4F8093DC045B
:101D30009093DD04A093DE04B093DF04E7ECF2E0BF
:101D400080E092E0DF019C011D9221503040E1F7DC
:101D5000F093CE04E093CD048FEF9FEF9093C602F3
:101D60008093C50281E08093E1048093E0041092A7
:101D70002D0203C083EB91E0C5CF0E944613811171
:101D800002C00E94802881E091E090930E0580932C
:101D90000D0508E1202E312C44244394512C8091D0
:101DA000BA02853009F045C000E112E18091BA0223
:101DB000853009F03AC08091BA02843021F10E9446
:101DC00054211092110530E40FB6F894A895209292
:101DD00060000FBE3093600083B7817F846083BF53
:101DE00083B7816083BF7894889583B78E7F83BFE4
:101DF0000FB6F894A8958091600088618093600088
:101E0000109260000FBE8091B902882309F4CECFF2
:101E10000E94A016EBEDF1E081918111F0C283EEFA
:101E200091E08E179F07C1F7C1CF0E942C260E9418
:101E3000F91F0E94A016B4EEEB2EB1E0FB2E1BEDB5
:101E4000C12E11E0D12E2CEE31E0D601F701919197
:101E50008D9189272E173F0719F08823C1F322C0DF
:101E6000811120C00E943B1F8C018091D90190916B
:101E7000DA010817190709F4D8C28FEF8F83888712
:101E800019860E943B1F8160782F9B878A874F812C
:101E9000588569858B850E94A7051093DA01009308
:101EA000D901C3C20E944613882E10E0D6019D902E
:101EB0006D01F701A080A92411F100E0BB24B394C7
:101EC0008B2D8A21B1F08820A1F00C871D8791E02D
:101ED0008B2D892109F490E09E870E943B1F816031
:101EE000782F988B8F874C855D856E8588890E94B9
:101EF000A7050F5FBB0C063019F7D7019C921F5F37
:101F0000BFEFEB1AFB0A183089F60E942F1FDD2461
:101F1000D3940E9446138823E9F080912F0182FF19
:101F200019C00E943B1F2091040530910505AC01AA
:101F3000421B530B20912D0130912E014217530764
:101F400048F04CEE51E0BC018091060590910705E8
:101F50000E9496208091E104882309F451C1809168
:101F60002E0290912F020E94201FC29708F448C0B1
:101F70000E943B1F90932F0280932E0287EC92E0E9
:101F80009093CE048093CD040E9446138823A1F140
:101F900081EE91E00E948B18E091F201F091F30143
:101FA000EF30F105A0F4EE59FF4F0C94992A89ED1A
:101FB00091E008C083ED91E005C08DEC91E002C096
:101FC00086EC91E00E948B1881E00E949421E4EF5E
:101FD000F1E001900020E9F78F0101501109A4EF11
:101FE000EA2EA1E0FA2EE016F10650F4F7018191F5
:101FF0007F010E940C18F7CF89EE91E00E948B18A8
:102000008091E104882309F4E0C02091C502309159
:10201000C6022115310509F4D8C080912D02811125
:10202000D4C0082F10E07201082E02C0EE0CFF1C75
:102030000A94E2F7A9014E215F21452B11F48F5F2D
:10204000F0CF90912C029801F5E0220F331FFA9502
:10205000E1F790FD12C08295880F807680930F0182
:10206000220F232F221F330B319520931201815E03
:10207000809310011092130112C075E036952795D8
:102080007A95E1F7220F220F220F20930F01109271
:102090001201295F2093100183E08093130124E64D
:1020A00030E047E050E06DE071E088E70E94DB2718
:1020B000892B09F08AC080912C0280FD22C0A801E2
:1020C00065E0440F551F6A95E1F749535D4F04E6FB
:1020D00010E020E230E060E488E70E94FC27892BD2
:1020E00009F073C00E946E21E094F0948091C502C3
:1020F0009091C602E822F922F092C602E092C5024F
:1021000064C080E2ECE0F2E0DF011D928A95E9F71D
:10211000A80135E0440F551F3A95E1F7E0E9F1E0F9
:10212000FA8BE98B0CE811E0A989BA898D91BA8BF9
:10213000A98BF80191918F01BA01690F711D695343
:102140007D4F90E0845F9D4FFC0127E0922E9F0120
:10215000281B390B742C01C0770C2A95EAF75B0118
:10216000812CD501CD905D01C720292D281927701C
:10217000622E022E000C330BBC2D01C0BB0F6A94E3
:10218000EAF76B2E3195219531092770332701C06D
:10219000C6942A95EAF76C28C0806C2860828394E4
:1021A00028E08212DECF9A9431963FEF9312CFCF80
:1021B00089899A898459914009F0B6CF04E610E0E4
:1021C00020E230E04CE052E086CF8091E0048823AA
:1021D000B9F00E942F1F0091DC041091DD042091C2
:1021E000DE043091DF04DC01CB01801B910BA20BDC
:1021F000B30B8F3F9F4FAF4FBF4710F40E94542146
:10220000D1100E946E2186E0E6EDF4E0DE01119629
:1022100001900D928A95E1F71092D8041092D9049A
:102220001092DA041092DB048B81811104C08C813E
:10223000882309F453C08091D4049091D5040E945E
:10224000201F9C019091D004992309F4F0C02531FE
:10225000310508F443C09F3F19F09F5F9093D0046D
:102260001B81112361F00E948722111614F09FEF49
:1022700001C091E0899F802D11248093D8041C8196
:10228000112361F00E948722111614F09FEF01C004
:1022900091E0899F802D11248093D9043091D80436
:1022A0003323E1F02091D9042223C1F045EB34031C
:1022B000C0011124992319F09093D80403C081E040
:1022C0008093D80435EB2303C0011124992319F01E
:1022D0009093D90403C081E08093D9048D8181114A
:1022E00004C08E81882309F453C08091D204909158
:1022F000D3040E94201F9C019091CF04992309F4DC
:102300009BC02135310508F443C09F3F19F09F5F02
:102310009093CF041D81112361F00E946522111654
:1023200014F09FEF01C091E0899F802D11248093CC
:10233000DA041E81112361F00E946522111614F047
:102340009FEF01C091E0899F802D11248093DB04D1
:102350003091DA043323E1F02091DB042223C1F031
:1023600045EB3403C0011124992319F09093DA044A
:1023700003C081E08093DA0435EB2303C00111240C
:10238000992319F09093DB0403C081E08093DB0470
:1023900046E050E0BE016F5F7F4F86ED94E00E9403
:1023A0009F2A892BA9F48091D80481110FC08091B4
:1023B000D90481110BC08091DA04811107C081E03A
:1023C0009091DB04911103C080E001C081E080FDA9
:1023D0000E94C42186E0FE013196A6EDB4E0019092
:1023E0000D928A95E1F70E94F91F909130028917AA
:1023F00009F4D5CC809330020E942F1FD0CC09BDA8
:1024000019BD09B400FEFDCF8091D8008F7D809367
:10241000D8008091E00082608093E0008091E0002D
:1024200081FDFCCF0E942C26C1CCD12C72CD2B304B
:10243000310508F012CF52CF2B30310508F067CFAD
:10244000A7CF80E008959091160592FF0DC0282F28
:102450002871283019F4877F846006C0282F2471E2
:10246000243011F48B7F886093FF0DC0282F2871D2
:10247000283119F4877E846106C0282F2471243105
:1024800011F48B7E88612091170520FF0DC0382F35
:102490003871383019F4877F816006C0382F317168
:1024A000313011F48E7F886021FF0DC0282F2871F4
:1024B000283119F4877E816106C0282F21712131CE
:1024C00011F48E7E886194FD877E0895A0E0B0E0CF
:1024D000ECE6F2E10C94FF297C015B016A0180913A
:1024E00094028A3018F001E010E002C00AE010E027
:1024F000C1E0D0E0B501C701F6010995811115C011
:1025000021960C171D0794F0CC9F9001CD9F300DA4
:10251000300D112480E090E045E34A95F1F700008A
:10252000019682179307C1F7E5CF81E0CDB7DEB7FB
:10253000EAE00C941B2AEF92FF921F93CF93DF9354
:1025400000D000D01F92CDB7DEB77B0180E090E0D5
:102550000E946829882309F463C04091170150E064
:102560004115510511F041E050E060911801709162
:10257000190169577D4FCE0105960E94AC2A409102
:1025800083025091840260918502709186022FB778
:10259000F8948091120590911305A0911405B091C3
:1025A00015052FBF841B950BA60BB70B8436910521
:1025B000A105B10538F488E892E00E94C0189D8119
:1025C000891781F181E090E00E946829182F882303
:1025D00091F040911F0150E04530510510F044E06A
:1025E00050E0609120017091210169577D4FCE012B
:1025F00001960E94AC2A88E892E00E94C01891E0FF
:102600002D81281390E0192341F10E942F1F609320
:1026100083027093840280938502909386020FC098
:1026200010E001C011E08091880290918902A09190
:102630008A02B0918B0289839A83AB83BC83112376
:1026400061F089819A81AB81BC8180937F029093F4
:102650008002A0938102B093820280917F029091C8
:102660008002A0918102B0918202F7018083918360
:10267000A283B383812F0F900F900F900F900F9034
:10268000DF91CF911F91FF90EF90089580917E028E
:10269000811119C088EC90E02091E30027FD0AC069
:1026A000EFE3FCE93197F1F700C000000197A1F7D3
:1026B00082E001C081E080937E02823021F40E949A
:1026C000071C1092BA0281E090917E02913009F0CD
:1026D00080E00895A4E0B0E0E0E7F3E10C94052A7F
:1026E00040919002509191026091920270919302F8
:1026F0002FB7F8948091120590911305A0911405BD
:10270000B09115052FBF841B950BA60BB70B843614
:102710009105A105B10508F441C00E944613882324
:1027200019F00E942F1F0EC00E942F1F0091CB0195
:102730001091CC012091CD013091CE01600F711F1D
:10274000821F931FDC01CB010296A11DB11D89835D
:102750009A83AB83BC838091250190912601895790
:102760009D4F4091240150E04530510510F044E068
:1027700050E0BE016F5F7F4F0E94AC2A82E090E084
:102780000E946829882359F00E942F1F60939002AD
:1027900070939102809392029093930281E0249629
:1027A000E4E00C94212AF894E82FE295EF70F0E031
:1027B00031A1282F2F7081E090E001C0880F2A9569
:1027C000EAF7982F9095932391A392A1892B82A346
:1027D000789408957830A0F4663090F490E3899F5F
:1027E000F001112486E0789FE00DF11D1124E60F21
:1027F000F11DEE0FFF1FE75DFD4F85919491089548
:1028000080E090E00895CF93DF938238910569F1DD
:10281000B0F48133910509F477C048F48932910509
:1028200009F469C08A32910509F473C092C08533F6
:10283000910509F45BC089339105B9F08AC0833EE4
:10284000910591F138F4803E9105D1F0823E9105D9
:1028500031F17FC0863E9105D9F1873E9105E9F1BE
:10286000843E910509F075C028C02091160520FD11
:102870005BC021FD59C02091170523FD61C069C0CF
:102880008091160580FD4AC08091170580FF4CC0DD
:102890008091160584FD4EC183EE90E04DC180917C
:1028A000160582FF3EC0F4CF8091160582FD39C027
:1028B0008091170580FD38C0EBCF8091170581FF0F
:1028C00039C08091160584FD35C187EE90E034C192
:1028D0008091160583FF2BC0F4CF8091160583FDF0
:1028E00026C08091170581FD25C0EBCF809116058C
:1028F00085FD26C022C08091160585FD1EC08091F1
:10290000170583FF1DC00AC08091160586FD1BC0F8
:102910001DC08091160586FD19C015C089E390E0A1
:102920000BC182EE90E008C180EE90E005C186EE1A
:1029300090E002C184EE90E0FFC085E390E0FCC02F
:1029400089E290E0F9C08AE290E0F6C081E390E08D
:10295000F3C0811531E5930708F061C0811520E5CA
:102960009207B0F09C012370332741E050E002C091
:10297000440F551F2A95E2F7282F2695269580E2C9
:10298000289F90011124CA01822B932B9D68D4C0EB
:10299000883E910568F5803E910508F0CDC0883AE3
:1029A0009105B8F4853A910548F0855AE82FF0E092
:1029B000EC56FE4F808190E09064BEC0813091055E
:1029C00009F4B5C008F4B6C08430910508F4B2C06B
:1029D000B3C08F3B910508F0ADC0885AE82FF0E0F6
:1029E000EE0FFF1FE956FE4F808191819464A4C0D1
:1029F000811530E2930758F4811521E0920708F021
:102A00009BC08D3E910508F495C0906595C08115D9
:102A100030E4930708F48EC09F70906A8DC08115D2
:102A200025E5920708F042C0811534E5930728F0A8
:102A3000982F8827846F906A7FC0811523E59207BD
:102A4000B0F09C012370332741E050E002C0440FF6
:102A5000551F2A95E2F7282F2695269580E2289F74
:102A600090011124CA01822B932B9A6865C08115AD
:102A700032E5930728F4982F8827816F906A5CC00D
:102A80009C012370332741E050E002C0440F551FE2
:102A90002A95E2F7282F2695269580E2289F900117
:102AA0001124CA01822B932B9C6846C0EC01C115EE
:102AB00089E5D807B0F4C11528E5D20728F09C2F86
:102AC0008827806F906A38C0C11536E5D30790F526
:102AD0008C2F0E9423128F7190E0982F882790628C
:102AE0002BC0C1158AE5D80790F48C2F8F700E94F7
:102AF000231294E0D695C7959A95E1F7CF70D0E070
:102B0000DC2FCC27D0699E01282BC90115C0CE012E
:102B100090568115904270F48D2F8F710E94231270
:102B2000282F2F71CE0199279062922B05C081E04A
:102B300090E002C080E090E0DF91CF910895CF93C4
:102B400084E090E00E94372AC82F82E290E00E9441
:102B5000372A2C2F30E0A901582BCA01CF910895B4
:102B600068EE7EEF80E090E00E94632A60E082E001
:102B700090E00E94452A60E083E090E00E94452AB0
:102B8000109273021092720260E084E090E00E9462
:102B9000452A64E082E290E00E94452A60E085E0F8
:102BA00090E00E94452A60E086E090E00E94452A7D
:102BB0006FEF87E090E00E94452A40E050E0BA01C4
:102BC00088E090E00E94572A60E08DE090E00E944B
:102BD000452A40E050E0BA0188E190E00E94572A7F
:102BE00060E087E190E00E94452A40E050E0BA01B1
:102BF0008CE190E00E94572A60E070E080E290E073
:102C00000E94632A40E050E0BA0188E190E00E940F
:102C1000572A40E050E0BA018FE090E00E94572A26
:102C200040E050E0BA0183E190E00E94572A089505
:102C3000809171028111109271020895909117058F
:102C400092FF05C0909171029813809371020895CC
:102C500080959091E20489238093E20408959091F5
:102C6000E2048091E304982B9093310280917102E9
:102C70008823D9F0892B8093310280912C018823FD
:102C800031F08091160587FF02C08EE101C086E019
:102C9000E3E3F2E090E0815028F021912223D9F380
:102CA0009F5FF9CF91110E94181640E250E061E554
:102CB00072E081E392E00E949F2A892B21F180E259
:102CC000E1E3F2E0A1E5B2E001900D928A95E1F72F
:102CD000E0910D05F0910E053097A9F080912C013F
:102CE000882359F08091160587FF07C08091310233
:102CF0008093320286E0809331020280F381E02DDE
:102D000081E392E009950895CF93C0911705C2FB26
:102D1000992790F9981791F080FBC2F9C093170595
:102D20006091160584E090E00E94452A6C2F82E2B3
:102D300090E00E94452A82E00E94F825CF910895F4
:102D4000ACE0B0E0E6EAF6E10C94FA29AE014F5FA0
:102D50005F4F7A0188E0DA011D928A95E9F702E86F
:102D600011E06A0186E8682E81E0782EAA24A394F7
:102D7000B12C2CE8822E21E0922EF80180818F3F29
:102D800009F440C0F894E82FE295EF70F0E021A13B
:102D90008F70A50102C0440F551F8A95E2F7CA0142
:102DA000922F982B91A392A18095892382A3789446
:102DB00000C0E6E8F1E0512C31E021912F3F89F08D
:102DC000A22FA295AF70B0E090968C9190E02F70FA
:102DD00002C0959587952A95E2F780FD02C0832F62
:102DE00001C080E0582A330F8E169F0631F7D801B4
:102DF0008C918F3F11F00E94D313B0EABA95F1F78E
:102E0000F60150820F5F1F4FFFEFCF1ADF0A6016E7
:102E1000710609F0B2CF48E050E0B7018FEC91E0C5
:102E20000E949F2A009741F028E0F701AFECB1E043
:102E300001900D922A95E1F70091D801892B49F074
:102E400081E0809376020E943B1F909375028093ED
:102E5000740280917602811102C0F12C22C080910F
:102E60007402909175020E94201F0597B0F310E044
:102E700005521E4F44E050E06FEC71E0C8010E9423
:102E80009F2A892B59F084E0EFECF1E0D801019002
:102E90000D928A95E1F7FF24F39401C0F12C109272
:102EA00076020E944613E091D801882309F45AC0A3
:102EB00019861A861B861C860E2F10E005521E4F9F
:102EC000809194028A3058F44BE952E1BE01675F69
:102ED0007F4FC8010E9466128823A9F00AC0809122
:102EE0007702909178020E94201F843F914060F702
:102EF0001CC04AE653E1BE01675F7F4FC8010E94D4
:102F00006612811174C0809194028F3F19F08F5F17
:102F100080939402809194028A3008F46AC00E94DF
:102F20003B1F909378028093770280917D028823E3
:102F300009F457C0FE01399684E0DF011D928A959D
:102F4000E9F710927D02E091D701F0E0E552FE4FE3
:102F500089859A85AB85BC8580839183A283B38361
:102F600081E040C0F0E0E552FE4F84E0A8E8B2E026
:102F700001900D928A95E1F788E892E00E94C018CE
:102F80008093870280908C0290908D02A0908E0298
:102F9000B0908F028091790290917A02A0917B0289
:102FA000B0917C0288169906AA06BB06D1F08092E1
:102FB000790290927A02A0927B02B0927C020E94E7
:102FC000461381110EC00E942F1F861A970AA80A65
:102FD000B90A8092CB019092CC01A092CD01B0921F
:102FE000CE0180E08F292C96EFE00C94162A1092E7
:102FF00094028091D70190E044E050E0BE01675F09
:103000007F4F85529E4F0E949F2A21E020937D0290
:10301000892B09F098CFE5CFCF93DF93682F8A30C3
:1030200011F481E003C08D3021F480E00E949421EE
:103030006FC08091CD049091CE0426E0FC01A7ECF6
:10304000B4E001900D922A95E1F7603E30F026E061
:10305000FC0111922A95E9F70AC0F6E06F9FB001D2
:103060001124605F7A4F46E050E00E942E2AC09102
:10307000CD04D091CE0446E050E0BE0187EC94E050
:103080000E949F2A892B49F19E01275C3240A901A9
:1030900085E0569547958A95E1F781E090E0BC017F
:1030A00002C0660F771F4A95E2F74091C502509122
:1030B000C602462B572B2B5F3F4F65E03695279571
:1030C0006A95E1F702C0880F991F2A95E2F7842BD1
:1030D000952B9093C6028093C5029E01215C3240DD
:1030E0004091C402642F70E0C9010E94E329481B8B
:1030F000463010F4240F311D211582E0380710F0FE
:1031000020E030E029533D4F3093CE042093CD048E
:10311000DF91CF910895CF93DF93EC01FE0184916D
:10312000882321F00E940C182196F8CFDF91CF91CF
:103130000895EF92FF920F931F93CF93DF93EC01CB
:103140007B0164E670E088E70E9439278C01EC0E71
:10315000FD1ECE15DF0561F017FD0AC0FE0184914A
:1031600064E670E00E94AC278C012196892B89F3DC
:103170000E942328C801CDB7DEB7E6E00C941F2AD1
:10318000FC01AC014C5F5F4F8FEF91E321918227EF
:1031900028E030E087FF03C0880F892701C0880F2F
:1031A00021503109B9F7E417F50781F70895EF9237
:1031B000FF920F931F93CF93DF937C018B010E94AB
:1031C000F11D811119C0E70101151105A1F08091D0
:1031D000E80085FD0AC08091E8008E778093E800C2
:1031E0000E94F11D882381F307C089918093F1002B
:1031F00001501109E9CF80E0CDB7DEB7E6E00C94CD
:103200001F2AAAE2B0E0E7E0F9E10C94062AECEB11
:10321000F2E084EC92E02091F10021938E179F0759
:10322000D1F78091BD02833009F461C030F4813060
:1032300071F0823009F49BC0B2C08A3009F487C0B3
:103240008B3009F46CC0893009F0A9C020C080918E
:10325000BC02813A09F0A3C08091E800877F809387
:10326000E8008091C0029091C102892B21F460E2B4
:1032700088E992E003C060E080E090E070E00E94A6
:10328000781E8091E8008B778093E80088C0809159
:10329000BC02813209F083C08091C0029091C102CA
:1032A000029708F07CC08091E800877F8093E80057
:1032B0008091E80082FD05C08091BA028111F8CFAB
:1032C0006EC02091F3008091F20090E0922B029763
:1032D00031F48091F100813011F0863021F4809139
:1032E000F100809397028091E8008B7754C0809121
:1032F000BC02813A09F053C08091C0029091C10292
:10330000892B09F04CC08091E800877F8093E8000A
:103310008091E80080FFFCCF80912C0137C0809124
:10332000BC028132E1F58091C0029091C102892BEB
:10333000B1F58091E800877F8093E8000E94241E09
:103340008091BE0280932C010E942C2628C080917F
:10335000BC02813221F58091E800877F8093E800EC
:103360000E94241E8091BF028093960218C0809113
:10337000BC02813AA1F48091E800877F8093E80045
:103380008091E80080FFFCCF809196028093F1004D
:103390008091E8008E778093E8000E94241E80913F
:1033A000E80083FFCEC18091BC029091BD02492FFD
:1033B00050E04A30510508F0C4C1FA01EF58FF4F00
:1033C0000C94992A803821F0823809F0BAC108C0DB
:1033D0008091B8029091B902992389F082600FC060
:1033E0008091C0028F70873008F0ABC18093E900F4
:1033F0008091EB0085FB882780F91092E90090917D
:10340000E800977F9093E8008093F1001092F1001C
:1034100065C1282F2D7F09F094C1882319F08230CF
:1034200061F08FC18091BE02813009F08AC1933072
:1034300009F080E08093B9022EC08091BE02811114
:103440002AC08091C0028F702FEF280F263008F01D
:1034500078C18093E9002091EB0020FF1CC09330DD
:1034600021F48091EB00806214C09091EB00906198
:103470009093EB0021E030E0A90102C0440F551FFA
:103480008A95E2F74093EA001092EA008091EB00FF
:1034900088608093EB001092E9008091E800877FBC
:1034A00020C181114EC11091BE021F778091E300AF
:1034B0008078812B8093E3008091E800877F809360
:1034C000E8000E94241E8091E80080FFFCCF8091DC
:1034D000E30080688093E300111102C082E001C024
:1034E00083E08093BA022DC18058823008F029C150
:1034F0008091BE029091BF028C3D53E0950779F513
:1035000083E08A838AE289834FB7F894DE011396B9
:1035100020E03EE051E2E32FF0E050935700E491C9
:1035200020FF03C0E295EF703F5FEF708E2F90E0B9
:10353000EA3010F0C79601C0C0968D939D932F5F1F
:10354000243149F74FBF8091E800877F8093E800DE
:103550006AE270E0CE0101960E94781EAEC04091F2
:10356000C0025091C102292F332723303105A9F021
:1035700068F42130310509F4F3C02230310509F037
:10358000E0C08BE390E0EFE9F4E044C02132310584
:1035900021F12232310571F1D4C099278130910592
:1035A000A1F058F0029709F0CCC0ECEEF4E0E49101
:1035B0008E2F90E0ECEEF4E02AC0ECE0F5E0E49130
:1035C0008E2F90E0ECE0F5E022C0EAEFF4E0E49129
:1035D0008E2F90E0EAEFF4E01AC04115510509F48E
:1035E000C4C04130510509F0ACC089E090E0EAEC7C
:1035F000F4E010C04115510509F4BCC0413051053B
:1036000009F09FC086EB90E0E9EAF3E003C0009781
:1036100009F497C02091E800277F2093E8002091CB
:10362000C2023091C3028217930708F49C0140E064
:103630002115310589F18091BA02882309F43DC032
:103640008530D9F18091E80083FD37C08091E80092
:1036500082FD2FC08091E80080FFEACF4091F30007
:103660008091F20090E0942B2115310559F08830BB
:10367000910540F444914093F10031962150310975
:103680000196F2CF41E0089709F040E08091E80010
:103690008E778093E800CCCF4111CDCF0AC08091C6
:1036A000BA02882351F0853041F08091E80083FD13
:1036B00004C08091E80082FFF2CF8091E8008B7710
:1036C0008093E8003EC08038E1F58091E800877F74
:1036D0008093E8008091BB028093F1008091E80024
:1036E0008E778093E8000E94241E2BC0811129C090
:1036F0008091BE029091BF029927029714F58091A4
:10370000E800877F8093E8001091BE021093BB020F
:103710000E94241E111106C08091E30087FD02C0A3
:1037200081E001C084E08093BA0242E061EC81E074
:103730000E94431E42E261EC82E00E94431E80919F
:10374000BA028091E80083FF1AC08091E800877F69
:103750008093E8008091EB0080628093EB000FC0C3
:1037600082E190E0EAEDF4E055CF89E090E0E1EB12
:10377000F4E050CF80E490E0EFE5F4E04BCFAA9680
:10378000E3E00C94222A1F920F920FB60F9211249D
:103790002F933F934F935F936F937F938F939F9359
:1037A000AF93BF93CF93DF93EF93FF93C091E90063
:1037B000CF708091EC00D82FD17080FDD0E81092AE
:1037C000E9008091F000877F8093F00078940E9458
:1037D00001191092E9008091F00088608093F00058
:1037E000CD2BCF70C093E900FF91EF91DF91CF9186
:1037F000BF91AF919F918F917F916F915F914F9109
:103800003F912F910F900FBE0F901F901895E8EDEC
:10381000F0E080818E7F80831092E2001092DA00C7
:103820001092E100A0EEB0E08C9181608C938081D9
:103830008F77808319BCA7EDB0E08C918E7F8C933D
:1038400080818F7E8083109295020895A0E0B0E081
:10385000ECE2FCE10C94012AC8EDD0E088818F7E77
:103860008883E7EDF0E080818160808384E082BF1F
:1038700081E08093950288818E7F888302EE10E03C
:10388000F80110821092DA0081EEC82ED12CF601D8
:10389000108288818F778883888180688883888177
:1038A0008F7D888319BC1092BA021092BB021092CD
:1038B000B9021092B80290EEE92EF12CF701808146
:1038C0008B7F808388818160888342E060E080E034
:1038D0000E94431EF60180818E7F8083F8018081E3
:1038E00081608083808188608083F70180818E7F02
:1038F0008083888180618883CDB7DEB7E8E00C944F
:103900001D2A1F920F920FB60F9211242F933F93EF
:103910004F935F936F937F938F939F93AF93BF93D7
:10392000EF93FF938091E10082FF09C08091E20054
:1039300082FF05C08091E1008B7F8093E100809140
:10394000DA0080FF2AC08091D80080FF26C08091D5
:10395000DA008E7F8093DA008091D90080FF18C052
:1039600080E189BD82E189BD09B400FEFDCF81E01F
:103970008093BA028091950281110FC00E94071CAA
:103980000E94261C8091E20084608093E20005C0C2
:1039900019BC1092BA02109295028091E10080FF4A
:1039A00017C08091E20080FF13C08091E2008E7FFB
:1039B0008093E2008091E20080618093E200809138
:1039C000D80080628093D80019BC85E08093BA0249
:1039D0008091E10084FF30C08091E20084FF2CC020
:1039E00080E189BD82E189BD09B400FEFDCF8091EF
:1039F000D8008F7D8093D8008091E1008F7E8093E6
:103A0000E1008091E2008F7E8093E2008091E200ED
:103A100081608093E2008091BB02882311F084E0F2
:103A200007C08091E30087FD02C081E001C083E010
:103A30008093BA028091BA028091E10083FF27C08F
:103A40008091E20083FF23C08091E100877F809313
:103A5000E10082E08093BA021092BB028091E10003
:103A60008E7F8093E1008091E2008E7F8093E20060
:103A70008091E20080618093E20042E060E080E0BB
:103A80000E94431E8091F00088608093F000FF91B7
:103A9000EF91BF91AF919F918F917F916F915F91C6
:103AA0004F913F912F910F900FBE0F901F9018953F
:103AB00008958091970208958093180570931A05D0
:103AC000609319058091BA02843001F582E08093F9
:103AD000E9008FEF9091E800815095FD06C095EDCB
:103AE0009A95F1F700008111F5CF8091E80085FFEC
:103AF0000DC040E050E063E070E088E195E00E9496
:103B0000D7188091E8008E778093E8000895BC0173
:103B100084E00E945C1D0895BC0183E00E945C1D4E
:103B2000089522E02093E9002FEF3091E800215022
:103B300035FD06C035ED3A95F1F700002111F5CFBE
:103B40002091E80025FF0BC040E050E066E070E007
:103B50000E94D7188091E8008E778093E80008953E
:103B6000CF93DF9320912C01222339F02091160569
:103B700027FF03C060E222E002C068E021E020935A
:103B8000E9002FEF3091E800215035FD06C035EDFA
:103B90003A95F1F700002111F5CF2091E80025FFBB
:103BA0001DC0EC0180912C01811105C040E050E066
:103BB00068E070E003C070E040E050E0CE010E9499
:103BC000D7188091E8008E778093E80080E2FE01AC
:103BD000A8E9B2E001900D928A95E1F7DF91CF91CB
:103BE00008952091E4003091E50095E64091EC00C5
:103BF000842F817040FF23C08091E80080FD1DC0AC
:103C00008091BA02882399F0853099F08091EB0079
:103C100085FD11C04091E4005091E500241735075F
:103C200029F3915011F09A01E1CF84E0089582E0E8
:103C3000089583E0089581E0089580E0089540911B
:103C4000E80042FFDDCF08958091BC0287FF11C0DC
:103C50008091E80082FD05C08091BA028111F8CF01
:103C600011C08091E8008B770BC08091BA02882345
:103C700049F08091E80080FFF8CF8091E8008E77CE
:103C80008093E8000895982F973068F59093E900A5
:103C9000981739F07091EC002091ED005091F000F0
:103CA00003C0242F762F50E021FD02C09F5FECCF90
:103CB0003091EB003E7F3093EB003091ED003D7F83
:103CC0003093ED003091EB0031603093EB00709356
:103CD000EC002093ED005093F0002091EE0027FDC2
:103CE000E5CF80E008958F708093E90081E008952A
:103CF0002091C2023091C3022617370748F06115A0
:103D0000710539F42091E8002E772093E80001C076
:103D1000B901FC0120E06115710579F18091BA02C9
:103D20008823F1F18530F1F18091E80083FD3CC0FA
:103D30008091E80082FD2EC08091E80080FFEBCFEB
:103D40002091F3008091F20090E0922B61157105B3
:103D500051F08830910538F421912093F1006150A1
:103D600071090196F3CF21E0089709F020E08091D6
:103D7000E8008E778093E800CECF2111CFCF0AC024
:103D80008091BA02882361F0853061F08091E8006B
:103D900083FD0AC08091E80082FFF2CF80E00895A1
:103DA00082E0089583E0089581E0089581E08093A2
:103DB000E00080E28093D8001092C9008FE19EE479
:103DC0000197F1F700C0000087E090EBDC018093E1
:103DD0006C0590936D05A0936E05B0936F059CE004
:103DE00088E10FB6F894A895809360000FBE909379
:103DF0006000FFCF78941F920F920FB60F9211249C
:103E00008F939F93AF93BF93809112059091130569
:103E1000A0911405B09115050196A11DB11D8093C7
:103E2000120590931305A0931405B0931505BF9147
:103E3000AF919F918F910F900FBE0F901F9018958B
:103E40009C014FB7F8948091120590911305A091B1
:103E50001405B09115054FBF821B930B08952FB722
:103E6000F89460911205709113058091140590915A
:103E700015052FBF08952FB7F894809112059091E2
:103E80001305A0911405B09115052FBF08951F9239
:103E90000F920FB60F9211248F939F93AF93BF93FE
:103EA00080911105811113C0809112059091130525
:103EB000A0911405B09115054196A11DB11D8093E7
:103EC000120590931305A0931405B0931505BF91A7
:103ED000AF919F918F910F900FBE0F901F901895EB
:103EE00020912C012223C9F02091160527FF15C02F
:103EF000262F2695269526952E31C8F4FC01E20F33
:103F0000F11D677081E090E001C0880F6A95EAF7C3
:103F100080959281892382830895FC0106962281EF
:103F2000621301C012823196E817F907C1F70895AC
:103F300020912C012223C1F02091160527FF14C0E7
:103F4000262F2695269526952E3130F5FC01E20F79
:103F5000F11D677081E090E001C0880F6A95EAF773
:103F60009281892B82830895FC0132962FEF30E0F5
:103F70004191641789F02F3F19F4411101C0232F9B
:103F80003F5F3630A9F72F3F39F0FC01E20FF11DFA
:103F900027FDFA9562830895089520910F053091C9
:103FA00010052817390771F09093100580930F05BD
:103FB000E0910D05F0910E05309721F00084F18518
:103FC000E02D0995089520910B0530910C052817D7
:103FD000390771F090930C0580930B05E0910D0566
:103FE000F0910E05309721F00680F781E02D0995BC
:103FF00008950E944613882359F0E0910D05F09131
:104000000E05309729F00190F081E02D0995089573
:1040100080E008950F931F93CF93DF93C42FD22F87
:10402000FC0182818823B1F040930A050E943B1F66
:10403000909309058093080580E28C0F883008F082
:104040004DC0C77081E001C0880FCA95EAF70E9491
:104050005E2644C080910A05481330C0809108054F
:10406000909109050E94201F8436910538F510E2D1
:104070001D0FCD17B9F080E28C0F883040F4C77067
:1040800081E001C0880FCA95EAF70E9457261830D0
:1040900010F581E09D2F977001C0880F9A95EAF77F
:1040A0000E945E26802F0E9414271830B8F4D77023
:1040B00081E001C0880FDA95EAF70AC080E28C0F30
:1040C000883060F4C77081E001C0880FCA95EAF7B4
:1040D0000E94572603C0802F0E941427DF91CF91A2
:1040E0001F910F91089580912F01877F80932F0159
:1040F0009091E3049D7F9093E30484FF08C08F7E3A
:1041000080932F018091E20482608093E204809189
:104110002F0185FF08C08F7D80932F018091E204DD
:1041200080628093E2040E942F160895A0E0B0E020
:10413000ECE9F0E20C94022AEC018B0180912F0152
:1041400082FF8FC0E0900605F0900705EC16FD0693
:1041500019F0209709F085C080912F018B7F809303
:104160002F0181FD11C08091040590910505A801E2
:10417000481B590B81E020912D0130912E014217EF
:10418000530718F480E001C081E08170D82E80913F
:104190002F01D0FA81F980932F01E701DD27FE017D
:1041A00084E0F695E7958A95E1F797012F7033271C
:1041B000EE0FFF1FEC51FB4F81E090E002C0880F33
:1041C000991F2A95E2F7DD2029F020813181822B89
:1041D000932B06C080959095208131818223932373
:1041E000918380838091E20481FF08C080912F0138
:1041F000806180932F0182E00E9428168091E20462
:1042000085FF08C080912F01806280932F0180E29A
:104210000E942816DD2029F08091E30482608093BB
:10422000E304C7019056811520E2920720F0905ECA
:104230008115904108F47E01C7010E945E068091BD
:104240000605909107059C013056211540E2340780
:1042500020F0305E2115304108F499270E94440671
:1042600018C09E013327CE019056811540E2940775
:1042700020F0905E8115904110F4C90101C0CE017B
:104280000E9444068091060590910705C817D9073A
:1042900011F40E9473201093050500930405CDB717
:1042A000DEB7E7E00C941E2A8091E1049091E004CF
:1042B000882389F0992369F062E070E082E59AE052
:1042C0000E949918892B19F08091E00408951092AA
:1042D000E0049091E00481E0892708958091E10451
:1042E0008823F9F00E942F1FDC01CB01805A9541F1
:1042F000AF4FBF4F8093DC049093DD04A093DE04A6
:10430000B093DF048091E00481110BC062E070E0A3
:1043100080E59AE00E949918892B19F481E0809336
:10432000E0048091E0040895CF93E82F2091CD041C
:104330003091CE04275C32404091C402642F70E07B
:10434000C9010E94E329481B842FEE2351F066E047
:104350000E94792AC82FC150A8F080E20E940C1850
:10436000FACFA901480F511D4115524018F080E0C5
:1043700020E030E0280F311D29533D4F3093CE040B
:104380002093CD04CF9108950E943B1F2091D80423
:10439000211104C02091D904222321F09093D50447
:1043A0008093D4042091DA04211104C02091DB040D
:1043B000222321F09093D3048093D204E0910D0541
:1043C000F0910E05309749F082E08093D604048086
:1043D000F581E02D86ED94E0099508958D3E39F440
:1043E0009091D90497FF35C01092D90459C08E3EE0
:1043F00029F49091D9041916BCF32BC09091D804DC
:104400008F3E29F497FF25C01092D80449C0803F01
:1044100019F41916CCF31DC09091DA04893F29F4E0
:104420001916BCF41092DA043BC08A3F19F497FFC6
:1044300010C0F8CF8B3F39F49091DB0497FF09C08F
:104440001092DB042DC08C3F21F49091DB041916EF
:10445000BCF39FE0980F983080F421E030E0A90190
:1044600002C0440F551F9A95E2F7CA0180959091BA
:10447000D70489238093D70413C08D3F21F4809102
:10448000D1048E7F0BC08E3F21F48091D1048D7FAB
:1044900005C08F3F29F48091D1048B7F8093D10494
:1044A0008091D804811106C08091D904811102C085
:1044B0001092D0048091DA04811106C08091DB044F
:1044C000811102C01092CF0408958091D10480FD23
:1044D00016C081FD16C082FD18C08091CF048823CC
:1044E00091F0883290F428E0829FC001112468E2A4
:1044F00070E00E94852A862F672B29F007C082E092
:10450000089584E0089581E0089588E008958091F9
:10451000D10480FD14C081FD14C082FD16C08091BD
:10452000D004882381F08E3180F420E5829FC00181
:1045300011246EE170E00E94852A862F089584E19F
:10454000089588E2089588E0089580E508958D3EF5
:1045500021F40E948722819504C08E3E29F40E9496
:1045600087228093D90408958F3E21F40E948722E8
:10457000819504C0803F29F40E9487228093D8044B
:104580000895893F19F40E94652205C08A3F31F4DD
:104590000E94652281958093DA0408958B3F21F46F
:1045A0000E946522819504C08C3F29F40E946522F7
:1045B0008093DB0408959FE0980F983078F421E011
:1045C00030E0A90102C0440F551F9A95E2F7CA01D5
:1045D0009091D704892B8093D70408958D3F21F4BF
:1045E0008091D10481600BC08E3F21F48091D10471
:1045F000826005C08F3F29F48091D104846080934C
:10460000D104089580E090E00E94E31F80E090E0F4
:104610000E94CD1F1092E3040E942F16E6EDF4E0F5
:1046200086E0DF011D928A95E9F71092D00410927E
:10463000CF041092D1040E94C421089580916A058C
:1046400090913905891719F08F5F8770FBCF089516
:104650000F931F93CF93DF938091380582958F70CE
:1046600009F05AC080913505882309F455C080911E
:104670006A05109139056091330570913405C09138
:104680003605D091370591E06F3F09F090E0292F72
:1046900006E0811709F440C0209721F07F3F21F008
:1046A00030E003C031E001C0322F90E030FD31C076
:1046B000089FF001099FF00D1124DF01A65CBA4F9D
:1046C00011963C911197371324C03C91361321C0A9
:1046D00012963C91129731111CC013964D915C912A
:1046E00014974C1B5D0B4436510598F480913805A6
:1046F0008F70806180933805E15CFA4F80818F7004
:104700008061808383E395E00E9478060E941E23E7
:1047100003C001968770BDCFDF91CF911F910F919C
:104720000895A0E0B0E0E7E9F3E20C94002A7C01F0
:104730000091F2011091F301809172029091730245
:10474000082B192BCFE0D0E0CC24C394D12CC60188
:104750000C2E02C0880F991F0A94E2F78023912340
:10476000892B21F4219798F7B12C09C0BC2EB701F1
:104770008C2F0E94EA130E940314019799F38B2D4A
:10478000CDB7DEB7E9E00C941C2ACF93DF93EC01A0
:104790000E949123BE010E94EA130E940314DF913C
:1047A000CF910895CF93FC01808191812381348141
:1047B000232B31F09F3F31F491E08F3F19F403C078
:1047C00091E001C090E0C92FC17090FD1CC08081B4
:1047D00091810E94C52392959F70963079F010F4D4
:1047E000925001C09A50923088F4803F71F018F4D2
:1047F000883E60F40AC0843F49F407C0883E28F030
:10480000813F21F402C0C0E001C0C1E08C2FCF91F4
:104810000895A1E1B0E0EFE0F4E20C94FE298C01F0
:1048200085E0F801DE011D9601900D928A95E1F771
:10483000F801E2809091330560913405409136058E
:10484000509137054115510531F06F3F31F481E04A
:104850009F3F19F403C081E001C080E0F82FF170A0
:104860009F2E80FD03C1F80130812181C380D48057
:1048700083E3A82E85E0B82EF0903505F601E41B01
:10488000F50BFF2009F4CBC080913805E436F10523
:1048900008F096C0482F407F09F051C0621311C044
:1048A00093130FC0FE2CE1100CC08F7080618093B9
:1048B0003805C5010E94780680913805F801858386
:1048C00012C1C114D10431F02F3F31F481E03F3FD8
:1048D00019F403C081E001C080E080FD03C081E0E5
:1048E0008E2502C080E090E0F82FF170FF2E80FF4F
:1048F0001CC080916A054091390556E0841709F47F
:10490000D0C090E0589FF001599FF00D1124E65C53
:10491000FA4F6181261306C06081631303C0628170
:10492000E61203C001968770E9CFFE2CEE2009F451
:10493000DAC0809138058160809338054DC06213DC
:104940000AC0931308C0E11006C0F8018583C801AE
:104950000E9478066EC0C8010E94D223882351F1BC
:10496000EE2041F120913805822F82958F7090E0E2
:10497000029774F0809133059091340598878F8366
:104980001986DB86CA862C87CE0107960E94780698
:1049900086E0F801A3E3B5E001900D928A95E1F776
:1049A0000E9428230AC06217C9F0C8010E94D223BE
:1049B00081111EC0C8010E947806FF24F39493C0A1
:1049C000482F407F81F783E395E00E94780686E0D8
:1049D000F50111928A95E9F7F12C85C09313E5CF83
:1049E000E110E3CFF8018583C8010E94780638C042
:1049F000EE2001F320913805822F82958F7090E090
:104A0000029734F280913305909134059A8389831B
:104A10001B82DD82CC822E83CE010196B7CFE43695
:104A2000F105F0F4FE2CEE2029F262130BC0931373
:104A300009C086E0F801A3E3B5E001900D928A95E4
:104A4000E1F751C0C8010E94D2238111A1CF80910A
:104A50003805816080933805C8010E94780643C0FC
:104A600086E0F50111928A95E9F73DC0EE2009F440
:104A7000A1CFC8010E94D223F82E882309F49ACF2F
:104A800086E0F801A3E3B5E001900D928A95E1F785
:104A900080913305909134050E94C5230E942823FC
:104AA00022C03D872E878D859E850E94C523292F94
:104AB00022952F70223028F49F7039F0811105C0A3
:104AC0000BC0243028F49F7049F4805E883020F0B9
:104AD000C8010E9478069F2CF92C05C0F801958129
:104AE000907F99F7F9CF8F2D6196EBE00C941A2AFD
:104AF000983078F5863068F5E82FF0E086E0989FEA
:104B0000E00DF11D11249E2F977083E0F695E79537
:104B10008A95E1F7EE0FFF1FEE0FFF1FE55EFA4FDC
:104B200040E050E080E0219130E0092E02C036954F
:104B300027950A94E2F721703327042E01C0220F33
:104B40000A94EAF7822B4F5F5F4F4430510559F7C3
:104B5000089580E00895983088F5863078F5E82F3C
:104B6000F0E086E0989FE00DF11D11248E2F8770F4
:104B700051E001C0550F8A95EAF783E0F695E79575
:104B80008A95E1F7EE0FFF1FEE0FFF1FE55EFA4F6C
:104B900020E030E070E04081CB01022E02C096950B
:104BA00087950A94E2F7817081958427852384276D
:104BB00081932F5F3F4F2430310569F7089590931B
:104BC000F3018093F2010E940223089521E030E076
:104BD00002C0220F331F8A95E2F72095309580910D
:104BE000F2019091F301822393230E94DF2508951F
:104BF00020916B058095822380936B05982F977089
:104C000099F430E0482F082E000C550B2417350777
:104C100059F09091170592FF07C085958595859568
:104C20000E94E62510926B05089521E030E002C055
:104C3000220F331F8A95E2F78091F2019091F301E0
:104C4000822B932B0E94DF2508959093730280930B
:104C500072020E94022308951092E20480912C01B6
:104C6000882331F08091160587FF02C08EE101C0D4
:104C700086E0E3E3F2E0DF011D928A95E9F70E9406
:104C800002230895882341F080959091E3048923BD
:104C90008093E3040E942F160895882339F09091A1
:104CA000E304892B8093E3040E942F160895882340
:104CB00021F00E9428160E942F160895882339F0AB
:104CC0009091E204892B8093E2040E942F160895AC
:104CD000882391F19CEF980F913A30F4682F81E38B
:104CE00092E00E94701F0DC090E2980F983060F41F
:104CF000877091E001C0990F8A95EAF7892F0E9489
:104D000028160E942F1608959BE5980F933028F4DB
:104D100080E090E00E94E31F089598E5980F973196
:104D200028F480E090E00E94CD1F08958D3E20F091
:104D30000E94EE210E94C4210895CF93882309F494
:104D400071C0C82F8CEF8C0F813AC0F580912C0177
:104D50008823E1F08091160587FF18C0EC2FE695B7
:104D6000E695E695F0E0EF5CFD4F8281282F30E07C
:104D70004C2F477081E090E002C0880F991F4A9540
:104D8000E2F782239323892B61F412C0E3E3F2E07C
:104D900089E392E02191C21721F08E179F07D1F786
:104DA00007C06C2F81E392E00E94701F0E942F16B3
:104DB0006C2F81E392E00E94981F10C080E28C0F5C
:104DC000883078F4C77081E090E001C0880FCA9500
:104DD000EAF79091E204892B8093E2040E942F1657
:104DE00021C0EBE5EC0FE33040F4F0E0EC56FE4F71
:104DF000808190E00E94E31F15C0E8E5EC0FE731E9
:104E000050F4F0E0EE0FFF1FE956FE4F80819181D4
:104E10000E94CD1F07C0CD3E28F08C2F0E94A722F4
:104E20000E94C421CF9108951F93CF93DF93182F31
:104E3000893319F0C0E0D0E002C0C0E5D0E0812F96
:104E40000E949D26209741F08FE99FE00197F1F79E
:104E500000C000002197F6CF812F0E946826DF91C5
:104E6000CF911F9108951092B9008CE08093B80003
:104E70000895A0E0B0E0EFE3F7E20C94FE29B82E2D
:104E8000EB010E943B1F6C01C431D10558F0CF3FAC
:104E90008FEFD80759F0CE0164E170E00E94E3295A
:104EA0007B0107C0EE24E394F12C03C025E0E22E41
:104EB000F12C84E8A82E94EA992E1092BC009092CE
:104EC000BC000E943B1F8C018091BC0087FD07C085
:104ED000C8010E94201FE816F906B0F729C080918A
:104EE000B900887F883041F08091B900887F803197
:104EF00019F00FEF1FEF1EC0B092BB00A092BC00D4
:104F00000E943B1F8C018091BC0087FD07C0C80137
:104F10000E94201FE816F906B0F70AC08091B90078
:104F2000887F883111F0803421F700E010E00EC056
:104F30000EEF1FEFCF3F8FEFD80709F4BECFC601AA
:104F40000E94201FC817D90708F0B7CFC801CDB7F6
:104F5000DEB7EBE00C941A2A0F931F93CF93DF93E5
:104F6000EB018093BB0084E88093BC000E943B1F50
:104F70008C018091BC0087FD0DC0CF3F8FEFD8071B
:104F8000C1F3C8010E94201FC817D90790F78EEF00
:104F90009FEF0CC02091B900287F81E090E028327B
:104FA00011F480E090E0919581959109DF91CF9186
:104FB0001F910F910895A0E0B0E0E1EEF7E20C94AC
:104FC000012A6B018A017901B9010E943927E601A2
:104FD0000C0D1D1DC017D10741F424E92093BC001E
:104FE000CDB7DEB7E8E00C941D2A97FDF6CFB701E8
:104FF00089910E94AC27EECFA0E0B0E0E2E0F8E2B9
:105000000C94012AC62F6A017901B8010E94392740
:1050100097FD11C0B8018C2F0E94AC27E601EC0C63
:10502000FD1CCE15DF0539F097FD05C0B80189914B
:105030000E94AC27F6CF24E92093BC00CDB7DEB7A1
:10504000E8E00C941D2A84E98093BC0008958EE169
:105050004A9B02C08150E1F74A9BFECF08955A98BF
:1050600080E28A95F1F75A9A0895FC012AE02A9580
:10507000F1F728E090E080E031E040E14A95F1F777
:10508000880F4A9B02C08160932700C0000040E166
:105090004A95F1F7215089F720E12A95F1F729B1D6
:1050A00000C0000030E13A95F1F722FB222720F9F9
:1050B00092272081920F90830895A1E0B0E0E3E66B
:1050C000F8E20C94032A19828C017C01E60EF11C93
:1050D0000E151F0551F00E942728CE0101960E944F
:1050E0003528F80181938F01F3CF81E099819111E7
:1050F00080E02196E6E00C941F2A529A5A9A08956D
:1051000052985A9AEA9AE9E6F0E080818F7C80838F
:105110000895615091E001C0990F6A95EAF720E087
:1051200031E0992361F0492F482319F05A9A232737
:1051300001C05A9840E24A95F1F79695F2CF2223A2
:1051400011F05A9A01C05A9880E28A95F1F75A985C
:105150000895FF920F931F93CF93DF93EC018C017F
:10516000060F111DC017D10741F0F9900E942F289A
:1051700068E08F2D0E948928F5CFCDB7DEB7E5E036
:105180000C94202A1F920F920FB60F9211240F93A6
:105190001F932F933F934F935F936F937F938F93BF
:1051A0009F93AF93BF93EF93FF93CF93DF931F92A0
:1051B000CDB7DEB719820E942728CE0101960E9442
:1051C0003528082F069506950695902F969595708B
:1051D000202F2570920F292F237096959695920F68
:1051E000877089135FC0898181115CC0043008F029
:1051F00059C080E18A95F1F75A9A529A82E08A95CD
:10520000F1F700C05A9888E0089F80011124D80166
:10521000AC5EBE4F1696ED91FC9117973097A9F0B2
:105220006091C5017091C60114962D913C9115971E
:10523000260F371F11968D919C911297680F791F39
:1052400013964C9113978C910995F801EC5EFE4FE3
:105250006381662351F08091C5019091C60124813C
:105260003581820F931F0E94A9280E942F2880E178
:105270008A95F1F75A9852985A9A80E18A95F1F7EF
:10528000F801EC5EFE4F6081662351F08091C5010C
:105290009091C60121813281820F931F0E945D2867
:1052A0000E9427280F90DF91CF91FF91EF91BF913E
:1052B000AF919F918F917F916F915F914F913F91AE
:1052C0002F911F910F910F900FBE0F901F90189567
:1052D0000F931F93CF93DF93843091050CF06DC033
:1052E000EC01F894529A5A9885E08A95F1F70000FB
:1052F0009C2F969595702C2F2570920F892F837077
:105300009695969523E0CC0FDD1F2A95E1F7980F2F
:105310008E01092B0E942F2884E08A95F1F700C0A6
:1053200068E0802F0E94892880E18A95F1F75298E1
:105330005A9A4A9902C000C0FCCF87E090E04A9B8D
:1053400008C0019721F4529A5A9A789436C000C046
:10535000F6CFFE01EC5EFE4F6381662381F0809103
:10536000C5019091C60124813581820F931F0E944F
:105370005D28811104C0529A5A9A78941FC00E94E5
:10538000272880E28A95F1F75A98529A80E18A9507
:10539000F1F7CC5EDE4F6881662351F08091C50144
:1053A0009091C60129813A81820F931F0E94A928FA
:1053B0000E942F28789481E001C080E0DF91CF9196
:1053C0001F910F910895AA1BBB1B51E107C0AA1F93
:1053D000BB1FA617B70710F0A61BB70B881F991F96
:1053E0005A95A9F780959095BC01CD0108952F920B
:1053F0003F924F925F926F927F928F929F92AF9265
:10540000BF92CF92DF92EF92FF920F931F93CF93B1
:10541000DF93CDB7DEB7CA1BDB0B0FB6F894DEBF48
:105420000FBECDBF09942A88398848885F846E846E
:105430007D848C849B84AA84B984C884DF80EE80B8
:10544000FD800C811B81AA81B981CE0FD11D0FB6C1
:10545000F894DEBF0FBECDBFED010895FB01DC0166
:1054600002C005900D9241505040D8F70895F99927
:10547000FECF92BD81BDF89A992780B50895A8E125
:10548000B0E042E050E00C946B2A262FF999FECF51
:1054900092BD81BDF89A019700B4021639F01FBA87
:1054A00020BD0FB6F894FA9AF99A0FBE08950396A4
:1054B000272F0E94462A0E94452A252F0E94462A0D
:1054C000242F0C94462A0196272F0E94462A0C94DA
:1054D000452ADC01CB01FC01F999FECF06C0F2BDE3
:1054E000E1BDF89A319600B40D9241505040B8F7A2
:1054F0000895991B79E004C0991F961708F0961B30
:10550000881F7A95C9F78095089597FB072E16F4A2
:10551000009407D077FD09D00E94E32907FC05D04D
:105520003EF4909581959F4F0895709561957F4FBA
:105530000895EE0FFF1F0590F491E02D0994FB01F3
:10554000DC0104C08D910190801921F4415050403C
:10555000C8F7881B990B0895FB01DC0102C001907C
:105560000D9241505040D8F70895AEE0B0E0EBEB1B
:10557000FAE20C94052A0D891E898F89988D26E000
:105580002C831A83098397FF02C080E090E801977B
:105590009E838D83AE01455E5F4F698D7A8DCE010E
:1055A00001960E94E52A4D815E8157FD0AC02F8138
:1055B0003885421753070CF49A01F801E20FF31FE4
:1055C00010822E96E4E00C94212AABE0B0E0EBEEE2
:1055D000FAE20C94F7296C017B018A01FC01178225
:1055E0001682838181FFCCC1CE0101963C01F60178
:1055F0009381F70193FD859193FF81917F0188232A
:1056000009F4BAC1853239F493FD859193FF8191F4
:105610007F01853229F4B60190E00E94DC2CE7CFAF
:10562000912C212C312CFFE1F315D8F08B3279F03D
:1056300038F4803279F08332A1F4232D20611DC02B
:105640008D3261F0803369F4232D216016C0832DE3
:105650008260382EE32DE4603E2E2AC0F32DF860E0
:105660001DC037FC2DC020ED280F2A3040F08E32AF
:10567000B9F436FC81C1232D2064322E19C036FEC8
:1056800006C08AE0989E200D1124922E11C0EAE0F7
:105690002E9E200D1124222EF32DF0623F2E08C0E5
:1056A0008C3621F4832D8068382E02C0883641F470
:1056B000F70193FD859193FF81917F018111B3CF14
:1056C000982F9F7D9554933028F40C5F1F4F9FE3D4
:1056D00099830DC0833631F0833771F0833509F03B
:1056E00059C021C0F801808189830E5F1F4F882433
:1056F0008394912C530113C02801F2E04F0E511CEA
:10570000F801A080B18036FE03C0692D70E002C0B0
:105710006FEF7FEFC5010E94D12C4C018201F32D68
:10572000FF773F2E16C0280122E0420E511CF801DF
:10573000A080B18036FE03C0692D70E002C06FEF1B
:105740007FEFC5010E94C62C4C01F32DF0683F2E5F
:10575000820133FC1BC0822D90E088169906B0F4BC
:10576000B60180E290E00E94DC2C2A94F4CFF5018F
:1057700037FC859137FE81915F01B60190E00E9470
:10578000DC2C21102A9421E0821A910881149104C2
:1057900071F7E8C0843611F0893641F5F80137FE1B
:1057A00007C060817181828193810C5F1F4F08C0A7
:1057B00060817181072E000C880B990B0E5F1F4FC3
:1057C000F32DFF763F2E97FF09C090958095709539
:1057D00061957F4F8F4F9F4FF0683F2E2AE030E05A
:1057E000A3010E94182D882E861845C0853731F4F4
:1057F000232D2F7EB22E2AE030E025C0932D997FF5
:10580000B92E8F36C1F018F4883579F0B5C08037DD
:1058100019F0883721F0B0C0E92FE061BE2EB4FE48
:105820000DC0FB2DF460BF2E09C034FE0AC0292F25
:105830002660B22E06C028E030E005C020E130E04E
:1058400002C020E132E0F801B7FE07C0608171813B
:10585000828193810C5F1F4F06C06081718180E05F
:1058600090E00E5F1F4FA3010E94182D882E86180E
:10587000FB2DFF773F2E36FE0DC0232D2E7FA22E4F
:10588000891458F434FE0BC032FC09C0832D8E7E7F
:10589000A82E05C0B82CA32C03C0B82C01C0B92C6D
:1058A000A4FE0FC0FE01E80DF11D8081803321F4BC
:1058B0009A2D997EA92E09C0A2FE06C0B394B39476
:1058C00004C08A2D867809F0B394A3FC11C0A0FE11
:1058D00006C0B21488F4280C922C9B180EC0B21487
:1058E00060F4B60180E290E00E94DC2CB394F7CF24
:1058F000B21418F42B1802C0982C212CA4FE10C04E
:10590000B60180E390E00E94DC2CA2FE17C0A1FC4F
:1059100003C088E790E002C088E590E0B6010CC0C3
:105920008A2D867859F0A1FE02C08BE201C080E288
:10593000A7FC8DE2B60190E00E94DC2C891438F4BB
:10594000B60180E390E00E94DC2C9A94F7CF8A9411
:10595000F301E80DF11D8081B60190E00E94DC2C7E
:105960008110F5CF222009F442CEB60180E290E00A
:105970000E94DC2C2A94F6CFF6018681978102C022
:105980008FEF9FEF2B96E2E10C94132AFC01059018
:10599000615070400110D8F7809590958E0F9F1F31
:1059A0000895FC016150704001900110D8F7809576
:1059B00090958E0F9F1F08950F931F93CF93DF93A2
:1059C000FB01238121FD03C08FEF9FEF2CC022FF3D
:1059D00016C046815781248135814217530744F40C
:1059E000A081B1819D012F5F3F4F318320838C9334
:1059F000268137812F5F3F4F3783268314C08B0169
:105A0000EC01FB010084F185E02D0995892BE1F67D
:105A1000D80116968D919C911797019617969C9395
:105A20008E931697CE01DF91CF911F910F9108951C
:105A3000FA01AA27283051F1203181F1E8946F93BF
:105A40006E7F6E5F7F4F8F4F9F4FAF4FB1E03ED065
:105A5000B4E03CD0670F781F891F9A1FA11D680F03
:105A6000791F8A1F911DA11D6A0F711D811D911D36
:105A7000A11D20D009F468943F912AE0269F1124AB
:105A80003019305D3193DEF6CF010895462F47700F
:105A9000405D4193B3E00FD0C9F7F6CF462F4F706A
:105AA000405D4A3318F0495D31FD4052419302D0C8
:105AB000A9F7EACFB4E0A69597958795779567956E
:105AC000BA95C9F700976105710508959B01AC016E
:105AD0000A2E06945795479537952795BA95C9F795
