:100000000C9420040C9458040C9458040C94CA3496
:100010000C9458040C9458040C9458040C945804F0
:100020000C9458040C9458040C9460190C94A21865
:100030000C94022C0C9458040C9458040C945804FE
:100040000C9458040C9458040C9458040C945804C0
:100050000C9458040C948E1A0C9458040C94580464
:100060000C9458040C9458040C9458040C945804A0
:100070000C9458040C9458040C9458040C94580490
:100080000C9458040C9458040C9458040C94580480
:100090000C9458040C9458040C9458040C94580470
:1000A0000C9458040C9458040C945804EE09EE096E
:1000B0001D0A1D0AB20ADE0BDE0BDE0BCE0A420B56
:1000C000530B530B08131E1325137B147B145D1362
:1000D0006D138013BF13C4137B147B147B14CC13D8
:1000E000AE16D5168A18D5168A18211744178A18FD
:1000F000451855181E0F0500047F3F1F6432146415
:100100003214783C1E1E140A05FD377A585A000036
:1001100004E6D6B4460200210116000000742FE563
:10012000A3E0042F01425D003D8889C65436C31701
:100130004FE4DCCBB3DF6320E7D71739D83D5F52FC
:10014000C90BECB7E6D5195224B0736759B3E0B4C4
:1001500056C74788C96520CF4A3C940C015E298662
:100160005C8E1FD2901470DD8177B2096EB5F6AE49
:10017000E987F3FD6E8628D433CFB875786A02A973
:1001800026DEE8E6250BF2F12FEB95EF757127C21D
:100190007F9195E2635AB0D245B872C0B554D7008A
:1001A0004EDE62BA2013945BD1FF59215849356560
:1001B0008A11E5CA1A8401C66412A7BCC461E80AA0
:1001C0008B8F1814972CD485C2CA11139D81944526
:1001D0004D5141C1135A07F3F59C8A2EB089D73F80
:1001E0003EF2C32110C396AA6256BA70B31061459D
:1001F0005FB111971836BB16666F7B478FC44223D9
:10020000D0767E3FA7ECEA0CBF2774C309BD093C3A
:1002100035A8EED8AEC7E9FF0F2F64DF72C5CDF663
:10022000701A8177ECEF634989711EFAEC985A05D0
:100230009B0A0F6BC0B382F93085B0A8A630E1DE0F
:1002400091E0E101A42FEECFFAB4CC09FA55E9DC34
:100250003EB4782343F5F745FEAA6A7F620EBDEBF4
:10026000FB2CF315BF380D4959E00000005614AAC5
:10027000DD3187545C0001DE02B0080000C0E5C03B
:1002800082B1C467FB020000000004595A0501094D
:1002900080A101850319012AB700150126B7009531
:1002A0000175108100C0050C0901A1018504190127
:1002B0002AA002150126A002950175108100C00533
:1002C000010906A1018506050719E029E7150025A2
:1002D000019508750181020507190029EF15002510
:1002E0000195F0750181020508190129059505752B
:1002F000019102950175039101C00660FF0961A19A
:10030000010962150026FF00952075088102096326
:10031000150026FF00952075089102C00501090609
:10032000A101050719E029E71500250195087501C8
:1003300081029501750881010507190029FF150043
:1003400026FF009506750881000508190129059505
:100350000575019102950175039101C009025B00C9
:10036000030100A0FA0904000001030101000921B2
:100370001101000122400007058103080001090462
:1003800001000203000000092111010001222200E6
:10039000070582032000010705030320000109046B
:1003A00002000103000000092111010001226D007B
:1003B0000705840320000112010002000000085319
:1003C0004601000100010203011C0376006900617F
:1003D000006C003A006600360034006300320062B0
:1003E000003300630000000C0343006F0072006ED6
:1003F0000065000000100366006F006F007300745A
:100400000061006E00000004030904FFAA7F55404C
:100410002223252628292A2C2D2F30323335363811
:100420003A3B3D3E4042434547494A4C4E5051536A
:100430005557595A5C5E6062646668696B6D6F718E
:10044000737577797B7D7F81838587898A8C8E9090
:10045000929496989A9C9E9FA1A3A5A7A8AAACAE99
:10046000AFB1B3B4B6B8B9BBBCBEBFC1C2C3C5C6D9
:10047000C7C9CACBCCCDCED0D1D2D2D3D4D5D6D782
:10048000D7D8D9D9DADADBDBDBDCDCDCDCDCDDDDC0
:10049000DDDDDCDCDCDCDCDBDBDBDADAD9D9D8D7B0
:1004A000D7D6D5D4D3D2D2D1D0CECDCCCBCAC9C752
:1004B000C6C5C3C2C1BFBEBCBBB9B8B6B4B3B1AF89
:1004C000AEACAAA8A7A5A3A19F9E9C9A9896949229
:1004D000908E8C8A89878583817F7D7B7977757300
:1004E000716F6D6B6968666462605E5C5A595755DE
:1004F0005351504E4C4A4947454342403E3D3B3A9A
:100500003836353332302F2D2C2A29282625232220
:100510002B0014001A00080015001700E00004006A
:100520001600070009000A00E1001D001B0006007C
:1005300019000500000000000000E300105F2C001F
:100540002A00130012000C0018001C0034003300B5
:100550000F000E000D000B00290038003700360098
:1005600010001100000000000000E600115F2800EC
:100570002B001E001F00200021002200E0000000D0
:100580000000000000000000E1000000000000008A
:1005900000000000000000000000E30001002C004B
:1005A0002A00270026002500240023000000000068
:1005B0004F005200510050000000000000000000F9
:1005C00000000000000000000000E600010028001C
:1005D0002B001E021F02200221022202E000000066
:1005E0000000000000000000E1000000000000002A
:1005F00000000000000000000000E30001002C00EB
:100600002A00270226022502240223023500310097
:1006100030002F002E002D003502310230022F0253
:100620002E022D02000000000000E600010028005C
:10063000005C00000000000000000000C25CC55C1F
:10064000C75CC95C00000000C35CC65CC85CCA5CD7
:1006500000000000000000000000E30001002C008A
:10066000000000000000000000000000000000008A
:10067000000000000000000000000000000000007A
:1006800000000000000000000000E600010028005B
:100690000001010101010101010102020202020245
:1006A0000202020303030303030303040404040418
:1006B00004040505050505060606060607070707DF
:1006C0000708080808090909090A0A0A0B0B0B0C94
:1006D0000C0C0D0D0D0E0E0E0F0F0F101011111131
:1006E00012121313141415151616171718181919B2
:1006F0001A1A1B1B1C1D1D1E1E1F20202122222317
:100700002424252626272829292A2B2C2D2D2E2F57
:1007100030313232333435363738393A3B3C3D3E6E
:100720003F404142434445464748494A4C4D4E4F5D
:1007300050515354555658595A5B5D5E5F6162641F
:10074000656668696B6C6D6F7072737577787A7BAC
:100750007D7E8082838587888A8C8E8F9193959603
:10076000989A9C9EA0A2A3A5A7A9ABADAFB1B3B523
:10077000B7BABCBEC0C2C4C6C9CBCDCFD1D4D6D8FF
:10078000DBDDDFE2E4E7E9EBEEF0F3F5F8FAFDFF9D
:100790000000000000000000000000000000000059
:1007A0000000000000000000000000000000000049
:1007B000000000007E0F00D4FFFFFFC7000000789C
:1007C00000000000000000002A2B280000000000AC
:1007D00000000000000000000000002900000000F0
:1007E0002C1E3420212224342627252E362D37385E
:1007F000271E1F202122232425263333362E373867
:100800001F0405060708090A0B0C0D0E0F10111224
:10081000131415161718191A1B1C1D2F3130232DF0
:10082000350405060708090A0B0C0D0E0F101112EE
:10083000131415161718191A1B1C1D2F3130354C9F
:1008400011241FBECFEFDAE0DEBFCDBF04B603FE3A
:1008500018C08091E4059091E505A091E605B0915E
:10086000E7058730904BA740B04B59F41092E40550
:100870001092E5051092E6051092E705E0E0F8E336
:10088000099511E0A0E0B1E0E8EAFFE602C00590BA
:100890000D92A63CB107D9F725E0A6ECB1E001C066
:1008A0001D92A43EB207E1F70E94540D0C94D2377A
:1008B0000C940000ACE0B0E0E0E6F4E00C94EB3522
:1008C0007C01DC0113964D915C91149711966C910B
:1008D00011978C910E943E2181110C94500D61E082
:1008E000C7010E94D0318C01F70182818823E1F099
:1008F0008091D9059091DA050097B1F00817190792
:1009000099F0FEE08F9FC0011124FC01EB53FB4FD7
:1009100020812460208380549B4FDC010D931C9325
:100920000E94DF2C1092D705F7013280332009F4A2
:10093000A0C7C80182519F45409708F0B3C08FEF10
:1009400093E00E94973681117FC73EEED32ED00EE2
:1009500007E412E0DD2071F00115F4E01F0709F44F
:1009600073C7C8010E949736811101C0DA940F5FE6
:100970001F4FF0CF19821A821B821C82AA24AA94CC
:1009800068012FEFC21AD20AC8010E9497368983E4
:100990001A82882309F458C7813009F07EC04801C3
:1009A00032E0830E911CC6010E949736B82E8A83CE
:1009B000882309F449C78FEF8B0D833060F46801F9
:1009C00043E0C40ED11CC4010E9497368B83811171
:1009D00064C08601D5CF8BEF8B0D833078F538015D
:1009E00053E0650E711CC4010E9497368B83811100
:1009F00002C06301EECF680184E0C80ED11CC301C0
:100A00000E9497368C83882321F32B813C812130EF
:100A10009FEF390718F0922F80E001C0C901A6E0CE
:100A2000BA1631F0B7E0BB1631F00E949226D1CF52
:100A30000E946C26CECF0E94E425CBCFE4E0BE1608
:100A400011F06401C6CFC4010E949736B82E680128
:100A5000F4E0CF0ED11CC80103960E949736BB204C
:100A600009F4F2C6882309F4EFC6282F30E021509C
:100A70003109A29EA001A39E500D11248B2D90E060
:100A80000197840F951F019708F4A3CFAFE9BFE04A
:100A90001197F1F700C00000F6CFCE0101960E9439
:100AA0001C3397CF0031EFE51E0731F00131FFE530
:100AB0001F07B1F482E001C081E00E94A5240E94DA
:100AC0001033C2C6680127E5D21A3FEFC316D1041E
:100AD00009F008F4DDC6D70112963C903320D1F01E
:100AE0000F35BDE51B0761F00036EDE51E0761F02F
:100AF0000E35FDE51F0771F480910401811104C0DA
:100B000081E080930401A0C61092040180E00E945D
:100B1000502D9AC680910401811108C0C8019755D3
:100B20008F3F910509F008F47AC1CAC1480120EE4F
:100B3000821A9108209031028091CB01282A80915D
:100B4000D805282A38E08316910480F4980127708C
:100B5000332781E090E001C0880F2A95EAF733201F
:100B600011F0282A18C08095282215C0332009F4D6
:100B700016C11093C9010093C8010E94EA2B60932B
:100B8000C9057093CA058093CB059093CC0510924C
:100B9000D1051092D005D7018D919C910E94F1232F
:100BA00021E030E0F90102C0EE0FFF1F8A95E2F765
:100BB000FC87EB872091D2053091D30538872F83AE
:100BC0004091C8015091C9015A8749871D82432C21
:100BD000512C5D81E52FF0E0EE0FFF1FEF5CFA4F27
:100BE000C080D180C114D10409F4F0C0211005C027
:100BF000D60112968C918111CEC0F601838190E0CE
:100C00002B853C8582239323892B09F4C4C08085DE
:100C1000982F977009F487E038E08316910440F428
:100C2000332019F081FD09C0B6C082FD06C0B3C0F3
:100C3000332009F4B0C080FFAEC0D601AD90BC90A7
:100C40000A151B0519F4332009F4A5C0EF81F885B6
:100C5000CE16DF0609F49FC0D6011D96ED91FC91DA
:100C60001E97309721F08081882309F494C0622D6B
:100C7000C6010E94BF2D882309F48DC00A151B05EB
:100C800011F4320102C0612C712CB62DB170BE83FB
:100C900081E0A114B10441F0B11106C0E985FA85E3
:100CA000AE16BF0609F080E080FF75C080E00E94AC
:100CB000502DD092D305C092D20581E08093CF050C
:100CC000D60115968C918093CD05BE81B11113C0CC
:100CD000AB2889F0F601808191819C012450310973
:100CE000213A310530F4682F80EA94E00E942B2CE1
:100CF00002C00E940525D6011696AD90BC901797AC
:100D0000C5019A9581159F4110F4E0EEBE2255244D
:100D10005394C5010197803B9D4508F0512CD601A5
:100D20001996ED91FC911A97309739F01B966D91B9
:100D30007C911C9781E009955822552029F1F601F4
:100D4000868197810E9411328093CE05C501F8E01B
:100D50008F16910418F40E940A2D16C00497813A48
:100D6000910530F46A2D80EA94E00E94532C0EC065
:100D70000E94B9208FE39CE90197F1F700C00000C1
:100D80008A2D0E94312502C00E94B92091E0692677
:100D900060FE77C2C3CEAD81AF5FAD831ACF8091C5
:100DA000C8019091C9010817190781F41092C9016F
:100DB0001092C8011092C9051092CA051092CB0575
:100DC0001092CC051092D1051092D0058091D205D9
:100DD0009091D305009709F4A1CEB8E08B16910449
:100DE00038F4622D0E94BF2D811198CE81E014C08D
:100DF000FC01208131810217130729F4311006C04C
:100E00001092CF0508C0332009F488CEDC01189673
:100E10008C9185FD83CE80E00E94502D7FCE5801BD
:100E2000BB24BEE00B9FF00111249F0120543B4FD7
:100E30006901D70112969C911297EB53FB4F808169
:100E400090FB80F9808312969C919923A1F10E94D6
:100E5000F62B9093E7018093E601F60182818F5F84
:100E600082839091D7058091D805892B83838091C7
:100E7000310284830680F781E02D309739F0D60166
:100E80001C966D917C911D97C60109958EE08A9DF7
:100E9000F0018B9DF00D1124EB53FB4F808181FFFE
:100EA00003C090E080E002C0902F812F9093D9057D
:100EB0008093DA0505C081FF03C0C9010E94C52CDB
:100EC000033FBCE51B0741F190F4083DFCE51F071B
:100ED000E9F0093D2CE5120789F1073D3CE51307D0
:100EE000B1F506E221EE41EE67ED7CE52CC0053F51
:100EF0004CE51407E9F0B0F0063F8CE5180739F52A
:100F000007E225EE46EE66EF7CE51DC007E225EE22
:100F100045EE68ED7CE517C006E221EE40EE63EF9A
:100F20007CE511C007E225EE44EE64EF7CE50BC0E2
:100F300006E221EE42EE65EF7CE505C008E221E025
:100F400045EE69ED7CE5C7010E94802F7DC4D70185
:100F500012968C91882309F4D3C11092D6050330E0
:100F6000BDE51B0758F40A3FECE51E07C0F4C801B5
:100F700082509C45449708F071C111C0053AFDE5C7
:100F80001F0769F030F401363DE5130709F066C12B
:100F900006C0C8018D5A9D45039708F05FC10E94A5
:100FA0006B1E9093FD018093FC0102314CE5140708
:100FB00009F40CC108F04DC009308CE5180709F49C
:100FC000D9C008F50530ACE51A0709F4C0C080F4B3
:100FD0000330ECE51E0709F4B1C008F0B5C00230DB
:100FE0002CE5120709F02AC18091FC018160A9C09B
:100FF00007303CE5130709F4B5C008F0B7C080918D
:10100000FC0180619EC00D305CE5150709F4C8C085
:1010100058F40B309CE5190709F4B6C008F0BCC0C1
:101020008091FC018860ACC00F30BCE51B0709F45F
:10103000C5C008F4B8C00031FCE51F0709F4C2C000
:1010400001312CE5120709F0F9C08091FC018F7B7A
:1010500078C00F3F3CE5130709F4C3C098F50A3F79
:101060005CE5150709F477C0C0F404319CE5190765
:1010700009F4C6C008F4B0C00531BCE51B0709F08F
:10108000DDC08091FC0182FB222720F991E09227AC
:1010900090FB82F990FB83F954C00C3FECE51E07EE
:1010A00009F485C008F45AC00D3F2CE5120709F475
:1010B00081C00E3F3CE5130709F0C0C08091FD01DF
:1010C000826060C001364DE5140709F4ABC070F4CE
:1010D00001308DE5180709F49FC008F487C002307D
:1010E000ADE51A0709F0AAC060E097C00D3ABDE56A
:1010F0001B0701F160F4053AFDE51F0709F09EC0EA
:101100008091FC01982F909590FB80F91AC00E3ABF
:101110002DE51207E9F10F3A3DE5130709F08EC0FE
:101120008091FD0183FB222720F991E0922790FB1B
:1011300083F982C08091FD0188607EC08091FC01AE
:1011400082608093FC017AC08091FC0119C080917B
:10115000FC018860F6CF8091FD0114C08091FD01F3
:1011600082606AC08091FC018062EBCF8091FC01BB
:101170008064E7CF0E94CD248091FC018068E1CF9C
:101180008460DFCF816058C08091FC018E7FD9CF11
:101190008091FD01877F50C08091FC018D7FD1CF70
:1011A0008091FC011CC08091FC01877FCACF809197
:1011B000FD011AC08091FD018D7F3EC08091FC0130
:1011C0008F7EBFCF8091FC018F7DBBCF0E94CD244D
:1011D0008091FC018F77B5CF8091FC01877F8B7F59
:1011E000B0CF8091FD018D7F8E7F26C08091FD0163
:1011F000982F909591708E7F892B90FB81F91CC060
:101200000E94CD248091FC0187FB222720F991E0E8
:10121000922790FB87F995CF61E08EE090E00E94E5
:10122000AB360CC08091FC0184FB222720F991E0B1
:10123000922790FB84F985CF8093FD016091FC019A
:101240001091FD0184E090E00E94AB36612F82E2B4
:1012500090E00E94AB360E94CD24F6C20631BCE578
:101260001B07A1F48091D8058A7A91E009F490E0F7
:101270009093CA01882341F065E380EA94E00E94DC
:10128000532C0E94B920E0C269E2F7CF0A358DE500
:10129000180781F160F40115ACE51A0791F00E3DD5
:1012A000BCE51B0709F04EC00E94881E18C00C3513
:1012B000EDE51E07B9F000F1073A2DE5120779F0C8
:1012C00041C00E94CD243FEF44E35CE031504040F8
:1012D0005040E1F700C000000E946A1AB5C20E94A7
:1012E000FB31B2C28091FD0182FB882780F991E039
:1012F000892703C081E001C080E00E94892422C0C8
:1013000006313CE5130709F40DC38091D8058272BC
:101310000C3C4CE5140709F4A2C308F042C3063C98
:101320009CE5190709F487C308F017C3033CBCE523
:101330001B0709F476C308F001C3023CFCE51F0754
:1013400009F45FC2F701828100811181882349F08D
:10135000C8010E94BE21D82E682FC8010E942524F2
:1013600004C0C8010E94F123D82EB8018D2D0E941F
:10137000D32E0E94E41C8C01A82EF701C280D580D8
:10138000D2949FE0D9228091AC028770B9F0CC2032
:10139000A9F0812F807F803421F080E2800F883097
:1013A00068F08091FD0182FF09C082E00E946C24F8
:1013B0008091AC028770BB24B3948111B12C912E23
:1013C00092948FE09822892D90E08C30910508F05E
:1013D000F5C1FC01EA5AFF4F0C948C37812F807FB6
:1013E0001F70882311F01295107FCC20B9F01123C3
:1013F00009F4D1C180E2800F883010F0A11006C03E
:101400008091D805182B1093D80505C08091D70579
:10141000182B1093D7050E94B920BDC1802F0E94C0
:101420000525112309F4CAC1005E812F083068F137
:10143000AA2059F10E94FE1E2AC0812F807F1F70B2
:10144000803211F01295107FAA2029F0F1E0AF163A
:1014500009F46AC075C08091FD0182FD1BC0CC20DB
:1014600069F0112339F08091D805182B1093D80515
:101470000E94B92080E00E943125A0C180E00E9436
:101480000525112309F49AC1812F0E94051F0E948E
:10149000B92094C1CC2041F1DD2011F121E0D2121C
:1014A0000FC080913102182B181709F487C10E94D0
:1014B000F62B9093300280932F02109331027EC15D
:1014C00035E0D3120DC00E94F31E9091CB01812F05
:1014D000892B89138093CB01812F0E94FB246EC13D
:1014E00080913102812BF9CFDD20C1F041E0D4128F
:1014F00011C08091D805812309F460C10E94F31EB8
:101500009091CB01812F80958923891749F0809391
:10151000CB0106C055E0D51609F450C10E94F31E58
:10152000812F0E94F4244AC1CC2029F085E08D153A
:1015300008F444C1D1CF94E09D1508F43FC1F0CF29
:10154000CC2019F0DD2041F226C1DD2049F309331A
:1015500009F031C1AFEFB7EEE3E0A150B040E04099
:10156000E1F727C1812F86958695837019F0813028
:1015700059F024C1CC2019F0C801937002C080E05A
:1015800090E00E949E2C20C1CC2019F0C8019370DD
:1015900002C080E090E00E94882C16C1812F8370E9
:1015A000A9F5C1100FC1402F429546954770440FD1
:1015B000440F802F8F7090E09C01042E01C0220FF9
:1015C0000A94EAF704FF08C08FE090E001C0880F9A
:1015D0004A95EAF7809501C080E01695169513703C
:1015E000123069F088F490913202113019F0822B98
:1015F000892302C0922B892B0E94C824E3C0822B2E
:10160000909132028927F8CF822BF6CFCC2019F0A7
:10161000812F817001C08695882309F4D3C0402FA3
:10162000429546954770440F440F802F8F7090E08D
:101630009C01042E01C0220F0A94EAF704FF08C09F
:101640008FE090E001C0880F4A95EAF7809501C0CD
:1016500080E0169516951370123059F078F4909139
:10166000E305113019F0822B892309C0922B892BB5
:1016700006C0822B9091E305892701C0822B0E942E
:101680005A24A0C01F70CC2039F0812F0E94A524BD
:10169000802F0E94FB2496C0802F0E94F424812F6B
:1016A0000E945F248FC0802FF2EFAF1691F1FA15E0
:1016B00038F020EFA21659F031EFA31619F166C0E9
:1016C00043EFA41669F154EFA516C1F05FC0CC201A
:1016D00081F084E08D1508F471C01F7181E090E005
:1016E000012E01C0880F0A94EAF79091E30589273B
:1016F00022C095E09D1508F461C0EFCF8091FD01F7
:1017000082FD1CC0CC2039F0812F8F710E94A5244E
:1017100055C0CC20C9F3812F8F710E945F244EC029
:10172000CC2041F01F7181E0012E01C0880F0A9486
:10173000EAF701C080E00E945A2440C0CC20B9F0F2
:101740008091AC028770843039F40E943721812F58
:101750008F710E945F248BC0A4E0AD1508F487C090
:101760001F71812F0E94A52463E0812F08C0B4E07F
:10177000BD1540F40E94372164E0812F8F710E94D3
:10178000B12475C081E00E946C2471C0CC2029F086
:10179000DD2009F4B9CF802F6ECEDD2009F4BBCF58
:1017A000893349F4EFEFF7EE23E0E150F0402040B9
:1017B000E1F700C00000802F0E94052588EF890D09
:1017C000843010F40E94B42CBB20B1F08091AC02A4
:1017D00080FD12C0D70112961C928595859585953E
:1017E0000E94A524C7010E945A048091AC028595ED
:1017F000859585950E945F2460E0C7010E94D031E5
:101800004FC18091890480FF06C18E7F8093890437
:101810006091890470918A0480918B0490918C046A
:101820000E946C300E94B6278091D502816080931F
:10183000D5023FEF40E752E0315040405040E1F7E1
:1018400000C000000E94D8278091AC02877009F484
:1018500027C1D70112968C91882309F421C1809168
:10186000FD0182FF1DC182E00E946C2419C1B12CD0
:10187000A9CF0031FFE51F0721F481E00E945F241A
:101880001EC901312FE5120709F01CC982E0F6CF0D
:1018900066E974E08C2D0E94EF2D892B09F01BC99D
:1018A0008EE08C9DF0018D9DF00D1124E054FB4FD6
:1018B00082818130E1F48091960490919704892B84
:1018C00009F409C98091980490919904892B09F42D
:1018D00002C980919A0490919B04892B09F0FBC85E
:1018E00080919C0490919D04892B59F0F4C882301A
:1018F00009F0F1C880919A0490919B04892B09F416
:10190000EAC82EE02C9DC0012D9D900D1124FC01F4
:10191000EB53FB4F20812E7F208380549B4F0E94EE
:10192000DF2CD9C88091CA01882311F065E301C07A
:1019300069E280EA94E00E942B2CA3CC043C2CE5C5
:10194000120709F473C0053C3CE5130709F0FACC13
:101950004EE350E368E470E386C0093C4CE51407AD
:1019600009F473C078F4073C9CE5190709F468C0D2
:10197000083CACE51A0709F0E5CC41E350E364E22A
:1019800070E371C00A3CBCE51B0709F463C00B3C63
:10199000ECE51E0709F0D6CC4FE750E361E970E3B0
:1019A00062C0013DFCE51F0709F469C0A0F40E3CCC
:1019B0003CE5130709F45DC008F458C00F3C5CE532
:1019C000150709F459C0003D8CE5180709F0BACC99
:1019D0006EE089E062C0043D9CE5190709F455C03A
:1019E00068F4023DBCE51B0709F44CC0033DECE57F
:1019F0001E0709F0A7CC61E088E14CC0053DFCE57D
:101A00001F0709F445C00D352DE5120709F09ACCE2
:101A10006AE285E242C081608093890461E0869534
:101A200039C04BEB51E365EC71E31DC045EC51E36C
:101A30006BEB71E318C048E450E36EE370E313C04E
:101A400044E250E361E370E30EC04AE050E367E133
:101A500070E309C047E150E36AE070E304C041E984
:101A600050E36FE770E30E94AF27EECE61E081E0C4
:101A700011C065E082E011C068E086E00EC064E15C
:101A80008FE00BC067E185E108C062E289E105C033
:101A900061E083E20E947B31D7CE0E949B27D4CEA7
:101AA0002C96E2E10C940736AAE3B0E0EAE5FDE00B
:101AB0000C94EB3585B7806885BF85B7806885BF96
:101AC00084B7877F84BF0FB6F894A8958091600093
:101AD000886180936000109260000FBE90E080E803
:101AE0000FB6F89480936100909361000FBE80ED73
:101AF0009AE19093C7018093C6010E94F22F0E9441
:101B0000F02E0E94E6180E9405198091E200846080
:101B10008093E20078948091E2058823A1F01091EF
:101B2000E9001F709091EC00892F817090FD80E892
:101B3000182B1092E9008091E80083FD0E94CB15DC
:101B40001F701093E90082E084BD93E095BD9AEF89
:101B500097BD80936E001092CC011092CD0110922F
:101B6000CE011092CF010E948227811102C00E94F3
:101B700072270E943C1C80930501809105018823F7
:101B800021F0109241018BE103C08BE18093410170
:101B9000809342010E943C1C81110E9485348091F7
:101BA000050180910501882311F090E001C094E0C7
:101BB0009093D90184E0891B8093D8010EE411E051
:101BC000A2E5EA2EA1E0FA2ED8018D918D018F3F7A
:101BD00011F00E94C21CE016F106B1F702E511E017
:101BE000F8E5EF2EF1E0FF2EF80181918F018F3F94
:101BF00011F00E94C21CE016F106B1F788E0E0EF98
:101C0000F1E0DF01282F1D922A95E9F7E0EDF1E0E0
:101C1000DF011D928A95E9F70E947C1E811102C0A6
:101C20000E94881E82E090E00E9497368093DD013A
:101C30000E946B1E9093FD018093FC010E940C1F7B
:101C4000EFE3FCE93197F1F700C000000E940C1FA0
:101C50000E943C1C882311F0E0E001C0E4E0F0E0C9
:101C6000E051FE4F808181FF08C06FEF7FEF80E081
:101C700090E00E94C9360E946A1A83E090E00E94B8
:101C800097360E94C8248091DA01811138C00E94E1
:101C90007C1E811104C00E94881E0E94A33088E02F
:101CA00090E00E949F366093890470938A04809329
:101CB0008B0490938C048091D50283608093D5022D
:101CC0006E7F71F40E94A33088E090E00E949F36FE
:101CD0006093890470938A0480938B0490938C049E
:101CE0000E9452300E94B6278091890480FF04C070
:101CF00060E086950E947B3181E08093DA010E944A
:101D00003C1C811102C00E94883486E091E09093CF
:101D1000DE058093DD052E01FBE24F0E511C809104
:101D2000E205853009F045C000E112E18091E2054D
:101D3000853009F03AC08091E205843021F110929B
:101D4000E10528E130E040E40FB6F894A89520932F
:101D500060000FBE4093600083B7817F846083BFC3
:101D600083B7816083BF7894889583B78E7F83BF64
:101D70000FB6F894A8958091600088618093600008
:101D8000109260000FBE80912502882309F4CECF07
:101D90000E940C1FE0EFF1E081918111B1C588EF45
:101DA00091E08E179F07C1F7C1CF0E94CD240E94FA
:101DB000B42C0E940C1F0EED11E0E0EFCE2EE1E0FE
:101DC000DE2E26EE31E0D601F80191918D91892722
:101DD0002E173F0719F08823C1F322C0811120C0BC
:101DE0000E94F62B8C018091DB019091DC01081799
:101DF000190709F44FC08FEF89AB8AAB1BAA0E9469
:101E0000F62B8160782F9DAB8CAB49A95AA96BA9A1
:101E10008DA90E9458321093DC010093DB013AC077
:101E20000E943C1C782E70EFE72E71E0F72EB12C4B
:101E3000D7018D907D01F8016080682419F1A12CF3
:101E400099249394862D8921B1F07720A1F0AEAA30
:101E5000BFAA91E0882D892109F490E098AF0E94F3
:101E6000F62B8160782F9AAF89AF4EA95FA968AD34
:101E70008AAD0E945832A394990CF6E0AF12E2CFDB
:101E8000D8018C92B3940F5F1F4FB8E0BB12D0CF34
:101E90000E94EA2B0E943C1C882309F463C08091B5
:101EA000D0059091D105892B89F16091C50570917C
:101EB000C6058091C7059091C8050E94B41A00918B
:101EC000C1051091C2052091C3053091C40560176A
:101ED000710782079307D0F08091D0059091D105CA
:101EE0000E943E321092D1051092D0051092C50585
:101EF0001092C6051092C7051092C8051092C10530
:101F00001092C2051092C3051092C4058091D905A4
:101F10009091DA05892B31F18091E6019091E701EA
:101F20000E94DB2B8C0186E0F20111928A95E9F781
:101F3000B2018091D9059091DA050E94642F801733
:101F4000910780F48091D905FEE08F9FC001112494
:101F5000FC01EB53FB4F208122FD04C080549B4FBA
:101F60000E94DF2C8091D402882309F4CFC0809195
:101F7000D302E0918904E695E81BE093CF0282301A
:101F800059F4F0E0EB5FFE4FE4910E2F10E060EDAE
:101F9000E62E65E2F62E6BC0863059F4F0E0EE5F77
:101FA000FE4FE4910E2F10E050ECE52E55E2F52E99
:101FB0005EC0893061F4E695F0E0E150FF4FE491B6
:101FC0000E2F10E042ECE42E4AE2F42E50C08F3087
:101FD00061F4E695F0E0E450FF4FE4910E2F10E03D
:101FE00036E3E32E3AE2F32E42C0853159F4F0E0B5
:101FF000E750FF4FE4910E2F10E020EBE22E29E294
:10200000F22E35C08831F9F0833249F4E7EFF0E081
:102010000591149197E1E92E9BE2F92E28C08432B4
:10202000C9F08532F1F48E2F63E00E944A37E92F20
:10203000F0E0EC50FF4FE4910E2F10E084E2E82E28
:1020400088E2F82E14C008E210E0BBE2EB2EB9E201
:10205000FB2E0DC004EF11E0ACEEEA2EA8E2FA2E42
:1020600006C000ED17E0FFEBEF2EF5E2FF2E8091AA
:10207000D002882361F01092D0020E94D91C909364
:10208000CE028093CD021092D2021092D1020E9411
:10209000D91CE091CD02F091CE029C012E1B3F0B8A
:1020A0002F3F3F4798F52091EA012223B1F010928B
:1020B000EA012091E8013091E901821B930B8F3FE7
:1020C0009F4758F4205D3A483093E9012093E80196
:1020D0008091D50288608093D502A090D102B09003
:1020E000D2020E0F1F1F1093CE020093CD028DEC73
:1020F00092E0F70109958091D1029091D202892B4B
:1021000029F4AB2819F081E08093EA010E94B42CF5
:102110009091EB01891721F08093EB010E94EA2B4B
:102120008091E205843009F0FACD83E08093E900E4
:102130008091E80082FFF3CD8091E80085FF22C006
:102140000E94371A81111CC000E210E09E012F5F2F
:102150003F4F790108C08091F100D7018D937D0137
:102160000150110969F08091E80085FDF4CF80915C
:10217000E8008B778093E8000E94371A882399F350
:1021800091E001C090E08091E8008B778093E800B7
:10219000992309F4C4CDE090BF05F090C005898172
:1021A000E114F10459F08E3F09F0A5C39A819330F0
:1021B000E8F19550933008F09EC338C08B3009F495
:1021C00004C288F5853009F47EC0B8F4823009F481
:1021D0004AC030F4813009F08CC31A8289E0CDC244
:1021E000833009F463C0843009F083C34C816B8170
:1021F0008A810E94A52E9D83A0C3873009F471C0F7
:1022000008F46CC0883009F4A0C0893009F071C3AB
:102210006091890470918A0480918B0490918C0460
:102220000E946C3068C3803109F410C18E010F5FC9
:102230001F4F813160F48D3009F4AAC008F4A6C0A4
:102240008E3009F4A9C08F3009F4D1C052C3823155
:1022500009F402C108F4FDC0833109F427C18E3F9F
:1022600009F4CAC146C38A81823009F45FC383304E
:1022700051F0813009F03DC30E94EA2B9B838C838F
:102280007D836E8338C38091BB059091BC05892BFB
:1022900009F431C3FE013396CE010B96D6012D9180
:1022A0006D012193E817F907C9F725C38A818230A8
:1022B00009F01FC36B817C818D819E810E949237C2
:1022C0000E944E2718C32D813E81322723273227B3
:1022D0004C816B818A810E94042E0DC30E942B2E9B
:1022E0000AC38A818138B1F050F4803809F003C301
:1022F00020E04B8160918B0480918A0423C0823856
:10230000E9F0833809F0F7C220E040918C046C8139
:102310008B8118C060E08B810E947B318B818111A1
:1023200003C00E946331E7C2809189048160809379
:10233000890460E086950E947B31DDC28B818093A9
:102340008D04D9C20E94512BD6C28A81813899F05E
:1023500030F4803809F0CFC280918C040EC28238EC
:1023600091F0833809F0C7C280918A048B838091F1
:102370008B048C83C0C28091890480FF02C0869543
:10238000FCC180E0FAC180918D04F7C180E162C098
:1023900081E08A8389EBF1C1EA80FB80FE24EF248F
:1023A000FE24AC80B12CBDE1AB16B10408F0A3C291
:1023B0006801C701895B9D4F9601201B310B2A15CF
:1023C0003B0508F098C2E9EBEE16E1E0FE0630F4BA
:1023D0000E949736D60114968C9302C0F60114829F
:1023E000FFEFEF1AFF0A2FEFC21AD20AE2CF809155
:1023F000BB059091BC05892B09F47DC2EA80FB8066
:10240000FE24EF24FE24CC80D12C3DE1C316D10460
:1024100008F071C25801C701895B9D4F9501201BCF
:10242000310B2C153D0508F066C249EBE41641E07E
:10243000F40628F4D50114966C910E94AB36BFEFD8
:10244000EB1AFB0AEFEFAE1ABE0AE5CF0E94DF2DB2
:1024500052C284E08A834FC2EA80FB80FE24EF24CC
:10246000FE24AC80B12CFDE1AF16B10408F043C2EC
:102470006801C70187969601201B310B2A153B0581
:1024800008F039C220E8E21621E0F20630F40E949A
:102490009736D60114968C9302C0F6011482FFEF92
:1024A000EF1AFF0A2FEFC21AD20AE3CFEA80FB80AD
:1024B000FE24EF24FE24AC80B12C3DE1A316B10430
:1024C00008F019C2370147E2640E711C80E8E81673
:1024D00081E0F80608F00FC280E891E08E199F09AC
:1024E0008A159B0508F407C28091BB059091BC0535
:1024F000892B11F0680160C0E0FE0FC0C70186960D
:102500000E94973690E0982F88272D81822B811585
:102510009C4531F48FEF8D8303C0C12CD12C03C0B7
:10252000CC24C394D12CC5018E0D9F1D450180FF85
:102530001BC0B1E08B1A910855E0252E312C2C0ED2
:102540003D1E280C391CC3018A0D9B1D0E94973625
:10255000F101208130E0322F2227282B21153C4524
:1025600019F48FEFD1018C93F801EC0DFD1D2FEFC5
:10257000CF01801B910B8815990508F0BBCF848192
:1025800090E0982F88273581832B81159C4511F485
:10259000248325833296ECCFE0E8EE16E1E0FE06D8
:1025A00028F4D60114966C910E94AB36BFEFEB1A5B
:1025B000FB0AEFEFCE1ADE0AC70187969601201BB1
:1025C000310B2A153B0540F396C18091BB059091D4
:1025D000BC05892B09F48FC1CE0101960E940934F4
:1025E000FFEF21EE34E0F15020403040E1F700C031
:1025F00000000E946A1A7FC1EA818E2F90E08E301F
:10260000910508F078C1FC01EE59FF4F0C948C370E
:1026100088E0E6E4F1E0DE01919601900D928A9562
:10262000E1F780E2D8011D928A95E9F785E0898378
:1026300088E0FE01B196DE01159631C184E88983F8
:1026400081E08A831B821C8256C18C8190E0982F86
:1026500088272B81820F911D092E000CAA0BBB0B22
:1026600035E0880F991FAA1FBB1F3A95D1F7AC011F
:10267000BD01405E5F4F6F4F7F4F481759076A0794
:102680007B0708F438C18438E1E09E07A105B10555
:1026900008F031C14538F1E05F076105710520F0B0
:1026A00044E851E060E070E0481B590BBC01675FF3
:1026B0007E4FC8010E947E361EC140E250E06FEF9F
:1026C00070E0C8010E94CB378091BB058983EA8204
:1026D0001B821C821D8281E030C181E090E09093DA
:1026E000C0058093BF0582E390E09093EF01809353
:1026F000EE010E94F62B9093ED018093EC01FBC05C
:10270000EF2899F11091F00111FB882780F9182327
:102710008091EC019091ED010E94DB2B85369105B3
:10272000F0F01123E1F00E94F62B9093ED018093DD
:10273000EC018091EE019091EF0101979093EF01F0
:102740008093EE01892B89F41092C0051092BF0589
:1027500081E090E09093BC058093BB0506C082E3C6
:1027600090E09093EF018093EE018091BB05898307
:102770008091BF058A838091EE018B83BCC010924B
:10278000BC051092BB05B7C040E250E06FEF70E0AF
:10279000C8010E94CB37AFC08B81823061F1E0F479
:1027A000882309F1813009F0A6C08C811AE07E01EE
:1027B000B1E2EB0EF11CF701212F11922A95E9F7F6
:1027C000B7010E94EF2D8983F701DE011296019077
:1027D0000D921A95E1F78FC0853009F443C0863019
:1027E00009F462C088C080E2D8011D928A95E9F799
:1027F00088E08983C2CF1C818AE0FE013596DE0124
:10280000919601900D928A95E1F789A19AA10E9473
:102810003E279AA389A38BA19CA10E943E279CA33B
:102820008BA38DA19EA10E943E279EA38DA38FA165
:1028300098A50E943E2798A78FA3183070F43AE01D
:10284000139FB001112469557E4F4AE050E0CE013C
:1028500081960E94CF3680E001C08FEF89830E946D
:10286000F22F49C06C81CE0181962AE0DC011D92D5
:102870002A95E9F7683060F4BAE06B9FB001112443
:1028800069507E4F4AE050E00E94873680E001C0E8
:102890008FEF89838AE0FE01B196DE0112960190E6
:1028A0000D928A95E1F727C01C818AE0FE013596DA
:1028B000DE01919601900D928A95E1F78BA19CA182
:1028C0000E943E279CA38BA3183070F4EAE01E9F61
:1028D000B001112469507E4F4AE050E0CE0181964C
:1028E0000E94CF3680E001C08FEF89830E94F02ED6
:1028F00002C08FEF8983CE0101960E9409340FCA6E
:1029000009BD19BD09B400FEFDCF8091D8008F7DAF
:102910008093D8008091E00082608093E0008091F5
:10292000E00081FDFCCF0E94CD2400CA86E290E049
:102930000E9497361B821C821D828E83DCCF809181
:10294000270287FF11C08091E80082FD05C08091B9
:10295000E2058111F8CF11C08091E8008B770BC0A0
:102960008091E205882349F08091E80080FFF8CF4C
:102970008091E8008E778093E8000895982F973033
:1029800068F59093E900981739F07091EC00209168
:10299000ED005091F00003C0242F762F50E021FD70
:1029A00002C09F5FECCF3091EB003E7F3093EB0095
:1029B0003091ED003D7F3093ED003091EB003160C0
:1029C0003093EB007093EC002093ED005093F000F7
:1029D0002091EE0027FDE5CF80E008958F70809371
:1029E000E90081E0089520912D0230912E022617F2
:1029F000370748F06115710539F42091E8002E770A
:102A00002093E80001C0B901FC0120E061157105C7
:102A100079F18091E2058823F1F18530F1F180911F
:102A2000E80083FD3CC08091E80082FD2EC08091CB
:102A3000E80080FFEBCF2091F3008091F20090E05E
:102A4000922B6115710551F08830910538F4219170
:102A50002093F100615071090196F3CF21E00897AE
:102A600009F020E08091E8008E778093E800CECFD7
:102A70002111CFCF0AC08091E205882361F0853013
:102A800061F08091E80083FD0AC08091E80082FF38
:102A9000F2CF80E0089582E0089583E0089581E018
:102AA0000895089508958091030208958093FE018A
:102AB000709300026093FF018091E2058430F9F485
:102AC0008093E9008FEF9091E800815095FD06C05A
:102AD00095ED9A95F1F700008111F5CF8091E8000E
:102AE00085FF0DC040E050E063E070E08EEF91E0C4
:102AF0000E94DF338091E8008E778093E80008958C
:102B0000BC0184E00E9456150895BC0183E00E9438
:102B100056150895CF93DF9320911201222339F0A7
:102B20002091FC0127FF03C060E224E002C068E0BE
:102B300021E02093E9002FEF3091E800215035FD8E
:102B400006C035ED3A95F1F700002111F5CF20913F
:102B5000E80025FF1DC0EC0180911201811105C024
:102B600040E050E068E070E003C070E040E050E01A
:102B7000CE010E94DF338091E8008E778093E800D9
:102B800080E2FE01A4E0B2E001900D928A95E1F7A7
:102B9000DF91CF910895AAE2B0E0E1EDF5E10C9468
:102BA000FA35E7E2F2E08FE292E02091F100219322
:102BB0008E179F07D1F780912802833009F463C0F4
:102BC00030F4813071F0823009F49DC0B4C08A3095
:102BD00009F489C08B3009F46EC0893009F0ABC0AC
:102BE00020C080912702813A09F0A5C08091E800B9
:102BF000877F8093E80080912B0290912C02892B93
:102C000021F460E284E092E003C060E080E090E0C4
:102C100070E00E94F3148091E8008B778093E800C5
:102C20008AC080912702813209F085C080912B02F1
:102C300090912C02009719F0029709F07CC08091C6
:102C4000E800877F8093E8008091E80082FD05C05E
:102C50008091E2058111F8CF6EC02091F300809140
:102C6000F20090E0922B029731F48091F1008130D4
:102C700011F0863021F48091F1008093030280915D
:102C8000E8008B7754C080912702813A09F053C045
:102C900080912B0290912C02892B09F04CC08091DD
:102CA000E800877F8093E8008091E80080FFFCCFF8
:102CB0008091120137C0809127028132E1F5809125
:102CC0002B0290912C02892BB1F58091E800877F2F
:102CD0008093E8000E949F14809129028093120142
:102CE0000E94CD2428C080912702813221F5809155
:102CF000E800877F8093E8000E949F1480912A0259
:102D00008093020218C080912702813AA1F4809139
:102D1000E800877F8093E8008091E80080FFFCCF87
:102D2000809102028093F1008091E8008E77809379
:102D3000E8000E949F148091E80083FFEBC180911E
:102D4000270290912802492F50E04A30510508F09F
:102D5000E1C1FA01E059FF4F0C948C37803821F023
:102D6000823809F0D7C108C08091240290912502D1
:102D7000992389F082600FC080912B028F70873079
:102D800008F0C8C18093E9008091EB0085FB88279B
:102D900080F91092E9009091E800977F9093E80005
:102DA0008093F1001092F1007CC1282F2D7F09F053
:102DB000B1C1882319F0823061F0ACC18091290241
:102DC000813009F0A7C1933009F080E0809325029B
:102DD0002EC08091290281112AC080912B028F7010
:102DE0002FEF280F263008F095C18093E90020913D
:102DF000EB0020FF1CC0933021F48091EB00806237
:102E000014C09091EB0090619093EB0021E030E0D2
:102E1000A90102C0440F551F8A95E2F74093EA00CA
:102E20001092EA008091EB0088608093EB00109292
:102E3000E9008091E800877F8093E8000E949F145A
:102E400069C1811167C1109129021F778091E30048
:102E50008078812B8093E3008091E800877F8093C6
:102E6000E8000E949F148091E80080FFFCCF8091D1
:102E7000E30080688093E300111102C082E001C08A
:102E800083E08093E20546C18058823008F042C159
:102E90002091290230912A022C3D53E0350779F523
:102EA00083E08A838AE289834FB7F894DE01139620
:102EB00020E03EE051E2E32FF0E050935700E49130
:102EC00020FF03C0E295EF703F5FEF708E2F90E020
:102ED000EA3010F0C79601C0C0968D939D932F5F86
:102EE000243149F74FBF8091E800877F8093E80045
:102EF0006AE270E0CE0101960E94F314C0C0809196
:102F00002B0290912C02432F552743305105B1F0ED
:102F100068F44130510509F40CC14230510509F003
:102F2000F9C08BE590E0ECE5F3E057C04132510584
:102F300089F14232510509F43CC0ECC0C90199271E
:102F400081309105B9F070F082309105D9F0039786
:102F500009F0E0C0E9ECF3E0E4918E2F90E0E9ECB9
:102F6000F3E038C0E7E0F4E0E4918E2F90E0E7E092
:102F7000F4E030C0E5EFF3E0E4918E2F90E0E5EF70
:102F8000F3E028C0E7EEF3E0E4918E2F90E0E7EE67
:102F9000F3E020C08330910508F0BCC0880F991F72
:102FA000FC01EF59FE4F0190F081E02D89E090E0A7
:102FB00014C08330910508F0ADC0FC01EE0FFF1F77
:102FC000E55AFE4F0190F081E02DDC01A85ABE4F7A
:102FD0008C9190E0009709F49DC02091E800277F34
:102FE0002093E80020912D0230912E0228173907F6
:102FF00008F4C90140E0009789F12091E2052223FD
:1030000009F43DC02530D9F12091E80023FD37C0F7
:103010002091E80022FD2FC02091E80020FFEBCF97
:103020004091F3002091F20030E0342B009759F0EA
:103030002830310540F444914093F10031960197D6
:103040002F5F3F4FF3CF41E02830310509F040E0DA
:103050002091E8002E772093E800CDCF4111CDCF0D
:103060000AC08091E205882351F0853041F08091BB
:10307000E80083FD04C08091E80082FFF2CF8091D8
:10308000E8008B778093E80045C0803809F042C0A3
:103090008091E800877F8093E800809126028093EA
:1030A000F1008091E8008E77C7CE811133C0809106
:1030B000290290912A029927029764F58091E800ED
:1030C000877F8093E80010912902109326020E94C6
:1030D0009F14111106C08091E30087FD02C081E0BA
:1030E00001C084E08093E20542E061EC81E00E944F
:1030F000BE1442E261EC84E00E94BE1442E261EC44
:1031000082E00E94BE1442E260EC83E00E94BE14A2
:103110008091E2058091E80083FF10C08091E80073
:10312000877F8093E8008091EB0080628093EB00C2
:1031300005C082E190E0E7EBF3E04FCFAA96E3E031
:103140000C9416361F920F920FB60F9211242F93E4
:103150003F934F935F936F937F938F939F93AF931F
:10316000BF93CF93DF93EF93FF93C091E900CF70AC
:103170008091EC00D82FD17080FDD0E81092E9004A
:103180008091F000877F8093F00078940E94CB15A7
:103190001092E9008091F00088608093F000CD2BC0
:1031A000CF70C093E900FF91EF91DF91CF91BF9174
:1031B000AF919F918F917F916F915F914F913F91CF
:1031C0002F910F900FBE0F901F901895E8EDF0E033
:1031D00080818E7F80831092E2001092DA0010923C
:1031E000E100A0EEB0E08C9181608C9380818F77BC
:1031F000808319BCA7EDB0E08C918E7F8C93808189
:103200008F7E8083109201020895A0E0B0E0EBE091
:10321000F9E10C94F535C8EDD0E088818F7E888384
:10322000E7EDF0E080818160808384E082BF81E00F
:103230008093010288818E7F888302EE10E0F8017E
:1032400010821092DA0081EEC82ED12CF601108285
:1032500088818F77888388818068888388818F7D43
:10326000888319BC1092E205109226021092250262
:103270001092240290EEE92EF12CF70180818B7FD1
:10328000808388818160888342E060E080E00E94E2
:10329000BE14F60180818E7F8083F8018081816079
:1032A0008083808188608083F70180818E7F808326
:1032B000888180618883CDB7DEB7E8E00C94113651
:1032C0001F920F920FB60F9211242F933F934F939B
:1032D0005F936F937F938F939F93AF93BF93EF937E
:1032E000FF938091E10082FF09C08091E20082FF9C
:1032F00005C08091E1008B7F8093E1008091DA002E
:1033000080FF2AC08091D80080FF26C08091DA001B
:103310008E7F8093DA008091D90080FF18C080E111
:1033200089BD82E189BD09B400FEFDCF81E08093B3
:10333000E2058091010281110FC00E94E6180E94EF
:1033400005198091E20084608093E20005C019BCF9
:103350001092E205109201028091E10080FF17C0F7
:103360008091E20080FF13C08091E2008E7F809305
:10337000E2008091E20080618093E2008091D800B9
:1033800080628093D80019BC85E08093E20580912B
:10339000E10084FF30C08091E20084FF2CC080E116
:1033A00089BD82E189BD09B400FEFDCF8091D800BE
:1033B0008F7D8093D8008091E1008F7E8093E10023
:1033C0008091E2008F7E8093E2008091E200816034
:1033D0008093E20080912602882311F084E007C0E8
:1033E0008091E30087FD02C081E001C083E080930B
:1033F000E2058091E2058091E10083FF27C0809182
:10340000E20083FF23C08091E100877F8093E10089
:1034100082E08093E205109226028091E1008E7F87
:103420008093E1008091E2008E7F8093E2008091A2
:10343000E20080618093E20042E060E080E00E9470
:10344000BE148091F00088608093F000FF91EF91AE
:10345000BF91AF919F918F917F916F915F914F91AC
:103460003F912F910F900FBE0F901F9018952091B4
:10347000E4003091E50095E64091EC00842F8170E6
:1034800040FF23C08091E80080FD1DC08091E205CF
:10349000882399F0853099F08091EB0085FD11C06B
:1034A0004091E4005091E5002417350729F391502D
:1034B00011F09A01E1CF84E0089582E0089583E05D
:1034C000089581E0089580E008954091E80042FF6A
:1034D000DDCF089581E08093E00080E28093D80002
:1034E0001092C9008FE19EE40197F1F700C000003F
:1034F00087E090EBDC018093E4059093E505A093D1
:10350000E605B093E7059CE088E10FB6F894A8952E
:10351000809360000FBE90936000FFCF78941F925D
:103520000F920FB60F9211248F939F93AF93BF9377
:103530008091F8019091F901A091FA01B091FB01FD
:103540000196A11DB11D8093F8019093F901A093FC
:10355000FA01B093FB01BF91AF919F918F910F90B2
:103560000FBE0F901F901895CF92DF92EF92FF92AF
:103570002FB7F894C090F801D090F901E090FA01CB
:10358000F090FB012FBFA7019601261B370B480BBC
:10359000590BCA01B901FF90EF90DF90CF900895C9
:1035A00080E008959091FC0192FF0DC0282F2871B2
:1035B000283019F4877F846006C0282F24712430B6
:1035C00011F48B7F886093FF0DC0282F287128315C
:1035D00019F4877E846106C0282F2471243111F4E8
:1035E0008B7E88612091FD0120FF0DC0382F38713E
:1035F000383019F4877F816006C0382F317131303F
:1036000011F48E7F886021FF0DC0282F287128318A
:1036100019F4877E816106C0282F2171213111F4B0
:103620008E7E886194FD877E0895A0E0B0E0EBE196
:10363000FBE10C94F3357C015B016A0180915F0230
:103640008A3018F001E010E002C00AE010E0C1E0AA
:10365000D0E0B501C701F6010995811115C0219689
:103660000C171D0794F0CC9F9001CD9F300D300DAD
:10367000112480E090E045E34A95F1F700000196BF
:1036800082179307C1F7E5CF81E0CDB7DEB7EAE057
:103690000C940F36A8E0B0E0E0E5FBE10C94FA35BD
:1036A00085E0E9E8F4E0DE01119601900D928A953B
:1036B000E1F78091D3029091D402A091D5028E833C
:1036C0009F83A887188560915B0270915C0280914E
:1036D0005D0290915E020E94B41A64367105810504
:1036E000910510F4112319F180912C0190912D0175
:1036F000865B9D4F40912B0150E04930510510F001
:1037000048E050E0BE016F5F7F4F0E94C23783E008
:1037100090E00E947035882369F00E94EA2B609344
:103720005B0270935C0280935D0290935E02109244
:10373000D50281E02896E3E00C941636EF92FF92D2
:103740001F93CF93DF9300D000D01F92CDB7DEB789
:103750007B0180E090E00E947035882309F456C018
:103760004091160150E04115510511F041E050E043
:103770006091170170911801665B7D4FCE0105962F
:103780000E94C237609142027091430280914402CC
:10379000909145020E94B41A643671058105910525
:1037A00038F48BE492E00E94C8339D81891781F13F
:1037B00081E090E00E947035182F882391F04091AD
:1037C0001E0150E04530510510F044E050E060919A
:1037D0001F0170912001665B7D4FCE0101960E9412
:1037E000C2378BE492E00E94C83391E02D81281308
:1037F00090E0192341F10E94EA2B609342027093FA
:10380000430280934402909345020FC010E001C030
:1038100011E080914B0290914C02A0914D02B09129
:103820004E0289839A83AB83BC83112361F0898123
:103830009A81AB81BC8180933E0290933F02A0931A
:103840004002B093410280913E0290913F02A091CC
:103850004002B0914102F70180839183A283B38338
:10386000812F0F900F900F900F900F90DF91CF91BD
:103870001F91FF90EF90089580913D02811119C032
:1038800088EC90E02091E30027FD0AC0EFE3FCE91B
:103890003197F1F700C000000197A1F782E001C065
:1038A00081E080933D02823021F40E94E61810925C
:1038B000E20581E090913D02913009F080E00895A9
:1038C0000F931F930E943C1C882319F00E94EA2B3F
:1038D0000EC00E94EA2B0091CC011091CD012091E5
:1038E000CE013091CF01600F711F821F931F1F9176
:1038F0000F910895A4E0B0E0E0E8FCE10C94FB3502
:10390000609146027091470280914802909149026D
:103910000E94B41A643671058105910570F10E9408
:10392000601CDC01CB010296A11DB11D89839A8325
:10393000AB83BC838091240190912501865B9D4FD0
:103940004091230150E04530510510F044E050E033
:10395000BE016F5F7F4F0E94C23782E090E00E94FD
:103960007035882359F00E94EA2B609346027093C9
:103970004702809348029093490281E02496E2E056
:103980000C941736F894E82FE295EF70F0E031A12F
:10399000282F2F7081E090E001C0880F2A95EAF768
:1039A000982F9095932391A392A1892B82A3789429
:1039B00008950E943C1C882319F00E94F62B08955C
:1039C0000E94601CCB010895CF93DF93823891054C
:1039D00069F1B0F48133910509F477C048F4893274
:1039E000910509F469C08A32910509F473C092C047
:1039F0008533910509F45BC089339105B9F08AC01C
:103A0000833E910591F138F4803E9105D1F0823EDC
:103A1000910531F17FC0863E9105D9F1873E910530
:103A2000E9F1843E910509F075C028C02091FC01A0
:103A300020FD5BC021FD59C02091FD0123FD61C027
:103A400069C08091FC0180FD4AC08091FD0180FF2A
:103A50004CC08091FC0184FD39C183EE90E038C1F7
:103A60008091FC0182FF3EC0F4CF8091FC0182FD79
:103A700039C08091FD0180FD38C0EBCF8091FD0100
:103A800081FF39C08091FC0184FD20C187EE90E068
:103A90001FC18091FC0183FF2BC0F4CF8091FC01FA
:103AA00083FD26C08091FD0181FD25C0EBCF809173
:103AB000FC0185FD26C022C08091FC0185FD1EC051
:103AC0008091FD0183FF1DC00AC08091FC0186FD2D
:103AD0001BC01DC08091FC0186FD19C015C089E383
:103AE00090E0F6C082EE90E0F3C080EE90E0F0C08F
:103AF00086EE90E0EDC084EE90E0EAC085E390E0D1
:103B0000E7C089E290E0E4C08AE290E0E1C081E3AE
:103B100090E0DEC0811572E5970708F061C081155D
:103B200021E5920728F0982F8827816F906AD0C0EE
:103B3000883E910568F5803E910508F0C9C0883A35
:103B40009105B8F4853A910548F0855AE82FF0E0E0
:103B5000E959FE4F808190E09064BAC081309105B0
:103B600009F4B1C008F4B2C08430910508F4AEC0C5
:103B7000AFC08F3B910508F0A9C0885AE82FF0E04C
:103B8000EE0FFF1FE659FE4F808191819464A0C023
:103B9000811530E59307B0F0482F4F704695469554
:103BA00020E2429FA0011124837021E030E0B9019E
:103BB00002C0660F771F8A95E2F7CB019D68842BC0
:103BC000952B86C0811540E4940718F09F70906A89
:103BD0007FC09C013A9521153F4108F479C076C019
:103BE000EC01811576E59707E8F5C11585E5D8075D
:103BF00048F08C2F0E94D21A8F7190E0982F88275E
:103C0000906266C0C11524E5D20728F09C2F882752
:103C1000846F906A5DC0AE01437055272C2F2695A6
:103C20002695C115D34578F481E090E002C0880F55
:103C3000991F4A95E2F770E2279F90011124822B89
:103C4000932B9C6845C081E090E002C0880F991FCB
:103C50004A95E2F740E2249F90011124822B932B96
:103C60009A6836C081154AE59407F0F4811569E534
:103C7000960790F08C2F8F700E94D21A94E0D69500
:103C8000C7959A95E1F7CF70D0E0DC2FCC27D069AB
:103C9000BE01682BCB011CC081159845B8F09C2F44
:103CA0008827806F906A14C090568115904270F4F6
:103CB0008D2F8F710E94D21A282F2F71CE01992734
:103CC0009062922B05C081E090E002C080E090E01D
:103CD000DF91CF910895CF9384E090E00E949736D2
:103CE000C82F82E290E00E9497362C2F30E0A90185
:103CF000582BCA01CF91089580E090E00E94A5362C
:103D0000883E9E4F19F40E948227089580E008950E
:103D100068EE7EEF80E090E00E94C93660E082E0CD
:103D200090E00E94AB3660E083E090E00E94AB360A
:103D30001092320260E084E090E00E94AB3664E0D2
:103D400082E290E00E94AB3660E085E090E00E9465
:103D5000AB3660E086E090E00E94AB366FEF87E024
:103D600090E00E94AB3640E050E0BA0188E090E07D
:103D70000E94BD3660E08DE090E00E94AB3640E0EE
:103D800050E0BA0188E190E00E94BD3660E087E132
:103D900090E00E94AB3640E050E0BA018CE190E048
:103DA0000E94BD3660E070E080E290E00E94C9367B
:103DB00040E050E0BA0188E190E00E94BD3680E02A
:103DC0000E9453270E94722740E050E0BA018FE022
:103DD00090E00E94BD3640E050E0BA0183E190E0FF
:103DE0000E94BD36089580913102882331F01092EF
:103DF00031021092300210922F0208958095909116
:103E0000D70589238093D705089580959091D8058B
:103E100089238093D8050895ACE0B0E0E2E1FFE1AA
:103E20000C94EE35AE014F5F5F4F7A0188E0DA0106
:103E30001D928A95E9F70EE411E06A0182E5682E89
:103E400081E0782EAA24A394B12C28E5822E21E0CB
:103E5000922EF80180818F3F09F440C0F894E82F3A
:103E6000E295EF70F0E021A18F70A50102C0440F30
:103E7000551F8A95E2F7CA01922F982B91A392A120
:103E80008095892382A3789400C0E2E5F1E0512C6B
:103E900031E021912F3F89F0A22FA295AF70B0E0C1
:103EA00090968C9190E02F7002C0959587952A95F9
:103EB000E2F780FD02C0832F01C080E0582A330F53
:103EC0008E169F0631F7D8018C918F3F11F00E941A
:103ED000C21CB0EABA95F1F7F60150820F5F1F4F8E
:103EE000FFEFCF1ADF0A6016710609F0B2CF48E083
:103EF00050E0B70180ED91E00E94B537009741F0A6
:103F000028E0F701A0EDB1E001900D922A95E1F7CC
:103F10000091D901892B49F081E0809335020E94FC
:103F2000F62B9093340280933302809135028111F5
:103F300002C0F12C22C080913302909134020E9481
:103F4000DB2B0597B0F310E000511E4F44E050E02A
:103F500060ED71E0C8010E94B537892B59F084E00B
:103F6000E0EDF1E0D80101900D928A95E1F7FF2490
:103F7000F39401C0F12C109235020E943C1CE09198
:103F8000D901882309F477C019861A861B861C86F6
:103F90000E2F10E000511E4F80915F028A3058F4BE
:103FA0004EE95BE1BE01675F7F4FC8010E94151BB0
:103FB000882399F10AC080913602909137020E94BD
:103FC000DB2B843F914060F739C04AE75CE1BE01DA
:103FD000675F7F4FC8010E94151B8823F1F04AE4F8
:103FE0005BE1BE01675F7F4FC8010E94151B8823FC
:103FF000A1F010925F028091D80190E044E050E07F
:10400000BE01675F7F4F80519E4F0E94B53721E010
:1040100020933C02892B01F5A6C080915F028F3F5F
:1040200019F08F5F80935F0280915F028A3018F3EE
:104030000E94F62B909337028093360280913C02C7
:10404000882309F490C0FE01399684E0DF011D92B7
:104050008A95E9F710923C02E091D801F0E0E05136
:10406000FE4F89859A85AB85BC8580839183A28329
:10407000B38381E079C0F0E0E051FE4F84E0ABE42F
:10408000B2E001900D928A95E1F78BE492E00E94F4
:10409000C83380934A0280904F0290905002A090C3
:1040A0005102B09052028091380290913902A09151
:1040B0003A02B0913B0288169906AA06BB06D1F0D7
:1040C0008092380290923902A0923A02B0923B025A
:1040D0000E943C1C81110EC00E94EA2B861A970A8E
:1040E000A80AB90A8092CC019092CD01A092CE018B
:1040F000B092CF0180915A028823A9F180FF10C0AD
:104100008091530280FF0AC090918904916090933E
:10411000890460E086950E947B3102C00E94633171
:1041200080915A0281FF09C020E0409156026091BF
:104130005502809154020E94512B80915A0282FFB5
:1041400009C080915902882319F00E94BD2702C03E
:104150000E94B62780915A0283FF03C081E08093BA
:10416000D00210925A0280E08F292C96EFE00C9436
:104170000A36CF939091D8058091D705892B8093EB
:10418000A00480913102882361F10E94F62B2091D6
:104190002F0230913002821B930B8838934110F02C
:1041A0000E94F31E9091A00480913102892B80938C
:1041B000A00480911201882331F08091FC0187FFD7
:1041C00002C08EE101C086E0E2EAF4E090E08150B6
:1041D00028F021912223D9F39F5FF9CF91110E94FA
:1041E000F31EC091CD05C0958091A004C823809195
:1041F000CE05C82BC093A00440E250E06DEA72E007
:1042000080EA94E00E94B537892B11F180E2E0EA60
:10421000F4E0ADEAB2E001900D928A95E1F7E09109
:10422000DD05F091DE05309799F080911201882329
:1042300049F08091FC0187FF05C0C093A10486E08E
:104240008093A0040280F381E02D80EA94E0099538
:10425000CF91089580E090E00E949E2C80E090E055
:104260000E94882C1092D7050E94B92008951092C0
:10427000AC021092AB021092AA020895452B41F0B5
:104280006F3F41F491E08F3F09F090E0892F03C028
:1042900081E001C080E0817008958091A902909131
:1042A0007802891719F08F5F8770FBCF0895A0E01F
:1042B000B0E0EDE5F1E20C94F4358091770282955F
:1042C0008F7009F056C080917402882309F451C0A0
:1042D000C091A90286E0B82E80917802C81709F42F
:1042E00048C0F0907202E0907302C0907502D090C6
:1042F0007602A6016E2D8F2D0E943E21D0E0811105
:1043000035C0BC9E8001BD9E100D1124F801E758F8
:10431000FD4F81818E112AC080818F1127C082813B
:10432000811124C0E380F480EC18FD0860E082E78E
:1043300092E00E94D03162E772E00E94642FE8169A
:10434000F906A0F4809177028F70806180937702E4
:10435000F801E258FD4F80818F708061808382E791
:1043600092E00E945A040E944D2103C02196C7701A
:10437000B3CFCDB7DEB7E9E00C941036CF92DF9221
:10438000FF920F931F93CF93DF936C010091E3058E
:1043900080913202082BC7E0D0E010E0C8010C2E5B
:1043A00002C0959587950A94E2F780FD04C0219795
:1043B000A8F7F12C09C0FC2EB6018C2F0E94D32E39
:1043C0000E94E41C019799F38F2DDF91CF911F91EB
:1043D0000F91FF90DF90CF900895CF93DF93EC0182
:1043E0000E94BE21BE010E94D32E0E94E41CDF91D8
:1043F000CF9108950F931F93CF938C01FC014381BC
:104400005481618180810E943E21C82F81111DC08D
:10441000F801808191810E94ED2192959F709630E4
:1044200079F010F4925001C09A50923088F4803F95
:1044300071F018F4883E60F40AC0843F49F407C064
:10444000883E28F0813F21F402C0C0E001C0C1E0F5
:104450008C2FCF911F910F910895A1E1B0E0E3E37C
:10446000F2E20C94ED358C0185E0F801DE011D9639
:1044700001900D928A95E1F7F801E28082E7A82E7B
:1044800082E0B82E8090750290907602A40160912F
:104490007302809172020E943E21682E81115FC1D9
:1044A000F801C380D480F0907402C601881999097C
:1044B0004C01FF2009F4F5C04080518060E0C50147
:1044C0000E94D031B5010E94642F70907702881647
:1044D000990608F0B2C04091750250917602B090F2
:1044E0007202A0907302872D807F6A2D09F054C05C
:1044F0008B2D0E943E21811118C0F80181818A1103
:1045000014C080818B1111C0FE2CE1100EC0872DCC
:104510008F7080618093770282E792E00E945A0454
:1045200080917702F801858357C1A601652D842DFE
:104530000E943E21811103C081E08E2502C080E0EF
:1045400090E0F82FF170FF2E80FF1CC08091A9022F
:104550002091780236E0821709F41CC190E0389F60
:10456000F001399FF00D1124E758FD4F418154129D
:1045700006C04081441203C04281E41203C0019688
:104580008770E9CFFE2CEE2009F426C180917702D6
:104590008160809377025DC08B2D0E943E21811146
:1045A0000BC0F80181818A1107C080818B1104C082
:1045B000E11002C07582B3C0C8010E94FA218823AD
:1045C000B1F1EE20A1F120917702822F82958F70B8
:1045D00090E0029774F08091720290917302988734
:1045E0008F831986DB86CA862C87CE0107960E94A8
:1045F0005A0486E0F801A2E7B2E001900D928A9594
:10460000E1F70E94572116C09090720280907302C9
:104610004091750250917602682D892D0E943E21AD
:104620008823C9F0C8010E94FA21811122C0C80163
:104630000E945A04FF24F394CFC0872D807F21F776
:1046400082E792E00E945A0486E0F50111928A9571
:10465000E9F7F12CC1C0F80181818811E3CF808195
:104660008911E0CFE110DECF7582C8010E945A04A3
:1046700070C0EE20E1F220917702822F82958F7038
:1046800090E002970CF4B5CF809172029091730282
:104690009A8389831B82DD82CC822E83CE01019690
:1046A000A6CF60E082E792E00E94D03162E772E03C
:1046B0000E94642F8816990608F04BC0FE2CEE204D
:1046C00009F4B5CFE0907202D09073024091750268
:1046D000509176026D2D8E2D0E943E2181112BC0AE
:1046E000F80181818D1127C080818E1124C09091A5
:1046F000770290FD17C0892F82958F70282F30E0A8
:104700002115310579F095832F30310541F08F5F08
:10471000982F9295907F85818F70892B8583C80112
:104720000E945A0486E0F801A2E7B2E001900D92DF
:104730008A95E1F751C0C8010E94FA21811159CF31
:1047400080917702816080937702C8010E945A04A9
:1047500043C086E0F50111928A95E9F73DC0EE204D
:1047600009F465CFC8010E94FA21F82E882309F4C4
:104770005ECF86E0F801A2E7B2E001900D928A9543
:10478000E1F780917202909173020E94ED210E94E4
:10479000572122C04D865E868D859E850E94ED2123
:1047A000292F22952F70223028F49F7039F0811123
:1047B00005C00BC0243028F49F7049F4805E883017
:1047C00020F0C8010E945A046F2CF62C05C0F80195
:1047D0009581907F99F7F9CF8F2D6196E0E10C9448
:1047E0000936292F983078F5863068F590E036E064
:1047F000239F800D911D1124682F677023E09695EB
:1048000087952A95E1F7FC01EE0FFF1FE80FF91FCE
:10481000E05AFD4F40E050E080E0219130E0062E6C
:1048200002C0369527950A94E2F721703327042EAB
:1048300001C0220F0A94EAF7822B4F5F5F4F43308B
:10484000510559F7089580E00895292F983088F58B
:10485000863078F590E036E0239F800D911D11247D
:10486000282F277051E001C0550F2A95EAF723E061
:10487000969587952A95E1F7FC01EE0FFF1FE80F4B
:10488000F91FE05AFD4F20E030E070E04081CB019D
:10489000022E02C0969587950A94E2F78170819561
:1048A00084278523842781932F5F3F4F2330310551
:1048B00069F708958093E3050E942A21089521E075
:1048C00030E001C0220F8A95EAF720958091E30538
:1048D00082230E945A2408952091AC02809582235D
:1048E0008093AC02982F977099F430E0482F082EEF
:1048F000000C550B2417350759F09091FD0192FFDC
:1049000007C08595859585950E945F240E94372173
:104910000895CF93C091FD01C2FB992790F9981794
:1049200091F080FBC2F9C093FD016091FC0184E02D
:1049300090E00E94AB366C2F82E290E00E94AB3692
:1049400082E00E946C24CF91089521E030E001C004
:10495000220F8A95EAF78091E305822B0E945A2460
:1049600008959091FD0192FF10C098E0899F9001F9
:104970001124262B2093AC020E94A5240E94F62B22
:104980009093AB028093AA0208950E94A5240895F3
:10499000809332020E942A2108951092D8058091B6
:1049A0001201882331F08091FC0187FF02C08EE163
:1049B00001C086E0E2EAF4E0DF011D928A95E9F7A2
:1049C0000E942A210895882321F00E94FE1E0E9441
:1049D000B9200895882339F09091D705892B8093C9
:1049E000D7050E94B9200895882321F00E94051F51
:1049F0000E94B9200895882339F09091D805892B19
:104A00008093D8050E94B9200895882349F1682F22
:104A10008CEF860F813A28F480EA94E00E942B2CD8
:104A20000CC080E2860F883058F4677081E001C0C6
:104A3000880F6A95EAF70E94051F0E94B920089521
:104A40008BE5860F833028F480E090E00E949E2C56
:104A50000895685A673120F480E090E00E94882C25
:104A60000895CF93882309F469C0C82F8CEF8C0F69
:104A7000813AC0F5809112018823E1F08091FC0118
:104A800087FF18C0EC2FE695E695E695F0E0E05636
:104A9000FB4F8281282F30E04C2F477081E090E05F
:104AA00002C0880F991F4A95E2F782239323892B2E
:104AB00061F412C0E2EAF4E088EA94E02191C217BE
:104AC00021F08E179F07D1F707C06C2F80EA94E082
:104AD0000E942B2C0E94B9206C2F80EA94E00E9447
:104AE000532C10C080E28C0F883078F4C77081E0BE
:104AF00090E001C0880FCA95EAF79091D805892BFC
:104B00008093D8050E94B92019C0EBE5EC0FE33083
:104B100040F4F0E0E959FE4F808190E00E949E2C25
:104B20000DC0C85AC73150F4EC2FF0E0EE0FFF1F54
:104B3000E659FE4F808191810E94882CCF91089583
:104B40001F93CF93DF93182F893319F0C0E0D0E083
:104B500002C0C0E5D0E0812F0E943125209741F0AE
:104B60008FE99FE00197F1F700C000002197F6CF91
:104B7000812F0E940525DF91CF911F9108950895FF
:104B8000CF93DF93EC01E9E8F4E0438162818C810B
:104B90000E944B318C818F5F8C83DF91CF91089580
:104BA000CF93DF93EC01EC81F0E0E05FFB4F4491A9
:104BB000E9E8F4E0628181810E944B318C818F5F52
:104BC0008C83DF91CF910895A5E0B0E0EAEEF5E2A5
:104BD0000C94F9358C019093BE058093BD050115A9
:104BE00080E21807B8F4802F0E940525C801805E76
:104BF0009109089718F00115110531F4C8010E94B8
:104C000011320E94F42416C0C8010E9411320E9481
:104C1000E32410C080EF89838A831B820E94F62BD5
:104C20008160782F9D838C8349815A816B818D812E
:104C30000E9458322596E4E00C9415360F931F938A
:104C4000CF93DF938C01EB0166E974E08C2F0E9417
:104C5000EF2D892BE1F5DD27C257DB4F8881F80165
:104C600012821882833079F048F4813041F1823029
:104C700071F5809198049091990409C0843051F0A5
:104C80008530E9F024C080919A0490919B040097AC
:104C9000B1F01BC080919C0490919D040097A9F4F1
:104CA00020919604309197048091980490919904F2
:104CB0002115310541F0009741F4C90106C08091EA
:104CC000960490919704009711F00E94E425DF91DB
:104CD000CF911F910F910895A5E0B0E0E2E7F6E2D1
:104CE0000C94FB359093BE058093BD05811520E2A1
:104CF000920718F40E943E3211C080EF89838A83A4
:104D000081E08B830E94F62B8160782F9D838C83BA
:104D100049815A816B818D810E9458322596E2E04B
:104D20000C941736CF93DF93EC010E946C26CE01D2
:104D30000E94E425DF91CF9108950F931F93CF93A5
:104D4000DF938C01EB0166E974E08C2F0E94EF2D5C
:104D5000892B09F067C0DD27F8018281813039F4A1
:104D6000958192FD13C090FF11C082E00FC0823088
:104D700041F4F801858182FD06C080FD06C083E014
:104D800005C086E003C085E001C084E0C257DB4F68
:104D900088838330B1F028F4813071F0823031F0B3
:104DA00041C08430A9F0853079F13CC080919804ED
:104DB000909199040097A1F58091960490919704A1
:104DC00020C080919A0490919B040097E9F028C03C
:104DD00080919C0490919D04009711F58091960418
:104DE00090919704009749F00E9492268091980430
:104DF00090919904009781F013C08091980490914C
:104E00009904009779F00CC08091960490919704D2
:104E1000009741F00E949226809196049091970409
:104E20000E946C26DF91CF911F910F9108950F93EF
:104E30001F93CF93DF938C01862F66E974E00E9465
:104E4000EF2D892BB1F4C0919604D091970420974F
:104E500081F0F8018281833039F4CE010E949226DC
:104E6000CE010E94922602C0843018F0CE010E942A
:104E70009226DF91CF911F910F91089581152CE516
:104E8000920759F48091BB059091BC05892B19F4C8
:104E900080E090E0089580E09CE5089586E290E04F
:104EA0000E94AB360895CF93C82F811102C06FEFD7
:104EB00001C06EE283E290E00E94AB36C11102C0F5
:104EC0006FEF01C066E884E290E00E94AB36C1114A
:104ED00002C06FEF01C06FE385E290E00E94AB3645
:104EE000CF91089580E00E94532760E070E0CB01ED
:104EF0000E944E270E942B2E0E94DF2D81E00E94EF
:104F00005327089583E290E00E9497368E3281F411
:104F100084E290E00E949736863851F485E290E072
:104F20000E94973691E08F3309F090E0892F01C0FD
:104F300080E0817008959091890490FF04C0969557
:104F4000981748F003C0811106C090E0961718F436
:104F50000E94C531089561E00E947B310895882345
:104F600011F0FA0101C0FB0109950895E3EDF2E0AB
:104F7000118282818460828308956091890466959C
:104F800070E04BE050E083E391E00E94A837892B6A
:104F900019F481E08093D4020E94D91C9093CE0230
:104FA0008093CD028091D50284608093D5020895CC
:104FB000309142018091890480FF16C0E091410147
:104FC00063E0E69FF0011124E752FD4F539A8BB145
:104FD000877F9BB198602FB7F894AF0163E0369F4D
:104FE000400D511D112414C0809143019091440142
:104FF000891720F7E82FF0E0AF01440F551FE40FA9
:10500000F51FE752FD4F1182108212828F5FF0CFA1
:10501000E417F50789F0319168E09BB9000000C002
:1050200037FF8BB9330F000000C000C000C08BB940
:1050300000C06A9591F7ECCF2FBF8FE594E0019700
:10504000F1F700C000000895A0E0B0E0EAE2F8E265
:105050000C94F035FC018280748081E08483E0E16F
:10506000F4E09490EFE8F4E0E491A12CF5E0BF2E99
:10507000CC24CA94D12CE9190E2F10E0809145015F
:10508000A81608F0A2C0EA2CF12C22E0281568F03E
:10509000BE9CF001BF9CF00D1124E558FC4F80919F
:1050A0008A04808380918B04818371100AC0BE9C26
:1050B000F001BF9CF00D1124E558FC4F13821282C1
:1050C0006AC0BE9CE001BF9CD00D1124C558DC4FC6
:1050D0008B818823F9F081508B832FEF829FC00151
:1050E00011246C8170E00E946437FB01FF27E05FB0
:1050F000FB4F8491E82FE9192FEFE29FC0011124A3
:10510000B8010E94643780918C04689FB00111241B
:105110007A8341C00E946E3620918C0426952158D6
:1051200030E0A901440F551F322F2227240F351FCD
:10513000232F33278217930774F582E0881588F4AC
:105140000E946E36B6010E94783788830E946E36C0
:1051500020918B042695622F70E00E947837280FEB
:105160002983BE9CF001BF9CF00D1124E558FC4F33
:10517000128280918C04843120F0893C18F088ECF4
:1051800001C084E1BE9CF001BF9CF00D1124E558E4
:10519000FC4F84838383809143019701280F311D45
:1051A000C901880F991F280F391F27523D4FBE9CF8
:1051B000F001BF9CF00D1124E558FC4F4281618144
:1051C00080810E94BC30A39459CF0E94D827CDB7CC
:1051D000DEB7EDE00C940C360F931F93CF93DF9363
:1051E000EC0100E010E080914501282F30E002172B
:1051F000130724F5909143019801290F311DA9014E
:10520000440F551F240F351F27523D4F869590E0C0
:105210004C81081719071CF4442331F002C04111D6
:1052200003C040918C0401C040E060918B048091E8
:105230008A040E94BC300F5F1F4FD5CF0E94D82731
:105240008C8190E00196817099278C83DF91CF91BA
:105250001F910F910895A0E0B0E0E1E3F9E20C9412
:10526000F1358C01FC014481C42FD0E09E01DE01A8
:105270000E943B379B01AC010E9406376B017C0109
:10528000E0E2F0E0EC1BFD0BA5E5B0E09B01AC011A
:105290000E9406374B015C019F01DF010E94993794
:1052A0009B01AC010E9411379B01AC012C0D3D1DEF
:1052B0004E1D5F1DC501B4010E941937C22FD22FA8
:1052C0002A3228F4F3E02F9F900111240DC025E528
:1052D00030E02C1B3109C901880F991F280F391F95
:1052E00037FF02C02F5F3F4F35952795C22FC095DE
:1052F000F12C85E5E82EED1A80914501F816C8F4E9
:10530000F1FC02C08E2D01C08D2F909143012F2DF5
:1053100030E0290F311DA901440F551F240F351FFF
:1053200027523D4F4C2F60918B040E94BC30F39468
:10533000E3CF0E94D827F8018481811102C091E057
:1053400003C0803219F49FEF909340019091400187
:10535000890FF8018483CDB7DEB7ECE00C940D36ED
:105360001F93CF93DF93EC018C81811109C081E001
:105370008C831092D70292E090933F0180933E017C
:105380008091430190914401891770F4E82FF0E077
:105390009F01220F331FE20FF31FE752FD4F1182CF
:1053A000108212828F5FF0CF10E0609145011617D6
:1053B000C0F5E12FF0E070E0CF010E947837209136
:1053C0004301820F2091D702022E000C330B90E094
:1053D000E217F307CCF020913F01022E000C330BB3
:1053E0002E173F078CF09C01220F331F820F931F53
:1053F0009C0127523D4F40918C0460918B04809119
:105400008A040E94BC300BC0FC01EE0FFF1F8E0F00
:105410009F1FFC01E752FD4F1182108212821F5F15
:10542000C4CF0E94D82780913E012091D702280F37
:105430002093D70290913F01980F90933F01191646
:105440005CF4022E000C330B4091450150E04150BA
:1054500051092417350734F0819580933E0181303E
:1054600009F41C82DF91CF911F910895A0E0B0E074
:10547000ECE3FAE20C94F035EC018A8180FF03C082
:10548000BB24BA9402C0BB24B3948C8181110DC09B
:1054900081E0B81206C08091450181508093D60208
:1054A00002C01092D60281E08C83A12C46E3842EA8
:1054B00090904501A91408F041C080914301CA2C85
:1054C000D12C8601080F111DC801880F991F080FE4
:1054D000191F07521D4FF80111821082128234E009
:1054E000E32EF12C712C8091D602870D87332CF09E
:1054F000682D0E945637892F02C087FD890D082E1E
:10550000000C990BC816D90691F480918C048E9DDD
:10551000A0018F9D500D11245595479555954795A0
:10552000980160918B0480918A040E94BC307B0CAE
:10553000F1E0EF1AF108B9F6A394BACF0E94D82788
:105540008091D60291E0B9120EC0811107C08091FE
:10555000450181508093D6021C820FC081508093F8
:10556000D602BC820AC090E001966091450170E0CD
:105570000E9478378093D6028C83CDB7DEB7EDE0FA
:105580000C940C36FF920F931F93CF93DF93EC0193
:10559000F12C0FEF10E060914501F616F0F48091C8
:1055A00043012F2D30E0280F311DC901880F991FAD
:1055B000280F391F27523D4F70E0C8010E947837ED
:1055C000962F8C8140918C0460918B04F99E800D04
:1055D00011240E94BC30F394DECF0E94D8279A8118
:1055E0008C8190FF02C08F5F01C081508C83CDB74A
:1055F000DEB7E5E00C9414369091890490FF16C054
:105600009091430120914401921770F4E92FF0E04A
:10561000DF01AA0FBB1FEA0FFB1FE752FD4F81837B
:10562000608342839F5FF0CF0E94D8270895A3E054
:10563000B0E0EDE1FBE20C94F9358C018091D802E9
:1056400081110AC09E012F5F3F4F48E76FEF0E9414
:10565000BC308A818093D802F8018481813051F076
:1056600028F0823061F44091D8020AC08091D802BB
:1056700040E007C06091D80240E080E003C040E015
:1056800080E060E00E94FC2AF801848190E00196AD
:1056900063E070E00E94783784832396E4E00C9402
:1056A0001536A3E0B0E0E7E5FBE20C94F435082FF3
:1056B000E62EF42ED22E9091890490FF78C0E92F27
:1056C000E695AE2FB0E0A656BE4F8C918093D302E4
:1056D0009E7F923061F49E012F5F3F4F802F0E948A
:1056E000BC304B8169818A810E94FC2A3DC0823096
:1056F00019F4F0908C0438C0863019F400918A04B3
:1057000033C08930D9F3893179F5E9518E2F817011
:10571000C82EE695F0E0E55FFB4F1491B12C609147
:105720004501B616F8F4B19EC001112470E00E9444
:105730006437802FC11002C0860F01C0861B909174
:1057400043012B2D30E0290F311DA901440F551FB6
:10575000240F351F27523D4F4F2D6E2D0E94BC3018
:10576000B394DDCF0E94D82780918A04081308C023
:1057700080918B04E81204C080918C04F81629F003
:105780008091D50282608093D50200938A04E092D2
:105790008B04F0928C04DD2051F0609189047091AB
:1057A0008A0480918B0490918C040E946C30239623
:1057B000E9E00C9410369C014FB7F8948091F80101
:1057C0009091F901A091FA01B091FB014FBF821BAA
:1057D000930B08952FB7F8946091F8017091F90137
:1057E0008091FA019091FB012FBF08952FB7F89493
:1057F0008091F8019091F901A091FA01B091FB011B
:105800002FBF08951F920F920FB60F9211248F93FE
:105810009F93AF93BF938091E105811113C0809155
:10582000F8019091F901A091FA01B091FB01419624
:10583000A11DB11D8093F8019093F901A093FA0185
:10584000B093FB01BF91AF919F918F910F900FBECD
:105850000F901F901895209112012223C9F02091DA
:10586000FC0127FF15C0262F2695269526952E315B
:10587000C8F4FC01E20FF11D677081E090E001C007
:10588000880F6A95EAF7809592818923828308952B
:10589000FC0106962281621301C012823196E8173C
:1058A000F907C1F70895209112012223C1F0209138
:1058B000FC0127FF14C0262F2695269526952E310C
:1058C00030F5FC01E20FF11D677081E090E001C04E
:1058D000880F6A95EAF79281892B82830895FC01EB
:1058E00032962FEF30E04191641789F02F3F19F481
:1058F000411101C0232F3F5F3630A9F72F3F39F008
:10590000FC01E20FF11D27FDFA95628308950895C9
:105910002091DF053091E0052817390771F0909349
:10592000E0058093DF05E091DD05F091DE0530971D
:1059300021F00084F185E02D099508952091DB0583
:105940003091DC052817390771F09093DC058093BE
:10595000DB05E091DD05F091DE05309721F0068052
:10596000F781E02D099508950E943C1C882359F089
:10597000E091DD05F091DE05309729F00190F0818E
:10598000E02D0995089580E00895CF93DF93EC0111
:10599000EA85FB85309719F06C857D8509958B81AB
:1059A0000E94FE1E8C810E94051F0E94B92086E085
:1059B000FE0111928A95E9F7DF91CF910895CF9377
:1059C000DF93EC018D8181FD18C082608D83909101
:1059D000D7058B81892B8093D7059091D8058C8131
:1059E000892B8093D8050E94B920E885F9853097E6
:1059F00021F06C857D85CE0109951092DA05109213
:105A0000D9058D8180FD03C0CE010E94C52CDF9198
:105A1000CF910895CF92DF92EF92FF92CF93DF93D1
:105A2000EC01C090C905D090CA05E090CB05F0907C
:105A3000CC05C701B6010E94B41A643F71408105CC
:105A4000910568F4C092C505D092C605E092C705DD
:105A5000F092C80584EF91E0A0E0B0E00EC00E9493
:105A6000EA2B6093C5057093C6058093C705909394
:105A7000C80582E390E0A0E0B0E08093C105909378
:105A8000C205A093C305B093C405D093D105C093BC
:105A9000D005DF91CF91FF90EF90DF90CF900895E8
:105AA000FF920F931F93CF93DF930091D205109134
:105AB000D3050115110509F45CC01092D1051092AF
:105AC000D0051092CD051092CE05D80116966D9195
:105AD0007C9117979B013A9521153F4108F4707E00
