:100000000C9424050C945C050C945C050C94A027BE
:100010000C945C050C945C050C945C050C945C05DC
:100020000C945C050C945C050C9404100C94231443
:100030000C9437210C945C050C945C050C945C05C5
:100040000C945C050C945C050C945C050C945C05AC
:100050000C945C050C94DD100C945C050C945C0510
:100060000C945C050C945C050C945C050C945C058C
:100070000C945C050C945C050C945C050C945C057C
:100080000C945C050C945C050C945C050C945C056C
:100090000C945C050C945C050C945C050C945C055C
:1000A0000C945C050C945C050C945C0520202020CD
:1000B0006162636465666768696A6B6C6D6E6F70B8
:1000C0007172737475767778797A31323334353664
:1000D00037383930524542545F2D3D5B5D5C233BE0
:1000E00027602C2E2F2020200000000000000000A0
:1000F0000000000000000000000000000000000000
:100100000000000000000000000000007E0F00D48E
:10011000FFFFFFC7000000780000000000000000A3
:100120002A2B280000000000000000000000000052
:1001300000000029000000002C1E3420212224345D
:100140002627252E362D3738271E1F20212223242F
:1001500025263333362E37381F0405060708090ACB
:100160000B0C0D0E0F101112131415161718191A67
:100170001B1C1D2F3130232D350405060708090AE5
:100180000B0C0D0E0F101112131415161718191A47
:100190001B1C1D2F3130354C000014001A000800C4
:1001A00015001700000004001600070009000A00EF
:1001B00000001D001B0006001900050000000000E3
:1001C00000002B2421522A000000130012000C0012
:1001D00018001C00000034000F000E000D000B0082
:1001E0000000283237003600100011000000000027
:1001F00000003E2122522C0000003A003B003C004F
:100200003D00010000003E003F0040004100281377
:10021000000042004300440045000F0800000000B9
:100220000000E2000100280000002A002B00290045
:100230004C053500000033004F00520051005000C3
:10024000000038004D004B004E004A000000000046
:100250000000E3002352280000001E001F002000C1
:1002600001004600000021002200230001001913B4
:100270000000240025002600270051130000000084
:100280000000E20023522C00000027022602250273
:1002900024020100000030002F002E002D0001007C
:1002A0000000B700B600640032000100000000004A
:1002B0000000E300010028000000007C00000000B6
:1002C0000000000000002378257827780000000057
:1002D00000002478267828782178000000000000AB
:1002E0000000E20001002C000000000000000000FF
:1002F00000000000000000000000000000000000FE
:1003000000000000000000000000000000000000ED
:100310000000E3000100280000DA0281FFD9F1DBD0
:1003200020A4A62EAF00A0C0D30000A1C8D3000017
:10033000AED580A81F408D14200041646A75737487
:10034000005261697365004C6F77657200446566A1
:1003500061756C74004C617965723A20008081820D
:10036000838485868788898A8B8C8D8E8F909192E5
:100370009394A0A1A2A3A4A5A6A7A8A9AAABACAD3B
:10038000AEAFB0B1B2B3B4C0C1C2C3C4C5C6C7C8B2
:10039000C9CACBCCCDCECFD0D1D2D3D40000AF0000
:1003A000AE05010902A10185020901A10005091993
:1003B000012908150025019508750181020501092B
:1003C0003009311581257F95027508810609381598
:1003D00081257F950175088106050C0A3802158173
:1003E000257F950175088106C0C005010980A1011E
:1003F000850319012AB700150126B700950175106C
:100400008100C0050C0901A101850419012AA0027F
:10041000150126A002950175108100C0050109068D
:10042000A1018506050719E029E7150025019508B2
:10043000750181020507190029EF1500250195F0C6
:1004400075018102050819012905950575019102BB
:10045000950175039101C005010906A10105071960
:10046000E029E715002501950875018102950175C0
:100470000881010507190029FF150026FF009506D0
:100480007508810005081901290595057501910276
:10049000950175039101C009023B00020100A0FA19
:1004A00009040000010301010009211101000122DA
:1004B0004000070581030800010904010001030051
:1004C000000009211101000122B600070582032066
:1004D0000001120100020000000853460100010063
:1004E000010200010C0343006F0072006E00650002
:1004F0000000100366006F006F007300740061005D
:100500006E000000040309040000000000003E5BD0
:100510004F5B3E003E6B4F6B3E001C3E7C3E1C0022
:10052000183C7E3C18001C577D571C001C5E7F5EEB
:100530001C0000183C180000FFE7C3E7FF0000188C
:1005400024180000FFE7DBE7FF0030483A060E0002
:10055000262979292600407F05050700407F0525CB
:100560003F005A3CE73C5A007F3E1C1C0800081C18
:100570001C3E7F0014227F2214005F5F005F5F003B
:1005800006097F017F00006689956A0060606060EF
:10059000600094A2FFA2940008047E0408001020CA
:1005A0007E20100008082A1C0800081C2A080800E1
:1005B0001E10101010000C1E0C1E0C0030383E389F
:1005C0003000060E3E0E0600000000000000000095
:1005D0005F000000000700070000147F147F140074
:1005E000242A7F2A12002313086462003649562009
:1005F0005000000807030000001C224100000041D9
:10060000221C00002A1C7F1C2A0008083E08080043
:1006100000807030000008080808080000006060D2
:1006200000002010080402003E5149453E000042EF
:100630007F4000007249494946002141494D33003D
:100640001814127F10002745454539003C4A494996
:100650003100412111090700364949493600464910
:1006600049291E0000001400000000403400000072
:100670000008142241001414141414000041221420
:1006800008000201590906003E415D594E007C12E6
:1006900011127C007F49494936003E414141220008
:1006A0007F4141413E007F49494941007F09090995
:1006B00001003E41415173007F0808087F0000415E
:1006C0007F4100002040413F01007F08142241008B
:1006D0007F40404040007F021C027F007F040810E2
:1006E0007F003E4141413E007F09090906003E412D
:1006F00051215E007F0919294600264949493200E7
:1007000003017F0103003F4040403F001F20402085
:100710001F003F4038403F00631408146300030487
:10072000780403006159494D4300007F4141410075
:10073000020408102000004141417F000402010230
:1007400004004040404040000003070800002054DF
:10075000547840007F2844443800384444442800FA
:10076000384444287F0038545454180000087E0947
:1007700002001824241C78007F0804047800004438
:100780007D4000002040403D00007F1028440000D4
:1007900000417F4000007C04780478007C08040459
:1007A00078003844444438007C1824241800182465
:1007B00024187C007C080404080048545454240085
:1007C00004043F4424003C4040207C001C20402086
:1007D0001C003C4030403C004428102844004C9011
:1007E00090907C004464544C440000083641000062
:1007F00000007700000000413608000002010204FA
:1008000002003C2623263C000000000000000000FF
:100810000000000000000000C0E0F0F8F81800C080
:10082000F0FCFEFFFFFFFFFFFFFF7E000000000067
:100830000000000080C0E0E0E0E0E0E0E0E0C08038
:100840000000000080C0E0E0E0E0E0E0E0E0C08028
:10085000000000E0E0C0C0E0E0E0E00000E0E0C058
:10086000C0E0E0E0E0E0C0800000000080C0E0E028
:10087000E0E0E0E0E0E0C0800000000000000000F8
:10088000000000000000E0F0F0F0E0ECEEF7F370A4
:1008900020007C7C7C7E007E7E7E7F7F7F000080CF
:1008A000C0E07E5B4F5BFEC00000C000DCD7DEDE38
:1008B000DED7DC00C00000000000000000000000E7
:1008C0000000000000000000000000000000000028
:1008D00000F8FCFEFFE000FFFFFFFFFFFF80FFFFCF
:1008E000FFFFFFFFFFFFFF1F0701000000000000E8
:1008F000000000FFFFFF8100000000000081C3C373
:10090000C30000FFFFFF8100000000000081FFFF27
:10091000FF0000FFFFFF01000000000000FFFFFFDD
:10092000010000000001FFFFFF0000FFFFFF9D1C12
:100930001C1C1C1C1C9DDFDFDF00000000000000F1
:100940000000000000000F1F3F7F7F7F7F7F3F1E62
:100950000C001F1F1F3F003F3F3F7F7F7F00307B0A
:100960007F7830202030787F3B0003000F7F0F0F0F
:100970000F7F0F00030000000000000000000000D7
:100980000000000000000000000000000000000067
:1009900000030F1F3F3F3F3F1F1F3F3F7F7F7F3FB2
:1009A0003F1F3F7F7F7F7F7C7878381C0F000000DF
:1009B00000000000010307070707070707070301F7
:1009C00000000000010307070707070707070301E7
:1009D00000000007070700000000000000070707ED
:1009E00000000000000007070700000001030707E0
:1009F00007070707070703010000000000000000C9
:100A000000000000000000000000000000000000E6
:100A100000000000000000000000000000000000D6
:100A200000000000000000000000000000000000C6
:100A300000000000000000000000000000000000B6
:100A4000000000000000000011241FBECFEFDAE01C
:100A5000DEBFCDBF04B603FE18C08091450590915E
:100A60004605A0914705B09148058730904BA740B7
:100A7000B04B59F410924505109246051092470567
:100A800010924805E0E0F8E3099511E0A0E0B1E03C
:100A9000EEE5F9E502C005900D92AE38B107D9F741
:100AA00025E0AEE8B1E001C01D92A534B207E1F740
:100AB0000E945E210C945F2C0C940000B0E0A0E03A
:100AC000E4E6F5E00C94D62820912D0130912E011A
:100AD0002817390721F4209139032032A9F1909386
:100AE0002E0180932D0120E2209339036C01F12C1B
:100AF000E12C1092380308E313E0D0E0C0E08AE074
:100B0000882E912CA12CB12CC701B601A50194010E
:100B10000E942729605D603311F4209731F0C114E1
:100B2000D104E104F10409F460E2F80162938F0159
:100B3000C701B601A50194010E94272969017A0124
:100B40002196C530D10501F783E393E0CDB7DEB739
:100B5000ECE00C94F228482F20912F039091F6029C
:100B600057E0291302C080E0089530E0529FF00161
:100B7000539FF00D1124E950FD4F8181681306C089
:100B80008081481303C085818111EECF2F5F3F4FD5
:100B90002770E7CFFC01AC014C5F5F4F8FEF91E313
:100BA0002191822728E030E087FF09C0880F89273C
:100BB00021503109C9F7E417F50791F70895880F17
:100BC000F7CFE8EDF0E080818E7F80831092E20025
:100BD0001092DA001092E100A0EEB0E08C918160FA
:100BE0008C9380818F77808319BCA7EDB0E08C91C6
:100BF0008E7F8C9380818F7E80831092C7020895B0
:100C00002091E4003091E50095E6A9012091EC00E7
:100C1000822F817020FF06C08091E80080FF06C00F
:100C200080E008952091E80022FD1AC08091EC0236
:100C3000882389F0853089F08091EB0085FD0FC015
:100C40002091E4003091E50042175307F9F29150EA
:100C5000E1F684E0089582E0089583E0089581E05C
:100C600008958091EE0287FF13C08091E80082FF13
:100C700006C08091E8008B778093E80004C08091E3
:100C8000EC028111F2CF08958091EC028823D9F310
:100C90008091E80080FFF8CF8091E8008E77ECCF5C
:100CA000982F9093E900242F762F50E0891731F088
:100CB0007091EC002091ED005091F00021FD07C0F3
:100CC0009F5F973071F78093E90081E0089530913C
:100CD000EB003E7F3093EB003091ED003D7F309391
:100CE000ED003091EB0031603093EB007093EC003D
:100CF0002093ED005093F0002091EE0027FDE0CF0F
:100D000080E00895B0E0A0E0E8E8F6E00C94DA288E
:100D1000C8EDD0E088818F7E8883E7EDF0E08081A8
:100D20008160808384E082BF81E08093C7028881F4
:100D30008E7F888302EE10E0F80110821092DA00B4
:100D400081EEC82ED12CF601108288818F7788839E
:100D500088818068888388818F7D888319BC109200
:100D6000EC021092ED021092EB021092EA0290EE69
:100D7000E92EF12CF70180818B7F8083888181604F
:100D8000888342E060E080E00E945006F6018081A6
:100D90008E7F8083F801808181608083808188607C
:100DA0008083F70180818E7F808388818061888342
:100DB000CDB7DEB7E8E00C94F628FC018091F40290
:100DC0009091F50286179707A0F06115710529F437
:100DD0009091E8009E779093E80090E0611571058E
:100DE00051F4911108C08091E80082FF34C080E086
:100DF0000895BC01F2CF8091EC028823C1F18530C7
:100E0000C1F18091E80083FD30C08091E80082FD4F
:100E1000EACF8091E80080FFE1CF8091F30020913C
:100E2000F200382F6115710519F02830310558F09E
:100E300091E02830310509F090E02091E8002E770C
:100E40002093E800CBCF81918093F100615071092C
:100E50002F5F3F4FE7CF8091EC02882341F0853030
:100E600041F08091E80083FFBECF81E0089582E0E9
:100E7000089583E008958091C90208952FB7F894EA
:100E80006091C1027091C2028091C3029091C4022C
:100E90002FBF089520912C012223C9F02091C50273
:100EA00027FF15C0E62FE695E695E695EE31D8F4D6
:100EB000E80FF92FF11D677021E030E001C0220F2B
:100EC0006A95EAF720958281282322830895FC0100
:100ED000329608962191621303C0DF0111971C928C
:100EE000E817F907B9F7089520912C012223C1F0E2
:100EF0002091C50227FF14C0E62FE695E695E695FA
:100F0000EE31F8F4E80FF92FF11D677021E030E0C1
:100F100001C0220F6A95EAF78281822B82830895AD
:100F2000FC0132962FEF30E04191641751F02F3FD2
:100F300019F4411101C0232F3F5F3630A9F72F3F2D
:100F400009F40895820F911D27FD9A95FC01628393
:100F50000895A3E0B0E0EFEAF7E00C94E0282091D8
:100F6000BE023091BF0228173907A1F09093BF024B
:100F70008093BE02E091BC02F091BD02309751F027
:100F800024E029839B838A830680F781E02DCE01AC
:100F9000019609952396E2E00C94FC28A3E0B0E0CA
:100FA000E4EDF7E00C94E0282091BA023091BB0206
:100FB00028173907A1F09093BB028093BA02E09101
:100FC000BC02F091BD02309751F023E029839B834E
:100FD0008A830680F781E02DCE010196099523963C
:100FE000E2E00C94FC288091830280FD16C081FD14
:100FF00016C082FD16C0809182028823A1F088323B
:1010000080F428E0829FC001112468E270E00E9411
:101010001329862F672B39F0089582E0089584E024
:10102000089588E0089581E008958091830280FD0D
:1010300014C081FD14C082FD16C0809181028823F6
:1010400081F08E3180F420E5829FC00111246EE191
:1010500070E00E941329862F089584E1089588E2A4
:10106000089588E0089580E5089580E00895F89453
:10107000E82FE295EF70F0E031A1282F2F7081E08A
:1010800090E001C0880F2A95EAF7982F9095932356
:1010900091A392A1892B82A3789408959091C5027F
:1010A00092FF06C0282F28712830F9F4877F8460CA
:1010B00093FF06C0282F28712831F1F4877E8461C0
:1010C0002091C60220FF06C0382F38713830D9F47D
:1010D000877F816021FF06C0282F28712831D1F435
:1010E000877E816194FD877E0895282F24712430A6
:1010F000F9F68B7F8860DCCF282F2471243101F72B
:101100008B7E8861DDCF382F3171313019F78E7FBA
:101110008860E0CF282F2171213121F78E7E8861F0
:10112000E1CF82389105B9F1B0F48133910509F42A
:101130007DC048F48932910509F46DC08A32910569
:1011400009F47BC008958533910509F45FC08933A4
:10115000910509F10895833E9105D9F138F4803E57
:10116000910529F1823E910579F10895863E910518
:10117000D9F1873E910509F43EC0843E910541F5C1
:101180002091C60221FF24C08091C50284FD19C0B0
:1011900087EE90E008952091C502237009F05AC0AF
:1011A0002091C60223FF14C089E290E008952091A7
:1011B000C50220FD38C03091C60230FF09C024FFAF
:1011C00043C090E080E008952091C50222FDF7CF52
:1011D00008952091C50222FD3AC03091C60230FD2B
:1011E00039C024FFF5CFEDCF2091C50223FFF0CF0A
:1011F00024FDE7CFCDCF2091C50223FD2EC0309135
:10120000C60231FFEECF84EE90E008952091C50232
:1012100025FFDECFC9CF2091C50225FD21C0209139
:10122000C60223FFD5CF89E390E0D2CF2091C5023B
:1012300026FFCECF8AE290E008952091C50226FFD6
:10124000C7CF81E390E0089583EE90E0089582EEA9
:1012500090E0089580EE90E0089586EE90E0089585
:1012600085E390E00895972F7830B8F46630A8F4BD
:101270008430B0F470E026E0929F600D711D11245F
:10128000FB0190E3899FE00DF11D1124EE0FFF1F7C
:10129000E856FE4F85919491089580E090E008957E
:1012A00081E0FCCF1F93CF93DF930E949108EC0164
:1012B000C11580E5D807F0F5C11580E4D80708F01E
:1012C0009CC0C03ED10520F5CD3CD10508F082C0C0
:1012D000C83AD10578F4C53AD10508F073C0C130D9
:1012E000D10519F1209709F1C430D105F0F4D0E00F
:1012F000C0E01BC0C33CD105D0F7C85AD0E0CC0F2A
:10130000DD1FCD5BDE4F0990D881C02DD4640DC0A8
:10131000C11580E2D80708F0D1C0C11581E0D80717
:1013200008F05AC0C83ED10510F7CE01DF91CF9129
:101330001F910895C03682E5D80718F5C03482E5BC
:10134000D80708F06BC0C03282E5D80708F05FC04C
:10135000C11582E5D80708F497C02C2F269526954D
:1013600080E2289F900111248C2F8370C1E0D0E08F
:1013700002C0CC0FDD1F8A95E2F7C22BD32BDD68AC
:10138000D4CFC03A82E5D80760F4C03882E5D807E8
:1013900008F459C0CF71D0E0DC2FCC27C46FD06ADD
:1013A000C4CFC03C82E5D80708F462C0C03E82E5E5
:1013B000D80708F09CCFDC2FCC27CC27DF71C06F7B
:1013C000D06AB3CFC55AD0E0C05CDE4FC881D0E050
:1013D000D064ABCFD065A9CF8D2F0E944E08182FB7
:1013E000CE0199270E949108C12FD0E0DC2FCC2795
:1013F000CC27DF71C82BD92B98CFCE0199270E941B
:101400009108CC27DF70C82BD92BD06A8ECFCF7133
:10141000D0E0DC2FCC27C16FD06A87CF2C2F269548
:101420002695277080E2289F900111248C2F8370CD
:10143000C1E0D0E002C0CC0FDD1F8A95E2F7C22BDD
:10144000D32BDC6872CF2C2F26952695277080E24F
:10145000289F900111248C2F8370C1E0D0E002C03E
:10146000CC0FDD1F8A95E2F7C22BD32BDA685DCF54
:101470008C2F8F710E944E08C82FD0E0DC2FCC2714
:10148000CC27DF71D06251CF8C2F8F710E944E0814
:1014900055E0D695C7955A95E1F7CF70D0E0DC2F8F
:1014A000CC27282F30E084FF05C044E0220F331FF3
:1014B0004A95E1F7C22BD32BD06937CF8D2F8F718F
:1014C0000E944E08182FCE0199270E949108C12F23
:1014D000D0E0DC2FCC27CC27DF71C82BD92BD2CF83
:1014E0009091C60292FF05C09091F20198138093EB
:1014F000F20108958095909194029823909394021C
:10150000089580912F039091F602981301C00895D9
:101510008F5F8770FACFB0E0A0E0E1E9FAE00C94C9
:10152000D9287C0100915602109157028091240223
:1015300090912502082B192BCFE0D0E0CC24C39446
:10154000D12CBC2EC6010C2E02C0880F991F0A9404
:10155000E2F780239123892B49F4219790F7B12C4E
:101560008B2DCDB7DEB7E9E00C94F528B7018C2FB1
:101570000E9433090E945209019779F3F1CFCF936A
:10158000DF93EC010E948B0ABE010E9433090E9486
:101590005209DF91CF910895983078F5863068F53B
:1015A000E82FF0E086E0989FE00DF11D11249E2FBA
:1015B000977083E0F695E7958A95E1F7EE0FFF1FA8
:1015C000EE0FFF1FEE54FE4F50E040E080E021910F
:1015D00030E0092E02C0369527950A94E2F7217073
:1015E0003327042E01C0220F0A94EAF7822B4F5FA3
:1015F0005F4F4430510559F7089580E008959830C1
:1016000098F5863088F5E82FF0E086E0989FE00DA9
:10161000F11D11248E2F877041E001C0440F8A957F
:10162000EAF783E0F695E7958A95E1F7EE0FFF1F5D
:10163000EE0FFF1FEE54FE4F30E020E070E05191BE
:10164000DF011197CB01022E02C0969587950A946F
:10165000E2F7817081958527842385278C932F5FFE
:101660003F4F2430310559F70895909357028093E6
:101670005602089521E030E002C0220F331F8A9500
:10168000E2F720953095809156029091570282237F
:1016900093230E94350B08959091D1018095892361
:1016A0008093D101282F277069F4891759F0909100
:1016B000C60292FF07C08695869586950E943A0BD2
:1016C0001092D101089521E030E002C0220F331FB3
:1016D0008A95E2F78091560290915702822B932BC4
:1016E0000E94350B0895909325028093240208955B
:1016F000FC0124812223C1F0808191810E94BF0AD4
:1017000092959F70963091F058F4925F9F7092304E
:1017100058F4803F19F030F4883E30F481E00895A9
:101720009A5FF4CF843FD1F380E00895883EB0F310
:10173000813FD1F7F3CFA6E0B0E0E1EAFBE00C9403
:10174000DF2849835A8349815A819923A1F02223B2
:1017500091F0CA010E948B0A182F682F89819A8103
:101760000E94FF0A69817A81812F0E94330926969F
:10177000E3E00C94FB28CA010E94CC0A182FF2CF98
:101780009C013A9521153F4150F5FC01EE27F1707F
:10179000BC0166277270AC01442754709C0122275B
:1017A000387094FF0EC080E1EF2B09F480E0672BC6
:1017B00009F08062452B09F08064232B89F0806852
:1017C000089581E0EF2B09F480E0672B09F0826037
:1017D000452B09F08460232B19F08860089580E080
:1017E0000895CF93DF93682F81E06A3019F06D3050
:1017F00031F480E00E947F0CDF91CF9108958091B9
:1018000043059091440526E0FC01ADE3B5E001906D
:101810000D922A95E1F7603E08F458C026E0FC01DD
:1018200011922A95E9F7C0914305D091440546E00D
:1018300050E0BE018DE395E00E9458299E012D5392
:101840003340892B41F1C90145E0969587954A952A
:10185000E1F741E050E0BA0102C0660F771F8A95B8
:10186000E2F7CB0160913B0370913C03862B972BF1
:10187000B9016B5F7F4FE5E076956795EA95E1F7F3
:1018800002C0440F551F6A95E2F7842B952B909365
:101890003C0380933B032A5F3F4F40913A03642F00
:1018A00070E0C9010E94BC28481B463010F4240F88
:1018B000311D211572E0370710F030E020E0235C85
:1018C0003C4F309344052093430596CFF6E06F9F3D
:1018D000B0011124685F7A4F46E050E00E944F2922
:1018E000A2CFCF93DF93EC01FE018491811103C05D
:1018F000DF91CF9108950E94F10B2196F5CFCF9300
:10190000382FE0914305F0914405ED53F3402091C9
:101910003A03622F70E0CF010E94BC28281B822F5F
:10192000332361F066E00E940729C82FC15010F4EC
:10193000CF91089580E20E94F10BF8CF9F01280F0C
:10194000311D2115324018F080E0F0E0E0E08E0F0C
:101950009F2F911D835C9C4F90934405809343057A
:10196000E7CF0E94710C81E00E947F0C0895809166
:10197000940290919502892B809390019091F201AD
:101980009923A1F0892B8093900180912C018823C9
:10199000E1F18091C50287FF38C08EE1E2E9F1E014
:1019A00090E08150A0F591111092F20140E250E0D8
:1019B00062ED71E080E991E00E945829892B21F1C4
:1019C00080E2E0E9F1E0A2EDB1E001900D928A95AC
:1019D000E1F7E091BC02F091BD023097A9F080914F
:1019E0002C01882359F08091C50287FF07C08091A0
:1019F00090018093910186E0809390010280F381B1
:101A0000E02D80E991E00995089586E0C7CF219106
:101A1000222339F29F5FC5CF80912B01877F80936E
:101A20002B01909195029D7F9093950284FF08C0B1
:101A30008F7E80932B018091940282608093940228
:101A400080912B0185FF08C08F7D80932B018091B1
:101A500094028062809394020E94B70C08958823B8
:101A600041F08095909195028923809395020E9480
:101A7000B70C0895882339F090919502982B909394
:101A800095020E94B70C0895882321F00E947A0ADB
:101A90000E94B70C0895882339F090919402982BF6
:101AA000909394020E94B70C08950F931F93CF93C5
:101AB000DF93EC01FC0101900020E9F78F01015058
:101AC0001109C017D10728F0DF91CF911F910F9115
:101AD000089589910E94F10BF4CF0F931F93CF9338
:101AE000DF938B01EA019091EC02943061F58093D1
:101AF000E9008FEF9091E800815095FD06C095EDCB
:101B00009A95F1F700008111F5CF8091E80085FFEB
:101B10001AC00E940006811111C08091E80085FD65
:101B200006C08091E8008E778093E800F2CFF8013C
:101B300081918F018093F100219779F78091E800DE
:101B40008E778093E800DF91CF911F910F910895D8
:101B500043E050E0BC0182E00E946D0D089546E034
:101B600050E0BC0182E00E946D0D0895CF93DF9399
:101B7000EC0180912C01811111C048E050E0BE01C0
:101B800081E00E946D0D80E2FE01AAECB2E00190BE
:101B90000D928A95E1F7DF91CF9108958091C5026A
:101BA00087FF05C040E282E050E0BE01EACF48E096
:101BB00081E0FACF81E08093E00080E28093D8005A
:101BC0001092C9008FE19EE40197F1F700C0000078
:101BD00087E090EBDC018093450590934605A09348
:101BE0004705B093480588E19CE00FB6F894A895A6
:101BF000809360000FBE90936000FFCFB0E0A0E044
:101C0000E4E0FEE00C94D8287C015B016A0180913D
:101C1000150201E010E08A3010F40AE010E0C1E0A3
:101C2000D0E0B501C701F6010995811104C02196E4
:101C30000C171D072CF4CDB7DEB7EAE00C94F4289E
:101C4000CC9F9001CD9F300D300D112490E080E0AD
:101C500045E34A95F1F70000019682179307C1F713
:101C6000E0CF8091FF01811119C088EC90E02091B4
:101C7000E30027FD10C0EFE3FCE93197F1F700C066
:101C800000000197A1F782E08093FF010E94E10527
:101C90001092EC0203C081E08093FF0181E09091FB
:101CA000FF01913011F080E0089508950E94310EF7
:101CB000882359F0E091BC02F091BD02309729F0E1
:101CC0000190F081E02D0995089580E008950F932B
:101CD0001F930E94310E882329F00E943E071F9116
:101CE0000F9108950E943E0700911602109117026D
:101CF0002091180230911902600F711F821F931FEB
:101D0000EECFB0E0A0E0E7E8FEE00C94DA286C014A
:101D10007B0164E670E088E70E941A268C01E601E8
:101D2000EC0CFD1C17FD0BC0FE01849164E670E015
:101D30000E9486268C012196CE15DF0599F70E9418
:101D4000FC2681E00115110509F080E0CDB7DEB772
:101D5000E8E00C94F6288091920290919302911100
:101D600003C091E089270895882369F062E070E05C
:101D70008FE993E00E94810E811103C0809192024D
:101D800008951092920280919202EBCFCF93C0916E
:101D90009202809193028823D1F00E943E07605AFC
:101DA00075418F4F9F4F60938E0270938F02809387
:101DB000900290939102C11108C062E070E08DE939
:101DC00093E00E94810E811105C0C09192028C2F78
:101DD000CF91089581E080939202F7CF9091C6024F
:101DE00092FB222720F9281779F080FB92F9909333
:101DF000C6026091C5027091C60284E090E00E9424
:101E0000492C82E00E944C0B0895A4E0B0E0EBE086
:101E1000FFE00C94DF284091110250911202609172
:101E20001302709114022FB7F8948091C10290911F
:101E3000C202A091C302B091C4022FBF841B950BB4
:101E4000A60BB70B11E084369105A105B10570F121
:101E50000E94670E6E5F7F4F8F4F9F4F69837A831B
:101E60008B839C838091110190911201885F9D4F1B
:101E70004091100150E04530510510F044E050E031
:101E8000BE016F5F7F4F0E94652982E090E00E9453
:101E90004628182F882351F00E943E0760931102B4
:101EA000709312028093130290931402812F249650
:101EB000E3E00C94FB28EF92FF921F93CF93DF9304
:101EC00000D000D00F92CDB7DEB77B0190E080E06C
:101ED0000E944628182F882309F487C040910301E7
:101EE00050E04115510511F041E050E060910401CE
:101EF00070910501685F7D4FCE0105960E946529AE
:101F0000409104025091050260910602709107020F
:101F10002FB7F8948091C1029091C202A091C302A0
:101F2000B091C4022FBF841B950BA60BB70B843650
:101F30009105A105B10540F489E092E00E94CA052F
:101F40009D81891709F451C081E090E00E944628E4
:101F500081111AC010E08091000290910102A091BD
:101F60000202B0910302F70180839183A283B383BD
:101F7000812F0F900F900F900F900F90DF91CF91C6
:101F80001F91FF90EF90089540910B0150E0453074
:101F9000510510F044E050E060910C0170910D018A
:101FA000685F7D4FCE0101960E94652989E092E02D
:101FB0000E94CA059D818913CDCF0E943E07609380
:101FC00004027093050280930602909307028981B0
:101FD0009A81AB81BC818093000290930102A0930F
:101FE0000202B093030211E0B6CF809109029091F2
:101FF0000A02A0910B02B0910C0289839A83AB83F1
:10200000BC831111E4CFA7CF1F920F920FB60F928E
:1020100011242F933F934F935F936F937F938F93ED
:102020009F93AF93BF93EF93FF938091E10082FF63
:1020300009C08091E20082FF05C08091E1008B7FA2
:102040008093E1008091DA0080FF24C08091D80065
:1020500080FF20C08091DA008E7F8093DA0080912B
:10206000D90080FF9DC080E189BD82E189BD09B4AE
:1020700000FEFDCF81E08093EC028091C7028111C8
:1020800009C00E94E1050E9482068091E2008460FE
:102090008093E2008091E10080FF17C08091E20010
:1020A00080FF13C08091E2008E7F8093E2008091D8
:1020B000E20080618093E2008091D800806280938A
:1020C000D80019BC85E08093EC028091E10084FF88
:1020D0002BC08091E20084FF27C080E189BD82E1AE
:1020E00089BD89B5982F917080FFFBCF8091D80072
:1020F0008F7D8093D8008091E1008F7E8093E100F6
:102100008091E2008F7E8093E2008091E200816006
:102110008093E2008091ED02882309F447C084E0B7
:102120008093EC028091EC028091E10083FF27C054
:102130008091E20083FF23C08091E100877F80933C
:10214000E10082E08093EC021092ED028091E100C8
:102150008E7F8093E1008091E2008E7F8093E20089
:102160008091E20080618093E20042E060E080E0E4
:102170000E9450068091F00088608093F000FF91EB
:10218000EF91BF91AF919F918F917F916F915F91EF
:102190004F913F912F910F900FBE0F901F90189568
:1021A00019BC1092EC021092C70274CF8091E30028
:1021B00087FD93E09093EC02B5CF78941F921FB601
:1021C0001F9211248F939F93AF93BF938091C1026D
:1021D0009091C202A091C302B091C4020196A11DC8
:1021E000B11D8093C1029093C202A093C302B09329
:1021F000C402BF91AF919F918F911F901FBE1F90FE
:1022000018959C014FB7F8948091C1029091C20239
:10221000A091C302B091C4024FBF821B930B0895DB
:102220002FB7F8948091C1029091C202A091C3028D
:10223000B091C4022FBF08950E9410119C0190918B
:102240008A0280918B02982B21F030938702209391
:10225000860290918C0280918D02982B21F0309310
:10226000850220938402E091BC02F091BD02309778
:1022700049F082E0809388020480F581E02D88E8AF
:1022800092E0099508951092940280912C01E2E960
:10229000F1E0882329F18091C50287FF21C08EE1FA
:1022A000DF011D928A95E9F790E080E00E94CE0759
:1022B00090E080E00E94A907109295020E94B70C5E
:1022C00086E0E8E8F2E0DF011D928A95E9F71092D6
:1022D000810210928202109283020E941C110895C2
:1022E00086E0DECFAAE2B0E0E8E7F1E10C94DF2877
:1022F0008EEE92E02091F100FC012193CF01F2E0FB
:10230000863F9F07B9F78091EF02833009F470C0D0
:10231000B8F4813009F447C0823009F4B1C080912B
:10232000E80083FF7EC28091EE029091EF029A3026
:1023300008F077C2E92FF0E0EF59F34D0C944929EA
:102340008A3009F48CC08B3009F46FC0893039F7BA
:102350008091EE02813219F78091F2029091F3029E
:102360000297E8F68091E800877F8093E8008091EB
:10237000E80082FF38C09091F3008091F20002974C
:1023800031F48091F100813011F0863021F4809198
:10239000F1008093C9028091E8008B778093E80078
:1023A0000E943106BCCF8091EE02813A09F0B7CF8E
:1023B0008091E800877F8093E8008091F2029091FD
:1023C000F302892B61F460E28AEC92E070E00E94F3
:1023D000DD068091E8008B778093E800A0CF60E075
:1023E00090E080E0F3CF8091EC028111C0CF97CFD5
:1023F0008091EE02813A09F092CF8091F2029091A1
:10240000F302892B09F08BCF8091E800877F8093BE
:10241000E8008091E80080FFFCCF80912C01809340
:10242000F1008091E8008E77B9CF8091EE02813281
:1024300009F075CF8091F2029091F302892B09F097
:102440006ECF8091E800877F8093E8000E9431067C
:102450008091F00280932C010E94431160CF809103
:10246000EE02813209F05BCF8091E800877F809394
:10247000E8000E9431068091F1028093C8024FCF9C
:102480008091EE02813A09F04ACF8091E800877F7F
:102490008093E8008091E80080FFFCCF8091C80223
:1024A000BECF803899F0823809F0BBC18091F2022A
:1024B0008F70873008F0B5C18093E9008091EB0000
:1024C00085FB882780F91092E90006C08091EA0216
:1024D0009091EB02911182609091E800977F909328
:1024E000E8008093F1001092F1008091E8008E776F
:1024F00094C1882309F482C1823009F092C180918D
:10250000F002811185C18091F2028F702FEF280FA8
:10251000263008F086C18093E9002091EB0020FF6F
:1025200077C1933031F48091EB0080628093EB00AF
:102530006FC19091EB0090619093EB0021E030E04F
:1025400001C0220F8A95EAF72093EA001092EA0070
:102550008091EB008860EACF811163C11091F00295
:102560001F778091E3008078812B8093E300809136
:10257000E800877F8093E8000E9431068091E800A0
:1025800080FFFCCF8091E30080688093E30082E0CD
:10259000111183E08093EC0244C18058823008F02E
:1025A00040C18091F0029091F1028C3D23E09207AE
:1025B000A1F583E08A838AE289834FB7F894DE012C
:1025C000139620E03EE051E2E32FF0E050935700F5
:1025D000E49120FF03C0E295EF703F5FEF708E2F14
:1025E00090E0EA30C0F0C7968D939D932F5F243121
:1025F00059F74FBF8091E800877F8093E8006AE237
:1026000070E0CE0101960E94DD068091E8008B7794
:102610008093E80006C1C096E7CF4091F202509146
:10262000F302292F33272330310509F444C078F50C
:102630002130310509F46FC08BE390E0E7E9F4E065
:102640002230310509F0EDC02091E800277F20936A
:10265000E8002091F4023091F5028217930708F404
:102660009C0140E02115310509F064C0411162C0B0
:102670008091E80082FDC9CF8091EC02882329F285
:10268000853019F28091E80083FFF2CFBECF21326E
:102690003105A9F12232310509F0C3C041155105B8
:1026A00009F443C04130510509F0BBC086EB90E00E
:1026B000E1EAF3E0C9CF992781309105C1F0009795
:1026C00059F0029709F0ADC0E4EEF4E0E4918E2FEA
:1026D00090E0E4EEF4E007C0E4E0F5E0E4918E2F52
:1026E00090E0E4E0F5E0009709F49BC0ADCFE2EFA5
:1026F000F4E0E4918E2F90E0E2EFF4E0F4CF4115A6
:10270000510571F04130510509F08BC089E090E02E
:10271000E2ECF4E099CF82E190E0E2EDF4E094CFD6
:1027200089E090E0E9EAF4E08FCF80E490E0E7E52B
:10273000F4E08ACF8091EC02882309F466CF8530DB
:1027400009F463CF8091E80083FD5FCF8091E800BA
:1027500082FD8ECF8091E80080FF84CF9091F300BE
:102760008091F2002115310519F08830910550F063
:1027700041E0089709F040E08091E8008E7780936F
:10278000E80070CF44914093F10031962150310917
:102790000196E8CF803809F044C08091E800877F37
:1027A0008093E8008091ED028093F1009ECE81112C
:1027B00038C01091F0021230A0F58091E800877FB8
:1027C0008093E8001093ED020E943106112311F06E
:1027D00084E005C08091E30087FDFACF81E080931B
:1027E000EC0242E061EC81E00E94500642E261ECC2
:1027F00082E00E9450068091EC0213C08091F002AA
:10280000813079F481E0933009F080E08093EB022D
:102810001092E9008091E800877F8093E8000E9491
:1028200031068091E80083FF0AC08091E800877F2D
:102830008093E8008091EB0080628093EB00AA9681
:10284000E3E00C94FB281F920F920FB60F92112415
:102850002F933F934F935F936F937F938F939F93A8
:10286000AF93BF93CF93DF93EF93FF93D091E900A2
:10287000DF708091EC00C82FC17080FDC0E810921D
:10288000E9008091F000877F8093F00078940E94A7
:1028900072111092E9008091F00088608093F0003E
:1028A000CD2BCF70C093E900FF91EF91DF91CF91D5
:1028B000BF91AF919F918F917F916F915F914F9158
:1028C0003F912F910F900FBE0F901F9018950E946F
:1028D00043112FEF84E39CE0215080409040E1F7CA
:1028E00000C0000088E19CE00FB6F894A8958093A2
:1028F00060000FBE90936000FFCF662309F45DC0B7
:102900008D3C41F40E941508819580938B020E94B2
:102910001C1108958E3C19F40E941508F6CF8F3CC7
:1029200031F40E941508819580938A02F0CF803D92
:1029300019F40E941508F8CF893D29F40E94F30785
:1029400080938C02E4CF8A3D21F40E94F3078195A5
:10295000F7CF8B3D31F40E94F307819580938D0270
:10296000D6CF8C3D19F40E94F307F8CF9FE2980F61
:10297000983070F4815D990B21E030E001C0220FA6
:102980008A95EAF780918902822B80938902BFCFD2
:102990008D3D31F480918302816080938302B7CFB3
:1029A0008E3D21F4809183028260F7CF8F3D09F044
:1029B000AECF809183028460F0CF40918A028D3C3B
:1029C00059F480918B0287FF0DC010928B02411148
:1029D0000BC01092810208C08E3C81F480918B0262
:1029E00018169CF3442381F080918C0290918D0203
:1029F000892B09F08CCF1092820289CF8F3C49F449
:102A000047FFF0CF10928A0280918B028111ECCFA8
:102A1000E0CF803D19F41416ACF3E4CF90918C0212
:102A2000893D29F41916F4F610928C02DBCF8A3D09
:102A300019F497FFD7CFF8CF90918D028B3D29F4F1
:102A400097FFD0CF10928D02CDCF8C3D19F419167F
:102A5000CCF3C8CF9FE2980F983090F4815D990B2A
:102A600021E030E0B90102C0660F771F8A95E2F7D6
:102A7000CB01809590918902892380938902B2CFFE
:102A80008D3D31F4809183028E7F80938302AACFA3
:102A90008E3D21F4809183028D7FF7CF8F3D09F029
:102AA000A1CF809183028B7FF0CF882399F19CEF97
:102AB000980F913A40F4682F80E991E00E944A070C
:102AC0000E94B70C089590E2980F983050F48770E8
:102AD00091E001C0990F8A95EAF7892F0E947A0A3E
:102AE000EFCF9BE5980F933028F490E080E00E94B0
:102AF000CE07089598E5980F9B3128F490E080E088
:102B00000E94A907089593E3980F933118F460E0A9
:102B10000E947D140895CF93DF93EC010E94551518
:102B2000CE010E94C00B9E01205E31092830310584
:102B300010F0CD2B29F40E94440DDF91CF91089520
:102B40000E942F0DFACFCF93C82F8823D9F18CEF95
:102B50008C0F813AC8F580912C01882311F1809166
:102B6000C50287FF1EC0EC2FE695E695E695F0E0DE
:102B7000E057FE4F828190E04C2F477021E030E01B
:102B800002C0220F331F4A95E2F782239323892B39
:102B900091F06C2F80E991E00E944A070E94B70CE7
:102BA0000AC0E2E9F1E088E991E02191C21789F3D6
:102BB0008E179F07D1F76C2F80E991E00E94740770
:102BC0000E94B70CCF91089580E28C0F883068F492
:102BD000C77021E030E001C0220FCA95EAF780916A
:102BE0009402822B80939402EBCFEBE5EC0FE33061
:102BF00040F4F0E0E05CFE4F808190E00E94CE0760
:102C0000E1CFE8E5EC0FEB3150F4F0E0EE0FFF1F01
:102C1000ED5BFE4F808191810E94A907D3CF83E3B2
:102C20008C0F833178F661E08C2F0E947D14CACF1F
:102C30001F93CF93DF93182FD0E0C0E0893311F4B6
:102C4000C0E5D0E0812F0E94A315209739F4812F91
:102C50000E945515DF91CF911F9108958FE99FE054
:102C60000197F1F700C000002197EFCF0F931F935A
:102C7000CF93DF93C62FD42F022FFC0185818823A9
:102C8000A9F0609332030E94101190933103809356
:102C90003003C77081E001C0880FCA95EAF70E942F
:102CA0004B0DDF91CF911F910F91089580913203C9
:102CB000681332C080913003909131030E9401115A
:102CC0008436910548F510E21D0FCD17B9F080E26A
:102CD0008C0F883040F4C77081E001C0880FCA951E
:102CE000EAF70E94440D183048F481E09D2F977058
:102CF00001C0880F9A95EAF70E944B0D802F0E9421
:102D00001816183070F6D77081E001C0880FDA9578
:102D1000EAF70E94440DC5CFC77081E001C0880F5B
:102D2000CA95EAF7F6CFCF93DF93EC010E94C00B70
:102D30009E01205E31092830310510F0209741F4C2
:102D40000E944B0D8C2F0E94A315DF91CF91089507
:102D50000E943A0DF7CFB0E0A0E0E1EBF6E10C9471
:102D6000DB288C01EB0180912B0182FF86C0E09073
:102D7000B802F090B902E016F10621F00115110534
:102D800009F07BC080912B018B7F80932B0181FD0B
:102D90006DC08091B6029091B702AE01481B590BED
:102DA00081E02091290130912A014217530708F44C
:102DB00080E08170D82E80912B01D0FA81F9809328
:102DC0002B0187011127F80184E0F695E7958A9594
:102DD000E1F7EE0FFF1FEA56FD4F20813181A70179
:102DE0004F70552781E090E002C0880F991F4A95E7
:102DF000E2F7DD20E9F1822B932B91838083809190
:102E0000940281FF08C080912B01806180932B0187
:102E100082E00E947A0A8091940285FF08C0809126
:102E20002B01806280932B0180E20E947A0ADD20D0
:102E300029F080919502826080939502C70190529B
:102E40008115904308F47801C7010E949316809180
:102E5000B8029091B9029C0130522115304308F418
:102E600099270E948B150E940C0D17C081E0A1CFFD
:102E70008095909582239323C0CFC80190528115ED
:102E80009043A0F4C80199270E948B158091B80245
:102E90009091B9020817190731F3D093B702C09384
:102EA000B602CDB7DEB7E7E00C94F728C801ECCF47
:102EB000ACE0B0E0EEE5F7E10C94D5288E010F5FB1
:102EC0001F4F88E0D8011D928A95E9F78BE7C82E3D
:102ED00081E0D82EF12CE12CAA24A394B12C25E872
:102EE000822E21E0922EF60181916F018F3F09F42D
:102EF00042C0F894E82FE295EF70F0E021A18F70C6
:102F0000A50102C0440F551F8A95E2F7CA01922F0E
:102F1000982B91A392A18095892382A3789400C0D5
:102F2000EFE7F1E0712C31E021912F3F09F46BC004
:102F3000A22FA295AF70B0E090968C9190E02F7088
:102F400002C0959587952A95E2F780FD5CC0832F96
:102F5000782A330F8E169F0639F7F6013197808154
:102F60008F3F11F00E94370850EA5A95F1F7F801A7
:102F7000EE0DFF1D70828FEFE81AF80AA4E0EA1642
:102F8000F10409F0B0CF48E050E0B8018AE192E0E6
:102F90000E945829009741F028E0F801AAE1B2E028
:102FA00001900D922A95E1F700912302892B69F196
:102FB00081E08093F7010E9410119093F6018093B5
:102FC000F5018091F5019091F6010E94011105979C
:102FD00000F110E00A5D1D4F44E050E06AE172E04C
:102FE000C8010E945829B12C892B51F084E0EAE1F4
:102FF000F2E0D80101900D928A95E1F7BB24B394D9
:103000001092F70107C080E0A3CF8091F7018111F2
:10301000D8CFB12C0E94310EF82EE09123028823E4
:1030200009F472C019861A861B861C860E2F10E0C2
:103030000A5D1D4F809115028A3088F54BE55FE0EF
:10304000BE01675F7F4FC8010E94FE0D882309F40F
:103050004AC045E05FE0BE01675F7F4FC8010E9444
:10306000FE0D882309F43FC01092150280912202C0
:1030700090E044E050E0BE01675F7F4F8A5D9D4F66
:103080000E94582921E02093FE01892BF1F4F12CB4
:103090001F2D812F8B292C96EDE00C94F128809127
:1030A000F8019091F9010E940111843F914030F69E
:1030B0008091FE01882359F3FE01399684E0DF01F7
:1030C0001D928A95E9F71092FE01E0912202F0E04C
:1030D000EA5DFD4F89859A85AB85BC8580839183A8
:1030E000A283B383D5CF809115028F3F31F08F5FDC
:1030F000809315028A3008F4B9CF0E941011909382
:10310000F9018093F801D4CFF0E0EA5DFD4F84E04F
:10311000A9E0B2E001900D928A95E1F789E092E092
:103120000E94CA0580930802C0900D02D0900E0242
:10313000E0900F02F09010028091FA019091FB0153
:10314000A091FC01B091FD01C816D906EA06FB0664
:1031500011F410E09ECFC092FA01D092FB01E092F0
:10316000FC01F092FD010E94310E182F8111F1CF68
:103170000E943E07C61AD70AE80AF90AC092160248
:10318000D0921702E0921802F092190282CFB0E0BA
:10319000A0E0EDECF8E10C94D2288C01FC018481D4
:1031A000882309F42AC221E0408151816281738120
:1031B00095810E949B0BEC01F8018581882309F41D
:1031C00059C080E280932101D0935902C0935802E4
:1031D000AE015052218130814115F0E25F0730F499
:1031E000F8018681807FF1F0FE010BC0CE01905482
:1031F0008115904108F090C0F8018681807FFE0122
:1032000009F0FF27ED33F10548F4E455FF4FE49151
:10321000E093210120935B0230935A02CE014115C5
:10322000504310F4CE01992740E28C33910520F4ED
:10323000FC01E455FF4F40811F924F939F938F9362
:103240001F923F931F922F938FE291E09F938F9352
:103250001F9288E18F938EE392E09F938F930E9459
:103260006E292DB73EB7225F3F4F0FB6F8943EBF91
:103270000FBE2DBF0E9410114C01F80185818823DB
:1032800009F432C180912B0182FF07C047E352E06D
:10329000B40190E080E00E94AB16C231FCE7DF078A
:1032A00009F471C008F046C0C0313CE7D30709F407
:1032B00060C08091290190912A010596C1316CE787
:1032C000D60709F45BC0CE0190528115904308F0F7
:1032D00019C11092B9021092B802F80185818823B1
:1032E00009F425C510923203CE019057839708F058
:1032F00008C584E090E00E94152C9093C60280934C
:10330000C502FE01E150F047E232F10508F0BDC10F
:10331000E559F34D0C944929CE019A9581159F41A9
:1033200008F462CFCE01805A9245809708F476CF98
:10333000FE0168CFC4318CE7D807B9F080F09091D6
:103340002B01892F8E7F90FF8160C531ECE7DE076E
:1033500009F0B9CF80932B010E940C0DB4CF80915E
:103360002B01816080932B01AECF80912B018E7F4A
:10337000F1CF8091290190912A01059790932A011C
:1033800080932901A0CF8091290190912A010E9468
:103390005E057C01FC012191CF012032D1F36AE06E
:1033A000462EF7012081222309F48DCF213009F028
:1033B00046C091818281913031F4F2E0EF0EF11C30
:1033C0000E94181607C0923049F422E0E20EF11C68
:1033D0000E94A3153FEFE31AF30AE3CF933031F4D1
:1033E00032E0E30EF11C0E945515F4CF943021F029
:1033F0006FEFE61AF60AEECF92E0E90EF11C30E02C
:1034000020E0A7014F5F5F4F8053990B8A309105F1
:1034100050F021503109F0F28FE99FE00197F1F768
:1034200000C00000F6CF429EB001439E700D1124F3
:103430009C01260F371FF70181817A01E2CFE22F2D
:10344000F0E0E85EFE4F5490822F86958695869533
:1034500090E0FC01E85FFE4F64902770712C022E13
:1034600002C0759467940A94E2F7E1E06E22772433
:10347000FC01E850FF4FA490B12C022E02C0B5947D
:10348000A7940A94E2F7F1E0AF22BB24FC01E851D3
:10349000FF4FC490D12C02C0D594C7942A95E2F76F
:1034A00021E0C222DD246114710419F081EE0E9432
:1034B000A315A114B10419F086EE0E94A315852D61
:1034C0000E941816A114B10419F086EE0E94551539
:1034D0006114710419F081EE0E945515C114D104D4
:1034E00009F478CF8CE26CCF80912B018F7EC13EA6
:1034F000D10531F0C53ED105E1F480912B018F7DDE
:1035000080932B0180912B0180FF18C0F8018581E9
:10351000CB32D10539F1E8F49E012450310924322F
:10352000310500F1882351F01092B9021092B802CF
:1035300005C0CE0190528115904320F7FE01E8515D
:10354000FC47E730F10508F0C8CEE357F34D0C9483
:103550004929CD32D10530F3C933D10518F0C4362D
:10356000D10501F7811106C0A801B401CE010E9466
:10357000AB1634C08091F20190919402982B292FC0
:103580002D7F09F43FC01092B9021092B802FE01DB
:1035900044E0F695E7954A95E1F7EE0FFF1FEA56EE
:1035A000FD4F9E012F70332781E090E002C0880F0D
:1035B000991F2A95E2F78095909520813181822389
:1035C000932391838083CE010E9493168091F20110
:1035D0008D7F0E94700A82E00E944C0B8091D10185
:1035E000877059F0F8018581882339F08091C602EF
:1035F00082FF03C082E00E944C0BCDB7DEB7E0E152
:103600000C94EE2827E0F801A7E3B2E001900D92B8
:103610002A95E1F710923C0210923A021092390278
:1036200020912B0191FB21F920932B018D7F0E948A
:10363000700AD093B902C093B8029092B7028092F8
:10364000B60280912B01846080932B01C4CF26E2C7
:1036500041EE61EEC8010E943616C0CF27E245EE6A
:1036600065EEF8CF26E241EE60EEF4CF27E245EEBC
:1036700064EEF0CF26E241EE62EEECCF27E245EEBB
:1036800066EEE8CF28E241E0EBCF8091C502816091
:103690008093C50295C08091C60288608093C6025F
:1036A0008FC08091C5028260F3CF8091C502846093
:1036B000EFCF8091C5028860EBCF8091C602816018
:1036C000EDCF8091C6028260E9CF8091C502806112
:1036D000DFCF8091C5028062DBCF8091C50280641C
:1036E000D7CF0E9443118091C5028068D1CF8091CD
:1036F000C5028C60CDCF8091C6028360CFCF809110
:10370000C5028E7FC5CF8091C602877FC7CF8091CB
:10371000C5028D7FBDCF8091C5028B7FB9CF8091CF
:10372000C502877FB5CF8091C6028E7FB7CF8091CB
:10373000C6028D7FB3CF8091C5028F7EA9CF8091C5
:10374000C5028F7DA5CF8091C5028F7BA1CF0E943E
:1037500043118091C5028F779BCF8091C502837FF3
:1037600097CF8091C6028C7F99CF8091C50282FB52
:10377000992790F921E0922790FB82F990FB83F939
:1037800087CF8091C602982F909591708E7F892B5C
:1037900090FB81F983CF9091C502892F8F7B96FF93
:1037A000806476CF0E9443119091C502892F97FBC8
:1037B00087F980586DCF61E08EE090E00E942B2C5D
:1037C0006091C5027091C60284E090E00E94492C8D
:1037D0000E94431103CF60E0EFCF9091C502892F83
:1037E0008F7E94FF806154CF9091C502892F8E7F88
:1037F00090FF81604DCF9091C602892F877F93FF04
:1038000088604CCF0E944311FFEF24E33CE0F1506D
:1038100020403040E1F700C000000E94DA0D6FEF59
:103820007FEF90E080E00E94492C0E946714809115
:10383000C60282FB882780F991E089270E94EE0E5C
:10384000F8018581C081D181882309F44AC0CE0165
:103850000E948B0AF82E682FCE010E94FF0ABE013B
:103860008F2D0E9433090E945209D82FC92FA82EEC
:10387000F801C580B680B2943FE0B3228091D101B7
:103880008770F1F0EC2CCC20E1F0892F807F803420
:1038900051F080E28D0F883098F0B11004C0892F6C
:1038A000807E803269F08091C60282FF09C082E08A
:1038B0000E944C0B8091D1018770EE24E39481111A
:1038C000E12CDC2ED2942FE0D222FBE0FD1508F48F
:1038D0006DC0ED2DF0E0EC56F34D0C94492980E0DD
:1038E000ADCFCE010E94CC0AF82EB9CF2C2F2F706D
:1038F000F22EC07F19F0F29490EFF922CC20B9F0AB
:10390000FF2069F080E28D0F883010F0A11009C00F
:1039100080919402F82AF09294020E94B70C8D2FA5
:1039200043C080919502F82AF0929502F6CF8D2F30
:103930000E945515FF20D1F1D05ED83010F0A110B3
:1039400004C08F2D0E947A0A06C0F09480919502DF
:10395000F822F09295020E94B70C28C03C2F3F70CD
:10396000F32EC07FC03219F0F29480EFF822AA2023
:1039700059F061E0A61609F478C0CC2009F484C09F
:10398000BB2009F446C0CBCF8091C60282FD3DC06A
:10399000CC20A9F1FF2039F080919402F82AF0920E
:1039A00094020E94B70C80E00E94A315ED2DE85010
:1039B000FF0B349710F40E94560EEE20A9F0809170
:1039C000D10180FD11C0F8011582869586958695F6
:1039D0000E94630BC8010E94C7188091D10186958F
:1039E000869586950E943A0B20E0F801408151812E
:1039F00062817381848195810E949B0BFECD80E062
:103A00000E945515FF2091F29CCFCC20A1F0B1105F
:103A100004C08F2D0E944B0DC9CF81E0B812C6CFD4
:103A20008091F2019F2D9823F91609F4BFCFF82A4F
:103A3000F092F201BBCFB110B9CF8F2D0E94440D8F
:103A40009091F2018F2D892329F08F2D8095892364
:103A50008093F2018091B1019F2D982309F4A6CFA4
:103A6000F094F822F092B101A1CFCC2029F095E09A
:103A70009B1508F49BCFCDCFE4E0EB1508F496CF6F
:103A80008F2D0E94440D92CFBB20D1F3F9E3AF12EA
:103A900031C12FEF37EE63E0215030406040E1F755
:103AA00000C0000027C18C2F86958695837069F031
:103AB000813009F07BCF8D2F9C2F9370C11002C0F5
:103AC00080E090E00E94A90771CF8D2F9C2F93700A
:103AD000C11002C080E090E00E94CE0767CF6C2D3D
:103AE0008D2F0E947D1462CF8C2F837009F03FC010
:103AF000C1105CCF4D2F429546954770440F440F3F
:103B00002D2F2F7030E0042E02C0220F331F0A9495
:103B1000E2F790E080E0D4FF09C08FE090E002C0BF
:103B2000880F991F4A95E2F780959095C695C6959E
:103B3000C370C23099F078F440912402509125026C
:103B4000C13039F0822B932B842395230E94730B71
:103B50002DCF242B352B822B932BF8CF822B932B1D
:103B6000209124023091250282279327EFCF86955A
:103B7000CC2011F08C2F8170882309F417CF4D2FA2
:103B8000429546954770440F440F2D2F2F7030E01B
:103B9000042E02C0220F331F0A94E2F790E080E067
:103BA000D4FF09C08FE090E002C0880F991F4A95AA
:103BB000E2F780959095C695C695C370C23099F08E
:103BC00078F44091560250915702C13039F0822B5F
:103BD000932B842395230E94350BE8CE242B352B81
:103BE000822B932BF8CF822B932B2091560230916E
:103BF000570282279327EFCFCF70CC2029F08C2F4C
:103C00000E94630B8D2F06CF8D2F0E94440D8C2FA9
:103C10000E943A0BCBCE8D2F92EFA91699F19A15EF
:103C200070F0E0EFAE16D1F0F1EFAF1691F0CC20CE
:103C300009F45BC0B11073CE8C2F8F7127C023EFB6
:103C4000A21639F134EFA312F2CF8091C60282FDA1
:103C50002EC08C2F8F71CC20D9F218C0CC2069F0E7
:103C600064E06B1508F4A2CECF7181E090E002C051
:103C7000880F991FCA95E2F7B8CF85E08B1508F435
:103C800095CEF2CF8C2F8F71C110C2CF0E94630BE3
:103C90008DCE90E080E0CC2009F49DCFCF7181E003
:103CA00090E002C0880F991FCA95E2F794CFCC200C
:103CB00089F0CF718C2F0E94630B8091C60282FF26
:103CC00007C0E8E0CE9FC001112483608093D1013A
:103CD0008C2FDCCF81E00E944C0BF1E0FB1508F04B
:103CE00065CE82E00E944C0B61CEBB2039F0893357
:103CF00009F4CFCE8D2F0E94551558CE8C2F8F7181
:103D000087CFC6312CE7D20701F5809194028A7AD9
:103D100091E009F490E09093B00169E2811165E3CC
:103D200080E991E00E9474070E94B70C57CCC6311D
:103D3000DC4709F085CD8091B00169E2811165E32E
:103D400080E991E00E944A07EFCFC3306CE7D607C5
:103D500009F465CD50F4C1159CE7D90709F452CD9B
:103D6000C130DC4709F461CD6BCDCB35FCE7DF0713
:103D700009F4B5CDCC352CE7D20709F458CDCA35B6
:103D8000DC4709F05DCD81E059CDCF93DF93809181
:103D9000D001807F09F04DC08091CF01882309F4C4
:103DA00048C0E0912F035091F602C091CB01D09111
:103DB000CA016091CC017091CD0147E05E17C9F155
:103DC0008E2F90E0E49FF0011124E950FD4F2481F3
:103DD000222391F1489FF001499FF00D1124DF014A
:103DE000A950BD4F11962C9111972C1325C02C91E1
:103DF0002D1322C015962C91159721111DC01296D6
:103E00002D913C91261B370B24363105A8F4809167
:103E1000D0018F7080618093D001E350FD4F80818D
:103E20008F70806180838AEC91E00E94C7180E94A5
:103E3000810ADF91CF910895FC013196E770BECFE2
:103E4000A4E1B0E0E6E2FFE10C94D6288C0186E024
:103E5000F801DE011F9601900D928A95E1F7F801B5
:103E60008481E5809AECA92E91E0B92E9091CE0143
:103E7000911128C0882319F1EE20F1F0C8010E94A9
:103E8000780BF82E8823C1F087E0F801D501019066
:103E90000D928A95E1F78091CE01813031F48091C5
:103EA000CA019091CB010E94BF0A0E94C51E8F2DAE
:103EB0006496ECE00C94F228C8010E94C718FF2415
:103EC000F394F5CFD080C18082809380F090CF01B1
:103ED0002091CC013091CD01A401421B530BFF2056
:103EE00009F4D9C04436510508F092C08823F9F28C
:103EF0009091CB018091D001282F207F09F056C0EE
:103F0000C91214C09091CA01D91210C0E11048C062
:103F10008F7080618093D0018AEC91E00E94C71875
:103F20008091D001F8018683F12CC1CFE11038C017
:103F30006C2D8D2D0E94AB056C2D8D2D0E94AB0537
:103F4000E82E8111F1CFDF86C88A8F8598890E947B
:103F5000BF0A292F22952F70243058F49F702230E9
:103F600088F0992399F0F8019681907F79F4FE2CDE
:103F70009ECF2A5F2F70223068F0C8010E94C718B8
:103F8000EF2CF5CF992311F0882389F3805E8830D8
:103F900070F3F3CF803F58F3815F833070F7E7CF42
:103FA0008091D00181608093D001BECFC91207C03B
:103FB0009091CA01D91203C0EE2009F48DC0C80146
:103FC0000E94780B882309F477CFEE2009F474CF90
:103FD0008091D001803288F02091CA013091CB01CC
:103FE000398728879B868A869091CE019C871D867B
:103FF0008E87CE0108960E94C71887E0F801AAECC8
:10400000B1E001900D928A95E1F70E94C51E57CF4D
:104010009091D001292F207F51F48AEC91E00E94E9
:10402000C71887E0F50111928A95E9F77DCF8823BB
:1040300009F43DCF8091CB018C1110C08091CA0151
:10404000D8120CC0E1100AC09683C8010E94C7189C
:1040500087E0F50111928A95E9F729CFC8010E94FE
:10406000780B882309F428CFEE2009F425CF80911E
:10407000D001803210F22091CA013091CB013A83F5
:1040800029839C828B829091CE019D831E828F8397
:10409000CE010196B0CF44365105D0F6882309F4FD
:1040A0000ECFFE2CEE2009F407CF8091CB018C11AE
:1040B00020C08091CA01D8121CC08091D00180FD1F
:1040C0000FC0982F907F61F08683903F31F0982F3A
:1040D000907F905F8F70892B8683C8010E94C718DC
:1040E00087E0F801AAECB1E001900D928A95E1F722
:1040F000DECEC8010E94780B81117FCF8091D00164
:1041000081608093D001C8010E94C718D0CEABE176
:10411000B0E0EDE8F0E20C94DE284E8B5F8B688F08
:10412000798F8A8F9B8F192F9111109295021D8A7A
:1041300086E0FE017696DE011F9601900D928A952B
:10414000E1F70A8D002341F021E04F855889698904
:104150007A89C8010E949B0B0B8B1C8B87E0FE01A8
:104160003F96DE01189601900D928A95E1F7CE01F7
:1041700008960E94201F81110CC087E0FE0138962E
:10418000DE01119601900D928A95E1F78C858111DF
:104190000BC017E080912F039091F602891331C074
:1041A0006B96E4E00C94FA282091F60230E0C90105
:1041B00001968770992740912F034817190699F0A7
:1041C00097E0929FD001939FB00D1124A950BD4F4D
:1041D000FE01319601900D929A95E1F78093F602D7
:1041E0000E94810AD6CF0E9443111092F6021092CB
:1041F0002F0387E0EAECF1E0DF011D928A95E9F7F1
:10420000C8CF819FC001112489509D4F0E94201F5B
:10421000882331F280912F0390E0019687709927CF
:1042200080932F03B7CFA6E0B0E0E9E1F1E20C9470
:10423000DE280E9410118C018091F3019091F4010D
:104240008017910781F019821A820E941011682F3D
:1042500049815A81792F80E090E00E948720109355
:10426000F4010093F3012696E4E00C94FA281F92DF
:104270001FB61F9211248F939F93AF93BF9380918A
:10428000C002811113C08091C1029091C202A0911D
:10429000C302B091C4024196A11DB11D8093C10219
:1042A0009093C202A093C302B093C402BF91AF9196
:1042B0009F918F911F901FBE1F901895CDB7DEB7AD
:1042C00060970FB6F894DEBF0FBECDBF85B780688C
:1042D00085BF85B7806885BF84B7877F84BF0FB6E9
:1042E000F894A89580916000886180936000109296
:1042F00060000FBE80E890E00FB6F89480936100F4
:10430000909361000FBE85E398E090938F018093B6
:104310008E010E94E1050E9482068091E200846085
:104320008093E20078948091EC028823A1F01091B0
:10433000E9001F709091EC00892F817090FD80E85A
:10434000182B1092E9008091E80083FD0E94721101
:104350001F701093E90082E084BD93E095BD9AEF51
:1043600097BD80936E001092160210921702109261
:104370001802109219020E94310E809318010E94B7
:10438000310E81110E945A278091180180911801E5
:1043900094E0811190E09093230284E0891B809344
:1043A000220284E90E94370886E60E94370887E9DE
:1043B0000E94370886EC0E9437080FE711E0E5E815
:1043C000EE2EE1E0FE2ED8018D918D018F3F11F090
:1043D0000E943708E016F106B1F788E0E6E2F2E065
:1043E000DF01282F1D922A95E9F7EAE1F2E0DF01CB
:1043F0001D928A95E9F790E080E00E94152C863E98
:104400009E4F09F464C066EE7EEF90E080E00E946B
:10441000492C60E082E090E00E942B2C60E083E079
:1044200090E00E942B2C109225021092240260E052
:1044300074E184E090E00E94492C60E086E090E026
:104440000E942B2C6FEF87E090E00E942B2C40E025
:1044500050E0BA0188E090E00E943D2C60E084E2E8
:1044600090E00E942B2C60E087E190E00E942B2CD2
:1044700060E08CE090E00E942B2C60E08DE090E00A
:104480000E942B2C19821A821B821C821D821E8282
:104490001F82188648E050E068E170E0CE01019686
:1044A0000E941B2C40E050E0BA0180E290E00E94A4
:1044B0003D2C40E050E0BA018FE090E00E943D2C9E
:1044C00040E050E0BA0183E190E00E943D2C82E0A0
:1044D00090E00E940D2C80932E0284E090E00E94D8
:1044E000152C9093C6028093C5020E945817EFEFD7
:1044F000F6E721E0E150F0402040E1F700C0000085
:104500000E9458170E94310EE4E08111E0E0F0E0D3
:10451000EA5DFD4F808181FF08C06FEF7FEF90E083
:1045200080E00E94492C0E94DA0D83E090E00E9416
:104530000D2C90E00E94730B0E94310E12E081114D
:1045400010E00E94310E811101C012E010937C0234
:1045500080E880933A030E9414266BE070E08FE2BB
:1045600093E00E94810E8823E9F180917C0265E04E
:1045700070E081FD9EC08AE293E00E94810E882354
:1045800089F16DE070E088E193E00E94810E88235C
:1045900049F10E943E07605A75418F4F9F4F6093CB
:1045A0008E0270938F028093900290939102EDE3BC
:1045B000F3E080E092E0DF019C011D922150304049
:1045C000E1F7F0934405E09343058FEF9FEF90935D
:1045D0003C0380933B0381E080939302809392029B
:1045E00010927D020E94310E811102C00E945D274F
:1045F00089E191E09093BD028093BC0278E1272E7F
:10460000312C8091EC0200E112E1853009F48CC07C
:104610000E9458175FE2E52E52E0F52E66E2C62EA4
:1046200062E0D62ED601F70191918D9127E332E019
:104630002E173F0709F482C09817B1F30E94310E7C
:10464000882E10E077247394D6010D916D01F70147
:1046500091907F01901629F19026B12CAA24A39461
:10466000892D8A21B1F08820A1F0B9861A870E948D
:1046700010119C878B877D8691E0802F8A2109F419
:1046800090E09E8749855A856B857C858D850E9443
:104690008720B394AA0CF6E0BF12E2CFF70131975E
:1046A00000831F5F183081F60E94670EDD24D394CB
:1046B0004AC085E293E061CF8091EC02843021F121
:1046C0000E94AB0E1092C00230E40FB6F894A89589
:1046D000209260000FBE3093600083B7817F8460BA
:1046E00083BF83B7816083BF7894889583B78E7FBB
:1046F00083BF0FB6F894A89580916000886180937D
:104700006000109260000FBE8091EB02882361F080
:104710000E945817E6E2F2E08191811165C28EE2B3
:1047200092E08E179F07C1F78091EC02853009F463
:10473000C3CF0E9443110E94560E6ACF98137ECFBA
:104740000E941321D12C0E94310E8823E9F0809120
:104750002B0182FF19C00E9410112091B6023091E6
:10476000B702AC01421B530B2091290130912A0161
:104770004217530748F047E352E0BC018091B8026A
:104780009091B9020E94AB1680919302882309F49C
:1047900050C080917E0290917F020E940111C297C9
:1047A00040F10E94101190937F0280937E028DE36E
:1047B00093E090934405809343050E94310E882333
:1047C00009F420C185E593E00E94710CE091560246
:1047D000F0915702EF30F10540F4E056F34D0C94A0
:1047E00049298DE493E00E94B10C8EE392E00E948F
:1047F000550D80913B0390913C03892B09F007C133
:10480000809192028823A9F00E943E0700918E02B7
:1048100010918F022091900230919102601B710BD8
:10482000820B930B6F3F7F4F8F4F9F4710F40E9477
:10483000AB0ED1100E94C60E86E0E8E8F2E0DE0181
:10484000119601900D928A95E1F710928A021092CA
:104850008B0210928C0210928D028B819C81892B8D
:1048600009F44AC080918602909187020E9401114A
:104870009C0190918102992309F4D1C12531310520
:10488000D8F19F3F19F09F5F909381021B81112304
:1048900059F00E9415089FEF11160CF491E0899FC2
:1048A000802D112480938A021C81112359F00E94CB
:1048B00015089FEF11160CF491E0899F802D1124AB
:1048C00080938B0230918A023323B1F020918B02C6
:1048D000222391F045EB3403C0011124992309F4FC
:1048E00073C190938A0245EB240390011124332372
:1048F00009F46EC130938B028D819E81892B09F45E
:104900004AC080918402909185020E9401119C010D
:1049100090918202992309F47DC121353105D8F1A6
:104920009F3F19F09F5F909382021D81112359F0E0
:104930000E94F3079FEF11160CF491E0899F802DE0
:10494000112480938C021E81112359F00E94F307D9
:104950009FEF11160CF491E0899F802D1124809314
:104960008D0230918C023323B1F020918D022223ED
:1049700091F045EB3403C0011124992309F42CC1B3
:1049800090938C0245EB240390011124332309F406
:1049900027C130938D0246E050E0BE016F5F7F4F2C
:1049A00088E892E00E945829892B61F480918A025C
:1049B00090918B02892B90918C02892B90918D0282
:1049C000892B11F00E941C1186E0FE013196A8E8A7
:1049D000B2E001900D928A95E1F70E94560E9091F7
:1049E0008002891709F40DCE809380020E943E0751
:1049F00008CE87E493E0F7CE81E493E0F4CE8AE337
:104A000093E0F1CE8DE593E00E94710CF2CE80919F
:104A10009302882309F4F4CE80917D028111F0CEB7
:104A20000E94C60E20913B0330913C0321153105B5
:104A300009F4E6CE80E041E050E0082F10E07A0172
:104A4000082E02C0EE0CFF1C0A94E2F7B7016223A5
:104A50007323672B11F48F5FF0CF90917C0290FF4E
:104A60009AC0880F880F880F809324011092270125
:104A7000895F8093250183E08093280124E630E05C
:104A800047E050E062E271E088E70E94B426892B9B
:104A900009F0B6CEA80195E0440F551F9A95E1F7AD
:104AA00080917C0280FF89C0ECE5F2E080E2DF01CA
:104AB0001D928A95E9F7E9E8F1E0F88BEF8705E8C0
:104AC00011E087E0982E88248394AF85B8892D91D2
:104AD000B88BAF87F80141908F01440E552E511CC1
:104AE000C201835C9C4F2C01E22FF0E0E45AFD4FA1
:104AF00030E020E0692C621AC82C022E01C0CC0CD8
:104B00000A94EAF7520190E0D5018D915D018C2164
:104B1000662D691B6770762E062E000C770BB82F5A
:104B200001C0BB0F7A94EAF77B2E719561957109EC
:104B30006770772701C086956A95EAF7782A8081A1
:104B4000782A70829F5F9830F9F62F5F3F4F319639
:104B50002830310579F6EF85F889ED58F14009F0F4
:104B6000B4CF04E610E020E230E04CE552E060E42F
:104B700088E70E94D526892B09F042CEE094F09474
:104B800080913B0390913C03E822F922F0923C0390
:104B9000E0923B0335CE8295880F80768093240186
:104BA0009801369527953695279520932701815EA4
:104BB000809325012093280161CF435C5C4F04E67C
:104BC00010E020E230E0D3CF81E080938A028BCEE8
:104BD00081E080938B0290CE81E080938C02D2CED4
:104BE00081E080938D02D7CE09BD19BD09B400FEC6
:104BF000FDCF8091D8008F7D8093D8008091E00018
:104C000082608093E0008091E00081FDFCCF0E94F3
:104C100043118ACD2B30310508F084CEBCCE2B3029
:104C2000310508F030CE68CE1092B9008CE0809348
:104C3000B8000895B0E0A0E0E0E2F6E20C94D728D6
:104C4000B82EEB010E9410116C01EE24E394F12CBC
:104C5000C431D10560F025E0E22EF12CCF3FDC0716
:104C600031F0CE0164E170E00E94BC287B0184EA4F
:104C7000A82E94E8992E1092BC00A092BC000E942D
:104C800010118C018091BC0087FF0DC08091B9008C
:104C9000887F8830F9F08091B900887F8031D1F029
:104CA0000FEF1FEF08C0C8010E940111E816F906B6
:104CB00048F70EEF1FEFCF3FDC07E9F2C6010E9475
:104CC0000111C817D907B8F6C801CDB7DEB7EBE0B8
:104CD0000C94F328B092BB009092BC000E9410117B
:104CE0008C018091BC0087FF0AC08091B900887F49
:104CF000883111F08034A1F610E000E0E5CFC80162
:104D00000E940111E816F90660F7D3CF0F931F93A5
:104D1000CF93DF93EB018093BB0084E88093BC00CA
:104D20000E9410118C018091BC0087FF11C020915E
:104D3000B900287F81E090E0283211F490E080E013
:104D4000919581959109DF91CF911F910F910895D0
:104D5000CF3FDC0741F3C8010E940111C817D907F2
:104D600010F78EEF9FEFEFCFB0E0A0E0EAEBF6E2B6
:104D70000C94DA286B018A017901B9010E941A2684
:104D8000E6010C0D1D1DC017D10711F097FF08C0DB
:104D900024E92093BC00CDB7DEB7E8E00C94F628F8
:104DA000B70189910E948626EECFB0E0A0E0EBED3E
:104DB000F6E20C94DA28C62F6A017901B8010E9444
:104DC0001A2697FD0CC0B8018C2F0E948626E6019A
:104DD000EC0CFD1CCE15DF0511F097FF08C024E98F
:104DE0002093BC00CDB7DEB7E8E00C94F628B801FC
:104DF00089910E948626EECF84E98093BC000895B5
:104E00008EE14A9B02C08150E1F74A9BFECF089594
:104E10005A9880E28A95F1F75A9A0895FC013BE08E
:104E20003A95F1F798E020E080E031E040E14A95E2
:104E3000F1F7880F4A9B02C08160232742E04A9520
:104E4000F1F7000040E14A95F1F7915079F790E1D0
:104E50009A95F1F799B132E03A95F1F7000040E107
:104E60004A95F1F792FB992790F992272081920FAA
:104E700090830895A1E0B0E0E0E4F7E20C94DC2830
:104E800019828C017C01E60EF11C0E151F0541F400
:104E900081E09981911180E02196E6E00C94F82858
:104EA0000E940027CE0101960E940E27F8018193EF
:104EB0008F01EBCF529A5A9A089552985A9AEA9AC9
:104EC000E9E6F0E080818F7C808308956150770B64
:104ED00091E001C0990F6A95EAF720E031E0911165
:104EE00008C0222391F05A9A80E28A95F1F75A98E5
:104EF0000895492F482339F05A9A232740E24A95CA
:104F0000F1F79695ECCF5A98F9CF5A98EDCFFF92DA
:104F10000F931F93CF93DF93EC018C01060F111DAC
:104F2000C017D10729F4CDB7DEB7E5E00C94F92816
:104F3000F9900E94082768E08F2D0E946627F0CF25
:104F40001F920F920FB60F9211240F931F932F935E
:104F50003F934F935F936F937F938F939F93AF9301
:104F6000BF93EF93FF93CF93DF930F92CDB7DEB74D
:104F700019820E940027CE0101960E940E27082F59
:104F8000069506950695282F22952570902F9570E9
:104F9000290F922F937026952695920F9827977038
:104FA0008981982B09F05CC0043008F059C080E179
:104FB0008A95F1F75A9A529A82E08A95F1F700C0E1
:104FC0005A9888E0089F80011124D801A050BF4F53
:104FD0001696ED91FC9117973097A9F060917901A1
:104FE00070917A0114962D913C911597260F371FD9
:104FF00011968D919C911297680F791F13964C9181
:1050000013978C910995F801E050FF4F6381662357
:1050100051F02091790130917A0184819581820F3C
:10502000931F0E9487270E94082780E18A95F1F745
:105030005A9852985A9A80E18A95F1F7F801E0500F
:10504000FF4F6081662351F02091790130917A0100
:1050500081819281820F931F0E943A270E9400272C
:105060000F90DF91CF91FF91EF91BF91AF919F9101
:105070008F917F916F915F914F913F912F911F91F0
:105080000F910F900FBE0F901F9018950F931F93C5
:10509000CF93DF93EC0104970CF04CC0F894529A34
:1050A0005A9885E08A95F1F700009C2F96959570A7
:1050B0008C2F8570980F892F83709695969523E095
:1050C000CC0FDD1F2A95E1F7980F8E01092B0E9466
:1050D000082700C068E0802F0E94662780E18A953B
:1050E000F1F752985A9A4A9B1EC087E090E04A997D
:1050F0001CC0FE01E050FF4F63816623F9F0209150
:10510000790130917A0184819581820F931F0E94E9
:105110003A27811113C0529A5A9A7894DF91CF910D
:105120001F910F91089500C0DECF019729F4529A84
:105130005A9A789480E0F2CF00C0D9CF0E9400271D
:1051400080E28A95F1F75A98529A80E18A95F1F7B0
:10515000C050DF4F6881662351F020917901309172
:105160007A0189819A81820F931F0E9487270E946A
:105170000827789481E0D2CFAA1BBB1B51E107C05E
:10518000AA1FBB1FA617B70710F0A61BB70B881FD7
:10519000991F5A95A9F780959095BC01CD01089566
:1051A0002F923F924F925F926F927F928F929F9237
:1051B000AF92BF92CF92DF92EF92FF920F931F9325
:1051C000CF93DF93CDB7DEB7CA1BDB0B0FB6F894D6
:1051D000DEBF0FBECDBF09942A88398848885F8416
:1051E0006E847D848C849B84AA84B984C884DF8087
:1051F000EE80FD800C811B81AA81B981CE0FD11D6B
:105200000FB6F894DEBF0FBECDBFED010895991B18
:1052100079E004C0991F961708F0961B881F7A95AD
:10522000C9F78095089597FB072E16F4009407D0D0
:1052300077FD09D00E94BC2807FC05D03EF490956C
:1052400081959F4F0895709561957F4F0895A1E2D4
:105250001A2EAA1BBB1BFD010DC0AA1FBB1FEE1FF0
:10526000FF1FA217B307E407F50720F0A21BB30B3B
:10527000E40BF50B661F771F881F991F1A9469F7B7
:1052800060957095809590959B01AC01BD01CF0113
:105290000895EE0FFF1F0590F491E02D0994FB0196
:1052A000DC0102C005900D9241505040D8F708959E
:1052B000FB01DC0104C08D910190801921F4415063
:1052C0005040C8F7881B990B0895FB01DC0102C010
:1052D00001900D9241505040D8F70895AEE0B0E0F3
:1052E000E4E7F9E20C94DE280D891E898F89988DF8
:1052F00026E02C831A83098397FF02C080E090E8A0
:1053000001979E838D83AE01455E5F4F698D7A8DD7
:10531000CE0101960E949E294D815E8157FD0AC0F3
:105320002F813885421753070CF49A01020F131F7F
:10533000F80110822E96E4E00C94FA28ABE0B0E07D
:10534000E4EAF9E20C94D0287C013B018A01FC01DB
:1053500017821682838181FFB9C19AE0292ECE017E
:1053600001965C01F7019381F30193FD859193FF11
:1053700081913F01882309F446C1853239F493FDB8
:10538000859193FF81913F01853229F4B70190E027
:105390000E947F2BE7CF912C412C512CFFE1F5157A
:1053A00038F08B3209F188F4803201F1833221F137
:1053B00057FC3AC020ED280F2A3040F556FE1FC09A
:1053C000929C200D1124922E06C08D3291F08033D4
:1053D00079F7689450F8F30193FD859193FF8191DB
:1053E0003F018111DBCF20C0689451F8689452F8D6
:1053F000F2CF689453F8EFCF689454F8ECCF429C06
:10540000200D1124422E689455F8E5CF8E3229F4F0
:1054100056FCF9C0689456F8DECF8C3619F46894BF
:1054200057F8D9CF8836B9F2982F9F7D955493308D
:10543000C0F08336A1F18337C1F1833509F05BC039
:10544000F801C190D1908F01692D70E056FC02C027
:105450006FEF7FEFC6010E94692B4C01689457F8EB
:105460000AC00C5F1F4F2FE3298388248394912C5B
:105470006501E89457F853FC04C04814190409F076
:1054800018F5342C8114910431F5332009F46ACFD6
:10549000B70180E290E00E947F2B3A94F6CFF801AA
:1054A000808189830E5F1F4FE0CFF801C190D190BA
:1054B0008F01692D70E056FC02C06FEF7FEFC601CF
:1054C0000E94742B4C01D5CFB70180E290E00E947E
:1054D0007F2B4A94D2CFF60157FC859157FE8191DC
:1054E0006F01B70190E00E947F2B31103A94F1E0F8
:1054F0008F1A9108C7CF843619F0893609F074C025
:10550000F80157FE6AC061917191819191918F016B
:10551000252D2F76D22E97FF09C0909580957095F6
:1055200061957F4F8F4F9F4F6894D7F82AE030E006
:10553000A5010E94AF2BC82ECA188C2C5D2CD6FE5C
:105540000CC0E89450F8C91440F4D4FE05C0D2FC55
:1055500003C0FD2DFE7E5F2E892C54FE8FC0FE0100
:10556000EC0DF11D8081803309F081C0252D297E4D
:10557000522E852D8870382E53FC8FC050FE89C066
:105580009C2C841418F44C0C942C981854FE8BC04A
:10559000B70180E390E00E947F2B52FE09C088E7AC
:1055A00090E051FE02C088E590E0B7010E947F2B99
:1055B000C91408F484C0CA94D12C9FEFC91AD90A1F
:1055C000CA0CDB1CF60182916F01B70190E00E94CA
:1055D0007F2BAC14BD04B1F758CF61917191072EA8
:1055E000000C880B990B93CFD52CE894D4F82AE0C3
:1055F00030E0853739F1952D997FD92E8F3601F11D
:1056000048F48835A9F0F701868197812B96E2E16D
:105610000C94EC28803749F08837A9F7D4FE02C0F3
:105620006894D2F820E130E00DC06894D4F8F6CF49
:1056300054FE03C0E92FE660DE2E20E132E002C016
:1056400028E030E0F801D7FE0DC0619171918191A1
:1056500091918F01A5010E94AF2BC82ECA18E89422
:10566000D7F86BCF6191719190E080E0F2CF52FC5E
:1056700002C083947ECF839483947BCF852D8678DC
:1056800009F477CFF6CFB70180E290E00E947F2B3C
:1056900083948414C0F3312C79CF342C38188414BB
:1056A00008F474CFF8CF852D867809F481CF8BE28A
:1056B00051FE80E257FC8DE2B70190E077CFB70151
:1056C00080E390E00E947F2B9A9472CF8FEF9FEF40
:1056D0009DCFFC010590615070400110D8F7809576
:1056E00090958E0F9F1F0895FC01615070400190AE
:1056F0000110D8F7809590958E0F9F1F08950F93F6
:105700001F93CF93DF93182F092FEB018B8181FD1E
:1057100009C01FEF0FEF812F902FDF91CF911F91C5
:105720000F91089582FF14C02E813F818C819D814D
:10573000281739073CF4E881F981CF010196998354
:10574000888310838E819F8101969F838E83E3CF10
:10575000E885F985812F0995892BA1F3DACFFA0124
:10576000AA27283051F1203181F1E8946F936E7FA0
:105770006E5F7F4F8F4F9F4FAF4FB1E03ED0B4E091
:105780003CD0670F781F891F9A1FA11D680F791FD2
:105790008A1F911DA11D6A0F711D811D911DA11DE3
:1057A00020D009F468943F912AE0269F11243019F3
:1057B000305D3193DEF6CF010895462F4770405D8E
:1057C0004193B3E00FD0C9F7F6CF462F4F70405D3D
:1057D0004A3318F0495D31FD4052419302D0A9F798
:1057E000EACFB4E0A6959795879577956795BA9592
:1057F000C9F700976105710508959B01AC010A2E58
:1058000006945795479537952795BA95C9F7620F2E
:10581000731F841F951FA01D0895F999FECF92BD97
:1058200081BDF89A992780B50895A8E1B0E042E0DB
:1058300050E00C94512CDC01A40FB51F4150504096
:1058400048F0CB01840F951F2E910E942C2C4150C3
:105850005040D0F70895262FF999FECF92BD81BD13
:10586000F89A019700B4021639F01FBA20BD0FB69E
:10587000F894FA9AF99A0FBE08950396272F0E947A
:105880002C2C0E942B2C252F0E942C2C242F0C9486
:105890002C2C0196272F0E942C2C0C942B2CDC01F5
:1058A000CB01FC01F999FECF06C0F2BDE1BDF89A2B
:1058B000319600B40D9241505040B8F70895F894D5
:1058C000FFCF51127912111479121114AC12CD12AA
:1058D0001114CA13D7137F1BF41B871B511B551BB5
:1058E0008B1B591B8F1B9B1B651BED1B691B9F1B78
:1058F0006D1BA31BCB1B711BA71BD21B771BAD1BE7
:10590000B51B5D1B931B611B971B7B1BB11BC11B35
:10591000DB1BEB1B4B1B831BFB1B321B361B271B91
:105920002E1B3A1B3E1B421B761C761CAE1CAE1C6B
:10593000531D6F1DD61CD61C741DFC1D0B1E0B1E8B
:10594000F123F523F924F523FC24F523F523F5238E
:0E595000FF24F523FF24F523FF24F523FF2475
:10595E000000000100000000000000040100000033
:10596E000405000000000000013B07B60DAF0DA8B6
:10597E000D200021007F220003AF000101FF002552
:10598E00647825642C206B253264203A2025630030
:10599E00818283E200E900EA00B500B600B700CDCF
:1059AE00008301CC008A019201940121022302247A
:1059BE00022502260227022A02B300B4006F0070ED
:1059CE00009F01CB019F02A0020802946697C6F4C5
:0E59DE00F5F6F7313300081018181008000015
:00000001FF
