:100000000C9408020C9425020C9425020C94D9201F
:100010000C9425020C9425020C9425020C942502C4
:100020000C9425020C9425020C94BD1A0C94791A98
:100030000C94BA1B0C9425020C9425020C942502F6
:100040000C9425020C9425020C9425020C94250294
:100050000C9425020C94961B0C9425020C942502FA
:100060000C9425020C9425020C9425020C94250274
:100070000C9425020C9425020C9425020C94250264
:100080000C9425020C9425020C9425020C94250254
:100090000C9425020C9425020C9425020C94250244
:1000A0000C9425020C9425020C94250205010902EA
:1000B000A10185020901A1000509190129081500FE
:1000C0002501950875018102050109300931158165
:1000D000257F95027508810609381581257F9501D0
:1000E00075088106050C0A38021581257F95017572
:1000F000088106C0C005010980A101850319012AF4
:10010000B700150126B700950175108100C0050CD8
:100110000901A101850419012AA002150126A002E6
:10012000950175108100C00660FF0961A101096297
:10013000150026FF00952075088102096315002629
:10014000FF00952075089102C005010906A101056F
:100150000719E029E7150025019508750181029529
:1001600001750881010507190029FF150026FF0008
:100170009506750881000508190129059505750181
:100180009102950175039101C0000000000000007C
:10019000000000000000000000000000000000005F
:1001A000000000000000000000000000007E0F00C2
:1001B000D4FFFFFFC700000078000000000000002F
:1001C000002A2B28000000000000000000000000B2
:1001D0000000000029000000002C1E3420212224F1
:1001E000342627252E362D3738271E1F202122237F
:1001F0002425263333362E37381F04050607080911
:100200000A0B0C0D0E0F10111213141516171819D6
:100210001A1B1C1D2F3130232D3504050607080934
:100220000A0B0C0D0E0F10111213141516171819B6
:100230001A1B1C1D2F3130354C14001A00080015F4
:1002400000170004211600070009000A001D221BE8
:100250000006001900050035212A410000000000B9
:10026000001C0018000C00120013000B000D000E03
:10027000000F003300110010003600370038322C18
:10028000422B280000000000001E001F002000215B
:10029000002200167C4A004E004B004D0001000178
:1002A000000100D100D200010001000000000000A8
:1002B0000023002400250026002700500051005292
:1002C000004F003400CF00CE00CD00D00028000148
:1002D0000001000000000000003A003B003C003D2F
:1002E000003E002B0001000100010001000100019F
:1002F00000010001000100010001000000000000F9
:10030000003F0040004100420043002D002E002F1E
:1003100000300031022D022E0201000100007C019C
:1003200000010000000000000001000100010001C8
:1003300000010001000100010001000100010001B5
:1003400000010001000100010001000000000000A8
:100350000001000100010001000100010001000195
:100360000001000100010001000100010001000185
:1003700000010000000000000009025B0003010012
:10038000A0FA090400000103010100092111010084
:100390000122400007058103080001090401000251
:1003A000030000000921110100012222000705823B
:1003B00003200001070503032000010904020001D6
:1003C00003000000092111010001227B00070584C0
:1003D000032000011201000200000008ABC23939FD
:1003E0000100010200011A0346006500720072005C
:1003F00069007300200073007700650065007000DD
:1004000000000803440050004200000004030904F7
:1004100011241FBECFEFDAE0DEBFCDBF11E0A0E0B8
:10042000B1E0EAE1F6E402C005900D92A039B1070F
:10043000D9F722E0A0E9B1E001C01D92AD36B207C4
:10044000E1F70E94E11B0C94B9220C940000FC011E
:10045000AC014C5F5F4F8FEF91E32191822728E041
:1004600030E087FF09C0880F892721503109C9F77B
:10047000E417F50791F70895880FF7CFE8EDF0E05E
:1004800080818E7F80831092E2001092DA001092B9
:10049000E100A0EEB0E08C9181608C9380818F7739
:1004A000808319BCA7EDB0E08C918E7F8C93808106
:1004B0008F7E80831092520208952091E400309143
:1004C000E50095E6A9012091EC00822F817020FFC4
:1004D00006C08091E80080FF06C080E0089520916A
:1004E000E80022FD1AC080915F02882389F08530E0
:1004F00089F08091EB0085FD0FC02091E4003091E0
:10050000E50042175307F9F29150E1F684E00895AF
:1005100082E0089583E0089581E00895809161026A
:1005200087FF13C08091E80082FF06C08091E80039
:100530008B778093E80004C080915F028111F2CF35
:10054000089580915F028823D9F38091E80080FFAD
:10055000F8CF8091E8008E77ECCF982F9093E90048
:10056000242F762F50E0891731F07091EC00209104
:10057000ED005091F00021FD07C09F5F973071F7AB
:100580008093E90081E008953091EB003E7F309345
:10059000EB003091ED003D7F3093ED003091EB00AA
:1005A00031603093EB007093EC002093ED0050939A
:1005B000F0002091EE0027FDE0CF80E00895B0E04C
:1005C000A0E0E5EEF2E00C94FF21C8EDD0E08881D8
:1005D0008F7E8883E7EDF0E080818160808384E016
:1005E00082BF81E08093520288818E7F888302EEF1
:1005F00010E0F80110821092DA0081EEC82ED12CA2
:10060000F601108288818F7788838881806888834B
:1006100088818F7D888319BC10925F0210926002DE
:1006200010925E0210925D0290EEE92EF12CF7011D
:1006300080818B7F808388818160888342E060E055
:1006400080E00E94AD02F60180818E7F8083F801F8
:10065000808181608083808188608083F7018081D0
:100660008E7F8083888180618883CDB7DEB7E8E0A4
:100670000C941B22FC0180916702909168028617FE
:100680009707A0F06115710529F49091E8009E7715
:100690009093E80090E06115710551F4911108C044
:1006A0008091E80082FF34C080E00895BC01F2CF61
:1006B00080915F028823C1F18530C1F18091E8000B
:1006C00083FD30C08091E80082FDEACF8091E80090
:1006D00080FFE1CF8091F3002091F200382F611567
:1006E000710519F02830310558F091E028303105B6
:1006F00009F090E02091E8002E772093E800CBCF1E
:1007000081918093F100615071092F5F3F4FE7CFD6
:1007100080915F02882341F0853041F08091E800AC
:1007200083FFBECF81E0089582E0089583E00895BD
:1007300080915402089587E797E79093010880938A
:10074000000888E19AE00FB6F894A89580936000BD
:100750000FBE90936000FFCF9C014FB7F89480913B
:100760004E0290914F02A0915002B09151024FBFA2
:10077000821B930B08952FB7F89460914E027091ED
:100780004F0280915002909151022FBF08952FB7D0
:10079000F89480914E0290914F02A0915002B09136
:1007A00051022FBF08959C01FC0132969FEF80E01B
:1007B0004191461751F09F3F19F4411101C0982F04
:1007C0008F5F8630A9F79F3F09F40895290F311DE7
:1007D00097FD3A95F90162830895A3E0B0E0E3EF55
:1007E000F3E00C94052220914B0230914C02281723
:1007F0003907A1F090934C0280934B02E09149029B
:10080000F0914A02309751F024E029839B838A8338
:100810000680F781E02DCE01019609952396E2E04E
:100820000C942122A3E0B0E0E8E1F4E00C9405226E
:10083000209147023091480228173907A1F0909380
:10084000480280934702E0914902F0914A023097B2
:1008500051F023E029839B838A830680F781E02D72
:10086000CE01019609952396E2E00C9421220E9484
:10087000C7039C0190913F0280914002982B21F088
:1008800030933C0220933B029091410280914202BE
:10089000982B21F030933A0220933902E0914902DB
:1008A000F0914A02309749F082E080933D02048043
:1008B000F581E02D8DE392E009950895809138024D
:1008C00080FD16C081FD16C082FD16C080913702E2
:1008D0008823A1F0883280F428E0829FC00111248F
:1008E00068E270E00E942C22862F672B39F0089571
:1008F00082E0089584E0089588E0089581E00895F5
:100900008091380280FD14C081FD14C082FD16C0A4
:1009100080913602882381F08E3180F420E5829F19
:10092000C00111246EE170E00E942C22862F0895F0
:1009300084E1089588E2089588E0089580E50895A7
:1009400080E008959091200292FF06C0282F287120
:100950002830F9F4877F846093FF06C0282F287120
:100960002831F1F4877E84612091210220FF06C0A6
:10097000382F38713830D9F4877F816021FF06C065
:10098000282F28712831D1F4877E816194FD877EDC
:100990000895282F24712430F9F68B7F8860DCCFEE
:1009A000282F2471243101F78B7E8861DDCF382F09
:1009B0003171313019F78E7F8860E0CF282F217197
:1009C000213121F78E7E8861E1CFCF93DF93EC0157
:1009D00082389105B9F108F041C08133910509F4DD
:1009E0009FC050F58932910509F48FC08A9709F4A8
:1009F0009EC0C11520E5D20708F0BDC0C11530E486
:100A0000D30708F00AC1C03ED10508F0A5C0CD3C0F
:100A1000D10508F000C1C83AD10508F08FC0C53A29
:100A2000D10508F0F0C0C130D10539F1209729F186
:100A3000C430D10510F546C08533910509F460C076
:100A4000C997B9F680912002837009F044C1809162
:100A5000210283FF12C0C9E2D0E00FC0833E91059E
:100A6000A1F178F4803E910509F1823E910509F0EB
:100A7000C0CF8091200282FD21C0CE01DF91CF91B5
:100A80000895863E910561F1873E910571F1843E9E
:100A9000910509F0AECF8091210281FFEECF8091C8
:100AA0002002C7EED0E084FD0DC0E7CF8091200288
:100AB00080FD33C09091210290FFDFCFC3EED0E0E4
:100AC00084FFDBCFD0E0C0E0D8CF8091200282FD50
:100AD000FFC09091210290FDFEC084FFCECFF2CFE7
:100AE0008091200283FDDDCFC8CF8091200283FD5D
:100AF000F5C09091210291FFF0CFC4EED0E0BDCFC0
:100B00008091200285FFB9CFA6CF8091200285FD7C
:100B1000E8C08091210283FFB0CFC9E3D0E0ADCF20
:100B20008091200286FFA9CFCAE2D0E0A6CF8091B3
:100B3000200286FFA2CFC1E3D0E09FCFC13CD10508
:100B400008F6C85AD0E0CC0FDD1FC35BDE4F09901A
:100B5000D881C02DD46491CFC11540E2D40708F0EC
:100B6000AAC0C11581E0D80708F087CFC83ED105DB
:100B700008F483CFA7CFC03622E5D20718F5C034DA
:100B800032E5D30708F053C0C03242E5D40708F07D
:100B900047C0C11582E5D80708F47FC02C2F2695E1
:100BA000269540E2249F900111248C2F8370C1E090
:100BB000D0E002C0CC0FDD1F8A95E2F7C22BD32B09
:100BC000DD685BCFC03A22E5D20760F4C03832E579
:100BD000D30708F441C0CF71D0E0DC2FCC27C46F1D
:100BE000D06A4BCFC03C42E5D40708F44AC0C03EAF
:100BF00082E5D80708F066CFDC2FCC27CC27DF7141
:100C0000C06FD06A3ACFC55AD0E0C65BDE4FC8810C
:100C1000D0E0D06432CFD06530CFDF70D06A2DCF36
:100C2000CF71D0E0DC2FCC27C16FD06A26CF2C2F1C
:100C300026952695277080E2289F900111248C2FFD
:100C40008370C1E0D0E002C0CC0FDD1F8A95E2F7CF
:100C5000C22BD32BDC6811CF2C2F2695269527701D
:100C600040E2249F900111248C2F8370C1E0D0E0DA
:100C700002C0CC0FDD1F8A95E2F7C22BD32BDA68B6
:100C8000FCCE8C2F8F710E94A204C82FD0E0DC2FE5
:100C9000CC27CC27DF71D062F0CE8C2F8F710E94D1
:100CA000A20435E0D695C7953A95E1F7CF709C2F11
:100CB000EC01D069E2CE8D2F8F710E94A20490E0EA
:100CC000982F882788279F719C012C2BE901E3CF5F
:100CD000C2EED0E0D2CEC0EED0E0CFCEC6EED0E0B5
:100CE000CCCEC5E3D0E0C9CE8091EF018111109246
:100CF000EF01089580959091EE0198239093EE0175
:100D000008958091E3019091B201981301C0089574
:100D10008F5F8770FACF292F983078F5853068F586
:100D200090E035E0239F800D911D1124682F67709E
:100D300023E0969587952A95E1F7FC01EE0FFF1FBA
:100D4000E80FF91FE356FE4F50E040E080E02191AC
:100D500030E0062E02C0369527950A94E2F72170FE
:100D60003327042E01C0220F0A94EAF7822B4F5F2B
:100D70005F4F4330510559F7089580E00895292FBA
:100D8000983098F5853088F590E035E0239F800D08
:100D9000911D1124282F277041E001C0440F2A958E
:100DA000EAF723E0969587952A95E1F7FC01EE0F87
:100DB000FF1FE80FF91FE356FE4F30E020E070E020
:100DC0005191DF011197CB01022E02C096958795B4
:100DD0000A94E2F7817081958527842385278C9377
:100DE0002F5F3F4F2330310559F7089580936C02F0
:100DF000089580916C02982F9670963021F4886047
:100E00000E94F6060895877FFBCF21E030E001C005
:100E1000220F8A95EAF7209580916C0282230E9426
:100E2000F60608959091E401809589238093E4016A
:100E3000282F277091F4282F082E000C330B9217BF
:100E4000130659F09091210292FF07C08595859570
:100E500085950E9405071092E401089521E030E095
:100E600001C0220F8A95EAF780916C02822B0E94C2
:100E7000F60608958093F0010895662309F45DC095
:100E80008D3C41F40E9480048195809340020E9431
:100E9000370408958E3C19F40E948004F6CF8F3CED
:100EA00031F40E948004819580933F02F0CF803D11
:100EB00019F40E948004F8CF893D29F40E945E0451
:100EC00080934102E4CF8A3D21F40E945E04819523
:100ED000F7CF8B3D31F40E945E04819580934202EE
:100EE000D6CF8C3D19F40E945E04F8CF9FE2980F94
:100EF000983070F4815D990B21E030E001C0220F41
:100F00008A95EAF780913E02822B80933E02BFCF02
:100F10008D3D31F480913802816080933802B7CFE3
:100F20008E3D21F4809138028260F7CF8F3D09F029
:100F3000AECF809138028460F0CF40913F028D3C6B
:100F400059F48091400287FF0DC010924002411178
:100F50000BC01092360208C08E3C81F48091400292
:100F600018169CF3442381F0809141029091420233
:100F7000892B09F08CCF1092370289CF8F3C49F42E
:100F800047FFF0CF10923F02809140028111ECCFD9
:100F9000E0CF803D19F41416ACF3E4CF90914102F8
:100FA000893D29F41916F4F610924102DBCF8A3DEF
:100FB00019F497FFD7CFF8CF909142028B3D29F4D7
:100FC00097FFD0CF10924202CDCF8C3D19F4191665
:100FD000CCF3C8CF9FE2980F983090F4815D990BC5
:100FE00021E030E0B90102C0660F771F8A95E2F771
:100FF000CB01809590913E02892380933E02B2CF2F
:101000008D3D31F4809138028E7F80933802AACFD3
:101010008E3D21F4809138028D7FF7CF8F3D09F00E
:10102000A1CF809138028B7FF0CF9C019A958115DA
:101030009F4130F4832F817031FF03C08260089597
:1010400080E008950F931F93CF93DF938B01EA0104
:1010500090915F02943061F58093E9008FEF909159
:10106000E800815095FD06C095ED9A95F1F70000D6
:101070008111F5CF8091E80085FF1AC00E945D02C2
:10108000811111C08091E80085FD06C08091E800C3
:101090008E778093E800F2CFF80181918F018093E1
:1010A000F100219779F78091E8008E778093E8002E
:1010B000DF91CF911F910F91089543E050E0BC0163
:1010C00084E00E942208089546E050E0BC0184E0DC
:1010D0000E9422080895CF93DF93EC0148E050E08E
:1010E000BC0181E00E94220888E0FE01A5E5B2E093
:1010F00001900D928A95E1F7DF91CF910895B0E0CC
:10110000A0E0E5E8F8E00C94FD217C015B016A01B8
:101110008091110201E010E08A3010F40AE010E042
:10112000C1E0D0E0B501C701F6010995811104C005
:1011300021960C171D072CF4CDB7DEB7EAE00C940E
:101140001922CC9F9001CD9F300D300D112490E0DD
:1011500080E045E34A95F1F7000001968217930776
:10116000C1F7E0CF8091FB01811110C08091D800C0
:1011700080618093D8008AE18A95F1F700C0809160
:10118000D90080FF0AC081E08093FB0181E090914B
:10119000FB01913009F080E0089582E08093FB012B
:1011A0000E943E0210925F02F1CF0E94B208882393
:1011B00059F0E0914902F0914A02309729F00190EC
:1011C000F081E02D0995089580E00895CF93DF9395
:1011D000C6E6D1E060E0CE010E946F222196C115E3
:1011E00084E0D807B9F7DF91CF9108951F93CF938B
:1011F000DF93122F8430E0F46830D0F44530C0F42F
:10120000C42FD0E0CC0FDD1F9AE0699FC00DD11D27
:10121000112490E5899FC00DD11D1124632FCE01AB
:1012200086960E946F22612FCE0187960E946F22C0
:10123000DF91CF911F910895AF92BF92CF92DF922D
:10124000EF92FF921F93CF93DF9389E3C82E82E042
:10125000D82ED0E07601C0E014C0F501259134917C
:10126000412F6C2F8D2F0E94F60882E0A80EB11C32
:101270001F5F153091F78AE0E80EF11CCF5FC83090
:1012800019F0570110E0E9CFDF5F80E5C80ED11CEF
:10129000D43001F7DF91CF911F91FF90EF90DF9055
:1012A000CF90BF90AF90089580934302682F8CE059
:1012B00090E00E946F220895CF93C82F6FEF8111A5
:1012C00062E282E290E00E946F226FEFC11162E160
:1012D00083E290E00E946F226FEFC11169E084E227
:1012E00090E00E946F22CF91089580E00E945C09F7
:1012F00060E085E290E00E946F220E941C090E943B
:10130000E60881E00E945C0908950F931F93CF9334
:10131000DF93843030F5683020F5453010F5C42F68
:10132000D0E0CC0FDD1F2AE0629FC00DD11D11243B
:1013300030E5839FC00DD11D1124CE0186960E94F9
:101340006122082F10E0102F0027CE0187960E94FF
:1013500061229801282BC901DF91CF911F910F9134
:10136000089590E080E0F8CF462F783040F4653063
:1013700030F4843020F4672F0E948509089590E0AE
:1013800080E00895CF92DF92FF920F931F93CF9347
:10139000DF936C0100916C028091F001082BC7E093
:1013A000D0E010E0FC2EC8010C2E02C09595879568
:1013B0000A94E2F780FD0CC02197A0F7F12C8F2D45
:1013C000DF91CF911F910F91FF90DF90CF90089503
:1013D000B6018C2F0E94B4090E94E504019761F3C5
:1013E000EECFCF93DF93EC010E94C209BE010E94B1
:1013F000B4090E94E504DF91CF910895FC01838137
:101400009481892B29F08081918189238F3F51F428
:1014100080E00895843FE1F717C0883EA8F0813F3F
:10142000B9F712C0808191810E94F10992959F7055
:10143000963099F358F4925F9F70923048F7803F4E
:1014400019F040F7883E20F781E008959A5FF4CFC5
:1014500082E290E00E946122823289F483E290E08D
:101460000E946122823159F484E290E00E9461225C
:1014700091E0893009F090E0892F8170089580E033
:10148000FCCF8091EE019091ED01892B8093920128
:101490009091EF01992391F0892B8093920120E0A4
:1014A00084E991E0FC013191CF0131112F5FF1E02E
:1014B0008A399F07B9F721110E94740648E050E06D
:1014C00065EE71E082E991E00E94A322892BA9F0E8
:1014D00088E0E2E9F1E0A5EEB1E001900D928A9595
:1014E000E1F7E0914902F0914A02309731F0028031
:1014F000F381E02D82E991E009950895882341F078
:1015000080959091ED0189238093ED010E94410A1D
:101510000895882339F09091ED01982B9093ED0177
:101520000E94410A0895882321F00E947A060E94B1
:10153000410A0895882339F09091EE01982B9093F9
:10154000EE010E94410A08958823D1F19CEF980F83
:10155000913A78F4E4E9F1E09191891303C0DF0155
:1015600011971C9291E0EA39F907B1F70E94410AFC
:10157000089590E2980F983050F4877091E001C080
:10158000990F8A95EAF7892F0E947A06EFCF9BE59B
:10159000980F933028F490E080E00E9412040895A0
:1015A00098E5980F993128F490E080E00E94ED03CF
:1015B000089593E3980F933118F460E00E943D077B
:1015C0000895CF93C82F8823B1F08CEF8C0F813A08
:1015D00000F5E4E9F1E08AE991E0DF012D91C2171D
:1015E00061F08A179B07D1F76C2F82E991E00E9486
:1015F000D3030E94410ACF9108952191C21303C0E1
:10160000DF0111971C928E179F07B9F70E94410ABC
:10161000EBCF80E28C0F883068F4C77021E030E0B7
:1016200001C0220FCA95EAF78091EE01822B8093C8
:10163000EE01DFCFEBE5EC0FE33040F4F0E0E65BEA
:10164000FE4F808190E00E941204D5CFE8E5EC0FB8
:10165000E93150F4F0E0EE0FFF1FE35BFE4F8081B5
:1016600091810E94ED03C7CF83E38C0F833118F67D
:1016700061E08C2F0E943D07BECF1F93CF93DF9375
:10168000182FD0E0C0E0893311F4C0E5D0E0812FFD
:101690000E94E10A209739F4812F0E94A40ADF9169
:1016A000CF911F9108958FE99FE00197F1F700C056
:1016B00000002197EFCF0F931F93CF93DF93C62F97
:1016C000D42F022FFC0182818823A9F060936B0242
:1016D0000E94C70390936A0280936902C77081E0F9
:1016E00001C0880FCA95EAF70E949A0ADF91CF914C
:1016F0001F910F91089580916B02681332C0809101
:10170000690290916A020E94AC03863E910548F5F9
:1017100010E21D0FCD17B9F080E28C0F883040F435
:10172000C77081E001C0880FCA95EAF70E94930A4A
:10173000183048F481E09D2F977001C0880F9A956A
:10174000EAF70E949A0A802F0E943D0B183070F62B
:10175000D77081E001C0880FDA95EAF70E94930AFA
:10176000C5CFC77081E001C0880FCA95EAF7F6CFF0
:10177000B0E0A0E0EEEBFBE00C940022E82FF0E0FC
:10178000E754FE4FD490282F26952695269530E0D5
:10179000F901E755FE4F0491877010E0082E02C052
:1017A000159507950A94E2F701701127F901E7569C
:1017B000FE4FE490F12C082E02C0F594E7940A94B1
:1017C000E2F791E0E922FF24F901E757FE4FC491C7
:1017D000D0E002C0D595C7958A95E2F7C170DD27A4
:1017E0000115110519F081EE0E94E10AE114F104DE
:1017F00019F086EE0E94E10A8D2D0E943D0BE11446
:10180000F10419F086EE0E94A40A0115110519F0E1
:1018100081EE0E94A40ACD2B19F08CE20E943D0BB0
:10182000CDB7DEB7E7E00C941C22909143029230D2
:1018300071F48A3050F490E009966AE070E00E94FA
:101840002C22875A0E943D0B08958650FBCF96EFBD
:10185000980F963020F0805D0E94B80B0895895A49
:10186000FBCF8F929F92AF92BF92EF92FF920F9316
:101870001F93CF93DF934B015C01D09143028CE126
:10188000E82EF12C07E010E021E0D501C4010E2C78
:1018900004C0B695A795979587950A94D2F7C82F57
:1018A000CF70222339F0D43051F4CA3040F080E0B8
:1018B0000E94150C8C2F0E94150C20E005C0C11150
:1018C000F9CF04301105B4F30150110984E0E81A8E
:1018D000F1080F3F1007C9F6DF91CF911F910F91CB
:1018E000FF90EF90BF90AF909F908F900895CF9210
:1018F000DF92EF92FF920F931F93CF938C017B01A6
:101900006C0180EEC81AD108C8010E941508C82FC2
:1019100098E0C916D104D0F40E949A0A802F0E9440
:10192000E10AE114F104A9F4802F0E94A40A88E0DE
:10193000C816D104C0F48C2F0E94930ACF911F9136
:101940000F91FF90EF90DF90CF9008950E94890A49
:10195000E5CF8FE99FE00197F1F700C0000091E02B
:10196000E91AF108DECF8C2F0E947E0AE7CF909112
:10197000210292FB222720F9281779F080FB92F9A7
:1019800090932102609120027091210284E090E006
:101990000E948D2282E00E941207089590E080E06C
:1019A0000E946922873E9E4F19F40E94280A0895DA
:1019B00080E00895CF931092EE01C6E0E4E9F1E0F3
:1019C000DF018C2F1D928A95E9F790E080E00E945C
:1019D000120490E080E00E94ED031092ED010E945D
:1019E000410AEDE3F2E0DF011D92CA95E9F710929A
:1019F000360210923702109238020E943704CF91BB
:101A00000895AAE2B0E0E7E0FDE00C94042281E64C
:101A100092E02091F100DC012D93CD01B2E08936F6
:101A20009B07B9F780916202833009F472C0B8F461
:101A3000813009F449C0823009F4B3C08091E800D4
:101A400083FF8BC280916102909162029A3008F00C
:101A500084C2E92FF0E0E554FD4D0C9440228A3019
:101A600009F48EC08B3009F471C0893039F7809148
:101A70006102813219F780916502909166020097A8
:101A800011F00297D9F68091E800877F8093E800F3
:101A90008091E80082FF38C09091F3008091F200BD
:101AA000029731F48091F100813011F0863021F4F9
:101AB0008091F100809354028091E8008B778093AD
:101AC000E8000E948E02BACF80916102813A09F04B
:101AD000B5CF8091E800877F8093E8008091650210
:101AE00090916602892B61F468E085E592E070E0F0
:101AF0000E943A038091E8008B778093E8009ECFA4
:101B000060E090E080E0F3CF80915F028111C0CF70
:101B100095CF80916102813A09F090CF8091650262
:101B200090916602892B09F089CF8091E800877F28
:101B30008093E8008091E80080FFFCCF8091350120
:101B40008093F1008091E8008E77B9CF8091610297
:101B5000813209F073CF8091650290916602892BE2
:101B600009F06CCF8091E800877F8093E8000E94A5
:101B70008E0280916302809335010E94DA0C5ECF61
:101B800080916102813209F059CF8091E800877F0E
:101B90008093E8000E948E02809164028093530239
:101BA0004DCF80916102813A09F048CF8091E800E1
:101BB000877F8093E8008091E80080FFFCCF8091D0
:101BC0005302BECF803899F0823809F0C6C18091A7
:101BD00065028F70873008F0C0C18093E900809162
:101BE000EB0085FB882780F91092E90006C0809100
:101BF0005D0290915E02911182609091E800977F62
:101C00009093E8008093F1001092F1008091E80039
:101C10008E779FC1882309F48DC1823009F09DC160
:101C200080916302811190C1809165028F702FEFC6
:101C3000280F263008F091C18093E9002091EB0035
:101C400020FF82C1933031F48091EB008062809359
:101C5000EB007AC19091EB0090619093EB0021E052
:101C600030E001C0220F8A95EAF72093EA00109233
:101C7000EA008091EB008860EACF81116EC110917B
:101C800063021F778091E3008078812B8093E300CB
:101C90008091E800877F8093E8000E948E02809107
:101CA000E80080FFFCCF8091E30080688093E30030
:101CB00082E0111183E080935F024FC1805882302F
:101CC00008F04BC120916302309164022C3DE3E0A7
:101CD0003E07A1F583E08A838AE289834FB7F894AF
:101CE000DE01139620E03EE051E2E32FF0E0509356
:101CF0005700E49120FF03C0E295EF703F5FEF7063
:101D00008E2F90E0EA30C0F0C7968D939D932F5FA1
:101D1000243159F74FBF8091E800877F8093E80016
:101D20006AE270E0CE0101960E943A038091E800D9
:101D30008B778093E80011C1C096E7CF8091650250
:101D400090916602432F55274330510509F44AC04C
:101D500078F54130510509F47AC08BE590E0E9E768
:101D6000F3E04230510509F0F8C02091E800277FE8
:101D70002093E80020916702309168028217930750
:101D800008F49C0140E02115310509F065C04111BE
:101D900063C08091E80082FDC9CF80915F028823F3
:101DA00029F2853019F28091E80083FFF2CFBECF8F
:101DB0004132510509F43CC04232510509F0CDC011
:101DC0008330910508F0C9C0FC01EE0FFF1FEC57EE
:101DD000FE4F0190F081E02D8F579E4FDC018C91DA
:101DE00090E01AC0332721303105D1F0211531059B
:101DF00061F02230310509F0B0C0E6EEF3E0E49185
:101E00008E2F90E0E6EEF3E007C0ECE0F4E0E49122
:101E10008E2F90E0ECE0F4E0009709F49EC0A5CF8F
:101E2000E2E0F4E0E4918E2F90E0E2E0F4E0F4CF21
:101E30008330910508F091C0880F991FFC01E65787
:101E4000FE4F0190F081E02D89E090E08ECF82E19D
:101E500090E0E4EDF3E089CF80915F02882309F4FC
:101E600065CF853009F462CF8091E80083FD5ECFB5
:101E70008091E80082FD8DCF8091E80080FF83CFC4
:101E80009091F3008091F2002115310519F088300E
:101E9000910550F041E0089709F040E08091E8009A
:101EA0008E778093E8006FCF44914093F100319694
:101EB000215031090196E8CF803809F04EC0809159
:101EC000E800877F8093E800809160028093F100B2
:101ED0009DCE811142C0109163021230F0F58091C5
:101EE000E800877F8093E800109360020E948E02D2
:101EF000112311F084E005C08091E30087FDFACF43
:101F000081E080935F0242E061EC81E00E94AD02DB
:101F100042E261EC84E00E94AD0242E261EC82E0C8
:101F20000E94AD0242E260EC83E00E94AD0280912B
:101F30005F0213C080916302813079F481E09330B5
:101F400009F080E080935E021092E9008091E80041
:101F5000877F8093E8000E948E028091E80083FFD3
:101F60000AC08091E800877F8093E8008091EB00B1
:101F700080628093EB00AA96E3E00C9420220E94FA
:101F8000DA0C2FEF84E39CE0215080409040E1F791
:101F900000C0000088E19AE00FB6F894A8958093FD
:101FA00060000FBE90936000FFCFA8E0B0E0EBEDC3
:101FB000FFE00C94FB217C01DC0113968D919C9138
:101FC0001497892B39F08C9111969C9189238F3F1E
:101FD00009F041C52896ECE00C9417220E94C20932
:101FE000182F682F89819A810E94BF0669817A81A2
:101FF000812F0E94B4098C01F7018281882309F4A2
:102000001EC5C80182509747409708F0FBC48FEF68
:1020100093E00E946122811184C0025056E6C52ED1
:10202000DD24D39401114AC0FE01339686E0DF011E
:102030001D928A95E9F74AE0942E86010F5F1F4FA3
:10204000C6010E94612289831A82882309F469C02B
:10205000813009F079C05601B2E0AB0EB11CC80165
:102060000E9461228A83882309F45BC09FEF980F46
:10207000933090F5E3E0CE0ED11CC5010E946122A1
:102080008B83882309F44DC01C828E010F5F1F4F84
:10209000D8018C91882389F2813009F08EC0119685
:1020A0009C91119712968C91913009F04FC00E5F60
:1020B0001F4F0E943D0B0F5F1F4FEACFC114F4E08A
:1020C000DF0679F1C6010E946122811101C0015031
:1020D0002FEFC21AD20AA6CF65018430B1F602E012
:1020E00010E06501FFEFCF1ADF0AC5010E946122EF
:1020F000E1E0F0E0EC0FFD1FE00FF11F808388238B
:1021000081F08C3741F4E2E0F0E0EC0FFD1FE00FCE
:10211000F11F1082BACF0F5F1F4F56010730110514
:1021200001F78091E401877009F454CFD70112962A
:102130008C91882309F44ECF8091210282FF4ACFEF
:1021400082E00E94120746CF68019FCF923029F4A7
:102150000E5F1F4F0E94E10AAECF933029F40E5F4D
:102160001F4F0E94A40AA7CF943019F00F5F1F4F92
:10217000A2CF0E5F1F4F30E020E0B8016F5F7F4FAE
:10218000F80141818053990B8A30910558F0215014
:10219000310908F490CF8FE99FE00197F1F700C073
:1021A0000000F5CF929EF001939EF00D11249C014A
:1021B0002E0F3F1F842F8B01E0CF0E94B80B7BCFE7
:1021C00081E00E942E070E94F906ABCF81E00E94B9
:1021D0000507F9CF82E0F5CF06332CE7120709F4A3
:1021E00076C008F472C007338CE7180729F485E03D
:1021F00001C080E00E945409D70112968C91882377
:1022000009F4C7C017FFC5C00E94D50880939B0181
:1022100090914302913029F481FF03C089E30E9429
:102220003D0B8091EE0180939A011092EE01109285
:10223000ED0180914302823009F46CC008F049C07E
:10224000882309F45CC0813009F45DC08FE39CE908
:102250000197F1F700C00000B8017F7790E080E0BF
:102260000E94310C80914302823009F487C008F04B
:102270006AC0882309F473C0813009F474C0809166
:102280009A018093EE01D70112968C91882309F46C
:102290000BC410926B02C8019057839708F0EEC3ED
:1022A00084E090E00E9469229093210280932002B2
:1022B000F801E150F047E232F10508F093C0EB532A
:1022C000FD4D0C94402282E095CF83E093CF84E0D3
:1022D00091CF843099F1853009F0B8CF70E060E09B
:1022E0008BE191E00E94770C70E060E085E290E085
:1022F0000E94770C70E060E088E290E008C082EE17
:102300000E94E10AA3CF70E060E088E193E00E94C0
:10231000770C9CCF80919B0180FD03C083E50E94D8
:102320003D0B82EE0E94E10AEFE3FCE93197F1F701
:1023300000C0000087E50E943D0B88CF86EE0E941A
:102340003D0B88E1F8CF843011F1853009F097CF4B
:1023500070E060E088E290E00E94770C90CF82EE1F
:102360000E94A40A8CCF8CE20E943D0B80919B01BD
:1023700081FF85CF89E30E943D0B81CF82EE0E94D1
:10238000A40A80919B0180FD7ACF83E5F4CF88E297
:10239000F2CFF801E851FC47E730F10508F073CFC0
:1023A000E951FD4D0C94402226E241EE61EEC70159
:1023B0000E945B0BB6CE27E245EE65EEF8CF26E233
:1023C00041EE60EEF4CF27E245EE64EEF0CF26E278
:1023D00041EE62EEECCF27E245EE66EEE8CF28E272
:1023E00041E0EBCF8091200281608093200295C074
:1023F000809121028860809321028FC08091200209
:102400008260F3CF809120028460EFCF8091200220
:102410008860EBCF809121028160EDCF8091210215
:102420008260E9CF809120028061DFCF809120021D
:102430008062DBCF809120028064D7CF0E94DA0CCB
:10244000809120028068D1CF809120028C60CDCF16
:10245000809121028360CFCF809120028E7FC5CFF3
:1024600080912102877FC7CF809120028D7FBDCFD1
:10247000809120028B7FB9CF80912002877FB5CFDA
:10248000809121028E7FB7CF809121028D7FB3CFC3
:10249000809120028F7EA9CF809120028F7DA5CFD1
:1024A000809120028F7BA1CF0E94DA0C80912002C4
:1024B0008F779BCF80912002837F97CF80912102DD
:1024C0008C7F99CF8091200282FB992790F921E09F
:1024D000922790FB82F990FB83F987CF80912102AC
:1024E000982F909591708E7F892B90FB81F983CFE7
:1024F00090912002892F8F7B96FF806476CF0E9477
:10250000DA0C90912002892F97FB87F980586DCFC4
:1025100061E08EE090E00E946F2260912002709155
:10252000210284E090E00E948D220E94DA0CF9CD15
:1025300060E0EFCF90912002892F8F7E94FF806121
:1025400054CF90912002892F8E7F90FF81604DCFD4
:1025500090912102892F877F93FF88604CCF85E37C
:10256000ADC20E94DA0CBFEFE4E3FCE0B150E04002
:10257000F040E1F700C000000E949B036FEF7FEF87
:1025800090E080E00E948D220E94BF0F8091210286
:1025900082FB882780F991E089270E94B70CF70118
:1025A000828100811181882309F446C0C8010E94FC
:1025B000C209D82E682FC8010E94BF06B8018D2D10
:1025C0000E94B4090E94E5048C01882ED70112965E
:1025D000AC90129715969C9092943FE09322809134
:1025E000E4018770C1F0CA2CAA20B1F0812F807F4E
:1025F000803421F080E2800F883068F080912102E1
:1026000082FF09C082E00E9412078091E401877076
:10261000CC24C3948111C12CB12EB2942FE0B222EC
:10262000BBE0BB1508F46DC0EB2DF0E0E251FD4DB1
:102630000C94402280E0B1CFC8010E948B06D82EB6
:10264000BDCFE12FEF70DE2E107F19F0D29490EF06
:10265000D922AA20B9F0DD2069F080E2800F88300D
:1026600010F0811009C08091EE01D82AD092EE01BD
:102670000E94410A802F43C08091ED01D82AD09258
:10268000ED01F6CF802F0E94A40ADD20D1F1005E7B
:10269000083010F0811004C08D2D0E947A0606C00B
:1026A000D0948091ED01D822D092ED010E94410A90
:1026B00028C0F12FFF70DF2E107F103219F0D29456
:1026C00080EFD822882059F021E0821609F467C0F3
:1026D000AA2009F471C0992009F467C0CBCF2091DA
:1026E000210222FD35C0AA2069F1DD2039F0809158
:1026F000EE01D82AD092EE010E94410A80E00E94A9
:10270000E10AEB2DE850FF0B349710F40E94D50836
:10271000CC2009F45FCC8091E40180FD5BCCD70133
:1027200012961C928595859585950E942E07C70166
:102730000E94D50F8091E4018595859585950E942D
:10274000050748CC80E00E94A40ADD20D1F2A4CF86
:10275000AA2099F09091EF018D2D892B911003C043
:102760000E949A0ACECF31E09312FACF22FFC9CF4E
:10277000891739F28093EF01C4CF911006C00E94EF
:1027800074068D2D0E94930ABCCF81E0981609F43F
:10279000B8CF8D2D0E94930A0E947406B2CFAA2052
:1027A00031F095E0991508F4ACCF8D2DD9CFA4E088
:1027B000A91508F4A6CFE5CF992019F3B9E38B1238
:1027C00009C0EFEFF7EE23E0E150F0402040E1F7E1
:1027D00000C00000802F0E94A40A93CF812F86950D
:1027E0008695837061F0813009F08BCFC8019370BA
:1027F000A11002C080E090E00E94ED0382CFC801EA
:102800009370A11002C080E090E00E94120479CF82
:102810006A2D802F0E943D0774CF812F837089F528
:10282000A1106FCF402F429546954770440F440F3B
:10283000802F8F70042E01C0880F0A94EAF7202F92
:10284000207104FF07C02FE030E001C0220F4A953D
:10285000EAF72095169516951370123069F050F42A
:102860003091F001113029F0822B83230E943A0726
:1028700048CF832B822BFACF282B8091F00182271F
:10288000F5CF8695AA2011F0812F8170882309F455
:1028900038CF402F429546954770440F440F802F04
:1028A0008F70042E01C0880F0A94EAF7202F207140
:1028B00004FF07C02FE030E001C0220F4A95EAF77D
:1028C0002095169516951370123069F050F43091DA
:1028D0006C02113029F0822B83230E94F60611CF5F
:1028E000832B822BFACF282B80916C028227F5CF85
:1028F0001F70AA2029F0812F0E942E07802F30CF31
:10290000802F0E94930A812F0E940507FACE802F04
:1029100032EF8316B1F1381570F090EF8916D1F0CF
:10292000A1EF8A1691F0AA2009F45CC09110A2CE02
:10293000812F8F712AC0B3EF8B1651F1E4EF8E1205
:10294000F2CF8091210282FD2FC0812F8F71AA20AA
:10295000D9F21BC0AA2081F0F4E0F91508F4D1CE19
:102960001F7181E090E0012E01C0880F0A94EAF700
:1029700090916C028927B1CF25E0291508F4C1CECA
:10298000EFCF812F8F71A110BFCF0E942E07B9CE3C
:1029900080E0AA2009F4A1CF1F7181E0012E01C0BF
:1029A000880F0A94EAF799CFAA2089F01F71812F26
:1029B0000E942E078091210282FF07C038E0139FFA
:1029C000C001112483608093E401812FDECF81E078
:1029D0000E94120781E0891508F093CE82E00E94E0
:1029E00012078FCE992059F0893309F0F3CE9FEF6B
:1029F000A7EEB3E09150A040B040E1F7E9CE812FBF
:102A00008F7182CF0115B7E71B0709F4D9CB0130CD
:102A1000E7E71E0709F4DECB0433ACE71A0709F435
:102A200052CC08F0D9CB0233ECE71E0709F4E1CB16
:102A30000333FCE71F0709F0DFCB81E0DBCB011597
:102A4000F7E71F0709F4C2CB013027E7120709F0A7
:102A5000D3CB82E0BCCB85E0F701DE01119601907B
:102A60000D928A95E1F7D70112962C9189819A816E
:102A70002111B4CA0E948B06182FB8CA0631BCE7D0
:102A80001B0751F58091EE018A7A91E009F490E0FC
:102A900090939C0169E2811165E382E991E00E94D3
:102AA000D3030E94410A3DCB0631ECE71E0709F033
:102AB00076CD80919C01811152CD89E2E4E9F1E06B
:102AC0002AE931E09191891303C0DF0111971C922B
:102AD0002E173F07B9F7E5CF0330FCE71F0709F4CE
:102AE0004DCD50F401153CE7130709F43ACD013000
:102AF0001C4709F449CD53CD0B359CE7190709F460
:102B000099CD0C35ACE71A0709F440CD0A351C47BE
:102B100009F045CD81E041CD1F93CF93DF938091A4
:102B2000B101807F09F049C08091AE01882309F48A
:102B300044C08091E301D091B2016091AC017091E9
:102B4000AD01A091AF01B091B001C62FC72316E02F
:102B5000D81799F190E0109711F0CF3F19F4019632
:102B60008770F6CF189F9001199F300D1124F9013D
:102B7000ED54FE4F41814713F2CF40814613EFCF12
:102B800042814111ECCF438154814A1B5B0B463E8D
:102B9000510528F78091B1018F7080618093B10158
:102BA000F901E854FE4F80818F70806180838CEA48
:102BB00091E00E94D50F0E948106DF91CF911F9175
:102BC0000895A1E1B0E0E7EEF5E10C94FD218C0160
:102BD00085E0F801DE011D9601900D928A95E1F7DE
:102BE000F801E2808CEAA82E81E0B82E6091AF0156
:102BF0007091B0016115710509F426C19091AC0185
:102C00004091AD01892F84238F3F09F41DC120819C
:102C10003181C380D480F090AE01F601E61BF70B42
:102C2000FF2009F4DCC08091B101582F507FE63EAF
:102C3000F10508F09FC051116BC0FE2C431314C066
:102C4000921312C0E11010C08F7080618093B101A7
:102C5000C5010E94D50F8091B101F80185838F2DA8
:102C60006196EAE00C941922C114D10429F0822F54
:102C700083238F3F09F003C180E0F82FF170DF2E2E
:102C800080FF3CC08091E3014091B20156E0841383
:102C900015C02D873E878D859E850E94F109292FBD
:102CA00022952F702230F0F0243018F59F70F1F04B
:102CB000F8019581907FD1F4D12C1EC090E0589FEF
:102CC000F001599FF00D1124ED54FE4F6181361330
:102CD00006C06081261303C06281E6120FC0019610
:102CE0008770D5CF9F7011F0882331F3805E8830D4
:102CF00018F3C8010E94D50FFD2CB1CFEE2009F4C6
:102D0000AECF8091B10181608093B101F12CA7CF4A
:102D1000431306C0921304C0F801EE2009F479C0F1
:102D2000C8010E94FE09882309F1EE20F9F0809184
:102D3000B101803270F02091AC013091AD01388743
:102D40002F831986DB86CA868C87CE0107960E9460
:102D5000D50F86E0F801ACEAB1E001900D928A95BA
:102D6000E1F70E948C15FF24F39479CFC8010E94EB
:102D7000D50FF9CF51110AC08CEA91E00E94D50F0E
:102D800086E0F50111928A95E9F7C0CF43130FC091
:102D900092130DC0E1100BC0F8018583C8010E9499
:102DA000D50F86E0F50111928A95E9F758CFC80151
:102DB0000E94FE098823D1F2EE20C1F28091B10178
:102DC000803238F22091AC013091AD013A832983F1
:102DD0001B82DD82CC828E83CE010196B8CFE63E87
:102DE000F105F8F6FE2CEE2009F243131FC09213F2
:102DF0001DC08091B10180FD10C0982F907F69F0B7
:102E0000F8018583903F31F0982F907F905F8F700D
:102E1000892B8583C8010E94D50F86E0F801ACEAB2
:102E2000B1E001900D928A95E1F719CFC8010E9497
:102E3000FE0981118ECF8091B10181608093B10133
:102E4000C8010E94D50F0BCFEE2009F48FCFC80127
:102E50000E94FE09F82E882309F488CF86E0F80145
:102E6000ACEAB1E001900D928A95E1F78091AC0156
:102E70009091AD010E94F1090E948C15F0CE81E085
:102E80008E25FBCEA7E1B0E0E8E4F7E10C94042244
:102E90004B8B5C8B6D8B7E8B8F8B61111092ED0158
:102EA0001A8A198A85E0FE017396DE011D9601904B
:102EB0000D928A95E1F786E0FE013D96DE011796B8
:102EC00001900D928A95E1F7CE0107960E94E115D7
:102ED000882359F016E08091E3019091B2018913A3
:102EE00043C06796E3E00C94202286E0FE0137960B
:102EF000DE01119601900D928A95E1F78A859B85F6
:102F0000892B41F38F81988589238F3F19F3209175
:102F1000B20130E0C9010196877099274091E30121
:102F20004817190671F40E94DA0C1092B20110923F
:102F3000E30186E0ECEAF1E0DF011D928A95E9F712
:102F4000C9CF96E0929FD001939FB00D1124AD544C
:102F5000BE4FFE01319601900D929A95E1F7809354
:102F6000B2010E948106B6CF819FC00111248D5409
:102F70009E4F0E94E115882309F4B3CF8091E301AD
:102F800090E00196877099278093E301A4CFA4E095
:102F9000B0E0EDECF7E10C94032240910D0250916A
:102FA0000E0260910F02709110022FB7F894809179
:102FB0004E0290914F02A0915002B09151022FBF4A
:102FC000841B950BA60BB70B11E084369105A10568
:102FD000B10590F10E94B208882399F10E94BB03C9
:102FE0006E5F7F4F8F4F9F4F69837A838B839C8364
:102FF00080911101909112018C5F9D4F40911001C1
:1030000050E04530510510F044E050E0BE016F5FE4
:103010007F4F0E94B02282E090E00E947F21182F13
:10302000882351F00E94BB0360930D0270930E023F
:1030300080930F0290931002812F2496E4E00C9469
:103040001F220E94BB0300911202109113022091D3
:10305000140230911502600F711F821F931FC0CFA1
:10306000EF92FF921F93CF93DF9300D000D00F9287
:10307000CDB7DEB77B0190E080E00E947F21182F62
:10308000882309F487C04091030150E041155105A0
:1030900011F041E050E060910401709105016C5F16
:1030A0007D4FCE0105960E94B022409100025091C2
:1030B000010260910202709103022FB7F89480918F
:1030C0004E0290914F02A0915002B09151022FBF39
:1030D000841B950BA60BB70B84369105A105B10592
:1030E00040F485E092E00E9427029D81891709F44F
:1030F00051C081E090E00E947F2181111AC010E050
:103100008091FC019091FD01A091FE01B091FF0121
:10311000F70180839183A283B383812F0F900F9057
:103120000F900F900F90DF91CF911F91FF90EF9034
:10313000089540910B0150E04530510510F044E0F6
:1031400050E060910C0170910D016C5F7D4FCE01DC
:1031500001960E94B02285E092E00E9427029D81A4
:103160008913CDCF0E94BB036093000270930102CC
:10317000809302029093030289819A81AB81BC8182
:103180008093FC019093FD01A093FE01B093FF0199
:1031900011E0B6CF8091050290910602A09107023E
:1031A000B091080289839A83AB83BC831111E4CF69
:1031B000A7CFACE0B0E0EFEDF8E10C94FE218E017A
:1031C0000F5F1F4F88E0D8011D928A95E9F7F8013B
:1031D00048E151E0BE016B5F7F4F6A01E12CFF24A3
:1031E000F39430E0D6012D916D012F3F91F0822FA5
:1031F00082958F7090E0DC0190968C9190E02F701A
:1032000002C0959587952A95E2F780FD4CC08F2DD9
:10321000E82A3F5FFF0C353029F7E1924B5F5F4FA3
:103220006E177F07D1F648E050E0B80186E192E0E2
:103230000E94A322009741F028E0F801A6E1B2E045
:1032400001900D922A95E1F700911F02892B69F1F7
:1032500081E08093F3010E94C7039093F201809371
:10326000F1018091F1019091F2010E94AC03059768
:1032700000F110E0025D1D4F44E050E066E172E0B5
:10328000C8010E94A322B12C892B51F084E0E6E111
:10329000F2E0D80101900D928A95E1F7BB24B39436
:1032A0001092F30107C080E0B3CF8091F301811148
:1032B000D8CFB12C0E94B208F82EE0911F028823CB
:1032C00009F472C019861A861B861C860E2F10E020
:1032D000025D1D4F809111028A3088F540E358E16C
:1032E000BE01675F7F4FC8010E947F08882309F4F1
:1032F0004AC047EC57E1BE01675F7F4FC8010E949B
:103300007F08882309F43FC01092110280911E02A9
:1033100090E044E050E0BE01675F7F4F825D9D4FCB
:103320000E94A32221E02093FA01892BF1F4F12CD1
:103330001F2D812F8B292C96E9E00C941A22809165
:10334000F4019091F5010E94AC03843F914030F666
:103350008091FA01882359F3FE01399684E0DF0158
:103360001D928A95E9F71092FA01E0911E02F0E0B1
:10337000E25DFD4F89859A85AB85BC85808391830D
:10338000A283B383D5CF809111028F3F31F08F5F3D
:10339000809311028A3008F4B9CF0E94C70390933A
:1033A000F5018093F401D4CFF0E0E25DFD4F84E0BD
:1033B000A5E0B2E001900D928A95E1F785E092E0F8
:1033C0000E94270280930402C0900902D0900A0252
:1033D000E0900B02F0900C028091F6019091F701C1
:1033E000A091F801B091F901C816D906EA06FB06CA
:1033F00011F410E09ECFC092F601D092F701E09256
:10340000F801F092F9010E94B208182F8111F1CF52
:103410000E94BB03C61AD70AE80AF90AC092120230
:10342000D0921302E0921402F092150282CF67EE5E
:103430007EEF90E080E00E948D2260E082E090E0EC
:103440000E946F2260E083E090E00E946F22109261
:10345000F00160E074E184E090E00E948D2260E081
:1034600086E090E00E946F226FEF87E090E00E947C
:103470006F2240E050E0BA0188E090E00E94812293
:1034800060E08DE090E00E946F2240E050E0BA01E1
:1034900088E190E00E94812260E087E190E00E9454
:1034A0006F2240E050E0BA018CE190E00E9481225E
:1034B00070E060E080E290E00E948D2240E050E009
:1034C000BA0188E190E00E94812280E00E945C09BC
:1034D0000E94750940E050E0BA018FE090E00E9440
:1034E000812240E050E0BA0183E190E00E94812215
:1034F00008951F920F920FB60F9211242F933F93AE
:103500004F935F936F937F938F939F93AF93BF93EB
:10351000CF93DF93EF93FF93D091E900DF70809119
:10352000EC00C82FC17080FDC0E81092E9008091C6
:10353000F000877F8093F00078940E94010D109234
:10354000E9008091F00088608093F000CD2BCF706F
:10355000C093E900FF91EF91DF91CF91BF91AF91BF
:103560009F918F917F916F915F914F913F912F919B
:103570000F900FBE0F901F9018951F920F920FB6CD
:103580000F9211242F933F934F935F936F937F93E9
:103590008F939F93AF93BF93EF93FF938091E1003D
:1035A00082FF09C08091E20082FF05C08091E100A6
:1035B0008B7F8093E1008091DA0080FF24C08091AE
:1035C000D80080FF20C08091DA008E7F8093DA00DF
:1035D0008091D90080FF9DC080E189BD82E189BDD5
:1035E00009B400FEFDCF81E080935F02809152021A
:1035F000811109C00E943E020E94DF028091E20018
:1036000084608093E2008091E10080FF17C0809188
:10361000E20080FF13C08091E2008E7F8093E20081
:103620008091E20080618093E2008091D800806206
:103630008093D80019BC85E080935F028091E100FF
:1036400084FF2BC08091E20084FF27C080E189BD08
:1036500082E189BD89B5982F917080FFFBCF809161
:10366000D8008F7D8093D8008091E1008F7E809379
:10367000E1008091E2008F7E8093E2008091E20081
:1036800081608093E20080916002882309F447C042
:1036900084E080935F0280915F028091E10083FF6C
:1036A00027C08091E20083FF23C08091E100877FE3
:1036B0008093E10082E080935F021092600280912B
:1036C000E1008E7F8093E1008091E2008E7F809305
:1036D000E2008091E20080618093E20042E060E0DD
:1036E00080E00E94AD028091F00088608093F0003D
:1036F000FF91EF91BF91AF919F918F917F916F91CA
:103700005F914F913F912F910F900FBE0F901F909F
:10371000189519BC10925F021092520274CF8091DA
:10372000E30087FD93E090935F02B5CF78941F92FA
:103730001FB61F9211248F939F93AF93BF938091D5
:103740004E0290914F02A0915002B0915102019609
:10375000A11DB11D80934E0290934F02A093500281
:10376000B0935102BF91AF919F918F911F901FBE57
:103770001F9018951F921FB61F9211248F939F932D
:10378000AF93BF9380914D02811113C080914E027F
:1037900090914F02A0915002B09151024196A11D0B
:1037A000B11D80934E0290934F02A0935002B093AC
:1037B0005102BF91AF919F918F911F901FBE1F909B
:1037C0001895CDB7DEB7AA970FB6F894DEBF0FBE37
:1037D000CDBF85B7806885BF85B7806885BF84B752
:1037E000877F84BF0FB6F894A895809160008861A8
:1037F00080936000109260000FBE80E890E00FB6EA
:10380000F89480936100909361000FBE80EA94E089
:1038100090939101809390010E943E020E94DF02EA
:103820008091E20084608093E200789480915F024E
:103830008823A1F01091E9001F709091EC00892F6E
:10384000817090FD80E8182B1092E9008091E800CB
:1038500083FD0E94010D1F701093E90082E084BD7A
:1038600093E095BD9AEF97BD80936E00109212027F
:103870001092130210921402109215020E94280A4C
:10388000811102C00E9475090E94CE0C811102C0F4
:103890000E94171A8EE090E00E94612291E081114F
:1038A00001C090E090932C010E94B20881110E9407
:1038B000932080912C01811126C084E1E6E3F1E0A0
:1038C000DE01119601900D928A95E1F7FE01319685
:1038D000A8E1B1E0CE01459620812C93218111967B
:1038E0002C931197228112962C9312972381139671
:1038F0002C931397248114962C9314973596159630
:103900008E179F0749F780912C0194E0811190E078
:1039100090931F0284E0891B80931E0228E131E00E
:1039200061E070E0D90150E040E08D918F3F91F06F
:10393000E82FE295EF70F0E0F1A08F708B0101C0ED
:10394000000F8A95EAF7902F90959F2191A382A16D
:10395000802B82A34F5F5F4F4530510531F72B5FBE
:103960003F4F41E02C323407E9F688E0EEE2F2E026
:10397000DF01282F1D922A95E9F7E6E1F2E0DF0149
:103980001D928A95E9F70E94CE0C811102C00E9417
:10399000171A82E090E00E9461228093240284E062
:1039A00090E00E94692290932102809320020E945D
:1039B000D918EFE3FCE93197F1F700C000000E944D
:1039C000D9188EE090E00E94612224E0811120E06D
:1039D000E22FF0E0E25DFD4F808190E002C095951E
:1039E00087952A95E2F780FF08C06FEF7FEF90E0A0
:1039F00080E00E948D220E949B0383E090E00E9461
:103A000061220E943A078CE090E00E94612290E0DF
:103A1000B0E0A0E08093430290934402A09345025B
:103A2000B09346020E94B208811102C00E94962003
:103A30008DE291E090934A028093490228E1622E40
:103A4000712C36E3E32E32E0F32E4DE2C42E42E039
:103A5000D42E80915F0200E112E1853009F47EC02E
:103A60000E94D91805E212E09EE2A92E92E0B92E3A
:103A7000D501F80191918D91CE16DF0609F478C039
:103A80009817C1F30E94B208282E912CD5018D9071
:103A90005D01F80131908F01381429F13824512C3F
:103AA00044244394832D8421B1F02220A1F05EA20E
:103AB0009FA291E0882D842109F490E098A70E94AC
:103AC000C7038160782F9AA789A74EA15FA168A537
:103AD0008AA50E9442175394440CF5E05F12E2CF8E
:103AE000F80131978082939428E09212CFCF0E9400
:103AF000BB035EC080915F02843011F110924D02D1
:103B0000F0E40FB6F894A895609260000FBEF093B1
:103B1000600083B7817F846083BF83B7816083BF88
:103B20007894889583B78E7F83BF0FB6F894A89555
:103B300080916000886180936000109260000FBEE9
:103B400080915E02882351F00E94D918EEE2F2E0E3
:103B50008191811165C2EE16FF06D1F780915F0257
:103B6000853009F4C7CF0E94DA0C0E94D50878CFBF
:103B7000981388CF0E94C7038C01809122029091F4
:103B8000230208171907A1F08FEF89A38AA31BA2AC
:103B90000E94C7038160782F9DA38CA349A15AA1DD
:103BA0006BA18DA10E944217109323020093220261
:103BB0000E94B20886E0EDE3F2E0DE01119601908A
:103BC0000D928A95E1F710923F02109240021092F6
:103BD0004102109242028B819C81892B09F44AC0D8
:103BE00080913B0290913C020E94AC039C01909119
:103BF0003602992309F438C225313105D8F19F3FA7
:103C000019F09F5F909336021B81112359F00E9497
:103C100080049FEF11160CF491E0899F802D1124F0
:103C200080933F021C81112359F00E9480049FEF72
:103C300011160CF491E0899F802D1124809340028D
:103C400030913F023323B1F020914002222391F0C2
:103C500045EB3403C0011124992309F4AEC09093BD
:103C60003F0245EB240390011124332309F4A9C03A
:103C7000309340028D819E81892B09F44AC0809146
:103C8000390290913A020E94AC039C019091370254
:103C9000992309F4E4C121353105D8F19F3F19F08A
:103CA0009F5F909337021D81112359F00E945E049B
:103CB0009FEF11160CF491E0899F802D11248093C1
:103CC00041021E81112359F00E945E049FEF1116DC
:103CD0000CF491E0899F802D112480934202309151
:103CE00041023323B1F020914202222391F045EBAF
:103CF0003403C0011124992309F467C09093410251
:103D000045EB240390011124332309F462C030935E
:103D1000420246E050E0BE016F5F7F4F8DE392E0CC
:103D20000E94A322892B61F480913F02909140026E
:103D3000892B90914102892B90914202892B11F09D
:103D40000E94370486E0FE013196ADE3B2E00190B7
:103D50000D928A95E1F70E94D50890912D0289175E
:103D600021F080932D020E94BB0380915F0284307A
:103D700009F06FCE83E08093E9008091E80082FF34
:103D800068CE8091E80090E085FF05C00E945D024A
:103D9000882319F191E08091E8008B778093E80007
:103DA000992309F456CEE981E150E33108F03EC091
:103DB000F0E0E650FD4D0C94402281E080933F02FC
:103DC00050CF81E08093400255CF81E08093410243
:103DD00097CF81E0809342029CCF80E2A82EB12C45
:103DE0008E010F5F1F4F8091E80085FD0AC0809112
:103DF000E8008B778093E8000E945D02882399F3A6
:103E0000C9CF8091F100D8018D938D01B1E0AB1A3B
:103E1000B10849F7BFCF1A828BE08B831BC08A8120
:103E2000823009F413C128F4813061F08FEF898367
:103E300011C08330C1F08430C9F71B821C821D82FF
:103E40001E8208C00E94BB030E9446226B837C83B3
:103E50008D839E8340E250E0BE016F5F7F4F82E022
:103E60000E942208F6CD80912E028B8380912F0232
:103E70008C83809130028D83809131028E8380917A
:103E800032028F8380913302888780913402898740
:103E9000809135028A87DECF8A81823019F08530A1
:103EA000C9F2C4CF6B817C818D819E810E944622A4
:103EB00085E290E00E946F22CDCF4C816B818A8198
:103EC0000E9485099827892798279E838D83C2CFD2
:103ED0002D813E813227232732274C816B818A81B5
:103EE0000E94F608B7CF0E941C09B4CF80E18A83F4
:103EF000B1CF82E08A838AE990CF0A811B811027A3
:103F000001271027FE0131965F018C80CF01880DBB
:103F1000911D4C01C8018A599E4FA814B90409F497
:103F200099CF0A39A2E01A0750F40E946122F501E4
:103F300084830F5F1F4FBFEFAB1ABB0AEBCFD501D6
:103F400014961C92F6CF0A811B8110270127102797
:103F5000FE0131964F01AC80A00EB12EB11CC801FC
:103F60008A599E4F0A151B0509F474CF0A39F2E0ED
:103F70001F0728F4D40114966C910E946F22BFEFA2
:103F80008B1A9B0A0F5F1F4FEACF0E94E60862CF91
:103F900084E0ADCF0A811B81102701271027FE0185
:103FA00031965F018C80CF01880D911D4C01C801B5
:103FB0008696A814B90409F44DCF0034A1E01A077D
:103FC00050F40E946122F50184830F5F1F4FBFEF01
:103FD000AB1ABB0AECCFD50114961C92F6CF0A811E
:103FE0001B81102701271027FE0131964F01AC805D
:103FF000A00EB12EB11CC8018696A016B10609F418
:1040000029CF0034F1E01F0728F4D40114966C91F5
:104010000E946F22BFEF8B1A9B0A0F5F1F4FEBCFDF
:1040200009BD19BD09B400FEFDCF8091D8008F7D78
:104030008093D8008091E00082608093E0008091BE
:10404000E00081FDFCCF0E94DA0C88CD85E290E093
:104050000E9461221B821C821D828E83FBCE2B302C
:10406000310508F01DCE55CE2B30310508F0C9CDF5
:1040700001CE8EE14A9B02C08150E1F74A9BFECF00
:1040800008955A9880E28A95F1F75A9A0895FC01AA
:104090003BE03A95F1F798E020E080E031E040E144
:1040A0004A95F1F7880F4A9B02C08160232742E0BE
:1040B0004A95F1F7000040E14A95F1F7915079F700
:1040C00090E19A95F1F799B132E03A95F1F7000055
:1040D00040E14A95F1F792FB992790F992272081C8
:1040E000920F90830895A1E0B0E0E9E7F0E20C942C
:1040F000012219828C017C01E60EF11C0E151F05B0
:1041000041F481E09981911180E02196E6E00C94E0
:104110001D220E943920CE0101960E944720F801FD
:1041200081938F01EBCF529A5A9A089552985A9AD6
:10413000EA9AE9E6F0E080818F7C808308956150FF
:10414000770B91E001C0990F6A95EAF720E031E022
:10415000911108C0222391F05A9A80E28A95F1F7D2
:104160005A980895492F482339F05A9A232740E254
:104170004A95F1F79695ECCF5A98F9CF5A98EDCF2A
:10418000FF920F931F93CF93DF93EC018C01060FE7
:10419000111DC017D10729F4CDB7DEB7E5E00C94A7
:1041A0001E22F9900E94412068E08F2D0E949F20DE
:1041B000F0CF1F920F920FB60F9211240F931F93FF
:1041C0002F933F934F935F936F937F938F939F931F
:1041D000AF93BF93EF93FF93CF93DF930F92CDB73E
:1041E000DEB719820E943920CE0101960E94472035
:1041F000082F069506950695282F22952570902F55
:104200009570290F922F937026952695920F9827D7
:1042100097708981982B09F05CC0043008F059C070
:1042200080E18A95F1F75A9A529A82E08A95F1F7DD
:1042300000C05A9888E0089F80011124D801A0503E
:10424000BF4F1696ED91FC9117973097A9F06091AA
:104250007F017091800114962D913C911597260F46
:10426000371F11968D919C911297680F791F1396A5
:104270004C9113978C910995F801E050FF4F6381A1
:10428000662351F020917F013091800184819581D6
:10429000820F931F0E94C0200E94412080E18A95D6
:1042A000F1F75A9852985A9A80E18A95F1F7F801F5
:1042B000E050FF4F6081662351F020917F013091E3
:1042C000800181819281820F931F0E9473200E943E
:1042D00039200F90DF91CF91FF91EF91BF91AF9176
:1042E0009F918F917F916F915F914F913F912F910E
:1042F0001F910F910F900FBE0F901F9018950F9365
:104300001F93CF93DF93EC0104970CF04CC0F8940B
:10431000529A5A9885E08A95F1F700009C2F96955D
:1043200095708C2F8570980F892F83709695969530
:1043300023E0CC0FDD1F2A95E1F7980F8E01092BA2
:104340000E94412000C068E0802F0E949F2080E1F1
:104350008A95F1F752985A9A4A9B1EC087E090E0DE
:104360004A991CC0FE01E050FF4F63816623F9F0BB
:1043700020917F013091800184819581820F931F6C
:104380000E947320811113C0529A5A9A7894DF9137
:10439000CF911F910F91089500C0DECF019729F4AE
:1043A000529A5A9A789480E0F2CF00C0D9CF0E94F6
:1043B000392080E28A95F1F75A98529A80E18A95DD
:1043C000F1F7C050DF4F6881662351F020917F01E3
:1043D0003091800189819A81820F931F0E94C020B1
:1043E0000E944120789481E0D2CF2F923F924F9249
:1043F0005F926F927F928F929F92AF92BF92CF9275
:10440000DF92EF92FF920F931F93CF93DF93CDB77D
:10441000DEB7CA1BDB0B0FB6F894DEBF0FBECDBFF5
:1044200009942A88398848885F846E847D848C84C6
:104430009B84AA84B984C884DF80EE80FD800C81CF
:104440001B81AA81B981CE0FD11D0FB6F894DEBFB2
:104450000FBECDBFED01089597FB072E16F4009413
:1044600007D077FD09D00E944D2207FC05D03EF40D
:10447000909581959F4F0895709561957F4F089510
:10448000EE0FFF1F0590F491E02D09946927962700
:1044900069277827872778270895AA1BBB1B51E136
:1044A00007C0AA1FBB1FA617B70710F0A61BB70BA4
:1044B000881F991F5A95A9F780959095BC01CD0149
:1044C0000895F999FECF92BD81BDF89A992780B5DC
:1044D0000895A8E1B0E042E050E00C949522262F28
:1044E000F999FECF92BD81BDF89A019700B40216EA
:1044F00039F01FBA20BD0FB6F894FA9AF99A0FBE98
:1045000008950396272F0E9470220E946F22252F64
:104510000E947022242F0C9470220196272F0E9453
:1045200070220C946F22DC01CB01FC01F999FECFC3
:1045300006C0F2BDE1BDF89A319600B40D9241502B
:104540005040B8F70895FB01DC0104C08D91019043
:10455000801921F441505040C8F7881B990B0895E9
:10456000FB01DC0102C001900D9241505040D8F790
:104570000895F894FFCFE20D0A0EAD0F0A0EAD0FAD
:104580003D0E5E0EAD0F5C0F690F2C12A11234129E
:10459000FE110212381206123C12481212129A121E
:1045A00016124C121A12501278121E1254127F1246
:1045B00024125A1262120A1240120E1244122812C7
:1045C0005E126E1288129812F8113012A812DF11C2
:1045D000E311D411DB11E711EB11EF1121132113BA
:1045E00059135913EE130814811381130D14781401
:1045F000871487140B1F0F1F4C1F5D1F681F731F2D
:10460000161F161F161F161F161F761F791F7D1FD8
:0A461000A31FC51FC81FCA1FEF1F1C
:10461A00000000010000000000000004010000008A
:10462A00040500000000000097F7F6F5F431333274
:10463A00369391909466C63534FFFFFF0198036B59
:10464A000864085D0801F4F5F6F79791933233315F
:10465A0034C66635903694FFFFFF818283E200E913
:10466A0000EA00B500B600B700CD008301CC008A8D
:10467A000192019401210223022402250226022723
:10468A00022A02B300B4006F0070009F01CB01043C
:10469A000240227B49012701AC008B03A403C40317
:00000001FF
