:100000000C9414020C944C020C944C020C9419267F
:100010000C944C020C944C020C944C020C944C0228
:100020000C944C020C944C020C94452B0C94172C01
:100030000C9484240C944C020C944C020C944C02AE
:100040000C944C020C944C020C944C020C944C02F8
:100050000C944C020C9429250C944C020C944C02E8
:100060000C944C020C944C020C944C020C944C02D8
:100070000C944C020C944C020C944C020C944C02C8
:100080000C944C020C944C020C944C020C944C02B8
:100090000C944C020C944C020C944C020C944C02A8
:1000A0000C944C020C944C020C944C02200620063A
:1000B0004C064C06AD06CB06BA07BA07D006460773
:1000C0005707570736163B16401642164416461673
:1000D00048164A161C1E8E1E241EEE1DF21D281EDA
:1000E000F51D2B1E361E001E841E041E3A1E081E01
:1000F0003E1E681E0C1E421E721E121E481E521EFE
:10010000F91D2F1EFC1D321E171E4D1E5E1E7E1E6B
:10011000801EEA1D201E971EFC220223F022F622DA
:1001200008230E2314237F2CA62C9E2DA62C9E2D57
:10013000F22C152D9E2D6C2D7B2D14001A0008001D
:100140001500170004001600070009000A001D0032
:100150001B000600190005002B412A0000000000CA
:1001600000001C0018000C00120013000B000D0012
:100170000E000F0034001100100036003700283246
:100180002C2128420000000000003A003B003C0007
:100190003D0001003E003F004000410028134200A6
:1001A0004300440045000F0801000100000000006A
:1001B000000035004C05167C2B002A005000510031
:1001C00052004F0033004A004E004B004D003800F3
:1001D000010001000000000000001E001F002000C0
:1001E0003E004600210022002300010019132400D4
:1001F0002500260027005113010001000000000027
:1002000000002302240225022602270201002D00FD
:100210002E002F0030000100320064000100007C3D
:10022000E30001000000000000001B0006000000C9
:100230001300340000000E000F00000036003700ED
:10024000000000000000000000002A2B2800000031
:100250000000000000000000000000000029000075
:1002600000002C1E3420212224342627252E362D52
:100270003738271E1F202122232425263333362EEC
:1002800037381F0405060708090A0B0C0D0E0F105E
:100290001112131415161718191A1B1C1D2F3130A3
:1002A000232D350405060708090A0B0C0D0E0F1047
:1002B0001112131415161718191A1B1C1D2F313083
:1002C000354C0000000000000000000000000000AD
:1002D000000000000000000000000000000000001E
:1002E0000000000000007E0F00D4FFFFFFC70000E9
:1002F00000781A03460065007200720069007300FE
:10030000200073007700650065007000000008039E
:1003100044005000420000000403090409023B00AD
:10032000020100A0FA0904000001030101000921F3
:10033000110100012244000705810308000109049E
:1003400001000103000000092111010001227B00CE
:10035000070582032000011201000200000008AB23
:10036000C2393901000102000105010902A101851C
:10037000020901A1000509190129081500250195A7
:1003800008750181020501093009311581257F9524
:10039000027508810609381581257F950175088148
:1003A00006050C0A38021581257F9501750881061E
:1003B000C0C005010980A101850319012AB70015F4
:1003C0000126B700950175108100C0050C0901A137
:1003D00001850419012AA002150126A002950175C4
:1003E000108100C005010906A101050719E029E7F0
:1003F0001500250195087501810295017508810197
:100400000507190029FF150026FF009506750881CC
:1004100000050819012905150025019505750191AB
:1004200002950175039101C011241FBECFEFDAE0E0
:10043000DEBFCDBF04B603FE18C08091A503909126
:10044000A603A091A703B091A8038730904BA740C3
:10045000B04B59F41092A5031092A6031092A70373
:100460001092A803E0E0F8E3099511E0A0E0B1E004
:10047000EEE9FDE502C005900D92AC3EB107D9F75B
:1004800023E0ACEEB1E001C01D92A53AB207E1F75E
:100490000E94FF150C94CD2E0C9400008330B0F414
:1004A0006830A0F4453090F498E2899FF00111245F
:1004B00085E0689FE00DF11D1124E40FF11DEE0FA2
:1004C000FF1FE65CFE4F85919491089581E090E0D6
:1004D00008950E944E02089584E090E0089527E078
:1004E000AC01249FC001259F900D112480509F4F87
:1004F00008959C013A9521153F4130F5BC016627CE
:100500007270AC01442754709C012227387094FF0C
:100510000FC090FF02C080E101C080E0672B09F0AE
:100520008062452B09F08064232B79F08068089560
:10053000892F8170672B09F08260452B09F0846058
:10054000232B19F08860089580E00895CF93DF93FE
:10055000EB010E947902FE010995DF91CF91089588
:10056000CF93DF93EC01805E9109089710F02097FC
:1005700019F461ED75E002C06CE178E0CE010E94F3
:10058000A6028C2F0E943205DF91CF910895CF9360
:10059000DF93EC010E947C05CE01805E91090897F3
:1005A00010F0209719F468ED75E002C063E278E07E
:1005B000CE010E94A602DF91CF9108950F931F9361
:1005C000CF93DF938C01EB010E94B002209741F0A2
:1005D0008FE99FE00197F1F700C000002197F6CF67
:1005E000C8010E94C702DF91CF911F910F9108951A
:1005F0008933910519F060E070E002C060E570E0B9
:100600000E94DE02089581E0089581E008950E942D
:10061000050308950E94070308950E9405030895A5
:1006200008950E9410030895A6E0B0E0EAE1F3E027
:100630000C94292E49835A839E833091FA01898133
:100640009A81311115C03E81332359F0222349F09C
:100650000E949409182F682F89819A810E9470093D
:1006600003C00E948209182F69817A81812F04C0FA
:100670000E94940969817A810E9404112696E3E020
:100680000C94452EFC0187819085009749F4262F14
:100690004081518162817381848195810E9414031C
:1006A00008950F931F93CF93DF93EC0161E00E94B5
:1006B00042038C01BE010E940A03882329F0BE0177
:1006C000C8010E94CC1B02C080E090E08170DF91E5
:1006D000CF911F910F910895CF93DF93EC0160E0CC
:1006E0000E944203BE010E941103DF91CF91089541
:1006F00081E008950E9478030895CF93C82F0E9447
:1007000040088C2F0E947A032FEF84E39CE0215055
:1007100080409040E1F700C00000CF91089581E053
:100720000E947D030E944F25089580E00E947D0372
:100730000E94732508950F931F93CF93DF938C012D
:1007400061E00E944203EC01B8010E940D0388237E
:1007500009F450C0B801CE010E941F16882309F485
:1007600049C0B801CE010E940419882309F442C08F
:10077000B801CE010E94E4228823E1F1B801CE0144
:100780000E94C61D8823B1F1B801CE010E949C1DB4
:10079000882381F1F8018581882341F1C3308CE7FA
:1007A000D807D1F040F4C115FCE7DF0791F0C13064
:1007B000DC47A1F01BC0CB35ECE7DE07A9F0CC3558
:1007C000FCE7DF0771F0CA35DC4781F40E942C0E8C
:1007D0000DC00E948F030EC00E94340E0E9495032C
:1007E00009C00E94220E02C00E94300EC8010E9461
:1007F000030301C080E0DF91CF911F910F91089515
:100800000E945D240E94C80408950E94CC040E94A6
:10081000662408952F923F924F925F926F927F923B
:100820008F929F92AF92BF92CF92DF92EF92FF9200
:100830000F93CF93DF931C0129013A017B0181E0E3
:10084000E81AF108E101CE0DDF1D1882C12CD12C70
:100850008AE0882E912CA12CB12CCE14DF0408F54F
:10086000C301B201A50194010E94F22D605D6033C5
:1008700019F4C114D10439F0411451046104710414
:1008800019F4602F01C060E36A93C301B201A501AE
:1008900094010E94F22D29013A018FEFC81AD80A5B
:1008A000DCCFC101DF91CF910F91FF90EF90DF90EE
:1008B000CF90BF90AF909F908F907F906F905F9000
:1008C0004F903F902F9008950F9320911C013091ED
:1008D0001D012817390721F42091F401261789F00A
:1008E000062F90931D0180931C016093F4019C01DD
:1008F00040E050E066E070E08EEE91E00E940A0475
:1009000002C08EEE91E00F910895292F3327211513
:10091000310519F0C90148E001C040E09C0164E0E4
:10092000369527956A95E1F72115310511F04C5F51
:10093000C9019C01369527953695279521153105D6
:1009400011F04E5FC9019C0136952795232B09F0C4
:100950004F5F842F0895089581E008950895CF93FF
:10096000DF93D82F0E94AC04C82F882319F08D2F55
:100970000E94AE048C2FDF91CF9108950895CF93FC
:10098000C82F0E94AB048C2F0E94AF04CF91089512
:1009900080E00E94BF0408950E942C230E94BF049F
:1009A0000895CF930E942C23C82F8091F501C8177A
:1009B00079F0C093F5010E94F2246093F6017093E0
:1009C000F7018093F8019093F9018C2F0E94BF04E6
:1009D000CF910895AFE0B0E0E0EFF4E00C94282E62
:1009E0004A875B876C877D878E879F8791110E94DE
:1009F0004E0DCE01019629E0FC0111922A95E9F7EE
:100A000026E0FE013A96DC0101900D922A95E1F76D
:100A10002D8121110CC009811A812B813C814D81CE
:100A20005E816F81788589850E948D0C04C00E944B
:100A300051038111F0CF2F96E4E00C94442EFC0179
:100A40002481213021F4808191810E94C60908957A
:100A5000662319F00E94361F02C00E94A71F0E9441
:100A60001E200895CF93882309F444C0C82F8CEF2B
:100A70008C0F813A70F48C2F0E94B523882329F0C3
:100A80008C2F0E94F8230E94C00D8C2F0E94F0230F
:100A90000CC080E28C0F883058F4C77081E001C030
:100AA000880FCA95EAF70E942E0D0E94C00D22C041
:100AB000EBE5EC0FE33040F4F0E0E255FE4F8081CF
:100AC00090E00E945C2316C0E8E5EC0FEB3150F497
:100AD000F0E0EE0FFF1FE858FE4F808191810E94E9
:100AE000812308C083E38C0F833120F461E08C2FD5
:100AF0000E942805CF910895882381F19CEF980FDB
:100B0000913A18F40E94F8230DC090E2980F9830A3
:100B100060F4877091E001C0990F8A95EAF7892FF8
:100B20000E94340D0E94C00D08959BE5980F9330EC
:100B300028F480E090E00E945C23089598E5980FE7
:100B40009B3128F480E090E00E948123089593E394
:100B5000980F933118F460E00E94280508951F93C0
:100B6000CF93DF93182FEB010E943205209741F0BD
:100B70008FE99FE00197F1F700C000002197F6CFC1
:100B8000812F0E947C05DF91CF911F9108958933B9
:100B900019F060E070E002C060E570E00E94AF050F
:100BA0000895882321F00E942E0D0E94C00D089503
:100BB000882321F00E94340D0E94C00D0895A0E00A
:100BC000B0E0E5EEF5E00C94242E7C01162FC72F43
:100BD000FC01D581068102950F700E94240D8823A7
:100BE000F9F0DD23E9F08C2F807F803461F080E222
:100BF000810F8830A8F08C2F807E803221F4123053
:100C000078F0002369F080917A0382FF09C082E0C6
:100C10000E94F60D0E94240D91E0D82ED92601C025
:100C2000D12CCC2EC2948FE0C8228C2D90E08C3039
:100C3000910508F09FC1FC01EA5AFF4F0C94142E55
:100C40008C2F807FCF70882311F0C295C07FDD2369
:100C500099F0CC2309F47AC180E2810F883010F03A
:100C6000111104C08C2F0E942E0D03C08C2F0E94E6
:100C7000410D0E94C00D6AC1812F0E947C05CC23CA
:100C800009F478C180E2810F883038F1112329F10D
:100C90008C2F0E94470D24C08C2F807FCF70803214
:100CA00011F0C295C07F112319F0113099F13CC0A9
:100CB00080917A0382FD17C0DD2349F0CC2329F00F
:100CC0008C2F0E942E0D0E94C00D80E040C180E05C
:100CD0000E947C05CC2309F44DC18C2F0E94340D59
:100CE0000E94C00D47C1DD2349F0002309F1013006
:100CF00009F040C18C2F0E945B0D3CC101113AC12B
:100D00008C2F0E94D8058C2F0E94670D8C2F0E947B
:100D1000C90D30C1DD2321F0063008F02BC108C019
:100D2000053008F027C115C0DD2331F001110EC1D7
:100D30008C2F0E94D1051EC1002359F0193309F0F0
:100D400016C1FFEF27EE83E0F15020408040E1F72D
:100D50000CC18C2F0E94D8050DC18C2F86958695CD
:100D6000837019F0813061F005C1DD2321F0812FFE
:100D70009C2F937002C080E090E00E945C2302C12F
:100D8000DD2321F0812F9C2F937002C080E090E042
:100D90000E948123F7C06D2F812F0E942805F2C089
:100DA0008C2F8370B1F5D111E9C0412F4295469542
:100DB0004770440F440F812F8F7090E09C01042EE8
:100DC00002C0220F331F0A94E2F714FF0AC08FE01B
:100DD00090E002C0880F991F4A95E2F780959095A0
:100DE00002C080E090E0C695C695C370822B932B1D
:100DF000C23049F058F4C13019F00E94A308BEC0B7
:100E00000E949A08BBC00E94AC08B8C00E94970814
:100E1000B5C0DD2319F08C2F817001C08695882321
:100E200009F4ACC0412F429546954770440F440FDA
:100E3000812F8F7090E09C01042E02C0220F331F7F
:100E40000A94E2F714FF0AC08FE090E002C0880F16
:100E5000991F4A95E2F78095909502C080E090E056
:100E6000C695C695C370822B932BC23049F058F4B7
:100E7000C13019F00E940B0981C00E9402097EC096
:100E80000E9414097BC00E94B80878C0CF70DD238F
:100E900039F08C2F0E94D008812F0E94D1056EC09E
:100EA000812F0E94D8058C2F0E94E00867C0123F56
:100EB00021F128F4103F41F0113FC1F043C0133F2E
:100EC00019F1143F79F03EC0DD2341F0053008F000
:100ED00051C08C2F8F710E94F2084CC0063008F070
:100EE00049C0F7CF80917A0382FD18C0DD2339F025
:100EF0008C2F8F710E94D0083DC0DD23C9F38C2F49
:100F00008F710E94E00836C0DD2329F08C2F8F718D
:100F10000E94C4082FC00E94BF082CC0DD2349F0E6
:100F2000CF718C2F0E94D00863E08C2F0E94D80DC7
:100F300021C081E00E94F60D0230E0F082E00E94C4
:100F4000F60D18C0DD2331F0002391F2812F0E94AD
:100F5000320510C0002399F2193349F49FEFE7EEF0
:100F6000F3E09150E040F040E1F700C00000812F35
:100F70000E947C0588EF8C0D843020F40E942C2385
:100F80000E94BF04DD2089F00E94200D80FD0DC06D
:100F9000F70115820E941A0D0E94D008C7010E9415
:100FA000F9070E941A0D0E94E008CDB7DEB7E8E00D
:100FB0000C94402E0F931F93CF93DF93EC018F81FE
:100FC0009885009719F00E94E70F05C06881798124
:100FD0008D810E94D1098C010E941D090E94880800
:100FE000B801CE010E94DF05DF91CF911F910F91D3
:100FF0000895CF93DF93FC0124812223D1F0EC01EB
:101000000E949B0381110FC00E94240D882389F048
:101010008D81882371F080917A0382FF0AC082E07B
:101020000E94F60D06C0CE010E94DA07CE010E9492
:101030006C03DF91CF910895882321F00E94410D28
:101040000E94C00D0895882321F00E94470D0E9440
:10105000C00D089580E090E00E945C2380E090E065
:101060000E9481230E944E0D0E94C00D0E943D20CF
:101070000E941E2008950E9400240E942A080895BC
:101080000E943E0D0E943B08089592959F709630F5
:1010900079F010F4925001C09A50923068F4803F79
:1010A00069F018F4883E40F409C0843F29F406C072
:1010B000883E20F0813F11F080E0089581E008959E
:1010C000FC012481222371F087819085009719F01B
:1010D0000E94E70F04C0808191810E94C6090E948E
:1010E0004508089580E00895A6E0B0E0EAE7F8E05A
:1010F0000C942A2E2696E2E00C94462EA9E0B0E04D
:10110000E4E8F8E00C94282E2996E4E00C94442EB0
:10111000089508950E94890808950E948A080895F4
:101120000E948D08909312028093110208950E94EC
:10113000900808952091110230911202822B932B76
:101140000E9490080895209111023091120282238A
:1011500093230E9490080895209111023091120269
:10116000822793270E94900808950E948908089575
:101170000E94B5089093100280930F02089580E0BA
:1011800090E00E94B808089521E030E0A90102C073
:10119000440F551F8A95E2F7CA010E94B8080895C6
:1011A00021E030E002C0220F331F8A95E2F78091E0
:1011B0000F0290911002822B932B0E94B808089581
:1011C00021E030E002C0220F331F8A95E2F720951C
:1011D000309580910F0290911002822393230E94F8
:1011E000B808089521E030E002C0220F331F8A952D
:1011F000E2F780910F0290911002822793270E94BC
:10120000B808089520910F0230911002822B932B81
:101210000E94B808089520910F0230911002822395
:1012200093230E94B808089520910F023091100274
:10123000822793270E94B80808950895962F9770E3
:10124000A1E001C0AA0F9A95EAF793E07695679519
:101250009A95E1F7660F771F660F771FFA01E60F81
:10126000F71F40E050E0682F70E090819B01042E52
:1012700002C0369527950A94E2F721702195292717
:101280002A23292721934F5F5F4F4430510569F787
:101290000895FB01782F777023E0969587952A951E
:1012A000E1F7880F991F880F991FE80FF91F40E099
:1012B00050E080E0219130E0072E02C0369527955E
:1012C0000A94E2F721703327042E01C0220F0A94FA
:1012D000EAF7822B4F5F5F4F4430510559F708956D
:1012E000282F983070F4853060F4862F622F70E0DC
:1012F00025E0929F600D711D11244BEF51E00E947B
:101300001E090895983070F4853060F4292F90E01C
:101310006BEF71E035E0239F800D911D11240E9439
:101320004909089580E00895A0E0B0E0EAE9F9E015
:101330000C94232E7C0100910F02109110028091D9
:10134000110290911202082B192BCFE0D0E0CC248F
:10135000C394D12CC6010C2E02C0880F991F0A9489
:10136000E2F780239123892B21F4219798F7B12C60
:1013700007C0BC2EB7018C2F0E9410110197A9F352
:101380008B2DCDB7DEB7E9E00C943F2ECF93DF93E2
:10139000EC010E949409BE010E941011DF91CF91CF
:1013A00008951F93CF93DF93EB019091FA01992356
:1013B00021F0CB010E94C60913C0882349F0CB015C
:1013C0000E949409182F682FCE010E94700904C052
:1013D000CB010E948209182FBE01812F0E9410119B
:1013E000DF91CF911F910895FF920F931F93CF9399
:1013F000DF93C091130289E0F82E80911402C81780
:10140000B1F0D0E0FC9EF001FD9EF00D1124EB5EEA
:10141000FD4F008111812281338144815581668194
:10142000778180850E947E082196C770E6CFCDB770
:10143000DEB7E5E00C94432E0F931F9300915D02FD
:1014400010915E0220915F02309160024091610232
:101450005091620260916302709164028091650212
:101460000E947E081F910F910895CF93DF93809182
:10147000630282958F7009F04EC0809162028823CA
:1014800009F449C0809113024091140250915E0208
:1014900060915D02C0915F02D091600279E0841793
:1014A000D1F190E0789FF001799FF00D1124DF01D8
:1014B000AB5EBD4F14962C911497222349F11196DF
:1014C0002C911197251324C02C91261321C0159619
:1014D0002C91159721111CC012962D913C911397B8
:1014E0002C1B3D0B2436310598F4809163028F70DC
:1014F000806180936302E55EFD4F80818F70806123
:1015000080838DE592E00E94F9070E94F40903C0F0
:1015100001968770C4CFDF91CF9108952091130277
:101520009091140259E02917A9F030E0529FF00180
:10153000539FF00D1124EB5EFD4F7181761306C0B1
:101540007081781303C07581741306C02F5F3F4FFD
:101550002770E9CF80E0089581E00895A8E1B0E028
:10156000E4EBFAE00C94202E8C0186E0F801DE0119
:10157000539601900D928A95E1F7D80114968C91BB
:1015800014971596EC909DE5A92E92E0B92E9091B6
:101590006102911118C0882309F4B8C1EE20D9F175
:1015A000C8010E946008F82E8823A9F189E0F8019B
:1015B000D50101900D928A95E1F7C5010E941F05A2
:1015C0000E94350AA0C1F801C080D180828093803A
:1015D000F090620220915F0230916002A401421BF0
:1015E000530BFF2009F428C14436510508F0C5C04B
:1015F000882309F48DC180916302282F207F909168
:101600005E02222361F09D1509F476C0C8010E9494
:101610006008811183C0C8010E94F90777C19D113C
:101620001FC090915D029C111BC0409164025091BB
:101630006502278130854217530791F4E11010C0ED
:101640008F708061809363020E941C0A8DE592E096
:101650000E94F90780916302D80116968C9317C0F7
:10166000E11044C040E06D2D8C2D0E948E0AE82EC2
:10167000882379F08DE592E00E94F907EDE5F2E02C
:1016800089E0DF011D928A95E9F70E941C0AF12C7E
:101690003FC1CB8ADC8A8B899C890E94C609292F8D
:1016A00022952F70243020F49F70223028F009C03A
:1016B0002A50223080F014C0992349F0811107C0CC
:1016C00013C0992321F0F8019681907F69F0805E24
:1016D000883030F409C0803F38F0815F833020F0DB
:1016E000C8010E94F907EF2CFE2C12C18091630201
:1016F000816080936302CBCF90915D029C1186CF75
:101700004091640250916502D801278130854217CB
:10171000530709F07BCFE11079CFC3C0EE2009F465
:101720007ACF20916302822F82958F7090E002978A
:10173000BCF080915D0290915E029B878A879D86B6
:101740008C86809161028E871F86288B809164022F
:10175000909165029A8B898BCE010A960E94F907B7
:1017600089E0F801ADE5B2E001900D928A95E1F7CC
:101770000E94350A0E941C0AC9C090916302292F59
:10178000207F91F4682D9E8A8D8AA6017E899E2DE8
:101790000E9474088DE592E00E94F90789E0F50146
:1017A00011928A95E9F771CF882309F4B1C080912D
:1017B0005E028D1119C080915D028C1115C040919F
:1017C000640250916502278130854217530761F406
:1017D000E1100AC09683C8010E94F90789E0F5016B
:1017E00011928A95E9F794C0C8010E946008882385
:1017F00009F411CFEE2009F40ECF20916302822F5D
:1018000082958F7090E002970CF4AACF80915D02D0
:1018100090915E029A8389839C828B82809161027F
:101820008D831E822F838091640290916502998737
:101830008887CE01019692CF4436510508F056C0F4
:10184000882309F463C0FE2CEE2009F4E4CE8091D5
:101850005E028D113DC080915D028C1139C02091D6
:10186000640230916502D801878190852817390775
:1018700079F58091630280FD22C082958F70482F98
:1018800050E041155105D9F02091630226834F3075
:10189000510549F08F5F982F9295907F822F8F701E
:1018A000892B16968C93C8010E94F90789E0F801EC
:1018B000ADE5B2E001900D928A95E1F724C089E090
:1018C000F801ADE5B2E001900D928A95E1F720C0F4
:1018D000C8010E946008811143CF8091630281603A
:1018E00080936302C8010E94F90712C0682D9E8A86
:1018F0008D8AA6017E899E2D0E94740889E0F501DB
:1019000011928A95E9F70E941C0A02C0FF24F39401
:101910008F2D6896ECE00C943C2EA2E1B0E0E3E958
:10192000FCE00C94272E0A871B872C873D874E8767
:101930005F87688B798B8A8BCE010A960E94AE0AEC
:10194000882371F04E854423C1F10A851B852C85BF
:101950003D855F85688979898A890E947E082DC0C6
:1019600089E0FE013A96DE01119601900D928A956A
:10197000E1F76E85662309F12091140230E0C90178
:101980000196877099274091130250E084179507BC
:1019900009F43FC06D8399E0929FD001939FB00DF1
:1019A0001124AB5EBD4FFE01319601900D929A95C8
:1019B000E1F7809314020E94F40989E0F82E8091E7
:1019C000130290911402891789F1F89EC001112425
:1019D0008B5E9D4F0E94AE0A882341F1E091130275
:1019E000FE9EF0011124EB5EFD4F008111812281EA
:1019F0003381448155816681778180850E947E088C
:101A00008091130290E001968770992780931302CA
:101A1000D6CF0E9440081092140210921302EDE5F6
:101A2000F2E089E0DF011D928A95E9F76296E5E030
:101A30000C94432E80916E02869586958695089526
:101A400080916E028770089590916E02977081E088
:101A500009F480E0089580917A02089590917A02C5
:101A6000892B80937A020895809590917A02892338
:101A700080937A02089580937A02089510927A02F0
:101A8000089590917902892B809379020895809529
:101A900090917902892380937902089510927902B6
:101AA000089580917002089508950E94540D08953C
:101AB0000E94550D089590917002292F28238217B6
:101AC00029F0982B909370020E94580D08959091E0
:101AD0007002292F282331F080958923809370028A
:101AE0000E94580D089590917A0392FF08C090913A
:101AF0007002981721F0809370020E94580D08958B
:101B000080917002882329F01092700280E00E9478
:101B1000580D08950F931F93CF93DF9300911E01EB
:101B200010911F01C0917A0280917902C82B809197
:101B30007002882331F0C82B0E94A62381110E94D5
:101B4000800DF801C083C0911E01D0911F0148E0B3
:101B500050E066E672E0CE010E94652E892B59F0B6
:101B600088E0FE01A6E6B2E001900D928A95E1F7C9
:101B7000CE010E944323DF91CF911F910F910895D1
:101B80000E948A0D08950E94540D08950E94C30D6D
:101B9000089590916F02292F282331F08095892391
:101BA00080936F020E94C60D08950E94540D0895FF
:101BB00090917A0392FF11C098E0899F90011124BF
:101BC000262B20936E020E94D00880916E0286958B
:101BD000869586950E94D50D08950E94D008089597
:101BE00010926E0280E00E94D50D089590916E02D1
:101BF0008095892380936E02282F277069F49817A7
:101C000059F090917A0392FF07C086958695869544
:101C10000E94E0080E94F00D089590917A0392FBD3
:101C2000222720F9281769F080FB92F990937A0314
:101C30008091790390917A030E94550E82E00E9470
:101C4000F60D089580917A0382FB882780F991E050
:101C500089270E940D0E089581E00E940D0E0895BF
:101C600080E00E940D0E08956FEF7FEF80E090E01E
:101C70000E94B72E089580E090E00E94832E21E01C
:101C8000863E9E4F09F020E0822F089582E090E08A
:101C90000E947B2E089583E090E00E947B2E0895A1
:101CA00084E090E00E94832E0895BC0184E090E0DF
:101CB0000E94B72E0895AB01BC018FE090E00E9416
:101CC000AB2E0895AB01BC0183E190E00E94AB2EE6
:101CD000089560E070E0CB010E94620E089560E01C
:101CE00070E0CB010E945B0E0E94690E0895A8E08F
:101CF000B0E0EDE7FEE00C942A2E66EE7EEF80E089
:101D000090E00E94B72E60E082E090E00E94992E61
:101D100081E090E0909312028093110261E083E0F1
:101D200090E00E94992E60E074E184E090E00E94CF
:101D3000B72E60E086E090E00E94992E60E087E098
:101D400090E00E94992E40E050E0BA0188E090E0D7
:101D50000E94AB2E60E084E290E00E94992E60E049
:101D600087E190E00E94992E60E08CE090E00E9474
:101D7000992E60E08DE090E00E94992E19821A82DF
:101D80001B821C821D821E821F82188648E050E042
:101D900068E170E0CE0101960E94892E40E050E09B
:101DA000BA0180E290E00E94AB2E0E946F0E28964E
:101DB000E2E00C94462E0E94770E0895682F8EE084
:101DC00090E00E94992E0895A6E0B0E0EAEEFEE0D1
:101DD0000C94282E0E94E6248C0180917B02909125
:101DE0007C020817190781F019821A820E94E624E2
:101DF000682F49815A81792F80E090E00E94EA049F
:101E000010937C0200937B022696E4E00C94442E0F
:101E10000E9426126093890270938A0280938B023B
:101E200090938C0260938502709386028093870260
:101E300090938802089581E008950E94FB1308950D
:101E400008950E94200F08950E94200F08950E9477
:101E5000240F08950E94200F08950E942A0F0895CC
:101E60000E94200F089580E492E10E940C160E94C7
:101E7000300F0E942D0F08950E94210F0E94200F05
:101E800008950E943B0E811102C00E94DB0E0E9449
:101E9000460E80938D020E94500E90937A03809399
:101EA00079030E94171A0E944B0E90E00E94970837
:101EB00080910F02909110020E94B50808950E942F
:101EC000DD240E9400120E9401140E941F130E9430
:101ED000410F0E94BE040E946F160E94841D0E9442
:101EE00013140E94270F08950E94FB13882321F0EA
:101EF0000E94851B0E94C3180895A6E0B0E0E3E8A5
:101F0000FFE00C94212E0E941B0F811103C00E9440
:101F1000E40E53C00E9474138DE7E82E82E0F82E81
:101F2000670100E0F60111916F01802F0E944212BB
:101F300081270F5F083019F08823A1F302C088239E
:101F400031F380918D0281FD0E9448120E941D0F85
:101F5000A82E10E099249394812F0E944212B82E4B
:101F6000F701C080C82609F100E0DD24D3948C2D50
:101F70008D21A9F0AA2099F009831A830E94E624F2
:101F80009C838B839D8291E08B2D8D2109F490E0C1
:101F900049815A816B817C818D810E94EA040F5FA7
:101FA000DD0C053021F7F701B0821F5FFFEFEF1A5C
:101FB000FF0A183089F60E94080F0E94740F0E94D1
:101FC0005F200E94D1042696EBE00C943D2E1F93D7
:101FD000CF93DF930E941511EC01C11580E5D8075E
:101FE000E8F5C11590E4D90708F0A8C0C03ED105B6
:101FF00030F5CD3CD10508F094C0C83AD10578F44D
:10200000C53AD10508F083C0C130D10509F47CC0C0
:1020100008F4F2C0C430D10508F0F1C0EDC0C33CF3
:10202000D10508F0E9C0C85AD0E0CC0FDD1FCF546D
:10203000DE4F0990D881C02DCE019464E1C0C11556
:1020400080E2D80708F0CBC0C11591E0D90708F0AD
:102050006BC0C83ED10508F4D2C0CEC0C03682E500
:10206000D80728F5C03492E5D90708F079C0C03206
:1020700082E5D80708F06CC0C11592E5D90708F4CD
:1020800081C04C2F4695469580E2489FA0011124BF
:10209000C37021E030E0C90102C0880F991FCA95C2
:1020A000E2F7EA01C82BD92BCE019D68A9C0C03A3E
:1020B00082E5D807B8F48C2F8F71C03892E5D90724
:1020C00008F07BC08695869590E2899F9001112447
:1020D000C37081E090E002C0880F991FCA95E2F7B3
:1020E0009A6868C0C03C82E5D80708F46DC0C03E5D
:1020F00092E5D90708F080C0CF71DD27DC2FCC270F
:10210000CE01806F906A7CC081E090E079C0C55AB2
:10211000D0E0C951DE4F8881C82FD0E0CE01906455
:102120006FC0CE0190656CC08D2F0E94B111182F29
:10213000CE0199270E9415111F715CC0CE0199270D
:102140000E941511CC27DF70D06A8C2B9D2B58C0B4
:10215000CF71D0E0DC2FCC27CE01816F906A50C0C8
:102160008C2F8F718695869590E2899F900111241E
:10217000C37081E090E002C0880F991FCA95E2F712
:102180009C6818C08C2F8F710E94B11195E0D69574
:10219000C7959A95E1F7CF70D0E0DC2FCC27282F98
:1021A00030E084FF05C084E0220F331F8A95E1F7F9
:1021B000D069CE01822B932B23C090E0D82FCC275F
:1021C000CE01846F906A1CC08C2F8F710E94B11158
:1021D0008F7190E0D82FCC27CE01906211C08D2F47
:1021E0008F710E94B111182FCE0199270E941511ED
:1021F0001F719062912B04C080E090E001C0CE017D
:10220000DF91CF911F910895783038F4653028F42C
:10221000462F672F0E946902089580E090E008959C
:102220000E9404110E94E70F08958238910569F118
:10223000B0F48133910509F475C048F489329105F1
:1022400009F467C08A32910509F471C00895853395
:10225000910509F459C089339105B9F00895833E79
:10226000910589F138F4803E9105D1F0823E9105C7
:1022700029F10895863E9105C9F1873E9105D9F16E
:10228000843E910509F06CC027C02091790320FDA0
:1022900057C021FD55C020917A0323FD5BC00895EE
:1022A0008091790380FD48C080917A0380FF48C007
:1022B0008091790384FD46C083EE51C080917903FB
:1022C00082FF3CC0F5CF8091790382FD37C08091B9
:1022D0007A0380FD35C0ECCF80917A0381FF36C050
:1022E0008091790384FD2EC087EE39C080917903F7
:1022F00083FF2AC0F5CF8091790383FD25C08091AB
:102300007A0381FD23C0ECCF8091790385FD22C043
:102310001FC08091790385FD1BC080917A0383FFE4
:1023200019C00AC08091790386FD16C017C080913C
:10233000790386FD13C010C089E311C082EE0FC07F
:1023400080EE0DC080E00BC086EE09C084EE07C0B1
:1023500085E305C089E203C08AE201C081E390E021
:1023600008959091790392FF10C041E0282F2471C5
:10237000243009F040E031E0282F2871283009F09E
:1023800030E0431711F02CE0822793FF10C041E0AA
:10239000282F2471243109F040E031E0282F2871E2
:1023A000283109F030E0431711F02CE082273091FA
:1023B0007A0330FF10C051E0282F2171213009F03D
:1023C00050E041E0282F2871283009F040E05417F0
:1023D00011F029E0822731FF10C041E0282F217140
:1023E000213109F040E031E0282F2871283109F02F
:1023F00030E0431711F029E0822794FD877E08958D
:1024000010927B0310927C0310927D0310927E0346
:102410000895CF92DF92EF92FF926B017C010E94B0
:10242000FB1381110EC00E94F224C61AD70AE80AD3
:10243000F90AC0927B03D0927C03E0927D03F09274
:102440007E03FF90EF90DF90CF9008950F931F933E
:102450000E94FB13882319F00E94F2240EC00E94F0
:10246000F22400917B0310917C0320917D03309135
:102470007E03600F711F821F931F1F910F9108959C
:1024800080E00895E82FF0E0E857FC4F8081089540
:10249000089508950E94491208950E944A120895CD
:1024A0000E94491208950E94501208950E944912F4
:1024B0000895A4E0B0E0EFE5F2E10C94282E0E942C
:1024C000FB13609190038823E9F119821A821B8221
:1024D0001C82862F90E08E010F5F1F4FB801885736
:1024E0009C4F0E942114882389F080917F0390E003
:1024F00044E050E0B80188579C4F0E94652E21E0CF
:1025000020938E02892B69F410E019C080918E020D
:102510008823D1F384E0F80111928A95E9F71092AB
:102520008E02E0917F03F0E0E857FC4F89819A81A9
:10253000AB81BC8180839183A283B38311E00E942D
:102540004D120DC070E068577C4F80917F0390E082
:1025500088579C4F0E94AA140E94561210E0812FA7
:102560002496E4E00C94442ECF93DF9340E251E0B4
:10257000A1E0B0E020E030E0FA01E20FF31F80813B
:102580008F3FA1F0E82FE295EF70F0E061A18F702E
:10259000ED0102C0CC0FDD1F8A95E2F7CE019C2F22
:1025A0009095962391A392A1892B82A32F5F3F4FF1
:1025B0002530310509F74B5F5F4FD1E044335D07AC
:1025C000C9F6DF91CF9108950F931F93CF93DF93B7
:1025D000EC01062F10E085E0689FB001112440E077
:1025E00050E0B1E0A0E0CA01860F971F805E9E4FC9
:1025F000FC0190819F3F89F0292F22952F7030E0B8
:10260000F90120A130E09F7002C0359527959A9579
:10261000E2F720FD02C08B2F02C080E090E0A82BE3
:10262000BB0F4F5F5F4F45305105E9F6F801EC0FE6
:10263000FD1FA083DF91CF911F910F910895A4E119
:10264000B0E0E5E2F3E10C942A2E8091340181118F
:1026500025C084E1E4E6F1E0DE01119601900D92DF
:102660008A95E1F7CE01019640E251E0BE016B5E32
:102670007F4F20E030E0FA01E20FF31FDC01A20FF0
:10268000B31FAC91A0832F5F3F4F2530310599F7E1
:1026900005964B5F5F4F8617970759F78091340176
:1026A000811102C094E001C090E09093900384E017
:1026B000891B80937F030E94B41288E0E8E8F3E06E
:1026C000DF01982F1D929A95E9F7E0E8F3E0DF012A
:1026D0001D928A95E9F784E00E94B2130E9453127A
:1026E0006496E2E00C94462EA8E0B0E0EAE7F3E15D
:1026F0000C94272E8E010F5F1F4F88E0F801119276
:102700008A95E9F7F12C6F2DC8010E94E412F39429
:10271000F4E0FF12F8CF48E050E0B80180E893E021
:102720000E94652E21E0009709F420E0892B41F0FA
:1027300088E0F801A0E8B3E001900D928A95E1F7F6
:102740006091900370E068577C4F44E080E893E02C
:102750000E94B313182F0E945912812B2896E5E08E
:102760000C94432E0895EF92FF920F931F93CF93F3
:10277000DF937C018B01C42F222351F081E08093F1
:1027800091020E94E6249093900280938F0204C0ED
:1027900080919102811102C080E01AC080918F0265
:1027A000909190020E94FE240597B0F3D0E0AE0114
:1027B000B701C8010E94652E892B39F0AE01B7011F
:1027C000C8010E94722E81E001C080E01092910247
:1027D000CDB7DEB7E6E00C94422ECF930E94D12D08
:1027E000C82F811102C00E94CC2D8C2FCF9108954B
:1027F0008091950208958091940208950E94FB13A0
:1028000008950E94ED13809394020E94FE1380931A
:1028100095020E94F813809334010E94FB138111EA
:102820000E94591408950E94FB13811102C00E9456
:102830005C14089581E0909196029A3008F080E04F
:1028400008950F931F93CF93DF93EC018B01809139
:1028500096028A3038F4B801CE010E94A714811183
:102860001DC00AC080919202909193020E94FE24A2
:10287000843F914080F715C0809196028F3F19F0F8
:102880008F5F80939602809196028A3060F00E945A
:10289000E624909393028093920203C010929602D2
:1028A00002C080E001C081E0DF91CF911F910F91C4
:1028B00008950E94D42508950E94D7250895A0E088
:1028C000B0E0E5E6F4E10C94252E7901C82F880FDD
:1028D000DD0B41155105A9F0FE0193E0EE0FFF1F3E
:1028E0009A95E1F7EB5CFE4F8181928189569D4F6D
:1028F000208130E04217530708F49A01A9010E9491
:10290000722ECE010E94BF26D82E8823D1F0011549
:102910001105B9F083E0CC0FDD1F8A95E1F7FE01C8
:10292000EB5CFE4F438150E00417150708F4A80143
:10293000CB5CDE4F6C817D8169567D4FC7010E9463
:10294000722E8D2DCDB7DEB7E7E00C94412E0E949C
:10295000A41508950E94BB150895A4E0B0E0E3EB30
:10296000F4E10C94282E6091AC027091AD0280913C
:10297000AE029091AF020E940D256436710581056B
:10298000910528F10E942612DC01CB010296A11DBF
:10299000B11D89839A83AB83BC8300E010E020E003
:1029A00030E044E050E0BE016F5F7F4F82E00E9464
:1029B0005F14182F882361F00E94F2246093AC0208
:1029C0007093AD028093AE029093AF0201C011E00C
:1029D000812F2496E4E00C94442EA0E0B0E0E3EFD5
:1029E000F4E10C94222E7C015B016A010E941A140E
:1029F000811103C001E010E002C00AE010E0C1E074
:102A0000D0E0B501C701F6010995811115C02196E5
:102A10000C171D0794F0CC9F9001CD9F300D300D09
:102A2000112480E090E045E34A95F1F7000001961B
:102A300082179307C1F7E5CF81E0CDB7DEB7EAE0B3
:102A40000C943E2EA5E0B0E0E8E2F5E10C94222ED5
:102A50005B01E090EA01F090EB0101E010E09E01E3
:102A60002B5F3F4F40E050E060E070E080E00E946C
:102A70005F14182F882309F43EC067018FEFC81A2E
:102A8000D80A6091A8027091A9028091AA0290913F
:102A9000AB020E940D25643671058105910518F180
:102AA00004E010E09E012F5F3F4F40E050E060E007
:102AB00070E081E00E945F14182F64E070E0C601AE
:102AC0000E94851D91E02D81281390E0192351F17A
:102AD0000E94F2246093A8027093A9028093AA0234
:102AE0009093AB0211C064E070E0C6010E94851DA6
:102AF0009D818913D5CFF70181819281A381B48112
:102B000089839A83AB83BC83112361F089819A8185
:102B1000AB81BC818093A4029093A502A093A602EE
:102B2000B093A7028091A4029091A502A091A60261
:102B3000B091A702F50180839183A283B383812F93
:102B40002596EAE00C943E2E0F931F93CF93DF93CC
:102B5000EC018B0142E255E10E94ED14882331F033
:102B60004DEA54E1B801CE010E94ED14DF91CF91FE
:102B70001F910F9108950F931F93CF93DF93C091EF
:102B8000EA01D091EB01CE01019624E0FB01DC01CA
:102B900001900D922A95E1F764E070E00E94851D96
:102BA00088836D817E818F8198850091A00210912C
:102BB000A1022091A2023091A3026017710782073F
:102BC000930751F06093A0027093A1028093A20238
:102BD0009093A3020E940912DF91CF911F910F9150
:102BE00008950E949A280E945F0F0E94A7280895C6
:102BF0000E94AC280E947D0F0E94C62808950E9462
:102C00007D240E9480280E94330F0E94F1150E94AB
:102C1000F8150E943C0FFBCF9093ED018093EC01DF
:102C20000895FB012581222341F097FF06C0BC01D6
:102C30007F7780E090E00E94571781E008950F931E
:102C40001F93CF93DF93EC018B01FB0185818823D8
:102C500021F10E942B0D8272FE01E053FC47E83007
:102C6000F105D8F4EE59FF4F0C94142E882329F067
:102C70000E94871612C08823D9F30E9486160DC0C1
:102C800080E009C081E007C082E005C083E003C0A6
:102C900084E001C085E00E947816B801CE010E9450
:102CA0001116DF91CF911F910F910895909192038A
:102CB000923071F48A3040F490E009966AE070E056
:102CC0000E94DE2D875A01C086500E94C7050895D4
:102CD0000E947022089508950E946B1608958CE05A
:102CE00090E00E947B2E809392030E946C160895C0
:102CF000CF93C82F80939203682F8CE090E00E94BE
:102D0000992E8C2F0E946C16CF91089508950895E6
:102D10000E9440238093910390919203913029F473
:102D200081FF03C089E30E94C7050E942B0D809399
:102D300093030E943E0D0E944E0D809192038230BB
:102D4000D9F038F48823A1F0813089F588E193E047
:102D50002CC0843019F1853051F58BE191E00E944F
:102D6000F80285E290E00E94F80288E290E01DC03F
:102D700082EE0E9432051BC08091910380FD03C04A
:102D800083E50E94C70582EE0E9432058FE39CE92D
:102D90000197F1F700C0000087E504C086EE0E94AD
:102DA000C70588E10E94C70502C00E94F8028FE3B0
:102DB0009CE90197F1F700C000000895809192030B
:102DC0008230E1F028F4882361F0813071F023C073
:102DD0008430F9F08530F9F488E290E00E94F8023E
:102DE0001AC082EE0E947C0516C08CE20E94C705C4
:102DF0008091910381FF0FC089E308C082EE0E9499
:102E00007C058091910380FD06C083E50E94C70583
:102E100002C088E2FBCF809193030E943B0D08958E
:102E20008F929F92AF92BF92EF92FF920F931F9358
:102E3000CF93DF934B015C01D09192038CE1E82E9C
:102E4000F12C07E010E021E0D501C4010E2C04C0F4
:102E5000B695A795979587950A94D2F7C82FCF7006
:102E6000222369F0D43031F4CA3020F080E00E948F
:102E7000561605C0C11103C00430110524F48C2F6F
:102E80000E94561620E00150110984E0E81AF1086A
:102E90000F3F8FEF1807C1F6DF91CF911F910F9170
:102EA000FF90EF90BF90AF909F908F900895CF923A
:102EB000DF92EF92FF926115710521E18207910582
:102EC00008F03FC06115710521E08207910520F0EF
:102ED000209192032230A9F16B017C010E94881697
:102EE000C114D10481E0E806F10428F18091920335
:102EF000811121C021E0E21AF108D701C60188271B
:102F00009C7FAF70BB272AE0B695A79597958795CC
:102F10002A95D1F7BC01CD0178528F4F9F4F0E9467
:102F2000101783E0D822EE24FF24C701B6017452A3
:102F30008F4F9F4F02C0C701B6010E9410170E9419
:102F4000DE16FF90EF90DF90CF90089580914D01B5
:102F5000877F80934D0182E00E94470D80914D0153
:102F600084FF06C08F7E80934D0182E00E942E0D6B
:102F700080914D0185FF06C08F7D80934D0180E2D9
:102F80000E942E0D0E94C00D089580E008958B329E
:102F90009105A1F038F49C01245031092432310507
:102FA00050F40CC08D32910530F08933910530F02A
:102FB0008436910519F00E94C517089581E008959F
:102FC000CF93DF93EC01662319F082E00E94410D5C
:102FD000CE0190528115904318F4CE01992701C07B
:102FE000CE010E94B002DF91CF9108959C01305232
:102FF0002115304308F499270E94C7020895FC0167
:10300000FF2724E0F695E7952A95E1F79C012F70BC
:103010003327EE0FFF1FE055FD4F81E090E002C027
:10302000880F991F2A95E2F7662329F020813181C4
:10303000822B932B06C0809590952081318182232D
:103040009323918380830895FC0123E0F695E7950F
:103050002A95E1F7EE71FF27E055FD4F8F70992714
:1030600021E030E002C0220F331F8A95E2F7808111
:1030700091812823392381E0232B09F480E00895EE
:10308000EF92FF920F931F93CF93DF93EC017B019D
:103090008A0180914D0182FF5CC02091D90230915C
:1030A000DA022C173D0719F0209709F052C09091D1
:1030B0004D019B7F90934D0191FD11C08091DB02EA
:1030C0009091DC02A701481B590B61E080914E01F1
:1030D00090914F014817590718F460E001C061E072
:1030E000617080914D0160FB81F980934D01C901B0
:1030F0000E94FF170E942B0D81FF08C080914D0197
:10310000806180934D0182E00E94340D0E942B0D5E
:1031100085FF08C080914D01806280934D0180E25F
:103120000E94340D60914D0166956170A8018091F7
:10313000D9029091DA020E94E01760914D016695E4
:103140006170A8018091D9029091DA020E94F6176D
:103150000FC0CE010E942418A801682FCE010E9442
:10316000F6178091D9029091DA02C817D90711F4A5
:103170000E94A617F092DC02E092DB02CDB7DEB728
:10318000E6E00C94422E80914D0182FF19C00E940E
:10319000E6242091DB023091DC02AC01421B530B90
:1031A00020914E0130914F014217530748F040EDF6
:1031B00052E0BC018091D9029091DA020E9440183D
:1031C000089580914D01982F909590FB80F9809300
:1031D0004D010E94A617089580914D018E7F809326
:1031E0004D010E94A617089560E280914E019091D2
:1031F0004F010E946404FC01019620812032D9F322
:10320000CF010E9468220895CF92DF92EF92FF9241
:103210001F93CF93DF93EC017B010E94E6246C01A6
:10322000F7018581882309F449C080914D0182FF0F
:1032300007C040ED52E0B60180E090E00E944018E7
:10324000C231FCE7DF0771F170F4C0318CE7D807B9
:10325000F9F0C131ECE7DE0739F580914E0190912C
:103260004F0105961AC0C431FCE7DF0771F038F052
:10327000C5318CE7D807C1F40E94E11815C08091D0
:103280004D01816080934D010FC00E94EC180CC06D
:1032900080914E0190914F01059790934F0180933B
:1032A0004E0102C00E94F418CE0190528115904345
:1032B000E0F41092DA021092D90215C0C13ED10595
:1032C00021F480914D018F7E06C0C53ED10531F4B9
:1032D00080914D018F7D80934D0107C0CE019052AA
:1032E0008115904310F411E065C080914D0180FF7D
:1032F000FACFB701CE010E94C717F70115818823C5
:1033000009F455C0112309F44CC00E942B0D182F4D
:103310000E94510D812B8D7F99F01092DA0210924C
:10332000D90260E0CE010E94FF17A70160E0CE0144
:103330000E94E0170E94510D8D7F0E94730D2CC0DA
:1033400089E0F701A0EDB2E001900D928A95E1F7D6
:103350001092D3021092D2020E942B0D182F0E94BD
:10336000510D812B8695817090914D0180FB91F9D3
:1033700090934D010E94510D8D7F0E94730DD0934B
:10338000DA02C093D902D092DC02C092DB028091B3
:103390004D01846080934D0182E00E94F60D10E0A3
:1033A00009C0A701B601CE010E94401803C0111147
:1033B00080CF99CF812FDF91CF911F91FF90EF9018
:1033C000DF90CF9008950E94340E0895CF930E940D
:1033D000F813811102C0C4E001C0C0E08C2F0E942C
:1033E000421221E030E002C0220F331FCA95E2F7FB
:1033F00090E02823392381E0232B09F480E0CF914A
:1034000008950E9474132FEF86E791E021508040C9
:103410009040E1F700C000000E9474130E94E6197A
:10342000882321F00E94E3190E944F2508950E94ED
:10343000011A08950895EF92FF920F931F93CF936F
:10344000DF9380915003882309F441C0C091DD02CD
:103450008DE0F82E80915003C817A8F5EE24E39470
:10346000EC0EE092DD02D0E0FC9EF001FD9EF00D3E
:103470001124E851FD4F8481882319F187819085BB
:10348000892B51F4818592858F3F2FEF920721F090
:1034900061E00E941A1A0BC00081118122813381E0
:1034A000448155816681778180850E948D0CFC9EC8
:1034B000F001FD9EF00D1124E851FD4F14820E9491
:1034C0004E0DCE2DC7CF109250031092DD02CDB716
:1034D000DEB7E6E00C94422E0895CF93DF9310926E
:1034E000520310925103C0E0D0E00E946C02C81752
:1034F000D90758F4CE010E946F02FC018581811129
:1035000002C0148216822196F0CFDF91CF910895E8
:103510001F93CF93DF931091E6022091E7021217D9
:10352000F9F0C12FD0E0FE01EE0FFF1FE252FD4F78
:10353000408151814817590779F40E946F0221E0B8
:10354000FC0124838091E60218130AC02196C370FF
:10355000DD27C093E60204C021961C2F1370DFCF35
:10356000DF91CF911F910895A0E0B0E0EAEBFAE17E
:103570000C941F2EEB012C8121115EC07090500322
:10358000A8EEB2E020E030E0812C61E070E0271589
:1035900008F050C01B96AD90BC901C97C880D98095
:1035A0004FEF5FEF912CE92CF12CF701EE0FFF1F8D
:1035B000EC0DFD1D05911491A016B10609F4A701AB
:1035C0000115110511F09394EECF4F3FEFEF5E0719
:1035D00069F1FB0102C0EE0FFF1F4A95E2F78E2A48
:1035E000AB01092C02C0440F551F0A94E2F7415069
:1035F0005109E82DF0E04E175F07A9F44A815B817D
:103600006DE0629FF001639FF00D1124E851FD4FC2
:103610005087478324E02483108211829287818718
:1036200021E02D8307C014961C9214972F5F3F4F03
:103630001D96ADCF0E94881ACDB7DEB7EDE00C9491
:103640003B2E0F931F93CF93DF93C091E60280919F
:10365000E702C817A1F0D0E08E01000F111F02523F
:103660001D4FF801808191810E946F02BC01F80119
:10367000808191810E94B41A2196C370E8CF0E9484
:103680001B1A0E946D1ADF91CF911F910F9108951F
:10369000FF920F931F93CF93DF93DC010C91119650
:1036A000FC90119780E090E020E0E02FFF2DE20FEA
:1036B000F11DE20FF11D4591549141155105B1F0F5
:1036C000FB011081318190E0E12FF32FE90FF11D13
:1036D000E90FF11DC591D491209731F04C175D078A
:1036E00009F481E09F5FF0CF2F5FDFCF882321F0C7
:1036F000921728F0CD0104C080E090E001C0CB011A
:10370000CDB7DEB7E5E00C94432E809150018823BD
:1037100041F18091530390915403009711F10E945D
:10372000FE24209151033091520328173907C8F421
:103730009091E6028091E702981759F00E94211BB0
:10374000109252031092510310925403109253039B
:1037500008950E941B1A10925403109253030E9462
:103760006D1A089510925403109253031092500151
:103770008091E7028093E6020E946D1A0E941B1A54
:10378000089580915001882319F00E94B21B08957A
:1037900081E0809350010895ACE0B0E0E2EDFBE100
:1037A0000C941A2E4C016B0180352CE7920741F4E2
:1037B000FB0115811123C9F081E0809350019FC165
:1037C0008135FCE79F0739F4FB011581112369F06E
:1037D0000E94B21B94C182359C4739F4FB011581CC
:1037E000112319F00E94C11B8AC120910F02309150
:1037F00010028091110290911202822B932B0E9451
:103800008504182F0E946C1A181731F0F601608198
:1038100071810E9404114C01A12CB12C1C866624DC
:103820006394712CCE0101969B878A870E946C025B
:10383000A816B90608F01CC1C5010E946F027C01E0
:10384000FC014081518144244A94542C60E0262F8D
:1038500030E0F901EE0FFF1FE40FF51F8591949101
:103860008816990609F42901892B11F06F5FEFCFB3
:10387000FFEF4F165F0609F4F3C0F7017481711171
:1038800003C08091500102C080E090E08170F60199
:103890003580F70195812681332009F481C0882382
:1038A00009F47EC0911114C0C301042C01C0880F1B
:1038B0000A94EAF7282B26838091510390915203B2
:1038C000C29730F482E390E09093520380935103C7
:1038D000930102C0220F331F6A95E2F7215031098C
:1038E000F701868190E02817390709F0BAC0809166
:1038F000530390915403009741F00E94FE24C39714
:1039000020F021E0F7012483ACC02090E60280E0A3
:1039100090E02091E702221669F1422C512CF2012D
:10392000EE0FFF1FE252FD4F808191810E946F02D6
:103930008C01B7010E94481B0097A9F021E0FC010F
:103940002483E816F90609F48CC02091E6022212BD
:103950000AC00817190739F492012F5F3F4F2370EF
:1039600033272093E60292012F5F3F4F422F43708F
:10397000242ECFCFE816F90609F473C0422C512C3F
:10398000F201EE0FFF1FE252FD4FB182A0828FEFD6
:10399000481A580A93E0492255244092E70261C030
:1039A000911114C0A30102C0440F551F6A95E2F79C
:1039B0004150510930E04217530709F043C07723C3
:1039C00009F441C0C5010E94881A3CC0822F90E0D2
:1039D0009C012150310928233923042C02C09595DC
:1039E00087950A94E2F7232B59F580FF29C0F70148
:1039F00082819381892BE1F0EA85FB8529E0119290
:103A00002A95E9F70E94E624282F8B839C8344E0C3
:103A10004D83F70182819381782F88879987098167
:103A20001A813C815E816F81892F0E948D0C04C0B8
:103A300060E0C5010E941A1AF701158281E003C0F7
:103A4000817001C080E09301042C01C0220F0A9410
:103A5000EAF72095F701968129232683382E01C0A5
:103A6000312CFC85F329FC872FEFA21AB20ADECE97
:103A7000F6018581882379F1FC85FF2361F10E949D
:103A8000E62490935403809353038091500388302D
:103A900098F591E0980F9093500399E0F601DE01BC
:103AA000119601900D929A95E1F72DE0829FC00149
:103AB000112488519D4F29E0FE013196DC010190CF
:103AC0000D922A95E1F72FEF3FEFFC013287218716
:103AD0009486838611C09091E6028091E702981740
:103AE00019F00E94211B08C00E941B1A1092540357
:103AF000109253030E946D1A11E0FC851F27812F3D
:103B00002C96E2E10C94362E0895FC01680F791F83
:103B10008FEF91E3E617F70771F02191822728E0F4
:103B200030E087FF03C0880F892701C0880F21502C
:103B30003109B9F7EFCF0895CF93DF9386319C47D2
:103B400009F5EB010E942B0D9D81992371F08A7A72
:103B500091E009F490E090935503811102C089E24D
:103B600001C085E30E94F02309C0809155038111B3
:103B700002C089E201C085E30E94F8230E94C00DC3
:103B800080E001C081E0DF91CF910895CF93DF9372
:103B9000FC01DB0115968C91882309F4DDC09F019F
:103BA00030572332310508F0D8C0EF010E94500E83
:103BB00090937A0380937903FE01E150F047E2325B
:103BC000F10520F4E659FF4F0C94142E80917903EF
:103BD0008160AAC080917A038860B2C08091790325
:103BE0008260A2C08091790320C0809179038860AF
:103BF0009BC080917A031EC080917A038260A0C02E
:103C000080917903806190C08091790380628CC03B
:103C100080917903806488C00E9440088091790374
:103C2000806882C080917903886084607DC08091C3
:103C30007A038260816084C0809179038E7F74C032
:103C400080917A03877F7CC0809179038D7F6CC0DF
:103C50008091790320C080917903877F65C080912E
:103C60007A031EC080917A038D7F6AC080917903A8
:103C70008F7E5AC0809179038F7D56C080917903E1
:103C80008F7B52C00E944008809179038F774CC08F
:103C900080917903877F8B7F47C080917A038D7FE6
:103CA0008E7F4EC08091790382FB222720F991E01C
:103CB000922790FB82F990FB83F936C080917A03BA
:103CC000982F909591708E7F892B90FB81F938C049
:103CD0008091790386FB222720F991E0922790FBBF
:103CE00086F922C00E9440088091790387FB222731
:103CF00020F991E0922790FB87F916C081E001C07E
:103D000080E00E94DE0E1EC08091790384FB222792
:103D100020F991E0922790FB84F906C08091790305
:103D2000982F909590FB80F9809379030BC0809138
:103D30007A0383FB222720F991E0922790FB83F9F5
:103D400080937A038091790390917A030E94550EB3
:103D50000E94400880E001C081E0DF91CF9108958A
:103D6000282F35EB2303C001112497FF03C080588F
:103D7000910902C080589F4F892F089580915C035C
:103D800080FF06C06091560170E0660F771F26C065
:103D900081FF04C06091560184E005C082FF07C026
:103DA0006091560188E0689FB001112417C090917E
:103DB0005B039923D1F060915501961788F7209104
:103DC000560188E0289F90011124929FA001939FA3
:103DD000500D112470E0CA010E94DE2D603871057B
:103DE00040F46115710519F406C068E070E0862F93
:103DF00008958FE7089581E0089580915C0380FF26
:103E000008C06091520170E075956795759567954A
:103E100021C081FF06C06091520170E075956795E1
:103E200019C082FF04C06091520170E010C09091EF
:103E30005A03992399F0609151019617A0F7809148
:103E40005201899FC001112470E00E94DE2D60386C
:103E5000710540F46115710519F406C061E070E068
:103E6000862F08958FE7089581E0089590915F036C
:103E700091110CC090916003911108C09091620360
:103E8000911104C090916103992331F098E09093CF
:103E90005B0391E090935A038D3C21F40E94BE1E77
:103EA000819504C08E3C29F40E94BE1E809360035D
:103EB00008958F3C21F40E94BE1E819504C0803D70
:103EC00029F40E94BE1E80935F030895893D19F472
:103ED0000E94FD1E05C08A3D31F40E94FD1E8195A1
:103EE0008093610308958B3D21F40E94FD1E81950E
:103EF00004C08C3D29F40E94FD1E80936203089546
:103F00009FE2980F983078F421E030E0A90102C0D8
:103F1000440F551F9A95E2F7CA0190915E03892BD1
:103F200080935E0308958D3D21F480915C03816050
:103F30000BC08E3D21F480915C03826005C08F3DF3
:103F400029F480915C03846080935C0308958D3C28
:103F500039F49091600397FF35C01092600359C007
:103F60008E3C29F4909160031916BCF32BC09091FC
:103F70005F038F3C29F497FF25C010925F0349C06F
:103F8000803D19F41916CCF31DC090916103893D51
:103F900029F41916BCF4109261033BC08A3D19F450
:103FA00097FF10C0F8CF8B3D39F49091620397FFD3
:103FB00009C0109262032DC08C3D21F490916203E0
:103FC0001916BCF39FE2980F983080F421E030E09E
:103FD000A90102C0440F551F9A95E2F7CA018095C6
:103FE00090915E03892380935E0313C08D3D21F47D
:103FF00080915C038E7F0BC08E3D21F480915C0329
:104000008D7F05C08F3D29F480915C038B7F809369
:104010005C0380915F03811106C080916003811170
:1040200002C010925B0380916103811106C08091F0
:104030006203811102C010925A0308950E94E6247F
:1040400020915F03211104C020916003222321F0FD
:10405000909359038093580320916103211104C068
:1040600020916203222321F09093570380935603FB
:104070008DE593E00E944E230895EDE5F3E086E0A0
:10408000DF011D928A95E9F710925B0310925A03A3
:1040900010925C030895FC01828181110DC083811F
:1040A00081110AC08481811107C091E0858181114D
:1040B00001C090E0892F01C081E081700895A6E0E1
:1040C000B0E0E5E6F0E20C94292E86E0EDE5F3E0C1
:1040D000DE01119601900D928A95E1F710925F032F
:1040E0001092600310926103109262038B81811120
:1040F00004C08C81882309F456C0809158039091A4
:1041000059030E94FE24AC0190915B03992339F07E
:104110002091570130E02417350758F044C0209112
:1041200058018AE0289F900111242417350718F0C0
:104130003AC09F3F19F09F5F90935B031B8111234F
:1041400061F00E94BE1E111614F09FEF01C091E0B5
:10415000989F902D112490935F031C81112361F08F
:104160000E94BE1E111614F09FEF01C091E0989FAF
:10417000902D11249093600380915F03882399F020
:1041800010916003112379F00E94B01E811101C0CB
:1041900081E080935F03812F0E94B01E811101C0D6
:1041A00081E0809360038D81811104C08E8188231A
:1041B00009F456C080915603909157030E94FE2443
:1041C000AC0190915A03992339F02091530130E0CA
:1041D0002417350758F044C0209154018AE0289FE5
:1041E000900111242417350718F03AC09F3F19F0A9
:1041F0009F5F90935A031D81112361F00E94FD1E61
:10420000111614F09FEF01C091E0989F902D11249A
:10421000909361031E81112361F00E94FD1E11160F
:1042200014F09FEF01C091E0989F902D112490937E
:10423000620380916103882399F010916203112336
:1042400079F00E94B01E811101C081E0809361036A
:10425000812F0E94B01E811101C081E08093620312
:10426000BE016F5F7F4F8DE593E00E940B248111AB
:1042700005C08DE593E00E944B2081110E941E2015
:1042800086E0FE013196ADE5B3E001900D928A958E
:10429000E1F72696E3E00C94452E8F929F92BF9211
:1042A000CF92DF92EF92FF920F931F93CF93DF9302
:1042B000E82FF0E0EE5BFD4FB490282F2695269571
:1042C000269530E0F901EE51FD4FE4908770F12C16
:1042D000082E02C0F594E7940A94E2F791E0E922EF
:1042E000FF24F901EE52FD4FC490D12C082E02C0DC
:1042F000D594C7940A94E2F7E1E0CE22DD24F901D7
:10430000EE53FD4FC491D0E002C0D595C7958A9574
:10431000E2F7C170DD27062F10E0E114F10471F01F
:1043200081EE0E943205C801009741F0EFE9FFE0FD
:104330003197F1F700C000000197F6CFC114D10406
:1043400039F44801B8018B2D0E94AF05C8010EC099
:1043500086EE0E943205C801009799F3EFE9FFE06D
:104360003197F1F700C000000197F6CF009741F0B8
:10437000EFE9FFE03197F1F700C000000197F6CFB9
:10438000CD2819F5EF2879F081EE0E947C05011502
:10439000110549F08FE99FE00197F1F700C0000097
:1043A00001501109F4CFCD2BF1F08CE20E94C7052A
:1043B00081149104C1F0EFE9FFE03197F1F700C0FB
:1043C0000000F1E08F1A9108F3CF86EE0E947C0581
:1043D000C8010097B9F2EFE9FFE03197F1F700C0AB
:1043E00000000197F6CFDF91CF911F910F91FF90C1
:1043F000EF90DF90CF90BF909F908F900895EF92B5
:10440000FF920F931F93CF93DF93EC01162F0AE0D7
:104410008881882309F457C0813009F04FC0898111
:10442000813041F47E0182E0E80EF11C8A810E9415
:10443000C70509C0823049F47E01E2E0EE0EF11CAE
:104440008A810E943205E7012DC0833041F47E014C
:10445000F2E0EF0EF11C8A810E947C05F4CF8430DB
:1044600011F021961FC02A81229680E090E030E072
:10447000205331092A30310558F4089FA001099FC3
:10448000500D1124C901840F951F21962881EFCF6B
:10449000009741F0EFE9FFE03197F1F700C000002D
:1044A0000197F6CF812F90E0009759F0EFE9FFE0F8
:1044B0003197F1F700C000000197F6CF612F0E94FD
:1044C0004D212196A5CFCDB7DEB7E6E00C94422E64
:1044D00060E00E94FF21089560E00E944D21089550
:1044E000982F9F709A50963010F0805D01C0895AC5
:1044F0000E946C2208950F931F93CF93DF93C42FD4
:10450000D22FFC0185818823B1F0409365030E947E
:10451000E624909364038093630380E28C0F8830D9
:1045200008F04DC0C77081E001C0880FCA95EAF756
:104530000E94D10544C080916503481330C080912A
:104540006303909164030E94FE248436910538F53C
:1045500010E21D0FCD17B9F080E28C0F883040F4C7
:10456000C77081E001C0880FCA95EAF70E94D8059C
:10457000183010F581E09D2F977001C0880F9A9533
:10458000EAF70E94D105802F0E94C7051830B8F4C1
:10459000D77081E001C0880FDA95EAF70AC080E29F
:1045A0008C0F883060F4C77081E001C0880FCA9515
:1045B000EAF70E94D80503C0802F0E94C705DF914B
:1045C000CF911F910F9108950F93FC01E851FC4783
:1045D000E730F10590F5CB01E457FF4F0C94142E12
:1045E00006E221EE41EE6AE17CE723C007E225EE18
:1045F00045EE6BE17CE71DC006E221EE40EE68E18E
:104600007CE717C007E225EE44EE69E17CE711C0C4
:1046100006E221EE42EE6CE17CE70BC007E225EEFC
:1046200046EE6DE17CE705C008E221E045EE6EE173
:104630007CE70E947B2280E008C0FB018581882303
:1046400019F01092650301C081E00F9108959093D5
:104650006C0380936B0308950E94FB13811103C0C8
:10466000809166030895E0916B03F0916C0330979D
:1046700029F00190F081E02D0995089580E00895DA
:104680000E942C230895E0916B03F0916C03309706
:1046900021F00280F381E02D09950895E0916B03EC
:1046A000F0916C03309739F022E0DC012C93068006
:1046B000F781E02D09950895A3E0B0E0E2E6F3E28A
:1046C0000C942A2E2091690330916A032817390728
:1046D000A1F090936A0380936903E0916B03F091DA
:1046E0006C03309751F023E029839B838A830084F5
:1046F000F185E02DCE01019609952396E2E00C9418
:10470000462EA3E0B0E0E7E8F3E20C942A2E2091D5
:1047100067033091680328173907A1F09093680365
:1047200080936703E0916B03F0916C03309751F035
:1047300024E029839B838A830084F185E02DCE01C8
:10474000019609952396E2E00C94462EE0911E0115
:10475000F0911F01329697E080E0915029F021916D
:104760002223D9F38F5FF9CF0895882371F0209128
:104770001E0130911F01F9013296285F3F4F919140
:10478000891729F0E217F307D1F780E0089581E057
:1047900008959C01FC0132969FEF80E041914617FD
:1047A00089F09F3F19F4411101C0982F8F5F863027
:1047B000A9F79F3F39F0F901E90FF11D97FDFA952F
:1047C0006283089508959C012A5F3F4FFC01428156
:1047D000461301C01282019682179307B9F7089514
:1047E000682F80911E0190911F010E94C923089596
:1047F000682F80911E0190911F010E94E32308956C
:10480000E0911E01F0911F01329686E0DF011D92BA
:104810008A95E9F70895DC01FB0111969C911197A7
:104820008181981321C012968C911297882319F0D8
:104830009281891319C013968C911397882319F0CC
:104840009381891311C015968C911597882319F0BF
:104850009581891309C014969C91992339F081E0C0
:104860002481291304C002C081E001C080E081706E
:10487000089508950E943924089583E080936D037C
:104880000E943A240895811102C081E001C082E0B3
:1048900080936D030E943A2408950E944324089552
:1048A00081E080936D030E943A2408950E94502471
:1048B000089508950E94592408950E945A24089545
:1048C0000E94592408950E94592408950E94592451
:1048D0000895CF930E9463240E9474130E94602461
:1048E000C0E08C2F0E944212811104C0CF5FC830FB
:1048F000C1F701C081E0CF91089585B7806885BF79
:1049000085B7806885BF08951F920F920FB60F92EA
:1049100011248F939F93AF93BF9380916E03811166
:1049200013C08091940390919503A0919603B09148
:1049300097034196A11DB11D809394039093950315
:10494000A0939603B0939703BF91AF919F918F91DE
:104950000F900FBE0F901F90189580919C0384308C
:1049600031F10E94000410926E0320E488E190E08F
:104970000FB6F894A895809360000FBE2093600056
:1049800083B7817F846083BF83B7816083BF78945E
:10499000889583B78E7F83BF0FB6F894A8958091D2
:1049A0006000886180936000109260000FBE0895DF
:1049B0000E9440080E940504089582E084BD93E0AF
:1049C00095BD9AEF97BD80936E0008952FB7F89428
:1049D0008091940390919503A0919603B0919703D1
:1049E0002FBF08952FB7F8946091940370919503A9
:1049F00080919603909197032FBF08959C014FB724
:104A0000F8948091940390919503A0919603B091AE
:104A100097034FBF821B930B0895CF92DF92EF92C3
:104A2000FF922FB7F894C0909403D0909503E09034
:104A30009603F09097032FBFA7019601261B370B13
:104A4000480B590BCA01B901FF90EF90DF90CF904E
:104A5000089578941F920F920FB60F9211248F939E
:104A60009F93AF93BF938091940390919503A091EE
:104A70009603B09197030196A11DB11D80939403F5
:104A800090939503A0939603B0939703BF91AF9132
:104A90009F918F910F900FBE0F901F90189581E0FE
:104AA0008093E00080E28093D8001092C9008FE1EB
:104AB0009EE40197F1F700C0000087E090EBDC0175
:104AC0008093A5039093A603A093A703B093A80394
:104AD0009CE088E10FB6F894A895809360000FBE23
:104AE00090936000FFCF9CE088E10FB6F894A89502
:104AF000809360000FBE90936000FFCF8EE14A9BD1
:104B000002C08150E1F74A9BFECF08955A9880E297
:104B10008A95F1F75A9A0895FC012AE02A95F1F74F
:104B200028E090E080E031E040E14A95F1F7880F1D
:104B30004A9B02C08160932700C0000040E14A9573
:104B4000F1F7215089F720E12A95F1F729B100C04A
:104B5000000030E13A95F1F722FB222720F9922755
:104B60002081920F90830895A1E0B0E0EAEBF5E296
:104B70000C94262E19828C017C01E60EF11C0E1578
:104B80001F0551F00E947E25CE0101960E948C25C2
:104B9000F80181938F01F3CF81E09981911180E039
:104BA0002196E6E00C94422E529A5A9A0895529811
:104BB0005A9AEA9AE9E6F0E080818F7C8083089532
:104BC000615091E001C0990F6A95EAF720E031E069
:104BD000992361F0492F482319F05A9A232701C0DD
:104BE0005A9840E24A95F1F79695F2CF222311F0B8
:104BF0005A9A01C05A9880E28A95F1F75A98089516
:104C0000FF920F931F93CF93DF93EC018C01060F5C
:104C1000111DC017D10741F0F9900E94862568E068
:104C20008F2D0E94E025F5CFCDB7DEB7E5E00C94DF
:104C3000432E1F920F920FB60F9211240F931F93C2
:104C40002F933F934F935F936F937F938F939F9394
:104C5000AF93BF93EF93FF93CF93DF931F92CDB7A3
:104C6000DEB719820E947E25CE0101960E948C2516
:104C7000082F069506950695902F96959570202FEE
:104C80002570920F292F237096959695920F877015
:104C900089135FC0898181115CC0043008F059C05C
:104CA00080E18A95F1F75A9A529A82E08A95F1F753
:104CB00000C05A9888E0089F80011124D801AB5C9D
:104CC000BE4F1696ED91FC9117973097A9F0609121
:104CD000EA017091EB0114962D913C911597260FE6
:104CE000371F11968D919C911297680F791F13961B
:104CF0004C9113978C910995F801EB5CFE4F638101
:104D0000662351F08091EA019091EB012481358175
:104D1000820F931F0E9400260E94862580E18A95BB
:104D2000F1F75A9852985A9A80E18A95F1F7F8016A
:104D3000EB5CFE4F6081662351F08091EA01909117
:104D4000EB0121813281820F931F0E94B4250E94C2
:104D50007E250F90DF91CF91FF91EF91BF91AF91A1
:104D60009F918F917F916F915F914F913F912F9183
:104D70001F910F910F900FBE0F901F9018950F93DA
:104D80001F93CF93DF93843091050CF06DC0EC013D
:104D9000F894529A5A9885E08A95F1F700009C2F72
:104DA000969595702C2F2570920F892F837096956C
:104DB000969523E0CC0FDD1F2A95E1F7980F8E0121
:104DC000092B0E94862584E08A95F1F700C068E0EF
:104DD000802F0E94E02580E18A95F1F752985A9A37
:104DE0004A9902C000C0FCCF87E090E04A9B08C00F
:104DF000019721F4529A5A9A789436C000C0F6CF9F
:104E0000FE01EB5CFE4F6381662381F08091EA0135
:104E10009091EB0124813581820F931F0E94B4256C
:104E2000811104C0529A5A9A78941FC00E947E251C
:104E300080E28A95F1F75A98529A80E18A95F1F7C3
:104E4000CB5CDE4F6881662351F08091EA0190913E
:104E5000EB0129813A81820F931F0E9400260E9454
:104E60008625789481E001C080E0DF91CF911F9189
:104E70000F91089580917703089508959B01909173
:104E80009C039430F1F48F708093E9008FEF909140
:104E9000E800815095FD06C095ED9A95F1F7000068
:104EA0008111F5CF8091E80085FF0BC0BA01C901DF
:104EB00040E050E00E943E298091E8008E77809388
:104EC000E800089543E050E0BC0182E00E943E27E4
:104ED000089546E050E0BC0182E00E943E2708951C
:104EE000CF93DF93EC0148E050E0BC0181E00E94E9
:104EF0003E2788E0FE01AFE6B3E001900D928A956F
:104F0000E1F7DF91CF91089580919B03811109C052
:104F10000E94C92A0E94262B8091E200846080931F
:104F2000E200089510929B0308950E94562408956C
:104F30006091980381E0611101C080E00E943D24EE
:104F4000089590919C0381E0943009F080E0609195
:104F500098030E944324089542E061EC81E00E949E
:104F6000422A42E261EC82E00E94422A90919C0334
:104F700081E0943009F080E0609198030E944D2414
:104F8000089580919E03833009F461C030F481302C
:104F900071F0823009F49BC008958A3009F487C00B
:104FA0008B3009F46CC0893009F0A9C020C0809111
:104FB0009D03813A09F0A3C08091E800877F809328
:104FC000E8008091A1039091A203892B21F468E06D
:104FD0008FE693E003C060E080E090E070E00E9424
:104FE00083298091E8008B778093E8000895809171
:104FF0009D03813209F083C08091A1039091A203A7
:10500000029708F07CC08091E800877F8093E800D9
:105010008091E80082FD05C080919C038111F8CF4A
:105020006EC02091F3008091F20090E0922B0297E5
:1050300031F48091F100813011F0863021F48091BB
:10504000F100809377038091E8008B7754C08091C2
:105050009D03813A09F053C08091A1039091A2036E
:10506000892B09F04CC08091E800877F8093E8008D
:105070008091E80080FFFCCF8091630137C0809170
:105080009D038132E1F58091A1039091A203892BC8
:10509000B1F58091E800877F8093E8000E94772A2D
:1050A00080919F03809363010E944008089580913E
:1050B0009D03813221F58091E800877F8093E8008D
:1050C0000E94772A8091A0038093780308958091AD
:1050D0009D03813AA1F48091E800877F8093E800E6
:1050E0008091E80080FFFCCF809178038093F100ED
:1050F0008091E8008E778093E8000E94772A0895D7
:1051000084B7877F84BF0FB6F894A895809160001C
:10511000886180936000109260000FBE90E080E88C
:105120000FB6F89480936100909361000FBE0E94C7
:10513000502408950E94C92A0E94262BE2EEF0E036
:1051400080818460808378940E94B12D089589E5E0
:1051500091E00E942723089580919C038530A9F453
:1051600080919C03853079F40E94AD2480919A034C
:105170008823B1F30E946924882391F30E9428298F
:105180000E944008EDCF0E94D824089508959A0106
:105190004091A3035091A4030E94CF280895492F62
:1051A000552743305105C9F060F44130510581F075
:1051B0004230510509F044C08BE390E04CE153E0EC
:1051C00043C041325105E1F04232510549F138C046
:1051D00082E190E047E553E037C09927813091059F
:1051E00049F028F0029761F5E2EFF2E005C0E8E14E
:1051F000F3E002C0EEE0F3E0849190E0AF0124C060
:105200006115710541F061307105D1F489E090E0DC
:1052100047E453E019C089E090E04EE253E014C047
:105220006115710541F06130710551F48BE790E033
:1052300049E653E009C084E490E044EE53E004C042
:1052400080E090E040E050E0F90151834083089510
:1052500080E189BD82E189BD09B400FEFDCF809166
:10526000D8008F7D8093D8008091E0008260809389
:10527000E0008091E00081FDFCCF0895A0E0B0E067
:10528000E4E4F9E20C94242EEC018B017A010E94F3
:10529000962A811133C0E114F10439F0F7018081BD
:1052A0009181081B190BC80FD91FC12CD12C0115D6
:1052B000110519F18091E80085FD16C08091E80084
:1052C0008E778093E800E114F10449F0F7018081C2
:1052D0009181C80ED91ED182C08285E00FC00E9484
:1052E000962A882321F30AC089918093F100015006
:1052F0001109FFEFCF1ADF0ADACF80E0CDB7DEB7B2
:10530000E8E00C94402E2091A3033091A4032617CB
:10531000370748F06115710539F42091E8002E77C0
:105320002093E80001C0B901FC0120E0611571057E
:1053300079F180919C038823F1F18530F1F180911E
:10534000E80083FD3CC08091E80082FD2EC0809182
:10535000E80080FFEBCF2091F3008091F20090E015
:10536000922B6115710551F08830910538F4219127
:105370002093F100615071090196F3CF21E0089765
:1053800009F020E08091E8008E778093E800CECF8E
:105390002111CFCF0AC080919C03882361F0853012
:1053A00061F08091E80083FD0AC08091E80082FFEF
:1053B000F2CF80E0089582E0089583E0089581E0CF
:1053C00008952091A3033091A4032617370748F0CE
:1053D0006115710539F42091E8002E772093E800DB
:1053E00001C0B901FC0120E06115710591F18091C6
:1053F0009C03882309F440C0853009F43FC08091A4
:10540000E80083FD3DC08091E80082FD2FC08091BF
:10541000E80080FFE9CF2091F3008091F20090E056
:10542000922B6115710559F08830910540F4249153
:105430002093F1003196615071090196F2CF21E07D
:10544000089709F020E08091E8008E778093E800CB
:10545000CBCF2111CCCF0AC080919C03882361F06F
:10546000853061F08091E80083FD0AC08091E800FA
:1054700082FFF2CF80E0089582E0089583E00895EE
:1054800081E00895982F973068F59093E900981778
:1054900039F07091EC002091ED005091F00003C0C4
:1054A000242F762F50E021FD02C09F5FECCF30917A
:1054B000EB003E7F3093EB003091ED003D7F309369
:1054C000ED003091EB0031603093EB007093EC0015
:1054D0002093ED005093F0002091EE0027FDE5CFE2
:1054E00080E008958F708093E90081E008958091B5
:1054F0009D0387FF11C08091E80082FD05C0809167
:105500009C038111F8CF11C08091E8008B770BC00C
:1055100080919C03882349F08091E80080FFF8CFB8
:105520008091E8008E778093E80008952091E40050
:105530003091E50095E64091EC00842F817040FFAA
:1055400023C08091E80080FD1DC080919C038823CA
:1055500099F0853099F08091EB0085FD11C0409164
:10556000E4005091E5002417350729F3915011F01C
:105570009A01E1CF84E0089582E0089583E00895E0
:1055800081E0089580E008954091E80042FFDDCF7A
:1055900008950E94382B0E94402BE0EEF0E08081BD
:1055A00081608083E8EDF0E080818F77808319BC93
:1055B000A7EDB0E08C918E7F8C9380818F7E80836D
:1055C00010929B0308950F931F93CF93DF930E9434
:1055D000382B0E94402BC8EDD0E088818F778883DC
:1055E00088818068888388818F7D888319BC109228
:1055F0009C031092980310929A031092990300EE64
:1056000010E0F80180818B7F8083888181608883AE
:1056100042E060E080E00E94422AE1EEF0E080811A
:105620008E7F8083E2EEF0E08081816080838081E4
:1056300088608083F80180818E7F8083888180618B
:105640008883DF91CF911F910F910895E8EDF0E0ED
:1056500080818F7E8083E7EDF0E0808181608083B0
:1056600084E082BF81E080939B030E94E32A089537
:10567000E8EDF0E080818E7F80831092E200089553
:105680001092DA001092E10008951F920F920FB667
:105690000F9211242F933F934F935F936F937F93B8
:1056A0008F939F93AF93BF93EF93FF938091E1000C
:1056B00082FF0BC08091E20082FF07C08091E10071
:1056C0008B7F8093E1000E94B02D8091DA0080FFF3
:1056D0001FC08091D80080FF1BC08091DA008E7FB0
:1056E0008093DA008091D90080FF0DC080E189BDF0
:1056F00082E189BD09B400FEFDCF81E080939C0367
:105700000E94842705C019BC10929C030E94922716
:105710008091E10080FF19C08091E20080FF15C0F8
:105720008091E2008E7F8093E2008091E2008061B0
:105730008093E2008091D80080628093D80019BCE9
:1057400085E080939C030E9498278091E10084FF6C
:1057500030C08091E20084FF2CC080E189BD82E1ED
:1057600089BD09B400FEFDCF8091D8008F7D809364
:10577000D8008091E1008F7E8093E1008091E2006B
:105780008F7E8093E2008091E20081608093E2004E
:1057900080919803882311F084E007C08091E30092
:1057A00087FD02C081E001C083E080939C030E94DA
:1057B000A1278091E10083FF29C08091E20083FF4F
:1057C00025C08091E100877F8093E10082E0809393
:1057D0009C03109298038091E1008E7F8093E100FA
:1057E0008091E2008E7F8093E2008091E2008061F0
:1057F0008093E20042E060E080E00E94422A8091D3
:10580000F00088608093F0000E949527FF91EF914F
:10581000BF91AF919F918F917F916F915F914F91C8
:105820003F912F910F900FBE0F901F9018951F92D0
:105830000F920FB60F9211242F933F934F935F93C4
:105840006F937F938F939F93AF93BF93CF93DF9388
:10585000EF93FF93C091E900CF708091EC00D82FB7
:10586000D17080FDD0E81092E9008091F000877F30
:105870008093F00078940E945B2C1092E900809154
:10588000F00088608093F000CD2BCF70C093E900CA
:10589000FF91EF91DF91CF91BF91AF919F918F9148
:1058A0007F916F915F914F913F912F910F900FBE1C
:1058B0000F901F901895AAE2B0E0E1E6FCE20C948C
:1058C000292EEDE9F3E08091F100819323E0E53AA0
:1058D000F207C9F70E94C1278091E80083FF2EC11B
:1058E00080919D0390919E03492F50E04A305105CD
:1058F00008F024C1FA01ED56FF4F0C94142E8038A5
:1059000021F0823809F01AC108C080919903909162
:105910009A03992389F082600FC08091A1038F7050
:10592000873008F00BC18093E9008091EB0085FB84
:10593000882780F91092E9009091E800977F909372
:10594000E8008093F1001092F100D1C0282F2D7F44
:1059500009F0F4C0882319F0823061F0EFC0809123
:105960009F03813009F0EAC0933009F080E0809312
:105970009A032EC080919F0381112AC08091A103B8
:105980008F702FEF280F263008F0D8C08093E900E1
:105990002091EB0020FF1CC0933021F48091EB009C
:1059A000806214C09091EB0090619093EB0021E035
:1059B00030E0A90102C0440F551F8A95E2F74093D9
:1059C000EA001092EA008091EB0088608093EB007F
:1059D0001092E9008091E800877F8093E8000E94A0
:1059E000772AACC08111AAC010919F031F778091C4
:1059F000E3008078812B8093E3008091E800877F2B
:105A00008093E8000E94772A8091E80080FFFCCF15
:105A10008091E30080688093E300111102C082E06E
:105A200001C083E080939C0389C08058823008F0D5
:105A300085C080919F039091A0038C3D53E0950712
:105A400079F583E08A838AE289834FB7F894DE018F
:105A5000139620E03EE051E2E32FF0E05093570030
:105A6000E49120FF03C0E295EF703F5FEF708E2F4F
:105A700090E0EA3010F0C79601C0C0968D939D93D8
:105A80002F5F243149F74FBF8091E800877F8093D3
:105A9000E8006AE270E0CE0101960E94832916C0F8
:105AA0006091A1037091A203AE014F5F5F4F0E940E
:105AB000C728BC01892B09F441C09091E800977F69
:105AC0009093E80089819A810E94E1298091E80001
:105AD0008B778093E80032C0803881F58091E800B0
