:100000000C94CE020C94EB020C94EB020C94B71CF3
:100010000C94EB020C94EB020C94EB020C94EB02AC
:100020000C94EB020C94EB020C94EC230C94BE2485
:100030000C94001F0C94EB020C94EB020C94EB025A
:100040000C94EB020C94EB020C94EB020C94EB027C
:100050000C94EB020C94A51F0C94EB020C94EB0295
:100060000C94EB020C94EB020C94EB020C94EB025C
:100070000C94EB020C94EB020C94EB020C94EB024C
:100080000C94EB020C94EB020C94EB020C94EB023C
:100090000C94EB020C94EB020C94EB020C94EB022C
:1000A0000C94EB020C94EB020C94EB02F505F505B5
:1000B000210621068906A70696079607AC062207A1
:1000C00033073307701873187B187D187F18811851
:1000D00083188518431AB51A4B1A151A191A4F1A8C
:1000E0001C1A521A5D1A271AAB1A2B1A611A2F1AE8
:1000F000651A8F1A331A691A991A391A6F1A791AE6
:10010000201A561A231A591A3E1A741A851AA51A51
:10011000A71A111A471ABE1AF11BF71BE51BEB1B96
:10012000FD1B031C091C26254D2545264D2545266E
:100130009925BC2545261326222614001A000800FE
:100140001500170004221645074109430A001D0047
:100150001B2106241900050062002A00000000008F
:1001600000001C0018000C00120013000B000D44CE
:100170000E420F463322110010003624372138007A
:100180002C475900000000000000010001000100A0
:10019000010001000100D2000000D10001000100B7
:1001A0000100010001000100010001000000000049
:1001B00000000100D100D900D20001000100CF00F1
:1001C000CE00CD00D0000100DB00DA00DC00010031
:1001D00001000100000000000000010001004B00D0
:1001E000010001005000520051004F0001000100C9
:1001F0004A004E004D000100010001000000000017
:100200000000010001000100010001000100E30005
:100210000000E201E1050100010001000100010010
:1002200001000100000000000000010001000100C9
:100230000100010023022502240200000100010048
:10024000010001000100010022780100000000000F
:10025000000001002D0231023400010020023502AD
:1002600038003402210201002D0031003500010068
:100270000100217800000000000001003302360276
:10028000370233002F023002260227021F0201002C
:100290001E022F0030000100AA0001000000000033
:1002A0000000010001000100010001000100000048
:1002B0002E002E02220201000100010001000100B7
:1002C0000100A90000000000000001000100010081
:1002D0000100010001000000E20101000100010035
:1002E0000100010001000100010001000000000008
:1002F00000000100400041004200430001003D00B9
:100300003E003F00440001003A003B003C00450035
:10031000010001000000000000005400240025003E
:100320002600570027001E001F0020005600550021
:1003300021002200230067000100010000000000EE
:1003400000000100010001000100010001000100A6
:100350000100000001000100010001000100010096
:100360000100010000000000000001000100330254
:1003700029000100010022023800280001000100CC
:10038000010001001E02010001002B00000000001E
:10039000000001000100010001004C004152E30097
:1003A0000100010001004052010036343731007C69
:1003B000000001000000000000000000000000003C
:1003C00000002A2B280000000000000000000000B0
:1003D000000000000029000000002C1E3420212213
:1003E00024342627252E362D3738271E1F2021227C
:1003F000232425263333362E37381F0405060708F5
:10040000090A0B0C0D0E0F101112131415161718E4
:10041000191A1B1C1D2F3130232D35040506070822
:10042000090A0B0C0D0E0F101112131415161718C4
:10043000191A1B1C1D2F3130354C00000000000024
:1004400000000000000000000000000000000000AC
:1004500000000000000000000000000000007E0F0F
:1004600000D4FFFFFFC7000000781A0346006500B4
:10047000720072006900730020007300770065004D
:1004800065007000000008034400500042000000B6
:100490000403090409023B00020100A0FA09040058
:1004A00000010301010009211101000122400007A0
:1004B000058103080001090401000103000000098F
:1004C0002111010001227B00070582032000011297
:1004D00001000200000008ABC2393901000102002E
:1004E0000105010902A10185020901A100050919FF
:1004F00001290815002501950875018102050109EA
:100500003009311581257F95027508810609381556
:1005100081257F950175088106050C0A3802158131
:10052000257F950175088106C0C005010980A101DC
:10053000850319012AB700150126B700950175102A
:100540008100C0050C0901A101850419012AA0023E
:10055000150126A002950175108100C0050109064C
:10056000A101050719E029E7150025019508750186
:1005700081029501750881010507190029FF150001
:1005800026FF0095067508810005081901290595C3
:100590000575019102950175039101C011241FBEDB
:1005A000CFEFDAE0DEBFCDBF11E0A0E0B1E0E8E8D8
:1005B000FEE402C005900D92A03CB107D9F722E0FD
:1005C000A0ECB1E001C01D92A33BB207E1F70E948D
:1005D0009B150C9442270C9400008830B0F46830CE
:1005E000A0F4453090F498E2899FF001112485E051
:1005F000689FE00DF11D1124E40FF11DEE0FFF1FA8
:10060000E65CFE4F85919491089580E090E0089516
:100610000E94ED0208959C013A9521153F4130F565
:10062000BC0166277270AC01442754709C012227DC
:10063000387094FF0FC090FF02C080E101C080E0DD
:10064000672B09F08062452B09F08064232B79F039
:1006500080680895892F8170672B09F08260452B8F
:1006600009F08460232B19F08860089580E00895D4
:10067000CF93DF93EB010E940B03FE010995DF91FD
:10068000CF910895CF93DF93EC01805E9109089795
:1006900010F0209719F46EEA75E002C06FEF77E072
:1006A000CE010E9438038C2F0E94FE04DF91CF916F
:1006B0000895CF93DF93EC010E945405CE01805E34
:1006C0009109089710F0209719F465EB75E002C0C6
:1006D00066E078E0CE010E943803DF91CF91089563
:1006E0000F931F93CF93DF938C01EB010E94420382
:1006F000209741F08FE99FE00197F1F700C00000DB
:100700002197F6CFC8010E945903DF91CF911F9125
:100710000F9108958933910519F060E070E002C0EF
:1007200060E570E00E947003089581E0089581E023
:1007300008950E949703089508950E949C030895C8
:10074000A5E0B0E0E6EAF3E00C94AE2649835A83D4
:100750003091C70189819A81311114C0662359F003
:10076000222349F00E948209182F682F89819A81DB
:100770000E945E0903C00E947009182F69817A8166
:10078000812F04C00E94820969817A810E946110D0
:100790002596E3E00C94CA26FC01262F4081518166
:1007A0006281738184810E94A003089581E008958D
:1007B000CF93DF93EC0160E00E94CC03BE010E9466
:1007C0009D03DF91CF9108950E94EB1108950E943F
:1007D000E511089508950E9427080E94EA032FEF6B
:1007E00084E39CE0215080409040E1F700C000008D
:1007F00008950E94EB030E94CB1F08950E94EB0313
:100800000E94DC1F08950F931F93CF93DF938C01F9
:1008100061E00E94CC03EC01B8010E949903882397
:1008200009F449C0B801CE010E945918882309F47F
:1008300042C0B801CE010E94D91B8823E1F1B80162
:10084000CE010E94ED198823B1F1B801CE010E94BA
:100850003F1B882381F1F8018281882341F1C33055
:100860008CE7D807D1F040F4C115FCE7DF0791F021
:10087000C130DC47A1F01BC0CB35ECE7DE07A9F0A7
:10088000CC35FCE7DF0771F0CA35DC4781F40E9404
:10089000DA0D0DC00E94F9030EC00E94E20D0E9405
:1008A000FE0309C00E94D00D02C00E94DE0DC801E7
:1008B0000E94950301C080E0DF91CF911F910F91BD
:1008C00008950E94D91E0E948B0408950E948F04EF
:1008D0000E94E21E089508950E946B04089581E02D
:1008E00008950895CF93DF93D82F0E946F04C82FE7
:1008F000882319F08D2F0E9471048C2FDF91CF91E6
:1009000008950895CF93C82F0E946C048C2F0E94E5
:100910007204CF91089580E00E94820408950E949D
:10092000E21D0E9482040895CF930E94E21DC82F09
:100930008091C201C81779F0C093C2010E946E1F56
:100940006093C3017093C4018093C5019093C60165
:100950008C2F0E948204CF910895ABE0B0E0E3EBCE
:10096000F4E00C94AF264F83588769877A878B878A
:1009700061110E94180D9E012F5F3F4F86E0F90123
:1009800011928A95E9F785E0FE013796D901019029
:100990000D928A95E1F789819A814C815D81452B81
:1009A00031F09F3F31F491E08F3F19F403C091E0A3
:1009B00001C090E090FF09C049815A816B817C8120
:1009C0008D819E810E94410C05C0C9010E94D60301
:1009D0008111F2CF2B96E2E00C94CB26FC018081B2
:1009E00091810E94B4090895662319F00E9420168F
:1009F00002C00E947B160E94F2160895CF938823AE
:100A000009F450C0C82F8CEF8C0F813AD0F46C2FB2
:100A100080910001909101010E94681E882349F095
:100A20006C2F80910001909101010E94A11E0E94F3
:100A30003C0D6C2F80910001909101010E949E1E3F
:100A40000CC080E28C0F883058F4C77081E001C080
:100A5000880FCA95EAF70E94F80C0E943C0D22C04C
:100A6000EBE5EC0FE33040F4F0E0EA57FE4F808115
:100A700090E00E94121E16C0E8E5EC0FE93150F438
:100A8000F0E0EE0FFF1FEC5AFE4F808191810E9433
:100A9000371E08C083E38C0F833120F461E08C2F74
:100AA0000E94F404CF9108958823A9F19CEF980F38
:100AB000913A40F4682F80910001909101010E94C9
:100AC000A11E0DC090E2980F983060F4877091E0FD
:100AD00001C0990F8A95EAF7892F0E94FE0C0E94A7
:100AE0003C0D08959BE5980F933028F480E090E04A
:100AF0000E94121E089598E5980F993128F480E01D
:100B000090E00E94371E089593E3980F933118F4F4
:100B100060E00E94F40408951F93CF93DF93182F91
:100B2000EB010E94FE04209741F08FE99FE00197BE
:100B3000F1F700C000002197F6CF812F0E945405E5
:100B4000DF91CF911F910895893319F060E070E033
:100B500002C060E570E00E948C050895882321F0B2
:100B60000E94F80C0E943C0D0895882321F00E94F9
:100B7000FE0C0E943C0D0895A0E0B0E0E2ECF5E030
:100B80000C94A9267C01162FC72FFC01D281058168
:100B900002950F700E94EE0C8823B9F0DD23A9F0B6
:100BA0008C2F807F803421F080E2810F883068F0C4
:100BB0008091890282FF09C082E00E949E0D0E94FE
:100BC000EE0C91E0D82ED92601C0D12CCC2EC294A7
:100BD0008FE0C8228C2D90E08C30910508F0A6C1E2
:100BE000FC01EA5AFF4F0C9499268C2F807FCF701E
:100BF000882311F0C295C07FDD2399F0CC2309F43E
:100C000081C180E2810F883010F0111104C08C2F57
:100C10000E94F80C03C08C2F0E940B0D0E943C0D0B
:100C200071C1812F0E945405CC2309F47FC180E259
:100C3000810F883038F1112329F18C2F0E94110D7A
:100C400024C08C2F807FCF70803211F0C295C07F7E
:100C5000112319F01130D1F146C08091890282FD33
:100C600017C0DD2349F0CC2329F08C2F0E94F80C0B
:100C70000E943C0D80E047C180E00E945405CC23D7
:100C800009F454C18C2F0E94FE0C0E943C0D4EC1F1
:100C9000DD2371F0002341F0013031F40E941B0D7F
:100CA0008C2B0E94250D42C10E941B0D8C2B14C061
:100CB000011103C00E94320D28C0013009F436C171
:100CC0008C2F0E94B5050E94320D30C1DD2339F012
:100CD000063008F02BC18C2F0E94AE0527C10530CD
:100CE00008F024C112C0DD2319F00023A1F30AC1CA
:100CF000002359F0193309F016C1FFEF27EE83E006
:100D0000F15020408040E1F70CC18C2F0E94B505C6
:100D10000DC18C2F86958695837019F0813061F016
:100D200005C1DD2321F0812F9C2F937002C080E04C
:100D300090E00E94121E02C1DD2321F0812F9C2F22
:100D4000937002C080E090E00E94371EF7C06D2FC4
:100D5000812F0E94F404F2C08C2F8370B1F5D11161
:100D6000E9C0412F429546954770440F440F812FAB
:100D70008F7090E09C01042E02C0220F331F0A9452
:100D8000E2F714FF0AC08FE090E002C0880F991FBD
:100D90004A95E2F78095909502C080E090E0C69574
:100DA000C695C370822B932BC23049F058F4C130E2
:100DB00019F00E949108BEC00E948808BBC00E9422
:100DC0009A08B8C00E948508B5C0DD2319F08C2FA1
:100DD000817001C08695882309F4ACC0412F4295EB
:100DE00046954770440F440F812F8F7090E09C010F
:100DF000042E02C0220F331F0A94E2F714FF0AC028
:100E00008FE090E002C0880F991F4A95E2F7809525
:100E1000909502C080E090E0C695C695C370822B85
:100E2000932BC23049F058F4C13019F00E94F908F0
:100E300081C00E94F0087EC00E9402097BC00E940F
:100E4000A60878C0CF70DD2339F08C2F0E94BE0831
:100E5000812F0E94AE056EC0812F0E94B5058C2F98
:100E60000E94CE0867C0123F21F128F4103F41F0E4
:100E7000113FC1F043C0133F19F1143F79F03EC058
:100E8000DD2341F0053008F051C08C2F8F710E9496
:100E9000E0084CC0063008F049C0F7CF80918902C5
:100EA00082FD18C0DD2339F08C2F8F710E94BE089F
:100EB0003DC0DD23C9F38C2F8F710E94CE0836C050
:100EC000DD2329F08C2F8F710E94B2082FC00E9461
:100ED000AD082CC0DD2349F0CF718C2F0E94BE08D5
:100EE00063E08C2F0E94800D21C081E00E949E0D46
:100EF0000230E0F082E00E949E0D18C0DD2331F048
:100F0000002391F2812F0E94FE0410C0002399F269
:100F1000193349F49FEFE7EEF3E09150E040F040E1
:100F2000E1F700C00000812F0E94540588EF8C0D6E
:100F3000843020F40E94E21D0E948204DD2089F0AA
:100F40000E94EA0C80FD0DC0F70112820E94E40CA1
:100F50000E94BE08C7010E94CE070E94E40C0E94B6
:100F6000CE08CDB7DEB7E8E00C94C5260F931F93EB
:100F7000CF93DF93EC01688179818A810E94BF0958
:100F80008C010E940B090E947608B801CE010E94D4
:100F9000BC05DF91CF911F910F910895CF93DF93FF
:100FA000EC01988189812B813C81232B31F08F3F8B
:100FB00031F481E09F3F19F403C081E001C080E07B
:100FC00080FD1AC0CE010E94030481110FC00E944F
:100FD000EE0C882389F08A81882371F08091890240
:100FE00082FF0AC082E00E949E0D06C0CE010E94D0
:100FF000B607CE010E94D803DF91CF9108958823D0
:1010000021F00E940B0D0E943C0D0895882321F0D1
:101010000E94110D0E943C0D089580E090E00E9416
:10102000121E80E090E00E94371E0E94180D0E9460
:101030003C0D0E9411170E94F21608958091000144
:10104000909101010E94A41E0E940D0808950E9423
:10105000080D0E941E08089592959F70963079F0B1
:1010600010F4925001C09A50923068F4803F69F0B9
:1010700018F4883E40F409C0843F29F406C0883E35
:1010800020F0813F11F080E0089581E00895FC0197
:101090009081818123813481232B31F08F3F31F482
:1010A00081E09F3F19F403C081E001C080E080FD32
:1010B00007C0808191810E94B4090E942C08089584
:1010C00080E00895A5E0B0E0E8E6F8E00C94AF26F3
:1010D0002596E2E00C94CB26A6E0B0E0E2E7F8E04B
:1010E0000C94AF262696E2E00C94CB260895089542
:1010F0000E94770808950E94780808950E947B084E
:101100009093DF018093DE0108950E947E08089588
:101110002091DE013091DF01822B932B0E947E080B
:1011200008952091DE013091DF01822393230E94F4
:101130007E0808952091DE013091DF0182279327F8
:101140000E947E0808950E94770808950E94A308CF
:101150009093DD018093DC01089580E090E00E948F
:10116000A608089521E030E0A90102C0440F551FF0
:101170008A95E2F7CA010E94A608089521E030E0AE
:1011800002C0220F331F8A95E2F78091DC01909113
:10119000DD01822B932B0E94A608089521E030E008
:1011A00002C0220F331F8A95E2F720953095809177
:1011B000DC019091DD01822393230E94A60808950B
:1011C00021E030E002C0220F331F8A95E2F78091C0
:1011D000DC019091DD01822793270E94A6080895E3
:1011E0002091DC013091DD01822B932B0E94A60817
:1011F00008952091DC013091DD01822393230E9428
:10120000A60808952091DC013091DD018227932703
:101210000E94A60808950895962F9770A1E001C036
:10122000AA0F9A95EAF793E0769567959A95E1F774
:10123000660F771F660F771FFA01E60FF71F40E072
:1012400050E0682F70E090819B01042E02C036951B
:1012500027950A94E2F72170219529272A23292727
:1012600021934F5F5F4F4430510569F70895FB01AB
:10127000782F777023E0969587952A95E1F7880F68
:10128000991F880F991FE80FF91F40E050E080E098
:10129000219130E0072E02C0369527950A94E2F797
:1012A00021703327042E01C0220F0A94EAF7822B03
:1012B0004F5F5F4F4430510559F70895282F9830FC
:1012C00070F4853060F4862F622F70E025E0929FE5
:1012D000600D711D112448EC51E00E940C09089525
:1012E000983070F4853060F4292F90E068EC71E05C
:1012F00035E0239F800D911D11240E943709089528
:1013000080E00895A0E0B0E0E8E8F9E00C94A826B9
:101310007C010091DC011091DD018091DE01909152
:10132000DF01082B192BCFE0D0E0CC24C394D12CC3
:10133000C6010C2E02C0880F991F0A94E2F7802381
:101340009123892B21F4219798F7B12C07C0BC2E4B
:10135000B7018C2F0E946D100197A9F38B2DCDB78B
:10136000DEB7E9E00C94C426CF93DF93EC010E9432
:101370008209BE010E946D10DF91CF9108951F93E5
:10138000CF93DF93EB019091C701992321F0CB011B
:101390000E94B40913C0882349F0CB010E9482093E
:1013A000182F682FCE010E945E0904C0CB010E9455
:1013B0007009182FBE01812F0E946D10DF91CF910F
:1013C0001F9108951F93CF93DF93C091E00116E022
:1013D0008091E101C81799F0D0E01C9FF0011D9F9A
:1013E000F00D1124EE51FE4F4081518162817381D5
:1013F000848195810E946C082196C770E9CFDF91A6
:10140000CF911F9108954091120250911302609163
:1014100014027091150280911602909117020E9499
:101420006C0808952091E0019091E10156E02917A0
:10143000A9F030E0529FF001539FF00D1124EE51BE
:10144000FE4F7181761306C07081781303C07281DC
:10145000741306C02F5F3F4F2770E9CF80E00895D7
:1014600081E008950F931F93CF93DF93809117022C
:1014700082958F7009F05AC080911402882309F474
:1014800055C08091E0011091E101609112027091CC
:101490001302C0911502D091160291E06F3F09F03E
:1014A00090E0292F06E0811709F440C0209721F031
:1014B0007F3F21F030E003C031E001C0322F90E0E7
:1014C00030FD31C0089FF001099FF00D1124DF01AC
:1014D000AE51BE4F11963C911197371324C03C91E9
:1014E000361321C012963C91129731111CC01396ED
:1014F0004D915C9114974C1B5D0B483C510598F441
:10150000809117028F70806180931702E951FE4F1E
:1015100080818F708061808382E192E00E94CE079B
:101520000E94E20903C001968770BDCFDF91CF9181
:101530001F910F910895A1E1B0E0E1EAFAE00C9467
:10154000A5268C0185E0F801DE011D9601900D9223
:101550008A95E1F7D8011296EC90909112022091B1
:10156000130240911502509116024115510531F0B8
:101570002F3F31F481E09F3F19F403C081E001C0A7
:1015800080E080FD5FC1F801C080D18083809480BD
:1015900082E1A82E82E0B82EF0901402B401641B00
:1015A000750BFF2009F41EC180911702382F307F80
:1015B000683C710508F0D8C031118BC0D21214C03C
:1015C000C91212C0FE2CE1100FC08F708061809391
:1015D00017020E94030AC5010E94CE0780911702DC
:1015E000D80115968C9348C18114910439F0BFEF4E
:1015F000DB1206C081E0CB1203C003C081E001C052
:1016000080E080FD03C081E08E2502C080E090E094
:1016100080FF10C04E2D6D2D8C2D0E94120A882344
:1016200049F082E192E00E94CE07E2E1F2E086E03A
:10163000DF01AAC08114910439F0BFEFDB1206C0AC
:1016400081E0CB1203C003C081E001C080E080FDD7
:1016500003C081E08E2502C080E090E0E82FE170B9
:10166000BE2E80FF2CC04E2D6D2D8C2D0E94120A97
:10167000F82E811124C0CD86DE868D859E850E9440
:10168000B409292F22952F70223018F0243090F4BD
:1016900005C09F7059F0811109C0EEC09F7031F0F4
:1016A000D80115969C91907F09F4E6C0805E883041
:1016B00008F4E2C0C8010E94CE07FB2CDDC0FE2C5E
:1016C000EE2009F4D9C0809117028160809317023F
:1016D00060C0D21212C0C91210C0E1100EC0F801D1
:1016E0008583C8010E94CE0786E0F801A2E1B2E03E
:1016F00001900D928A95E1F7BDC0C8010E9447088C
:10170000882361F1EE2051F120911702822F8295FA
:101710008F7090E0029774F0809112029091130202
:1017200098878F8319869B868A862C87CE01079699
:101730000E94CE0786E0F801A2E1B2E001900D928E
:101740008A95E1F70E94320A0E94030A0AC0D21663
:1017500011F1C8010E94470881112CC0C8010E94E4
:10176000CE07FF24F39488C03111F1CF782D998AE8
:10177000888AA6016E2D89890E94620882E192E022
:101780000E94CE0786E0D5011D928A95E9F70E9456
:10179000030AF12C71C0C912DCCFE110DACFF801D5
:1017A0008583C8010E94CE0786E0D5011D928A95E7
:1017B000E9F762C0EE2091F220911702822F829504
:1017C0008F7090E002970CF4B5CF80911202909147
:1017D00013029A8389831B829D828C822E83CE0181
:1017E0000196A6CF683C7105F8F4FE2CEE2009F4B2
:1017F000B5CFD2120BC0C91209C086E0F801A2E130
:10180000B2E001900D928A95E1F736C0C8010E94BE
:10181000470881118FCF8091170281608093170252
:10182000C8010E94CE0728C0782D998A888AA6010F
:101830006E2D89890E94620886E0F50111928A95D1
:10184000E9F718C0EE2009F489CFC8010E944708C3
:10185000F82E882309F482CF86E0F801A2E1B2E0F5
:1018600001900D928A95E1F782E192E00E94EE04E8
:101870000E94320A0E94030A8F2D6196ECE00C94BC
:10188000C126ACE0B0E0E7E4FCE00C94AE264F8368
:10189000588769877A878B879C87CE0107960E9435
:1018A0009B0A8823D1F09F8188852A853B85232B3D
:1018B00031F08F3F31F481E09F3F19F403C081E0A4
:1018C00001C080E080FD47C04F81588569857A85D9
:1018D0008B859C850E946C083EC086E0FE01379691
:1018E000DE01119601900D928A95E1F7FF81E8855E
:1018F0006A857B856115710531F0EF3F31F481E038
:10190000FF3F19F403C081E001C080E080FD23C0E7
:101910002091E10130E0C90101968770992740913B
:10192000E00150E084179507F1F1F983EA837D83A4
:101930006C8396E0929FD001939FB00D1124AE511D
:10194000BE4FFE01319601900D929A95E1F780937A
:10195000E1010E94E20916E08091E0019091E1012D
:10196000891771F1189FC00111248E519E4F0E945A
:101970009B0A882329F1E091E0011E9FF0011124C8
:10198000EE51FE4F40815181628173818481958146
:101990000E946C088091E00190E001968770992781
:1019A0008093E001D9CF0E9427081092E1011092A4
:1019B000E001E2E1F2E086E0DF011D928A95E9F7BD
:1019C0002C96E3E00C94CA2680912002859585959B
:1019D0008595089580912002877008959091200246
:1019E000977081E009F480E0089580912B020895BA
:1019F00090912B02892B80932B02089580959091D2
:101A00002B02892380932B02089580932B02089543
:101A100010922B02089590912A02892B80932A021A
:101A20000895809590912A02892380932A0208952F
:101A300010922A02089580912102089508950E942B
:101A40001E0D08950E941F0D08959091890292FF26
:101A500008C090912102981721F0809321020E94E2
:101A6000220D089580912102882329F010922102ED
:101A700080E00E94220D0895CF93DF93E091000152
:101A8000F091010180912B028083E0910001F0919F
:101A90000101908180912A02892B8083809121020B
:101AA000882381F0E0910001F09101019081892B60
:101AB000808380910001909101010E945C1E811140
:101AC0000E94320DC0910001D091010148E050E028
:101AD00068E172E0CE010E94EA26892B59F088E085
:101AE000FE01A8E1B2E001900D928A95E1F7CE01E6
:101AF0000E94F91DDF91CF9108950E941E0D089557
:101B00009091890292FF11C098E0899F9001112461
:101B1000262B209320020E94BE08809120028595EA
:101B2000859585950E947D0D08950E94BE080895B3
:101B30001092200280E00E947D0D089520912002E5
:101B40008095822380932002982F977099F430E03B
:101B5000482F082E000C550B2417350759F090918B
:101B6000890292FF07C08595859585950E94CE08CC
:101B70000E94980D08959091890292FB222720F9E6
:101B8000281769F080FB92F990938902809188026E
:101B9000909189020E94030E82E00E949E0D08959A
:101BA0008091890282FB882780F991E089270E9431
:101BB000BB0D089581E00E94BB0D089580E00E9456
:101BC000BB0D08956FEF7FEF80E090E00E942C271F
:101BD000089580E090E00E94082721E0873E9E4F14
:101BE00009F020E0822F089582E090E00E94002713
:101BF000089583E090E00E940027089584E090E03B
:101C00000E9408270895BC0184E090E00E942C27E0
:101C10000895AB01BC018FE090E00E942027089559
:101C2000AB01BC0183E190E00E942027089560E0B1
:101C300070E0CB010E94100E089560E070E0CB01CF
:101C40000E94090E0E94170E089567EE7EEF80E055
:101C500090E00E942C2760E082E090E00E940E2736
:101C600060E083E090E00E940E271092DF01109266
:101C7000DE0160E074E184E090E00E942C2760E0E7
:101C800086E090E00E940E276FEF87E090E00E94D0
:101C90000E2740E050E0BA0188E090E00E94202743
:101CA00060E08DE090E00E940E2740E050E0BA0135
:101CB00088E190E00E94202760E087E190E00E94A8
:101CC0000E2740E050E0BA018CE190E00E9420270E
:101CD00060E070E080E290E00E942C2740E050E05D
:101CE000BA0188E190E00E9420270E941D0E08950D
:101CF0000E94250E08958EE090E00E94002791E05A
:101D0000811101C090E0892F0895682F8EE090E046
:101D10000E940E2708950E946E1F60933A027093EE
:101D20003B0280933C0290933D0260933602709395
:101D30003702809338029093390208950E948713E6
:101D4000089508950E94A10E08950E94A10E08957D
:101D50000E94A50E08950E94A10E08950E94AB0E48
:101D600008950E94A10E089581E991E10E94D81D75
:101D70000E94B10E0E94AE0E08950E94A20E0E9413
:101D8000A10E08950E94BC110E9481040E94AA180D
:101D900008950E94591F0E9451110E949F130E9492
:101DA000B7120E94C20E0E9433180E94AF130E9405
:101DB000A80E0895AAE0B0E0E0EEFEE00C94A7269D
:101DC0000E940C138EE2E82E82E0F82E670100E0FC
:101DD000F60111916F01802F0E94DA1181270F5FA8
:101DE000083019F08823A1F322C0811120C00E947D
:101DF000621F8C0180912C0290912D020817190707
:101E000009F450C08FEF89838A831B820E94621F6E
:101E10008160782F9D838C8349815A816B818D816C
:101E20000E94AD0410932D0200932C023BC08091C0
:101E30003E0281FD0E94E0110E949E0EA82E10E03D
:101E4000812F0E94DA11B82EF701C080C82611F147
:101E500000E0DD24D3948C2D8D21B1F0AA20A1F0D7
:101E60000E831F8391E08B2D8D2109F490E09887DC
:101E70000E94621F8160782F9A8789874E815F81D7
:101E800068858A850E94AD040F5FDD0C053019F767
:101E9000F701B0821F5FFFEFEF1AFF0A183081F6DB
:101EA0000E948B0E0E9487130E9433170E94940495
:101EB0002A96EAE00C94C326CF93DF930E94721017
:101EC000EC01811520E59207E0F5811530E49307D8
:101ED00008F09FC0803E910528F58D3C910508F0E3
:101EE00096C0883A910570F4853A910508F085C04E
:101EF0008130910509F47EC008F4DCC0049708F035
:101F0000DCC0D8C0813C910508F0D4C0C85AD0E0EC
:101F1000CC0FDD1FC757DE4F0990D881C02DCE01F1
:101F20009464CCC0811540E2940708F0B8C08115D4
:101F300051E0950708F0C1C0883E910508F4BDC086
:101F4000B9C0803662E5960720F5803472E59707C0
:101F500008F06CC0C03282E5D80708F05EC0C11539
:101F600092E5D90708F489C02C2F2695269560E2C2
:101F7000269F90011124C37081E090E002C0880F79
:101F8000991FCA95E2F7E901C82BD92BCE019D68AC
:101F900095C0803A22E59207E0F48F71C03832E5AF
:101FA000D30708F059C08695869570E2879F900107
:101FB00011249C2F9370C1E0D0E0AE0102C0440F09
:101FC000551F9A95E2F7EA01DA68C9018C2B9D2B1F
:101FD00075C0803C42E5940708F445C0803E9245B8
:101FE00008F068C0CF71DD27DC2FCC27CE01806FD1
:101FF000906A64C081E090E061C0C55AD0E0C554E9
:10200000DE4F8881C82FD0E0CE01906457C0906524
:1020100055C0DF70CE01906A51C0CF718C2F90E017
:10202000D82FCC27CE01816F906A48C08F718695DA
:10203000869570E2879FA00111249C2F937021E068
:1020400030E0B90102C0660F771F9A95E2F7CB0125
:102050009C68842B952B32C090E0D82FCC27CE01E2
:10206000846F906A2BC08F710E940E118F7190E067
:10207000D82FCC27CE01906221C08C2F8F710E9467
:102080000E1195E0D695C7959A95E1F7CF70D0E0FF
:10209000DC2FCC27D069BE01682BCB010FC08D2F60
:1020A0008F710E940E11DD27D0628F719E01382B37
:1020B000C90104C080E090E001C0CE01DF91CF9162
:1020C0000895783038F4653028F4462F672F0E9441
:1020D0000803089580E090E008950E9461100E9436
:1020E0005C0F08958238910569F1B0F48133910550
:1020F00009F475C048F48932910509F467C08A3241
:10210000910509F471C008958533910509F459C00A
:1021100089339105B9F00895833E910589F138F42A
:10212000803E9105D1F0823E910529F10895863EC9
:102130009105C9F1873E9105D9F1843E910509F0D9
:102140006CC027C02091880220FD57C021FD55C0DA
:102150002091890223FD5BC008958091880280FD53
:1021600048C08091890280FF48C08091880284FD28
:1021700046C083EE51C08091880282FF3CC0F5CFFB
:102180008091880282FD37C08091890280FD35C030
:10219000ECCF8091890281FF36C08091880284FD56
:1021A0002EC087EE39C08091880283FF2AC0F5CF08
:1021B0008091880283FD25C08091890281FD23C022
:1021C000ECCF8091880285FD22C01FC080918802DB
:1021D00085FD1BC08091890283FF19C00AC08091D0
:1021E000880286FD16C017C08091880286FD13C044
:1021F00010C089E311C082EE0FC080EE0DC080E0F8
:102200000BC086EE09C084EE07C085E305C089E2F5
:1022100003C08AE201C081E390E0089590918802B2
:1022200092FF0DC0282F2871283019F4877F846011
:1022300006C0282F2471243011F48B7F886093FF0F
:102240000DC0282F2871283119F4877E846106C0BB
:10225000282F2471243111F48B7E8861209189020A
:1022600020FF0DC0382F3871383019F4877F816016
:1022700006C0382F3171313011F48E7F886021FF14
:102280000DC0282F2871283119F4877E816106C07E
:10229000282F2171213111F48E7E886194FD877E73
:1022A0000895109284021092850210928602109274
:1022B00087020895CF92DF92EF92FF926B017C012B
:1022C0000E94871381110EC00E946E1FC61AD70A82
:1022D000E80AF90AC0928402D0928502E09286024E
:1022E000F0928702FF90EF90DF90CF9008950F93C8
:1022F0001F930E948713882319F00E946E1F0EC03F
:102300000E946E1F00918402109185022091860226
:1023100030918702600F711F821F931F1F910F91D1
:10232000089580E008950E94E20D0895CF930E94E1
:102330000C138FE39CE90197F1F700C000000E94A5
:102340000C130E948413811102C0C4E001C0C0E0DC
:102350008C2F0E94DA1190E002C095958795CA955E
:10236000E2F780FF04C00E9493110E94CB1FCF911F
:1023700008950E94961108950E94E90D811102C0EE
:102380000E94780E0E94F40D80933E020E94FE0D82
:1023900090938902809388020E94B9110E94F90DDE
:1023A00090E00E9485088091DC019091DD010E94FF
:1023B000A3080895E82FF0E0ED56FD4F80810895C1
:1023C000089508950E94E11108950E94E211089570
:1023D0000E94E11108950E94E81108950E94E11100
:1023E0000895A4E0B0E0E7EFF1E10C94AD260E947F
:1023F000871360919B028823E9F119821A821B825C
:102400001C82862F90E08E010F5F1F4FB8018D5602
:102410009D4F0E94BD13882389F080918A0290E02D
:1024200044E050E0B8018D569D4F0E94EA2621E01D
:1024300020933F02892B69F410E019C080913F027C
:102440008823D1F384E0F80111928A95E9F710927C
:102450003F02E0918A02F0E0ED56FD4F89819A81BA
:10246000AB81BC8180839183A283B38311E00E94FE
:10247000E7030DC070E06D567D4F80918A0290E0B9
:102480008D569D4F0E9446140E94EE1110E0812F40
:102490002496E4E00C94C926CF93DF9342E051E008
:1024A000A1E0B0E020E030E0FA01E20FF31F80810C
:1024B0008F3FA1F0E82FE295EF70F0E061A18F70FF
:1024C000ED0102C0CC0FDD1F8A95E2F7CE019C2FF3
:1024D0009095962391A392A1892B82A32F5F3F4FC2
:1024E0002530310509F74B5F5F4FD1E046315D077D
:1024F000C9F6DF91CF9108950F931F93CF93DF9388
:10250000EC01062F10E085E0689FB001112440E047
:1025100050E0B1E0A0E0CA01860F971F8E5F9E4F8A
:10252000FC0190819F3FA1F0292F22952F7030E070
:10253000F90120A130E09F7002C0359527959A954A
:10254000E2F720FD02C08B2F02C080E090E0A82BB4
:10255000BB0F4F5F5F4F45305105E9F6F801EC0FB7
:10256000FD1FA083DF91CF911F910F910895A4E1EA
:10257000B0E0EDEBF2E10C94AF26809116018111F1
:1025800025C084E1E0E4F1E0DE01119601900D92B6
:102590008A95E1F7CE01019642E051E0BE016B5E03
:1025A0007F4F20E030E0FA01E20FF31FDC01A20FC1
:1025B000B31FAC91A0832F5F3F4F2530310599F7B2
:1025C00005964B5F5F4F8617970759F78091160165
:1025D000811102C094E001C090E090939B0284E0DE
:1025E000891B80938A020E944C1288E0E3E9F2E0A2
:1025F000DF01982F1D929A95E9F7EBE8F2E0DF01F1
:102600001D928A95E9F784E00E944A130E94E40330
:102610006496E2E00C94CB26A8E0B0E0E2E1F3E1BE
:102620000C94AC268E010F5F1F4F88E0F8011192C9
:102630008A95E9F7F12C6F2DC8010E947C12F39462
:10264000F4E0FF12F8CF48E050E0B8018BE892E0E8
:102650000E94EA2621E0009709F420E0892B41F04E
:1026600088E0F801ABE8B2E001900D928A95E1F7BD
:1026700060919B0270E06D567D4F44E08BE892E0E4
:102680000E944B13182F0E94F111812B2896E5E030
:102690000C94C8260895EF92FF920F931F93CF9347
:1026A000DF937C018B01C42F222349F081E08093CA
:1026B00042020E94621F90934102809340028091E7
:1026C0004202811102C080E01AC0809140029091C4
:1026D00041020E947A1F0597B0F3D0E0AE01B70126
:1026E000C8010E94EA26892B39F0AE01B701C80162
:1026F0000E94F72681E001C080E010924202CDB72F
:10270000DEB7E6E00C94C7260E947B0E0895809108
:10271000450281110DC00E947826811102C082E01D
:1027200001C081E080934502823011F40E9473263B
:1027300081E090914502913009F080E008950E9477
:10274000E90D811102C00E94780E0E9484138093CB
:1027500016010E94871381110E94F51308950E94AB
:102760008713811102C00E94F813089581E09091AF
:1027700046029A3008F080E008950F931F93CF939C
:10278000DF93EC018B01809146028A3038F4B80166
:10279000CE010E94431481111DC00AC080914302E2
:1027A000909144020E947A1F843F914080F715C0A7
:1027B000809146028F3F19F08F5F8093460280918F
:1027C00046028A3060F00E94621F90934402809318
:1027D000430203C01092460202C080E001C081E0C3
:1027E000DF91CF911F910F9108950E94721C08955F
:1027F0000E94751C0895A0E0B0E0E1E0F4E10C94C3
:10280000AA267901C82F880FDD0B41155105A9F0C3
:10281000FE0193E0EE0FFF1F9A95E1F7E95EFE4F90
:1028200081819281895B9D4F208130E0421753075F
:1028300008F49A01A9010E94F726CE010E945D1DAD
:10284000D82E8823D1F001151105B9F083E0CC0F03
:10285000DD1F8A95E1F7FE01E95EFE4F438150E0FE
:102860000417150708F4A801C95EDE4F6C817D814D
:10287000695B7D4FC7010E94F7268D2DCDB7DEB76E
:10288000E7E00C94C6260E94401508950E94571553
:102890000895A4E0B0E0EFE4F4E10C94AD2660917B
:1028A0005C0270915D0280915E0290915F020E94D5
:1028B000891F643671058105910528F10E94771101
:1028C000DC01CB010296A11DB11D89839A83AB83E4
:1028D000BC8300E010E020E030E044E050E0BE01C6
:1028E0006F5F7F4F82E00E94FB13182F882361F0F7
:1028F0000E946E1F60935C0270935D0280935E0283
:1029000090935F0201C011E0812F2496E4E00C94C3
:10291000C926A0E0B0E0EFE8F4E10C94A7267C0122
:102920005B016A010E94B613811103C001E010E04F
:1029300002C00AE010E0C1E0D0E0B501C701F60135
:102940000995811115C021960C171D0794F0CC9F95
:102950009001CD9F300D300D112480E090E045E3D3
:102960004A95F1F70000019682179307C1F7E5CF6A
:1029700081E0CDB7DEB7EAE00C94C326A5E0B0E075
:10298000E4ECF4E10C94A7265B01E090BE01F0902A
:10299000BF0101E010E09E012B5F3F4F40E050E09F
:1029A00060E070E080E00E94FB13182F882309F498
:1029B0003EC067018FEFC81AD80A60915802709123
:1029C000590280915A0290915B020E94891F6436DD
:1029D00071058105910518F104E010E09E012F5F5B
:1029E0003F4F40E050E060E070E081E00E94FB1368
:1029F000182F64E070E0C6010E94341891E02D8128
:102A0000281390E0192351F10E946E1F6093580221
:102A10007093590280935A0290935B0211C064E054
:102A200070E0C6010E9434189D818913D5CFF7014B
:102A300081819281A381B48189839A83AB83BC8392
:102A4000112361F089819A81AB81BC81809354020A
:102A500090935502A0935602B0935702809154026E
:102A600090915502A0915602B0915702F5018083D2
:102A70009183A283B383812F2596EAE00C94C32629
:102A80000F931F93CF93DF93EC018B014EEB54E137
:102A90000E948914882331F049E454E1B801CE0141
:102AA0000E948914DF91CF911F910F9108950F9388
:102AB0001F93CF93DF93C091BE01D091BF01CE0190
:102AC000019624E0FB01DC0101900D922A95E1F7CB
:102AD00064E070E00E94341888836D817E818F816C
:102AE000988500915002109151022091520230912C
:102AF0005302601771078207930751F060935002E9
:102B00007093510280935202909353020E945A1183
:102B1000DF91CF911F910F9108950E9446210E944D
:102B2000C90E0E94532108950E9458210E94DA0E76
:102B30000E94722108950E94F91E0E942C210E9479
:102B4000B40E0E948D150E9494150E94BD0EFBCFFD
:102B50008091660280FF06C06091340170E0660FCC
:102B6000771F26C081FF04C06091340184E005C056
:102B700082FF07C06091340188E0689FB001112492
:102B800017C0909165029923D1F060913301961797
:102B900088F72091340188E0289F90011124929FAA
:102BA000A001939F500D112470E0CA010E94852658
:102BB0006038710540F46115710519F406C068E0CC
:102BC00070E0862F08958FE7089581E00895809141
:102BD000660280FF08C06091300170E075956795CE
:102BE0007595679521C081FF06C06091300170E046
:102BF0007595679519C082FF04C06091300170E03F
:102C000010C090916402992399F060912F0196175A
:102C1000A0F780913001899FC001112470E00E94CB
:102C200085266038710540F46115710519F406C0F8
:102C300061E070E0862F08958FE7089581E00895A0
:102C40008D3C21F40E94A815819504C08E3C29F486
:102C50000E94A81580936A0208958F3C21F40E9477
:102C6000A815819504C0803D29F40E94A815809381
:102C700069020895893D19F40E94E71505C08A3D4F
:102C800031F40E94E715819580936B0208958B3D86
:102C900021F40E94E715819504C08C3D29F40E941F
:102CA000E71580936C0208959FE2980F983078F4AE
:102CB00021E030E0A90102C0440F551F9A95E2F7C8
:102CC000CA0190916802892B8093680208958D3D16
:102CD00021F48091660281600BC08E3D21F48091C9
:102CE0006602826005C08F3D29F48091660284608F
:102CF0008093660208958D3C39F490916A0297FFA3
:102D000035C010926A0259C08E3C29F490916A0233
:102D10001916BCF32BC0909169028F3C29F497FFE0
:102D200025C01092690249C0803D19F41916CCF3F0
:102D30001DC090916B02893D29F41916BCF41092C4
:102D40006B023BC08A3D19F497FF10C0F8CF8B3D52
:102D500039F490916C0297FF09C010926C022DC05B
:102D60008C3D21F490916C021916BCF39FE2980FF0
:102D7000983080F421E030E0A90102C0440F551FD3
:102D80009A95E2F7CA018095909168028923809311
:102D9000680213C08D3D21F4809166028E7F0BC0C6
:102DA0008E3D21F4809166028D7F05C08F3D29F410
:102DB000809166028B7F8093660280916902811107
:102DC00006C080916A02811102C010926502809152
:102DD0006B02811106C080916C02811102C01092B9
:102DE000640208950E94621F20916902211104C0AB
:102DF00020916A02222321F0909363028093620261
:102E000020916B02211104C020916C02222321F039
:102E1000909361028093600287E692E00E94041E14
:102E20000895E7E6F2E086E0DF011D928A95E9F772
:102E30001092650210926402109266020895FC01DD
:102E4000828181110DC0838181110AC08481811129
:102E500007C091E08581811101C090E0892F01C0F8
:102E600081E081700895A6E0B0E0E9E3F7E10C9419
:102E7000AE2686E0E7E6F2E0DE01119601900D92C3
:102E80008A95E1F71092690210926A0210926B0221
:102E900010926C028B81811104C08C81882309F40B
:102EA0005FC080916202909163020E947A1FAC0120
:102EB00090916502992339F02091350130E0241773
:102EC000350758F04DC0209136018AE0289F9001C7
:102ED00011242417350718F043C09F3F19F09F5F56
:102EE000909365021B81112361F00E94A8151116B1
:102EF00014F09FEF01C091E0989F902D11249093C2
:102F000069021C81112361F00E94A815111614F0AA
:102F10009FEF01C091E0989F902D112490936A0239
:102F2000309169023323E1F020916A022223C1F03B
:102F300045EB3403C0011124992319F090936902E1
:102F400003C081E08093690235EB2303C0011124A3
:102F5000992319F090936A0203C081E080936A027A
:102F60008D81811104C08E81882309F45FC0809116
:102F70006002909161020E947A1FAC0190916402FC
:102F8000992339F02091310130E02417350758F0AA
:102F90004DC0209132018AE0289F9001112424170E
:102FA000350718F043C09F3F19F09F5F909364026C
:102FB0001D81112361F00E94E715111614F09FEF97
:102FC00001C091E0989F902D112490936B021E8177
:102FD000112361F00E94E715111614F09FEF01C054
:102FE00091E0989F902D112490936C0230916B0288
:102FF0003323E1F020916C022223C1F045EB34032E
:10300000C0011124992319F090936B0203C081E051
:1030100080936B0235EB2303C0011124992319F02F
:1030200090936C0203C081E080936C02BE016F5FDD
:103030007F4F87E692E00E94AB1E811105C087E6B4
:1030400092E00E941F1781110E94F21686E0FE0195
:103050003196A7E6B2E001900D928A95E1F72696A7
:10306000E3E00C94CA260895FC01680F791F8FEFE6
:1030700091E3E617F70771F02191822728E030E00D
:1030800087FF03C0880F892701C0880F21503109AD
:10309000B9F7EFCF0895FB012281222341F097FF7A
:1030A00006C0BC017F7780E090E00E949E1981E01D
:1030B00008950F931F93CF93DF93EC018B01FB01D6
:1030C0008281882329F10E94F50C8272FE01E0536F
:1030D000FC47E830F105E0F4EE59FF4F0C949926D7
:1030E000882329F002C0811102C08FEF01C081E066
:1030F0000E94BC180DC080E009C081E007C082E0DA
:1031000005C083E003C084E001C085E00E94C418CC
:10311000B801CE010E944B18DF91CF911F910F9102
:10312000089590919D02923071F48A3040F490E0BD
:1031300009966AE070E00E948526875A01C0865091
:103140000E94A40508950E94341B089508950E94CA
:10315000A61808958CE090E00E94002790E0A0E07F
:10316000B0E080939D0290939E02A0939F02B09343
:10317000A0020E94A7180895089560919D028CE016
:1031800090E00E940E270895CF93C82F80939D0250
:103190000E94BD188C2F0E94A718CF9108950E94FD
:1031A000F61D80939C0290919D02913029F481FF3D
:1031B00003C089E30E94A4050E94F50C8093A1023C
:1031C0000E94080D0E94180D80919D028230D9F056
:1031D00038F48823A1F0813089F588E193E02CC090
:1031E000843019F1853051F58BE191E00E948A031A
:1031F00085E290E00E948A0388E290E01DC082EEA2
:103200000E94FE041BC080919C0280FD03C083E5E8
:103210000E94A40582EE0E94FE048FE39CE90197C0
:10322000F1F700C0000087E504C086EE0E94A40507
:1032300088E10E94A40502C00E948A038FE39CE9F2
:103240000197F1F700C00000089580919D0282303F
:10325000E1F028F4882361F0813071F023C08430DC
:10326000F9F08530F9F488E290E00E948A031AC0F0
:1032700082EE0E94540516C08CE20E94A405809143
:103280009C0281FF0FC089E308C082EE0E945405B2
:1032900080919C0280FD06C083E50E94A40502C0C7
:1032A00088E2FBCF8091A1020E94050D08958F92C4
:1032B0009F92AF92BF92EF92FF920F931F93CF9383
:1032C000DF934B015C01D0919D028CE1E82EF12C43
:1032D00007E010E021E0D501C4010E2C04C0B69532
:1032E000A795979587950A94D2F7C82FCF70222378
:1032F00069F0D43031F4CA3020F080E00E94911897
:1033000005C0C11103C00430110524F48C2F0E94A4
:10331000911820E00150110984E0E81AF1080F3FEC
:103320008FEF1807C1F6DF91CF911F910F91FF909A
:10333000EF90BF90AF909F908F900895CF92DF92C3
:10334000EF92FF926115710521E18207910508F066
:103350003FC06115710521E08207910520F02091A1
:103360009D022230A9F16B017C010E94CF18C1148B
:10337000D10481E0E806F10428F180919D028111D9
:1033800021C021E0E21AF108D701C60188279C7FFD
:10339000AF70BB272AE0B695A795979587952A9594
:1033A000D1F7BC01CD0178528F4F9F4F0E94571922
:1033B00083E0D822EE24FF24C701B60174528F4F58
:1033C0009F4F02C0C701B6010E9457190E942519DC
:1033D000FF90EF90DF90CF900895CF93DF93FC01A3
:1033E000DB0112968C91882309F4DDC09F013057D0
:1033F0002332310508F0D8C0EF010E94FE0D9093F2
:10340000890280938802FE01E150F047E232F10523
:1034100020F4E659FF4F0C94992680918802816030
:10342000AAC0809189028860B2C0809188028260BF
:10343000A2C08091880220C08091880288609BC0D1
:10344000809189021EC0809189028260A0C0809113
:103450008802806190C08091880280628CC08091D7
:103460008802806488C00E94270880918802806852
:1034700082C080918802886084607DC080918902CA
:103480008260816084C0809188028E7F74C0809148
:103490008902877F7CC0809188028D7F6CC080917B
:1034A000880220C080918802877F65C08091890250
:1034B0001EC0809189028D7F6AC0809188028F7EB4
:1034C0005AC0809188028F7D56C0809188028F7B80
:1034D00052C00E942708809188028F774CC080914B
:1034E0008802877F8B7F47C0809189028D7F8E7F86
:1034F0004EC08091880282FB222720F991E092271A
:1035000090FB82F990FB83F936C080918902982F55
:10351000909591708E7F892B90FB81F938C08091B6
:10352000880286FB222720F991E0922790FB86F9FA
:1035300022C00E9427088091880287FB222720F959
:1035400091E0922790FB87F916C081E001C080E0EE
:103550000E94850E1EC08091880284FB222720F9DC
:1035600091E0922790FB84F906C080918802982F01
:10357000909590FB80F9809388020BC0809189021E
:1035800083FB222720F991E0922790FB83F9809317
:10359000890280918802909189020E94030E0E9404
:1035A000270880E001C081E0DF91CF910895A0E07D
:1035B000B0E0EDEDFAE10C94AA26E82FF0E0E65435
:1035C000FC4FD490282F26952695269530E0F901BA
:1035D000E65AFB4F0491877010E0082E02C0159543
:1035E00007950A94E2F701701127F901E65BFB4F9A
:1035F000E490F12C082E02C0F594E7940A94E2F7C7
:1036000091E0E922FF24F901E65CFB4FC491D0E090
:1036100002C0D595C7958A95E2F7C170DD270115DF
:10362000110519F081EE0E94FE04E114F10419F075
:1036300086EE0E94FE048D2D0E94A405E114F10483
:1036400019F086EE0E9454050115110519F081EE5E
:103650000E945405CD2B19F08CE20E94A405CDB731
:10366000DEB7E7E00C94C626982F9F709A509630EC
:1036700010F0805D01C0895A0E94D71A0895CF9337
:10368000DF9386319C4741F5EB010E94F50C982FA2
:103690008A812091000130910101882379F09A7A82
:1036A00081E009F480E080936D02911102C069E22B
:1036B00001C065E3C9010E949E1E0AC080916D028F
:1036C000811102C069E201C065E3C9010E94A11E27
:1036D0000E943C0D80E001C081E0DF91CF91089510
:1036E0000F931F93CF93DF93C42FD22FFC018281BE
:1036F0008823B1F0409370020E94621F90936F0282
:1037000080936E0280E28C0F883008F04DC0C77045
:1037100081E001C0880FCA95EAF70E94AE0544C057
:1037200080917002481330C080916E0290916F02B8
:103730000E947A1F883C910538F510E21D0FCD17C5
:10374000B9F080E28C0F883040F4C77081E001C08E
:10375000880FCA95EAF70E94B505183010F581E088
:103760009D2F977001C0880F9A95EAF70E94AE05C9
:10377000802F0E94A4051830B8F4D77081E001C0F2
:10378000880FDA95EAF70AC080E28C0F883060F47F
:10379000C77081E001C0880FCA95EAF70E94B5059D
:1037A00003C0802F0E94A405DF91CF911F910F913C
:1037B00008950F93FC01E851FC47E730F10590F5BF
:1037C000CB01E457FF4F0C94992606E221EE41EE1F
:1037D0006AE17CE723C007E225EE45EE6BE17CE77A
:1037E0001DC006E221EE40EE68E17CE717C007E26B
:1037F00025EE44EE69E17CE711C006E221EE42EEDF
:103800006CE17CE70BC007E225EE46EE6DE17CE75C
:1038100005C008E221E045EE6EE17CE70E94701BE6
:1038200080E008C0FB018281882319F010927002A9
:1038300001C081E00F9108958EE14A9B02C0815042
:10384000E1F74A9BFECF08955A9880E28A95F1F7F6
:103850005A9A0895FC012AE02A95F1F728E090E0B1
:1038600080E031E040E14A95F1F7880F4A9B02C0C1
:103870008160932700C0000040E14A95F1F7215094
:1038800089F720E12A95F1F729B100C0000030E165
:103890003A95F1F722FB222720F992272081920FF7
:1038A00090830895A1E0B0E0E8E5FCE10C94AB263C
:1038B00019828C017C01E60EF11C0E151F0551F0DA
:1038C0000E941C1CCE0101960E942A1CF8018193C3
:1038D0008F01F3CF81E09981911180E02196E6E09C
:1038E0000C94C726529A5A9A089552985A9AEA9A6C
:1038F000E9E6F0E080818F7C80830895615091E05B
:1039000001C0990F6A95EAF720E031E0992361F050
:10391000492F482319F05A9A232701C05A9840E2A8
:103920004A95F1F79695F2CF222311F05A9A01C0E9
:103930005A9880E28A95F1F75A980895FF920F936A
:103940001F93CF93DF93EC018C01060F111DC0175D
:10395000D10741F0F9900E94241C68E08F2D0E944D
:103960007E1CF5CFCDB7DEB7E5E00C94C8261F92DC
:103970000F920FB60F9211240F931F932F933F9323
:103980004F935F936F937F938F939F93AF93BF9367
:10399000EF93FF93CF93DF931F92CDB7DEB71982DA
:1039A0000E941C1CCE0101960E942A1C082F06951D
:1039B00006950695902F96959570202F2570920F5D
:1039C000292F237096959695920F877089135FC063
:1039D000898181115CC0043008F059C080E18A956A
:1039E000F1F75A9A529A82E08A95F1F700C05A98F4
:1039F00088E0089F80011124D801A95EBE4F169669
:103A0000ED91FC9117973097A9F06091BE017091EC
:103A1000BF0114962D913C911597260F371F1196D3
:103A20008D919C911297680F791F13964C91139763
:103A30008C910995F801E95EFE4F6381662351F090
:103A40008091BE019091BF0124813581820F931F27
:103A50000E949E1C0E94241C80E18A95F1F75A98CE
:103A600052985A9A80E18A95F1F7F801E95EFE4F83
:103A70006081662351F08091BE019091BF01218148
:103A80003281820F931F0E94521C0E941C1C0F90B7
:103A9000DF91CF91FF91EF91BF91AF919F918F9166
:103AA0007F916F915F914F913F912F911F910F9156
:103AB0000F900FBE0F901F9018950F931F93CF93E9
:103AC000DF93843091050CF06DC0EC01F894529AAC
:103AD0005A9885E08A95F1F700009C2F969595708D
:103AE0002C2F2570920F892F83709695969523E041
:103AF000CC0FDD1F2A95E1F7980F8E01092B0E944C
:103B0000241C84E08A95F1F700C068E0802F0E94B1
:103B10007E1C80E18A95F1F752985A9A4A9902C020
:103B200000C0FCCF87E090E04A9B08C0019721F4D9
:103B3000529A5A9A789436C000C0F6CFFE01E95ED8
:103B4000FE4F6381662381F08091BE019091BF0199
:103B500024813581820F931F0E94521C811104C061
:103B6000529A5A9A78941FC00E941C1C80E28A952F
:103B7000F1F75A98529A80E18A95F1F7C95EDE4FC3
:103B80006881662351F08091BE019091BF01298127
:103B90003A81820F931F0E949E1C0E94241C7894DD
:103BA00081E001C080E0DF91CF911F910F910895D6
:103BB0009093C1018093C001089590937702809300
:103BC000760208950E948713811103C080917102CB
:103BD0000895E0917602F0917702309729F00190F4
:103BE000F081E02D0995089580E008950E94E21D7E
:103BF0000895E0917602F0917702309721F00280EB
:103C0000F381E02D09950895E0917602F091770215
:103C1000309739F022E0DC012C930480F581E02D0F
:103C200009950895A3E0B0E0E8E1FEE10C94AF2629
:103C3000209174023091750228173907A1F09093F2
:103C4000750280937402E0917602F09177023097CA
:103C500051F023E029839B838A830680F781E02D3E
:103C6000CE01019609952396E2E00C94CB26A3E0C1
:103C7000B0E0EDE3FEE10C94AF26209172023091AA
:103C8000730228173907A1F0909373028093720290
:103C9000E0917602F0917702309751F024E0298389
:103CA0009B838A830680F781E02DCE0101960995DA
:103CB0002396E2E00C94CB26FC01329697E080E05C
:103CC000915029F021912223D9F38F5FF9CF0895E4
:103CD000662349F0FC01329608962191621729F07B
:103CE000E817F907D1F780E0089581E008959C0175
:103CF000FC0132969FEF80E04191461789F09F3F8B
:103D000019F4411101C0982F8F5F8630A9F79F3FAA
:103D100039F0F901E90FF11D97FDFA9562830895D5
:103D200008959C012A5F3F4FFC014281461301C068
:103D30001282019682179307B9F708950E94771EA1
:103D400008950E94911E0895029626E0FC011192AA
:103D50002A95E9F7089546E050E00E94EA2621E01E
:103D6000892B09F420E0822F089508950E94B51E42
:103D7000089583E0809378020E94B61E0895811111
:103D800002C081E001C082E0809378020E94B61EEA
:103D900008950E94BF1E089581E0809378020E94DA
:103DA000B61E08950E94CC1E089508950E94D51E47
:103DB00008950E94D61E08950E94D51E08950E945F
:103DC000D51E08950E94D51E0895CF930E94DF1E30
:103DD0000E940C130E94DC1EC0E08C2F0E94DA119E
:103DE000811104C0CF5FC830C1F701C081E0CF911D
:103DF000089585B7806885BF85B7806885BF0895B9
:103E00001F920F920FB60F9211248F939F93AF932F
:103E1000BF9380917902811113C08091A202909189
:103E2000A302A091A402B091A5024196A11DB11DCB
:103E30008093A2029093A302A093A402B093A50240
:103E4000BF91AF919F918F910F900FBE0F901F90D8
:103E500018958091AA02843031F10E946104109279
:103E6000790220E488E190E00FB6F894A895809359
:103E700060000FBE2093600083B7817F846083BFA2
:103E800083B7816083BF7894889583B78E7F83BF23
:103E90000FB6F894A89580916000886180936000C7
:103EA000109260000FBE08950E9427080E946604C9
:103EB000089582E084BD93E095BD9AEF97BD80930D
:103EC0006E0008952FB7F8948091A2029091A302FA
:103ED000A091A402B091A5022FBF08952FB7F89426
:103EE0006091A2027091A3028091A4029091A50218
:103EF0002FBF08959C014FB7F8948091A202909132
:103F0000A302A091A402B091A5024FBF821B930B04
:103F10000895CF92DF92EF92FF922FB7F894C0905E
:103F2000A202D090A302E090A402F090A5022FBFBD
:103F3000A7019601261B370B480B590BCA01B90183
:103F4000FF90EF90DF90CF90089578941F920F929A
:103F50000FB60F9211248F939F93AF93BF938091CD
:103F6000A2029091A302A091A402B091A502019691
:103F7000A11DB11D8093A2029093A302A093A4025D
:103F8000B093A502BF91AF919F918F910F900FBEFB
:103F90000F901F90189587E797E7909301088093FB
:103FA00000089AE088E10FB6F894A8958093600025
:103FB0000FBE90936000FFCF9AE088E10FB6F894AF
:103FC000A895809360000FBE90936000FFCF809112
:103FD000820208959B019091AA029430F1F48F70AF
:103FE0008093E9008FEF9091E800815095FD06C025
:103FF00095ED9A95F1F700008111F5CF8091E800D9
:1040000085FF0BC0BA01C90140E050E00E94E521E4
:104010008091E8008E778093E800089543E050E0B7
:10402000BC0182E00E94EA1F089546E050E0BC0116
:1040300082E00E94EA1F0895CF93DF93EC0148E0ED
:1040400050E0BC0181E00E94EA1F88E0FE01AAE77F
:10405000B2E001900D928A95E1F7DF91CF9108953A
:104060008091A902811109C00E9470230E94CD2372
:104070008091E20084608093E20008951092A9028A
:1040800008950E94D21E08956091A60281E06111F8
:1040900001C080E00E94B91E08959091AA0281E0BB
:1040A000943009F080E06091A6020E94BF1E08953E
:1040B00042E061EC81E00E94E92242E261EC82E0B0
:1040C0000E94E9229091AA0281E0943009F080E0F8
:1040D0006091A6020E94C91E08958091AC028330AF
:1040E00009F461C030F4813071F0823009F49BC072
:1040F00008958A3009F487C08B3009F46CC0893088
:1041000009F0A9C020C08091AB02813A09F0A3C098
:104110008091E800877F8093E8008091AF029091C2
:10412000B002892B21F468E08AE792E003C060E0E6
:1041300080E090E070E00E942A228091E8008B7776
:104140008093E80008958091AB02813209F083C02A
:104150008091AF029091B002029708F07CC08091EC
:10416000E800877F8093E8008091E80082FD05C029
:104170008091AA028111F8CF6EC02091F300809146
:10418000F20090E0922B029731F48091F10081309F
:1041900011F0863021F48091F100809382028091A9
:1041A000E8008B7754C08091AB02813A09F053C08C
:1041B0008091AF029091B002892B09F04CC08091A0
:1041C000E800877F8093E8008091E80080FFFCCFC3
:1041D00080913F0137C08091AB028132E1F580913F
:1041E000AF029091B002892BB1F58091E800877FF2
:1041F0008093E8000E941E238091AD0280933F01CE
:104200000E94270808958091AB02813221F58091A8
:10421000E800877F8093E8000E941E238091AE0211
:104220008093830208958091AB02813AA1F480913A
:10423000E800877F8093E8008091E80080FFFCCF52
:10424000809183028093F1008091E8008E778093C3
:10425000E8000E941E23089584B7877F84BF0FB6AD
:10426000F894A89580916000886180936000109216
:1042700060000FBE90E080E80FB6F8948093610074
:10428000909361000FBE0E94CC1E08950E9470237F
:104290000E94CD23E2EEF0E08081846080837894F8
:1042A0000E945826089587E391E00E94DD1D08953D
:1042B0008091AA028530A9F48091AA02853079F410
:1042C0000E94291F8091A8028823B1F30E94E51E55
:1042D000882391F30E94CF210E942708EDCF0E94EE
:1042E000541F089508950E9476210895292F332799
:1042F00023303105C9F060F42130310581F02230DE
:10430000310509F044C08BE390E024E934E043C078
:1043100021323105E1F02232310549F138C082E124
:1043200090E02FEC34E037C099278130910549F0B7
:1043300028F0029761F5EAE6F4E005C0E0E9F4E070
:1043400002C0E6E8F4E0849190E09F0124C061158A
:10435000710541F061307105D1F489E090E02FEBF7
:1043600034E019C089E090E026EA34E014C0611519
:10437000710541F06130710551F48BE790E021EE59
:1043800034E009C080E490E02CE535E004C080E032
:1043900090E020E030E0FA0131832083089580E14D
:1043A00089BD82E189BD09B400FEFDCF8091D800AE
:1043B0008F7D8093D8008091E00082608093E00040
:1043C0008091E00081FDFCCF0895A0E0B0E0EBEE2D
:1043D000F1E20C94A926EC018B017A010E943D23A5
:1043E000811133C0E114F10439F0F701808191812A
:1043F000081B190BC80FD91FC12CD12C0115110591
:1044000019F18091E80085FD16C08091E8008E7753
:104410008093E800E114F10449F0F7018081918173
:10442000C80ED91ED182C08285E00FC00E943D23F4
:10443000882321F30AC089918093F100015011096A
:10444000FFEFCF1ADF0ADACF80E0CDB7DEB7E8E0C2
:104450000C94C5262091B1023091B202261737077D
:1044600048F06115710539F42091E8002E7720930A
:10447000E80001C0B901FC0120E06115710579F186
:104480008091AA028823F1F18530F1F18091E80052
:1044900083FD3CC08091E80082FD2EC08091E80041
:1044A00080FFEBCF2091F3008091F20090E0922BFF
:1044B0006115710551F08830910538F421912093F0
:1044C000F100615071090196F3CF21E0089709F0DE
:1044D00020E08091E8008E778093E800CECF211114
:1044E000CFCF0AC08091AA02882361F0853061F0A5
:1044F0008091E80083FD0AC08091E80082FFF2CF3E
:1045000080E0089582E0089583E0089581E00895B1
:104510002091B1023091B2022617370748F0611599
:10452000710539F42091E8002E772093E80001C04E
:10453000B901FC0120E06115710591F18091AA0299
:10454000882309F440C0853009F43FC08091E80019
:1045500083FD3DC08091E80082FD2FC08091E8007E
:1045600080FFE9CF2091F3008091F20090E0922B40
:104570006115710559F08830910540F4249120931C
:10458000F1003196615071090196F2CF21E0089750
:1045900009F020E08091E8008E778093E800CBCF8F
:1045A0002111CCCF0AC08091AA02882361F0853006
:1045B00061F08091E80083FD0AC08091E80082FFED
:1045C000F2CF80E0089582E0089583E0089581E0CD
:1045D0000895982F973068F59093E900981739F06F
:1045E0007091EC002091ED005091F00003C0242F59
:1045F000762F50E021FD02C09F5FECCF3091EB00A1
:104600003E7F3093EB003091ED003D7F3093ED0025
:104610003091EB0031603093EB007093EC0020930D
:10462000ED005093F0002091EE0027FDE5CF80E0F3
:1046300008958F708093E90081E008958091AB0226
:1046400087FF11C08091E80082FD05C08091AA0219
:104650008111F8CF11C08091E8008B770BC0809159
:10466000AA02882349F08091E80080FFF8CF80916A
:10467000E8008E778093E80008952091E40030915F
:10468000E50095E64091EC00842F817040FF23C047
:104690008091E80080FD1DC08091AA02882399F0D6
:1046A000853099F08091EB0085FD11C04091E400C8
:1046B0005091E5002417350729F3915011F09A0124
:1046C000E1CF84E0089582E0089583E0089581E0D9
:1046D000089580E008954091E80042FFDDCF0895FD
:1046E0000E94DF230E94E723E0EEF0E080818160FA
:1046F0008083E8EDF0E080818F77808319BCA7ED9F
:10470000B0E08C918E7F8C9380818F7E808310921D
:10471000A90208950F931F93CF93DF930E94DF2385
:104720000E94E723C8EDD0E088818F778883888155
:104730008068888388818F7D888319BC1092AA0243
:104740001092A6021092A8021092A70200EE10E0AA
:10475000F80180818B7F808388818160888342E03B
:1047600060E080E00E94E922E1EEF0E080818E7F4F
:104770008083E2EEF0E080818160808380818860C8
:104780008083F80180818E7F808388818061888327
:10479000DF91CF911F910F910895E8EDF0E08081B6
:1047A0008F7E8083E7EDF0E080818160808384E00C
:1047B00082BF81E08093A9020E948A230895E8EDD8
:1047C000F0E080818E7F80831092E2000895109245
:1047D000DA001092E10008951F920F920FB60F9227
:1047E00011242F933F934F935F936F937F938F93F6
:1047F0009F93AF93BF93EF93FF938091E10082FF6C
:104800000BC08091E20082FF07C08091E1008B7FA6
:104810008093E1000E9457268091DA0080FF1FC03C
:104820008091D80080FF1BC08091DA008E7F80933A
:10483000DA008091D90080FF0DC080E189BD82E15E
:1048400089BD09B400FEFDCF81E08093AA020E94D9
:10485000302005C019BC1092AA020E943E2080910F
:10486000E10080FF19C08091E20080FF15C08091B7
:10487000E2008E7F8093E2008091E200806180936D
:10488000E2008091D80080628093D80019BC85E056
:104890008093AA020E9444208091E10084FF30C0EE
:1048A0008091E20084FF2CC080E189BD82E189BD56
:1048B00009B400FEFDCF8091D8008F7D8093D80091
:1048C0008091E1008F7E8093E1008091E2008F7EF5
:1048D0008093E2008091E20081608093E200809109
:1048E000A602882311F084E007C08091E30087FDD1
:1048F00002C081E001C083E08093AA020E944D20A3
:104900008091E10083FF29C08091E20083FF25C0F0
:104910008091E100877F8093E10082E08093AA028A
:104920001092A6028091E1008E7F8093E100809139
:10493000E2008E7F8093E2008091E20080618093AC
:10494000E20042E060E080E00E94E9228091F00015
:1049500088608093F0000E944120FF91EF91BF9109
:10496000AF919F918F917F916F915F914F913F9107
:104970002F910F900FBE0F901F9018951F920F92BE
:104980000FB60F9211242F933F934F935F936F9322
:104990007F938F939F93AF93BF93CF93DF93EF93C7
:1049A000FF93C091E900CF708091EC00D82FD170B7
:1049B00080FDD0E81092E9008091F000877F80931D
:1049C000F00078940E9402251092E9008091F00096
:1049D00088608093F000CD2BCF70C093E900FF91E9
:1049E000EF91DF91CF91BF91AF919F918F917F9187
:1049F0006F915F914F913F912F910F900FBE0F904C
:104A00001F901895AAE2B0E0E8E0F5E20C94AE261B
:104A1000EBEAF2E08091F100819322E0E33BF207C0
:104A2000C9F70E946D208091E80083FF2EC180911C
:104A3000AB029091AC02492F50E04A30510508F08A
:104A400024C1FA01ED56FF4F0C949926803821F0CD
:104A5000823809F01AC108C08091A7029091A8027B
:104A6000992389F082600FC08091AF028F708730E8
:104A700008F00BC18093E9008091EB0085FB88274B
:104A800080F91092E9009091E800977F9093E800F8
:104A90008093F1001092F100D1C0282F2D7F09F0F2
:104AA000F4C0882319F0823061F0EFC08091AD022C
:104AB000813009F0EAC0933009F080E08093A802C9
:104AC0002EC08091AD0281112AC08091AF028F70FB
:104AD0002FEF280F263008F0D8C08093E9002091EE
:104AE000EB0020FF1CC0933021F48091EB0080622A
:104AF00014C09091EB0090619093EB0021E030E0C6
:104B0000A90102C0440F551F8A95E2F74093EA00BD
:104B10001092EA008091EB0088608093EB00109285
:104B2000E9008091E800877F8093E8000E941E23BF
:104B3000ACC08111AAC01091AD021F778091E30033
:104B40008078812B8093E3008091E800877F8093B9
:104B5000E8000E941E238091E80080FFFCCF809136
:104B6000E30080688093E300111102C082E001C07D
:104B700083E08093AA0289C08058823008F085C003
:104B80008091AD029091AE028C3D53E0950779F58E
:104B900083E08A838AE289834FB7F894DE01139613
:104BA00020E03EE051E2E32FF0E050935700E49123
:104BB00020FF03C0E295EF703F5FEF708E2F90E013
:104BC000EA3010F0C79601C0C0968D939D932F5F79
:104BD000243149F74FBF8091E800877F8093E80038
:104BE0006AE270E0CE0101960E942A2216C060910E
:104BF000AF027091B002AE014F5F5F4F0E94732110
:104C0000BC01892B09F441C09091E800977F9093F3
:104C1000E80089819A810E9488228091E8008B7740
:104C20008093E80032C0803881F58091E800877F6A
:104C30008093E8008091A6028093F1008091E800C3
:104C40008E7772CF811121C08091AD029091AE021A
:104C500099270297D4F48091E800877F8093E80039
:104C60008091AD028093A6020E941E238091A6022D
:104C7000811106C08091E30087FD02C081E001C080
:104C800084E08093AA020E9458208091E80083FF6C
:104C90000AC08091E800877F8093E8008091EB0054
:104CA00080628093EB00AA96E3E00C94CA260895F4
:104CB000CF938091AA028823A1F0C091E900CF7020
:104CC0009091EC00892F817090FD80E8C82B1092A4
:104CD000E9008091E80083FD0E940225CF70C09317
:104CE000E900CF9108950E9470231092AA020895BE
:104CF000E8EDF0E08081806180838AE18A95F1F7B8
:104D000000C08091D9008170089597FB072E16F49A
:104D1000009407D077FD09D00E94D62607FC05D065
:104D20003EF4909581959F4F0895709561957F4FC2
:104D30000895EE0FFF1F0590F491E02D09942F9236
:104D40003F924F925F926F927F928F929F92AF921B
:104D5000BF92CF92DF92EF92FF920F931F93CF9368
:104D6000DF93CDB7DEB7CA1BDB0B0FB6F894DEBFFF
:104D70000FBECDBF09942A88398848885F846E8425
:104D80007D848C849B84AA84B984C884DF80EE806F
:104D9000FD800C811B81AA81B981CE0FD11D0FB678
:104DA000F894DEBF0FBECDBFED010895AA1BBB1B5B
:104DB00051E107C0AA1FBB1FA617B70710F0A61B1B
:104DC000B70B881F991F5A95A9F780959095BC013C
:104DD000CD010895FB01DC0104C08D910190801983
:104DE00021F441505040C8F7881B990B0895FB01EE
:104DF000DC0102C001900D9241505040D8F7089557
:104E0000F999FECF92BD81BDF89A992780B5089592
:104E1000A8E1B0E042E050E00C943427262FF99945
:104E2000FECF92BD81BDF89A019700B4021639F009
:104E30001FBA20BD0FB6F894FA9AF99A0FBE0895DA
:104E40000396272F0E940F270E940E27252F0E94CE
:104E50000F27242F0C940F270196272F0E940F272E
:104E60000C940E27DC01CB01FC01F999FECF06C0A2
:104E7000F2BDE1BDF89A319600B40D924150504018
:084E8000B8F70895F894FFCF84
:104E88002202C6F7F6F5F4313332369391909466E0
:104E9800973435FFFFFF010000000100000000000B
:104EA8000000040100000004050000000000006488
:104EB80008320A280A100AE71F1C2015200E2001B4
:104EC800F4F5F6F7C69336323331976694909135F8
:104ED80034FFFFFFE200E900EA00B500B600B700C2
:104EE800CD008301CC008A019201940121022302A2
:104EF80024022502260227022A02B300B4006F000A
:104F080070009F01CB01818283E200E900EA00B5CD
:104F180000B600B700CD008301CC008A019201944D
:104F2800012102230224022502260227022A02B3B3
:104F380000B4006F0070009F01CB0181828347029B
:00000001FF
