:100000000C94E5010C9402020C9402020C9402027E
:100010000C9402020C9402020C9402020C94020250
:100020000C9402020C9402020C94E5200C94B8216A
:100030000C940A1C0C9402020C9402020C9402020E
:100040000C9402020C9402020C9402020C94020220
:100050000C9402020C94931C0C9402020C94020265
:100060000C9402020C9402020C9402020C94020200
:100070000C9402020C9402020C9402020C940202F0
:100080000C9402020C9402020C9402020C940202E0
:100090000C9402020C9402020C9402020C940202D0
:1000A0000C9402020C9402020C94020229001E001D
:1000B0001F0020002100220023002400250026002C
:1000C00027002D002E0035002A002A002B001400E6
:1000D0001A000800150017001C0018000C00120080
:1000E00013002F0030002A00322104001600070000
:1000F00009000A000B000D000E000F003300340051
:1001000032002800E10064001D001B0006001900F9
:10011000050011001000360037003800E500E3004C
:100120002152E2002C003E21E20035023A003B0061
:100130003C003D003E003F004000410042004300C3
:100140004400450001004C054C05007C1E001F00CA
:100150002000010001000100010001000100010078
:1001600001000100010019132100220023000100F9
:1001700001005000510052004F0001000100010039
:1001800001000100240025002600270001004A008C
:100190004E004B004D000100010001000100010074
:1001A000010001000100010000000000000000004B
:1001B0002A2B2800000000000000000000000000C2
:1001C00000000029000000002C1E342021222434CD
:1001D0002627252E362D3738271E1F20212223249F
:1001E00025263333362E37381F0405060708090A3B
:1001F0000B0C0D0E0F101112131415161718191AD7
:100200001B1C1D2F3130232D350405060708090A54
:100210000B0C0D0E0F101112131415161718191AB6
:100220001B1C1D2F3130354C000000000000000069
:1002300000000000000000000000000000000000BE
:100240000000000000000000000000007E0F00D44D
:10025000FFFFFFC7000000780E0375006E00690005
:1002600078003600300000001403460052003400CD
:1002700042006F006100720064007300000004031C
:10028000090409023B00020100A0FA090400000170
:100290000301010009211101000122440007058129
:1002A00003080001090401000103000000092111F5
:1002B00001000122B600070582032000011201009F
:1002C00002000000085246585501000102000105D5
:1002D000010902A10185020901A1000509190129ED
:1002E00008150025019508750181020501093009ED
:1002F000311581257F9502750881060938158125FC
:100300007F950175088106050C0A38021581257F45
:10031000950175088106C0C005010980A10185030A
:1003200019012AB700150126B70095017510810043
:10033000C0050C0901A101850419012AA0021501BB
:1003400026A002950175108100C005010906A101D2
:100350008506050719E029E71500250195087501AF
:1003600081020507190029EF1500250195F0750197
:10037000810205081901290595057501910295016C
:1003800075039101C005010906A101050719E029BE
:10039000E715002501950875018102950175088111
:1003A000010507190029FF150026FF0095067508AD
:1003B000810005081901290515002501950575011C
:1003C0009102950175039101C00011241FBECFEF6A
:1003D000DAE0DEBFCDBF11E0A0E0B1E0E4EAF8E48E
:1003E00002C005900D92AE39B107D9F723E0AEE90E
:1003F000B1E001C01D92A030B207E1F70E943912AE
:100400000C9450240C9400008230B8F46730A8F4A7
:10041000493098F4E42FF0E099E0699FE00DF11D78
:1004200011249FE3899FE00DF11D1124EE0FFF1FA2
:10043000E455FF4F85919491089581E090E00895EF
:100440000E94040208959C013A9521153F4150F500
:10045000FC01EE27F170BC0166277270AC014427E5
:1004600054709C012227387094FF0EC080E0EF2B5F
:1004700009F080E1672B09F08062452B09F0806468
:10048000232B89F08068089581E0EF2B09F480E048
:10049000672B09F08260452B09F08460232B19F04B
:1004A0008860089580E00895CF93DF93EB010E9468
:1004B0002302FE010995DF91CF910895CF93DF9339
:1004C000EC01805E9109089720F066E577E02097BF
:1004D00011F460E075E0CE010E9454028C2F0E945E
:1004E0006304DF91CF910895CF93DF93EC010E94D5
:1004F000AC04CE01805E9109089720F06DE577E0AD
:10050000209711F467E075E0CE010E945402DF915C
:10051000CF91089581E008950E948A02089581E0B4
:1005200008950E948A0208950E94910208950895F4
:100530000E9497020895A6E0B0E0E1EAF2E00C9490
:10054000AC2349835A839E833091AC0189819A817F
:1005500031111AC03E81332399F0222389F00E9481
:10056000C808182F682F89819A810E94A408698180
:100570007A81812F0E94E30F2696E3E00C94C82332
:100580000E94B608182FF3CF0E94C80869817A81AB
:10059000F1CFFC01262F40815181628173818481DA
:1005A00095810E949B020895CF93DF93EC0161E057
:1005B0000E94C902BE010E948C02DF91CF91089572
:1005C000CF93DF93EC0160E00E94C902BE010E945C
:1005D0009802DF91CF91089581E008950E94EC0286
:1005E0000895CF93C82F0E947A078C2F0E94EE02A5
:1005F0002FEF84E39CE0215080409040E1F700C061
:100600000000CF91089581E00E94F1020E94B91C80
:10061000089580E00E94F1020E94CA1C08950F9381
:100620001F93CF93DF938C0161E00E94C902EC011C
:10063000B8010E949402811106C080E0DF91CF9141
:100640001F910F910895B801CE010E94AA1388232B
:10065000A1F3B801CE010E94DA19882371F3B80121
:10066000CE010E94D014882341F3B801CE010E942C
:10067000A614882311F3F8018581882361F0C33023
:10068000FCE7DF07E9F058F4C115ECE7DE07A9F055
:10069000C130DC47B9F0C8010E948F02CFCFCB3503
:1006A0008CE7D807A9F0CC35ECE7DE0771F0CA3546
:1006B000DC4789F70E94200DEECF0E940303BDCFD7
:1006C0000E94280D0E940903B8CF0E94160DE3CFA7
:1006D0000E94240DE0CF0E94E61B0E94FE030895B5
:1006E0000E9402040E94EB1B08954F925F926F924A
:1006F0007F928F929F92AF92BF92CF92DF92EF92B2
:10070000FF920F93CF93DF936C0149015A01EB01E4
:100710002197C80FD91F18828AE0482E512C612CCE
:10072000712C6C0D7D1D7B0181E0E81AF108CC1560
:10073000DD0589F4CE01DF91CF910F91FF90EF900D
:10074000DF90CF90BF90AF909F908F907F906F90F1
:100750005F904F900895C501B401A30192010E94DA
:100760007523605D603319F4EC16FD0631F08114D9
:100770009104A104B10409F4602F6A93C501B40186
:10078000A30192010E94752349015A01D0CF0F9312
:1007900020910001309101012817390721F420919F
:1007A000A601261791F0062F909301018093000176
:1007B0006093A6019C0150E040E066E070E080EAB2
:1007C00091E00E9475030F91089580EA91E0FBCFBC
:1007D00081E008950895CF93DF93D82F0E94E80316
:1007E000C82F882319F08D2F0E94EA038C2FDF91E8
:1007F000CF91089508950E94EB03089580E00E9430
:10080000FB0308950E942A1A0E94FB030895CF93C8
:100810000E942A1AC82F8091A7018C1779F0C093E3
:10082000A7010E94781C6093A8017093A90180938E
:10083000AA019093AB018C2F0E94FB03CF910895E6
:10084000ADE0B0E0E6E2F4E00C94AD2348875987D0
:100850006A877B878C879D8791110E94160C1F8267
:1008600086E0FE013896DE01119601900D928A9580
:10087000E1F78D8181110DC029813A814B815C8125
:100880006D817E818F810E945E0B2D96E2E00C943B
:10089000C923CE0101960E94D4028111EDCFF5CF7C
:1008A000FC012481213021F4808191810E94FA0889
:1008B0000895662329F00E9456160E942C17089569
:1008C0000E94B016FACFCF938823A1F0C82F8CEFE7
:1008D0008C0F813A88F48C2F0E94C61A882329F045
:1008E0008C2F0E94661B0E94BA0C8C2F0E944F1BFB
:1008F0000E94BA0CCF91089580E28C0F883048F4A2
:10090000C77081E001C0880FCA95EAF70E94F70B13
:10091000EFCFEBE5EC0FE33040F4F0E0EE5AFE4FA2
:10092000808190E00E945E1AE5CFE8E5EC0FEB31A4
:1009300050F4F0E0EE0FFF1FE45EFE4F80819181E6
:100940000E94831AD7CF83E38C0F833198F661E03E
:100950008C2F0E945904CECF882381F19CEF980FF1
:10096000913A28F40E94661B0E94BA0C089590E206
:10097000980F983050F4877091E001C0990F8A95D4
:10098000EAF7892F0E94FD0BEFCF9BE5980F93307C
:1009900028F490E080E00E945E1A089598E5980F90
:1009A0009B3128F490E080E00E94831A089593E33D
:1009B000980F933118F460E00E94590408951F9332
:1009C000CF93DF93182FEB010E946304209739F433
:1009D000812F0E94AC04DF91CF911F9108958FE980
:1009E0009FE00197F1F700C000002197EFCF70E082
:1009F00060E0893311F460E570E00E94DF0408953F
:100A0000882321F00E94F70B0E94BA0C08958823D6
:100A100021F00E94FD0B0E94BA0C0895B0E0A0E006
:100A2000E4E1F5E00C94A7236C01D62FC72FFC015D
:100A30001581068102950F700E94ED0BE82E882328
:100A4000F9F0E12E1123E1F08C2F807F803461F0EA
:100A500080E28D0F883070F18C2F807E803221F4FF
:100A6000D23040F1002331F18091D20282FF22C0C6
:100A700082E00E94EA0C0E94ED0B91E0E82EE9264C
:100A8000FC2EF2949FE0F922FBE0FF1508F443C02E
:100A9000EF2DF0E0E25BFA4F0C9497235C055C05C8
:100AA000A305A305080629068B058B052E06A206BD
:100AB000B306B306E12CE4CF0C2F0F70C07F11F00A
:100AC0000295007F112399F0002359F080E28D0FE9
:100AD000883010F0D11107C0802F0E94F70B0E94C0
:100AE000BA0C8D2F51C0802F0E94080CF8CF8D2F8B
:100AF0000E94AC04002379F080E28D0F883010F062
:100B0000D11104C0802F0E94FD0B03C0802F0E94D2
:100B10000E0C0E94BA0CEE2089F00E94E90B80FDB9
:100B20000DC0F60115820E94E30B0E940208C60167
:100B30000E9433070E94E30B0E941208CDB7DEB774
:100B4000E8E00C94C3232C2F2F70F22EC07FC0320C
:100B500019F0F29480EFF822DD2341F0D130D1F189
:100B6000112309F444C00023F1F0BBCF8091D202DD
:100B700082FD15C0112359F0FF2029F08F2D0E940E
:100B8000F70B0E94BA0C80E00E946304C4CF80E09F
:100B90000E94AC04FF2009F4BECF8F2DB4CF1123E7
:100BA00069F0011104C08F2D0E940005B4CF0130FF
:100BB00009F0B1CF8F2D0E94300CADCF0111ABCF1A
:100BC0008F2D0E9407058F2D0E943C0C8F2D0E94B7
:100BD000200CA1CF112321F0063008F09CCFE3CFE9
:100BE000053008F098CF8F2D0E94070594CF002381
:100BF000D1F3D93349F48FEF97EEE3E08150904081
:100C0000E040E1F700C000008D2F0E94AC0483CFCC
:100C10008C2F86958695837041F0813081F088EF26
:100C20008F0D843008F077CF46C08D2F9C2F9370A6
:100C3000111102C080E090E00E945E1A6CCF8D2FEF
:100C40009C2F9370111102C080E090E00E94831AE3
:100C500062CF612F8D2F0E9459045DCF8C2F83703E
:100C6000C1F5111128C04D2F429546954770440F8C
:100C7000440F2D2F2F7030E0042E02C0220F331F9F
:100C80000A94E2F790E080E0D4FF09C08FE090E0A2
:100C900002C0880F991F4A95E2F780959095822BA4
:100CA000932BC695C695C370C23069F078F4C130F5
:100CB00039F00E94D2070E942A1A0E94FB032BCF10
:100CC0000E94C907F8CF0E94DB07F5CF0E94C60734
:100CD000F2CF8695112311F08C2F8170882359F360
:100CE0004D2F429546954770440F440F2D2F2F707E
:100CF00030E0042E02C0220F331F0A94E2F790E086
:100D000080E0D4FF09C08FE090E002C0880F991FF7
:100D10004A95E2F780959095822B932BC695C695C0
:100D2000C370C23049F058F4C13019F00E943D0838
:100D3000C2CF0E943408BFCF0E944608BCCF0E9499
:100D4000EA07B9CFCF70112339F08C2F0E94020827
:100D50008D2F0E940005AFCF8D2F0E9407058C2F8D
:100D60000E941208A8CFD23F61F170F4D03FD9F0B1
:100D7000D13F91F0112309F44AC0002309F444C083
:100D80008D2F0E9463044BCFD33F11F1D43F91F7D5
:100D90008091D20282FD26C08C2F8F711123A9F081
:100DA0000E9402083CCF112341F0053008F037CFF4
:100DB0008C2F8F710E94240832CF063008F02FCF7D
:100DC000F7CF8C2F8F71112359F30E94120827CF70
:100DD000112329F08C2F8F710E94F60720CF0E94DB
:100DE000F1071DCF112331F063E08C2F8F710E942A
:100DF000CC0C15CF81E00E94EA0C023008F40FCF32
:100E000082E00E94EA0C0BCF8C2F8F71C9CF002398
:100E100079F0D93349F4FFEF27EE83E0F150204019
:100E20008040E1F700C000008D2F0E94AC04F7CE97
:100E30008C2F8F71CACF0F931F93CF93DF93EC0149
:100E4000688179818D810E9405098C010E944F087B
:100E50000E94C507B801CE010E940E05DF91CF9117
:100E60001F910F910895CF93DF93FC0124812223DA
:100E700099F0EC010E940F03811111C00E94ED0B4B
:100E8000882351F08D81882339F08091D20282FF2E
:100E900003C082E00E94EA0CDF91CF910895CE0159
:100EA0000E941B07CE010E94E002F6CF882321F0AA
:100EB0000E94080C0E94BA0C0895882321F00E9419
:100EC0000E0C0E94BA0C089590E080E00E945E1A19
:100ED00090E080E00E94831A0E94160C0E94BA0CD7
:100EE0000E944B170E942C1708950E947D1B0E94A0
:100EF000640708950E94050C0E9475070895929555
:100F00009F70963089F050F49250923058F4803FA0
:100F100019F030F4883E30F481E008959A50F5CF0E
:100F2000843FD1F380E00895883EB0F3813FD1F74C
:100F3000F3CFFC012481222339F0808191810E942A
:100F4000FA080E947F07089580E00895A6E0B0E0C7
:100F5000ECEAF7E00C94AD232696E2E00C94C9236A
:100F6000A7E0B0E0E6EBF7E00C94AD232796E2E0D3
:100F70000C94C92308950E94BA0708950E94BB07E4
:100F80009093D0018093CF01089508950E94BE07E9
:100F900008952091CF013091D001822B932B0E9494
:100FA000BE0708952091CF013091D0018223932371
:100FB0000E94BE0708952091CF013091D001822771
:100FC00093270E94BE0708950E94BA0708950E94C1
:100FD000E40708950E94E7079093CE018093CD0126
:100FE000089590E080E00E94EA07089521E030E053
:100FF000A90102C0440F551F8A95E2F7CA010E9459
:10100000EA07089521E030E002C0220F331F8A95DD
:10101000E2F78091CD019091CE01822B932B0E941B
:10102000EA07089521E030E002C0220F331F8A95BD
:10103000E2F7209530958091CD019091CE018223E9
:1010400093230E94EA07089521E030E002C0220FB6
:10105000331F8A95E2F78091CD019091CE018227CE
:1010600093270E94EA0708952091CD013091CE0187
:10107000822B932B0E94EA0708952091CD01309195
:10108000CE01822393230E94EA0708952091CD0187
:101090003091CE01822793270E94EA070895089590
:1010A000262F277091E001C0990F2A95EAF723E0D7
:1010B000769567952A95E1F7660F771F660F771F7C
:1010C000FA01E60FF71F50E040E0682F70E08191D1
:1010D000DF0111979B01042E02C0369527950A94D3
:1010E000E2F7217021952827292328272C934F5F89
:1010F0005F4F4430510559F70895A82FA77023E09A
:10110000969587952A95E1F7880F991F880F991F63
:10111000FB01E80FF91F50E040E080E0219130E052
:101120000A2E02C0369527950A94E2F721703327DC
:10113000042E01C0220F0A94EAF7822B4F5F5F4F03
:101140004430510559F70895282F973070F48930AD
:1011500060F4862F622F70E029E0929F600D711D70
:1011600011244DEA51E00E9450080895973070F420
:10117000893060F4292F90E06DEA71E039E0239F17
:10118000800D911D11240E947D08089580E008952E
:10119000B0E0A0E0EEECF8E00C94A6237C01009116
:1011A000CD011091CE018091CF019091D001082BFB
:1011B000192BCFE0D0E0CC24C394D12CBC2EC60197
:1011C0000C2E02C0880F991F0A94E2F78023912306
:1011D000892B49F4219790F7B12C8B2DCDB7DEB731
:1011E000E9E00C94C223B7018C2F0E94EF0F019706
:1011F00089F3F3CFCF93DF93EC010E94C808BE01BF
:101200000E94EF0FDF91CF9108951F93CF93DF934B
:10121000EB019091AC01992339F0CB010E94FA08BF
:10122000DF91CF911F910895882369F0CB010E942F
:10123000C808182F682FCE010E94A408BE01812F74
:101240000E94EF0FEDCFCB010E94B608182FF6CF0A
:101250001F93CF93DF93C091D10117E08091D2010A
:101260008C1304C0DF91CF911F910895D0E01C9F93
:10127000F0011D9FF00D1124ED52FE4F20813181B0
:10128000428153816481758186810E94B0072196D5
:10129000C770E4CF20910B0230910C0240910D02F7
:1012A00050910E0260910F02709110028091110214
:1012B0000E94B0070895CF93DF9380911102807F41
:1012C00009F04DC080911002882309F448C0E091D4
:1012D000D1015091D201C0910C02D0910B026091CA
:1012E0000D0270910E0247E05E17C9F18E2F90E05B
:1012F000E49FF0011124ED52FE4F2481222391F14D
:10130000489FF001499FF00D1124DF01AD52BE4FFF
:1013100011962C9111972C1325C02C912D1322C0BE
:1013200015962C91159721111DC012962D913C9167
:10133000261B370B283C3105A8F4809111028F70D1
:10134000806180931102E752FE4F80818F7080612F
:1013500080838BE092E00E9433070E942809DF918E
:10136000CF910895FC013196E770BECF482F2091B0
:10137000D1019091D20157E0291302C080E0089575
:1013800030E0529FF001539FF00D1124ED52FE4FBB
:101390008181681306C08081481303C08581811153
:1013A000EECF2F5F3F4F2770E7CFA4E1B0E0EBED2A
:1013B000F9E00C94A3238C0186E0F801DE011F966E
:1013C00001900D928A95E1F7F8018481E5809BE018
:1013D000A92E92E0B92E90910F0291111FC088237F
:1013E000D1F0EE20A9F0C8010E949907F82E8823B9
:1013F00079F087E0F801D50101900D928A95E1F727
:10140000C5010E9450040E945B090E944A095FC006
:10141000C8010E943307FF24F39459C0C080D180D3
:1014200082809380F090100220910D0230910E0284
:10143000A401421B530BFF2009F4F8C0483C51059E
:1014400008F0A6C0882309F442C090910C02809154
:101450001102282F207F09F05BC0D91216C090918D
:101460000B02C91212C0E1104DC08F7080618093D1
:1014700011020E944A098BE092E00E94330780919A
:101480001102F8018683F12C22C0E1103BC06D2DC2
:101490008C2D0E94B6096D2D8C2D0E94B609E82E68
:1014A0008111F1CFCF86D88A8F8598890E94FA085A
:1014B000292F22952F70243078F49F702230A0F0CD
:1014C0009923B1F0F8019681907F91F4FE2C8F2D35
:1014D0006496ECE00C94BF232A50223068F0C801D7
:1014E0000E943307EF2CF2CF992311F0882371F378
:1014F000805E8830A0F7EACF803F40F3815F833081
:1015000070F7E4CF80911102816080931102BBCF0C
:10151000D91213C090910B02C9120FC0E1100DC077
:101520008683C8010E94330787E0F801ABE0B2E090
:1015300001900D928A95E1F768CFC8010E94990742
:10154000882309F465CFEE2009F462CF809111025F
:10155000803288F020910B0230910C023987288765
:101560009B868A8690910F029C871D868E87CE016E
:1015700008960E94330787E0F801ABE0B2E00190E3
:101580000D928A95E1F70E945B090E944A0943CFB8
:1015900090911102292F207FA1F4682D9A8A898ABF
:1015A000A6017A899E2D0E94A6078BE092E00E94F8
:1015B000330787E0F50111928A95E9F70E944A09FD
:1015C00062CF882309F483CF80910C028D1110C063
:1015D00080910B02C8120CC0E1100AC09683C801AA
:1015E0000E94330787E0F50111928A95E9F76FCFE2
:1015F000C8010E949907882309F40ACFEE2009F454
:1016000007CF80911102803208F4B5CF20910B02F0
:1016100030910C023A8329839C828B8290910F0235
:101620009D831E828F83CE010196A3CF483C510536
:10163000B8F5882309F4EFCEFE2CEE2009F4E8CEAD
:1016400080910C028D111EC080910B02C8121AC02D
:101650008091110280FD0DC0982F907F51F08683FC
:10166000903F09F45ECF982F907F905F8F70892B09
:1016700057CF87E0F801ABE0B2E001900D928A9578
:10168000E1F725CFC8010E949907811174CF80919D
:101690001102816080931102C8010E94330717CFA5
:1016A000682D9A8A898AA6017A899E2D0E94A607AA
:1016B00087E0F50111928A95E9F7A7CEAEE0B0E098
:1016C000E4E6FBE00C94AC23288739874A875B87E4
:1016D0006C877D878E87CE0108960E94D509882366
:1016E000B1F16C85662341F0288539854A855B8593
:1016F0007D858E850E94B00717E08091D101909181
:10170000D201891709F45BC0819FC00111248D5259
:101710009E4F0E94D509882309F451C0E091D10160
:101720001E9FF0011124ED52FE4F20813181428134
:1017300053816481758186810E94B0078091D101B7
:1017400090E00196877099278093D101D6CF87E0EA
:10175000FE013896DE01119601900D928A95E1F70F
:101760008C85882349F22091D20130E0C90101968D
:10177000877099274091D1014817190699F097E091
:10178000929FD001939FB00D1124AD52BE4FFE0128
:10179000319601900D929A95E1F78093D2010E94C3
:1017A0002809AACF0E947A071092D2011092D10183
:1017B00087E0EBE0F2E0DF011D928A95E9F72E96D3
:1017C000E3E00C94C82380913A028695869586952D
:1017D000089580913A028770089590913A02977027
:1017E00081E009F480E00895809166020895909167
:1017F0006602892B809366020895982F90958091B8
:101800006602892380936602089510926602089505
:1018100090916502892B809365020895982F909589
:101820008091650289238093650208951092650274
:10183000089580913C02089508950E941C0C08951B
:1018400090913B02292F282331F0809589238093A2
:101850003B020E941D0C089508950E942C0C0895CF
:1018600090913C02292F2823281729F0982B909338
:101870003C020E942D0C089590913C02292F2823B0
:1018800031F08095892380933C020E942D0C0895AD
:101890009091D20292FF08C090913C02981721F0DB
:1018A00080933C020E942D0C089580913C02882375
:1018B00029F010923C0280E00E942D0C0895CF93F5
:1018C000C091660280916502C82B80913C028823FA
:1018D00031F0C82B0E94A81A81110E94550C8C2F40
:1018E000CF910895CF93DF93C0910401D09105016A
:1018F0000E945F0C8883C0910401D091050148E0EB
:1019000050E062E372E0CE010E94E823892B59F097
:1019100088E0FE01A2E3B2E001900D928A95E1F722
:10192000CE010E94371ADF91CF910895CF93DF93B4
:10193000C0910201D09103010E945F0C8983C09184
:101940000201D091030140E250E062E172E0CE0179
:101950000E94E823892B59F080E2FE01A2E1B2E067
:1019600001900D928A95E1F7CE010E94421ADF9113
:10197000CF91089580911B01882339F08091D10285
:1019800087FF03C00E94960C08950E94720C089570
:1019900008950E94C80C08959091D20292FF11C040
:1019A00098E0899F90011124622B60933A020E9473
:1019B000020880913A028695869586950E94C90C08
:1019C00008950E940208089510923A0280E00E9451
:1019D000C90C089590913A028095892380933A0228
:1019E000282F277069F4891759F09091D20292FF3D
:1019F00007C08695869586950E9412080E94E40C81
:101A000008959091D20292FB222720F9281769F0BD
:101A100080FB92F99093D2028091D1029091D202F0
:101A20000E94490D82E00E94EA0C08958091D20242
:101A300082FB882780F991E089270E94010D089593
:101A400081E00E94010D089580E00E94010D08953B
:101A50006FEF7FEF90E080E00E943A24089590E0DD
:101A600080E00E94062421E0853E9E4F09F020E0A0
:101A7000822F089582E090E00E94FE23089583E083
:101A800090E00E94FE23089584E090E00E940624E6
:101A90000895BC0184E090E00E943A240895AB01CF
:101AA000BC018FE090E00E942E240895AB01BC01A0
:101AB00083E190E00E942E24089560E070E0CB0165
:101AC0000E94560D089560E070E0CB010E944F0D1A
:101AD0000E945D0D0895A8E0B0E0E1E7FDE00C9400
:101AE000AD2365EE7EEF90E080E00E943A2460E056
:101AF00082E090E00E941C2481E090E09093D0016D
:101B00008093CF0161E083E090E00E941C2460E0BC
:101B100074E184E090E00E943A2460E086E090E086
:101B20000E941C2460E087E090E00E941C2440E0BA
:101B300050E0BA0188E090E00E942E2460E083E249
:101B400090E00E941C2460E08CE090E00E941C2445
:101B500060E08DE090E00E941C2419821A821B82B2
:101B60001C821D821E821F82188648E050E067E1B9
:101B700070E0CE0101960E940C2440E050E0BA01D2
:101B80008FE190E00E942E240E94630D2896E2E0EF
:101B90000C94C9230E946B0D0895682F8EE090E08D
:101BA0000E941C240895A6E0B0E0E9EDFDE00C944D
:101BB000AB230E946C1C8C0180916702909168029B
:101BC0008017910781F019821A820E946C1C682F7D
:101BD00049815A81792F80E090E00E94200410937F
:101BE0006802009367022696E4E00C94C7230E94E3
:101BF000781C60937B0270937C0280937D029093AB
:101C00007E026093770270937802809379029093BA
:101C10007A020895089508950E940A0E089508957D
:101C20000E940F0E089587EE90E10E944E120E94CE
:101C30000B0E0E940C0E089581E008950E941C0E68
:101C400008950E941C0E0895089508950E94240E80
:101C50000E94250E08950E942F0D811102C00E943E
:101C6000CA0D0E943A0D80937F020E94440D90930A
:101C7000D2028093D1020E94A3140E943F0D90E0F3
:101C80000E94C6078091CD019091CE010E94E70786
:101C900008950E94631C0E94A9110E942B0E0E94AD
:101CA000FA030E94100E0895A6E0B0E0EAE5FEE017
:101CB0000C94A1230E941E0E81110CC00E94D30D12
:101CC0000E9469130E946D170E9407042696EEE099
:101CD0000C94BD230E94BF1129E6822E22E0922E91
:101CE000640110E0F601E190F1906F01812F0E94F4
:101CF000F1101F5F173009F44BC0E816F90691F395
:101D000080917F0281FD0E94FA100E94210E782EA0
:101D100010E066246394812F0E94F1107C01F4018D
:101D2000A190B1904F018A159B0561F100E0CC2490
:101D3000C394D12CAE24BF24C5018C219D21892BB5
:101D4000C1F07720B1F009831A830E946C1C9C8338
:101D50008B836D8221E0C7018C219D21892B09F4A1
:101D600020E049815A816B817C818D81922F0E9474
:101D700020040F5FCC0CDD1C0930F1F6F401329722
:101D8000F182E0821F5F173031F60E94F70D98CF85
:101D9000E816F90609F0B4CF91CF1F93CF93DF93E4
:101DA0000E94F40FEC01C11580E5D807E8F5C115D4
:101DB00080E4D80708F09BC0C03ED10518F5CD3CA3
:101DC000D10508F081C0C83AD10570F4C53AD105F3
:101DD00008F072C0C130D10511F118F0C430D1053E
:101DE000F0F4D0E0C0E01BC0C33CD105D0F7C85A26
:101DF000D0E0CC0FDD1FCB5ADE4F0990D881C02D2B
:101E0000D4640DC0C11580E2D80708F0CBC0C1155D
:101E100081E0D80708F05AC0C83ED10510F7CE01BE
:101E2000DF91CF911F910895C03682E5D80718F54C
:101E3000C03482E5D80708F069C0C03282E5D8070F
:101E400008F05DC0C11582E5D80708F493C02C2FB7
:101E50002695269580E2289F900111248C2F83706F
:101E6000C1E0D0E002C0CC0FDD1F8A95E2F7C22BA3
:101E7000D32BDD68D4CFC03A82E5D80760F4C038F0
:101E800082E5D80708F457C0CF71D0E0DC2FCC270B
:101E9000C46FD06AC4CFC03C82E5D80708F45EC0E6
:101EA000C03E82E5D80708F09CCFDC2FCC27CC279A
:101EB000DF71C06FD06AB3CFC55AD0E0C557DE4FCF
:101EC000C881D0E0D064ABCFD065A9CF8D2F0E9460
:101ED0009810182FCE0199270E94F40FC12FD0E03F
:101EE000DC2FCC27CC27DF71C82BD92B98CFCE0184
:101EF00099270E94F40FCC27DF70D06AF5CFCF71FD
:101F0000D0E0DC2FCC27C16FD06A89CF2C2F26954B
:101F10002695277080E2289F900111248C2F8370D2
:101F2000C1E0D0E002C0CC0FDD1F8A95E2F7DC688B
:101F3000C22BD32B74CF2C2F26952695277080E2A9
:101F4000289F900111248C2F8370C1E0D0E002C043
:101F5000CC0FDD1F8A95E2F7DA68EACF8C2F8F71FC
:101F60000E949810C82FD0E0DC2FCC27CC27DF713F
:101F7000D06255CF8C2F8F710E94981055E0D69566
:101F8000C7955A95E1F7CF70D0E0DC2FCC27282FEA
:101F900030E084FF05C044E0220F331F4A95E1F78B
:101FA000D069C6CF8D2F8F710E949810182FCE0147
:101FB00099270E94F40FC12FD0E0DC2FCC27CC272B
:101FC000DF71906291CF773038F4693028F4462F72
:101FD000672F0E942002089590E080E008950E94FB
:101FE000E30F0E94CD0E089582389105B9F1B0F447
:101FF0008133910509F47DC048F48932910509F4D3
:102000006DC08A32910509F479C008958533910530
:1020100009F45FC08933910509F10895833E910564
:10202000D9F138F4803E910529F1823E910579F18C
:102030000895863E9105D9F1873E910509F43EC089
:10204000843E910541F52091D20221FF24C0809168
:10205000D10284FD19C087EE90E008952091D1024D
:10206000237009F056C02091D20223FF14C089E2E8
:1020700090E008952091D10220FD38C03091D20225
:1020800030FF09C024FF3FC090E080E00895209118
:10209000D10222FDF7CF08952091D10222FD36C052
:1020A0003091D20230FD35C024FDEECFF4CF209127
:1020B000D10223FFF0CF24FDE7CFCDCF2091D10275
:1020C00023FD2AC03091D20231FFEECF84EE90E0A2
:1020D00008952091D10225FDCACF08952091D10203
:1020E00025FD1DC02091D20223FFD5CF89E390E0CA
:1020F00008952091D10226FD15C008952091D102A6
:1021000026FD13C0089583EE90E0089582EE90E0DE
:10211000089580EE90E0089586EE90E0089585E3BE
:1021200090E008958AE290E0089581E390E0B3CFD3
:102130009091D10292FF10C041E0282F24712430E9
:1021400009F040E031E0282F2871283009F030E014
:10215000431711F02CE0822793FF10C041E0282F95
:102160002471243109F040E031E0282F2871283112
:1021700009F030E0431711F02CE082273091D202B1
:1021800030FF10C051E0282F2171213009F050E0BC
:1021900041E0282F2871283009F040E0541711F051
:1021A00029E0822731FF10C041E0282F2171213121
:1021B00009F040E031E0282F2871283109F030E0A3
:1021C000431711F029E0822794FD877E089580E06F
:1021D000089508950E94E910089508950E94ED1051
:1021E0000895E82FF0E0EE0FFF1FEF51FD4F8081C3
:1021F00091810895089580EA8A95F1F7089500C0C5
:1022000008950E94FB100895F894E82FE295EF706E
:10221000F0E031A1282F2F7081E090E001C0880FFD
:102220002A95EAF7982F9095932391A392A1892B51
:1022300082A3789408950F931F93CF93DF93C7E9F8
:10224000D1E089918F3F11F00E94041181E0CE39D5
:10225000D807B9F7CEE8D1E007E911E089918F3FBF
:1022600011F00E9404110C171D07C1F7DF91CF91E7
:102270001F910F910895AF92BF92DF92EF92FF925C
:102280000F931F93CF93DF93EC01062F10E0C8014B
:1022900089569E4F7C01FC0190819F3F09F44CC000
:1022A000D62EF894E92FE295EF70F0E081A19F70AF
:1022B00021E030E001C0220F9A95EAF7822B81A33A
:1022C00082A12095282322A378940E94FF10EEE893
:1022D000F1E041E050E0B12CA12C21912F3FB1F170
:1022E000A22FA295AF70B0E090968C9190E02F70E5
:1022F00002C0959587952A95E2F780FD27C0CA010F
:10230000A82AB92A440F551F81E0E739F80729F7B1
:10231000F70180818F3F11F00E94041161E0A11448
:10232000B10409F460E08D2D0E940111000F111F0E
:10233000C00FD11FB982A882DF91CF911F910F9159
:10234000FF90EF90DF90BF90AF90089590E080E015
:10235000D7CF0E941B118EE0E1EEF2E0DF01982F53
:102360001D929A95E9F7E3EDF2E0DF011D928A955F
:10237000E9F787E00E94FA110E94EA100895AEE0A2
:10238000B0E0E5ECF1E10C94AA238E010F5F1F4F42
:102390008EE0F80111928A95E9F7F12C6F2DC801B2
:1023A0000E943B11F394F7E0FF12F8CF4EE050E0AB
:1023B000B80183ED92E00E94E82321E0009709F440
:1023C00020E0892B41F08EE0F801A3EDB2E001900E
:1023D0000D928A95E1F747E061EE72E083ED92E0BD
:1023E0000E94FB11182F0E94EE10812F2E96E5E01F
:1023F0000C94C6230895B0E0A0E0E1E0F2E10C9473
:10240000A7236C017B01042FC22F222379F081E0E6
:10241000809382020E946C1C9093810280938002C0
:1024200080E0CDB7DEB7E8E00C94C323D091820200
:10243000DD23B1F380918002909181020E94841C7F
:10244000059770F310E0000F111FA801B601C70136
:102450000E94E823892B31F0A801B601C7010E9430
:10246000F523CD2F109282028C2FDBCF0E94540EC9
:1024700008950E94031C0E941F1E0E94130E0E94BA
:10248000391E0E94490E0E94461E0E944B1E0E9449
:1024900036120E94651E0E94260EF7CF90939F0170
:1024A00080939E01089580910601877F80930601A5
:1024B00082E00E940E0C8091060184FF06C08F7E90
:1024C0008093060182E00E94F70B8091060185FF50
:1024D00006C08F7D8093060180E20E94F70B0E9468
:1024E000BA0C089580E008958B32910539F040F4DC
:1024F0009C01245031092432310558F481E00895BB
:102500008D32910530F089339105C0F38436910501
:10251000A9F30E9472120895CF93DF93EC01662312
:1025200019F082E00E94080CCE0190528115904370
:1025300008F4DD27CE010E945E02DF91CF9108955D
:102540009C0130522115304308F499270E947402EF
:102550000895FC0123E0F695E7952A95E1F7EE71E1
:10256000FF27ED57FD4F20813181AC014F7055277A
:1025700081E090E002C0880F991F4A95E2F7662338
:1025800029F0822B932B91838083089580959095D9
:1025900082239323F8CFFC0123E0F695E7952A9553
:1025A000E1F7EE71FF27ED57FD4F8F70992721E07E
:1025B00030E002C0220F331F8A95E2F780819181BB
:1025C0002823392381E0232B09F480E00895EF923A
:1025D000FF920F931F93CF93DF93EC017B018A014E
:1025E0008091060182FF5DC02091AA023091AB026A
:1025F0002C173D0719F0209709F053C09091060160
:102600009B7F9093060161E091FD10C08091AC0228
:102610009091AD02A701481B590B61E08091070121
:10262000909108014817590708F460E061708091A3
:10263000060160FB81F980930601C9010E94A9127D
:102640000E94F40B81FF08C0809106018061809395
:10265000060182E00E94FD0B0E94F40B85FF08C07A
:102660008091060180628093060180E20E94FD0B4A
:102670006091060166956170A8018091AA0290910F
:10268000AB020E948C126091060166956170A801F0
:102690008091AA029091AB020E94A0120E94531254
:1026A0000FC0CE010E94CB12A801682FCE010E945C
:1026B000A0128091AA029091AB02C817D90771F3BA
:1026C000F092AD02E092AC02CDB7DEB7E6E00C943A
:1026D000C5238091060182FF19C00E946C1C2091C5
:1026E000AC023091AD02AC01421B530B20910701AB
:1026F000309108014217530748F043EA52E0BC0109
:102700008091AA029091AB020E94E71208959091E5
:102710000601892F8E7F90FF8160809306010E94C1
:1027200053120895809106018E7F809306010E94C6
:102730005312089560E280910701909108010E9470
:10274000C703FC01019620812032D9F3CF010E94FA
:102750006E190895CF92DF92EF92FF921F93CF935D
:10276000DF93EC017B010E946C1C6C01F7018581F9
:10277000882309F453C08091060182FF07C043EA11
:1027800052E0B60190E080E00E94E712C231FCE71F
:10279000DF0709F440C000F5C0318CE7D80789F1A4
:1027A00080910701909108010596C131ECE7DE07A1
:1027B00069F1CE01905281159043F0F51092AB0271
:1027C0001092AA0211E0812FDF91CF911F91FF900B
:1027D000EF90DF90CF900895C431FCE7DF0771F0F0
:1027E00038F0C5318CE7D80721F70E948713E1CF75
:1027F00080910601816080930601DBCF0E949213D5
:10280000D8CF809107019091080105979093080116
:1028100080930701CECF0E949A13CBCF80910601FF
:102820008F7EC13ED10531F0C53ED105A1F5809125
:1028300006018F7D809306018091060180FFC2CF43
:10284000B701CE010E947412F7011581882309F4A3
:1028500059C0112309F450C00E94F40B182F0E9494
:10286000190C812B8D7FE9F01092AB021092AA0215
:1028700060E0CE010E94A912A70160E0CE010E9493
:102880008C120E94190C8D7F0E94480C82E00E94DD
:10289000EA0C10E098CFCE0190528115904360F67B
:1028A00091CF87E0F701A3EAB2E001900D928A95FB
:1028B000E1F71092A6021092A5020E94F40B182FC5
:1028C0000E94190C812B9091060181FB91F9909344
:1028D00006010E94190C8D7F0E94480CD093AB0218
:1028E000C093AA02D092AD02C092AC0280910601C0
:1028F000846080930601CACFA701B601CE010E9471
:10290000E71261CF11115ACF5DCF0E94280D0895B3
:1029100080E00E94F110817008950E94BF112FEF96
:1029200086E791E0215080409040E1F700C0000030
:102930000E94BF110E948814882321F00E948514F0
:102940000E94B91C08950E948D140895CF93DF93BF
:1029500086319C4719F5EB010E94F40B9D81992368
:1029600099F08A7A91E009F490E09093AE02811197
:1029700009C089E20E944F1B0E94BA0C80E0DF91DF
:10298000CF91089585E3F6CF8091AE02811104C006
:1029900089E20E94661BF0CF85E3FBCF81E0EFCF99
:1029A000CF93DF93EC01FB018581882309F4F5C007
:1029B0009E0130572332310508F0D5C00E94440DE6
:1029C0009093D2028093D102FE01E150F047E232AF
:1029D000F10508F026C0E151FB4E0C9497234B15EE
:1029E000BF1553151D152115571525155B156715B1
:1029F0003115B81535156B1539156F1597153D152A
:102A000073159E1543157915811529155F152D151B
:102A1000631547157D158D15A715B61517154F1597
:102A2000C6158091D10281608093D10293C08091BC
:102A3000D20288608093D2028DC08091D1028260E0
:102A4000F3CF8091D1028460EFCF8091D102886072
:102A5000EBCF8091D2028160EDCF8091D202826073
:102A6000E9CF8091D1028061DFCF8091D102806275
:102A7000DBCF8091D1028064D7CF0E947A0780910A
:102A8000D1028068D1CF8091D1028860DCCF809163
:102A9000D2028260E0CF8091D1028E7FC5CF80913B
:102AA000D202877FC7CF8091D1028D7FBDCF809129
:102AB000D1028B7FB9CF8091D102877FB5CF809132
:102AC000D2028E7FB7CF8091D2028D7FB3CF80911B
:102AD000D1028F7EA9CF8091D1028F7DA5CF809129
:102AE000D1028F7BA1CF0E947A078091D1028F778C
:102AF0009BCF8091D102877FDCCF8091D2028D7FE6
:102B0000E0CF8091D10282FB992790F921E09227B2
:102B100090FB82F990FB83F987CF8091D202982FA6
:102B2000909591708E7F892B90FB81F983CF909146
:102B3000D102892F8F7B96FF806476CF0E947A071F
:102B40009091D102892F97FB87F980586DCF81E052
:102B50000E94CD0D8091D1029091D2020E94490D28
:102B60000E947A0780E0DF91CF91089580E0F0CF56
:102B70009091D102892F8F7E94FF806155CF9091E3
:102B8000D102892F8E7F90FF81604ECF9091D2022B
:102B9000892F877F93FF88604DCF81E0E4CF282F76
:102BA00035EB2303C001112497FF04C0805891091D
:102BB000892F089580589F4FFBCF8091B50280FFE9
:102BC0000DC060910E0170E0660F771F60387105CF
:102BD00080F56115710579F1862F089581FF07C091
:102BE00060910E0184E0689FB0011124EFCF82FF55
:102BF00004C060910E0188E0F6CF2091B402222338
:102C0000A9F090910D0160910E0188E0689FB001DC
:102C100011242917D8F6269FA001279F500D1124B3
:102C2000692F70E0CA010E946123D0CF68E070E094
:102C3000D3CF8FE7089581E008958091B50280FF9A
:102C40000CC060910A0170E0759567957595679560
:102C50006115710549F1862F089581FF06C06091C5
:102C60000A0170E075956795F3CF60910A0182FDC6
:102C70000BC09091B3029923A1F06091090180915A
:102C80000A01961738F0682F70E06038710500F37C
:102C90008FE70895899FC001112470E00E9461238D
:102CA000F4CF61E070E0D7CF81E008958D3C31F43E
:102CB0000E94DD1581958093B90208958E3C19F428
:102CC0000E94DD15F8CF8F3C31F40E94DD1581950F
:102CD0008093B8020895803D19F40E94DD15F8CF65
:102CE000893D29F40E941D168093BA0208958A3DF9
:102CF00021F40E941D168195F7CF8B3D31F40E947F
:102D00001D1681958093BB0208958C3D19F40E9495
:102D10001D16F8CF9FE2980F983070F4815D990BE3
:102D200021E030E001C0220F8A95EAF78091B702D6
:102D3000822B8093B70208958D3D31F48091B502C6
:102D400081608093B50208958E3D21F48091B50293
:102D50008260F7CF8F3DB9F78091B5028460F1CFE3
:102D60008D3CD9F49091B90297FF1DC01092B90221
:102D70008091B802811106C08091B902811102C010
:102D80001092B4028091BA02811106C08091BB02F8
:102D9000811102C01092B30208958E3CD9F4909133
:102DA000B90219161CF39FE2980F983008F03FC043
:102DB000815D990B21E030E0A90102C0440F551F4D
:102DC0008A95E2F7CA0180959091B7028923809392
:102DD000B702CECF9091B8028F3C29F497FFE3CF92
:102DE0001092B802C5CF803D19F41916CCF3DBCF91
:102DF0009091BA02893D29F41916ACF61092BA02E4
:102E0000B7CF8A3D19F497FFCECFF8CF8B3D39F479
:102E10009091BB0297FFC7CF1092BB02A9CF8C3D08
:102E200009F0C1CF9091BB021916B4F3BCCF8D3D10
:102E300031F48091B5028E7F8093B50299CF8E3D9B
:102E400021F48091B5028D7FF7CF8F3D09F090CFAF
:102E50008091B5028B7FF0CF0E946C1C2091B8024C
:102E6000211104C02091B902222321F09093B202D3
:102E70008093B1022091BA02211104C02091BB02BB
:102E8000222321F09093B0028093AF0286EB92E070
:102E90000E94501A089586E0E6EBF2E0DF011D92F1
:102EA0008A95E9F71092B4021092B3021092B5021B
:102EB0000895FC01828181110EC0838181110BC0B4
:102EC0008481811108C091E08581811101C090E069
:102ED000892F8170089581E0FCCFA6E0B0E0E3E7A0
:102EE000F7E10C94AC2386E0E6EBF2E0DE0111960C
:102EF00001900D928A95E1F71092B8021092B902F2
:102F00001092BA021092BB028B81811103C08C8196
:102F1000882389F08091B1029091B2020E94841CB2
:102F2000AC019091B4029923D9F180910F018417DB
:102F3000150608F442C08D81811103C08E8188235B
:102F400091F08091AF029091B0020E94841CAC017C
:102F50009091B302992309F46AC080910B01841700
:102F6000150608F472C0BE016F5F7F4F86EB92E0DA
:102F70000E94971B811105C086EB92E00E945917B1
:102F800081110E942C1786E0FE013196A6EBB2E07B
:102F900001900D928A95E1F72696E3E00C94C82300
:102FA000209110018AE0289F9001112424173507F1
:102FB00010F69F5F9093B40202C09F3FD1F71B8130
:102FC000112359F00E94DD159FEF11160CF491E0CA
:102FD000899F802D11248093B8021C81112359F000
:102FE0000E94DD159FEF11160CF491E0899F802D52
:102FF00011248093B9028091B802882309F49BCFF1
:103000001091B902112309F496CF0E94CF1588239D
:1030100051F08093B802812F0E94CF15882329F0A8
:103020008093B90288CF81E0F4CF81E0F9CF20917D
:103030000C018AE0289F900111242417350708F01D
:1030400092CF9F5F9093B30202C09F3FD1F71D8143
:10305000112359F00E941D169FEF11160CF491E0F8
:10306000899F802D11248093BA021E81112359F06B
:103070000E941D169FEF11160CF491E0899F802D80
:1030800011248093BB028091BA02882309F46BCF8C
:103090001091BB02112309F466CF0E94CF1588233B
:1030A00051F08093BA02812F0E94CF15882329F016
:1030B0008093BB0258CF81E0F4CF81E0F9CFB0E03C
:1030C000A0E0E5E6F8E10C94A623E82FF0E0E8554F
:1030D000FE4FB490282F26952695269530E0F901CD
:1030E000E85BFD4F0491877010E0082E02C0159533
:1030F00007950A94E2F701701127F901E85CFD4F8A
:10310000E490F12C082E02C0F594E7940A94E2F7BB
:1031100091E0E922FF24F901E85DFD4FC491D0E080
:1031200002C0D595C7958A95E2F7C170DD27C62EF6
:10313000D12C0115110549F5E114F10431F086EEA9
:103140000E946304C601009771F5B6018B2D0E94A1
:10315000DF04C601009779F5E114F104A1F501152A
:10316000110531F081EE0E94AC04C6010097C9F54B
:10317000CD2B31F08CE20E94F704C114D104C9F5C3
:10318000CDB7DEB7E9E00C94C22381EE0E94630460
:10319000C601009789F2EFE9FFE03197F1F700C02F
:1031A00000000197F6CFEFE9FFE03197F1F700C09B
:1031B00000000197C8CFEFE9FFE03197F1F700C0B9
:1031C00000000197C7CF86EE0E94AC04C6010097AD
:1031D00031F2EFE9FFE03197F1F700C0000001970D
:1031E000F6CFEFE9FFE03197F1F700C0000001975B
:1031F000BDCF8FE99FE00197F1F700C0000091E09B
:10320000C91AD108BACFEF92FF920F931F93CF93B1
:10321000DF93EC01162F0AE08881882309F459C056
:10322000813009F052C08981813071F47E0182E0E1
:10323000E80EF11C8A810E94F704E701812F90E0DB
:103240000097D9F52196E8CF823041F47E01E2E083
:10325000EE0EF11C8A810E946304EFCF833041F4AB
:103260007E01F2E0EF0EF11C8A810E94AC04E5CFF2
:10327000843011F02196E2CF2A81229690E080E0FE
:10328000AE014F5F5F4F2053330B2A30310550F0B2
:103290000097A1F2EFE9FFE03197F1F700C00000DD
:1032A0000197F6CF089FB001099F700D1124C90145
:1032B000860F971F2981EA01E3CFEFE9FFE03197FD
:1032C000F1F700C000000197BBCF612F0E945F188B
:1032D000B9CFCDB7DEB7E6E00C94C52360E00E941D
:1032E000031908950F931F93CF93DF93C42FD22F09
:1032F000FC0185818823C9F04093BE020E946C1CAA
:103300009093BD028093BC0280E28C0F883040F421
:10331000C77081E001C0880FCA95EAF70E940005D6
:10332000DF91CF911F910F9108951091BE02141358
:1033300032C08091BC029091BD020E94841C883CE6
:10334000910548F5C0E2CD0F1D17B9F080E2810F5D
:10335000883040F4177081E001C0880F1A95EAF7B1
:103360000E940705C83010F581E09D2F977001C0BD
:10337000880F9A95EAF70E940005802F0E94F704B3
:10338000C83070F6D77081E001C0880FDA95EAF78F
:103390000E940705C5CF80E28C0F883008F6C77001
:1033A00081E001C0880FCA95EAF7F2CF802F0E9412
:1033B000F704B6CF0F93FC01E851FC47E730F10565
:1033C00008F03AC0CB01E951F64E0C949723FE1950
:1033D000041AEE19F8190A1A101A161A06E221EE42
:1033E00041EE6AE17CE70E94721980E00F91089536
:1033F00007E225EE45EE6BE17CE7F5CF06E221EE34
:1034000040EE68E17CE7EFCF07E225EE44EE69E1AC
:103410007CE7E9CF06E221EE42EE6CE17CE7E3CF08
:1034200007E225EE46EE6DE17CE7DDCF08E221E024
:1034300045EE6EE17CE7D7CFFB018581882319F04B
:103440001092BE02D3CF81E0D1CF9093C40280937B
:10345000C3020895E091C302F091C402309729F0AD
:103460000190F081E02D0995089580E00895E091A4
:10347000C302F091C402309721F00280F381E02D65
:1034800009950895E091C302F091C402309739F094
:1034900026E0DC012C930480F581E02D0995089548
:1034A000E091C302F091C402309739F022E0DC01D0
:1034B0002C930680F781E02D09950895A3E0B0E0F4
:1034C000E4E6FAE10C94AD232091C1023091C202EE
:1034D00028173907A1F09093C2028093C102E091AE
:1034E000C302F091C402309751F023E029839B83FB
:1034F0008A830084F185E02DCE01019609952396FB
:10350000E2E00C94C923A3E0B0E0E9E8FAE10C940E
:10351000AD232091BF023091C00228173907A1F0D6
:103520009093C0028093BF02E091C302F091C40265
:10353000309751F024E029839B838A830084F185AE
:10354000E02DCE01019609952396E2E00C94C92363
:10355000E0910401F0910501329680911B018823CE
:1035600071F08091D10287FF0AC0E0910201F091D1
:10357000030132969EE180E0915018F4089596E0A0
:10358000FACF21912223C1F38F5FF6CF882321F157
:1035900090911B01992311F19091D10297FF1EC0C8
:1035A000E82FE695E695E695EE31B0F4209102011C
:1035B00030910301E20FF32FF11D228130E087707B
:1035C00041E050E002C0440F551F8A95E2F72423E2
:1035D000352381E0232B91F480E0089520910401AC
:1035E00030910501F9013296285F3F4F919198176C
:1035F00021F0E217F307D1F7EFCF81E008959C01A6
:10360000FC0132969FEF80E04191461751F09F3FB9
:1036100019F4411101C0982F8F5F8630A9F79F3FA1
:1036200009F40895290F311D97FD3A95F901628338
:103630000895FC01329608962191261303C0DF01FC
:1036400011971C92E817F907B9F70895E62FE69548
:10365000E695E695EE3168F4E80FF92FF11D6770F5
:1036600021E030E001C0220F6A95EAF78281822BC7
:1036700082830895E62FE695E695E695EE3170F49F
:10368000E80FF92FF11D677021E030E001C0220F33
:103690006A95EAF720958281282322830895682F6E
:1036A00080911B01882359F08091D10287FF07C0C8
:1036B00080910201909103010E94261B0895809140
:1036C0000401909105010E94FF1A0895682F8091CE
:1036D0001B01882359F08091D10287FF07C0809198
:1036E0000201909103010E943A1B08958091040108
:1036F000909105010E94191B089580911B01882358
:1037000079F08091D10287FF0BC0E0910201F09126
:10371000030132968EE1DF011D928A95E9F7089543
:10372000E0910401F0910501329686E0F4CFDC01CE
:10373000FB0111969C9111978181981322C01296DA
:103740008C911297882319F0928189131AC01396CD
:103750008C911397882319F09381891312C01596C1
:103760008C911597882319F0958189130AC01496B6
:103770009C91992321F081E02481291303C080E0EA
:1037800001C081E08170089508950E94C41B0895CE
:10379000811106C081E08093C5020E94C51B089577
:1037A00082E0F9CF83E08093C5020E94C51B089593
:1037B0000E94C81B089581E08093C5020E94C51B2A
:1037C00008950E94DB1B0895089508950E94E51B4B
:1037D0000895089508950E94E41B0895CF930E94D0
:1037E000E91B0E94BF110E94EA1BC0E08C2F0E94BF
:1037F000F110892B31F4CF5FC730C1F780E0CF9152
:10380000089581E0FCCF85B7806885BF85B7806863
:1038100085BF08951F920F920FB60F9211248F93B8
:103820009F93AF93BF938091C602811113C0809183
:10383000EF029091F002A091F102B091F202419654
:10384000A11DB11D8093EF029093F002A093F102AD
:10385000B093F202BF91AF919F918F910F900FBEE5
:103860000F901F9018958091F702843031F10E94DB
:103870006B031092C60288E190E020E40FB6F89442
:10388000A895809360000FBE2093600083B7817F6E
:10389000846083BF83B7816083BF7894889583B742
:1038A0008E7F83BF0FB6F894A895809160008861E1
:1038B00080936000109260000FBE08950E947A0706
:1038C0000E947003089582E084BD93E095BD9AEF55
:1038D00097BD80936E0008952FB7F8948091EF0202
:1038E0009091F002A091F102B091F2022FBF0895E1
:1038F0002FB7F8946091EF027091F0028091F1027D
:103900009091F2022FBF08959C014FB7F8948091D7
:10391000EF029091F002A091F102B091F2024FBF3C
:10392000821B930B089578941F920F920FB60F92FB
:1039300011248F939F93AF93BF938091EF02909147
:10394000F002A091F102B091F2020196A11DB11D09
:103950008093EF029093F002A093F102B093F202F1
:10396000BF91AF919F918F910F900FBE0F901F90BD
:10397000189587E797E7909301088093000888E1FE
:103980009AE00FB6F894A895809360000FBE9093CC
:103990006000FFCF88E19AE00FB6F894A895809375
:1039A00060000FBE90936000FFCF8091CF0208951A
:1039B0009B019091F7029430F1F48F708093E900AD
:1039C0008FEF9091E800815095FD06C095ED9A9596
:1039D000F1F700008111F5CF8091E80085FF0BC061
:1039E000BA01C90150E040E00E94D91E8091E80070
:1039F0008E778093E800089543E050E0BC0182E0B8
:103A00000E94D81C089546E050E0BC0182E00E946C
:103A1000D81C089540E250E0BC0182E00E94D81C0E
:103A20000895CF93DF93EC0148E050E0BC0181E0C2
:103A30000E94D81C88E0FE01A7ECB2E001900D9234
:103A40008A95E1F7DF91CF9108958091F602811177
:103A500009C00E9469200E94C6208091E200846013
:103A60008093E20008951092F60208950E94DB1BF5
:103A700008956091F30281E0611101C080E00E942D
:103A8000D21B08959091F70281E0943009F080E014
:103A90006091F3020E94D81B089542E061EC81E03E
:103AA0000E94E71F42E261EC82E00E94E71F9091D2
:103AB000F70281E0943009F080E06091F3020E9407
:103AC000C81B08958091F902833009F464C030F472
:103AD0008130E9F1823009F4A1C008958A3009F4F7
:103AE0008DC08B3009F472C0893009F053C08091C9
:103AF000F802813209F04EC08091FC029091FD02E3
:103B0000029708F047C08091E800877F8093E80023
:103B10008091E80082FF3AC08091F3009091F2001A
:103B2000892798278927029731F48091F100813005
:103B300011F0863021F48091F1008093CF028091C2
:103B4000E8008B778093E8000E941B2023C08091BF
:103B5000F802813AF9F48091E800877F8093E800C9
:103B60008091FC029091FD02892B61F468E087EC62
:103B700092E070E00E94281F8091E8008B7780938C
:103B8000E800089560E090E080E0F3CF8091F702D4
:103B90008111BECF08958091F802813AD9F78091C2
:103BA000FC029091FD02892BA9F78091E800877FA4
:103BB0008093E8008091E80080FFFCCF80911B019A
:103BC0008093F1008091E8008E77BCCF8091F8025D
:103BD000813201F78091FC029091FD02892BD1F690
:103BE0008091E800877F8093E8000E941B208091ED
:103BF000FA0280931B010E947A0708958091F802CF
:103C0000813241F68091E800877F8093E8000E942E
:103C10001B208091FB028093D00208958091F802CE
:103C2000813A09F0B7CF8091E800877F8093E80060
:103C30008091E80080FFFCCF8091D002C1CF84B793
:103C4000877F84BF0FB6F894A89580916000886143
:103C500080936000109260000FBE80E890E00FB685
:103C6000F89480936100909361000FBE0E94E11B65
:103C700008950E9469200E94C620E2EEF0E0808153
:103C80008460808378940E944523089581E191E0C7
:103C90000E94251A08958091F702853031F48091B1
:103CA000F702853019F00E945E1C08950E94331CB3
:103CB0000E94EE1B882399F38091F502882379F303
:103CC0000E94C31E0E947A07EACF08959A0140918C
:103CD000FE025091FF020E946E1E0895492F552743
:103CE0004330510571F158F441305105E9F042304B
:103CF000510511F190E080E050E040E019C0413200
:103D0000510591F142325105A9F784E490E045E86C
:103D100053E06115710561F086EB90E04FEC52E0E5
:103D20006130710529F0E6CF82E190E04DEB52E081
:103D3000F9015183408308958BE390E042E852E01B
:103D4000F7CF99278130910561F028F0029791F61D
:103D5000E8E5F2E002C0EEE7F2E0849190E0AF0126
:103D6000E7CFE8E6F2E0F9CF89E090E044E952E0FD
:103D700061157105E9F289E090E04DEA52E06130A9
:103D80007105B1F2B7CF80E189BD82E189BD09B487
:103D900000FEFDCF8091D8008F7D8093D800809168
:103DA000E00082608093E0008091E00081FDFCCF24
:103DB0000895AF92BF92CF92DF92FF920F931F931D
:103DC000CF93DF936C01EB018A010E943A20F82E19
:103DD000811123C00115110539F0F801808191810D
:103DE000C81BD90BC80ED91EB12CA12C2097A9F045
:103DF0008091E80085FD22C08091E8008E77809355
:103E0000E80001151105A1F0F80180819181A80E4B
:103E1000B91EB182A08285E0F82E8F2DDF91CF915F
:103E20001F910F91FF90DF90CF90BF90AF900895BA
:103E30000E943A208823D1F2F82EEFCFF60181912B
:103E40006F018093F1002197FFEFAF1ABF0ACECF29
:103E5000FC018091FE029091FF0286179707A0F067
:103E60006115710529F49091E8009E779093E80020
:103E700090E06115710551F4911108C08091E8003E
:103E800082FF35C080E00895BC01F2CF8091F70237
:103E90008823C9F18530C9F18091E80083FD31C0E4
:103EA0008091E80082FDEACF8091E80080FFE1CFB9
:103EB0002091F3008091F200322F282F61157105B7
:103EC00019F02830310558F091E02830310509F01B
:103ED00090E02091E8002E772093E800CACF8191EE
:103EE0008093F100615071092F5F3F4FE7CF8091C0
:103EF000F702882341F0853041F08091E80083FF8C
:103F0000BDCF81E0089582E0089583E00895FC012B
:103F10008091FE029091FF0286179707A0F061152D
:103F2000710529F48091E8008E778093E80090E095
:103F30006115710551F4911108C08091E80082FF6C
:103F400036C080E00895BC01F2CF8091F70288234B
:103F5000D1F18530D1F18091E80083FD32C08091AC
:103F6000E80082FDEACF8091E80080FFE1CF209158
:103F7000F3008091F200322F282F6115710519F09E
:103F80002830310558F091E02830310509F090E0F3
:103F90008091E8008E778093E800CACF8491809367
:103FA000F1003196615071092F5F3F4FE6CF80914C
:103FB000F702882341F0853041F08091E80083FFCB
:103FC000BCCF81E0089582E0089583E00895982FA2
:103FD000973028F08F708093E90081E008959093E6
:103FE000E900242F762F50E0981731F07091EC0003
:103FF0002091ED005091F00021FD02C09F5FE8CFBD
:104000003091EB003E7F3093EB003091ED003D7F2F
:104010003093ED003091EB0031603093EB00709302
:10402000EC002093ED005093F0002091EE0027FD6E
:10403000E5CF80E008958091F80287FF13C080915A
:10404000E80082FF06C08091E8008B778093E8004B
:1040500004C08091F7028111F2CF08958091F70298
:104060008823D9F38091E80080FFF8CF8091E800A1
:104070008E77ECCF2091E4003091E50085E69091B9
:10408000EC0090FF06C09091E80090FF06C080E031
:1040900008959091E80092FDFACF9091F70299234C
:1040A00091F0953091F09091EB0095FD10C040910A
:1040B000E4005091E5002417350709F381509A0177
:1040C000F1F684E0089582E0089583E0089581E0A8
:1040D00008950E94D8200E94E020E0EEF0E0808168
:1040E00081608083E8EDF0E080818F77808319BC68
:1040F000A7EDB0E08C918E7F8C9380818F7E808342
:104100001092F60208950F931F93CF93DF930E94AE
:10411000D8200E94E020C8EDD0E088818F77888386
:1041200088818068888388818F7D888319BC1092FC
:10413000F7021092F3021092F5021092F40200EED0
:1041400010E0F80180818B7F808388818160888383
:1041500042E060E080E00E94E71FE1EEF0E0808155
:104160008E7F8083E2EEF0E08081816080838081B9
:1041700088608083F80180818E7F80838881806160
:104180008883DF91CF911F910F910895E8EDF0E0C2
:1041900080818F7E8083E7EDF0E080818160808385
:1041A00084E082BF81E08093F6020E94832008951C
:1041B000E8EDF0E080818E7F80831092E200089528
:1041C0001092DA001092E10008951F920F920FB63C
:1041D0000F9211242F933F934F935F936F937F938D
:1041E0008F939F93AF93BF93EF93FF938091E100E1
:1041F00082FF0BC08091E20082FF07C08091E10046
:104200008B7F8093E1000E9444238091DA0080FF3D
:1042100019C08091D80080FF15C08091DA008E7F90
:104220008093DA008091D90080FF94C080E189BD3D
:1042300082E189BD09B400FEFDCF81E08093F702E1
:104240000E94251D8091E10080FF19C08091E2004D
:1042500080FF15C08091E2008E7F8093E200809104
:10426000E20080618093E2008091D80080628093B8
:10427000D80019BC85E08093F7020E94391D809117
:10428000E10084FF29C08091E20084FF25C080E125
:1042900089BD82E189BD09B400FEFDCF8091D800BF
:1042A0008F7D8093D8008091E1008F7E8093E10024
:1042B0008091E2008F7E8093E2008091E200816035
:1042C0008093E2008091F302882309F449C084E0DE
:1042D0008093F7020E94421D8091E10083FF29C074
:1042E0008091E20083FF25C08091E100877F809369
:1042F000E10082E08093F7021092F3028091E100E6
:104300008E7F8093E1008091E2008E7F8093E200B7
:104310008091E20080618093E20042E060E080E012
:104320000E94E71F8091F00088608093F0000E9457
:10433000361DFF91EF91BF91AF919F918F917F912A
:104340006F915F914F913F912F910F900FBE0F9002
:104350001F90189519BC1092F7020E94331D72CF5E
:104360008091E30087FD02C081E0B2CF83E0B0CF4F
:104370001F920F920FB60F9211242F933F934F93DA
:104380005F936F937F938F939F93AF93BF93CF93DD
:10439000EF93FF93C091E900CF708091EC001092F1
:1043A000E9008091F000877F8093F00078940E946C
:1043B000F4211092E9008091F00088608093F00071
:1043C000C093E900FF91EF91CF91BF91AF919F9181
:1043D0008F917F916F915F914F913F912F910F90AE
:1043E0000FBE0F901F901895AAE2B0E0EAEFF1E23D
:1043F0000C94AC23E8EFF2E08091F100819323E08C
:10440000E030F207C9F70E94621D8091E80083FF47
:1044100044C08091F8029091F9029A3008F03DC0B2
:10442000E92FF0E0EA5EFD4D0C949723202246220E
:104430004D2246224D229E22C0224D2217232423A4
:10444000803889F0823849F58091FC028F7087307E
:1044500020F58093E9008091EB0085FB882780F9A7
:104460001092E90006C08091F4029091F50291113A
:1044700082609091E800977F9093E8008093F1002C
:104480001092F1008091E8008E7727C0282F2D7FB1
:1044900021F48823A1F0823029F18091E80083FF84
:1044A0000AC08091E800877F8093E8008091EB004C
:1044B00080628093EB00AA96E3E00C94C82380917D
:1044C000FA02813051F7933009F080E08093F502D1
:1044D0001092E9008091E800877F8093E8000E94B5
:1044E0001B20DBCF8091FA028111F2CF8091FC0278
:1044F0008F702FEF280F263080F68093E9002091EF
:10450000EB0020FFE5CF933031F48091EB00806227
:104510008093EB00DDCF9091EB0090619093EB00E6
:1045200021E030E001C0220F8A95EAF72093EA00EB
:104530001092EA008091EB008860EACF8111ADCF44
:104540001091FA021F778091E3008078812B80938D
:10455000E3008091E800877F8093E8000E941B20A1
:104560008091E80080FFFCCF8091E3008068809319
:10457000E30083E0111101C082E08093F7028DCF48
:104580008058823008F089CF8091FA029091FB0226
:104590008C3D23E09207A1F583E08A838AE2898338
:1045A0004FB7F894DE01139620E03EE051E2E32F8E
:1045B000F0E050935700E49120FF03C0E295EF70C4
:1045C0003F5FEF708E2F90E0EA30C0F0C7968D937A
:1045D0009D932F5F243159F74FBF8091E800877F6B
:1045E0008093E8006AE270E0CE0101960E94281FE5
:1045F0008091E8008B778093E8004FCFC096E7CF9B
:104600006091FC027091FD02AE014F5F5F4F0E940E
:10461000661EBC01892B09F440CF9091E800977F7A
:104620009093E80089819A810E94871FE1CF8038AA
:1046300009F033CF8091E800877F8093E800809174
:10464000F3028093F1001ECF811127CF9091FA02DF
:10465000923008F022CF8091E800877F8093E800B5
:104660009093F3020E941B208091F302882331F083
:1046700084E08093F7020E944D1D0FCF8091E300EC
:1046800087FDF6CF81E0F5CF0895CF938091F702B3
:10469000882399F0C091E900CF708091EC0080FDF3
:1046A0000EC080E0C82B1092E9008091E80083FDE5
:1046B0000E94F421CF70C093E900CF91089580E863
:1046C000F1CF97FB072E16F4009407D077FD09D0A1
:1046D0000E94D42307FC05D03EF4909581959F4F0E
:1046E0000895709561957F4F0895A1E21A2EAA1B37
:1046F000BB1BFD010DC0AA1FBB1FEE1FFF1FA21792
:10470000B307E407F50720F0A21BB30BE40BF50B8E
:10471000661F771F881F991F1A9469F76095709517
:10472000809590959B01AC01BD01CF010895EE0FDE
:10473000FF1F0590F491E02D09942F923F924F9224
:104740005F926F927F928F929F92AF92BF92CF9221
:10475000DF92EF92FF920F931F93CF93DF93CDB72A
:10476000DEB7CA1BDB0B0FB6F894DEBF0FBECDBFA2
:1047700009942A88398848885F846E847D848C8473
:104780009B84AA84B984C884DF80EE80FD800C817C
:104790001B81AA81B981CE0FD11D0FB6F894DEBF5F
:1047A0000FBECDBFED010895AA1BBB1B51E107C091
:1047B000AA1FBB1FA617B70710F0A61BB70B881FB1
:1047C000991F5A95A9F780959095BC01CD01089540
:1047D000FB01DC0104C08D910190801921F441504E
:1047E0005040C8F7881B990B0895FB01DC0102C0FB
:1047F00001900D9241505040D8F70895F999FECF9D
:1048000092BD81BDF89A992780B50895A8E1B0E0DE
:1048100042E050E00C944224DC01A40FB51F41504B
:10482000504048F0CB01840F951F2E910E941D240B
:1048300041505040D0F70895262FF999FECF92BDF0
:1048400081BDF89A019700B4021639F01FBA20BD55
:104850000FB6F894FA9AF99A0FBE08950396272F87
:104860000E941D240E941C24252F0E941D24242FF9
:104870000C941D240196272F0E941D240C941C24A7
:10488000DC01CB01FC01F999FECF06C0F2BDE1BD10
:10489000F89A319600B40D9241505040B8F70895FF
:0448A000F894FFCFBA
:1048A400FF003D025D0201AF00280850011E0A14FA
:1048B40001D51C111D0A1D031DFC1C01E200E900A9
:1048C400EA00B500B600B700CD008301CC008A0130
:1048D40092019401210223022402250226022702C6
:1048E4002A02B300B4006F0070009F01CB019F0245
:1048F400A002818283E200E900EA00B500B600B7B5
:1049040000CD008301CC008A01920194012102238D
:104914000224022502260227022A02B300B4006FF1
:104924000070009F01CB019F02A002818283C634E4
:0E49340035F4F5F6F73133939291909466972F
:00000001FF
