:100000000C9422020C943F020C943F020C943F0289
:100010000C943F020C943F020C943F020C943F025C
:100020000C943F020C943F020C94C9200C949B2129
:100030000C94E41B0C943F020C943F020C943F027E
:100040000C943F020C943F020C943F020C943F022C
:100050000C943F020C946D1C0C943F020C943F02D4
:100060000C943F020C943F020C943F020C943F020C
:100070000C943F020C943F020C943F020C943F02FC
:100080000C943F020C943F020C943F020C943F02EC
:100090000C943F020C943F020C943F020C943F02DC
:1000A0000C943F020C943F020C943F029C059C056B
:1000B000C805C80536065406430743075906CF0648
:1000C000E006E006BC152E16C4158E159215C8154F
:1000D0009515CB15D615A0152416A415DA15A81557
:1000E000DE150816AC15E2151216B215E815F21554
:1000F0009915CF159C15D215B715ED15FE151E16C1
:1001000020168A15C0153716161A1C1A0A1A101A44
:10011000221A281A2E1A03222A2222232A222223D2
:10012000762299222223F022FF2229001E001F009E
:1001300020002100220023002400250026002700A3
:100140002D002E0035002A002A002B0014001A0072
:100150000800150017001C0018000C001200130006
:100160002F0030002A003221040016000700090089
:100170000A000B000D000E000F00330034003200A7
:100180002800E10064001D001B00060019000500A6
:1001900011001000360037003800E500E30021525E
:1001A000E2002C003E21E20035023A003B003C0018
:1001B0003D003E003F00400041004200430044003B
:1001C000450001004C054C05007C1E001F0020006E
:1001D0000100010001000100010001000100010017
:1001E0000100010019132100220023000100010079
:1001F0005000510052004F000100010001000100B9
:100200000100240025002600270001004A004E00BE
:100210004B004D0001000100010001000100010040
:1002200001000100010000000000000000002A2B76
:100230002800000000000000000000000000000096
:100240000029000000002C1E3420212224342627FF
:10025000252E362D3738271E1F2021222324252620
:100260003333362E37381F0405060708090A0B0CEE
:100270000D0E0F101112131415161718191A1B1C36
:100280001D2F3130232D350405060708090A0B0CF4
:100290000D0E0F101112131415161718191A1B1C16
:1002A0001D2F3130354C0000000000000000000020
:1002B000000000000000000000000000000000003E
:1002C000000000000000000000007E0F00D4FFFFCF
:1002D000FFC7000000780E0375006E00690078000B
:1002E0003600300000001403460052003400420083
:1002F0006F006100720064007300000004030904D1
:1003000009023B00020100A0FA09040000010301F8
:1003100001000921110100012240000705810308A5
:10032000000109040100010300000009211101007E
:100330000122B6000705820320000112010002001D
:10034000000008524658550100010200010501094C
:1003500002A10185020901A1000509190129081559
:100360000025019508750181020501093009311543
:1003700081257F95027508810609381581257F95AD
:100380000175088106050C0A38021581257F950143
:1003900075088106C0C005010980A1018503190106
:1003A0002AB700150126B700950175108100C00518
:1003B0000C0901A101850419012AA002150126A03A
:1003C00002950175108100C005010906A10185068D
:1003D000050719E029E71500250195087501810237
:1003E0000507190029EF1500250195F07501810217
:1003F00005081901290595057501910295017503F7
:100400009101C005010906A101050719E029E715B9
:100410000025019508750181029501750881010586
:1004200007190029FF150026FF00950675088100B1
:1004300005081901290595057501910295017503B6
:100440009101C00011241FBECFEFDAE0DEBFCDBFA7
:1004500011E0A0E0B1E0E2E6F8E402C005900D9200
:10046000AA39B107D9F722E0AAE9B1E001C01D928B
:10047000A93FB207E1F70E94CE120C942F240C94EE
:1004800000008230B0F46730A0F4493090F49FE36C
:10049000899FF001112489E0689FE00DF11D11246E
:1004A000E40FF11DEE0FFF1FE65DFE4F8591949165
:1004B000089581E090E008950E94410208959C0112
:1004C0003A9521153F4130F5BC0166277270AC01A9
:1004D000442754709C012227387094FF0FC090FF6E
:1004E00002C080E101C080E0672B09F08062452BEB
:1004F00009F08064232B79F080680895892F81703A
:10050000672B09F08260452B09F08460232B19F0DA
:100510008860089580E00895CF93DF93EB010E94F7
:100520005F02FE010995DF91CF910895CF93DF938C
:10053000EC01805E9109089710F0209719F46FE4A0
:1005400075E002C06CEA77E0CE010E948C028C2F2D
:100550000E949F04DF91CF910895CF93DF93EC0128
:100560000E94F504CE01805E9109089710F0209753
:1005700019F466E575E002C063EB77E0CE010E94F6
:100580008C02DF91CF91089581E0089581E0089574
:100590000E94C602089508950E94CB020895A5E026
:1005A000B0E0E5EDF2E00C949B2349835A8330914F
:1005B000A80189819A81311114C0662359F0222340
:1005C00049F00E942F09182F682F89819A810E9473
:1005D0000B0903C00E941D09182F69817A81812FA0
:1005E00004C00E942F0969817A810E9448102596D3
:1005F000E3E00C94B723FC01262F408151816281F6
:10060000738184810E94CF02089581E00895CF9381
:10061000DF93EC0160E00E94FB02BE010E94CC026D
:10062000DF91CF91089508950E94D4070E9413038B
:100630002FEF84E39CE0215080409040E1F700C020
:10064000000008950E9414030E94931C08950E94C4
:1006500014030E94A41C08950F931F93CF93DF935C
:100660008C0161E00E94FB02EC01B8010E94C8020B
:10067000882309F449C0B801CE010E947618882366
:1006800009F442C0B801CE010E94FE198823E1F1AD
:10069000B801CE010E9466158823B1F1B801CE01E0
:1006A0000E946419882381F1F8018281882341F135
:1006B000C3308CE7D807D1F040F4C115FCE7DF0761
:1006C00091F0C130DC47A1F01BC0CB35ECE7DE0771
:1006D000A9F0CC35FCE7DF0771F0CA35DC4781F4BF
:1006E0000E949C0D0DC00E9422030EC00E94A40D0A
:1006F0000E94270309C00E94920D02C00E94A00D13
:10070000C8010E94C40201C080E0DF91CF911F9117
:100710000F9108950E94BC1B0E942C0408950E9412
:1007200030040E94C51B08952F923F924F925F9212
:100730006F927F928F929F92AF92BF92CF92DF92F1
:10074000EF92FF920F93CF93DF931C0129013A019F
:100750007B0181E0E81AF108E101CE0DDF1D18826E
:10076000C12CD12C8AE0882E912CA12CB12CCE1436
:10077000DF0408F5C301B201A50194010E946423BE
:10078000605D603319F4C114D10439F0411451048F
:100790006104710419F4602F01C060E36A93C3011E
:1007A000B201A50194010E94642329013A018FEF4F
:1007B000C81AD80ADCCFC101DF91CF910F91FF9009
:1007C000EF90DF90CF90BF90AF909F908F907F90F1
:1007D0006F905F904F903F902F9008950F932091CE
:1007E0000001309101012817390721F42091A2015D
:1007F000261789F0062F90930101809300016093E2
:10080000A2019C0140E050E066E070E08CE991E0DC
:100810000E94940302C08CE991E00F91089508951D
:1008200081E008950895CF93DF93D82F0E9410049C
:10083000C82F882319F08D2F0E9412048C2FDF916E
:10084000CF9108950895CF93C82F0E940F048C2F45
:100850000E941304CF91089580E00E94230408951C
:100860000E944B1A0E9423040895CF930E944B1AB2
:10087000C82F8091A301C81779F0C093A3010E94EB
:10088000521C6093A4017093A5018093A6019093DC
:10089000A7018C2F0E942304CF910895ABE0B0E014
:1008A000E4E5F4E00C949C234F83588769877A87AA
:1008B0008B8761110E94DA0C9E012F5F3F4F86E00B
:1008C000F90111928A95E9F785E0FE013796D90181
:1008D00001900D928A95E1F789819A814C815D8121
:1008E000452B31F09F3F31F491E08F3F19F403C065
:1008F00091E001C090E090FF09C049815A816B816D
:100900007C818D819E810E94060C05C0C9010E94D8
:1009100005038111F2CF2B96E2E00C94B823FC0181
:10092000808191810E9461090895662319F00E94D7
:10093000531302C00E94AE130E9425140895CF9352
:10094000882309F450C0C82F8CEF8C0F813AD0F463
:100950006C2F80910201909103010E94E01A88237C
:1009600049F06C2F80910201909103010E946E1B4F
:100970000E94FE0C6C2F80910201909103010E9455
:10098000601B0CC080E28C0F883058F4C77081E087
:1009900001C0880FCA95EAF70E94BD0C0E94FE0CA8
:1009A00022C0EBE5EC0FE33040F4F0E0E25BFE4FF9
:1009B000808190E00E94801A16C0E8E5EC0FEB31D0
:1009C00050F4F0E0EE0FFF1FE85EFE4F8081918152
:1009D0000E94A51A08C083E38C0F833120F461E0E4
:1009E0008C2F0E949504CF9108958823A9F19CEF44
:1009F000980F913A40F4682F809102019091030181
:100A00000E946E1B0DC090E2980F983060F48770C2
:100A100091E001C0990F8A95EAF7892F0E94C30CD3
:100A20000E94FE0C08959BE5980F933028F480E017
:100A300090E00E94801A089598E5980F9B3128F461
:100A400080E090E00E94A51A089593E3980F9331F7
:100A500018F460E00E94950408951F93CF93DF93EC
:100A6000182FEB010E949F04209741F08FE99FE02F
:100A70000197F1F700C000002197F6CF812F0E9467
:100A8000F504DF91CF911F910895893319F060E04B
:100A900070E002C060E570E00E942D050895882393
:100AA00021F00E94BD0C0E94FE0C0895882321F0C5
:100AB0000E94C30C0E94FE0C0895A0E0B0E0E3E6A3
:100AC000F5E00C9496237C01162FC72FFC01D281F0
:100AD000058102950F700E94B30C8823E9F0DD2395
:100AE000D9F08C2F807F803451F080E2810F8830E4
:100AF00098F0011104C08C2F807E803269F08091C3
:100B0000CB0282FF09C082E00E94600D0E94B30CFC
:100B100091E0D82ED92601C0D12CCC2EC2948FE0E2
:100B2000C8228C2D90E08C30910508F0ACC1FC01FE
:100B3000EA5AFF4F0C9486238C2F807FCF70882336
:100B400011F0C295C07FDD2399F0CC2309F487C151
:100B500080E2810F883010F0111104C08C2F0E94A8
:100B6000BD0C03C08C2F0E94CD0C0E94FE0C77C1DF
:100B7000812F0E94F504CC2309F485C180E2810F06
:100B8000883038F1112329F18C2F0E94D30C24C016
:100B90008C2F807FCF70803211F0C295C07F1123DF
:100BA00019F01130D1F143C08091CB0282FD17C002
:100BB000DD2349F0CC2329F08C2F0E94BD0C0E942C
:100BC000FE0C80E04DC180E00E94F504CC2309F4C6
:100BD0005AC18C2F0E94C30C0E94FE0C54C1DD230D
:100BE00071F0002341F0013031F40E94DD0C8C2BB8
:100BF0000E94E70C48C10E94DD0C8C2B23C0011120
:100C000003C00E94F40C2EC0013009F43CC18C2FAB
:100C10000E9456050E94F40C36C1DD2321F00630F7
:100C200008F031C10EC0053008F02DC11BC0DD2316
:100C300061F0002331F0F701858180FF10C18F70D2
:100C400085838C2F0E944F051EC1002359F0193354
:100C500009F016C1FFEF27EE83E0F15020408040FD
:100C6000E1F70CC18C2F0E9456050DC18C2F869583
:100C70008695837019F0813061F005C1DD2321F084
:100C8000812F9C2F937002C080E090E00E94801A18
:100C900002C1DD2321F0812F9C2F937002C080E0E0
:100CA00090E00E94A51AF7C06D2F812F0E94950435
:100CB000F2C08C2F8370B1F5D111E9C0412F42955C
:100CC00046954770440F440F812F8F7090E09C0130
:100CD000042E02C0220F331F0A94E2F714FF0AC049
:100CE0008FE090E002C0880F991F4A95E2F7809547
:100CF000909502C080E090E0C695C695C370822BA7
:100D0000932BC23049F058F4C13019F00E943E08CC
:100D1000BEC00E943508BBC00E944708B8C00E94F0
:100D20003208B5C0DD2319F08C2F817001C0869583
:100D3000882309F4ACC0412F429546954770440F73
:100D4000440F812F8F7090E09C01042E02C0220F6F
:100D5000331F0A94E2F714FF0AC08FE090E002C04C
:100D6000880F991F4A95E2F78095909502C080E020
:100D700090E0C695C695C370822B932BC23049F084
:100D800058F4C13019F00E94A60881C00E949D0845
:100D90007EC00E94AF087BC00E94530878C0CF700D
:100DA000DD2339F08C2F0E946B08812F0E944F05A4
:100DB0006EC0812F0E9456058C2F0E947B0867C051
:100DC000123F21F128F4103F41F0113FC1F043C020
:100DD000133F19F1143F79F03EC0DD2341F0053097
:100DE00008F051C08C2F8F710E948D084CC00630C6
:100DF00008F049C0F7CF8091CB0282FD18C0DD23F7
:100E000039F08C2F8F710E946B083DC0DD23C9F330
:100E10008C2F8F710E947B0836C0DD2329F08C2F28
:100E20008F710E945F082FC00E945A082CC0DD23DA
:100E300049F0CF718C2F0E946B0863E08C2F0E94C9
:100E4000420D21C081E00E94600D0230E0F082E09E
:100E50000E94600D18C0DD2331F0002391F2812F34
:100E60000E949F0410C0002399F2193349F49FEFA8
:100E7000E7EEF3E09150E040F040E1F700C0000001
:100E8000812F0E94F50488EF8C0D843020F40E949D
:100E90004B1A0E942304DD2089F00E94AF0C80FDD4
:100EA0000DC0F70112820E94A90C0E946B08C701B5
:100EB0000E947B070E94A90C0E947B08CDB7DEB779
:100EC000E8E00C94B2230F931F93CF93DF93EC01D0
:100ED000688179818A810E946C098C010E94B8081E
:100EE0000E942308B801CE010E945D05DF91CF91D9
:100EF0001F910F910895CF93DF93EC019881898121
:100F00002B813C81232B31F08F3F31F481E09F3FD7
:100F100019F403C081E001C080E080FD1AC0CE0159
:100F20000E942C0381110FC00E94B30C882389F00A
:100F30008A81882371F08091CB0282FF0AC082E00F
:100F40000E94600D06C0CE010E946307CE010E9480
:100F50000703DF91CF910895882321F00E94CD0CE3
:100F60000E94FE0C0895882321F00E94D30C0E9459
:100F7000FE0C089580E090E00E94801A80E090E0EE
:100F80000E94A51A0E94DA0C0E94FE0C0E944414D2
:100F90000E942514089580910201909103010E94FE
:100FA0007C1B0E94BA0708950E94CA0C0E94CB07BE
:100FB000089592959F70963079F010F4925001C088
:100FC0009A50923068F4803F69F018F4883E40F4FB
:100FD00009C0843F29F406C0883E20F0813F11F00B
:100FE00080E0089581E00895FC0190818181238152
:100FF0003481232B31F08F3F31F481E09F3F19F48E
:1010000003C081E001C080E080FD07C08081918144
:101010000E9461090E94D907089580E00895A5E023
:10102000B0E0E5E1F8E00C949C232596E2E00C9416
:10103000B823A6E0B0E0EFE1F8E00C949C232696FC
:10104000E2E00C94B823089508950E9424080895BE
:101050000E94250808950E9428089093CC0180934F
:10106000CB0108950E942B0808952091CB01309167
:10107000CC01822B932B0E942B0808952091CB0149
:101080003091CC01822393230E942B080895209154
:10109000CB013091CC01822793270E942B08089521
:1010A0000E94240808950E9450089093CA018093DA
:1010B000C901089580E090E00E945308089521E05E
:1010C00030E0A90102C0440F551F8A95E2F7CA011A
:1010D0000E945308089521E030E002C0220F331F20
:1010E0008A95E2F78091C9019091CA01822B932BD6
:1010F0000E945308089521E030E002C0220F331F00
:101100008A95E2F7209530958091C9019091CA01A6
:10111000822393230E945308089521E030E002C007
:10112000220F331F8A95E2F78091C9019091CA017D
:10113000822793270E94530808952091C901309176
:10114000CA01822B932B0E94530808952091C90154
:101150003091CA01822393230E945308089520915D
:10116000C9013091CA01822793270E94530808952C
:101170000895962F9770A1E001C0AA0F9A95EAF7FB
:1011800093E0769567959A95E1F7660F771F660F5E
:10119000771FFA01E60FF71F40E050E0682F70E07C
:1011A00090819B01042E02C0369527950A94E2F7A0
:1011B0002170219529272A23292721934F5F5F4FEB
:1011C0004430510569F70895FB01782F777023E0CB
:1011D000969587952A95E1F7880F991F880F991F93
:1011E000E80FF91F40E050E080E0219130E0072E49
:1011F00002C0369527950A94E2F721703327042E12
:1012000001C0220F0A94EAF7822B4F5F5F4F4430F0
:10121000510559F70895282F973070F4893060F4FC
:10122000862F622F70E029E0929F600D711D1124BE
:1012300049EA51E00E94B9080895973070F4893066
:1012400060F4292F90E069EA71E039E0239F800D76
:10125000911D11240E94E408089580E00895A0E003
:10126000B0E0E5E3F9E00C9495237C010091C9011D
:101270001091CA018091CB019091CC01082B192BC0
:10128000CFE0D0E0CC24C394D12CC6010C2E02C0F8
:10129000880F991F0A94E2F780239123892B21F468
:1012A000219798F7B12C07C0BC2EB7018C2F0E9454
:1012B00054100197A9F38B2DCDB7DEB7E9E00C945C
:1012C000B123CF93DF93EC010E942F09BE010E944E
:1012D0005410DF91CF9108951F93CF93DF93EB01CB
:1012E0009091A801992321F0CB010E94610913C0BC
:1012F000882349F0CB010E942F09182F682FCE01B7
:101300000E940B0904C0CB010E941D09182FBE01C9
:10131000812F0E945410DF91CF911F9108951F9348
:10132000CF93DF93C091CD0116E08091CE01C81715
:1013300099F0D0E01C9FF0011D9FF00D1124E153A6
:10134000FE4F4081518162817381848195810E9429
:1013500019082196C770E9CFDF91CF911F910895A9
:101360004091FF01509100026091010270910202D0
:1013700080910302909104020E941908089520911F
:10138000CD019091CE0156E02917A9F030E0529F8F
:10139000F001539FF00D1124E153FE4F718176133C
:1013A00006C07081781303C07281741306C02F5F6A
:1013B0003F4F2770E9CF80E0089581E008950F93B3
:1013C0001F93CF93DF938091040282958F7009F071
:1013D0005AC080910102882309F455C08091CD0143
:1013E0001091CE016091FF0170910002C091020244
:1013F000D091030291E06F3F09F090E0292F06E0C1
:10140000811709F440C0209721F07F3F21F030E0A0
:1014100003C031E001C0322F90E030FD31C0089FA1
:10142000F001099FF00D1124DF01A153BE4F119669
:101430003C911197371324C03C91361321C012966A
:101440003C91129731111CC013964D915C911497E9
:101450004C1B5D0B483C510598F4809104028F7041
:10146000806180930402EC52FE4F80818F70806116
:1014700080838FEF91E00E947B070E948F0903C059
:1014800001968770BDCFDF91CF911F910F91089585
:10149000A1E1B0E0EEE4FAE00C9492238C0185E047
:1014A000F801DE011D9601900D928A95E1F7F80191
:1014B000E2809091FF012091000240910202509140
:1014C00003024115510531F02F3F31F481E09F3F78
:1014D00019F403C081E001C080E080FD78C1F8010B
:1014E000C080D180838094808FEFA82E81E0B82EB9
:1014F000F0900102B401641B750BFF2009F411C1C7
:1015000080910402382F307F683C710508F0CBC011
:1015100031118AC0D21213C0C91211C0FE2CE110C1
:101520000EC08F708061809304020E94B009C501D3
:101530000E947B0780910402F801858362C18114B7
:10154000910439F0FFEFDF1206C081E0CF1203C033
:1015500003C081E001C080E080FD03C081E08E25F2
:1015600002C080E090E080FF05C04E2D6D2D8C2DD7
:101570000E94BF098114910439F02FEFD21206C0E6
:1015800081E0C21203C003C081E001C080E080FDA1
:1015900003C081E08E2502C080E090E0682F61707A
:1015A000B62E80FF37C04E2D6D2D8C2D0E94BF09A9
:1015B000F82E81112FC0CD86DE868D859E850E94F6
:1015C0006109292F22952F70243020F49F7022303A
:1015D00028F009C02A50223088F017C0992351F012
:1015E000811108C00EC1992329F0F8019581907FDF
:1015F00009F407C1805E883040F403C1803F08F4DD
:1016000000C1815F833008F4FCC0C8010E947B07E1
:10161000FB2CF7C0FE2CEE2009F4F3C080910402ED
:1016200081608093040254C0D21206C0C91204C063
:10163000E11002C0F80199C0C8010E94F407882394
:1016400061F1EE2051F120910402822F82958F707A
:1016500090E0029774F08091FF01909100029887CA
:101660008F8319869B868A862C87CE0107960E94D7
:101670007B0786E0F801AFEFB1E001900D928A950B
:10168000E1F70E94DF090E94B0090AC0D21611F1E9
:10169000C8010E94F40781112CC0C8010E947B0779
:1016A000FF24F394AEC03111F1CF782D998A888A46
:1016B000A6016E2D89890E940F088FEF91E00E948C
:1016C0007B0786E0F50111928A95E9F70E94B0093F
:1016D000F12C97C0C912DCCFE110DACFF801858375
:1016E000C8010E947B0786E0F50111928A95E9F70F
:1016F00088C0EE2091F220910402822F82958F7093
:1017000090E002970CF4B5CF8091FF019091000218
:101710009A8389831B829D828C822E83CE010196BF
:10172000A6CF683C710508F044C0FE2CEE2009F4F9
:10173000B4CFD21230C0C9122EC02091040220FDB5
:1017400021C0822F82958F70482F50E0411551059E
:10175000C9F0F80125834F30510541F08F5F982F74
:101760009295907F822F8F70892B8583C8010E946C
:101770007B0786E0F801AFEFB1E001900D928A950A
:10178000E1F73DC086E0F801AFEFB1E001900D92C6
:101790008A95E1F736C0C8010E94F407811169CF2C
:1017A00080910402816080930402C8010E947B073B
:1017B00028C0782D998A888AA6016E2D89890E9471
:1017C0000F0886E0F50111928A95E9F718C0EE201E
:1017D00009F463CFC8010E94F407F82E882309F4A6
:1017E0005CCF86E0F801AFEFB1E001900D928A95F1
:1017F000E1F78FEF91E00E948F040E94DF090E94C1
:10180000B0098F2D6196ECE00C94AE23ACE0B0E013
:10181000ECE0FCE00C949B234F83588769877A8720
:101820008B879C87CE0107960E94480A8823D1F0B7
:101830009F8188852A853B85232B31F08F3F31F4AA
:1018400081E09F3F19F403C081E001C080E080FD8A
:1018500047C04F81588569857A858B859C850E9414
:1018600019083EC086E0FE013796DE011196019010
:101870000D928A95E1F7FF81E8856A857B85611580
:10188000710531F0EF3F31F481E0FF3F19F403C0FF
:1018900081E001C080E080FD23C02091CE0130E0D6
:1018A000C9010196877099274091CD0150E08417B6
:1018B0009507F1F1F983EA837D836C8396E0929F2B
:1018C000D001939FB00D1124A153BE4FFE0131965C
:1018D00001900D929A95E1F78093CE010E948F09B5
:1018E00016E08091CD019091CE01891771F1189F7A
:1018F000C001112481539E4F0E94480A882329F178
:10190000E091CD011E9FF0011124E153FE4F408173
:10191000518162817381848195810E94190880912F
:10192000CD0190E00196877099278093CD01D9CFA2
:101930000E94D4071092CE011092CD01EFEFF1E09A
:1019400086E0DF011D928A95E9F72C96E3E00C947E
:10195000B723809125028595859585950895809179
:1019600025028770089590912502977081E009F40F
:1019700080E0089580914802089590914802892B53
:10198000809348020895809590914802892380931E
:101990004802089510924802089590914702892BB9
:1019A0008093470208958095909147028923809300
:1019B00047020895109247020895809126020895E3
:1019C00008950E94E00C08950E94E10C0895909102
:1019D000CB0292FF08C090912602981721F08093C5
:1019E00026020E94E40C089580912602882329F0A3
:1019F0001092260280E00E94E40C0895CF93DF93BA
:101A0000E0910201F0910301809148028083E0910E
:101A10000201F0910301908180914702892B80831C
:101A200080912602882381F0E0910201F091030168
:101A30009081892B808380910201909103010E9403
:101A4000CA1A81110E94F40CC0910201D0910301C5
:101A500040E250E065E072E0CE010E94D723892B7E
:101A600059F080E2FE01A5E0B2E001900D928A9566
:101A7000E1F7CE010E94581ADF91CF9108950E949C
:101A8000E00C08959091CB0292FF11C098E0899FDD
:101A900090011124262B209325020E946B0880912F
:101AA00025028595859585950E943F0D08950E9494
:101AB0006B0808951092250280E00E943F0D089562
:101AC000209125028095822380932502982F97707C
:101AD00099F430E0482F082E000C550B24173507D9
:101AE00059F09091CB0292FF07C085958595859519
:101AF0000E947B080E945A0D08959091CB0292FBA0
:101B0000222720F9281769F080FB92F99093CB02E5
:101B10008091CA029091CB020E94C50D82E00E9482
:101B2000600D08958091CB0282FB882780F991E0B7
:101B300089270E947D0D089581E00E947D0D089502
:101B400080E00E947D0D08956FEF7FEF80E090E0D0
:101B50000E941924089580E090E00E94F52321E07E
:101B6000873E9E4F09F020E0822F089582E090E0AA
:101B70000E94ED23089583E090E00E94ED230895F4
:101B800084E090E00E94F5230895BC0184E090E099
:101B90000E9419240895AB01BC018FE090E00E94DF
:101BA0000D240895AB01BC0183E190E00E940D2457
:101BB000089560E070E0CB010E94D20D089560E0CE
:101BC00070E0CB010E94CB0D0E94D90D089567EE05
:101BD0007EEF80E090E00E94192460E082E090E0D7
:101BE0000E94FB2360E083E090E00E94FB231092C0
:101BF000CC011092CB0160E074E184E090E00E949F
:101C0000192460E086E090E00E94FB236FEF87E0FC
:101C100090E00E94FB2340E050E0BA0188E090E0B1
:101C20000E940D2460E08DE090E00E94FB2340E0E4
:101C300050E0BA0188E190E00E940D2460E087E165
:101C400090E00E94FB2340E050E0BA018CE190E07C
:101C50000E940D2460E070E080E290E00E94192470
:101C600040E050E0BA0188E190E00E940D240E941B
:101C7000DF0D08950E94E70D0895682F8EE090E033
:101C80000E94FB230895A5E0B0E0E9E4FEE00C9497
:101C90009A230E94461C8C018091490290914A022D
:101CA00008171907A1F08FEF89838A831B820E948E
:101CB000461C8160782F9D838C8349815A816B817A
:101CC0008D810E944E0410934A020093490225968A
:101CD000E4E00C94B6230E94521C60935D02709362
:101CE0005E0280935F02909360026093590270934A
:101CF0005A0280935B0290935C02089581E00895FC
:101D000081E008950E94800E089508950E94850E36
:101D100008950E94850E08950E94890E08950E94DC
:101D2000850E08950E948F0E08950E94850E0895D5
:101D300088E391E10E94411A0E94950E0E94920E42
:101D400008950E94860E0E94850E08950E945711E4
:101D50000E94220408950E943D1C0E9433120E949A
:101D6000A60E0E948C0E0895A5E0B0E0EAEBFEE01E
:101D70000C9491230E947E0E811103C00E94430E99
:101D800060C00E9449122BE4E22E22E0F22E57019D
:101D9000D12CF501019111915F018D2D0E947511DA
:101DA00080279127D394F7E0DF1619F0892B89F368
:101DB00002C0892B19F38091610281FD0E947E117E
:101DC0000E94820E782E10E0812F0E9475114C0126
:101DD000F701A080B180A826B926A114B10449F169
:101DE00000E0CC24C394D12CC5018C219D21892BEA
:101DF000C1F07720B1F009831A8321E0C4018C215E
:101E00009D21892B09F420E02B830E94461C8160D0
:101E1000782F9D838C8349815A816B818D810E94AB
:101E20004E040F5FCC0CDD1C0930F1F6F7019182F6
:101E300080821F5FF2E0EF0EF11C173029F60E943E
:101E40006B0E0E9435180E9466140E943504259678
:101E5000EDE00C94AD231F93CF93DF930E945910B4
:101E6000EC01C11580E5D807E8F5C11590E4D90764
:101E700008F0A8C0C03ED10530F5CD3CD10508F032
:101E800094C0C83AD10578F4C53AD10508F083C0AA
:101E9000C130D10509F47CC008F4F2C0C430D105CA
:101EA00008F0F1C0EDC0C13CD10508F0E9C0C85A46
:101EB000D0E0CC0FDD1FCF5ADE4F0990D881C02D66
:101EC000CE019464E1C0C11580E2D80708F0CBC010
:101ED000C11591E0D90708F06BC0C83ED10508F4E0
:101EE000D2C0CEC0C03682E5D80728F5C03492E50E
:101EF000D90708F079C0C03282E5D80708F06CC075
:101F0000C11592E5D90708F481C04C2F4695469536
:101F100080E2489FA0011124C37021E030E0C90194
:101F200002C0880F991FCA95E2F7EA01C82BD92B86
:101F3000CE019D68A9C0C03A82E5D807B8F48C2FBD
:101F40008F71C03892E5D90708F07BC086958695D9
:101F500090E2899F90011124C37081E090E002C05B
:101F6000880F991FCA95E2F79A6868C0C03C82E55D
:101F7000D80708F46DC0C03E92E5D90708F080C0CC
:101F8000CF71DD27DC2FCC27CE01806F906A7CC01B
:101F900081E090E079C0C55AD0E0C957DE4F888112
:101FA000C82FD0E0CE0190646FC0CE0190656CC0A8
:101FB0008D2F0E94F510182FCE0199270E945910DD
:101FC0001F715CC0CE0199270E945910CC27DF7089
:101FD000D06A8C2B9D2B58C0CF71D0E0DC2FCC2742
:101FE000CE01816F906A50C08C2F8F718695869537
:101FF00090E2899F90011124C37081E090E002C0BB
:10200000880F991FCA95E2F79C6818C08C2F8F71B2
:102010000E94F51095E0D695C7959A95E1F7CF7097
:10202000D0E0DC2FCC27282F30E084FF05C084E0EF
:10203000220F331F8A95E1F7D069CE01822B932BB3
:1020400023C090E0D82FCC27CE01846F906A1CC0AB
:102050008C2F8F710E94F5108F7190E0D82FCC27B4
:10206000CE01906211C08D2F8F710E94F510182F34
:10207000CE0199270E9459101F719062912B04C0C4
:1020800080E090E001C0CE01DF91CF911F910895D3
:10209000773038F4693028F4462F672F0E945C02AD
:1020A000089580E090E008950E9448100E942B0F50
:1020B00008958238910569F1B0F48133910509F4EE
:1020C00075C048F48932910509F467C08A329105D8
:1020D00009F471C008958533910509F459C0893315
:1020E0009105B9F00895833E910589F138F4803E59
:1020F0009105D1F0823E910529F10895863E910522
:10210000C9F1873E9105D9F1843E910509F06CC073
:1021100027C02091CA0220FD57C021FD55C0209143
:10212000CB0223FD5BC008958091CA0280FD48C0A8
:102130008091CB0280FF48C08091CA0284FD46C0D6
:1021400083EE51C08091CA0282FF3CC0F5CF8091DE
:10215000CA0282FD37C08091CB0280FD35C0ECCF32
:102160008091CB0281FF36C08091CA0284FD2EC0CF
:1021700087EE39C08091CA0283FF2AC0F5CF8091D3
:10218000CA0283FD25C08091CB0281FD23C0ECCF24
:102190008091CA0285FD22C01FC08091CA0285FDC0
:1021A0001BC08091CB0283FF19C00AC08091CA0274
:1021B00086FD16C017C08091CA0286FD13C010C0EC
:1021C00089E311C082EE0FC080EE0DC080E00BC02D
:1021D00086EE09C084EE07C085E305C089E203C02E
:1021E0008AE201C081E390E008959091CA0292FFD3
:1021F0000DC0282F2871283019F4877F846006C00D
:10220000282F2471243011F48B7F886093FF0DC038
:10221000282F2871283119F4877E846106C0282F61
:102220002471243111F48B7E88612091CB0220FF30
:102230000DC0382F3871383019F4877F816006C09F
:10224000382F3171313011F48E7F886021FF0DC03D
:10225000282F2871283119F4877E816106C0282F24
:102260002171213111F48E7E886194FD877E08955D
:1022700080E008950E94A40D08950E9449122FEF56
:1022800086E791E0215080409040E1F700C00000D7
:102290000E94491280E00E94751180FF04C00E94D4
:1022A0003A110E94931C08950E943D1108950E94C6
:1022B000AB0D811102C00E943A0E0E94B60D8093B0
:1022C00061020E94C00D9093CB028093CA020E94CB
:1022D00054110E94BB0D90E00E9432088091C90108
:1022E0009091CA010E9450080895E82FF0E0EE0F87
:1022F000FF1FE652FD4F808191810895089580EA85
:102300008A95F1F7089500C008950E947F110895FD
:1023100008950E94881108950E94891108950E94CD
:10232000881108950E948F110895F894E82FE2957E
:10233000EF70F0E031A1282F2F7081E090E001C014
:10234000880F2A95EAF7982F9095932391A392A14D
:10235000892B82A3789408950F931F93CF93DF93D3
:10236000C3E9D1E089918F3F11F00E94951181E07E
:10237000CA39D807B9F7CAE8D1E003E911E0899171
:102380008F3F11F00E9495110C171D07C1F7DF91C7
:10239000CF911F910F910895A0E0B0E0E2EDF1E13F
:1023A0000C9495238C01C62FD0E0CE018D569E4F04
:1023B0006C01FC0190819F3F09F450C0B62EF89447
:1023C000E92FE295EF70F0E081A19F7021E030E00D
:1023D00001C0220F9A95EAF7822B81A382A1209552
:1023E000282322A378940E948311EAE8F1E043E9CC
:1023F00051E021E030E0E12CF12C61916F3F89F058
:10240000A62FA295AF70B0E090968C9190E06F707F
:1024100002C0959587956A95E2F780FD02C0C901D3
:1024200002C080E090E0E82AF92A220F331F4E17FD
:102430005F0719F7F60180818F3F11F00E94951117
:1024400061E0E114F10409F460E08B2D0E94851134
:10245000CC0FDD1FC00FD11FF982E882CDB7DEB7E8
:10246000E9E00C94B1230E94AC118EE0EAEDF2E0B9
:10247000DF01982F1D929A95E9F7ECECF2E0DF016D
:102480001D928A95E9F787E00E9484120E949211BA
:102490000895AEE0B0E0EFE4F2E10C9499238E01F0
:1024A0000F5F1F4F8EE0F80111928A95E9F7F12C2A
:1024B0006F2DC8010E94CC11F394F7E0FF12F8CF02
:1024C0004EE050E0B8018CEC92E00E94D72321E06E
:1024D000009709F420E0892B41F08EE0F801ACEC84
:1024E000B2E001900D928A95E1F747E06AED72E063
:1024F0008CEC92E00E948512182F0E948C11812F83
:102500002E96E5E00C94B5230895EF92FF920F9379
:102510001F93CF93DF937C018B01C42F222349F0BB
:1025200081E0809364020E94461C90936302809332
:10253000620280916402811102C080E01CC080911F
:102540006202909163020E945E1C0597B0F3D0E096
:10255000CC0FDD1FAE01B701C8010E94D723892B24
:1025600039F0AE01B701C8010E94E42381E001C047
:1025700080E010926402CDB7DEB7E6E00C94B4239D
:102580000E941E1E0E94AB0E0E942B1E08950E94E8
:10259000301E0E94B40E0E944A1E08950E94DD1B48
:1025A0000E94041E0E94980E0E94C0120E94C71230
:1025B0000E94A10EFBCF80916B0280FF06C060914C
:1025C000090170E0660F771F26C081FF04C060918B
:1025D000090184E005C082FF07C06091090188E01D
:1025E000689FB001112417C090916A029923D1F01D
:1025F00060910801961788F72091090188E0289FCB
:1026000090011124929FA001939F500D112470E01E
:10261000CA010E9450236038710540F461157105AC
:1026200019F406C068E070E0862F08958FE70895DA
:1026300081E0089580916B0280FF08C060910501E0
:1026400070E0759567957595679521C081FF06C007
:102650006091050170E07595679519C082FF04C00F
:102660006091050170E010C090916902992399F082
:10267000609104019617A0F780910501899FC00120
:10268000112470E00E9450236038710540F46115F8
:10269000710519F406C061E070E0862F08958FE798
:1026A000089581E008958D3C21F40E94DB1281950C
:1026B00004C08E3C29F40E94DB1280936F020895BF
:1026C0008F3C21F40E94DB12819504C0803D29F4E7
:1026D0000E94DB1280936E020895893D19F40E94D6
:1026E0001A1305C08A3D31F40E941A138195809314
:1026F000700208958B3D21F40E941A13819504C045
:102700008C3D29F40E941A138093710208959FE270
:10271000980F983078F421E030E0A90102C0440F0E
:10272000551F9A95E2F7CA0190916D02892B80930B
:102730006D0208958D3D21F480916B0281600BC084
:102740008E3D21F480916B02826005C08F3D29F49B
:1027500080916B02846080936B0208958D3C39F404
:1027600090916F0297FF35C010926F0259C08E3C56
:1027700029F490916F021916BCF32BC090916E0250
:102780008F3C29F497FF25C010926E0249C0803D0E
:1027900019F41916CCF31DC090917002893D29F4EB
:1027A0001916BCF4109270023BC08A3D19F497FFD1
:1027B00010C0F8CF8B3D39F49091710297FF09C09A
:1027C000109271022DC08C3D21F490917102191666
:1027D000BCF39FE2980F983080F421E030E0A9012B
:1027E00002C0440F551F9A95E2F7CA018095909157
:1027F0006D02892380936D0213C08D3D21F4809179
:102800006B028E7F0BC08E3D21F480916B028D7F19
:1028100005C08F3D29F480916B028B7F80936B0202
:1028200080916E02811106C080916F02811102C0F9
:1028300010926A0280917002811106C0809171022B
:10284000811102C01092690208950E94461C2091D5
:102850006E02211104C020916F02222321F0909377
:1028600068028093670220917002211104C02091B8
:102870007102222321F090936602809365028CE618
:1028800092E00E94721A0895ECE6F2E086E0DF0121
:102890001D928A95E9F710926A02109269021092CD
:1028A0006B020895FC01828181110DC08381811129
:1028B0000AC08481811107C091E08581811101C026
:1028C00090E0892F01C081E081700895A6E0B0E01A
:1028D000ECE6F4E10C949B2386E0ECE6F2E0DE010A
:1028E000119601900D928A95E1F710926E02109266
:1028F0006F0210927002109271028B81811104C0DC
:102900008C81882309F45FC08091670290916802EE
:102910000E945E1CAC0190916A02992339F02091CB
:102920000A0130E02417350758F04DC020910B0103
:102930008AE0289F900111242417350718F043C01E
:102940009F3F19F09F5F90936A021B81112361F0F2
:102950000E94DB12111614F09FEF01C091E0989FC6
:10296000902D112490936E021C81112361F00E941E
:10297000DB12111614F09FEF01C091E0989F902D8B
:10298000112490936F0230916E023323E1F0209175
:102990006F022223C1F045EB3403C00111249923B7
:1029A00019F090936E0203C081E080936E0235EBC4
:1029B0002303C0011124992319F090936F0203C0DF
:1029C00081E080936F028D81811104C08E81882304
:1029D00009F45FC080916502909166020E945E1CBE
:1029E000AC0190916902992339F02091060130E001
:1029F0002417350758F04DC0209107018AE0289F21
:102A0000900111242417350718F043C09F3F19F097
:102A10009F5F909369021D81112361F00E941A1338
:102A2000111614F09FEF01C091E0989F902D112492
:102A3000909370021E81112361F00E941A131116E7
:102A400014F09FEF01C091E0989F902D1124909376
:102A50007102309170023323E1F020917102222340
:102A6000C1F045EB3403C0011124992319F0909370
:102A7000700203C081E08093700235EB2303C00134
:102A80001124992319F09093710203C081E080937F
:102A90007102BE016F5F7F4F8CE692E00E948E1B39
:102AA000811105C08CE692E00E94521481110E94AF
:102AB000251486E0FE013196ACE6B2E001900D925D
:102AC0008A95E1F72696E3E00C94B723CF93DF9342
:102AD000FC01DB0112968C91882309F4DDC09F0173
:102AE00030572332310508F0D8C0EF010E94C00DE5
:102AF0009093CB028093CA02FE01E150F047E2328C
:102B0000F10520F4EE59FF4F0C9486238091CA0200
:102B10008160AAC08091CB028860B2C08091CA0255
:102B20008260A2C08091CA0220C08091CA028860DF
:102B30009BC08091CB021EC08091CB028260A0C05E
:102B40008091CA02806190C08091CA0280628CC06C
:102B50008091CA02806488C00E94D4078091CA0212
:102B6000806882C08091CA02886084607DC0809144
:102B7000CB028260816084C08091CA028E7F74C063
:102B80008091CB02877F7CC08091CA028D7F6CC010
:102B90008091CA0220C08091CA02877F65C080915F
:102BA000CB021EC08091CB028D7F6AC08091CA0289
:102BB0008F7E5AC08091CA028F7D56C08091CA0212
:102BC0008F7B52C00E94D4078091CA028F774CC07D
:102BD0008091CA02877F8B7F47C08091CB028D7F17
:102BE0008E7F4EC08091CA0282FB222720F991E09D
:102BF000922790FB82F990FB83F936C08091CB023B
:102C0000982F909591708E7F892B90FB81F938C019
:102C10008091CA0286FB222720F991E0922790FB3F
:102C200086F922C00E94D4078091CA0287FB22271E
:102C300020F991E0922790FB87F916C081E001C04E
:102C400080E00E943D0E1EC08091CA0284FB2227B4
:102C500020F991E0922790FB84F906C08091CA0286
:102C6000982F909590FB80F98093CA020BC08091B9
:102C7000CB0283FB222720F991E0922790FB83F976
:102C80008093CB028091CA029091CB020E94C50D25
:102C90000E94D40780E001C081E0DF91CF910895C8
:102CA000A0E0B0E0E6E5F6E10C949723E82FF0E031
:102CB000EA5DFD4FD490282F26952695269530E085
:102CC000F901EA53FD4F0491877010E0082E02C00D
:102CD000159507950A94E2F701701127F901EA5456
:102CE000FD4FE490F12C082E02C0F594E7940A946D
:102CF000E2F791E0E922FF24F901EA55FD4FC49182
:102D0000D0E002C0D595C7958A95E2F7C170DD275E
:102D10000115110519F081EE0E949F04E114F104E0
:102D200019F086EE0E949F048D2D0E944505E11446
:102D3000F10419F086EE0E94F5040115110519F051
:102D400081EE0E94F504CD2B19F08CE20E9445051E
:102D5000CDB7DEB7E7E00C94B323EF92FF920F9369
:102D60001F93CF93DF93EC01162F0AE0888188230D
:102D700009F455C0813009F043C08981813041F4A4
:102D80007E0182E0E80EF11C8A810E94450509C09F
:102D9000823049F47E01E2E0EE0EF11C8A810E944D
:102DA0009F04E7012FC0833041F47E01F2E0EF0E73
:102DB000F11C8A810E94F504F4CF843011F0219631
:102DC00021C02A81229680E090E030E02053310932
:102DD0002A30310558F4089FA001099F500D112495
:102DE000C901840F951F21962881EFCF009751F0DC
:102DF000EFE9FFE03197F1F700C000000197F6CF4F
:102E00000E9450162196812F882309F4AFCFEFE955
:102E1000FFE03197F1F700C000008150F5CFCDB74A
:102E2000DEB7E6E00C94B42360E00E94AD1608958E
:102E300080910C01877F80930C0182E00E94D30C6B
:102E400080910C0184FF06C08F7E80930C0182E08C
:102E50000E94BD0C80910C0185FF06C08F7D809380
:102E60000C0180E20E94BD0C0E94FE0C089580E0DF
:102E700008958B329105A1F038F49C01245031095A
:102E80002432310550F40CC08D32910530F0893375
:102E9000910530F08436910519F00E943717089596
:102EA00081E00895CF93DF93EC01662319F082E06F
:102EB0000E94CD0CCE0190528115904318F4CE01A2
:102EC000992701C0CE010E949602DF91CF9108950B
:102ED0009C0130522115304308F499270E94AD021D
:102EE0000895FC01FF2724E0F695E7952A95E1F780
:102EF0009C012F703327EE0FFF1FEE58FD4F81E02E
:102F000090E002C0880F991F2A95E2F7662329F006
:102F100020813181822B932B06C080959095208152
:102F2000318182239323918380830895FC0123E0E0
:102F3000F695E7952A95E1F7EE71FF27EE58FD4FDC
:102F40008F70992721E030E002C0220F331F8A954D
:102F5000E2F7808191812823392381E0232B09F432
:102F600080E00895EF92FF920F931F93CF93DF932A
:102F7000EC017B018A0180910C0182FF5CC02091F1
:102F80009802309199022C173D0719F0209709F00B
:102F900052C090910C019B7F90930C0191FD11C048
:102FA00080919A0290919B02A701481B590B61E006
:102FB00080910D0190910E014817590718F460E0B7
:102FC00001C061E0617080910C0160FB81F9809328
:102FD0000C01C9010E9471170E94BA0C81FF08C040
:102FE00080910C01806180930C0182E00E94C30CEF
:102FF0000E94BA0C85FF08C080910C01806280930A
:103000000C0180E20E94C30C60910C016695617016
:10301000A80180919802909199020E9452176091A4
:103020000C0166956170A8018091980290919902B7
:103030000E9468170FC0CE010E949617A801682F42
:10304000CE010E9468178091980290919902C8174A
:10305000D90711F40E941817F0929B02E0929A028D
:10306000CDB7DEB7E6E00C94B42380910C0182FF6B
:1030700019C00E94461C20919A0230919B02AC011B
:10308000421B530B20910D0130910E014217530743
:1030900048F042E952E0BC01809198029091990277
:1030A0000E94B217089580910C01982F909590FB83
:1030B00080F980930C010E941817089580910C01EB
:1030C0008E7F80930C010E941817089560E2809112
:1030D0000D0190910E010E94EE03FC0101962081EA
:1030E0002032D9F3CF010E9414170895CF92DF92B6
:1030F000EF92FF921F93CF93DF93EC017B010E942D
:10310000461C6C01F7018281882309F449C0809133
:103110000C0182FF07C042E952E0B60180E090E076
:103120000E94B217C231FCE7DF0771F170F4C031C1
:103130008CE7D807F9F0C131ECE7DE0739F580916B
:103140000D0190910E0105961AC0C431FCE7DF070E
:1031500071F038F0C5318CE7D807C1F40E945318DC
:1031600015C080910C01816080930C010FC00E94FA
:103170005E180CC080910D0190910E0105979093FF
:103180000E0180930D0102C00E946618CE0190527C
:103190008115904348F510929902109298021CC034
:1031A000C13ED10521F480910C018F7E06C0C53E41
:1031B000D10531F480910C018F7D80930C0114C0F6
:1031C000CE0190528115904378F480910C0182FBDE
:1031D000112710F982FD02C011E06DC042E952E0F2
:1031E000B60180E090E061C080910C0180FFF4CFD7
:1031F000B701CE010E943917F7011281882309F423
:1032000057C0112309F44EC00E94BA0C182F0E9417
:10321000DD0C812B8D7F99F010929902109298020B
:1032200060E0CE010E947117A70160E0CE010E940C
:1032300052170E94DD0C8D7F0E94E70C2EC086E0A5
:10324000F701A2E9B2E001900D928A95E1F71092A0
:10325000940210929602109295020E94BA0C182FB6
:103260000E94DD0C812B8695817090910C0180FB72
:1032700091F990930C010E94DD0C8D7F0E94E70C68
:10328000D0939902C0939802D0929B02C0929A0266
:1032900080910C01846080930C0182E00E94600D9B
:1032A00010E009C0A701B601CE010E94B21703C009
:1032B000111171CF91CF812FDF91CF911F91FF908D
:1032C000EF90DF90CF900895CF93DF9386319C47A6
:1032D00041F5EB010E94BA0C982F8A8120910201DE
:1032E00030910301882379F09A7A81E009F480E033
:1032F00080939C02911102C069E201C065E3C9019B
:103300000E94601B0AC080919C02811102C069E288
:1033100001C065E3C9010E946E1B0E94FE0C80E0A3
:1033200001C081E0DF91CF9108950F931F93CF9358
:10333000DF93C42FD22FFC0182818823B1F0409308
:103340009F020E94461C90939E0280939D0280E201
:103350008C0F883008F04DC0C77081E001C0880F25
:10336000CA95EAF70E944F0544C080919F02481316
:1033700030C080919D0290919E020E945E1C883C0C
:10338000910538F510E21D0FCD17B9F080E28C0FD2
:10339000883040F4C77081E001C0880FCA95EAF711
:1033A0000E945605183010F581E09D2F977001C0DE
:1033B000880F9A95EAF70E944F05802F0E944505D5
:1033C0001830B8F4D77081E001C0880FDA95EAF7B9
:1033D0000AC080E28C0F883060F4C77081E001C0C1
:1033E000880FCA95EAF70E94560503C0802F0E94F5
:1033F0004505DF91CF911F910F9108950F93FC0127
:10340000E851FC47E730F10590F5CB01EC57FF4F51
:103410000C94862306E221EE41EE6AE17CE723C0AC
:1034200007E225EE45EE6BE17CE71DC006E221EEEA
:1034300040EE68E17CE717C007E225EE44EE69E163
:103440007CE711C006E221EE42EE6CE17CE70BC0A6
:1034500007E225EE46EE6DE17CE705C008E221E0DB
:1034600045EE6EE17CE70E94951980E008C0FB0103
:103470008281882319F010929F0201C081E00F9190
:10348000089590939B0180939A0108959093A502CB
:103490008093A4020895E091A402F091A5023097D0
:1034A00029F00190F081E02D0995089580E00895BC
:1034B000FC01A091A402B091A502109791F0809117
:1034C0001701882341F08091CA0287FF04C08081E0
:1034D000818386E08083CF011296ED91FC91139752
:1034E00009950895E091A402F091A502309739F072
:1034F00022E0DC012C930480F581E02D09950895EC
:10350000A3E0B0E0E6E8FAE10C949C232091A2024B
:103510003091A30228173907A1F09093A30280935A
:10352000A202E091A402F091A502309751F023E0AD
:1035300029839B838A830680F781E02DCE01019643
:1035400009952396E2E00C94B823A3E0B0E0EBEAFF
:10355000FAE10C949C232091A0023091A10228173B
:103560003907A1F09093A1028093A002E091A402F8
:10357000F091A502309751F024E029839B838A8340
:103580000680F781E02DCE01019609952396E2E0B1
:103590000C94B823FC01329680911701882331F0F6
:1035A0008091CA0287FF02C09EE101C096E080E0E0
:1035B000915028F021912223D9F38F5FF9CF0895FC
:1035C000662351F1209117012223E9F02091CA02CC
:1035D00027FF19C0462F4695469546954E31E0F493
:1035E000677021E030E002C0220F331F6A95E2F7D6
:1035F000FC01E40FF11D828190E02823392381E052
:10360000232B69F409C0FC013296089621916217B8
:1036100029F0E817F907D1F780E0089581E00895CF
:103620009C01FC0132969FEF80E04191461789F0A2
:103630009F3F19F4411101C0982F8F5F8630A9F781
:103640009F3F39F0F901E90FF11D97FDFA9562836B
:10365000089508959C012A5F3F4FFC014281461363
:1036600001C01282019682179307B9F70895262F99
:103670002695269526952E3168F4FC01E20FF11D62
:10368000677021E030E001C0220F6A95EAF782817D
:10369000282B22830895262F2695269526952E31B0
:1036A00070F4FC01E20FF11D677021E030E001C011
:1036B000220F6A95EAF720958281282322830895B4
:1036C00020911701222339F02091CA0227FF03C05D
:1036D0000E94371B08950E94101B08952091170126
:1036E000222339F02091CA0227FF03C00E944B1BFE
:1036F00008950E942A1B089520911701FC0132961B
:10370000222331F08091CA0287FF02C08EE101C0FE
:1037100086E0DF011D928A95E9F7089546E050E0C2
:103720000E94D72321E0892B09F420E0822F0895FD
:1037300008950E94981B089583E08093A6020E943A
:10374000991B0895811102C081E001C082E080933D
:10375000A6020E94991B08950E94A21B089581E071
:103760008093A6020E94991B08950E94AF1B0895A2
:1037700008950E94B81B08950E94B91B08950E94E5
:10378000B81B08950E94B81B08950E94B81B0895A5
:10379000CF930E94C21B0E9449120E94BF1BC0E02F
:1037A0008C2F0E947511892B29F4CF5FC730C1F788
:1037B00080E001C081E0CF91089585B7806885BF22
:1037C00085B7806885BF08951F920F920FB60F923C
:1037D00011248F939F93AF93BF938091A702811180
:1037E00013C08091E8029091E902A091EA02B091A1
:1037F000EB024196A11DB11D8093E8029093E9026E
:10380000A093EA02B093EB02BF91AF919F918F9189
:103810000F900FBE0F901F9018958091F00284308A
:1038200031F10E948A031092A70220E488E190E01F
:103830000FB6F894A895809360000FBE20936000A7
:1038400083B7817F846083BF83B7816083BF7894AF
:10385000889583B78E7F83BF0FB6F894A895809123
:103860006000886180936000109260000FBE089530
:103870000E94D4070E948F03089582E084BD93E0E4
:1038800095BD9AEF97BD80936E0008952FB7F89479
:103890008091E8029091E902A091EA02B091EB02D6
:1038A0002FBF08952FB7F8946091E8027091E90254
:1038B0008091EA029091EB022FBF08959C014FB7CF
:1038C000F8948091E8029091E902A091EA02B09107
:1038D000EB024FBF821B930B089578941F920F92B7
:1038E0000FB60F9211248F939F93AF93BF93809144
:1038F000E8029091E902A091EA02B091EB020196F0
:10390000A11DB11D8093E8029093E902A093EA0201
:10391000B093EB02BF91AF919F918F910F900FBE2B
:103920000F901F90189587E797E790930108809371
:1039300000089AE088E10FB6F894A895809360009B
:103940000FBE90936000FFCF9AE088E10FB6F89425
:10395000A895809360000FBE90936000FFCF809188
:10396000C80208959B019091F0029430F1F48F7099
:103970008093E9008FEF9091E800815095FD06C09B
:1039800095ED9A95F1F700008111F5CF8091E8004F
:1039900085FF0BC0BA01C90140E050E00E94C21E81
:1039A0008091E8008E778093E800089543E050E02E
:1039B000BC0182E00E94B21C089546E050E0BC01C8
:1039C00082E00E94B21C0895CF93DF93EC018091B6
:1039D0001701811105C048E050E0BE0181E00BC035
:1039E0008091CA0287FF03C040E282E002C048E043
:1039F00081E050E0BE010E94B21C80E2FE01A8EA14
:103A0000B2E001900D928A95E1F7DF91CF91089590
:103A10008091EF02811109C00E944D200E94AA20CE
:103A20008091E20084608093E20008951092EF029A
:103A300008950E94B51B08956091EC0281E0611128
:103A400001C080E00E949C1B08959091F00281E0EB
:103A5000943009F080E06091EC020E94A21B08956E
:103A600042E061EC81E00E94C61F42E261EC82E02C
:103A70000E94C61F9091F00281E0943009F080E02E
:103A80006091EC020E94AC1B08958091F202833099
:103A900009F461C030F4813071F0823009F49BC0C8
:103AA00008958A3009F487C08B3009F46CC08930DE
:103AB00009F0A9C020C08091F102813A09F0A3C0A9
:103AC0008091E800877F8093E8008091F5029091D3
:103AD000F602892B21F460E288EA92E003C060E0FC
:103AE00080E090E070E00E94071F8091E8008B77F3
:103AF0008093E80008958091F102813209F083C03B
:103B00008091F5029091F602029708F07CC08091B6
:103B1000E800877F8093E8008091E80082FD05C07F
:103B20008091F0028111F8CF6EC02091F300809156
:103B3000F20090E0922B029731F48091F1008130F5
:103B400011F0863021F48091F1008093C8028091B9
:103B5000E8008B7754C08091F102813A09F053C09C
:103B60008091F5029091F602892B09F04CC080916A
:103B7000E800877F8093E8008091E80080FFFCCF19
:103B80008091170137C08091F1028132E1F5809177
:103B9000F5029091F602892BB1F58091E800877FBC
:103BA0008093E8000E94FB1F8091F302809317012D
:103BB0000E94D40708958091F102813221F580910D
:103BC000E800877F8093E8000E94FB1F8091F40249
:103BD0008093C90208958091F102813AA1F4809105
:103BE000E800877F8093E8008091E80080FFFCCFA9
:103BF0008091C9028093F1008091E8008E778093D4
:103C0000E8000E94FB1F089584B7877F84BF0FB62A
:103C1000F894A8958091600088618093600010926C
:103C200060000FBE90E080E80FB6F89480936100CA
:103C3000909361000FBE0E94AF1B08950E944D201B
:103C40000E94AA20E2EEF0E0808184608083789474
:103C50000E94352308958FE091E00E94461A08954E
:103C60008091F0028530A9F48091F002853079F4DA
:103C70000E940D1C8091EE028823B1F30E94C81BA4
:103C8000882391F30E94AC1E0E94D407EDCF0E94BE
:103C9000381C089508959A014091F7025091F80256
:103CA0000E94531E0895492F552743305105C9F0EE
:103CB00060F44130510581F04230510509F044C0B3
:103CC0008BE390E040E053E043C041325105E1F026
:103CD0004232510549F138C082E190E04BE353E0B4
:103CE00037C099278130910549F028F0029761F596
:103CF000E6EDF2E005C0ECEFF2E002C0E6EEF2E045
:103D0000849190E0AF0124C06115710541F06130EC
:103D10007105D1F489E090E04BE253E019C089E0ED
:103D200090E042E153E014C06115710541F061304B
:103D3000710551F486EB90E04DE453E009C080E456
:103D400090E043E054E004C080E090E040E050E0C8
:103D5000F90151834083089580E189BD82E189BDE5
:103D600009B400FEFDCF8091D8008F7D8093D800EC
:103D70008091E00082608093E0008091E00081FD0E
:103D8000FCCF0895A0E0B0E0E8ECFEE10C949623AF
:103D9000EC018B017A010E941A20811133C0E114D9
:103DA000F10439F0F70180819181081B190BC80FCC
:103DB000D91FC12CD12C0115110519F18091E800F2
:103DC00085FD16C08091E8008E778093E800E114AD
:103DD000F10449F0F70180819181C80ED91ED1828A
:103DE000C08285E00FC00E941A20882321F30AC0F8
:103DF00089918093F10001501109FFEFCF1ADF0A7A
:103E0000DACF80E0CDB7DEB7E8E00C94B2232091A2
:103E1000F7023091F8022617370748F0611571054F
:103E200039F42091E8002E772093E80001C0B90111
:103E3000FC0120E06115710579F18091F002882381
:103E4000F1F18530F1F18091E80083FD3CC0809173
:103E5000E80082FD2EC08091E80080FFEBCF20912A
:103E6000F3008091F20090E0922B6115710551F002
:103E70008830910538F421912093F1006150710947
:103E80000196F3CF21E0089709F020E08091E80047
:103E90008E778093E800CECF2111CFCF0AC08091DA
:103EA000F002882361F0853061F08091E80083FDA5
:103EB0000AC08091E80082FFF2CF80E0089582E09E
:103EC000089583E0089581E008952091F7023091EC
:103ED000F8022617370748F06115710539F420916B
:103EE000E8002E772093E80001C0B901FC0120E032
:103EF0006115710591F18091F002882309F440C0A9
:103F0000853009F43FC08091E80083FD3DC0809179
:103F1000E80082FD2FC08091E80080FFE9CF20916A
:103F2000F3008091F20090E0922B6115710559F039
:103F30008830910540F424912093F100319661502E
:103F400071090196F2CF21E0089709F020E08091F5
:103F5000E8008E778093E800CBCF2111CCCF0AC048
:103F60008091F002882361F0853061F08091E80053
:103F700083FD0AC08091E80082FFF2CF80E00895BF
:103F800082E0089583E0089581E00895982F9730A6
:103F900068F59093E900981739F07091EC00209142
:103FA000ED005091F00003C0242F762F50E021FD4A
:103FB00002C09F5FECCF3091EB003E7F3093EB006F
:103FC0003091ED003D7F3093ED003091EB0031609A
:103FD0003093EB007093EC002093ED005093F000D1
:103FE0002091EE0027FDE5CF80E008958F7080934B
:103FF000E90081E008958091F10287FF11C080916E
:10400000E80082FD05C08091F0028111F8CF11C057
:104010008091E8008B770BC08091F002882349F0F3
:104020008091E80080FFF8CF8091E8008E77809340
:10403000E80008952091E4003091E50095E6409174
:10404000EC00842F817040FF23C08091E80080FD48
:104050001DC08091F002882399F0853099F08091FD
:10406000EB0085FD11C04091E4005091E50024175C
:10407000350729F3915011F09A01E1CF84E00895BA
:1040800082E0089583E0089581E0089580E0089536
:104090004091E80042FFDDCF08950E94BC200E94BD
:1040A000C420E0EEF0E0808181608083E8EDF0E004
:1040B00080818F77808319BCA7EDB0E08C918E7FD3
:1040C0008C9380818F7E80831092EF0208950F93EE
:1040D0001F93CF93DF930E94BC200E94C420C8EDA1
:1040E000D0E088818F778883888180688883888101
:1040F0008F7D888319BC1092F0021092EC0210920E
:10410000EE021092ED0200EE10E0F80180818B7F4C
:10411000808388818160888342E060E080E00E9443
:10412000C61FE1EEF0E080818E7F8083E2EEF0E05A
:10413000808181608083808188608083F8018081B4
:104140008E7F8083888180618883DF91CF911F91EA
:104150000F910895E8EDF0E080818F7E8083E7ED98
:10416000F0E080818160808384E082BF81E0809381
:10417000EF020E9467200895E8EDF0E080818E7FD5
:1041800080831092E20008951092DA001092E1000C
:1041900008951F920F920FB60F9211242F933F9301
:1041A0004F935F936F937F938F939F93AF93BF933F
:1041B000EF93FF938091E10082FF0BC08091E200BA
:1041C00082FF07C08091E1008B7F8093E1000E9415
:1041D00034238091DA0080FF1FC08091D80080FFD7
:1041E0001BC08091DA008E7F8093DA008091D90025
:1041F00080FF0DC080E189BD82E189BD09B400FE68
:10420000FDCF81E08093F0020E94081D05C019BC1B
:104210001092F0020E94161D8091E10080FF19C0EB
:104220008091E20080FF15C08091E2008E7F809334
:10423000E2008091E20080618093E2008091D800EA
:1042400080628093D80019BC85E08093F0020E94C0
:104250001C1D8091E10084FF30C08091E20084FF4A
:104260002CC080E189BD82E189BD09B400FEFDCF8B
:104270008091D8008F7D8093D8008091E1008F7E5F
:104280008093E1008091E2008F7E8093E200809134
:10429000E20081608093E2008091EC02882311F0BB
:1042A00084E007C08091E30087FD02C081E001C087
:1042B00083E08093F0020E94251D8091E10083FF3E
:1042C00029C08091E20083FF25C08091E100877FB3
:1042D0008093E10082E08093F0021092EC028091E2
:1042E000E1008E7F8093E1008091E2008E7F8093D9
:1042F000E2008091E20080618093E20042E060E0B1
:1043000080E00E94C61F8091F00088608093F000DA
:104310000E94191DFF91EF91BF91AF919F918F91D5
:104320007F916F915F914F913F912F910F900FBEB1
:104330000F901F9018951F920F920FB60F92112495
:104340002F933F934F935F936F937F938F939F939D
:10435000AF93BF93CF93DF93EF93FF93C091E900A7
:10436000CF708091EC00D82FD17080FDD0E81092F2
:10437000E9008091F000877F8093F00078940E949C
:10438000DF211092E9008091F00088608093F000B6
:10439000CD2BCF70C093E900FF91EF91DF91CF91CA
:1043A000BF91AF919F918F917F916F915F914F914D
:1043B0003F912F910F900FBE0F901F901895AAE27A
:1043C000B0E0E5EEF1E20C949B23E1EFF2E08091A6
:1043D000F100819322E0E93FF207C9F70E94451DF1
:1043E0008091E80083FF2EC18091F1029091F2024A
:1043F000492F50E04A30510508F024C1FA01E55731
:10440000FF4F0C948623803821F0823809F01AC1BE
:1044100008C08091ED029091EE02992389F08260AC
:104420000FC08091F5028F70873008F00BC1809328
:10443000E9008091EB0085FB882780F91092E90064
:104440009091E800977F9093E8008093F10010929C
:10445000F100D1C0282F2D7F09F0F4C0882319F076
:10446000823061F0EFC08091F302813009F0EAC040
:10447000933009F080E08093EE022EC08091F30229
:1044800081112AC08091F5028F702FEF280F2630FE
:1044900008F0D8C08093E9002091EB0020FF1CC0F9
:1044A000933021F48091EB00806214C09091EB0076
:1044B00090619093EB0021E030E0A90102C0440F2D
:1044C000551F8A95E2F74093EA001092EA00809126
:1044D000EB0088608093EB001092E9008091E80087
:1044E000877F8093E8000E94FB1FACC08111AAC0A7
:1044F0001091F3021F778091E3008078812B8093E5
:10450000E3008091E800877F8093E8000E94FB1F12
:104510008091E80080FFFCCF8091E3008068809369
:10452000E300111102C082E001C083E08093F00239
:1045300089C08058823008F085C08091F302909144
:10454000F4028C3D53E0950779F583E08A838AE293
:1045500089834FB7F894DE01139620E03EE051E2E4
:10456000E32FF0E050935700E49120FF03C0E29561
:10457000EF703F5FEF708E2F90E0EA3010F0C7963B
:1045800001C0C0968D939D932F5F243149F74FBF93
:104590008091E800877F8093E8006AE270E0CE01B6
:1045A00001960E94071F16C06091F5027091F602F5
:1045B000AE014F5F5F4F0E944B1EBC01892B09F477
:1045C00041C09091E800977F9093E80089819A819B
:1045D0000E94651F8091E8008B778093E80032C0CD
:1045E000803881F58091E800877F8093E800809192
:1045F000EC028093F1008091E8008E7772CF8111F8
:1046000021C08091F3029091F40299270297D4F48B
:104610008091E800877F8093E8008091F302809387
:10462000EC020E94FB1F8091EC02811106C0809178
:10463000E30087FD02C081E001C084E08093F002C6
:104640000E94301D8091E80083FF0AC08091E8003D
:10465000877F8093E8008091EB0080628093EB007D
:10466000AA96E3E00C94B7230895CF938091F002CB
:104670008823A1F0C091E900CF709091EC00892FC0
:10468000817090FD80E8C82B1092E9008091E800CD
:1046900083FD0E94DF21CF70C093E900CF91089580
:1046A00097FB072E16F4009407D077FD09D00E94DF
:1046B000C32307FC05D03EF4909581959F4F089544
:1046C000709561957F4F0895A1E21A2EAA1BBB1B1E
:1046D000FD010DC0AA1FBB1FEE1FFF1FA217B307CE
:1046E000E407F50720F0A21BB30BE40BF50B661FE4
:1046F000771F881F991F1A9469F7609570958095A8
:1047000090959B01AC01BD01CF010895EE0FFF1FF5
:104710000590F491E02D09942F923F924F925F9271
:104720006F927F928F929F92AF92BF92CF92DF92C1
:10473000EF92FF920F931F93CF93DF93CDB7DEB726
:10474000CA1BDB0B0FB6F894DEBF0FBECDBF0994BA
:104750002A88398848885F846E847D848C849B8411
:10476000AA84B984C884DF80EE80FD800C811B811F
:10477000AA81B981CE0FD11D0FB6F894DEBF0FBE4E
:10478000CDBFED010895AA1BBB1B51E107C0AA1FB5
:10479000BB1FA617B70710F0A61BB70B881F991FE2
:1047A0005A95A9F780959095BC01CD010895FB011C
:1047B000DC0104C08D910190801921F441505040DA
:1047C000C8F7881B990B0895FB01DC0102C001901A
:1047D0000D9241505040D8F70895F999FECF92BDFF
:1047E00081BDF89A992780B50895A8E1B0E042E02C
:1047F00050E00C942124262FF999FECF92BD81BD63
:10480000F89A019700B4021639F01FBA20BD0FB60E
:10481000F894FA9AF99A0FBE08950396272F0E94EA
:10482000FC230E94FB23252F0E94FC23242F0C94A1
:10483000FC230196272F0E94FC230C94FB23DC0110
:10484000CB01FC01F999FECF06C0F2BDE1BDF89A9B
:10485000319600B40D9241505040B8F70895F89445
:02486000FFCF88
:10486200FF002702280850011E0A140101AF00AF01
:104872001CE41CDD1CD61C01E200E900EA00B500C4
:10488200B600B700CD008301CC008A0192019401E9
:104892002102230224022502260227022A02B30051
:1048A200B4006F0070009F01CB019F02A0028182C1
:1048B20083E200E900EA00B500B600B700CD00834C
:1048C20001CC008A019201940121022302240225D3
:1048D20002260227022A02B300B4006F0070009F72
:1048E20001CB019F02A002818283C63435F4F5F622
:0A48F200F73133939291909466978A
:00000001FF
