:100000000C9422020C943F020C943F020C943F0289
:100010000C943F020C943F020C943F020C943F025C
:100020000C943F020C943F020C9487200C945921AD
:100030000C94A21B0C943F020C943F020C943F02C0
:100040000C943F020C943F020C943F020C943F022C
:100050000C943F020C942B1C0C943F020C943F0216
:100060000C943F020C943F020C943F020C943F020C
:100070000C943F020C943F020C943F020C943F02FC
:100080000C943F020C943F020C943F020C943F02EC
:100090000C943F020C943F020C943F020C943F02DC
:1000A0000C943F020C943F020C943F02A405A4055B
:1000B000D005D00531064F063E073E075406CA0656
:1000C000DB06DB068715F9158F1559155D15931598
:1000D00060159615A1156B15EF156F15A515731500
:1000E000A915D3157715AD15DD157D15B315BD15FE
:1000F00064159A1567159D158215B815C915E9156A
:10010000EB1555158B150216D419DA19C819CE1925
:10011000E019E619EC19C121E821E022E821E022EA
:1001200034225722E022AE22BD2229001E001F00E9
:1001300020002100220023002400250026002700A3
:100140002D002E0035002A002A002B0014001A0072
:100150000800150017001C0018000C001200130006
:100160002F0030002A003221040016000700090089
:100170000A000B000D000E000F00330034003200A7
:100180002800E10064001D001B00060019000500A6
:1001900011001000360037003800E500E30021525E
:1001A000E2002C003E21E20035023A003B003C0018
:1001B0003D003E003F00400041004200430044003B
:1001C000450001004C054C05007C1E001F0020006E
:1001D0000100010001000100010001000100010017
:1001E0000100010019132100220023000100010079
:1001F0005000510052004F000100010001000100B9
:100200000100240025002600270001004A004E00BE
:100210004B004D0001000100010001000100010040
:1002200001000100010000000000000000002A2B76
:100230002800000000000000000000000000000096
:100240000029000000002C1E3420212224342627FF
:10025000252E362D3738271E1F2021222324252620
:100260003333362E37381F0405060708090A0B0CEE
:100270000D0E0F101112131415161718191A1B1C36
:100280001D2F3130232D350405060708090A0B0CF4
:100290000D0E0F101112131415161718191A1B1C16
:1002A0001D2F3130354C0000000000000000000020
:1002B000000000000000000000000000000000003E
:1002C000000000000000000000007E0F00D4FFFFCF
:1002D000FFC7000000780E0375006E00690078000B
:1002E0003600300000001403460052003400420083
:1002F0006F006100720064007300000004030904D1
:1003000009023B00020100A0FA09040000010301F8
:1003100001000921110100012240000705810308A5
:10032000000109040100010300000009211101007E
:100330000122B6000705820320000112010002001D
:10034000000008524658550100010200010501094C
:1003500002A10185020901A1000509190129081559
:100360000025019508750181020501093009311543
:1003700081257F95027508810609381581257F95AD
:100380000175088106050C0A38021581257F950143
:1003900075088106C0C005010980A1018503190106
:1003A0002AB700150126B700950175108100C00518
:1003B0000C0901A101850419012AA002150126A03A
:1003C00002950175108100C005010906A10185068D
:1003D000050719E029E71500250195087501810237
:1003E0000507190029EF1500250195F07501810217
:1003F00005081901290595057501910295017503F7
:100400009101C005010906A101050719E029E715B9
:100410000025019508750181029501750881010586
:1004200007190029FF150026FF00950675088100B1
:1004300005081901290595057501910295017503B6
:100440009101C00011241FBECFEFDAE0DEBFCDBFA7
:1004500011E0A0E0B1E0EEEFF7E402C005900D92EC
:10046000AA39B107D9F723E0AAE9B1E001C01D928A
:10047000A430B207E1F70E9499120C94FD230C946A
:1004800000008230B0F46730A0F4493090F49FE36C
:10049000899FF001112489E0689FE00DF11D11246E
:1004A000E40FF11DEE0FFF1FE65DFE4F8591949165
:1004B000089581E090E008950E94410208959C0112
:1004C0003A9521153F4130F5BC0166277270AC01A9
:1004D000442754709C012227387094FF0FC090FF6E
:1004E00002C080E101C080E0672B09F08062452BEB
:1004F00009F08064232B79F080680895892F81703A
:10050000672B09F08260452B09F08460232B19F0DA
:100510008860089580E00895CF93DF93EB010E94F7
:100520005F02FE010995DF91CF910895CF93DF938C
:10053000EC01805E9109089710F0209719F467E5A7
:1005400075E002C069E977E0CE010E948C028C2F31
:100550000E94A704DF91CF910895CF93DF93EC0120
:100560000E94FD04CE01805E9109089710F020974B
:1005700019F46EE575E002C060EA77E0CE010E94F2
:100580008C02DF91CF91089581E0089581E0089574
:100590000E94C60208950E94C80208950E94C602E1
:1005A000089508950E94D1020895A6E0B0E0EBED11
:1005B000F2E00C94592349835A839E833091A80119
:1005C00089819A81311115C03E81332359F022234C
:1005D00049F00E940E09182F682F89819A810E9484
:1005E000EA0803C00E94FC08182F69817A81812FD4
:1005F00004C00E940E0969817A810E941310269618
:10060000E3E00C947523FC01262F40815181628127
:100610007381848195810E94D5020895CF93DF93E1
:10062000EC0161E00E940303BE010E94CB02DF9156
:10063000CF910895CF93DF93EC0160E00E94030314
:10064000BE010E94D202DF91CF91089508950E94C9
:10065000C1070E9426032FEF84E39CE021508040D5
:100660009040E1F700C0000008950E9427030E9417
:10067000511C08950E9427030E94621C08950F9345
:100680001F93CF93DF938C0161E00E940303EC0181
:10069000B8010E94CE02882309F449C0B801CE01F6
:1006A0000E944118882309F442C0B801CE010E947B
:1006B000BC198823E1F1B801CE010E9431158823CD
:1006C000B1F1B801CE010E942219882381F1F8010D
:1006D0008581882341F1C3308CE7D807D1F040F4FD
:1006E000C115FCE7DF0791F0C130DC47A1F01BC06A
:1006F000CB35ECE7DE07A9F0CC35FCE7DF0771F07E
:10070000CA35DC4781F40E945A0D0DC00E943503A2
:100710000EC00E94620D0E943A0309C00E94500D53
:1007200002C00E945E0DC8010E94C40201C080E0A8
:10073000DF91CF911F910F9108950E947A1B0E9423
:100740003F0408950E9443040E94831B08952F9242
:100750003F924F925F926F927F928F929F92AF9251
:10076000BF92CF92DF92EF92FF920F93CF93DF93DE
:100770001C0129013A017B0181E0E81AF108E1013D
:10078000CE0DDF1D1882C12CD12C8AE0882E912C31
:10079000A12CB12CCE14DF0408F5C301B201A501D0
:1007A00094010E942223605D603319F4C114D104C6
:1007B00039F0411451046104710419F4602F01C02F
:1007C00060E36A93C301B201A50194010E94222350
:1007D00029013A018FEFC81AD80ADCCFC101DF9195
:1007E000CF910F91FF90EF90DF90CF90BF90AF909F
:1007F0009F908F907F906F905F904F903F902F9041
:1008000008950F93209100013091010128173907B5
:1008100021F42091A201261789F0062F909301015F
:10082000809300016093A2019C0140E050E066E0EB
:1008300070E08CE991E00E94A70302C08CE991E08E
:100840000F910895089581E008950895CF93DF935F
:10085000D82F0E942304C82F882319F08D2F0E94BF
:1008600025048C2FDF91CF9108950895CF93C82F41
:100870000E9422048C2F0E942604CF91089580E0CC
:100880000E94360408950E94091A0E9436040895B1
:10089000CF930E94091AC82F8091A301C81779F03D
:1008A000C093A3010E94101C6093A4017093A50142
:1008B0008093A6019093A7018C2F0E943604CF91BC
:1008C0000895ADE0B0E0E7E6F4E00C945A234887E1
:1008D00059876A877B878C879D8791110E94740C4A
:1008E000CE01019627E0FC0111922A95E9F726E056
:1008F000FE013896DC0101900D922A95E1F72D81D9
:1009000021110AC029813A814B815C816D817E81F0
:100910008F810E94BE0B04C00E940E038111F2CF92
:100920002D96E2E00C947623FC012481213021F401
:10093000808191810E9440090895662319F00E94E8
:100940001E1302C00E9479130E94F0130895CF93E2
:10095000882309F450C0C82F8CEF8C0F813AD0F453
:100960006C2F80910201909103010E949E1A8823AE
:1009700049F06C2F80910201909103010E942C1B81
:100980000E94B00C6C2F80910201909103010E9493
:100990001E1B0CC080E28C0F883058F4C77081E0B9
:1009A00001C0880FCA95EAF70E94570C0E94B00C4C
:1009B00022C0EBE5EC0FE33040F4F0E0E25BFE4FE9
:1009C000808190E00E943E1A16C0E8E5EC0FEB3102
:1009D00050F4F0E0EE0FFF1FE85EFE4F8081918142
:1009E0000E94631A08C083E38C0F833120F461E016
:1009F0008C2F0E949D04CF9108958823A9F19CEF2C
:100A0000980F913A40F4682F809102019091030170
:100A10000E942C1B0DC090E2980F983060F48770F4
:100A200091E001C0990F8A95EAF7892F0E945D0C29
:100A30000E94B00C08959BE5980F933028F480E055
:100A400090E00E943E1A089598E5980F9B3128F493
:100A500080E090E00E94631A089593E3980F933129
:100A600018F460E00E949D0408951F93CF93DF93D4
:100A7000182FEB010E94A704209741F08FE99FE017
:100A80000197F1F700C000002197F6CF812F0E9457
:100A9000FD04DF91CF911F910895893319F060E033
:100AA00070E002C060E570E00E943505089588237B
:100AB00021F00E94570C0E94B00C0895882321F069
:100AC0000E945D0C0E94B00C0895A0E0B0E0EBE63F
:100AD000F5E00C9454237C01162FC72FFC01D5811F
:100AE000068102950F700E944D0C8823E9F0DD23EA
:100AF000D9F08C2F807F803451F080E2810F8830D4
:100B000098F0011104C08C2F807E803269F08091B2
:100B1000D60282FF09C082E00E94240D0E944D0C83
:100B200091E0D82ED92601C0D12CCC2EC2948FE0D2
:100B3000C8228C2D90E08C30910508F09FC1FC01FB
:100B4000EA5AFF4F0C9444238C2F807FCF70882368
:100B500011F0C295C07FDD2399F0CC2309F47AC14E
:100B600080E2810F883010F0111104C08C2F0E9498
:100B7000570C03C08C2F0E94670C0E94B00C6AC1F6
:100B8000812F0E94FD04CC2309F478C180E2810FFB
:100B9000883038F1112329F18C2F0E946D0C24C06C
:100BA0008C2F807FCF70803211F0C295C07F1123CF
:100BB00019F0113099F13CC08091D60282FD17C026
:100BC000DD2349F0CC2329F08C2F0E94570C0E9482
:100BD000B00C80E040C180E00E94FD04CC2309F409
:100BE0004DC18C2F0E945D0C0E94B00C47C1DD23CB
:100BF00049F0002309F1013009F040C18C2F0E9417
:100C0000810C3CC101113AC18C2F0E945E058C2FD2
:100C10000E948D0C8C2F0E94F70C30C1DD2321F037
:100C2000063008F02BC108C0053008F027C115C0F8
:100C3000DD2331F001110EC18C2F0E9457051EC11A
:100C4000002359F0193309F016C1FFEF27EE83E0B6
:100C5000F15020408040E1F70CC18C2F0E945E05CE
:100C60000DC18C2F86958695837019F0813061F0C7
:100C700005C1DD2321F0812F9C2F937002C080E0FD
:100C800090E00E943E1A02C1DD2321F0812F9C2FAB
:100C9000937002C080E090E00E94631AF7C06D2F4D
:100CA000812F0E949D04F2C08C2F8370B1F5D11169
:100CB000E9C0412F429546954770440F440F812F5C
:100CC0008F7090E09C01042E02C0220F331F0A9403
:100CD000E2F714FF0AC08FE090E002C0880F991F6E
:100CE0004A95E2F78095909502C080E090E0C69525
:100CF000C695C370822B932BC23049F058F4C13093
:100D000019F00E941D08BEC00E941408BBC00E94BA
:100D10002608B8C00E941108B5C0DD2319F08C2F39
:100D2000817001C08695882309F4ACC0412F42959B
:100D300046954770440F440F812F8F7090E09C01BF
:100D4000042E02C0220F331F0A94E2F714FF0AC0D8
:100D50008FE090E002C0880F991F4A95E2F78095D6
:100D6000909502C080E090E0C695C695C370822B36
:100D7000932BC23049F058F4C13019F00E94850815
:100D800081C00E947C087EC00E948E087BC00E94A9
:100D9000320878C0CF70DD2339F08C2F0E944A08CA
:100DA000812F0E9457056EC0812F0E945E058C2FF7
:100DB0000E945A0867C0123F21F128F4103F41F009
:100DC000113FC1F043C0133F19F1143F79F03EC009
:100DD000DD2341F0053008F051C08C2F8F710E9447
:100DE0006C084CC0063008F049C0F7CF8091D6029D
:100DF00082FD18C0DD2339F08C2F8F710E944A08C4
:100E00003DC0DD23C9F38C2F8F710E945A0836C074
:100E1000DD2329F08C2F8F710E943E082FC00E9485
:100E200039082CC0DD2349F0CF718C2F0E944A086D
:100E300063E08C2F0E94060D21C081E00E94240DEA
:100E40000230E0F082E00E94240D18C0DD2331F072
:100E5000002391F2812F0E94A70410C0002399F271
:100E6000193349F49FEFE7EEF3E09150E040F04092
:100E7000E1F700C00000812F0E94FD0488EF8C0D77
:100E8000843020F40E94091A0E943604DD2089F083
:100E90000E94490C80FD0DC0F70115820E94430C91
:100EA0000E944A08C7010E9476070E94430C0E94D4
:100EB0005A08CDB7DEB7E8E00C9470230F931F9368
:100EC000CF93DF93EC01688179818D810E944B097A
:100ED0008C010E9497080E940208B801CE010E946E
:100EE0006505DF91CF911F910F910895CF93DF9307
:100EF000FC0124812223D1F0EC010E943F038111E7
:100F00000FC00E944D0C882389F08D81882371F0D9
:100F10008091D60282FF0AC082E00E94240D06C0A2
:100F2000CE010E945E07CE010E941A03DF91CF918D
:100F30000895882321F00E94670C0E94B00C089548
:100F4000882321F00E946D0C0E94B00C089580E06F
:100F500090E00E943E1A80E090E00E94631A0E9496
:100F6000740C0E94B00C0E940F140E94F01308959C
:100F700080910201909103010E943A1B0E94A707F1
:100F800008950E94640C0E94B807089592959F707E
:100F9000963079F010F4925001C09A50923068F473
:100FA000803F69F018F4883E40F409C0843F29F47A
:100FB00006C0883E20F0813F11F080E0089581E076
:100FC0000895FC012481222339F0808191810E94BF
:100FD00040090E94C607089580E00895A6E0B0E0A9
:100FE000E4EFF7E00C945A232696E2E00C94762383
:100FF000A7E0B0E0EEEFF7E00C945A232796E2E08A
:101000000C947623089508950E94030808950E9481
:10101000040808950E9407089093CC018093CB01A7
:1010200008950E940A0808952091CB013091CC01C7
:10103000822B932B0E940A0808952091CB013091B6
:10104000CC01822393230E940A0808952091CB01AA
:101050003091CC01822793270E940A0808950E94AC
:10106000030808950E942F089093CA018093C90134
:10107000089580E090E00E943208089521E030E079
:10108000A90102C0440F551F8A95E2F7CA010E94C8
:101090003208089521E030E002C0220F331F8A9504
:1010A000E2F78091C9019091CA01822B932B0E9493
:1010B0003208089521E030E002C0220F331F8A95E4
:1010C000E2F7209530958091C9019091CA01822361
:1010D00093230E943208089521E030E002C0220FDD
:1010E000331F8A95E2F78091C9019091CA01822746
:1010F00093270E94320808952091C9013091CA01B6
:10110000822B932B0E94320808952091C9013091BF
:10111000CA01822393230E94320808952091C901B5
:101120003091CA01822793270E94320808950895BA
:10113000962F9770A1E001C0AA0F9A95EAF793E065
:10114000769567959A95E1F7660F771F660F771F7B
:10115000FA01E60FF71F40E050E0682F70E0908141
:101160009B01042E02C0369527950A94E2F7217060
:10117000219529272A23292721934F5F5F4F443048
:10118000510569F70895FB01782F777023E0969554
:1011900087952A95E1F7880F991F880F991FE80F07
:1011A000F91F40E050E080E0219130E0072E02C0BE
:1011B000369527950A94E2F721703327042E01C053
:1011C000220F0A94EAF7822B4F5F5F4F443051059C
:1011D00059F70895282F973070F4893060F4862FDE
:1011E000622F70E029E0929F600D711D112449EA81
:1011F00051E00E9498080895973070F4893060F4A7
:10120000292F90E069EA71E039E0239F800D911D5C
:1012100011240E94C308089580E00895A0E0B0E082
:10122000E4E1F9E00C9453237C010091C901109191
:10123000CA018091CB019091CC01082B192BCFE0F2
:10124000D0E0CC24C394D12CC6010C2E02C0880F50
:10125000991F0A94E2F780239123892B21F4219787
:1012600098F7B12C07C0BC2EB7018C2F0E941F101D
:101270000197A9F38B2DCDB7DEB7E9E00C946F236E
:10128000CF93DF93EC010E940E09BE010E941F1054
:10129000DF91CF9108951F93CF93DF93EB0190914E
:1012A000A801992321F0CB010E94400913C0882393
:1012B00049F0CB010E940E09182F682FCE010E9421
:1012C000EA0804C0CB010E94FC08182FBE01812F40
:1012D0000E941F10DF91CF911F9108951F93CF930C
:1012E000DF93C091CD0117E08091CE01C817A1F026
:1012F000D0E01C9FF0011D9FF00D1124E153FE4F23
:1013000020813181428153816481758186810E946F
:10131000F8072196C770E8CFDF91CF911F9108950C
:1013200020910702309108024091090250910A026F
:1013300060910B0270910C0280910D020E94F807DF
:101340000895CF93DF9380910D0282958F7009F0FD
:101350004EC080910C02882309F449C08091CD01D0
:101360004091CE015091080260910702C09109029C
:10137000D0910A0277E08417D1F190E0789FF001D4
:10138000799FF00D1124DF01A153BE4F14962C91CB
:101390001497222349F111962C911197251324C0FB
:1013A0002C91261321C015962C91159721111CC044
:1013B00012962D913C9113972C1B3D0B283C310527
:1013C00098F480910D028F70806180930D02EB5232
:1013D000FE4F80818F708061808387E092E00E9461
:1013E00076070E946E0903C001968770C4CFDF9113
:1013F000CF9108952091CD019091CE0157E029170A
:10140000A9F030E0529FF001539FF00D1124E153F9
:10141000FE4F7181761306C07081781303C0758109
:10142000741306C02F5F3F4F2770E9CF80E0089507
:1014300081E00895A4E1B0E0E0E2FAE00C945023EA
:101440008C0186E0F801DE011F9601900D928A95CD
:10145000E1F7F8018481E58097E0A92E92E0B92EAA
:1014600090910B02911118C0882309F480C1EE20DD
:10147000D9F1C8010E94E107F82E8823A9F187E07D
:10148000F801D50101900D928A95E1F7C5010E94FE
:1014900094040E94A10998C0F801C080D180828084
:1014A0009380F0900C022091090230910A02A4016D
:1014B000421B530BFF2009F406C1483C510508F0BC
:1014C000AFC0882309F455C180910D02282F207FD9
:1014D00090910802222361F09D1509F462C0C801B1
:1014E0000E94E107811173C0C8010E9476073FC1C5
:1014F0009D1115C0909107029C1111C0E1100FC001
:101500008F70806180930D020E94900987E092E0C5
:101510000E94760780910D02F801868326C1E110B2
:101520003AC040E06D2D8C2D0E94FA0940E06D2DEF
:101530008C2D0E94FA09E82E811117C1CF86D88A16
:101540008F8598890E944009292F22952F70243079
:1015500020F49F70223028F009C02A50223080F0F9
:1015600014C0992349F0811107C013C0992321F0B9
:10157000F8019681907F69F0805E883030F409C070
:10158000803F38F0815F833020F0C8010E947607E9
:10159000EF2CFE2CEEC080910D02816080930D0235
:1015A000E4C0909107029C119ACFE11098CFF80106
:1015B0008683C8010E94760787E0F801A7E0B2E0C1
:1015C00001900D928A95E1F70E949009D2C0EE2019
:1015D00009F48ACF20910D02822F82958F7090E0BE
:1015E00002978CF080910702909108029987888772
:1015F0009B868A8680910B028C871D862E87CE0162
:1016000008960E94760787E0F801A7E0B2E0019013
:101610000D928A95E1F70E94A1090E949009A7C046
:1016200090910D02292F207FA1F4682D9A8A898A32
:10163000A6017A899E2D0E94EE0787E092E00E9423
:10164000760787E0F50111928A95E9F70E949009E3
:101650008CC0882309F48DC0809108028D1111C0BF
:10166000809107028C110DC0E1100BC0F801968328
:10167000C8010E94760787E0F50111928A95E9F783
:1016800078C0C8010E94E107882309F42DCFEE201D
:1016900009F42ACF20910D02822F82958F7090E05D
:1016A00002970CF4B0CF80910702909108029A83C0
:1016B00089839C828B8280910B028D831E822F8373
:1016C000CE0101969ECF483C510508F040C08823CA
:1016D00009F44DC0FE2CEE2009F406CF80910802DB
:1016E0008D1127C0809107028C1123C090910D02AB
:1016F00090FD16C0892F82958F70282F30E021151C
:10170000310571F0F80196832F30310509F451CF7E
:101710008F5F982F9295907F86818F70892B48CF0D
:1017200087E0F801A7E0B2E001900D928A95E1F719
:1017300020C0C8010E94E107811165CF80910D0290
:10174000816080930D02C8010E94760712C0682D47
:101750009A8A898AA6017A899E2D0E94EE0787E0DF
:10176000F50111928A95E9F72FCFF12C02C0FF24E1
:10177000F3948F2D6496ECE00C946C23AEE0B0E013
:10178000E4ECFBE00C945923288739874A875B8770
:101790006C877D878E87CE0108960E941A0A88235F
:1017A00061F06C856623A9F1288539854A855B85BA
:1017B0007D858E850E94F8072CC087E0FE01389653
:1017C000DE01119601900D928A95E1F76C856623F2
:1017D00001F12091CE0130E0C9010196877099276F
:1017E0004091CD0150E084179507E1F16D8397E0BA
:1017F000929FD001939FB00D1124A153BE4FFE01C3
:10180000319601900D929A95E1F78093CE010E9456
:101810006E0917E08091CD019091CE01891779F181
:10182000189FC001112481539E4F0E941A0A8823D9
:1018300031F1E091CD011E9FF0011124E153FE4FE3
:1018400020813181428153816481758186810E942A
:10185000F8078091CD0190E00196877099278093D9
:10186000CD01D8CF0E94C1071092CE011092CD01B8
:10187000E7E0F2E087E0DF011D928A95E9F72E9616
:10188000E3E00C94752380912E02869586958695CB
:10189000089580912E028770089590912E0297707E
:1018A00081E009F480E008958091520208959091BA
:1018B0005202892B80935202089580959091520292
:1018C00089238093520208951092520208959091B4
:1018D0005102892B80935102089580959091510275
:1018E00089238093510208951092510208958091A6
:1018F0003002089508950E947A0C08950E947B0C8E
:10190000089590913002292F2823821729F0982BCF
:10191000909330020E947E0C089590913002292FFE
:10192000282331F080958923809330020E947E0C19
:1019300008959091D60292FF08C0909130029817B6
:1019400021F0809330020E947E0C08958091300235
:10195000882329F01092300280E00E947E0C0895C6
:10196000CF93DF93E0910201F09103018091520245
:101970008083E0910201F0910301908180915102F6
:10198000892B808380913002882381F0E0910201CD
:10199000F09103019081892B8083809102019091C5
:1019A00003010E94881A81110E94A60CC0910201B5
:1019B000D091030140E250E06EE072E0CE010E945F
:1019C0009523892B59F080E2FE01AEE0B2E0019050
:1019D0000D928A95E1F7CE010E94161ADF91CF9100
:1019E00008950E947A0C08950E94F10C0895909138
:1019F0002F02292F282331F08095892380932F02ED
:101A00000E94F40C08950E947A0C08959091D602D9
:101A100092FF11C098E0899F90011124262B2093FA
:101A20002E020E944A0880912E0286958695869500
:101A30000E94030D08950E944A08089510922E02F4
:101A400080E00E94030D089590912E0280958923D5
:101A500080932E02282F277069F4981759F09091DF
:101A6000D60292FF07C08695869586950E945A08F1
:101A70000E941E0D08959091D60292FB222720F914
:101A8000281769F080FB92F99093D6028091D502D5
:101A90009091D6020E94830D82E00E94240D089549
:101AA0008091D60282FB882780F991E089270E94E5
:101AB0003B0D089581E00E943B0D089580E00E9457
:101AC0003B0D08956FEF7FEF80E090E00E94E723E9
:101AD000089580E090E00E94B32321E0863E9E4F6F
:101AE00009F020E0822F089582E090E00E94AB236D
:101AF000089583E090E00E94AB23089584E090E095
:101B00000E94B3230895BC0184E090E00E94E72383
:101B10000895AB01BC018FE090E00E94DB230895A3
:101B2000AB01BC0183E190E00E94DB23089560E0FB
:101B300070E0CB010E94900D089560E070E0CB0151
:101B40000E94890D0E94970D0895A8E0B0E0EBEA8D
:101B5000FDE00C945A2366EE7EEF80E090E00E9458
:101B6000E72360E082E090E00E94C92360E083E028
:101B700090E00E94C9231092CC011092CB0160E04A
:101B800074E184E090E00E94E72360E086E090E06A
:101B90000E94C9236FEF87E090E00E94C92340E0D4
:101BA00050E0BA0188E090E00E94DB2360E084E22C
:101BB00090E00E94C92360E087E190E00E94C92381
:101BC00060E08CE090E00E94C92360E08DE090E04E
:101BD0000E94C92319821A821B821C821D821E82C6
:101BE0001F82188648E050E068E170E0CE0101965F
:101BF0000E94B92340E050E0BA0180E290E00E94E8
:101C0000DB230E949D0D2896E2E00C9476230E942F
:101C1000A50D0895682F8EE090E00E94C9230895D5
:101C2000A6E0B0E0E6E1FEE00C9458230E94041C1C
:101C30008C0180915302909154020817190781F08A
:101C400019821A820E94041C682F49815A81792FB7
:101C500080E090E00E9461041093540200935302CC
:101C60002696E4E00C9474230E94101C6093670293
:101C7000709368028093690290936A026093630292
:101C8000709364028093650290936602089581E0E8
:101C9000089581E008950E94490E089508950E94D4
:101CA0004E0E08950E944E0E08950E94520E089501
:101CB0000E944E0E08950E94580E08950E944E0EE6
:101CC000089583E091E10E94FF190E945E0E0E9438
:101CD0005B0E08950E944F0E0E944E0E08950E94C2
:101CE00022110E94350408950E94FB1B0E94FE11E0
:101CF0000E946F0E0E94550E0895A6E0B0E0E3E842
:101D0000FEE00C944E230E94470E811103C00E94F6
:101D1000100E62C00E94141225E5E22E22E0F22E7F
:101D20005701D12CF501019111915F018D2D0E9478
:101D3000401180279127D394F7E0DF1619F0892B03
:101D400089F302C0892B19F380916B0281FD0E94F7
:101D500049110E944B0E782E10E066246394812F67
:101D60000E9440114C01F701A080B180A826B9263D
:101D7000A114B10449F100E0CC24C394D12CC501D5
:101D80008C219D21892BC1F07720B1F009831A8322
:101D90000E94041C9C838B836D8221E0C4018C21F2
:101DA0009D21892B09F420E049815A816B817C8136
:101DB0008D81922F0E9461040F5FCC0CDD1C0930D5
:101DC000F1F6F701918280821F5FF2E0EF0EF11CC5
:101DD000173029F60E94340E0E9400180E94311418
:101DE0000E9448042696EEE00C946A231F93CF933A
:101DF000DF930E942410EC01C11580E5D807E8F5B7
:101E0000C11590E4D90708F0A8C0C03ED10530F54F
:101E1000CD3CD10508F094C0C83AD10578F4C53A54
:101E2000D10508F083C0C130D10509F47CC008F4A5
:101E3000F2C0C430D10508F0F1C0EDC0C33CD105FB
:101E400008F0E9C0C85AD0E0CC0FDD1FCF5ADE4FF2
:101E50000990D881C02DCE019464E1C0C11580E203
:101E6000D80708F0CBC0C11591E0D90708F06BC0C6
:101E7000C83ED10508F4D2C0CEC0C03682E5D8072E
:101E800028F5C03492E5D90708F079C0C03282E560
:101E9000D80708F06CC0C11592E5D90708F481C0D5
:101EA0004C2F4695469580E2489FA0011124C370AF
:101EB00021E030E0C90102C0880F991FCA95E2F7FE
:101EC000EA01C82BD92BCE019D68A9C0C03A82E592
:101ED000D807B8F48C2F8F71C03892E5D90708F075
:101EE0007BC08695869590E2899F90011124C370EE
:101EF00081E090E002C0880F991FCA95E2F79A68C6
:101F000068C0C03C82E5D80708F46DC0C03E92E5C9
:101F1000D90708F080C0CF71DD27DC2FCC27CE0198
:101F2000806F906A7CC081E090E079C0C55AD0E0B3
:101F3000C957DE4F8881C82FD0E0CE0190646FC0B2
:101F4000CE0190656CC08D2F0E94C010182FCE015D
:101F500099270E9424101F715CC0CE0199270E940E
:101F60002410CC27DF70D06A8C2B9D2B58C0CF71EA
:101F7000D0E0DC2FCC27CE01816F906A50C08C2F2F
:101F80008F718695869590E2899F90011124C37088
:101F900081E090E002C0880F991FCA95E2F79C6823
:101FA00018C08C2F8F710E94C01095E0D695C795F0
:101FB0009A95E1F7CF70D0E0DC2FCC27282F30E0C6
:101FC00084FF05C084E0220F331F8A95E1F7D069B2
:101FD000CE01822B932B23C090E0D82FCC27CE01AB
:101FE000846F906A1CC08C2F8F710E94C0108F71FB
:101FF00090E0D82FCC27CE01906211C08D2F8F7129
:102000000E94C010182FCE0199270E9424101F7122
:102010009062912B04C080E090E001C0CE01DF917E
:10202000CF911F910895773038F4693028F4462F06
:10203000672F0E945C02089580E090E008950E945E
:1020400013100E94F60E08958238910569F1B0F4DC
:102050008133910509F475C048F48932910509F47A
:1020600067C08A32910509F471C0089585339105DE
:1020700009F459C089339105B9F00895833E91055B
:1020800089F138F4803E9105D1F0823E910529F125
:102090000895863E9105C9F1873E9105D9F1843EA8
:1020A000910509F06CC027C02091D50220FD57C0D2
:1020B00021FD55C02091D60223FD5BC0089580917B
:1020C000D50280FD48C08091D60280FF48C0809133
:1020D000D50284FD46C083EE51C08091D50282FFB7
:1020E0003CC0F5CF8091D50282FD37C08091D602E9
:1020F00080FD35C0ECCF8091D60281FF36C0809143
:10210000D50284FD2EC087EE39C08091D50283FFB1
:102110002AC0F5CF8091D50283FD25C08091D602DB
:1021200081FD23C0ECCF8091D50285FD22C01FC068
:102130008091D50285FD1BC08091D60283FF19C016
:102140000AC08091D50286FD16C017C08091D502C5
:1021500086FD13C010C089E311C082EE0FC080EE6F
:102160000DC080E00BC086EE09C084EE07C085E399
:1021700005C089E203C08AE201C081E390E00895CE
:102180009091D50292FF0DC0282F2871283019F4A4
:10219000877F846006C0282F2471243011F48B7F40
:1021A000886093FF0DC0282F2871283119F4877E8D
:1021B000846106C0282F2471243111F48B7E88613C
:1021C0002091D60220FF0DC0382F3871383019F415
:1021D000877F816006C0382F3171313011F48E7FD6
:1021E000886021FF0DC0282F2871283119F4877EBF
:1021F000816106C0282F2171213111F48E7E886102
:1022000094FD877E089580E008950E94620D0895F0
:102210000E9414122FEF86E791E0215080409040F9
:10222000E1F700C000000E94141280E00E944011FB
:1022300080FF04C00E9405110E94511C08950E9455
:10224000081108950E94690D811102C00E94070EB5
:102250000E94740D80936B020E947E0D9093D602B3
:102260008093D5020E941F110E94790D90E00E9478
:1022700011088091C9019091CA010E942F08089508
:10228000E82FF0E0EE0FFF1FEB51FD4F80819181B1
:102290000895089580EA8A95F1F7089500C0089599
:1022A0000E944A11089508950E94531108950E94B2
:1022B000541108950E94531108950E945A110895CF
:1022C000F894E82FE295EF70F0E031A1282F2F70FD
:1022D00081E090E001C0880F2A95EAF7982F909549
:1022E000932391A392A1892B82A3789408950F93AD
:1022F0001F93CF93DF93C3E9D1E089918F3F11F012
:102300000E94601181E0CA39D807B9F7CAE8D1E064
:1023100003E911E089918F3F11F00E9460110C17C1
:102320001D07C1F7DF91CF911F910F910895A0E094
:10233000B0E0EDE9F1E10C9453238C01C62FD0E01D
:10234000CE018D569E4F6C01FC0190819F3F09F498
:1023500050C0B62EF894E92FE295EF70F0E081A11D
:102360009F7021E030E001C0220F9A95EAF7822B9E
:1023700081A382A12095282322A378940E944E1144
:10238000EAE8F1E043E951E021E030E0E12CF12C12
:1023900061916F3F89F0A62FA295AF70B0E0909643
:1023A0008C9190E06F7002C0959587956A95E2F7E1
:1023B00080FD02C0C90102C080E090E0E82AF92A4D
:1023C000220F331F4E175F0719F7F60180818F3FE9
:1023D00011F00E94601161E0E114F10409F460E081
:1023E0008B2D0E945011CC0FDD1FC00FD11FF98221
:1023F000E882CDB7DEB7E9E00C946F230E94771135
:102400008EE0E5EEF2E0DF01982F1D929A95E9F754
:10241000E7EDF2E0DF011D928A95E9F787E00E947F
:102420004F120E945D110895AEE0B0E0EAE1F2E1E2
:102430000C9457238E010F5F1F4F8EE0F80111920D
:102440008A95E9F7F12C6F2DC8010E949711F3943A
:10245000F7E0FF12F8CF4EE050E0B80187ED92E0D0
:102460000E94952321E0009709F420E0892B41F098
:102470008EE0F801A7EDB2E001900D928A95E1F7A8
:1024800047E065EE72E087ED92E00E945012182F4F
:102490000E945711812F2E96E5E00C947323089526
:1024A000EF92FF920F931F93CF93DF937C018B01E9
:1024B000C42F222349F081E080936E020E94041C05
:1024C00090936D0280936C0280916E02811102C024
:1024D00080E01CC080916C0290916D020E941C1CD7
:1024E0000597B0F3D0E0CC0FDD1FAE01B701C801F6
:1024F0000E949523892B39F0AE01B701C8010E94D3
:10250000A22381E001C080E010926E02CDB7DEB759
:10251000E6E00C9472230E94DC1D0E94740E0E945F
:10252000E91D08950E94EE1D0E947D0E0E94081E66
:1025300008950E949B1B0E94C21D0E94610E0E9472
:102540008B120E9492120E946A0EFBCF809175023C
:1025500080FF06C06091090170E0660F771F26C0FA
:1025600081FF04C06091090184E005C082FF07C0BB
:102570006091090188E0689FB001112417C0909113
:1025800074029923D1F060910801961788F7209181
:10259000090188E0289F90011124929FA001939F38
:1025A000500D112470E0CA010E940E23603871059D
:1025B00040F46115710519F406C068E070E0862FDB
:1025C00008958FE7089581E008958091750280FF56
:1025D00008C06091050170E07595679575956795E0
:1025E00021C081FF06C06091050170E07595679577
:1025F00019C082FF04C06091050170E010C0909185
:102600007302992399F0609104019617A0F78091C5
:102610000501899FC001112470E00E940E236038DB
:10262000710540F46115710519F406C061E070E0B0
:10263000862F08958FE7089581E008958D3C21F459
:102640000E94A612819504C08E3C29F40E94A61215
:102650008093790208958F3C21F40E94A6128195FF
:1026600004C0803D29F40E94A61280937802089548
:10267000893D19F40E94E51205C08A3D31F40E949B
:10268000E512819580937A0208958B3D21F40E9492
:10269000E512819504C08C3D29F40E94E5128093D7
:1026A0007B0208959FE2980F983078F421E030E0A3
:1026B000A90102C0440F551F9A95E2F7CA019091F3
:1026C0007702892B8093770208958D3D21F48091C4
:1026D000750281600BC08E3D21F48091750282608D
:1026E00005C08F3D29F48091750284608093750246
:1026F00008958D3C39F49091790297FF35C010927E
:10270000790259C08E3C29F4909179021916BCF3D4
:102710002BC0909178028F3C29F497FF25C010922E
:10272000780249C0803D19F41916CCF31DC0909170
:102730007A02893D29F41916BCF410927A023BC042
:102740008A3D19F497FF10C0F8CF8B3D39F4909172
:102750007B0297FF09C010927B022DC08C3D21F4B3
:1027600090917B021916BCF39FE2980F983080F489
:1027700021E030E0A90102C0440F551F9A95E2F70D
:10278000CA0180959091770289238093770213C0C4
:102790008D3D21F4809175028E7F0BC08E3D21F41A
:1027A000809175028D7F05C08F3D29F4809175025F
:1027B0008B7F8093750280917802811106C0809191
:1027C0007902811102C01092740280917A02811103
:1027D00006C080917B02811102C01092730208959D
:1027E0000E94041C20917802211104C020917902DA
:1027F000222321F0909372028093710220917A0239
:10280000211104C020917B02222321F090937002B9
:1028100080936F0286E792E00E94301A0895E6E7FF
:10282000F2E086E0DF011D928A95E9F710927402CA
:1028300010927302109275020895FC018281811139
:102840000DC0838181110AC08481811107C091E08C
:102850008581811101C090E0892F01C081E08170E4
:102860000895A6E0B0E0E7E3F4E10C94592386E094
:10287000E6E7F2E0DE01119601900D928A95E1F70C
:10288000109278021092790210927A0210927B02D2
:102890008B81811104C08C81882309F45FC08091F1
:1028A0007102909172020E941C1CAC019091740202
:1028B000992339F020910A0130E02417350758F0A8
:1028C0004DC020910B018AE0289F9001112424170C
:1028D000350718F043C09F3F19F09F5F9093740233
:1028E0001B81112361F00E94A612111614F09FEFB4
:1028F00001C091E0989F902D1124909378021C8143
:10290000112361F00E94A612111614F09FEF01C06E
:1029100091E0989F902D1124909379023091780244
:102920003323E1F0209179022223C1F045EB3403F7
:10293000C0011124992319F09093780203C081E01B
:102940008093780235EB2303C0011124992319F0F9
:102950009093790203C081E0809379028D81811187
:1029600004C08E81882309F45FC080916F0290912A
:1029700070020E941C1CAC0190917302992339F0E3
:102980002091060130E02417350758F04DC0209102
:1029900007018AE0289F900111242417350718F0B9
:1029A00043C09F3F19F09F5F909373021D811123D5
:1029B00061F00E94E512111614F09FEF01C091E042
:1029C000989F902D112490937A021E81112361F01B
:1029D0000E94E512111614F09FEF01C091E0989F3C
:1029E000902D112490937B0230917A023323E1F0F1
:1029F00020917B022223C1F045EB3403C001112456
:102A0000992319F090937A0203C081E080937A02AF
:102A100035EB2303C0011124992319F090937B0215
:102A200003C081E080937B02BE016F5F7F4F86E72A
:102A300092E00E944C1B811105C086E792E00E9443
:102A40001D1481110E94F01386E0FE013196A6E765
:102A5000B2E001900D928A95E1F72696E3E00C949E
:102A60007523CF93DF93FC01DB0115968C918823AE
:102A700009F4DDC09F0130572332310508F0D8C07A
:102A8000EF010E947E0D9093D6028093D502FE0145
:102A9000E150F047E232F10520F4EE59FF4F0C947B
:102AA00044238091D5028160AAC08091D6028860BB
:102AB000B2C08091D5028260A2C08091D50220C0B0
:102AC0008091D50288609BC08091D6021EC0809103
:102AD000D6028260A0C08091D502806190C08091B2
:102AE000D50280628CC08091D502806488C00E942B
:102AF000C1078091D502806882C08091D50288602C
:102B000084607DC08091D6028260816084C08091A3
:102B1000D5028E7F74C08091D602877F7CC0809161
:102B2000D5028D7F6CC08091D50220C08091D502E6
:102B3000877F65C08091D6021EC08091D6028D7FAE
:102B40006AC08091D5028F7E5AC08091D5028F7D58
:102B500056C08091D5028F7B52C00E94C1078091E0
:102B6000D5028F774CC08091D502877F8B7F47C07D
:102B70008091D6028D7F8E7F4EC08091D50282FBE0
:102B8000222720F991E0922790FB82F990FB83F9AC
:102B900036C08091D602982F909591708E7F892BA8
:102BA00090FB81F938C08091D50286FB222720F95D
:102BB00091E0922790FB86F922C00E94C107809184
:102BC000D50287FB222720F991E0922790FB87F915
:102BD00016C081E001C080E00E940A0E1EC08091F4
:102BE000D50284FB222720F991E0922790FB84F9FB
:102BF00006C08091D502982F909590FB80F9809324
:102C0000D5020BC08091D60283FB222720F991E0E8
:102C1000922790FB83F98093D6028091D502909100
:102C2000D6020E94830D0E94C10780E001C081E0AE
:102C3000DF91CF910895A0E0B0E0E1E2F6E10C94DD
:102C40005523E82FF0E0EA5DFD4FD490282F26951C
:102C50002695269530E0F901EA53FD4F04918770DF
:102C600010E0082E02C0159507950A94E2F701704E
:102C70001127F901EA54FD4FE490F12C082E02C00F
:102C8000F594E7940A94E2F791E0E922FF24F90130
:102C9000EA55FD4FC491D0E002C0D595C7958A95FD
:102CA000E2F7C170DD270115110519F081EE0E94D0
:102CB000A704E114F10419F086EE0E94A7048D2DFB
:102CC0000E944D05E114F10419F086EE0E94FD0406
:102CD0000115110519F081EE0E94FD04CD2B19F0AC
:102CE0008CE20E944D05CDB7DEB7E7E00C9471236E
:102CF000EF92FF920F931F93CF93DF93EC01162F68
:102D00000AE08881882309F455C0813009F043C066
:102D10008981813041F47E0182E0E80EF11C8A81D4
:102D20000E944D0509C0823049F47E01E2E0EE0EBA
:102D3000F11C8A810E94A704E7012FC0833041F46F
:102D40007E01F2E0EF0EF11C8A810E94FD04F4CFB7
:102D5000843011F0219621C02A81229680E090E0F3
:102D600030E0205331092A30310558F4089FA00182
:102D7000099F500D1124C901840F951F21962881A8
:102D8000EFCF009751F0EFE9FFE03197F1F700C086
:102D900000000197F6CF0E941B162196812F8823F1
:102DA00009F4AFCFEFE9FFE03197F1F700C0000081
:102DB0008150F5CFCDB7DEB7E6E00C94722360E02A
:102DC0000E947816089580910C01877F80930C01F2
:102DD00082E00E946D0C80910C0184FF06C08F7E02
:102DE00080930C0182E00E94570C80910C0185FFBA
:102DF00006C08F7D80930C0180E20E94570C0E94D8
:102E0000B00C089580E008958B329105A1F038F45C
:102E10009C01245031092432310550F40CC08D320C
:102E2000910530F08933910530F08436910519F021
:102E30000E940217089581E00895CF93DF93EC017B
:102E4000662319F082E00E94670CCE019052811532
:102E5000904318F4CE01992701C0CE010E9496023A
:102E6000DF91CF9108959C0130522115304308F431
:102E700099270E94AD020895FC01FF2724E0F695F2
:102E8000E7952A95E1F79C012F703327EE0FFF1F7E
:102E9000E458FD4F81E090E002C0880F991F2A9509
:102EA000E2F7662329F020813181822B932B06C023
:102EB0008095909520813181822393239183808313
:102EC0000895FC0123E0F695E7952A95E1F7EE7168
:102ED000FF27E458FD4F8F70992721E030E002C0B2
:102EE000220F331F8A95E2F78081918128233923AD
:102EF00081E0232B09F480E00895EF92FF920F9375
:102F00001F93CF93DF93EC017B018A0180910C0129
:102F100082FF5CC02091A3023091A4022C173D07D0
:102F200019F0209709F052C090910C019B7F90936B
:102F30000C0191FD11C08091A5029091A602A701FC
:102F4000481B590B61E080910D0190910E014817CB
:102F5000590718F460E001C061E0617080910C01D4
:102F600060FB81F980930C01C9010E943C170E940B
:102F7000540C81FF08C080910C01806180930C018A
:102F800082E00E945D0C0E94540C85FF08C0809175
:102F90000C01806280930C0180E20E945D0C6091C4
:102FA0000C0166956170A8018091A3029091A40222
:102FB0000E941D1760910C0166956170A8018091B7
:102FC000A3029091A4020E9433170FC0CE010E9469
:102FD0006117A801682FCE010E9433178091A302C8
:102FE0009091A402C817D90711F40E94E316F09239
:102FF000A602E092A502CDB7DEB7E6E00C947223FC
:1030000080910C0182FF19C00E94041C2091A5022E
:103010003091A602AC01421B530B20910D0130915F
:103020000E014217530748F04CE952E0BC01809171
:10303000A3029091A4020E947D17089580910C0133
:10304000982F909590FB80F980930C010E94E316D5
:10305000089580910C018E7F80930C010E94E316ED
:10306000089560E280910D0190910E010E9401048B
:10307000FC01019620812032D9F3CF010E94DF1696
:103080000895CF92DF92EF92FF921F93CF93DF9339
:10309000EC017B010E94041C6C01F70185818823EF
:1030A00009F449C080910C0182FF07C04CE952E04D
:1030B000B60180E090E00E947D17C231FCE7DF0797
:1030C00071F170F4C0318CE7D807F9F0C131ECE749
:1030D000DE0739F580910D0190910E0105961AC019
:1030E000C431FCE7DF0771F038F0C5318CE7D80751
:1030F000C1F40E941E1815C080910C01816080935C
:103100000C010FC00E9429180CC080910D019091F4
:103110000E01059790930E0180930D0102C00E944D
:103120003118CE01905281159043E0F41092A40220
:103130001092A30215C0C13ED10521F480910C016B
:103140008F7E06C0C53ED10531F480910C018F7D84
:1031500080930C0107C0CE0190528115904310F46A
:1031600011E067C080910C0180FFFACFB701CE015A
:103170000E940417F7011581882309F457C0112311
:1031800009F44EC00E94540C182F0E94770C812B1A
:103190008D7F99F01092A4021092A30260E0CE01FC
:1031A0000E943C17A70160E0CE010E941D170E94FB
:1031B000770C8D7F0E94990C2EC087E0F701ACE957
:1031C000B2E001900D928A95E1F71092A10210925F
:1031D0009F0210929E020E94540C182F0E94770C9E
:1031E000812B8695817090910C0180FB91F99093D1
:1031F0000C010E94770C8D7F0E94990CD093A40241
:10320000C093A302D092A602C092A50280910C01A5
:10321000846080930C0182E00E94240D10E009C0BC
:10322000A701B601CE010E947D1703C011117ECF08
:1032300097CF812FDF91CF911F91FF90EF90DF907B
:10324000CF900895CF93DF9386319C4741F5EB01F2
:103250000E94540C982F8D8120910201309103011E
:10326000882379F09A7A81E009F480E08093A702BC
:10327000911102C069E201C065E3C9010E941E1BF1
:103280000AC08091A702811102C069E201C065E312
:10329000C9010E942C1B0E94B00C80E001C081E09B
:1032A000DF91CF9108950F931F93CF93DF93C42F96
:1032B000D22FFC0185818823B1F04093AA020E949D
:1032C000041C9093A9028093A80280E28C0F88309E
:1032D00008F04DC0C77081E001C0880FCA95EAF7B9
:1032E0000E94570544C08091AA02481330C08091C3
:1032F000A8029091A9020E941C1C883C910538F5F7
:1033000010E21D0FCD17B9F080E28C0F883040F429
:10331000C77081E001C0880FCA95EAF70E945E0578
:10332000183010F581E09D2F977001C0880F9A9595
:10333000EAF70E945705802F0E944D051830B8F417
:10334000D77081E001C0880FDA95EAF70AC080E201
:103350008C0F883060F4C77081E001C0880FCA9577
:10336000EAF70E945E0503C0802F0E944D05DF91A1
:10337000CF911F910F9108950F93FC01E851FC47E5
:10338000E730F10590F5CB01EC57FF4F0C94442347
:1033900006E221EE41EE6AE17CE723C007E225EE7A
:1033A00045EE6BE17CE71DC006E221EE40EE68E1F0
:1033B0007CE717C007E225EE44EE69E17CE711C027
:1033C00006E221EE42EE6CE17CE70BC007E225EE5F
:1033D00046EE6DE17CE705C008E221E045EE6EE1D6
:1033E0007CE70E94531980E008C0FB018581882397
:1033F00019F01092AA0201C081E00F9108959093F4
:103400009B0180939A0108959093B0028093AF023C
:103410000895E091AF02F091B002309729F0019049
:10342000F081E02D0995089580E00895FC01A091B8
:10343000AF02B091B002109791F0809117018823EC
:1034400041F08091D50287FF04C08081818386E0AE
:103450008083CF011296ED91FC9113970995089501
:10346000E091AF02F091B002309739F022E0DC0138
:103470002C930480F581E02D09950895A3E0B0E038
:10348000E4E4FAE10C945A232091AD023091AE02AB
:1034900028173907A1F09093AE028093AD02E09116
:1034A000AF02F091B002309751F023E029839B8363
:1034B0008A830680F781E02DCE0101960995239637
:1034C000E2E00C947623A3E0B0E0E9E6FAE10C94A4
:1034D0005A232091AB023091AC0228173907A1F092
:1034E0009093AC028093AB02E091AF02F091B002F6
:1034F000309751F024E029839B838A830680F781EB
:10350000E02DCE01019609952396E2E00C947623F6
:10351000FC01329680911701882331F08091D50209
:1035200087FF02C09EE101C096E080E0915028F044
:1035300021912223D9F38F5FF9CF0895662351F1AA
:10354000209117012223E9F02091D50227FF19C00D
:10355000462F4695469546954E31E0F4677021E03A
:1035600030E002C0220F331F6A95E2F7FC01E40F3E
:10357000F11D828190E02823392381E0232B69F417
:1035800009C0FC01329608962191621729F0E817CC
:10359000F907D1F780E0089581E008959C01FC01CE
:1035A00032969FEF80E04191461789F09F3F19F4D2
:1035B000411101C0982F8F5F8630A9F79F3F39F0E6
:1035C000F901E90FF11D97FDFA95628308950895B9
:1035D0009C012A5F3F4FFC014281461301C01282C9
:1035E000019682179307B9F70895262F26952695F9
:1035F00026952E3168F4FC01E20FF11D677021E081
:1036000030E001C0220F6A95EAF78281282B2283DD
:103610000895262F2695269526952E3170F4FC01C7
:10362000E20FF11D677021E030E001C0220F6A95C2
:10363000EAF720958281282322830895209117019B
:10364000222339F02091D50227FF03C00E94F51AEA
:1036500008950E94CE1A089520911701222339F06F
:103660002091D50227FF03C00E94091B08950E94E4
:10367000E81A089520911701FC013296222331F0B7
:103680008091D50287FF02C08EE101C086E0DF0194
:103690001D928A95E9F7089546E050E00E9495232F
:1036A00021E0892B09F420E0822F089508950E94DB
:1036B000561B089583E08093B1020E94571B089522
:1036C000811102C081E001C082E08093B1020E94BA
:1036D000571B08950E94601B089581E08093B102FA
:1036E0000E94571B08950E946D1B089508950E9423
:1036F000761B08950E94771B08950E94761B0895FB
:103700000E94761B08950E94761B0895CF930E9415
:10371000801B0E9414120E947D1BC0E08C2F0E940F
:103720004011892B29F4CF5FC730C1F780E001C079
:1037300081E0CF91089585B7806885BF85B780689F
:1037400085BF08951F920F920FB60F9211248F9389
:103750009F93AF93BF938091B202811113C0809168
:10376000F3029091F402A091F502B091F602419615
:10377000A11DB11D8093F3029093F402A093F50272
:10378000B093F602BF91AF919F918F910F900FBEB2
:103790000F901F9018958091FB02843031F10E94A8
:1037A0009D031092B20220E488E190E00FB6F894F5
:1037B000A895809360000FBE2093600083B7817F3F
:1037C000846083BF83B7816083BF7894889583B713
:1037D0008E7F83BF0FB6F894A895809160008861B2
:1037E00080936000109260000FBE08950E94C10790
:1037F0000E94A203089582E084BD93E095BD9AEFF4
:1038000097BD80936E0008952FB7F8948091F302CE
:103810009091F402A091F502B091F6022FBF0895A5
:103820002FB7F8946091F3027091F4028091F50241
:103830009091F6022FBF08959C014FB7F8948091A4
:10384000F3029091F402A091F502B091F6024FBFFD
:10385000821B930B089578941F920F920FB60F92CC
:1038600011248F939F93AF93BF938091F302909114
:10387000F402A091F502B091F6020196A11DB11DCE
:103880008093F3029093F402A093F502B093F602B2
:10389000BF91AF919F918F910F900FBE0F901F908E
:1038A000189587E797E790930108809300089AE0BE
:1038B00088E10FB6F894A895809360000FBE9093AE
:1038C0006000FFCF9AE088E10FB6F894A895809346
:1038D00060000FBE90936000FFCF8091D3020895E7
:1038E0009B019091FB029430F1F48F708093E9007A
:1038F0008FEF9091E800815095FD06C095ED9A9567
:10390000F1F700008111F5CF8091E80085FF0BC031
:10391000BA01C90140E050E00E94801E8091E80099
:103920008E778093E800089543E050E0BC0182E088
:103930000E94701C089546E050E0BC0182E00E94A5
:10394000701C0895CF93DF93EC01809117018111D2
:1039500005C048E050E0BE0181E00BC08091D50277
:1039600087FF03C040E282E002C048E081E050E00F
:10397000BE010E94701C80E2FE01A3EBB2E0019048
:103980000D928A95E1F7DF91CF9108958091FA0227
:10399000811109C00E940B200E9468208091E200E2
:1039A00084608093E20008951092FA0208950E94C4
:1039B000731B08956091F70281E0611101C080E0FE
:1039C0000E945A1B08959091FB0281E0943009F007
:1039D00080E06091F7020E94601B089542E061EC74
:1039E00081E00E94841F42E261EC82E00E94841F19
:1039F0009091FB0281E0943009F080E06091F70241
:103A00000E946A1B08958091FD02833009F461C011
:103A100030F4813071F0823009F49BC008958A300F
:103A200009F487C08B3009F46CC0893009F0A9C053
:103A300020C08091FC02813A09F0A3C08091E80087
:103A4000877F8093E8008091000390910103892B88
:103A500021F460E283EB92E003C060E080E090E05C
:103A600070E00E94C51E8091E8008B778093E8008B
:103A700008958091FC02813209F083C08091000397
:103A800090910103029708F07CC08091E800877F45
:103A90008093E8008091E80082FD05C08091FB02E0
:103AA0008111F8CF6EC02091F3008091F20090E078
:103AB000922B029731F48091F100813011F0863021
:103AC00021F48091F1008093D3028091E8008B77FC
:103AD00054C08091FC02813A09F053C080910003E8
:103AE00090910103892B09F04CC08091E800877FF9
:103AF0008093E8008091E80080FFFCCF809117015F
:103B000037C08091FC028132E1F5809100039091F1
:103B10000103892BB1F58091E800877F8093E8004D
:103B20000E94B91F8091FE02809317010E94C10775
:103B300008958091FC02813221F58091E800877F11
:103B40008093E8000E94B91F8091FF028093D40205
:103B500008958091FC02813AA1F48091E800877F6A
:103B60008093E8008091E80080FFFCCF8091D40230
:103B70008093F1008091E8008E778093E8000E94A6
:103B8000B91F089584B7877F84BF0FB6F894A895AE
:103B900080916000886180936000109260000FBE89
:103BA00090E080E80FB6F8948093610090936100F4
:103BB0000FBE0E946D1B08950E940B200E9468207A
:103BC000E2EEF0E080818460808378940E94F322AA
:103BD00008958FE091E00E94041A08958091FB02FD
:103BE0008530A9F48091FB02853079F40E94CB1BCB
:103BF0008091F9028823B1F30E94861B882391F3F8
:103C00000E946A1E0E94C107EDCF0E94F61B089514
:103C100008959A0140910203509103030E94111EDE
:103C20000895492F552743305105C9F060F44130BC
:103C3000510581F04230510509F044C08BE390E01A
:103C400040E053E043C041325105E1F042325105BA
:103C500049F138C082E190E04BE353E037C0992747
:103C60008130910549F028F0029761F5E6EDF2E028
:103C700005C0ECEFF2E002C0E6EEF2E0849190E0E5
:103C8000AF0124C06115710541F061307105D1F4B7
:103C900089E090E04BE253E019C089E090E042E116
:103CA00053E014C06115710541F06130710551F4A4
:103CB00086EB90E04DE453E009C080E490E043E0FF
:103CC00054E004C080E090E040E050E0F90151830E
:103CD0004083089580E189BD82E189BD09B400FE79
:103CE000FDCF8091D8008F7D8093D8008091E00037
:103CF00082608093E0008091E00081FDFCCF089518
:103D0000A0E0B0E0E6E8FEE10C945423EC018B0166
:103D10007A010E94D81F811133C0E114F10439F0F7
:103D2000F70180819181081B190BC80FD91FC12C85
:103D3000D12C0115110519F18091E80085FD16C0FF
:103D40008091E8008E778093E800E114F10449F057
:103D5000F70180819181C80ED91ED182C08285E091
:103D60000FC00E94D81F882321F30AC08991809335
:103D7000F10001501109FFEFCF1ADF0ADACF80E01E
:103D8000CDB7DEB7E8E00C947023209102033091A8
:103D900003032617370748F06115710539F42091A0
:103DA000E8002E772093E80001C0B901FC0120E073
:103DB0006115710579F18091FB028823F1F185305D
:103DC000F1F18091E80083FD3CC08091E80082FD24
:103DD0002EC08091E80080FFEBCF2091F30080910E
:103DE000F20090E0922B6115710551F08830910539
:103DF00038F421912093F100615071090196F3CFBD
:103E000021E0089709F020E08091E8008E77809308
:103E1000E800CECF2111CFCF0AC08091FB028823CA
:103E200061F0853061F08091E80083FD0AC08091E7
:103E3000E80082FFF2CF80E0089582E0089583E0F9
:103E4000089581E00895209102033091030326171D
:103E5000370748F06115710539F42091E8002E7795
:103E60002093E80001C0B901FC0120E06115710553
:103E700091F18091FB02882309F440C0853009F458
:103E80003FC08091E80083FD3DC08091E80082FD45
:103E90002FC08091E80080FFE9CF2091F30080914E
:103EA000F20090E0922B6115710559F08830910570
:103EB00040F424912093F1003196615071090196EC
:103EC000F2CF21E0089709F020E08091E8008E779A
:103ED0008093E800CBCF2111CCCF0AC08091FB02A8
:103EE000882361F0853061F08091E80083FD0AC08D
:103EF0008091E80082FFF2CF80E0089582E008958B
:103F000083E0089581E00895982F973068F59093A5
:103F1000E900981739F07091EC002091ED00509174
:103F2000F00003C0242F762F50E021FD02C09F5FD8
:103F3000ECCF3091EB003E7F3093EB003091ED0001
:103F40003D7F3093ED003091EB0031603093EB001A
:103F50007093EC002093ED005093F0002091EE0060
:103F600027FDE5CF80E008958F708093E90081E020
:103F700008958091FC0287FF11C08091E80082FDC6
:103F800005C08091FB028111F8CF11C08091E8003B
:103F90008B770BC08091FB02882349F08091E80069
:103FA00080FFF8CF8091E8008E778093E800089535
:103FB0002091E4003091E50095E64091EC00842FDB
:103FC000817040FF23C08091E80080FD1DC080917A
:103FD000FB02882399F0853099F08091EB0085FDF4
:103FE00011C04091E4005091E5002417350729F3F2
:103FF000915011F09A01E1CF84E0089582E0089594
:1040000083E0089581E0089580E008954091E800FC
:1040100042FFDDCF08950E947A200E948220E0EEC8
:10402000F0E0808181608083E8EDF0E080818F772F
:10403000808319BCA7EDB0E08C918E7F8C9380813A
:104040008F7E80831092FA0208950F931F93CF936F
:10405000DF930E947A200E948220C8EDD0E0888100
:104060008F77888388818068888388818F7D888323
:1040700019BC1092FB021092F7021092F9021092F2
:10408000F80200EE10E0F80180818B7F8083888148
:104090008160888342E060E080E00E94841FE1EE5E
:1040A000F0E080818E7F8083E2EEF0E080818160AD
:1040B0008083808188608083F80180818E7F808307
:1040C000888180618883DF91CF911F910F9108953E
:1040D000E8EDF0E080818F7E8083E7EDF0E0808185
:1040E0008160808384E082BF81E08093FA020E9435
:1040F00025200895E8EDF0E080818E7F8083109286
:10410000E20008951092DA001092E10008951F92E3
:104110000F920FB60F9211242F933F934F935F93FB
:104120006F937F938F939F93AF93BF93EF93FF937F
:104130008091E10082FF0BC08091E20082FF07C006
:104140008091E1008B7F8093E1000E94F2228091B8
:10415000DA0080FF1FC08091D80080FF1BC08091D3
:10416000DA008E7F8093DA008091D90080FF0DC045
:1041700080E189BD82E189BD09B400FEFDCF81E007
:104180008093FB020E94C61C05C019BC1092FB0262
:104190000E94D41C8091E10080FF19C08091E20050
:1041A00080FF15C08091E2008E7F8093E2008091B5
:1041B000E20080618093E2008091D8008062809369
:1041C000D80019BC85E08093FB020E94DA1C809124
:1041D000E10084FF30C08091E20084FF2CC080E1C8
:1041E00089BD82E189BD09B400FEFDCF8091D80070
:1041F0008F7D8093D8008091E1008F7E8093E100D5
:104200008091E2008F7E8093E2008091E2008160E5
:104210008093E2008091F702882311F084E007C0C8
:104220008091E30087FD02C081E001C083E08093BC
:10423000FB020E94E31C8091E10083FF29C0809172
:10424000E20083FF25C08091E100877F8093E10039
:1042500082E08093FB021092F7028091E1008E7F52
:104260008093E1008091E2008E7F8093E200809154
:10427000E20080618093E20042E060E080E00E9422
:10428000841F8091F00088608093F0000E94D71C0A
:10429000FF91EF91BF91AF919F918F917F916F911E
:1042A0005F914F913F912F910F900FBE0F901F90F4
:1042B00018951F920F920FB60F9211242F933F93D0
:1042C0004F935F936F937F938F939F93AF93BF931E
:1042D000CF93DF93EF93FF93C091E900CF7080916C
:1042E000EC00D82FD17080FDD0E81092E9008091C9
:1042F000F000877F8093F00078940E949D211092B7
:10430000E9008091F00088608093F000CD2BCF70A1
:10431000C093E900FF91EF91DF91CF91BF91AF91F1
:104320009F918F917F916F915F914F913F912F91CD
:104330000F900FBE0F901F901895AAE2B0E0E3EA2D
:10434000F1E20C945923ECEFF2E08091F1008193BB
:1043500023E0E430F207C9F70E94031D8091E800D2
:1043600083FF2EC18091FC029091FD02492F50E005
:104370004A30510508F024C1FA01E557FF4F0C946B
:104380004423803821F0823809F01AC108C0809196
:10439000F8029091F902992389F082600FC0809110
:1043A00000038F70873008F00BC18093E900809183
:1043B000EB0085FB882780F91092E9009091E800D6
:1043C000977F9093E8008093F1001092F100D1C0A4
:1043D000282F2D7F09F0F4C0882319F0823061F076
:1043E000EFC08091FE02813009F0EAC0933009F0FD
:1043F00080E08093F9022EC08091FE0281112AC0D4
:10440000809100038F702FEF280F263008F0D8C05E
:104410008093E9002091EB0020FF1CC0933021F431
:104420008091EB00806214C09091EB0090619093BA
:10443000EB0021E030E0A90102C0440F551F8A952E
:10444000E2F74093EA001092EA008091EB00886066
:104450008093EB001092E9008091E800877F8093C1
:10446000E8000E94B91FACC08111AAC01091FE02E1
:104470001F778091E3008078812B8093E300809107
:10448000E800877F8093E8000E94B91F8091E800D0
:1044900080FFFCCF8091E30080688093E3001111DE
:1044A00002C082E001C083E08093FB0289C0805893
:1044B000823008F085C08091FE029091FF028C3D11
:1044C00053E0950779F583E08A838AE289834FB7C1
:1044D000F894DE01139620E03EE051E2E32FF0E095
:1044E00050935700E49120FF03C0E295EF703F5FC7
:1044F000EF708E2F90E0EA3010F0C79601C0C096A2
:104500008D939D932F5F243149F74FBF8091E80031
:10451000877F8093E8006AE270E0CE0101960E94F6
:10452000C51E16C06091000370910103AE014F5F7C
:104530005F4F0E94091EBC01892B09F441C0909174
:10454000E800977F9093E80089819A810E94231F59
:104550008091E8008B778093E80032C0803881F545
:104560008091E800877F8093E8008091F702809334
:10457000F1008091E8008E7772CF811121C0809187
:10458000FE029091FF0299270297D4F48091E800EF
:10459000877F8093E8008091FE028093F7020E945B
:1045A000B91F8091F702811106C08091E30087FD59
:1045B00002C081E001C084E08093FB020E94EE1CF7
:1045C0008091E80083FF0AC08091E800877F809394
:1045D000E8008091EB0080628093EB00AA96E3E014
:1045E0000C9475230895CF938091FB028823A1F04A
:1045F000C091E900CF709091EC00892F817090FDFF
:1046000080E8C82B1092E9008091E80083FD0E94A9
:104610009D21CF70C093E900CF91089597FB072E9D
:1046200016F4009407D077FD09D00E94812307FC7F
:1046300005D03EF4909581959F4F089570956195B2
:104640007F4F0895A1E21A2EAA1BBB1BFD010DC0CE
:10465000AA1FBB1FEE1FFF1FA217B307E407F50732
:1046600020F0A21BB30BE40BF50B661F771F881F0E
:10467000991F1A9469F760957095809590959B01A4
:10468000AC01BD01CF010895EE0FFF1F0590F4911D
:10469000E02D09942F923F924F925F926F927F92FA
:1046A0008F929F92AF92BF92CF92DF92EF92FF9242
:1046B0000F931F93CF93DF93CDB7DEB7CA1BDB0BEE
:1046C0000FB6F894DEBF0FBECDBF09942A88398893
:1046D00048885F846E847D848C849B84AA84B9849A
:1046E000C884DF80EE80FD800C811B81AA81B981A6
:1046F000CE0FD11D0FB6F894DEBF0FBECDBFED01BA
:104700000895AA1BBB1B51E107C0AA1FBB1FA61718
:10471000B70710F0A61BB70B881F991F5A95A9F76A
:1047200080959095BC01CD010895FB01DC0104C08A
:104730008D910190801921F441505040C8F7881B99
:10474000990B0895FB01DC0102C001900D924150CC
:104750005040D8F70895F999FECF92BD81BDF89ADF
:10476000992780B50895A8E1B0E042E050E00C94AC
:10477000EF23DC01A40FB51F4150504048F0CB019E
:10478000840F951F2E910E94CA2341505040D0F7AC
:104790000895262FF999FECF92BD81BDF89A019711
:1047A00000B4021639F01FBA20BD0FB6F894FA9A79
:1047B000F99A0FBE08950396272F0E94CA230E94DC
:1047C000C923252F0E94CA23242F0C94CA230196A3
:1047D000272F0E94CA230C94C923DC01CB01FC01C2
:1047E000F999FECF06C0F2BDE1BDF89A319600B44A
:0E47F0000D9241505040B8F70895F894FFCF55
:1047FE00FF003102280850011E0A140101AF006D9E
:10480E001CA21C9B1C941C01E200E900EA00B500EE
:10481E00B600B700CD008301CC008A01920194014D
:10482E002102230224022502260227022A02B300B5
:10483E00B4006F0070009F01CB019F02A002818225
:10484E0083E200E900EA00B500B600B700CD0083B0
:10485E0001CC008A01920194012102230224022537
:10486E0002260227022A02B300B4006F0070009FD6
:10487E0001CB019F02A002818283C63435F4F5F686
:0A488E00F7313393929190946697EE
:00000001FF
