:100000000C9424020C9441020C9441020C94410281
:100010000C9441020C9441020C9441020C94410254
:100020000C9441020C9441020C9452210C94242211
:100030000C94761C0C9441020C9441020C944102E5
:100040000C9441020C9441020C9441020C94410224
:100050000C9441020C94FF1C0C9441020C9441023C
:100060000C9441020C9441020C9441020C94410204
:100070000C9441020C9441020C9441020C944102F4
:100080000C9441020C9441020C9441020C944102E4
:100090000C9441020C9441020C9441020C944102D4
:1000A0000C9441020C9441020C944102A105A1055B
:1000B000CD05CD052E064C06380738075106C70674
:1000C000D806D8068E1500169615601564159A1573
:1000D00067159D15A8157215F6157615AC157A15C8
:1000E000B015DA157E15B415E4158415BA15C415C6
:1000F0006B15A1156E15A4158915BF15D015F01532
:10010000F2155C15921509165F1A651A531A591AD9
:100110006B1A711A771A8C22B322AB23B322AB234A
:10012000FF222223AB237923882329001E001F00EE
:1001300020002100220023002400250026002700A3
:100140002D002E0035002A002A002B0014001A0072
:100150000800150017001C0018000C001200130006
:100160002F0030002A003221040016000700090089
:100170000A000B000D000E000F00330034003200A7
:100180002800E10064001D001B00060019000500A6
:1001900011001000360037003800E500E30021525E
:1001A000E2002C003E21E20035023A003B003C0018
:1001B0003D003E003F00400041004200430044003B
:1001C000450001004C054C05007C1E001F0020006E
:1001D0000100010001000100010001000100010017
:1001E0000100010019132100220023000100010079
:1001F0005000510052004F000100010001000100B9
:100200000100240025002600270001004A004E00BE
:100210004B004D0001000100010001000100010040
:1002200001000100010000000000000000002A2B76
:100230002800000000000000000000000000000096
:100240000029000000002C1E3420212224342627FF
:10025000252E362D3738271E1F2021222324252620
:100260003333362E37381F0405060708090A0B0CEE
:100270000D0E0F101112131415161718191A1B1C36
:100280001D2F3130232D350405060708090A0B0CF4
:100290000D0E0F101112131415161718191A1B1C16
:1002A0001D2F3130354C0000000000000000000020
:1002B000000000000000000000000000000000003E
:1002C000000000000000000000007E0F00D4FFFFCF
:1002D000FFC7000000780E0375006E00690078000B
:1002E0003600300000001403460052003400420083
:1002F0006F006100720064007300000004030904D1
:1003000009023B00020100A0FA09040000010301F8
:1003100001000921110100012244000705810308A1
:10032000000109040100010300000009211101007E
:100330000122B6000705820320000112010002001D
:10034000000008524658550100010200010501094C
:1003500002A10185020901A1000509190129081559
:100360000025019508750181020501093009311543
:1003700081257F95027508810609381581257F95AD
:100380000175088106050C0A38021581257F950143
:1003900075088106C0C005010980A1018503190106
:1003A0002AB700150126B700950175108100C00518
:1003B0000C0901A101850419012AA002150126A03A
:1003C00002950175108100C005010906A10185068D
:1003D000050719E029E71500250195087501810237
:1003E0000507190029EF1500250195F07501810217
:1003F00005081901290595057501910295017503F7
:100400009101C005010906A101050719E029E715B9
:100410000025019508750181029501750881010586
:1004200007190029FF150026FF00950675088100B1
:100430000508190129051500250195057501910289
:10044000950175039101C00011241FBECFEFDAE0C2
:10045000DEBFCDBF11E0A0E0B1E0E4E9F9E402C005
:1004600005900D92AE39B107D9F723E0AEE9B1E0BE
:1004700001C01D92A030B207E1F70E9496120C94C1
:10048000C8240C9400008230B0F46730A0F44930E6
:1004900090F49FE3899FF001112489E0689FE00DAB
:1004A000F11D1124E40FF11DEE0FFF1FE65DFE4F5D
:1004B00085919491089581E090E008950E9443020F
:1004C00008959C013A9521153F4130F5BC016627FE
:1004D0007270AC01442754709C012227387094FF3D
:1004E0000FC090FF02C080E101C080E0672B09F0DF
:1004F0008062452B09F08064232B79F08068089591
:10050000892F8170672B09F08260452B09F0846088
:10051000232B19F08860089580E00895CF93DF932E
:10052000EB010E946102FE010995DF91CF910895D0
:10053000CF93DF93EC01805E9109089710F020972C
:1005400019F462E575E002C063E977E0CE010E942C
:100550008E028C2F0E94B304DF91CF910895CF9328
:10056000DF93EC010E94FD04CE01805E91090897A3
:1005700010F0209719F469E575E002C06AE977E0A8
:10058000CE010E948E02DF91CF91089581E00895FF
:1005900081E008950E94C80208950E94CA02089549
:1005A0000E94C802089508950E94D3020895A6E00B
:1005B000B0E0EDEDF2E00C94242449835A839E834D
:1005C0003091AC0189819A81311115C03E8133236C
:1005D00059F0222349F00E940409182F682F8981BD
:1005E0009A810E94E00803C00E94F208182F6981D6
:1005F0007A81812F04C00E94040969817A810E9456
:1006000049102696E3E00C944024FC01262F4081FB
:10061000518162817381848195810E94D7020895FE
:10062000CF93DF93EC0161E00E940503BE010E94BD
:10063000CD02DF91CF910895CF93DF93EC0160E07D
:100640000E940503BE010E94D402DF91CF9108955C
:1006500081E008950E9428030895CF93C82F0E9437
:10066000B7078C2F0E942A032FEF84E39CE02150D0
:1006700080409040E1F700C00000CF91089581E0F4
:100680000E942D030E94251D089580E00E942D03E5
:100690000E94361D08950F931F93CF93DF938C0113
:1006A00061E00E940503EC01B8010E94D00288239A
:1006B00009F449C0B801CE010E940E14882309F440
:1006C00042C0B801CE010E94471A8823E1F1B80167
:1006D000CE010E9438158823B1F1B801CE010E94E5
:1006E0000E15882381F1F8018581882341F1C330FB
:1006F0008CE7D807D1F040F4C115FCE7DF0791F093
:10070000C130DC47A1F01BC0CB35ECE7DE07A9F018
:10071000CC35FCE7DF0771F0CA35DC4781F40E9475
:10072000780D0DC00E943F030EC00E94800D0E94F4
:10073000450309C00E946E0D02C00E947C0DC801D5
:100740000E94C60201C080E0DF91CF911F910F91FE
:1007500008950E944E1C0E944B0408950E944F046D
:100760000E94571C08952F923F924F925F926F9272
:100770007F928F929F92AF92BF92CF92DF92EF9231
:10078000FF920F93CF93DF931C0129013A017B0164
:1007900081E0E81AF108E101CE0DDF1D1882C12CBD
:1007A000D12C8AE0882E912CA12CB12CCE14DF0400
:1007B00008F5C301B201A50194010E94ED23605D1B
:1007C000603319F4C114D10439F0411451046104A7
:1007D000710419F4602F01C060E36A93C301B20190
:1007E000A50194010E94ED2329013A018FEFC81A57
:1007F000D80ADCCFC101DF91CF910F91FF90EF902C
:10080000DF90CF90BF90AF909F908F907F906F9030
:100810005F904F903F902F9008950F93209100018B
:10082000309101012817390721F42091A6012617DC
:1008300089F0062F90930101809300016093A60137
:100840009C0140E050E066E070E080EA91E00E94A8
:10085000B30302C080EA91E00F910895089581E00A
:1008600008950895CF93DF93D82F0E942F04C82FA7
:10087000882319F08D2F0E9431048C2FDF91CF91A6
:1008800008950895CF93C82F0E942E048C2F0E94A4
:100890003204CF91089580E00E94420408950E949E
:1008A0008F1A0E9442040895CF930E948F1AC82F76
:1008B0008091A701C81779F0C093A7010E94E41C9A
:1008C0006093A8017093A9018093AA019093AB0152
:1008D0008C2F0E944204CF910895ADE0B0E0E3E791
:1008E000F4E00C942524488759876A877B878C8796
:1008F0009D8791110E946A0CCE01019627E0FC01B0
:1009000011922A95E9F726E0FE013896DC01019064
:100910000D922A95E1F72D8121110AC029813A8192
:100920004B815C816D817E818F810E94B40B04C0FC
:100930000E9410038111F2CF2D96E2E00C94412425
:10094000FC012481213021F4808191810E943609AB
:100950000895662319F00E94A81602C00E94191774
:100960000E9490170895CF93882309F444C0C82F9C
:100970008CEF8C0F813A70F48C2F0E942B1B8823F4
:1009800029F08C2F0E94CB1B0E94010D8C2F0E94FE
:10099000B41B0CC080E28C0F883058F4C77081E023
:1009A00001C0880FCA95EAF70E944D0C0E94010D04
:1009B00022C0EBE5EC0FE33040F4F0E0EE5AFE4FDE
:1009C000808190E00E94C31A16C0E8E5EC0FEB317D
:1009D00050F4F0E0EE0FFF1FE45EFE4F8081918146
:1009E0000E94E81A08C083E38C0F833120F461E091
:1009F0008C2F0E94A904CF910895882381F19CEF48
:100A0000980F913A18F40E94CB1B0DC090E2980FFA
:100A1000983060F4877091E001C0990F8A95EAF7E9
:100A2000892F0E94530C0E94010D08959BE5980F99
:100A3000933028F480E090E00E94C31A089598E56E
:100A4000980F9B3128F480E090E00E94E81A089506
:100A500093E3980F933118F460E00E94A90408957D
:100A60001F93CF93DF93182FEB010E94B3042097BD
:100A700041F08FE99FE00197F1F700C00000219756
:100A8000F6CF812F0E94FD04DF91CF911F91089531
:100A9000893319F060E070E002C060E570E00E9408
:100AA00030050895882321F00E944D0C0E94010D0D
:100AB0000895882321F00E94530C0E94010D08958F
:100AC000A0E0B0E0E6E6F5E00C941F247C01162FD0
:100AD000C72FFC01D581068102950F700E94430C3F
:100AE0008823F9F0DD23E9F08C2F807F803461F0DA
:100AF00080E2810F8830A8F08C2F807E803221F434
:100B0000123078F0002369F08091D20282FF09C090
:100B100082E00E94420D0E94430C91E0D82ED9261B
:100B200001C0D12CCC2EC2948FE0C8228C2D90E035
:100B30008C30910508F09CC1FC01EA5AFF4F0C94DF
:100B40000F248C2F807FCF70882311F0C295C07F37
:100B5000DD2399F0CC2309F477C180E2810F88303E
:100B600010F0111104C08C2F0E944D0C03C08C2F6B
:100B70000E945D0C0E94010D67C1812F0E94FD043F
:100B8000CC2309F475C180E2810F883038F111233C
:100B900029F18C2F0E94630C24C08C2F807FCF7092
:100BA000803211F0C295C07F112319F0113099F1F4
:100BB0003CC08091D20282FD17C0DD2349F0CC23D6
:100BC00029F08C2F0E944D0C0E94010D80E03DC148
:100BD00080E00E94FD04CC2309F44AC18C2F0E94BE
:100BE000530C0E94010D44C1DD2349F0002309F19B
:100BF000013009F03DC18C2F0E94770C39C10111E1
:100C000037C18C2F0E9459058C2F0E94830C8C2F8A
:100C10000E94150D2DC1DD2321F0063008F028C1FA
:100C200008C0053008F024C115C0DD2331F00111E2
:100C30000BC18C2F0E9452051BC1002359F01933A0
:100C400009F013C1FFEF27EE83E0F1502040804010
:100C5000E1F709C18C2F0E9459050AC18C2F869596
:100C60008695837019F0813061F002C1DD2321F097
:100C7000812F9C2F937002C080E090E00E94C31AE5
:100C8000FFC0DD2321F0812F9C2F937002C080E0F4
:100C900090E00E94E81AF4C06D2F812F0E94A904F1
:100CA000EFC08C2F8370B1F5D111E6C0412F429572
:100CB00046954770440F440F812F8F7090E09C0140
:100CC000042E02C0220F331F0A94E2F714FF0AC059
:100CD0008FE090E002C0880F991F4A95E2F7809557
:100CE000909502C080E090E0C695C695C370822BB7
:100CF000932BC23049F058F4C13019F00E94130808
:100D0000BBC00E940A08B8C00E941C08B5C00E945F
:100D10000708B2C0DD2319F08C2F817001C08695C1
:100D2000882309F4A9C0412F429546954770440F86
:100D3000440F812F8F7090E09C01042E02C0220F7F
:100D4000331F0A94E2F714FF0AC08FE090E002C05C
:100D5000880F991F4A95E2F78095909502C080E030
:100D600090E0C695C695C370822B932BC23049F094
:100D700058F4C13019F00E947B087EC00E947208AE
:100D80007BC00E94840878C00E94280875C0CF707C
:100D9000DD2339F08C2F0E944008812F0E945205DC
:100DA0006BC0812F0E9459058C2F0E94500864C08F
:100DB000123F21F128F4103F41F0113FC1F040C033
:100DC000133F19F1143F79F03BC0DD2341F00530AA
:100DD00008F04EC08C2F8F710E94620849C0063007
:100DE00008F046C0F7CF8091D20282FD18C0DD2303
:100DF00039F08C2F8F710E9440083AC0DD23C9F36F
:100E00008C2F8F710E94500833C0DD2329F08C2F66
:100E10008F710E9434082CC00E942F0829C0DD2346
:100E200031F063E08C2F8F710E94240D21C081E08E
:100E30000E94420D0230E0F082E00E94420D18C094
:100E4000DD2331F00023A9F2812F0E94B30410C0EA
:100E50000023B1F2193349F49FEFE7EEF3E091502C
:100E6000E040F040E1F700C00000812F0E94FD0447
:100E700088EF8C0D843020F40E948F1A0E94420467
:100E8000DD2089F00E943F0C80FD0DC0F701158226
:100E90000E94390C0E944008C7010E9470070E94FE
:100EA000390C0E945008CDB7DEB7E8E00C943B2423
:100EB0000F931F93CF93DF93EC01688179818D812C
:100EC0000E9441098C010E948D080E94F807B80118
:100ED000CE010E946005DF91CF911F910F9108957F
:100EE000CF93DF93FC0124812223D1F0EC010E94F7
:100EF0004B0381110FC00E94430C882389F08D8120
:100F0000882371F08091D20282FF0AC082E00E94A1
:100F1000420D06C0CE010E945807CE010E941C035C
:100F2000DF91CF910895882321F00E945D0C0E94EB
:100F3000010D0895882321F00E94630C0E94010D89
:100F4000089580E090E00E94C31A80E090E00E9443
:100F5000E81A0E946A0C0E94010D0E94AF170E94BD
:100F6000901708950E94E21B0E94A10708950E9415
:100F70005A0C0E94B207089592959F70963079F0AE
:100F800010F4925001C09A50923068F4803F69F09A
:100F900018F4883E40F409C0843F29F406C0883E16
:100FA00020F0813F11F080E0089581E00895FC0178
:100FB0002481222339F0808191810E9436090E9488
:100FC000BC07089580E00895A6E0B0E0EAEEF7E0FF
:100FD0000C9425242696E2E00C944124A7E0B0E08E
:100FE000E4EFF7E00C9425242796E2E00C944124EA
:100FF000089508950E94F90708950E94FA07089538
:101000000E94FD079093D0018093CF0108950E9424
:10101000000808952091CF013091D001822B932BAD
:101020000E94000808952091CF013091D0018223C1
:1010300093230E94000808952091CF013091D001A0
:10104000822793270E94000808950E94F9070895B7
:101050000E9425089093CE018093CD01089580E0F1
:1010600090E00E942808089521E030E0A90102C024
:10107000440F551F8A95E2F7CA010E942808089577
:1010800021E030E002C0220F331F8A95E2F7809101
:10109000CD019091CE01822B932B0E9428080895B8
:1010A00021E030E002C0220F331F8A95E2F720953D
:1010B00030958091CD019091CE01822393230E949F
:1010C0002808089521E030E002C0220F331F8A95DE
:1010D000E2F78091CD019091CE01822793270E9463
:1010E000280808952091CD013091CE01822B932BB9
:1010F0000E94280808952091CD013091CE018223CD
:1011000093230E94280808952091CD013091CE01AB
:10111000822793270E94280808950895962F977094
:10112000A1E001C0AA0F9A95EAF793E0769567953A
:101130009A95E1F7660F771F660F771FFA01E60FA2
:10114000F71F40E050E0682F70E090819B01042E73
:1011500002C0369527950A94E2F721702195292738
:101160002A23292721934F5F5F4F4430510569F7A8
:101170000895FB01782F777023E0969587952A953F
:10118000E1F7880F991F880F991FE80FF91F40E0BA
:1011900050E080E0219130E0072E02C0369527957F
:1011A0000A94E2F721703327042E01C0220F0A941B
:1011B000EAF7822B4F5F5F4F4430510559F708958E
:1011C000282F973070F4893060F4862F622F70E0FA
:1011D00029E0929F600D711D11244DEA51E00E949B
:1011E0008E080895973070F4893060F4292F90E0CC
:1011F0006DEA71E039E0239F800D911D11240E945A
:10120000B908089580E00895A0E0B0E0EAE0F9E0D0
:101210000C941E247C010091CD011091CE0180918F
:10122000CF019091D001082B192BCFE0D0E0CC2436
:10123000C394D12CC6010C2E02C0880F991F0A94AA
:10124000E2F780239123892B21F4219798F7B12C81
:1012500007C0BC2EB7018C2F0E9455100197A9F32F
:101260008B2DCDB7DEB7E9E00C943A24CF93DF9312
:10127000EC010E940409BE010E945510DF91CF913C
:1012800008951F93CF93DF93EB019091AC019923C5
:1012900021F0CB010E94360913C0882349F0CB010D
:1012A0000E940409182F682FCE010E94E00804C094
:1012B000CB010E94F208182FBE01812F0E94551009
:1012C000DF91CF911F9108951F93CF93DF93C0912A
:1012D000D10117E08091D201C817A1F0D0E01C9F86
:1012E000F0011D9FF00D1124ED52FE4F2081318140
:1012F000428153816481758186810E94EE07219627
:10130000C770E8CFDF91CF911F91089520910B0214
:1013100030910C0240910D0250910E0260910F022B
:1013200070911002809111020E94EE070895CF93F0
:10133000DF938091110282958F7009F04EC08091E9
:101340001002882309F449C08091D1014091D20153
:1013500050910C0260910B02C0910D02D0910E02CF
:1013600077E08417D1F190E0789FF001799FF00D3C
:101370001124DF01AD52BE4F14962C9114972223F5
:1013800049F111962C911197251324C02C91261305
:1013900021C015962C91159721111CC012962D91E4
:1013A0003C9113972C1B3D0B283C310598F4809100
:1013B00011028F70806180931102E752FE4F80818D
:1013C0008F70806180838BE092E00E9470070E94A2
:1013D000640903C001968770C4CFDF91CF9108954F
:1013E0002091D1019091D20157E02917A9F030E066
:1013F000529FF001539FF00D1124ED52FE4F718169
:10140000761306C07081781303C07581741306C00B
:101410002F5F3F4F2770E9CF80E0089581E0089566
:10142000A4E1B0E0E6E1FAE00C941B248C0186E034
:10143000F801DE011F9601900D928A95E1F7F801FF
:101440008481E5809BE0A92E92E0B92E90910F0255
:10145000911118C0882309F480C1EE20D9F1C80188
:101460000E94D707F82E8823A9F187E0F801D5015B
:1014700001900D928A95E1F7C5010E94A0040E9497
:10148000970998C0F801C080D18082809380F09045
:10149000100220910D0230910E02A401421B530B49
:1014A000FF2009F406C1483C510508F0AFC088236D
:1014B00009F455C180911102282F207F90910C02D0
:1014C000222361F09D1509F462C0C8010E94D7076C
:1014D000811173C0C8010E9470073FC19D1115C0E2
:1014E00090910B029C1111C0E1100FC08F708061B0
:1014F000809311020E9486098BE092E00E9470079F
:1015000080911102F801868326C1E1103AC040E0C3
:101510006D2D8C2D0E94F00940E06D2D8C2D0E94C8
:10152000F009E82E811117C1CF86D88A8F85988956
:101530000E943609292F22952F70243020F49F70A5
:10154000223028F009C02A50223080F014C099239C
:1015500049F0811107C013C0992321F0F801968149
:10156000907F69F0805E883030F409C0803F38F0A9
:10157000815F833020F0C8010E947007EF2CFE2CA1
:10158000EEC080911102816080931102E4C09091BD
:101590000B029C119ACFE11098CFF8018683C80105
:1015A0000E94700787E0F801ABE0B2E001900D9275
:1015B0008A95E1F70E948609D2C0EE2009F48ACF0D
:1015C00020911102822F82958F7090E002978CF00B
:1015D00080910B0290910C02998788879B868A865E
:1015E00080910F028C871D862E87CE0108960E945F
:1015F000700787E0F801ABE0B2E001900D928A95A8
:10160000E1F70E9497090E948609A7C090911102F4
:10161000292F207FA1F4682D9A8A898AA6017A89C8
:101620009E2D0E94E4078BE092E00E94700787E005
:10163000F50111928A95E9F70E9486098CC08823EA
:1016400009F48DC080910C028D1111C080910B02A4
:101650008C110DC0E1100BC0F8019683C8010E94E7
:10166000700787E0F50111928A95E9F778C0C80103
:101670000E94D707882309F42DCFEE2009F42ACF42
:1016800020911102822F82958F7090E002970CF4C6
:10169000B0CF80910B0290910C029A8389839C8237
:1016A0008B8280910F028D831E822F83CE01019643
:1016B0009ECF483C510508F040C0882309F44DC036
:1016C000FE2CEE2009F406CF80910C028D1127C06C
:1016D00080910B028C1123C09091110290FD16C0D5
:1016E000892F82958F70282F30E02115310571F0F8
:1016F000F80196832F30310509F451CF8F5F982F71
:101700009295907F86818F70892B48CF87E0F80172
:10171000ABE0B2E001900D928A95E1F720C0C801DC
:101720000E94D707811165CF80911102816080935B
:101730001102C8010E94700712C0682D9A8A898A16
:10174000A6017A899E2D0E94E40787E0F501119297
:101750008A95E9F72FCFF12C02C0FF24F3948F2D47
:101760006496ECE00C943724AEE0B0E0EAEBFBE0EA
:101770000C942424288739874A875B876C877D8768
:101780008E87CE0108960E94100A882361F06C852E
:101790006623A9F1288539854A855B857D858E85F7
:1017A0000E94EE072CC087E0FE013896DE011196FC
:1017B00001900D928A95E1F76C85662301F12091E5
:1017C000D20130E0C9010196877099274091D1017B
:1017D00050E084179507E1F16D8397E0929FD00167
:1017E000939FB00D1124AD52BE4FFE013196019072
:1017F0000D929A95E1F78093D2010E94640917E057
:101800008091D1019091D201891779F1189FC0017F
:1018100011248D529E4F0E94100A882331F1E091CD
:10182000D1011E9FF0011124ED52FE4F2081318124
:10183000428153816481758186810E94EE07809187
:10184000D10190E00196877099278093D101D8CF7C
:101850000E94B7071092D2011092D101EBE0F2E0A2
:1018600087E0DF011D928A95E9F72E96E3E00C945C
:10187000402480913A0286958695869508958091B8
:101880003A028770089590913A02977081E009F4C6
:1018900080E0089580916602089590916602892BF8
:1018A00080936602089580959091660289238093C3
:1018B0006602089510926602089590916502892B40
:1018C00080936502089580959091650289238093A5
:1018D0006502089510926502089580913C02089572
:1018E00008950E94700C08950E94710C08959091C3
:1018F0003C02292F2823821729F0982B90933C0231
:101900000E94740C089590913C02292F282331F0F5
:101910008095892380933C020E94740C08959091D5
:10192000D20292FF08C090913C02981721F0809358
:101930003C020E94740C089580913C02882329F097
:1019400010923C0280E00E94740C0895CF93C091E5
:10195000660280916502C82B80913C02882331F099
:10196000C82B0E940D1B81110E949C0C8C2FCF91C3
:101970000895CF93DF93C0910401D09105010E9497
:10198000A60C8883C0910401D091050148E050E085
:1019900062E372E0CE010E946024892B59F088E056
:1019A000FE01A2E3B2E001900D928A95E1F7CE012B
:1019B0000E949C1ADF91CF910895CF93DF93C0913D
:1019C0000201D09103010E94A60C8983C0910201FB
:1019D000D091030140E250E062E172E0CE010E944A
:1019E0006024892B59F080E2FE01A2E1B2E001906F
:1019F0000D928A95E1F7CE010E94A71ADF91CF914F
:101A0000089580911B01882339F08091D10287FFCE
:101A100003C00E94DD0C08950E94B90C08950E9435
:101A2000700C08950E940F0D089590913B02292F8C
:101A3000282331F08095892380933B020E94120D68
:101A400008950E94700C08959091D20292FF11C0E7
:101A500098E0899F90011124262B20933A020E943E
:101A6000400880913A028695869586950E94210DC0
:101A700008950E944008089510923A0280E00E9462
:101A8000210D089590913A028095892380933A021E
:101A9000282F277069F4981759F09091D20292FF7D
:101AA00007C08695869586950E9450080E943C0D39
:101AB00008959091D20292FB222720F9281769F00D
:101AC00080FB92F99093D2028091D1029091D20240
:101AD0000E94A10D82E00E94420D08958091D202E1
:101AE00082FB882780F991E089270E94590D08958B
:101AF00081E00E94590D089580E00E94590D0895DB
:101B00006FEF7FEF80E090E00E94B224089580E0C4
:101B100090E00E947E2421E0853E9E4F09F020E067
:101B2000822F089582E090E00E947624089583E059
:101B300090E00E947624089584E090E00E947E2444
:101B40000895BC0184E090E00E94B2240895AB01A6
:101B5000BC018FE090E00E94A6240895AB01BC0177
:101B600083E190E00E94A624089560E070E0CB013C
:101B70000E94AE0D089560E070E0CB010E94A70DB9
:101B80000E94B50D0895A8E0B0E0E9ECFDE00C94EA
:101B9000252465EE7EEF80E090E00E94B22460E0B4
:101BA00082E090E00E94942481E090E09093D00144
:101BB0008093CF0161E083E090E00E94942460E094
:101BC00074E184E090E00E94B22460E086E090E05E
:101BD0000E94942460E087E090E00E94942440E01A
:101BE00050E0BA0188E090E00E94A62460E083E221
:101BF00090E00E94942460E08CE090E00E949424A5
:101C000060E08DE090E00E94942419821A821B8289
:101C10001C821D821E821F82188648E050E067E108
:101C200070E0CE0101960E94842440E050E0BA01A9
:101C30008FE190E00E94A6240E94BB0D2896E2E06E
:101C40000C9441240E94C30D0895682F8EE090E00B
:101C50000E9494240895A6E0B0E0E1E3FEE00C9435
:101C600023240E94D81C8C01809167029091680205
:101C70000817190781F019821A820E94D81C682F50
:101C800049815A81792F80E090E00E946D04109381
:101C90006802009367022696E4E00C943F240E94B9
:101CA000E41C60937B0270937C0280937D0290938E
:101CB0007E0260937702709378028093790290930A
:101CC0007A02089581E0089581E008950E94640EEB
:101CD000089508950E94690E08950E94690E08955E
:101CE0000E946D0E08950E94690E08950E94730E61
:101CF00008950E94690E089585E491E10E94AB1257
:101D00000E94790E0E94760E08950E946A0E0E942B
:101D1000690E08950E94870D811102C00E94220E53
:101D20000E94920D80937F020E949C0D9093D2029C
:101D30008093D1020E940B150E94970D90E00E94A3
:101D400007088091CD019091CE010E942508089549
:101D50000E94CF1C0E9405120E948A0E0E9441041C
:101D60000E94700E0895A6E0B0E0E9EBFEE00C944E
:101D700019240E94620E811103C00E942B0E62C0C2
:101D80000E941B1229E6E22E22E0F22E5701D12CEE
:101D9000F501019111915F018D2D0E94471180275E
:101DA0009127D394F7E0DF1619F0892B89F302C04D
:101DB000892B19F380917F0281FD0E9450110E94AE
:101DC000660E782E10E066246394812F0E944711DE
:101DD0004C01F701A080B180A826B926A114B10456
:101DE00049F100E0CC24C394D12CC5018C219D2164
:101DF000892BC1F07720B1F009831A830E94D81C87
:101E00009C838B836D8221E0C4018C219D21892BD1
:101E100009F420E049815A816B817C818D81922F68
:101E20000E946D040F5FCC0CDD1C0930F1F6F70148
:101E3000918280821F5FF2E0EF0EF11C173029F6CD
:101E40000E944F0E0E94CD130E94D1170E9454048D
:101E50002696EEE00C9435241F93CF93DF930E94D7
:101E60005A10EC01C11580E5D807E8F5C11590E4DA
:101E7000D90708F0A8C0C03ED10530F5CD3CD1054A
:101E800008F094C0C83AD10578F4C53AD10508F0F5
:101E900083C0C130D10509F47CC008F4F2C0C4305D
:101EA000D10508F0F1C0EDC0C33CD10508F0E9C090
:101EB000C85AD0E0CC0FDD1FCB5ADE4F0990D88135
:101EC000C02DCE019464E1C0C11580E2D80708F0AE
:101ED000CBC0C11591E0D90708F06BC0C83ED10551
:101EE00008F4D2C0CEC0C03682E5D80728F5C03489
:101EF00092E5D90708F079C0C03282E5D80708F02A
:101F00006CC0C11592E5D90708F481C04C2F4695E5
:101F1000469580E2489FA0011124C37021E030E083
:101F2000C90102C0880F991FCA95E2F7EA01C82BC0
:101F3000D92BCE019D68A9C0C03A82E5D807B8F474
:101F40008C2F8F71C03892E5D90708F07BC0869539
:101F5000869590E2899F90011124C37081E090E002
:101F600002C0880F991FCA95E2F79A6868C0C03C02
:101F700082E5D80708F46DC0C03E92E5D90708F0A5
:101F800080C0CF71DD27DC2FCC27CE01806F906A17
:101F90007CC081E090E079C0C55AD0E0C557DE4FE3
:101FA0008881C82FD0E0CE0190646FC0CE019065CB
:101FB0006CC08D2F0E94F610182FCE0199270E9419
:101FC0005A101F715CC0CE0199270E945A10CC276D
:101FD000DF70D06A8C2B9D2B58C0CF71D0E0DC2FE6
:101FE000CC27CE01816F906A50C08C2F8F7186955F
:101FF000869590E2899F90011124C37081E090E062
:1020000002C0880F991FCA95E2F79C6818C08C2FF0
:102010008F710E94F61095E0D695C7959A95E1F7D5
:10202000CF70D0E0DC2FCC27282F30E084FF05C014
:1020300084E0220F331F8A95E1F7D069CE01822B0D
:10204000932B23C090E0D82FCC27CE01846F906AC9
:102050001CC08C2F8F710E94F6108F7190E0D82FCA
:10206000CC27CE01906211C08D2F8F710E94F61087
:10207000182FCE0199270E945A101F719062912B40
:1020800004C080E090E001C0CE01DF91CF911F91AC
:102090000895773038F4693028F4462F672F0E946E
:1020A0005E02089580E090E008950E9449100E9429
:1020B0002C0F08958238910569F1B0F481339105B0
:1020C00009F475C048F48932910509F467C08A3271
:1020D000910509F471C008958533910509F459C03B
:1020E00089339105B9F00895833E910589F138F45B
:1020F000803E9105D1F0823E910529F10895863EFA
:102100009105C9F1873E9105D9F1843E910509F009
:102110006CC027C02091D10220FD57C021FD55C0C1
:102120002091D20223FD5BC008958091D10280FDF1
:1021300048C08091D20280FF48C08091D10284FDC6
:1021400046C083EE51C08091D10282FF3CC0F5CFE2
:102150008091D10282FD37C08091D20280FD35C0CE
:10216000ECCF8091D20281FF36C08091D10284FDF4
:102170002EC087EE39C08091D10283FF2AC0F5CFEF
:102180008091D10283FD25C08091D20281FD23C0C0
:10219000ECCF8091D10285FD22C01FC08091D10279
:1021A00085FD1BC08091D20283FF19C00AC08091B7
:1021B000D10286FD16C017C08091D10286FD13C0E2
:1021C00010C089E311C082EE0FC080EE0DC080E028
:1021D0000BC086EE09C084EE07C085E305C089E226
:1021E00003C08AE201C081E390E008959091D1029A
:1021F00092FF10C041E0282F2471243009F040E004
:1022000031E0282F2871283009F030E0431711F011
:102210002CE0822793FF10C041E0282F2471243145
:1022200009F040E031E0282F2871283109F030E032
:10223000431711F02CE082273091D20230FF10C0FA
:1022400051E0282F2171213009F050E041E0282F82
:102250002871283009F040E0541711F029E0822756
:1022600031FF10C041E0282F2171213109F040E0F9
:1022700031E0282F2871283109F030E0431711F0A0
:1022800029E0822794FD877E089580E00895E82F55
:10229000F0E0EE0FFF1FEF51FD4F80819181089517
:1022A000089580EA8A95F1F7089500C008950E9484
:1022B0005111089508950E945A1108950E945B11CA
:1022C00008950E945A1108950E9461110895F8948A
:1022D000E82FE295EF70F0E031A1282F2F7081E018
:1022E00090E001C0880F2A95EAF7982F90959323E4
:1022F00091A392A1892B82A3789408950F931F93A1
:10230000CF93DF93C7E9D1E089918F3F11F00E940D
:10231000671181E0CE39D807B9F7CEE8D1E007E9F7
:1023200011E089918F3F11F00E9467110C171D0772
:10233000C1F7DF91CF911F910F910895A0E0B0E018
:10234000E4EAF1E10C941E248C01C62FD0E0CE010A
:1023500089569E4F6C01FC0190819F3F09F450C04B
:10236000B62EF894E92FE295EF70F0E081A19F700E
:1023700021E030E001C0220F9A95EAF7822B81A379
:1023800082A12095282322A378940E945511EEE87B
:10239000F1E047E951E021E030E0E12CF12C6191DE
:1023A0006F3F89F0A62FA295AF70B0E090968C9108
:1023B00090E06F7002C0959587956A95E2F780FD71
:1023C00002C0C90102C080E090E0E82AF92A220F89
:1023D000331F4E175F0719F7F60180818F3F11F009
:1023E0000E94671161E0E114F10409F460E08B2DB3
:1023F0000E945711CC0FDD1FC00FD11FF982E88258
:10240000CDB7DEB7E9E00C943A240E947E118EE04D
:10241000E1EEF2E0DF01982F1D929A95E9F7E3EDE6
:10242000F2E0DF011D928A95E9F787E00E945612DB
:102430000E9464110895AEE0B0E0E1E2F2E10C9494
:1024400022248E010F5F1F4F8EE0F80111928A95B2
:10245000E9F7F12C6F2DC8010E949E11F394F7E06B
:10246000FF12F8CF4EE050E0B80183ED92E00E94F9
:10247000602421E0009709F420E0892B41F08EE0F0
:10248000F801A3EDB2E001900D928A95E1F747E0E3
:1024900061EE72E083ED92E00E945712182F0E94C5
:1024A0005E11812F2E96E5E00C943E240895EF9264
:1024B000FF920F931F93CF93DF937C018B01C42F67
:1024C000222351F081E0809382020E94D81C9093D5
:1024D00081028093800204C080918202811102C037
:1024E00080E01CC080918002909181020E94F01CCB
:1024F0000597B0F3D0E0CC0FDD1FAE01B701C801E6
:102500000E946024892B39F0AE01B701C8010E94F6
:102510006D2481E001C080E010928202CDB7DEB769
:10252000E6E00C943D240E94B30E08950E946F1CB7
:102530000E948D1E0E947C0E0E94A71E0E94A80E63
:102540000E94B41E0E94B91E0E9493120E94D31EC4
:102550000E94850EF7CF90939F0180939E0108956E
:1025600080910601877F8093060182E00E94630CC0
:102570008091060184FF06C08F7E8093060182E071
:102580000E944D0C8091060185FF06C08F7D8093CF
:10259000060180E20E944D0C0E94010D089580E02A
:1025A00008958B329105A1F038F49C012450310933
:1025B0002432310550F40CC08D32910530F089334E
:1025C000910530F08436910519F00E94CF120895DC
:1025D00081E00895CF93DF93EC01662319F082E048
:1025E0000E945D0CCE0190528115904318F4CE01EB
:1025F000992701C0CE010E949802DF91CF910895E2
:102600009C0130522115304308F499270E94AF02F3
:102610000895FC01FF2724E0F695E7952A95E1F758
:102620009C012F703327EE0FFF1FED57FD4F81E008
:1026300090E002C0880F991F2A95E2F7662329F0DF
:1026400020813181822B932B06C08095909520812B
:10265000318182239323918380830895FC0123E0B9
:10266000F695E7952A95E1F7EE71FF27ED57FD4FB7
:102670008F70992721E030E002C0220F331F8A9526
:10268000E2F7808191812823392381E0232B09F40B
:1026900080E00895EF92FF920F931F93CF93DF9303
:1026A000EC017B018A018091060182FF5CC02091D0
:1026B000AA023091AB022C173D0719F0209709F0C0
:1026C00052C0909106019B7F9093060191FD11C02D
:1026D0008091AC029091AD02A701481B590B61E0BB
:1026E00080910701909108014817590718F460E09C
:1026F00001C061E061708091060160FB81F9809307
:102700000601C9010E9409130E944A0C81FF08C0FA
:102710008091060180618093060182E00E94530C43
:102720000E944A0C85FF08C0809106018062809358
:10273000060180E20E94530C60910601669561706B
:10274000A8018091AA029091AB020E94EA126091C6
:10275000060166956170A8018091AA029091AB0272
:102760000E9400130FC0CE010E942E13A801682FF3
:10277000CE010E9400138091AA029091AB02C8176B
:10278000D90711F40E94B012F092AD02E092AC02AF
:10279000CDB7DEB7E6E00C943D248091060182FFC0
:1027A00019C00E94D81C2091AC023091AD02AC013E
:1027B000421B530B20910701309108014217530728
:1027C00048F043EA52E0BC018091AA029091AB022A
:1027D0000E944A13089580910601982F909590FBCE
:1027E00080F9809306010E94B0120895809106013D
:1027F0008E7F809306010E94B012089560E280915E
:102800000701909108010E940D04FC0101962081AE
:102810002032D9F3CF010E94DA190895CF92DF92C6
:10282000EF92FF921F93CF93DF93EC017B010E9405
:10283000D81C6C01F7018581882309F449C0809177
:10284000060182FF07C043EA52E0B60180E090E053
:102850000E944A13C231FCE7DF0771F170F4C03106
:102860008CE7D807F9F0C131ECE7DE0739F5809144
:1028700007019091080105961AC0C431FCE7DF07F3
:1028800071F038F0C5318CE7D807C1F40E94EB1322
:1028900015C0809106018160809306010FC00E94DF
:1028A000F6130CC080910701909108010597909351
:1028B00008018093070102C00E94FE13CE019052CE
:1028C00081159043E0F41092AB021092AA0215C059
:1028D000C13ED10521F4809106018F7E06C0C53E20
:1028E000D10531F4809106018F7D8093060107C0E8
:1028F000CE0190528115904310F411E065C0809193
:10290000060180FFFACFB701CE010E94D112F70174
:102910001581882309F455C0112309F44CC00E9485
:102920004A0C182F0E946D0C812B8D7F99F010920C
:10293000AB021092AA0260E0CE010E940913A70127
:1029400060E0CE010E94EA120E946D0C8D7F0E9411
:102950008F0C2CC087E0F701A3EAB2E001900D9242
:102960008A95E1F71092A6021092A5020E944A0CE5
:10297000182F0E946D0C812B869581709091060115
:1029800080FB91F9909306010E946D0C8D7F0E944F
:102990008F0CD093AB02C093AA02D092AD02C0922A
:1029A000AC028091060184608093060182E00E945F
:1029B000420D10E009C0A701B601CE010E944A13E2
:1029C00003C0111180CF99CF812FDF91CF911F913B
:1029D000FF90EF90DF90CF9008950E94800D0895B2
:1029E00080E00E944711817008950E941B122FEF12
:1029F00086E791E0215080409040E1F700C0000060
:102A00000E941B120E94F014882321F00E94ED14F2
:102A10000E94251D08950E94F5140895CF93DF9319
:102A200086319C4709F5EB010E944A0C9D81992350
:102A300071F08A7A91E009F490E09093AE028111EE
:102A400002C089E201C085E30E94B41B09C08091E5
:102A5000AE02811102C089E201C085E30E94CB1B56
:102A60000E94010D80E001C081E0DF91CF910895C7
:102A7000CF93DF93FC01DB0115968C91882309F439
:102A8000DDC09F0130572332310508F0D8C0EF0177
:102A90000E949C0D9093D2028093D102FE01E150DE
:102AA000F047E232F10520F4EE59FF4F0C940F2469
:102AB0008091D1028160AAC08091D2028860B2C0A8
:102AC0008091D1028260A2C08091D10220C0809109
:102AD000D10288609BC08091D2021EC08091D20238
:102AE0008260A0C08091D102806190C08091D102AB
:102AF00080628CC08091D102806488C00E94B70738
:102B00008091D102806882C08091D1028860846007
:102B10007DC08091D2028260816084C08091D102A8
:102B20008E7F74C08091D202877F7CC08091D10259
:102B30008D7F6CC08091D10220C08091D102877FAF
:102B400065C08091D2021EC08091D2028D7F6AC082
:102B50008091D1028F7E5AC08091D1028F7D56C064
:102B60008091D1028F7B52C00E94B7078091D10221
:102B70008F774CC08091D102877F8B7F47C0809137
:102B8000D2028D7F8E7F4EC08091D10282FB2227A0
:102B900020F991E0922790FB82F990FB83F936C0EF
:102BA0008091D202982F909591708E7F892B90FB07
:102BB00081F938C08091D10286FB222720F991E06B
:102BC000922790FB86F922C00E94B7078091D1021C
:102BD00087FB222720F991E0922790FB87F916C006
:102BE00081E001C080E00E94250E1EC08091D102CC
:102BF00084FB222720F991E0922790FB84F906C0FC
:102C00008091D102982F909590FB80F98093D1020A
:102C10000BC08091D20283FB222720F991E09227FA
:102C200090FB83F98093D2028091D1029091D202DD
:102C30000E94A10D0E94B70780E001C081E0DF91F2
:102C4000CF910895282F35EB2303C001112497FF5E
:102C500003C08058910902C080589F4F892F089562
:102C60008091B50280FF06C060910E0170E0660F92
:102C7000771F26C081FF04C060910E0184E005C06B
:102C800082FF07C060910E0188E0689FB0011124A7
:102C900017C09091B4029923D1F060910D0196175D
:102CA00088F720910E0188E0289F90011124929FBF
:102CB000A001939F500D112470E0CA010E94D923F6
:102CC0006038710540F46115710519F406C068E0BB
:102CD00070E0862F08958FE7089581E00895809130
:102CE000B50280FF08C060910A0170E07595679594
:102CF0007595679521C081FF06C060910A0170E05B
:102D00007595679519C082FF04C060910A0170E053
:102D100010C09091B302992399F060910901961720
:102D2000A0F780910A01899FC001112470E00E94E0
:102D3000D9236038710540F46115710519F406C096
:102D400061E070E0862F08958FE7089581E008958F
:102D50009091B80291110CC09091B902911108C0E4
:102D60009091BB02911104C09091BA02992331F065
:102D700098E09093B40291E09093B3028D3C21F4DB
:102D80000E943016819504C08E3C29F40E943016B2
:102D90008093B90208958F3C21F40E9430168195EA
:102DA00004C0803D29F40E9430168093B802089533
:102DB000893D19F40E946F1605C08A3D31F40E94C6
:102DC0006F1681958093BA0208958B3D21F40E947D
:102DD0006F16819504C08C3D29F40E946F16809374
:102DE000BB0208959FE2980F983078F421E030E01C
:102DF000A90102C0440F551F9A95E2F7CA019091AC
:102E0000B702892B8093B70208958D3D21F48091FC
:102E1000B50281600BC08E3D21F48091B5028260C5
:102E200005C08F3D29F48091B50284608093B5027E
:102E300008958D3C39F49091B90297FF35C01092F6
:102E4000B90259C08E3C29F49091B9021916BCF30D
:102E50002BC09091B8028F3C29F497FF25C01092A7
:102E6000B80249C0803D19F41916CCF31DC09091E9
:102E7000BA02893D29F41916BCF41092BA023BC07B
:102E80008A3D19F497FF10C0F8CF8B3D39F490912B
:102E9000BB0297FF09C01092BB022DC08C3D21F4EC
:102EA0009091BB021916BCF39FE2980F983080F402
:102EB00021E030E0A90102C0440F551F9A95E2F7C6
:102EC000CA0180959091B70289238093B70213C0FD
:102ED0008D3D21F48091B5028E7F0BC08E3D21F493
:102EE0008091B5028D7F05C08F3D29F48091B50298
:102EF0008B7F8093B5028091B802811106C08091CA
:102F0000B902811102C01092B4028091BA028111FB
:102F100006C08091BB02811102C01092B3020895D5
:102F20000E94D81C2091B802211104C02091B9023E
:102F3000222321F09093B2028093B1022091BA0231
:102F4000211104C02091BB02222321F09093B002F2
:102F50008093AF0286EB92E00E94B51A0895E6EBEB
:102F6000F2E086E0DF011D928A95E9F71092B40243
:102F70001092B3021092B5020895FC018281811172
:102F80000DC0838181110AC08481811107C091E045
:102F90008581811101C090E0892F01C081E081709D
:102FA0000895A6E0B0E0E7EDF7E10C94242486E074
:102FB000E6EBF2E0DE01119601900D928A95E1F7C1
:102FC0001092B8021092B9021092BA021092BB028B
:102FD0008B81811104C08C81882309F456C08091B3
:102FE000B1029091B2020E94F01CAC019091B40227
:102FF000992339F020910F0130E02417350758F05C
:1030000044C0209110018AE0289F900111242417C8
:10301000350718F03AC09F3F19F09F5F9093B402B4
:103020001B81112361F00E943016111614F09FEFDE
:1030300001C091E0989F902D11249093B8021C81BB
:10304000112361F00E943016111614F09FEF01C099
:1030500091E0989F902D11249093B9028091B8022D
:10306000882399F01091B902112379F00E94221659
:10307000811101C081E08093B802812F0E94221645
:10308000811101C081E08093B9028D81811104C05A
:103090008E81882309F456C08091AF029091B002CE
:1030A0000E94F01CAC019091B302992339F0209159
:1030B0000B0130E02417350758F044C020910C0173
:1030C0008AE0289F900111242417350718F03AC090
:1030D0009F3F19F09F5F9093B3021D81112361F010
:1030E0000E946F16111614F09FEF01C091E0989F97
:1030F000902D11249093BA021E81112361F00E9439
:103100006F16111614F09FEF01C091E0989F902D5B
:1031100011249093BB028091BA02882399F01091F8
:10312000BB02112379F00E942216811101C081E0B7
:103130008093BA02812F0E942216811101C081E082
:103140008093BB02BE016F5F7F4F86EB92E00E94CF
:10315000FC1B811105C086EB92E00E94BD17811116
:103160000E94901786E0FE013196A6EBB2E0019036
:103170000D928A95E1F72696E3E00C9440248F9215
:103180009F92BF92CF92DF92EF92FF920F931F9385
:10319000CF93DF93E82FF0E0EA5DFD4FB490282F46
:1031A00026952695269530E0F901EA53FD4FE490E7
:1031B0008770F12C082E02C0F594E7940A94E2F788
:1031C00091E0E922FF24F901EA54FD4FC490D12C8B
:1031D000082E02C0D594C7940A94E2F7E1E0CE220B
:1031E000DD24F901EA55FD4FC491D0E002C0D59528
:1031F000C7958A95E2F7C170DD27062F10E0E1142C
:10320000F10471F081EE0E94B304C801009741F00F
:10321000EFE9FFE03197F1F700C000000197F6CF2A
:10322000C114D10439F44801B8018B2D0E94300536
:10323000C8010EC086EE0E94B304C801009799F33E
:10324000EFE9FFE03197F1F700C000000197F6CFFA
:10325000009741F0EFE9FFE03197F1F700C000007F
:103260000197F6CFCD2819F5EF2879F081EE0E946D
:10327000FD040115110549F08FE99FE00197F1F771
:1032800000C0000001501109F4CFCD2BF1F08CE209
:103290000E94480581149104C1F0EFE9FFE03197E5
:1032A000F1F700C00000F1E08F1A9108F3CF86EE2D
:1032B0000E94FD04C8010097B9F2EFE9FFE03197E1
:1032C000F1F700C000000197F6CFDF91CF911F9179
:1032D0000F91FF90EF90DF90CF90BF909F908F90D5
:1032E0000895EF92FF920F931F93CF93DF93EC011A
:1032F000162F0AE08881882309F457C0813009F02D
:103300004FC08981813041F47E0182E0E80EF11CDA
:103310008A810E94480509C0823049F47E01E2E0BA
:10332000EE0EF11C8A810E94B304E7012DC08330A8
:1033300041F47E01F2E0EF0EF11C8A810E94FD044F
:10334000F4CF843011F021961FC02A81229680E0AC
:1033500090E030E0205331092A30310558F4089FBD
:10336000A001099F500D1124C901840F951F2196BA
:103370002881EFCF009741F0EFE9FFE03197F1F7B7
:1033800000C000000197F6CF812F90E0009759F020
:10339000EFE9FFE03197F1F700C000000197F6CFA9
:1033A000612F0E94BF182196A5CFCDB7DEB7E6E00A
:1033B0000C943D2460E00E94711908950F931F93AF
:1033C000CF93DF93C42FD22FFC0185818823B1F0E6
:1033D0004093BE020E94D81C9093BD028093BC0211
:1033E00080E28C0F883008F04DC0C77081E001C0CA
:1033F000880FCA95EAF70E94520544C08091BE0228
:10340000481330C08091BC029091BD020E94F01C14
:10341000883C910538F510E21D0FCD17B9F080E218
:103420008C0F883040F4C77081E001C0880FCA95C6
:10343000EAF70E945905183010F581E09D2F97702A
:1034400001C0880F9A95EAF70E945205802F0E94CA
:1034500048051830B8F4D77081E001C0880FDA95BC
:10346000EAF70AC080E28C0F883060F4C77081E010
:1034700001C0880FCA95EAF70E94590503C0802F42
:103480000E944805DF91CF911F910F9108950F93EE
:10349000FC01E851FC47E730F10590F5CB01EC5712
:1034A000FF4F0C940F2406E221EE41EE6AE17CE727
:1034B00023C007E225EE45EE6BE17CE71DC006E286
:1034C00021EE40EE68E17CE717C007E225EE44EE0E
:1034D00069E17CE711C006E221EE42EE6CE17CE797
:1034E0000BC007E225EE46EE6DE17CE705C008E281
:1034F00021E045EE6EE17CE70E94DE1980E008C025
:10350000FB018581882319F01092BE0201C081E081
:103510000F9108959093C4028093C3020895E0919F
:10352000C302F091C402309729F00190F081E02DA0
:103530000995089580E00895E091C302F091C402D6
:10354000309721F00280F381E02D09950895E091F4
:10355000C302F091C402309739F026E0DC012C93CD
:103560000480F581E02D09950895E091C302F09162
:10357000C402309739F022E0DC012C930680F781F9
:10358000E02D09950895A3E0B0E0E9ECFAE10C9490
:1035900025242091C1023091C20228173907A1F0D9
:1035A0009093C2028093C102E091C302F091C402E1
:1035B000309751F023E029839B838A830084F1852F
:1035C000E02DCE01019609952396E2E00C9441246A
:1035D000A3E0B0E0EEEEFAE10C9425242091BF02C6
:1035E0003091C00228173907A1F09093C002809350
:1035F000BF02E091C302F091C402309751F024E081
:1036000029839B838A830084F185E02DCE01019676
:1036100009952396E2E00C944124E0910401F09195
:103620000501329680911B01882359F08091D102C7
:1036300087FF07C0E0910201F091030132969EE1FD
:1036400001C096E080E0915028F021912223D9F327
:103650008F5FF9CF0895882399F190911B019923E9
:1036600009F19091D10297FF1DC0982F96959695DC
:1036700096959E3128F5E0910201F0910301E90F42
:10368000F11D2281422F50E0877021E030E002C01E
:10369000220F331F8A95E2F72423352381E0232B61
:1036A00091F40EC02091040130910501F901329688
:1036B000285F3F4F9191891729F0E217F307D1F75F
:1036C00080E0089581E008959C01FC0132969FEF0F
:1036D00080E04191461789F09F3F19F4411101C0E4
:1036E000982F8F5F8630A9F79F3F39F0F901E90FD6
:1036F000F11D97FDFA956283089508959C012A5F54
:103700003F4FFC014281461301C01282019682178D
:103710009307B9F70895262F2695269526952E31DD
:1037200068F4FC01E20FF11D677021E030E001C098
:10373000220F6A95EAF78281282B22830895262F8B
:103740002695269526952E3170F4FC01E20FF11D89
:10375000677021E030E001C0220F6A95EAF72095FA
:103760008281282322830895682F80911B0188235A
:1037700059F08091D10287FF07C08091020190919A
:1037800003010E948B1B0895809104019091050113
:103790000E94641B0895682F80911B01882359F0B3
:1037A0008091D10287FF07C08091020190910301AF
:1037B0000E949F1B089580910401909105010E9431
:1037C0007E1B089580911B01882359F08091D102BE
:1037D00087FF07C0E0910201F091030132968EE16C
:1037E00006C0E0910401F0910501329686E0DF0108
:1037F0001D928A95E9F70895DC01FB0111969C91D1
:1038000011978181981321C012968C911297882369
:1038100019F09281891319C013968C9113978823FC
:1038200019F09381891311C015968C9115978823EF
:1038300019F09581891309C014969C91992339F048
:1038400081E02481291304C002C081E001C080E02E
:103850008170089508950E942A1C089583E0809342
:10386000C5020E942B1C0895811102C081E001C095
:1038700082E08093C5020E942B1C08950E94341C94
:10388000089581E08093C5020E942B1C08950E9438
:10389000411C089508950E944A1C08950E944B1CE3
:1038A00008950E944A1C08950E944A1C08950E948F
:1038B0004A1C0895CF930E94541C0E941B120E9420
:1038C000511CC0E08C2F0E944711892B29F4CF5F37
:1038D000C730C1F780E001C081E0CF91089585B77E
:1038E000806885BF85B7806885BF08951F920F9255
:1038F0000FB60F9211248F939F93AF93BF93809134
:10390000C602811113C08091EF029091F002A09144
:10391000F102B091F2024196A11DB11D8093EF0218
:103920009093F002A093F102B093F202BF91AF9195
:103930009F918F910F900FBE0F901F9018958091BF
:10394000F702843031F10E94A9031092C60220E4EC
:1039500088E190E00FB6F894A895809360000FBEC0
:103960002093600083B7817F846083BF83B78160C9
:1039700083BF7894889583B78E7F83BF0FB6F89402
:10398000A89580916000886180936000109260002B
:103990000FBE08950E94B7070E94AE03089582E00B
:1039A00084BD93E095BD9AEF97BD80936E00089516
:1039B0002FB7F8948091EF029091F002A091F1025C
:1039C000B091F2022FBF08952FB7F8946091EF02E3
:1039D0007091F0028091F1029091F2022FBF089550
:1039E0009C014FB7F8948091EF029091F002A09162
:1039F000F102B091F2024FBF821B930B08957894AD
:103A00001F920F920FB60F9211248F939F93AF9333
:103A1000BF938091EF029091F002A091F102B091DA
:103A2000F2020196A11DB11D8093EF029093F00266
:103A3000A093F102B093F202BF91AF919F918F9149
:103A40000F900FBE0F901F90189587E797E7909300
:103A50000108809300089AE088E10FB6F894A895D1
:103A6000809360000FBE90936000FFCF9AE088E1E2
:103A70000FB6F894A895809360000FBE90936000F5
:103A8000FFCF8091CF0208959B019091F70294306F
:103A9000F1F48F708093E9008FEF9091E8008150EE
:103AA00095FD06C095ED9A95F1F700008111F5CFCF
:103AB0008091E80085FF0BC0BA01C90140E050E0E9
:103AC0000E944B1F8091E8008E778093E800089554
:103AD00043E050E0BC0182E00E94441D089546E0AE
:103AE00050E0BC0182E00E94441D089540E250E095
:103AF000BC0182E00E94441D0895CF93DF93EC0146
:103B000048E050E0BC0181E00E94441D88E0FE01D5
:103B1000A7ECB2E001900D928A95E1F7DF91CF9189
:103B200008958091F602811109C00E94D6200E945A
:103B300033218091E20084608093E2000895109226
:103B4000F60208950E94471C08956091F30281E0F7
:103B5000611101C080E00E942E1C08959091F7022F
:103B600081E0943009F080E06091F3020E94341CFF
:103B7000089542E061EC81E00E944F2042E261EC56
:103B800082E00E944F209091F70281E0943009F08A
:103B900080E06091F3020E943E1C08958091F9023A
:103BA000833009F461C030F4813071F0823009F45F
:103BB0009BC008958A3009F487C08B3009F46CC02B
:103BC000893009F0A9C020C08091F802813A09F03B
:103BD000A3C08091E800877F8093E8008091FC0279
:103BE0009091FD02892B21F468E087EC92E003C0FC
:103BF00060E080E090E070E00E94901F8091E8001B
:103C00008B778093E80008958091F802813209F063
:103C100083C08091FC029091FD02029708F07CC065
:103C20008091E800877F8093E8008091E80082FD22
:103C300005C08091F7028111F8CF6EC02091F3008A
:103C40008091F20090E0922B029731F48091F10084
:103C5000813011F0863021F48091F1008093CF0201
:103C60008091E8008B7754C08091F802813A09F086
:103C700053C08091FC029091FD02892B09F04CC049
:103C80008091E800877F8093E8008091E80080FFC2
:103C9000FCCF80911B0137C08091F8028132E1F5A1
:103CA0008091FC029091FD02892BB1F58091E80092
:103CB000877F8093E8000E9484208091FA0280939D
:103CC0001B010E94B70708958091F802813221F507
:103CD0008091E800877F8093E8000E948420809193
:103CE000FB028093D00208958091F802813AA1F4FA
:103CF0008091E800877F8093E8008091E80080FF52
:103D0000FCCF8091D0028093F1008091E8008E7703
:103D10008093E8000E948420089584B7877F84BF41
:103D20000FB6F894A8958091600088618093600038
:103D3000109260000FBE90E080E80FB6F894809378
:103D40006100909361000FBE0E94411C08950E9483
:103D5000D6200E943321E2EEF0E0808184608083EF
:103D600078940E94BE23089581E191E00E948A1A0E
:103D700008958091F7028530A9F48091F70285308B
:103D800079F40E949F1C8091F5028823B1F30E9470
:103D90005A1C882391F30E94351F0E94B707EDCF6C
:103DA0000E94CA1C089508959A014091FE02509104
:103DB000FF020E94DC1E0895492F5527433051050C
:103DC000C9F060F44130510581F04230510509F0ED
:103DD00044C08BE390E040E053E043C041325105E2
:103DE000E1F04232510549F138C082E190E04BE305
:103DF00053E037C099278130910549F028F00297A8
:103E000061F5E6EDF2E005C0ECEFF2E002C0E6EEAF
:103E1000F2E0849190E0AF0124C06115710541F09A
:103E200061307105D1F489E090E04BE253E019C0B4
:103E300089E090E042E153E014C06115710541F062
:103E40006130710551F486EB90E04DE453E009C018
:103E500084E490E043E054E004C080E090E040E07F
:103E600050E0F90151834083089580E189BD82E1EA
:103E700089BD09B400FEFDCF8091D8008F7D80936D
:103E8000D8008091E00082608093E0008091E000A3
:103E900081FDFCCF0895A0E0B0E0E1E5FFE10C94E6
:103EA0001F24EC018B017A010E94A320811133C0F1
:103EB000E114F10439F0F70180819181081B190B9D
:103EC000C80FD91FC12CD12C0115110519F18091F2
:103ED000E80085FD16C08091E8008E778093E800A9
:103EE000E114F10449F0F70180819181C80ED91ED7
:103EF000D182C08285E00FC00E94A320882321F3D5
:103F00000AC089918093F10001501109FFEFCF1A87
:103F1000DF0ADACF80E0CDB7DEB7E8E00C943B24CF
:103F20002091FE023091FF022617370748F06115F5
:103F3000710539F42091E8002E772093E80001C044
:103F4000B901FC0120E06115710579F18091F7025A
:103F50008823F1F18530F1F18091E80083FD3CC0C8
:103F60008091E80082FD2EC08091E80080FFEBCFB9
:103F70002091F3008091F20090E0922B6115710581
:103F800051F08830910538F421912093F10061506F
:103F900071090196F3CF21E0089709F020E08091A4
:103FA000E8008E778093E800CECF2111CFCF0AC0F2
:103FB0008091F702882361F0853061F08091E800FC
:103FC00083FD0AC08091E80082FFF2CF80E008956F
:103FD00082E0089583E0089581E008952091FE0233
:103FE0003091FF022617370748F06115710539F443
:103FF0002091E8002E772093E80001C0B901FC0170
:1040000020E06115710591F18091F702882309F490
:1040100040C0853009F43FC08091E80083FD3DC079
:104020008091E80082FD2FC08091E80080FFE9CFF9
:104030002091F3008091F20090E0922B61157105C0
:1040400059F08830910540F424912093F100319685
:10405000615071090196F2CF21E0089709F020E044
:104060008091E8008E778093E800CBCF2111CCCFF0
:104070000AC08091F702882361F0853061F0809159
:10408000E80083FD0AC08091E80082FFF2CF80E063
:10409000089582E0089583E0089581E00895982FBF
:1040A000973068F59093E900981739F07091EC001B
:1040B0002091ED005091F00003C0242F762F50E0A6
:1040C00021FD02C09F5FECCF3091EB003E7F30932B
:1040D000EB003091ED003D7F3093ED003091EB002F
:1040E00031603093EB007093EC002093ED0050931F
:1040F000F0002091EE0027FDE5CF80E008958F705D
:104100008093E90081E008958091F80287FF11C053
:104110008091E80082FD05C08091F7028111F8CFFF
:1041200011C08091E8008B770BC08091F702882343
:1041300049F08091E80080FFF8CF8091E8008E7709
:104140008093E80008952091E4003091E50095E621
:104150004091EC00842F817040FF23C08091E800E3
:1041600080FD1DC08091F702882399F0853099F079
:104170008091EB0085FD11C04091E4005091E50075
:104180002417350729F3915011F09A01E1CF84E00B
:10419000089582E0089583E0089581E0089580E025
:1041A00008954091E80042FFDDCF08950E94452127
:1041B0000E944D21E0EEF0E0808181608083E8ED97
:1041C000F0E080818F77808319BCA7EDB0E08C91FF
:1041D0008E7F8C9380818F7E80831092F60208956B
:1041E0000F931F93CF93DF930E9445210E944D218F
:1041F000C8EDD0E088818F77888388818068888344
:1042000088818F7D888319BC1092F7021092F30287
:104210001092F5021092F40200EE10E0F801808195
:104220008B7F808388818160888342E060E080E0CA
:104230000E944F20E1EEF0E080818E7F8083E2EEED
:10424000F0E0808181608083808188608083F801D4
:1042500080818E7F8083888180618883DF91CF9188
:104260001F910F910895E8EDF0E080818F7E8083AB
:10427000E7EDF0E080818160808384E082BF81E0AF
:104280008093F6020E94F0200895E8EDF0E080812E
:104290008E7F80831092E20008951092DA001092CF
:1042A000E10008951F920F920FB60F9211242F93E1
:1042B0003F934F935F936F937F938F939F93AF93AE
:1042C000BF93EF93FF938091E10082FF0BC0809139
:1042D000E20082FF07C08091E1008B7F8093E100C4
:1042E0000E94BD238091DA0080FF1FC08091D8001A
:1042F00080FF1BC08091DA008E7F8093DA0080916E
:10430000D90080FF0DC080E189BD82E189BD09B47B
:1043100000FEFDCF81E08093F7020E94911D05C051
:1043200019BC1092F7020E949F1D8091E10080FF4E
:1043300019C08091E20080FF15C08091E2008E7F5D
:104340008093E2008091E20080618093E20080919E
:10435000D80080628093D80019BC85E08093F70272
:104360000E94A51D8091E10084FF30C08091E20091
:1043700084FF2CC080E189BD82E189BD09B400FEC3
:10438000FDCF8091D8008F7D8093D8008091E1008F
:104390008F7E8093E1008091E2008F7E8093E20027
:1043A0008091E20081608093E2008091F302882393
:1043B00011F084E007C08091E30087FD02C081E036
:1043C00001C083E08093F7020E94AE1D8091E1005E
:1043D00083FF29C08091E20083FF25C08091E10026
:1043E000877F8093E10082E08093F7021092F302CE
:1043F0008091E1008E7F8093E1008091E2008E7FCA
:104400008093E2008091E20080618093E20042E0CC
:1044100060E080E00E944F208091F00088608093EF
:10442000F0000E94A21DFF91EF91BF91AF919F916B
:104430008F917F916F915F914F913F912F910F904D
:104440000FBE0F901F9018951F920F920FB60F92EC
:1044500011242F933F934F935F936F937F938F9389
:104460009F93AF93BF93CF93DF93EF93FF93C0914D
:10447000E900CF708091EC00D82FD17080FDD0E89A
:104480001092E9008091F000877F8093F00078948B
:104490000E9468221092E9008091F0008860809369
:1044A000F000CD2BCF70C093E900FF91EF91DF9129
:1044B000CF91BF91AF919F918F917F916F915F91BC
:1044C0004F913F912F910F900FBE0F901F90189515
:1044D000AAE2B0E0EEE6F2E20C942424E8EFF2E087
:1044E0008091F100819323E0E030F207C9F70E9448
:1044F000CE1D8091E80083FF2EC18091F80290913B
:10450000F902492F50E04A30510508F024C1FA0160
:10451000E557FF4F0C940F24803821F0823809F0C2
:104520001AC108C08091F4029091F502992389F094
:1045300082600FC08091FC028F70873008F00BC141
:104540008093E9008091EB0085FB882780F9109229
:10455000E9009091E800977F9093E8008093F10044
:104560001092F100D1C0282F2D7F09F0F4C08823CC
:1045700019F0823061F0EFC08091FA02813009F0C9
:10458000EAC0933009F080E08093F5022EC080915C
:10459000FA0281112AC08091FC028F702FEF280F40
:1045A000263008F0D8C08093E9002091EB0020FF6E
:1045B0001CC0933021F48091EB00806214C0909174
:1045C000EB0090619093EB0021E030E0A90102C084
:1045D000440F551F8A95E2F74093EA001092EA00D3
:1045E0008091EB0088608093EB001092E90080914D
:1045F000E800877F8093E8000E948420ACC081118E
:10460000AAC01091FA021F778091E3008078812B75
:104610008093E3008091E800877F8093E8000E9408
:1046200084208091E80080FFFCCF8091E3008068C7
:104630008093E300111102C082E001C083E0809307
:10464000F70289C08058823008F085C08091FA0254
:104650009091FB028C3D53E0950779F583E08A83C6
:104660008AE289834FB7F894DE01139620E03EE09A
:1046700051E2E32FF0E050935700E49120FF03C094
:10468000E295EF703F5FEF708E2F90E0EA3010F010
:10469000C79601C0C0968D939D932F5F243149F733
:1046A0004FBF8091E800877F8093E8006AE270E066
:1046B000CE0101960E94901F16C06091FC0270917D
:1046C000FD02AE014F5F5F4F0E94D41EBC01892BDB
:1046D00009F441C09091E800977F9093E8008981A8
:1046E0009A810E94EE1F8091E8008B778093E8000A
:1046F00032C0803881F58091E800877F8093E800A0
:104700008091F3028093F1008091E8008E7772CF60
:10471000811121C08091FA029091FB0299270297A2
:10472000D4F48091E800877F8093E8008091FA02BA
:104730008093F3020E9484208091F302811106C0CD
:104740008091E30087FD02C081E001C084E0809396
:10475000F7020E94B91D8091E80083FF0AC0809192
:10476000E800877F8093E8008091EB00806280936F
:10477000EB00AA96E3E00C9440240895CF93809137
:10478000F7028823A1F0C091E900CF709091EC006E
:10479000892F817090FD80E8C82B1092E9008091EC
:1047A000E80083FD0E946822CF70C093E900CF919A
:1047B000089597FB072E16F4009407D077FD09D0D3
:1047C0000E944C2407FC05D03EF4909581959F4FA4
:1047D0000895709561957F4F0895A1E21A2EAA1B46
:1047E000BB1BFD010DC0AA1FBB1FEE1FFF1FA217A1
:1047F000B307E407F50720F0A21BB30BE40BF50B9E
:10480000661F771F881F991F1A9469F76095709526
:10481000809590959B01AC01BD01CF010895EE0FED
:10482000FF1F0590F491E02D09942F923F924F9233
:104830005F926F927F928F929F92AF92BF92CF9230
:10484000DF92EF92FF920F931F93CF93DF93CDB739
:10485000DEB7CA1BDB0B0FB6F894DEBF0FBECDBFB1
:1048600009942A88398848885F846E847D848C8482
:104870009B84AA84B984C884DF80EE80FD800C818B
:104880001B81AA81B981CE0FD11D0FB6F894DEBF6E
:104890000FBECDBFED010895AA1BBB1B51E107C0A0
:1048A000AA1FBB1FA617B70710F0A61BB70B881FC0
:1048B000991F5A95A9F780959095BC01CD0108954F
:1048C000FB01DC0104C08D910190801921F441505D
:1048D0005040C8F7881B990B0895FB01DC0102C00A
:1048E00001900D9241505040D8F70895F999FECFAC
:1048F00092BD81BDF89A992780B50895A8E1B0E0EE
:1049000042E050E00C94BA24DC01A40FB51F4150E2
:10491000504048F0CB01840F951F2E910E949524A2
:1049200041505040D0F70895262FF999FECF92BDFF
:1049300081BDF89A019700B4021639F01FBA20BD64
:104940000FB6F894FA9AF99A0FBE08950396272F96
:104950000E9495240E949424252F0E949524242FA0
:104960000C9495240196272F0E9495240C9494244E
:10497000DC01CB01FC01F999FECF06C0F2BDE1BD1F
:10498000F89A319600B40D9241505040B8F708950E
:04499000F894FFCFC9
:10499400FF003D025D0201AF00280850011E0A1409
:1049A40001411D7D1D761D6F1D681D01E200E9009A
:1049B400EA00B500B600B700CD008301CC008A013F
:1049C40092019401210223022402250226022702D5
:1049D4002A02B300B4006F0070009F01CB019F0254
:1049E400A002818283E200E900EA00B500B600B7C4
:1049F40000CD008301CC008A01920194012102239D
:104A04000224022502260227022A02B300B4006F00
:104A14000070009F01CB019F02A002818283C634F3
:0E4A240035F4F5F6F73133939291909466973E
:00000001FF
