{"payload":{"allShortcutsEnabled":true,"fileTree":{"":{"items":[{"name":"case","path":"case","contentType":"directory"},{"name":"kicad","path":"kicad","contentType":"directory"},{"name":"LICENSE","path":"LICENSE","contentType":"file"},{"name":"README.md","path":"README.md","contentType":"file"},{"name":"isopad_via.hex","path":"isopad_via.hex","contentType":"file"}],"totalCount":5}},"fileTreeProcessingTime":3.3604730000000003,"foldersToFetch":[],"reducedMotionEnabled":"system","repo":{"id":315459908,"defaultBranch":"main","name":"isopad","ownerLogin":"keyboard-magpie","currentUserCanPush":false,"isFork":false,"isEmpty":false,"createdAt":"2020-11-23T22:51:02.000+00:00","ownerAvatar":"https://avatars.githubusercontent.com/u/19674258?v=4","public":true,"private":false,"isOrgOwned":false},"refInfo":{"name":"main","listCacheKey":"v0:1606171864.0","canEdit":true,"refType":"branch","currentOid":"1fe2745561e0abcbc796c54dd7ab0281b418ede1"},"path":"isopad_via.hex","currentUser":{"id":1506991,"login":"teknostatik","userEmail":"andy@teknostatik.org"},"blob":{"rawLines":[":100000000C9470010C94B7010C94B7010C94B701D7\r",":100010000C94B7010C94B7010C94B7010C94B70180\r",":100020000C94B7010C94B7010C94F3200C94C721E5\r",":100030000C94AB160C94B7010C94B7010C94B70157\r",":100040000C94B7010C94B7010C94B7010C94B70150\r",":100050000C94B7010C9402170C94B7010C94B701DF\r",":100060000C94B7010C94B7010C94B7010C94B70130\r",":100070000C94B7010C94B7010C94B7010C94B70120\r",":100080000C94B7010C94B7010C94B7010C94B70110\r",":100090000C94B7010C94B7010C94B7010C94B70100\r",":1000A0000C94B7010C94B7010C94B701280001001F\r",":1000B0000100010000000000000000002A2B2800C1\r",":1000C0000000000000000000000000000000002907\r",":1000D000000000002C1E3420212224342627252E47\r",":1000E000362D3738271E1F2021222324252633337F\r",":1000F000362E37381F0405060708090A0B0C0D0EAB\r",":100100000F101112131415161718191A1B1C1D2F76\r",":100110003130232D350405060708090A0B0C0D0E96\r",":100120000F101112131415161718191A1B1C1D2F56\r",":100130003130354C000000000000000000000000DD\r",":1001400000000000000000007E0F00D4FFFFFFC78A\r",":10015000000000780403300000000E036900730003\r",":100160006F00700061006400000020036B006500F8\r",":10017000790062006F006100720064005F006D0032\r",":100180006100670070006900650000000403090455\r",":1001900009025B00030100A0FA0904000001030149\r",":1001A0000100092111010001224000070581030817\r",":1001B000000A0904010002030000000921110100E6\r",":1001C0000122220007058203200001070503032006\r",":1001D00000010904020001030000000921110100CF\r",":1001E000012281000705840320000A12011001008A\r",":1001F00000000803A112000100010203010660FFD4\r",":100200000961A1010962150026FF0095207508818A\r",":10021000020963150026FF00952075089102C005AC\r",":10022000010902A10185020901A10005091901299D\r",":10023000051500250195057501810295017503815C\r",":10024000010501093009311581257F950275088165\r",":100250000609381581257F950175088106050C0A68\r",":1002600038021581257F950175088106C0C00501FA\r",":100270000980A101850319012AB700150126B700DD\r",":10028000950175108100C0050C0901A101850419B3\r",":10029000012AA002150126A002950175108100C057\r",":1002A00005010906A101050719E029E71500250147\r",":1002B00095087501810295017508810105071900EE\r",":1002C00029FF150026FF009506750881000508190D\r",":1002D000012905950575019102950175039101C0EC\r",":1002E00011241FBECFEFDAE0DEBFCDBF04B603FEA0\r",":1002F00027C08091240290912502A0912602B091FE\r",":1003000027028730904BA740B04BD1F410922402C3\r",":1003100010922502109226021092270214BE84B772\r",":10032000877F84BF0FB6F894A8958091600088619C\r",":1003300080936000109260000FBEE0E0F8E3099542\r",":1003400011E0A0E0B1E0EAE5F8E402C005900D920A\r",":10035000A039B107D9F722E0A0E9B1E001C01D92B0\r",":10036000A432B207E1F70E94A91D0C94F0230C946B\r",":10037000000081E0089581E008950C94BB01089588\r",":100380000C94BF011F93CF93DF9300D000D00F9246\r",":10039000CDB7DEB749835A836B8330919F01898142\r",":1003A0009A8131111DC06623B9F02223A9F00E9461\r",":1003B0001B14182F682F89819A810E94CC136981A0\r",":1003C0007A81812F0F900F900F900F900F90DF91F7\r",":1003D000CF911F910C94E4070E94F613182FEFCFD2\r",":1003E0000E941B1469817A81EDCFFC01262F408188\r",":1003F00051816281738184810C94C201CF93DF9318\r",":10040000EC0160E00E94F501BE01DF91CF910C94F8\r",":10041000C001FF920F931F93CF93DF93E82FF0E07B\r",":10042000EC54FF4FF490C82FC695C695C695D0E002\r",":10043000FE01EC5BFE4F0491877010E0082E02C0B5\r",":10044000159507950A94E2F701701127CC5CDE4FF1\r",":10045000FE01C491D0E002C0D595C7958A95E2F718\r",":10046000C170DD270115110519F081EE0E94BA0B4C\r",":10047000209719F086EE0E94BA0B8F2D0E94A70CD0\r",":10048000CD2B19F086EE0E94510C012B41F081EE2C\r",":10049000DF91CF911F910F91FF900C94510CDF9140\r",":1004A000CF911F910F91FF900895EF92FF920F93BC\r",":1004B0001F93CF93DF93EC01162F0AE088818823E6\r",":1004C00009F454C0813009F04EC08981813099F41B\r",":1004D0007E0122E0E20EF11C8A810E94A70CE70156\r",":1004E0002196812F815050F3EFE9FFE03197F1F72A\r",":1004F00000C00000F7CF823041F47E0182E0E80EB8\r",":10050000F11C8A810E94BA0BEACF833041F47E014C\r",":10051000E2E0EE0EF11C8A810E94510CE0CF8430A3\r",":1005200011F02196DDCF2A81229690E080E0AE0185\r",":100530004F5F5F4F2053330B2A30310548F001974E\r",":1005400078F2EFE9FFE03197F1F700C00000F7CF54\r",":10055000089FB001099F700D1124C901860F971FD4\r",":100560002981EA01E4CF0E940902BACFDF91CF913D\r",":100570001F910F91FF90EF90089560E00C94550249\r",":100580008F929F92AF92BF92CF92DF92EF92FF92A3\r",":100590000F931F936B017C0181E090E0A0E0B0E03D\r",":1005A0004C015D0104C0880C991CAA1CBB1C4A9517\r",":1005B000D2F7B501A4014C015D0104C0880C991C5F\r",":1005C000AA1CBB1C2A95D2F7482959296A297B29DC\r",":1005D00004C0880F991FAA1FBB1F0A95D2F78A0172\r",":1005E0009B010C211D212E213F21041715072607F1\r",":1005F000370789F48C299D29AE29BF29BC01CD017B\r",":100600001F910F91FF90EF90DF90CF90BF90AF9030\r",":100610009F908F90089580959095A095B0958C218E\r",":100620009D21AE21BF21EACF0F93382F262F609155\r",":10063000DD017091DE018091DF019091E001042FD6\r",":10064000432F0E94C0020F910C940A130E94391785\r",":100650000E946515811102C00E9402160C948F053C\r",":100660000C94920508950C94320381E008950C9443\r",":100670003503CF93C82F0E9433038C2FCF910C9456\r",":10068000370308950E94360F0E9441032FEF84E341\r",":100690009CE0215080409040E1F700C000000C94A5\r",":1006A00026170F931F93CF93DF93EC0161E00E9415\r",":1006B000F5018C01BE010E945506882359F1BE0147\r",":1006C000C8010E94BD01882329F1BE01C8010E9412\r",":1006D00018098823F9F0BE01C8010E94590988232E\r",":1006E000C9F0BE01C8010E947C0A882399F08A8162\r",":1006F000882339F001158CE5180751F00E3D1C4593\r",":1007000079F0CE01DF91CF911F910F910C94B90137\r",":100710000E94420380E0DF91CF911F910F910895D5\r",":100720000E940216F7CF90E080E008950895FC0142\r",":10073000EE0FFF1FEC5AFE4F859194910895CF93D1\r",":10074000DF930E94E4070E94B404EC01811520E5C8\r",":10075000920708F042C0811530E4930708F0BDC04D\r",":10076000883E910528F5803E910508F09DC0883AA5\r",":10077000910588F4853A910508F08FC08130910584\r",":1007800009F492C0009709F48FC0049708F08CC058\r",":10079000D0E0C0E089C08F3B910508F489C0805C3F\r",":1007A0009109C03CD105A0F30E949703EC017CC0E5\r",":1007B0008115904250F4C11581E0D80708F074C04B\r",":1007C000C03FD10528F3D0656FC0C11590E3D907AC\r",":1007D00008F079C0CE019F70E7CF811525E592071B\r",":1007E00058F5811534E5930708F0A6C0811542E558\r",":1007F000940750F4C11581E5D80708F471C0DC2FC7\r",":10080000CC27C16FD06A50C0982F969596959E01BF\r",":1008100023703327C115D34508F07FC0C1E0D0E075\r",":1008200002C0CC0FDD1F2A95E2F720E2929FC001A3\r",":100830001124C82BD92B6FC0C11589E5D807A8F49E\r",":10084000C11598E5D90708F07CC0C11526E5D20787\r",":1008500008F09ECF8C2F0E944B05C82FD0E0DC2FD4\r",":10086000CC27CC27DF71D0621FC0C1153AE5D30772\r",":1008700008F46CC0CE0190568115904208F088CFE4\r",":100880008D2F8F710E944B0590E0982F8827882725\r",":100890009F719C012C2BE901E6CFC55AD0E0CD5BBE\r",":1008A000DE4FC881D0E0D064CE01DF91CF910895B2\r",":1008B000C85AD0E0CC0FDD1FCB5EDE4F0990D88147\r",":1008C000C02DD464F1CFCE019927D3FF03C0EC0132\r",":1008D000D86CEACFEC01D06CE7CFDF70D06AE4CF00\r",":1008E000CE01E4E096958795EA95E1F783702C2F89\r",":1008F00026952695237090E2299F90011124382B8C\r",":100900008C2F8370C1E0D0E002C0CC0FDD1F8A9530\r",":10091000E2F7C22BD32BDC68C7CFC1E0D0E002C026\r",":10092000CC0FDD1F2A95E2F730E2939FC00111241E\r",":10093000C82BD92BDA68B8CFD82FCC27C46FD06A90\r",":10094000B3CFDC2FCC27C06FD06AAECF8C2F8F7087\r",":100950000E944B0534E0D695C7953A95E1F7CF70E4\r",":100960009C2FEC01D069A0CF82389105B1F1B0F491\r",":100970008133910509F475C048F48932910509F471\r",":1009800069C08A32910509F473C0089585339105D1\r",":1009900009F459C08933910501F10895833E910509\r",":1009A000A9F138F4803E9105F9F0823E910549F1B4\r",":1009B0000895863E9105A9F1873E9105C9F1843ECF\r",":1009C000910519F52091160221FF1FC08091150293\r",":1009D00084FD14C087EE90E00895209115022370E5\r",":1009E000A1F080EE90E008952091150220FD47C00F\r",":1009F0003091160230FF09C024FF44C090E080E02F\r",":100A000004C02091150222FDF7CF08952091150210\r",":100A100022FD3BC03091160230FDE3CF24FFF5CF1D\r",":100A2000EDCF2091150223FFF0CF24FDE7CFD2CFE9\r",":100A30002091150223FD2CC03091160231FFEECF1C\r",":100A400084EE90E008952091150225FFDECF89E223\r",":100A500090E008952091150225FFD7CF85E390E01F\r",":100A600008952091150226FFD0CF8AE290E00895E4\r",":100A70002091150226FFC9CF81E390E0089589E314\r",":100A800090E0089583EE90E0089582EE90E008955E\r",":100A900086EE90E008959091150292FF06C0282FEF\r",":100AA00028712830F9F4877F846093FF06C0282FCF\r",":100AB00028712831F1F4877E84612091160220FF8D\r",":100AC00006C0382F38713830D9F4877F816021FF14\r",":100AD00006C0282F28712831D1F4877E816194FDCA\r",":100AE000877E0895282F24712430F9F68B7F886043\r",":100AF000DCCF282F2471243101F78B7E8861DDCF74\r",":100B0000382F3171313019F78E7F8860E0CF282F70\r",":100B10002171213121F78E7E8861E1CF08950C94F7\r",":100B20008E0508950C949105E82FF0E0E05FFD4FED\r",":100B300080810895089584988C9A10920F021092E3\r",":100B4000100281E00E94C7050C942603CF938FB159\r",":100B500090E024E0959587952A95E1F7809590950A\r",":100B60008170992720910F02C0E0281719F0809317\r",":100B70000F02C1E02C2F41E060E172E08FE092E0D3\r",":100B80000E94C8050E9430038C2FCF9108950895CC\r",":100B9000FF920F931F93CF93DF93F82E092F162FF9\r",":100BA000D72FC42F222349F081E0809392010E9425\r",":100BB000DB1690939101809390018091920188239C\r",":100BC000A1F080919001909191010E94F3160697F7\r",":100BD00060F0EF2DF02FA12FBD2FCE0FDF2FD11DF5\r",":100BE000EC17FD0741F410929201DF91CF911F9114\r",":100BF0000F91FF90089581918D93F2CF82E290E062\r",":100C00000E94AE23803289F483E290E00E94AE23FA\r",":100C1000823159F484E290E00E94AE2391E089325F\r",":100C200009F090E0892F8170089580E0FCCFCF9388\r",":100C3000C82F6FEF811160E282E290E00E94BC2336\r",":100C40006FEFC11162E183E290E00E94BC236FEF7D\r",":100C5000C11169E284E290E0CF910C94BC2380E062\r",":100C60000E9417060C945F15089585E290E00E949B\r",":100C7000AE23682F70E090E080E0089585E290E078\r",":100C80000C94BC230E9434060E94FE0581110CC006\r",":100C900060E070E0CB010E943E060E947F070E9448\r",":100CA000440881E00C9417060895CF93FB01C2819C\r",":100CB000CC2309F19C0122513F452031310520F51B\r",":100CC00082510E945408C0E08C2FCF91089581E09A\r",":100CD0000E94301343E062E081E00E941403F3CFEE\r",":100CE00081E00E94511343E062E081E00E9414031E\r",":100CF000EBCF82E0F6CF8031FFE59F0789F38131AA\r",":100D00009F45B9F3C1E0E0CF8031EFE59E07F9F2EE\r",":100D100081319F45C9F682E0DBCF2FEFFC012083B4\r",":100D200008951F93CF93DF93EC01162FE881E150D4\r",":100D3000E33108F050C0F0E0EE50FC4D0C948D23F0\r",":100D4000198289E08A830FC08981823099F08330CB\r",":100D5000A1F08130B1F40E94E7160E9493236A83C8\r",":100D60007B838C839D83612FCE01DF91CF911F9177\r",":100D70000C949D1C0E943506F0CF80E00E949405E3\r",":100D8000E1CF612FCE010E948D06EDCF89818230A7\r",":100D9000C1F76A817B818C819D810E9493230E948F\r",":100DA0003E06E1CF4B816A8189810E9451079827D5\r",":100DB000892798279D838C83D6CF2C813D8132272C\r",":100DC000232732274B816A8189810E946A07CBCF12\r",":100DD0000E947F07C8CF8FEF8883C5CF0E94EF079F\r",":100DE0008983C1CF0E94F1079827892798279A8382\r",":100DF0008983B9CF6B8170E089819A81AE014C5FA4\r",":100E00005F4F9827892798270E94F407ACCF6B8102\r",":100E100070E089819A81AE014C5F5F4F98278927E6\r",":100E200098270E941A089FCF0E9444089CCF0E94D6\r",":100E30004507D6CF6B8170E089819A81AE014C5F06\r",":100E40005F4F9827892798270E9496078CCF6B8140\r",":100E500070E089819A81AE014C5F5F4F98278927A6\r",":100E600098270E94BB077FCF0E942F067CCF0E944D\r",":100E70009D1C2FEF81EE94E0215080409040E1F7DF\r",":100E800000C000000E9426176ECF84E00895640F12\r",":100E90007727771F860F972F911D880F991F8696AA\r",":100EA00008950F931F93CF93DF930E9447078C0100\r",":100EB0000E94AE23C82FD0E0DC2FCC27C8010196BA\r",":100EC0000E94AE239E01282BC901DF91CF911F9173\r",":100ED0000F9108950F931F93CF93DF93122F032F3A\r",":100EE0000E944707EC01602F0E94BC23612FCE01B6\r",":100EF0000196DF91CF911F910F910C94BC230F931A\r",":100F00001F93CF930CEA10E0C0E0F80125913491D3\r",":100F100040E060E08C2F0E946A070E5F1F4FCF5F9A\r",":100F2000C43099F7CF911F910F910895EF92FF92DE\r",":100F30000F931F93CF93DF93EC018A017C01E60EA0\r",":100F4000F71ECE018696CE15DF0539F4DF91CF91DD\r",":100F50001F910F91FF90EF900895C830D10540F494\r",":100F60000E94AE23F80180830F5F1F4F2196E9CFC7\r",":100F7000F8011082F9CFCF92DF92EF92FF920F9398\r",":100F80001F93CF93DF937C016A018C01060F171F1B\r",":100F9000EC01CE018696C017D10749F4DF91CF91BD\r",":100FA0001F910F91FF90EF90DF90CF900895C83080\r",":100FB000D10540F4FE01EE19FF09EC0DFD1D608125\r",":100FC0000E94BC232196E5CF843030F4762B21F4A7\r",":100FD00040E060E00C94510790E080E0089580E1EB\r",":100FE000089582ED93E00895EF92FF920F931F937F\r",":100FF000CF93DF93EC018A017C01E60EF71ECE0150\r",":101000008E96CE15DF0539F4DF91CF911F910F91A8\r",":10101000FF90EF900895C23D23E0D20740F40E9474\r",":10102000AE23F80180830F5F1F4F2196E8CFF801B0\r",":101030001082F9CFCF92DF92EF92FF920F931F931E\r",":10104000CF93DF937C016A018C01060F171FEC011F\r",":10105000CE018E96C017D10749F4DF91CF911F9131\r",":101060000F91FF90EF90DF90CF900895C23D23E065\r",":10107000D20740F4FE01EE19FF09EC0DFD1D608161\r",":101080000E94BC232196E4CFCF93DF93CEE2D0E041\r",":1010900060E0CE010E94BC232196C11584E0D807F0\r",":1010A000B9F7DF91CF910895DF92EF92FF920F93FE\r",":1010B0001F93CF93DF9300D000D0CDB7DEB7F82ECB\r",":1010C0008FE08F1540F08FEF93E00E94AE230EE289\r",":1010D00010E08823C1F00F900F900F900F90DF91D8\r",":1010E000CF911F910F91FF90EF90DF900895011520\r",":1010F00084E0180781F3C8010E94AE23811101C06A\r",":10110000FA940F5F1F4FF110F2CF19821A821B82DF\r",":101110001C82DD24D39478018FEFE81AF80AC80105\r",":101120000E94AE2389831A828823A9F29FEF980F29\r",":10113000933078F48A83D9820E5F1F4FC7010E94D3\r",":10114000AE238B83882339F2CE0101960E94BD0223\r",":10115000E2CF8701F9CF0F931F93CF93DF93C62F71\r",":10116000D42F022FFC0182818823C9F0609395015E\r",":101170000E94DB16909394018093930180E28C0F80\r",":10118000883008F050C0C77081E001C0880FCA9550\r",":10119000EAF7DF91CF911F910F910C94BA0C109147\r",":1011A0009501161335C080919301909194010E948E\r",":1011B000F316883C910560F5C0E2CD0F1D17B9F01C\r",":1011C00080E2810F883040F4177081E001C0880F01\r",":1011D0001A95EAF70E94C10CC83048F481E09D2FAF\r",":1011E000977001C0880F9A95EAF70E94BA0C802F79\r",":1011F0000E94A70CC830B8F4D77081E001C0880FF6\r",":10120000DA95EAF7DF91CF911F910F910C94C10C01\r",":1012100080E28C0F883038F4C77081E001C0880FFD\r",":10122000CA95EAF7EFCFDF91CF911F910F91089503\r",":101230009C01CB01233F4CE5340731F190F4283D6C\r",":10124000FCE53F07E9F0293D4CE5340769F1273D0E\r",":101250003C4579F426E241EE61EE0E94AB0880E065\r",":101260000895253FFCE53F07B9F090F0263F3C4547\r",":10127000B9F0FC0182818823D1F010929501089584\r",":1012800027E245EE65EEE9CF26E241EE60EEE5CFDE\r",":1012900027E245EE64EEE1CF26E241EE62EEDDCFDD\r",":1012A00027E245EE66EED9CF28E241E0EBCF81E0C0\r",":1012B0000895CF93DF93EC01FB018281882309F429\r",":1012C00019C1C230FCE5DF07C0F1C6319CE5D90782\r",":1012D00030F09E012A5F3C452930310570F50E94AF\r",":1012E00078159093160280931502C031ECE5DE0765\r",":1012F00009F4CFC008F05BC0C8308CE5D80709F40A\r",":10130000B6C088F5C430ECE5DE0709F4A8C0C0F427\r",":10131000C2308CE5D80709F49CC080911502826028\r",":10132000C330DC4509F498C08091150290911602F3\r",":101330000E9486150E94360F80E0DF91CF910895BC\r",":10134000809115028061C630ECE5DE0709F484C0A7\r",":10135000809115028860C730DC4508F47DC080911B\r",":101360001502806279C0CC308CE5D80709F489C0B9\r",":1013700070F4809115028C60CA30ECE5DE0709F448\r",":101380006BC008F478C0809115028E7F65C0CE30A6\r",":101390008CE5D80709F479C0809115028B7FCF3096\r",":1013A000DC4508F459C0809115028F7E55C0CB3FB3\r",":1013B000ECE5DE0709F457C030F5C3318CE5D807FA\r",":1013C00009F46FC078F4C131ECE5DE0709F465C0BB\r",":1013D000C231DC4509F0A8CF0E94360F809115027A\r",":1013E0008F773AC0C5318CE5D80709F462C008F49C\r",":1013F00076C0809116028160CA3FDC4509F094CF27\r",":101400008093160291CFCF3FFCE5DF0709F44DC072\r",":1014100088F4809116028D7FCD3F9CE5D90781F33A\r",":10142000809116028E7FCE3FDC4550F380911602EC\r",":101430008360E6CFC130FDE5DF0709F459C008F449\r",":1014400044C080E0C230DD4509F06ECF0E94041632\r",":101450006BCF8091150281608093150265CF8091DA\r",":1014600015028460F9CF809116028260C9CF809105\r",":1014700015028064F1CF0E94360F809115028068BA\r",":10148000EBCF809115028D7FE7CF80911502877F8A\r",":10149000E3CF809115028F7DDFCF809115028F7B86\r",":1014A000DBCF80911502837FD7CF809116028C7F8E\r",":1014B000A7CF8091150282FB992790F921E092270E\r",":1014C00090FB82F990FB83F9C7CF80911602982F89\r",":1014D000909591708E7F892B90FB81F991CF0E941E\r",":1014E000360F90911502892F97FB87F98058B4CF5A\r",":1014F00081E0ACCF81E021CFCF93DF93EB01863148\r",":101500009C4511F50E94B0149A81992399F08A7A2A\r",":1015100091E009F490E090939601811109C089E26D\r",":101520000E948B140E94FC1480E0DF91CF910895FB\r",":1015300085E3F6CF80919601811104C089E20E9473\r",":101540009214F0CF85E3FBCF81E0EFCF90939C0125\r",":1015500080939B010895E0919B01F0919C0130974D\r",":1015600021F00190F081E02D099480E00895E09150\r",":101570009B01F0919C01309721F00280F381E02DD6\r",":1015800009940895E0919B01F0919C01309739F006\r",":1015900022E0DC012C930480F581E02D099408956C\r",":1015A0002091990130919A012817390771F0909391\r",":1015B0009A0180939901E0919B01F0919C013097F1\r",":1015C00021F00680F781E02D09940895209197017C\r",":1015D000309198012817390771F090939801809302\r",":1015E0009701E0919B01F0919C01309721F00084DC\r",":1015F000F185E02D0994089585B7806885BF85B78A\r",":10160000806885BF0895089508950C94030B08958C\r",":101610000C94070B0E94FC0A0E94040B0C94050B0F\r",":1016200081E008950C94100B0E94D2160E949B0535\r",":101630000E9442060E944D170C94080B0F931F93B3\r",":10164000CF93DF93CDB7DEB72A970FB6F894DEBFFE\r",":101650000FBECDBF0E94A6050E94120B882309F47D\r",":101660003EC080E00E949405182F00919E0108174B\r",":10167000B1F18091F20181FD0E949A05012700FFDE\r",":101680002EC01E821F82117018870E94DB16816097\r",":10169000782F9A8789874E815F8168858A850E9425\r",":1016A0008B0B80919E0191E0892780939E010E947F\r",":1016B000DA180E94AB0A90919D01891709F10E94E6\r",":1016C000AB0A80939D012A960FB6F894DEBF0FBE39\r",":1016D000CDBFDF91CF911F910F910C9439038FEF04\r",":1016E00089838A831B820E94DB168160782F9D8309\r",":1016F0008C8349815A816B818D810E948B0BD7CF5E\r",":101700002A960FB6F894DEBF0FBECDBFDF91CF9102\r",":101710001F910F910895CF93DF93CDB7DEB72B972D\r",":101720000FB6F894DEBF0FBECDBF4F8358876987D1\r",":101730007A878B871E821D8285E0FE013796DE0147\r",":10174000119601900D928A95E1F749815A816B813A\r",":101750007C818D819E812B960FB6F894DEBF0FBEE3\r",":10176000CDBFDF91CF910C94AC11FC0180819181B0\r",":101770000C945D14CF93C82F882309F490C082384D\r",":10178000C1F40E94AB0A81FD8AC089E30E948B14D8\r",":101790000E94FC142FEF81EE94E021508040904095\r",":1017A000E1F700C0000089E30E949214CF910C94ED\r",":1017B000FC148338A1F40E94AB0A80FD70C083E55D\r",":1017C0000E948B140E94FC142FEF81EE94E02150B4\r",":1017D00080409040E1F700C0000083E5E5CF843809\r",":1017E000A1F40E94AB0A82FD5AC087E40E948B14C8\r",":1017F0000E94FC142FEF81EE94E021508040904035\r",":10180000E1F700C0000087E4CFCF8CEF8C0F813A66\r",":10181000B8F48C2F0E946B1B811141C06C2F8091FA\r",":101820000001909101010E941B16882329F08C2F42\r",":101830000E9492140E94FC148C2F0E948B14B6CF2D\r",":1018400080E28C0F883048F4C77081E001C0880FB7\r",":10185000CA95EAF70E94B314A9CFEBE5EC0FE33089\r",":1018600040F4F0E0EC58FE4F808190E0CF910C9472\r",":10187000D00AE8E5EC0FE73150F4F0E0EE0FFF1F7F\r",":10188000EA5BFE4F80819181CF910C94E60AC03FC4\r",":1018900030F08C2F0E94E817CF910C94CF18CF9185\r",":1018A0000895882309F452C0823871F40E94AB0A6B\r",":1018B00081FF4CC089E30E948B140E94FC1489E3D1\r",":1018C0000E9492140C94FC14833859F40E94AB0AC1\r",":1018D00080FF3CC083E50E948B140E94FC1483E5CA\r",":1018E000EFCF843859F40E94AB0A82FF2FC087E4FF\r",":1018F0000E948B140E94FC1487E4E2CF9CEF980FA7\r",":10190000913AF0F290E2980F983050F4877091E09D\r",":1019100001C0990F8A95EAF7892F0E94B914D2CF96\r",":101920009BE5980F933020F490E080E00C94D00A6F\r",":1019300098E5980F973120F490E080E00C94E60A47\r",":10194000803F20F00E9450180C94CF180895CF9338\r",":10195000C82F0E94BA0BC93349F42FEF87EE93E0EA\r",":10196000215080409040E1F700C000008C2FCF91C3\r",":101970000C94510C882321F00E94B3140C94FC1495\r",":101980000895882321F00E94B9140C94FC14089542\r",":10199000BF92CF92DF92EF92FF920F931F93CF935C\r",":1019A000DF936C01D62FC72FFC01058102950F70C4\r",":1019B000128111110E94D0140E94A914E82E8823CC\r",":1019C00091F01123D1F08C2F807F803421F080E2C0\r",":1019D0008D0F883090F082E00E9447150E94A91474\r",":1019E00091E0E82EE926BC2EB2949FE0B922EB2DBF\r",":1019F000F0E0EB5FFB4D0C948D23E12CF4CF0C2F2A\r",":101A00000F70C07F11F00295007F1123A9F0002311\r",":101A100059F080E28D0F883010F0D11109C0802F6D\r",":101A20000E94B3140E94FC148D2F0E94BA0B14C0A4\r",":101A3000802F0E94C314F6CF8D2F0E94510C0023DB\r",":101A400059F080E28D0F883010F0D1112CC0802F1A\r",":101A50000E94B9140E94FC142B2D2850330B243003\r",":101A6000310520F40E94AB0A0E943903EE2009F4EC\r",":101A70009EC10E94A51480FD9AC1F60112820E94A7\r",":101A80009F140E943013C6010E94F80E0E949F14FA\r",":101A9000DF91CF911F910F91FF90EF90DF90CF904A\r",":101AA000BF900C945113802F0E94C914D3CFFC2FE8\r",":101AB000FF70FF2EC07FC03219F0F29480EFF82241\r",":101AC000DD2369F0D13049F1112391F1002351F167\r",":101AD000F601858180FFA8CF8F70858323C01123F5\r",":101AE00081F0011106C00E94E3148F290E94BA0CF4\r",":101AF000B3CF0130C1F70E94E3148F290E94E9148B\r",":101B0000ABCF011106C00E94F2148F2D0E94C10CB0\r",":101B1000A3CF013009F4A0CFF6CF112329F006306E\r",":101B200008F09ACF8F2DE2CF053008F095CFEDCF9A\r",":101B3000002359F3D93349F4FFEF27EE33E0F15096\r",":101B400020403040E1F700C000008D2F0E94510C72\r",":101B500083CF8C2F86958695837069F0813009F04C\r",":101B60007BCF8D2F9C2F9370111102C090E080E0ED\r",":101B70000E94E60A71CF8D2F9C2F9370111102C025\r",":101B800090E080E00E94D00A67CF8D2F112329F0CA\r",":101B90000E94E8170E94CF185FCF0E945018FACF1A\r",":101BA0008C2F837009F041C0111156CF4D2F4295F3\r",":101BB00046954770440F440F0D2F0F7010E030E032\r",":101BC00020E0042E04C0000F111F221F331F0A94AF\r",":101BD000D2F760E070E0CB01D4FF0FC06FE070E09F\r",":101BE00080E090E004C0660F771F881F991F4A9518\r",":101BF000D2F76095709580959095C695C695C370FF\r",":101C0000602B712B822B932BC23049F058F4C130DA\r",":101C100019F00E94E21220CF0E94D0121DCF0E9424\r",":101C2000F4121ACF0E94CE1217CF8695112311F00D\r",":101C30008C2F8170882309F40FCF4D2F4295469544\r",":101C40004770440F440F0D2F0F7010E030E020E07C\r",":101C5000042E04C0000F111F221F331F0A94D2F755\r",":101C600060E070E0CB01D4FF0FC06FE070E080E077\r",":101C700090E004C0660F771F881F991F4A95D2F71E\r",":101C80006095709580959095C695C695C370602BAC\r",":101C9000712B822B932BC23049F058F4C13019F0CC\r",":101CA0000E94A713D9CE0E949513D6CE0E94B913D5\r",":101CB000D3CE0E940A13D0CECF70112329F08C2FDF\r",":101CC0000E9430138D2F12CF8D2F0E94C10C8C2FAC\r",":101CD0000E945113C1CED23F89F160F4D03FC9F0C8\r",":101CE000D13F29F1112309F442C001119DCE8C2F5F\r",":101CF0008F7121C0D33F39F1D43FA1F7112369F18E\r",":101D0000CF718C2F0E94301363E08C2F0E9432150C\r",":101D1000A3CE112341F0053008F09ECE8C2F8F7199\r",":101D20000E94741399CE063008F096CEF7CF8C2F10\r",":101D30008F71112369F20E9430138ECE8C2F8F7118\r",":101D40001123C9F3C5CF112329F08C2F8F710E9465\r",":101D50001B1382CE0E9416137FCE81E00E9447158E\r",":101D6000023008F479CE82E00E94471575CE002338\r",":101D700059F0D93309F0E9CE8FEF97EEE3E08150C7\r",":101D80009040E040E1F7DFCE8C2F8F71A1CF4C2F38\r",":101D90004F706D2FC6010E9493030E9446125CCEC5\r",":101DA0004C2F4F706D2FC6010E94960355CEDF91C8\r",":101DB000CF911F910F91FF90EF90DF90CF90BF9048\r",":101DC00008950F931F93CF93DF93EC01688179817E\r",":101DD0008A810E9467148C010E94CB130E94CD124D\r",":101DE000B801CE01DF91CF911F910F910C94C80CD7\r",":101DF000CF93DF93EC018B819C81892B29F0888123\r",":101E0000998189238F3F59F4DF91CF910895CE01B5\r",":101E10000E94E10ECE01DF91CF910C94FE01CE0124\r",":101E20000E9451038111F3CF0E94A914882361F30A\r",":101E30008A81882349F382E0DF91CF910C94471582\r",":101E40000E94D0140E94E0140E94FC140E94F41915\r",":101E50000E94CF1890E080E00E94D00A90E080E0DD\r",":101E60000C94E60A0E9499140C94200F0E94C0144E\r",":101E70000C94320FE92FE295EF70E250EE3070F4DF\r",":101E8000F0E0EB5EFB4D0C948D23803F19F020F4C5\r",":101E9000883E20F481E00895843FE1F380E00895D6\r",":101EA000883EC0F3813FD1F7F5CF93FB882780F9B7\r",":101EB00008950E945D140C943A0FCF93DF9300D0E5\r",":101EC00000D00F92CDB7DEB70F900F900F900F900C\r",":101ED0000F90DF91CF910895CF93DF9300D000D082\r",":101EE00000D0CDB7DEB726960FB6F894DEBF0FBE92\r",":101EF000CDBFDF91CF9108951F93CF93DF93C09112\r",":101F0000A00116E08091A1018C1304C0DF91CF9154\r",":101F10001F910895D0E01C9FF0011D9FF00D11242A\r",":101F2000EE55FE4F4081518162817381848195819C\r",":101F30000E946C0F2196C770E5CF4091D20150915D\r",":101F4000D3016091D4017091D5018091D601909117\r",":101F5000D7010C946C0F1F93CF93DF938091D7011F\r",":101F6000807FA9F48091D401882389F08091A00119\r",":101F7000C091A1016091D2017091D301A091D501CE\r",":101F8000B091D601D62FD72316E0C81304C0DF9135\r",":101F9000CF911F91089590E0109711F0DF3F19F451\r",":101FA00001968770F2CF189F9001199F300D112470\r",":101FB000F901EE55FE4F41814713F2CF40814613A0\r",":101FC000EFCF42814111ECCF438154814A1B5B0B1F\r",":101FD000483C510528F78091D7018F70806180932C\r",":101FE000D701F901E955FE4F80818F7080618083B0\r",":101FF00082ED91E00E94F80EDF91CF911F910C9439\r",":102000007C0FAF92BF92CF92DF92EF92FF920F932D\r",":102010001F93CF93DF93CDB7DEB761970FB6F894D8\r",":10202000DEBF0FBECDBF8C0185E0F801DE011D963D\r",":1020300001900D928A95E1F7F80140815181E2808B\r",":1020400082EDC82E81E0D82E6091D5017091D60125\r",":102050006115710509F461C19091D2012091D301FC\r",":10206000892F82238F3F09F458C1A380B480F09058\r",":10207000D401F501E61BF70BFF2009F4FCC08091A9\r",":10208000D701382F307FE83CF10508F0B2C031119C\r",":1020900079C0FE2C251323C0941321C0E1101FC06A\r",":1020A0008F7080618093D7010E949D0FC6010E94AE\r",":1020B000F80E8091D701F80185838F2D61960FB6B8\r",":1020C000F894DEBF0FBECDBFDF91CF911F910F916E\r",":1020D000FF90EF90DF90CF90BF90AF900895AB2826\r",":1020E00029F0842F85238F3F09F033C180E0F82F3A\r",":1020F000F170DF2E80FF3CC08091A0012091A101F2\r",":1021000036E0821315C04D875E878D859E850E94BF\r",":102110005D14292F22952F702230F0F0243018F50D\r",":102120009F70F1F0F8019581907FD1F4D12C1EC001\r",":1021300090E0389FF001399FF00D1124EE55FE4FCD\r",":102140006181651306C06081641303C062816E11F2\r",":102150000FC001968770D5CF9F7011F0882331F39F\r",":10216000805E883018F3C8010E94F80EFD2CA5CFC0\r",":10217000EE2009F4A2CF8091D70181608093D7012E\r",":10218000F12C9BCF251306C0941304C0F801EE2058\r",":1021900009F48DC04D875E878D859E850E94590FFD\r",":1021A000882319F1EE2009F18091D701803270F077\r",":1021B0002091D2013091D30138872F831986BB86B5\r",":1021C000AA868C87CE0107960E94F80E86E0F80159\r",":1021D000A2EDB1E001900D928A95E1F70E94AB0F5C\r",":1021E0000E949D0FFF24F39468CFC8010E94F80E4F\r",":1021F000F9CF311113C07A2DB98AA88A6E2D898939\r",":102200000E945D0F82ED91E00E94F80E86E0F601DB\r",":1022100011928A95E9F70E949D0FB2CF25130FC046\r",":1022200094130DC0E1100BC0F8018583C8010E9412\r",":10223000F80E86E0F60111928A95E9F73ECF4D87B8\r",":102240005E878D859E850E94590F882371F2EE204E\r",":1022500061F28091D701803208F4B8CF2091D20189\r",":102260003091D3013A8329831B82BD82AC828E8355\r",":10227000CE010196A9CFE83CF10508F041C0FE2C43\r",":10228000EE2009F4B2CF25132AC0941328C0809100\r",":10229000D70180FD1BC0982F907FC1F0F801858386\r",":1022A000903F31F0982F907F905F8F70892B8583BE\r",":1022B000C8010E94F80E86E0F801A2EDB1E001909D\r",":1022C0000D928A95E1F70E949D0FF7CE86E0F80106\r",":1022D000A2EDB1E001900D928A95E1F7EECE4D8727\r",":1022E0005E878D859E850E94590F81116FCF8091E9\r",":1022F000D70181608093D701C8010E94F80EDDCE1E\r",":102300007A2DB98AA88A6E2D89890E945D0F86E090\r",":10231000F60111928A95E9F7D6CFEE2009F465CF40\r",":102320004D875E878D859E850E94590FF82E8823E4\r",":1023300009F45BCF86E0F801A2EDB1E001900D92C7\r",":102340008A95E1F782ED91E00E94B50B0E94AB0FF8\r",":10235000BACF81E08E25CBCE1F93CF93DF93CDB73D\r",":10236000DEB72C970FB6F894DEBF0FBECDBF4F83FC\r",":10237000588769877A878B879C87CE0107960E944A\r",":102380000110882369F08A859B85892B39F04F815C\r",":102390005885842F85238F3F09F071C016E05FC0F8\r",":1023A00086E0FE013796DE01119601900D928A9526\r",":1023B000E1F78A859B85892B89F38F81988589230D\r",":1023C0008F3F61F32091A10130E0C9010196877030\r",":1023D00099274091A0014817190671F40E94360F01\r",":1023E0001092A1011092A00186E0E2EDF1E0DF0180\r",":1023F0001D928A95E9F7D2CF96E0929FD001939FE4\r",":10240000B00D1124AE55BE4FFE01319601900D92D4\r",":102410009A95E1F78093A1010E947C0FBFCF819F25\r",":10242000C00111248E559E4F0E9401108823E9F0AF\r",":10243000E091A0011E9FF0011124EE55FE4F408156\r",":10244000518162817381848195810E946C0F80919A\r",":10245000A00190E00196877099278093A001809158\r",":10246000A0019091A1018913DACF2C960FB6F894B0\r",":10247000DEBF0FBECDBFDF91CF911F91089569855B\r",":102480007A858B859C850E946C0F88CFEF92FF9296\r",":102490000F931F93CF93DF938C01892B81F0F12C45\r",":1024A000EE24E394E8012196F8018491843770F4D6\r",":1024B000843008F05FC08130B1F08230A1F1DF914B\r",":1024C000CF911F910F91FF90EF900895853709F4F8\r",":1024D0004CC008F43DC09CE7980F903780F78F7789\r",":1024E0000E94510C49C00E5F1F4FFE01849190E283\r",":1024F000980F983060F48770FE2D01C0FF0F8A9509\r",":10250000EAF78F2F0E94D3140E94FC1402C00E948D\r",":10251000BA0B8F2D815030F2EFE9FFE03197F1F7E0\r",":1025200000C00000F7CF0E5F1F4FFE01849190E2C4\r",":10253000980F983050F48770FE2D01C0FF0F8A95D8\r",":10254000EAF78F2F0E94D914DFCF0E94510CE1CF00\r",":102550000E5F1F4FFE01C491C150D8F28FE99FE07A\r",":102560000197F1F700C00000F7CF0E5F1F4FFE018B\r",":10257000F490CFCF0E94BA0B8E01CBCF08950C946C\r",":10258000BE120E94BF126093E1017093E20180933A\r",":10259000E3019093E4010C94200F08950C94C11270\r",":1025A0000F931F930091E1011091E2012091E3014B\r",":1025B0003091E401602B712B822B932B1F910F9193\r",":1025C0000C94C1120F931F930091E1011091E2014D\r",":1025D0002091E3013091E40160237123822393234E\r",":1025E0001F910F910C94C1120F931F930091E10161\r",":1025F0001091E2012091E3013091E40160277127FD\r",":10260000822793271F910F910C94C1120C94BE1234\r",":102610000C9406130E9408136093DD017093DE0191\r",":102620008093DF019093E0010C94200F60E070E054\r",":10263000CB010C940A130F931F9341E050E060E02C\r",":1026400070E08A019B0104C0000F111F221F331F7D\r",":102650008A95D2F7C901B8011F910F910C940A1302\r",":102660000F931F9341E050E060E070E004C0440F1E\r",":10267000551F661F771F8A95D2F78091DD019091D3\r",":10268000DE01A091DF01B091E0018A019B01082BDE\r",":10269000192B2A2B3B2BC901B8011F910F910C94C8\r",":1026A0000A130F931F9341E050E060E070E004C014\r",":1026B000440F551F661F771F8A95D2F7CB01BA01C9\r",":1026C00060957095809590950091DD011091DE01E7\r",":1026D0002091DF013091E001602371238223932355\r",":1026E0001F910F910C940A130F931F9341E050E038\r",":1026F00060E070E004C0440F551F661F771F8A9585\r",":10270000D2F78091DD019091DE01A091DF01B091BF\r",":10271000E0018A019B01082719272A273B27C901C5\r",":10272000B8011F910F910C940A130F931F930091FE\r",":10273000DD011091DE012091DF013091E001602B7D\r",":10274000712B822B932B1F910F910C940A130F93D3\r",":102750001F930091DD011091DE012091DF01309186\r",":10276000E00160237123822393231F910F910C9426\r",":102770000A130F931F930091DD011091DE01209148\r",":10278000DF013091E00160277127822793271F9195\r",":102790000F910C940A130895980F892F877041E0C8\r",":1027A00001C0440F8A95EAF796959695969585E02F\r",":1027B000989FF0011124E852FE4F30E020E070E0D5\r",":1027C0005191DF011197CB01022E02C0969587959A\r",":1027D0000A94E2F7817081958527842385278C935D\r",":1027E0002F5F3F4F2530310559F70895980F692F16\r",":1027F000677096959695969585E0989FF0011124BF\r",":10280000E852FE4F50E040E080E0219130E0062E9B\r",":1028100002C0369527950A94E2F721703327042EDB\r",":1028200001C0220F0A94EAF7822B4F5F5F4F4530B9\r",":10283000510559F70895BF92CF92DF92EF92FF9220\r",":102840000F931F93CF93DF938C01C090DD01D09045\r",":10285000DE01E090DF01F090E0018091E1019091D4\r",":10286000E201A091E301B091E401C82AD92AEA2A41\r",":10287000FB2ACFE1D0E0BC2ED701C6010C2E04C04C\r",":10288000B695A795979587950A94D2F780FD0EC0C7\r",":10289000219788F7B12C8B2DDF91CF911F910F914C\r",":1028A000FF90EF90DF90CF90BF900895B8018C2FEC\r",":1028B0000E949F03019761F3EECFCF93DF93EC016A\r",":1028C0000E941B14BE01DF91CF910C949F031F93B4\r",":1028D000CF93DF93EB0190919F01992331F0CB01CE\r",":1028E000DF91CF911F910C945D14882379F0CB0177\r",":1028F0000E941B14182F682FCE010E94CC13BE011A\r",":10290000812FDF91CF911F910C949F03CB010E94E7\r",":10291000F613182FF4CF682F8091000190910101D8\r",":102920000C945116682F80910001909101010C9434\r",":10293000531680910001909101010C9455168091DD\r",":10294000E50185958595859508958091E5018770C8\r",":1029500008959091E501977081E009F480E0089571\r",":102960008091F10108959091F101892B8093F101FB\r",":10297000089580959091F10198239093F101089525\r",":102980001092F10108959091F001892B8093F0014C\r",":10299000089580959091F00198239093F001089507\r",":1029A0001092F00108959091EF01892B8093EF012F\r",":1029B000089580959091EF0198239093EF010895E9\r",":1029C0001092EF0108958091E601089508950C9406\r",":1029D000E6149091E601981721F08093E6010C949B\r",":1029E000E71408958091E601882329F01092E6010A\r",":1029F00080E00C94E7140895E0910001F09101014A\r",":102A00008091F1018083E0910001F09101018081CA\r",":102A10009091F001892B8083E0910001F0910101F8\r",":102A200080819091EF01892B80839091E601992319\r",":102A300081F0E0910001F09101018081892B808378\r",":102A400080910001909101010E94091681110E945C\r",":102A5000F21480910001909101010C94B70A08953D\r",":102A60000C942F1598E0899F90011124622B60939C\r",":102A7000E5010E9430138091E50185958595859546\r",":102A80000C9430151092E50180E00C943015909173\r",":102A9000E501809589238093E501282F277071F443\r",":102AA000282F082E000C330B9217130639F085954A\r",":102AB000859585950E9451130C94421508956FEFEA\r",":102AC0007FEF90E080E00C94DA2390E080E00E94B9\r",":102AD000B62321E08C3E9E4F09F020E0822F08951E\r",":102AE00082E090E00C94AE2383E090E00C94AE235F\r",":102AF000CF9384E090E00E94AE23C82F81E290E063\r",":102B00000E94AE23982F8C2FCF910895CF93C92F79\r",":102B1000682F84E090E00E94BC236C2F81E290E05B\r",":102B2000CF910C94BC23AB01BC018FE090E00C94DE\r",":102B3000CE23AB01BC0183E190E00C94CE2360E096\r",":102B400070E0CB010C94991560E070E0CB010E941D\r",":102B500093150C949F156CEE7EEF90E080E00E9440\r",":102B6000DA2360E082E090E00E94BC2360E083E032\r",":102B700090E00E94BC231092E1011092E2011092B9\r",":102B8000E3011092E40160E084E090E00E94BC2345\r",":102B900060E081E290E00E94BC2360E085E090E08C\r",":102BA0000E94BC2360E086E090E00E94BC236FEFAF\r",":102BB00087E090E00E94BC2340E050E0BA0188E04A\r",":102BC00090E00E94CE2360E08DE090E00E94BC2364\r",":102BD00040E050E0BA0188E190E00E94CE2360E03E\r",":102BE00087E190E00E94BC2340E050E0BA018CE114\r",":102BF00090E00E94CE2360E080E290E00E94BC233F\r",":102C00000C94A4150C94AB15682F8EE090E00C94F6\r",":102C1000BC239C012E5F3F4FAC01485F5F4F80E0BB\r",":102C20002417350709F40895F90191919F0199231B\r",":102C3000B9F38F5FF5CF662349F0FC013296089611\r",":102C40002191261729F0E817F907D1F780E00895B8\r",":102C500081E008959C01FC0132969FEF80E0419154\r",":102C6000461751F09F3F19F4411101C0982F8F5F13\r",":102C70008630A9F79F3F09F40895290F311D97FD6C\r",":102C80003A95F90162830895FC01329608962191E4\r",":102C9000261303C0DF0111971C92E817F907B9F753\r",":102CA00008950C942A160C944416029626E0FC0112\r",":102CB00011922A95E9F70895089508950C945D16E8\r",":102CC0000E945E1680911B02843049F11092F3013C\r",":102CD00088E190E020E40FB6F894A8958093600016\r",":102CE0000FBE2093600080E00E9439030E945E16B0\r",":102CF00083B7817F846083BF83B7816083BF78940B\r",":102D0000889583B78E7F83BF0FB6F894A89580917E\r",":102D10006000886180936000109260000FBE08958B\r",":102D200008950E945C160E94A6050E94901680E0FD\r",":102D30000E94940591E0811101C090E0892F0895CF\r",":102D400008950C94A0160E94360F0E94AB0A0E94B0\r",":102D500039030C94A1161F921FB61F9211248F9352\r",":102D60009F93AF93BF938091F301811113C0809122\r",":102D7000110290911202A0911302B0911402419697\r",":102D8000A11DB11D8093110290931202A093130212\r",":102D9000B0931402BF91AF919F918F911F901FBE6E\r",":102DA0001F90189582E084BD93E095BD9AEF97BD82\r",":102DB00080936E0008952FB7F8948091110290913E\r",":102DC0001202A0911302B09114022FBF08952FB7E1\r",":102DD000F894609111027091120280911302909107\r",":102DE00014022FBF08959C014FB7F89480911102EF\r",":102DF00090911202A0911302B09114024FBF821B56\r",":102E0000930B089578941F921FB61F9211248F93ED\r",":102E10009F93AF93BF938091110290911202A09162\r",":102E20001302B09114020196A11DB11D80931102ED\r",":102E300090931202A0931302B0931402BF91AF912A\r",":102E40009F918F911F901FBE1F90189587E797E75E\r",":102E5000909301088093000888E19AE00FB6F894F7\r",":102E6000A895809360000FBE90936000FFCF0C94F4\r",":102E70002F060E94A6058FE39CE90197F1F700C099\r",":102E800000000E94A60580E00E94940580FF04C017\r",":102E90000E9437170C94261708950E94651581111A\r",":102EA00002C00E9402160E9470158093F2010E94D7\r",":102EB000781590931602809315020E947415682F5E\r",":102EC00070E090E080E00C94CE128091FB0180FFD6\r",":102ED00012C06091070185E0689FB00111247595CB\r",":102EE00067957595679560387105A8F56115710549\r",":102EF000A1F1862F089581FF09C06091070185E047\r",":102F0000689FB001112475956795EDCF6091070119\r",":102F100082FD0AC08091FA018823D1F090910601C8\r",":102F200060910701891728F085E0689FB00111249E\r",":102F3000DACF869FB001112485E0869F9001879F9C\r",":102F4000300D1124692F70E0C9010E947923CBCF85\r",":102F500065E070E0CECF8FE7089581E0089580911D\r",":102F6000FB0180FF0CC06091030170E075956795CF\r",":102F7000759567956115710549F1862F089581FF53\r",":102F800006C06091030170E075956795F3CF60917D\r",":102F9000030182FD0BC09091FA019923A1F0609189\r",":102FA000020180910301961738F0682F70E06038B5\r",":102FB000710500F38FE70895899FC001112470E027\r",":102FC0000E947923F4CF61E070E0D7CF81E00895CB\r",":102FD000803F31F40E94651781958093FF01089529\r",":102FE000813F19F40E946517F8CF823F31F40E94A7\r",":102FF000651781958093FE010895833F19F40E941F\r",":103000006517F8CF893F29F40E94AF17809300021B\r",":1030100008958A3F21F40E94AF178195F7CF8B3F27\r",":1030200031F40E94AF1781958093010208958C3F7F\r",":1030300019F40E94AF17F8CF843F31F48091FD015D\r",":1030400081608093FD010895853F21F48091FD0109\r",":103050008260F7CF863F21F48091FD018460F1CF3B\r",":10306000873F21F48091FD018860EBCF883F21F4F8\r",":103070008091FD018061E5CF8D3F31F48091FB01AE\r",":1030800081608093FB0108958E3F21F48091FB01C4\r",":103090008260F7CF8F3FB9F78091FB018460F1CF59\r",":1030A0009091FE01803F41F48091FF0187FD1092D5\r",":1030B000FF01992371F00895813F29F48091FF0168\r",":1030C0001816ACF3F6CF823F81F497FFF2CF10923F\r",":1030D000FE018091FF0190910002892B90910102E5\r",":1030E000892B49F71092FA010895833F19F41916B4\r",":1030F00074F3DFCF893F39F4809100021816CCF6C3\r",":1031000010920002D6CF8A3F29F48091000287FFF7\r",":10311000D0CFF6CF8B3F39F48091010287FFC9CF22\r",":1031200010920102C6CF8C3F29F48091010218163B\r",":10313000BCF3BFCF843F31F48091FD018E7F80933B\r",":10314000FD01B7CF853F21F48091FD018D7FF7CF41\r",":10315000863F21F48091FD018B7FF1CF873F21F4E1\r",":103160008091FD01877FEBCF883F21F48091FD01A5\r",":103170008F7EE5CF8D3F31F48091FB018E7F809370\r",":10318000FB0197CF8E3F21F48091FB018D7FF7CF1C\r",":103190008F3F09F08ECF8091FB018B7FF0CF8CEFBA\r",":1031A00091E00E94C20A0E94DB169093F90180937D\r",":1031B000F8010895CF93DF9300D000D000D0CDB7B1\r",":1031C000DEB786E0ECEFF1E0DE01119601900D92A2\r",":1031D0008A95E1F78091FE019091FF01892B81F0A2\r",":1031E0008091F6019091F7010E94F316AC01909145\r",":1031F000FA01992331F1809108018417150670F1C5\r",":103200008091000290910102892B91F08091F4014C\r",":103210009091F5010E94F316AC019091FA01992367\r",":1032200009F478C0809104018417150608F480C061\r",":1032300026960FB6F894DEBF0FBECDBFDF91CF91BB\r",":103240000895209109018AE0289F900111242417F4\r",":103250003507B0F69F5F9093FA0102C09F3FD1F708\r",":1032600010920002109201028091FE01181624F4BF\r",":103270000E9465178093FE018091FE0187FF05C0C3\r",":103280000E94651781958093FE018091FF011816B9\r",":1032900024F40E9465178093FF018091FF0187FF4E\r",":1032A00005C00E94651781958093FF013091FE0152\r",":1032B0003323A1F02091FF01222381F045EB340359\r",":1032C000C00111249923F1F09093FE0145EB2403F2\r",":1032D000900111243323D1F03093FF010E94CF18C5\r",":1032E0008091F8019091F9019093F7018093F60194\r",":1032F00086E0FE013196ACEFB1E001900D928A9527\r",":10330000E1F77ECF81E08093FE01E0CF81E0809302\r",":10331000FF01E4CF209105018AE0289F900111244C\r",":103320002417350708F084CF9F5F9093FA0102C0FD\r",":103330009F3FD1F71092FE011092FF018091000291\r",":10334000181624F40E94AF178093000280910002A7\r",":1033500087FF05C00E94AF1781958093000280917E\r",":103360000102181624F40E94AF1780930102809185\r",":10337000010287FF05C00E94AF178195809301026B\r",":10338000309100023323A1F020910102222381F029\r",":1033900045EB3403C00111249923F1F0909300020E\r",":1033A00045EB2403900111243323D1F03093010223\r",":1033B0000E94CF188091F8019091F9019093F50146\r",":1033C0008093F40186E0FE013196ACEFB1E001900C\r",":1033D0000D928A95E1F72CCF81E080930002E0CF37\r",":1033E00081E080930102E4CF86E0ECEFF1E0DF01C1\r",":1033F0001D928A95E9F71092FA011092FB01089547\r",":10340000833081F128F4813059F08230D1F0089571\r",":10341000853009F449C0B8F1863009F456C00895E2\r",":1034200080910901482F460F5527551F4F3F5105E1\r",":1034300024F4680F6093090108958FEF80930901C8\r",":10344000089580910801482F460F5527551F4F3F7B\r",":10345000510524F4680F6093080108958FEF80935D\r",":103460000801089580910701482F460F5527551FE1\r",":103470004F3F510524F4680F6093070108958FEFC3\r",":1034800080930701089580910601482F460F552724\r",":10349000551F4F3F510524F4680F609306010895AE\r",":1034A0008FEF80930601089580910301482F460F06\r",":1034B0005527551F4F3F510524F4680F60930301B2\r",":1034C00008958FEF80930301089580910201482FA2\r",":1034D000460F5527551F4F3F510524F4680F609341\r",":1034E000020108958FEF809302010895833011F156\r",":1034F00028F4813049F0823091F00895853081F1CF\r",":1035000020F18630C1F1089580910901681720F4F7\r",":10351000861B8093090108951092090108958091F6\r",":103520000801681720F4861B809308010895109203\r",":103530000801089580910701681720F4861B809385\r",":1035400007010895109207010895809106016817F8\r",":1035500020F4861B809306010895109206010895B9\r",":1035600080910301681720F4861B8093030108955E\r",":1035700010920301089580910201681720F4861BC0\r",":103580008093020108951092020108950F931F93F2\r",":1035900041E050E060E070E08A019B0104C0000F50\r",":1035A000111F221F331F8A95D2F7C901B8010E944B\r",":1035B000CE121F910F910C94360F8B3109F461C01C\r",":1035C00040F58B3071F078F4863009F443C020F474\r",":1035D000853059F180E00895873009F444C088307F\r",":1035E000C9F781E00895803109F459C068F48E303C\r",":1035F00089F79091F201892F8B7F92FF84608093ED\r",":10360000F20182FD48C0EDCF863159F3893149F38B\r",":10361000E1CF8A32E1F060F48732A9F020F48E31F4\r",":10362000C8F28D5111C08932A9F60E944203D9CF48\r",":10363000833438F48A33F0F5853329F0883389F2FE\r",":10364000C9CF833439F680E00E94C61ACACF0E94DF\r",":103650000216C7CF8091F201807F8093F20181E052\r",":103660008093030208959091F201892F8E7F90FF3D\r",":1036700081608093F20180FDB4CF817F8093F2015D\r",":10368000B0CF9091F201892F8D7F91FF826080935E\r",":10369000F20181FFA6CF8091F2018160EFCF90917E\r",":1036A000F201892F877F93FF88608093F20183FD69\r",":1036B000F2CF97CF8953C8CF80E008950C945C1B5C\r",":1036C0008E518A3030F4E82FF0E0E958FE4F8081C7\r",":1036D000089580E00895CF93C82F80910302813030\r",":1036E000B9F0882331F08230A1F11092030280E01A\r",":1036F0000DC00E94B0148232D1F78C2F0E945C1B47\r",":1037000081111BC08C2F0E94DD1A8170CF9108950A\r",":103710000E94B014823289F38C2F0E945E1B8111AB\r",":103720000AC0C43199F060F4CB3029F0C03169F798\r",":1037300082E08093030281E0E8CF81E090E0E5CF72\r",":10374000C93221F0C833B9F380E0DFCF1092030211\r",":10375000FBCFC93219F188F4C43101F120F4C7302C\r",":1037600081F181E0D3CF82EE8C0F8630D0F78C2FA1\r",":103770000E94601B80930202F4CFCE3401F140F42A\r",":103780006AE0CB3471F7809102020E94001AE9CFFF\r",":10379000C13579F061E0C235B1F3E3CF8091020227\r",":1037A000882319F010920202DCCF81E0809303029B\r",":1037B000ADCF61E0809102020E94761AD2CF6AE01A\r",":1037C000F9CF8EE18093090182E3809308018AE0BA\r",":1037D0008093070184E18093060188E080930301D0\r",":1037E00088E280930201BDCF80910C020895CF93AF\r",":1037F000DF9300D00F92CDB7DEB790911B029430CB\r",":1038000011F589837B836A839093E9008FEF909110\r",":10381000E800815095FD06C095ED9A95F1F70000FE\r",":103820008111F5CF8091E80085FF0DC050E040E0A8\r",":1038300063E070E0CE0101960E94991E8091E8003D\r",":103840008E778093E8000F900F900F90DF91CF91CB\r",":103850000895CF93DF93EC010E947C1E823011F01B\r",":10386000843031F4BE0184E0DF91CF910C94F71BDA\r",":10387000DF91CF910895BC0183E00C94F71BCF93A7\r",":10388000DF93EC010E947C1E823011F08430F9F449\r",":1038900084E08093E9008FEF9091E800815095FDDE\r",":1038A00006C095ED9A95F1F700008111F5CF809152\r",":1038B000E80085FF0CC050E040E066E070E0CE011B\r",":1038C0000E94991E8091E8008E778093E800DF9136\r",":1038D000CF910895CF93DF93EC010E947C1E82303C\r",":1038E00011F0843039F581E08093E9008FEF9091F9\r",":1038F000E800815095FD06C095ED9A95F1F700001E\r",":103900008111F5CF8091E80085FF14C050E040E0C0\r",":1039100068E070E0CE010E94991E8091E8008E77E9\r",":103920008093E80088E0FE01A4E0B2E001900D92EF\r",":103930008A95E1F7DF91CF910895CF93FC01603232\r",":1039400021F580911B02843001F5C091E900CF7010\r",":103950002091EC00922F917020FD90E8C92B82E01D\r",":103960008093E9008091E80080FF0CC050E040E0C7\r",":1039700060E270E0CF010E94991E8091E8008E778E\r",":103980008093E800CF70C093E900CF9108958091B3\r",":103990001A02811109C00E9478200E94D5208091CE\r",":1039A000E20084608093E200089510921A02089564\r",":1039B000089508950C94A31642E061EC81E00E9402\r",":1039C000F41F42E261EC84E00E94F41F42E261ECE9\r",":1039D00082E00E94F41F42E260EC83E00C94F41F4A\r",":1039E00080911D02833009F461C030F48130D1F13F\r",":1039F000823009F49DC008958A3009F489C08B3063\r",":103A000009F46FC0893009F050C080911C028132E6\r",":103A100009F04BC08091200290912102009719F08B\r",":103A2000029709F042C08091E800877F8093E80008\r",":103A30008091E80082FF35C09091F3008091F20000\r",":103A4000029729F48091F1008B7F813021F48091DD\r",":103A5000F10080930C028091E8008B778093E8005E\r",":103A60000C94282080911C02813AF9F48091E8009E\r",":103A7000877F8093E8008091200290912102892B1A\r",":103A800061F468E084E092E070E00E94371F80916A\r",":103A9000E8008B778093E800089560E090E080E094\r",":103AA000F3CF80911B028111C3CF089580911C0236\r",":103AB000813AD9F78091200290912102892BA9F7B0\r",":103AC0008091E800877F8093E8008091E80080FF84\r",":103AD000FCCF809114018093F1008091E8008E77F3\r",":103AE000BDCF80911C02813201F78091200290911C\r",":103AF0002102892BD1F68091E800877F8093E8002E\r",":103B00000E94282080911E02809314010C94360F8D\r",":103B100080911C02813249F68091E800877F809372\r",":103B2000E8000E94282080911F0280930D020895D2\r",":103B300080911C02813A09F0B8CF8091E800877F1C\r",":103B40008093E8008091E80080FFFCCF80910D0217\r",":103B5000C2CFCDB7DEB7A0970FB6F894DEBF0FBEC9\r",":103B6000CDBF84B7877F84BF0FB6F894A8958091A6\r",":103B70006000886180936000109260000FBE80E852\r",":103B800090E00FB6F89480936100909361000FBEAF\r",":103B90000E940A0B0E9478200E94D5208091E200AA\r",":103BA00084608093E20078940E945E230E94140B4C\r",":103BB0008AE091E00E94A60A13E080911B02853002\r",":103BC00039F10E941E0B80911B028430B1F71093D3\r",":103BD000E9008091E80082FFF0CF8091E80090E05A\r",":103BE00085FF09C050E040E060E270E0CE01019640\r",":103BF0000E94E81E91E08091E8008B778093E800B6\r",":103C00009923D9F260E2CE0101960E949106D5CFA8\r",":103C10000E94601680911902882379F20E94911601\r",":103C2000882359F20E94831EC8CF0C94171E292F97\r",":103C300033272330310521F168F42130310509F4AF\r",":103C400049C02230310509F44AC090E080E030E0FC\r",":103C500020E029C02132310581F122323105A9F756\r",":103C60006330710590F7FB01EE0FFF1FEC57FE4F1D\r",":103C7000208131816F577E4FFB01808190E013C01E\r",":103C800099278130910599F0009741F08230910594\r",":103C900089F00397D1F6E4E5F1E002C0ECE8F1E049\r",":103CA000849190E09F01FA01318320830895EAE630\r",":103CB000F1E0F6CFEAE5F1E0F3CF6330710528F6E5\r",":103CC000660F771FFB01E657FE4F2081318189E0A7\r",":103CD00090E0E9CF82E190E02BEE31E0E4CF8BE59C\r",":103CE00090E020E931E0DFCF80911B02843011F4B5\r",":103CF00082E0089581E0089580910E02811102C052\r",":103D00000C94741E089580E189BD82E189BD09B4D7\r",":103D100000FEFDCF8091D8008F7D8093D8008091E8\r",":103D2000E00082608093E0008091E00081FDFCCFA4\r",":103D30000895AF92BF92CF92DF92FF920F931F939D\r",":103D4000CF93DF936C01EB018A010E944720F82E8C\r",":103D5000811123C00115110539F0F801808191818D\r",":103D6000C81BD90BC80ED91EB12CA12C2097A9F0C5\r",":103D70008091E80085FD22C08091E8008E778093D5\r",":103D8000E80001151105A1F0F80180819181A80ECC\r",":103D9000B91EB182A08285E0F82E8F2DDF91CF91E0\r",":103DA0001F910F91FF90DF90CF90BF90AF9008953B\r",":103DB0000E9447208823D1F2F82EEFCFF60181919F\r",":103DC0006F018093F1002197FFEFAF1ABF0ACECFAA\r",":103DD000AF92BF92CF92DF92FF920F931F93CF9338\r",":103DE000DF936C01EB018A010E944720F82E8111BC\r",":103DF00023C00115110539F0F80180819181C81B9C\r",":103E0000D90BC80ED91EB12CA12C2097A9F08091F6\r",":103E1000E80085FD22C08091E8008B778093E80060\r",":103E200001151105A1F0F80180819181A80EB91E3C\r",":103E3000B182A08285E0F82E8F2DDF91CF911F9166\r",":103E40000F91FF90DF90CF90BF90AF9008950E94A8\r",":103E500047208823D1F2F82EEFCF8091F100F601B0\r",":103E600081936F012197FFEFAF1ABF0ACECFFC01FC\r",":103E7000809122029091230286179707A0F0611586\r",":103E8000710529F49091E8009E779093E80090E006\r",":103E90006115710551F4911108C08091E80082FF0D\r",":103EA00034C080E00895BC01F2CF80911B028823CA\r",":103EB000C1F18530C1F18091E80083FD30C080916F\r",":103EC000E80082FDEACF8091E80080FFE1CF809199\r",":103ED000F3002091F200382F6115710519F0283098\r",":103EE000310558F091E02830310509F090E020913B\r",":103EF000E8002E772093E800CBCF81918093F100EA\r",":103F0000615071092F5F3F4FE7CF80911B028823DB\r",":103F100041F0853041F08091E80083FFBECF81E021\r",":103F2000089582E0089583E00895FC0180912202C3\r",":103F30009091230286179707A0F06115710529F467\r",":103F40008091E8008E778093E80090E0611571051C\r",":103F500051F4911108C08091E80082FF35C080E0E3\r",":103F60000895BC01F2CF80911B028823C9F18530EE\r",":103F7000C9F18091E80083FD31C08091E80082FDA5\r",":103F8000EACF8091E80080FFE1CF8091F30020919B\r",":103F9000F200382F6115710519F02830310558F0FD\r",":103FA00091E02830310509F090E08091E8008E77AB\r",":103FB0008093E800CBCF84918093F10031966150DB\r",":103FC00071092F5F3F4FE6CF80911B02882341F09C\r",":103FD000853041F08091E80083FFBDCF81E00895F6\r",":103FE00082E0089583E00895982F973028F08F702D\r",":103FF0008093E90081E008959093E900242F762FC3\r",":1040000050E0981731F07091EC002091ED00509144\r",":10401000F00021FD02C09F5FE8CF3091EB003E7FB2\r",":104020003093EB003091ED003D7F3093ED00309107\r",":10403000EB0031603093EB007093EC002093ED00C7\r",":104040005093F0002091EE0027FDE5CF80E0089529\r",":1040500080911C0287FF13C08091E80082FF06C098\r",":104060008091E8008B778093E80004C080911B0268\r",":104070008111F2CF089580911B028823D9F380919A\r",":10408000E80080FFF8CF8091E8008E77ECCF209198\r",":10409000E4003091E50095E6A9012091EC00822F23\r",":1040A000817020FF06C08091E80080FF06C080E09C\r",":1040B00008952091E80022FD1AC080911B028823F8\r",":1040C00089F0853089F08091EB0085FD0FC020914B\r",":1040D000E4003091E50042175307F9F29150E1F600\r",":1040E00084E0089582E0089583E0089581E00895D2\r",":1040F0000E94E6200E94EE20E0EEF0E080818160E8\r",":104100008083E8EDF0E080818F77808319BCA7ED94\r",":10411000B0E08C918E7F8C9380818F7E8083109213\r",":104120001A0208950F931F93CF93DF930E94E62006\r",":104130000E94EE20C8EDD0E088818F778883888147\r",":104140008068888388818F7D888319BC10921B02C8\r",":1041500010921702109219021092180200EE10E04D\r",":10416000F80180818B7F808388818160888342E031\r",":1041700060E080E00E94F41FE1EEF0E080818E7F3D\r",":104180008083E2EEF0E080818160808380818860BE\r",":104190008083F80180818E7F80838881806188831D\r",":1041A000DF91CF911F910F910895E8EDF0E08081AC\r",":1041B0008F7E8083E7EDF0E080818160808384E002\r",":1041C00082BF81E080931A020C949220E8EDF0E027\r",":1041D00080818E7F80831092E20008951092DA0031\r",":1041E0001092E10008951F920F920FB60F921124C2\r",":1041F0002F933F934F935F936F937F938F939F93EF\r",":10420000AF93BF93EF93FF938091E10082FF0BC0C8\r",":104210008091E20082FF07C08091E1008B7F809354\r",":10422000E1000E945D238091DA0080FF19C0809137\r",":10423000D80080FF15C08091DA008E7F8093DA006D\r",":104240008091D90080FF96C080E189BD82E189BD5F\r",":1042500009B400FEFDCF81E080931B020E94C71CC1\r",":104260008091E10080FF19C08091E20080FF15C0BD\r",":104270008091E2008E7F8093E2008091E200806175\r",":104280008093E2008091D80080628093D80019BCAE\r",":1042900085E080931B020E94D91C8091E10084FF7D\r",":1042A0002BC08091E20084FF27C080E189BD82E1BC\r",":1042B00089BD89B5982F917080FFFBCF8091D80080\r",":1042C0008F7D8093D8008091E1008F7E8093E10004\r",":1042D0008091E2008F7E8093E2008091E200816015\r",":1042E0008093E20080911702882309F449C084E09A\r",":1042F00080931B020E94DA1C8091E10083FF29C099\r",":104300008091E20083FF25C08091E100877F809348\r",":10431000E10082E080931B02109217028091E1007D\r",":104320008E7F8093E1008091E2008E7F8093E20097\r",":104330008091E20080618093E20042E060E080E0F2\r",":104340000E94F41F8091F00088608093F0000E942A\r",":10435000D81CFF91EF91BF91AF919F918F917F9169\r",":104360006F915F914F913F912F910F900FBE0F90E2\r",":104370001F90189519BC10921B020E94D51C70CF7B\r",":104380008091E30087FD93E090931B02B3CF1F92CF\r",":104390000F920FB60F9211242F933F934F935F9379\r",":1043A0006F937F938F939F93AF93BF93CF93DF933D\r",":1043B000EF93FF93D091E900DF708091EC00C82F5C\r",":1043C000C17080FDC0E81092E9008091F000877F05\r",":1043D0008093F00078940E940B221092E900809163\r",":1043E000F00088608093F000CD2BCF70C093E9007F\r",":1043F000FF91EF91DF91CF91BF91AF919F918F91FD\r",":104400007F916F915F914F913F912F910F900FBED0\r",":104410000F901F9018951F93CF93DF93CDB7DEB702\r",":10442000AA970FB6F894DEBF0FBECDBF8CE192E025\r",":104430002091F100FC012193CF01F2E084329F072B\r",":10444000B9F70E94F01C8091E80083FF1EC18091A3\r",":104450001C0290911D029A3008F017C1E92FF0E07C\r",":10446000ED5DFB4D0C948D23803899F0823809F076\r",":104470000CC1809120028F70873008F006C18093B4\r",":10448000E9008091EB0085FB882780F91092E90014\r",":1044900006C080911802909119029111826090914A\r",":1044A000E800977F9093E8008093F1001092F1006C\r",":1044B0008091E8008E77E5C0882309F4D3C082306C\r",":1044C00009F0E3C080911E028111D6C080912002C4\r",":1044D0008F702FEF280F263008F0D7C08093E900A7\r",":1044E0002091EB0020FFC8C0933031F48091EB00A5\r",":1044F00080628093EB00C0C09091EB00906190933C\r",":10450000EB0021E030E001C0220F8A95EAF720930A\r",":10451000EA001092EA008091EB008860EACF8111F6\r",":10452000B4C010911E021F778091E3008078812B28\r",":104530008093E3008091E800877F8093E8000E94E9\r",":1045400028208091E80080FFFCCF8091E300806804\r",":104550008093E30082E0111183E080931B0295C0F9\r",":104560008058823008F091C080911E0290911F0205\r",":104570008C3D23E09207A1F583E08A838AE2898358\r",":104580004FB7F894DE01139620E03EE051E2E32FAE\r",":10459000F0E050935700E49120FF03C0E295EF70E4\r",":1045A0003F5FEF708E2F90E0EA30C0F0C7968D939A\r",":1045B0009D932F5F243159F74FBF8091E800877F8B\r",":1045C0008093E8006AE270E0CE0101960E94371FF6\r",":1045D0008091E8008B778093E80057C0C096E7CFC2\r",":1045E0006091200270912102AE014F5F5F4F0E94E7\r",":1045F000151EBC01892B09F448C09091E800977FF3\r",":104600009093E80089819A810E94951FE1CF8038BC\r",":10461000E1F58091E800877F8093E80080911702A0\r",":104620008093F10045CF811130C090911E029230ED\r",":1046300060F58091E800877F8093E80090931702EF\r",":104640000E94282080911702882311F084E005C081\r",":104650008091E30087FDFACF81E080931B020E94E6\r",":10466000DC1C13C080911E02813079F481E093300C\r",":1046700009F080E0809319021092E9008091E8002F\r",":10468000877F8093E8000E9428208091E80083FFC4\r",":104690000AC08091E800877F8093E8008091EB005A\r",":1046A00080628093EB00AA960FB6F894DEBF0FBE2F\r",":1046B000CDBFDF91CF911F9108950895CF93809141\r",":1046C0001B028823A1F0C091E900CF709091EC000B\r",":1046D000892F817090FD80E8C82B1092E9008091AD\r",":1046E000E80083FD0E940B22CF70C093E900CF91B8\r",":1046F000089597FB072E16F4009407D077FD09D094\r",":104700000E949A2307FC05D03EF4909581959F4F17\r",":104710000895709561957F4F0895EE0FFF1F0590E6\r",":10472000F491E02D09946927962769277827872730\r",":1047300078270895AA1BBB1B51E107C0AA1FBB1F06\r",":10474000A617B70710F0A61BB70B881F991F5A951D\r",":10475000A9F780959095BC01CD010895F999FECFF8\r",":1047600092BD81BDF89A992780B50895A8E1B0E07F\r",":1047700042E050E00C94E223262FF999FECF92BD3F\r",":1047800081BDF89A019700B4021639F01FBA20BD16\r",":104790000FB6F894FA9AF99A0FBE08950396272F48\r",":1047A0000E94BD230E94BC23252F0E94BD23242FDD\r",":1047B0000C94BD230196272F0E94BD230C94BC238B\r",":1047C000DC01CB01FC01F999FECF06C0F2BDE1BDD1\r",":1047D000F89A319600B40D9241505040B8F70895C0\r",":1047E000F894FFCFA006A406C606D206DD06E806AA\r",":1047F000EB06EB06EB0634073707EE06F206FA0681\r",":104800000707140717071A072707FF0CFF0C570D98\r",":10481000570DA90DC50D2C0D2C0DD00D5C0E6B0E7A\r",":104820006B0EC70E2C0D2C0DD00E450F450F4E0FE5\r",":104830004E0F500F4E0F4E0F4E0F450F450F550F99\r",":104840004E0F4E0F550F34225C2245235C22452328\r",":0A4850008F22B02245230723132313\r",":10485A00E7012808641E140A321EF41B6A1C3F1C56\r",":10486A003B1C291C01E200E900EA00B500B600B7CA\r",":10487A0000CD008301CC008A019201940121022318\r",":10488A000224022502260227022A02B300B4006F7C\r",":10489A00007000818283E200E900EA00B500B600F8\r",":1048AA00B700CD008301CC008A0192019401210254\r",":1048BA00230224022502260227022A02B300B40098\r",":1048CA006F0070008182830102030405060708094C\r",":1048DA0000402281A002FD011F02A201BB01DB01EF\r",":00000001FF\r"],"stylingDirectives":[[],[],[],[],[],[],[],[],[],[],[],[],[],[],[],[],[],[],[],[],[],[],[],[],[],[],[],[],[],[],[],[],[],[],[],[],[],[],[],[],[],[],[],[],[],[],[],[],[],[],[],[],[],[],[],[],[],[],[],[],[],[],[],[],[],[],[],[],[],[],[],[],[],[],[],[],[],[],[],[],[],[],[],[],[],[],[],[],[],[],[],[],[],[],[],[],[],[],[],[],[],[],[],[],[],[],[],[],[],[],[],[],[],[],[],[],[],[],[],[],[],[],[],[],[],[],[],[],[],[],[],[],[],[],[],[],[],[],[],[],[],[],[],[],[],[],[],[],[],[],[],[],[],[],[],[],[],[],[],[],[],[],[],[],[],[],[],[],[],[],[],[],[],[],[],[],[],[],[],[],[],[],[],[],[],[],[],[],[],[],[],[],[],[],[],[],[],[],[],[],[],[],[],[],[],[],[],[],[],[],[],[],[],[],[],[],[],[],[],[],[],[],[],[],[],[],[],[],[],[],[],[],[],[],[],[],[],[],[],[],[],[],[],[],[],[],[],[],[],[],[],[],[],[],[],[],[],[],[],[],[],[],[],[],[],[],[],[],[],[],[],[],[],[],[],[],[],[],[],[],[],[],[],[],[],[],[],[],[],[],[],[],[],[],[],[],[],[],[],[],[],[],[],[],[],[],[],[],[],[],[],[],[],[],[],[],[],[],[],[],[],[],[],[],[],[],[],[],[],[],[],[],[],[],[],[],[],[],[],[],[],[],[],[],[],[],[],[],[],[],[],[],[],[],[],[],[],[],[],[],[],[],[],[],[],[],[],[],[],[],[],[],[],[],[],[],[],[],[],[],[],[],[],[],[],[],[],[],[],[],[],[],[],[],[],[],[],[],[],[],[],[],[],[],[],[],[],[],[],[],[],[],[],[],[],[],[],[],[],[],[],[],[],[],[],[],[],[],[],[],[],[],[],[],[],[],[],[],[],[],[],[],[],[],[],[],[],[],[],[],[],[],[],[],[],[],[],[],[],[],[],[],[],[],[],[],[],[],[],[],[],[],[],[],[],[],[],[],[],[],[],[],[],[],[],[],[],[],[],[],[],[],[],[],[],[],[],[],[],[],[],[],[],[],[],[],[],[],[],[],[],[],[],[],[],[],[],[],[],[],[],[],[],[],[],[],[],[],[],[],[],[],[],[],[],[],[],[],[],[],[],[],[],[],[],[],[],[],[],[],[],[],[],[],[],[],[],[],[],[],[],[],[],[],[],[],[],[],[],[],[],[],[],[],[],[],[],[],[],[],[],[],[],[],[],[],[],[],[],[],[],[],[],[],[],[],[],[],[],[],[],[],[],[],[],[],[],[],[],[],[],[],[],[],[],[],[],[],[],[],[],[],[],[],[],[],[],[],[],[],[],[],[],[],[],[],[],[],[],[],[],[],[],[],[],[],[],[],[],[],[],[],[],[],[],[],[],[],[],[],[],[],[],[],[],[],[],[],[],[],[],[],[],[],[],[],[],[],[],[],[],[],[],[],[],[],[],[],[],[],[],[],[],[],[],[],[],[],[],[],[],[],[],[],[],[],[],[],[],[],[],[],[],[],[],[],[],[],[],[],[],[],[],[],[],[],[],[],[],[],[],[],[],[],[],[],[],[],[],[],[],[],[],[],[],[],[],[],[],[],[],[],[],[],[],[],[],[],[],[],[],[],[],[],[],[],[],[],[],[],[],[],[],[],[],[],[],[],[],[],[],[],[],[],[],[],[],[],[],[],[],[],[],[],[],[],[],[],[],[],[],[],[],[],[],[],[],[],[],[],[],[],[],[],[],[],[],[],[],[],[],[],[],[],[],[],[],[],[],[],[],[],[],[],[],[],[],[],[],[],[],[],[],[],[],[],[],[],[],[],[],[],[],[],[],[],[],[],[],[],[],[],[],[],[],[],[],[],[],[],[],[],[],[],[],[],[],[],[],[],[],[],[],[],[],[],[],[],[],[],[],[],[],[],[],[],[],[],[],[],[],[],[],[],[],[],[],[],[],[],[],[],[],[],[],[],[],[],[],[],[],[],[],[],[],[],[],[],[],[],[],[],[],[],[],[],[],[],[],[],[],[],[],[],[],[],[],[],[],[],[],[],[],[],[],[],[],[],[],[],[],[],[],[],[],[],[],[],[],[],[],[],[],[],[],[],[],[],[],[],[],[],[],[],[],[],[],[],[],[],[],[],[],[],[],[],[],[],[],[],[],[],[],[],[],[],[],[],[],[],[],[],[],[],[],[],[],[],[],[],[],[],[],[],[],[],[],[],[],[],[],[],[],[],[],[],[],[],[],[],[],[],[],[],[],[],[],[],[],[],[],[],[],[],[],[],[],[],[],[],[],[],[],[],[],[],[],[],[],[],[],[],[],[],[],[],[],[],[],[],[],[],[],[],[],[],[],[],[],[],[],[],[],[],[],[],[],[],[],[],[],[],[],[],[],[],[],[],[],[],[],[],[],[],[],[],[],[],[],[],[],[],[],[],[],[],[],[],[],[],[],[],[],[],[],[],[],[],[],[],[],[],[],[],[],[],[],[],[],[],[],[],[],[],[],[],[],[],[],[],[],[],[],[],[],[],[],[]],"csv":null,"csvError":null,"dependabotInfo":{"showConfigurationBanner":false,"configFilePath":null,"networkDependabotPath":"/keyboard-magpie/isopad/network/updates","dismissConfigurationNoticePath":"/settings/dismiss-notice/dependabot_configuration_notice","configurationNoticeDismissed":false,"repoAlertsPath":"/keyboard-magpie/isopad/security/dependabot","repoSecurityAndAnalysisPath":"/keyboard-magpie/isopad/settings/security_analysis","repoOwnerIsOrg":false,"currentUserCanAdminRepo":false},"displayName":"isopad_via.hex","displayUrl":"https://github.com/keyboard-magpie/isopad/blob/main/isopad_via.hex?raw=true","headerInfo":{"blobSize":"51.3 KB","deleteInfo":{"deletePath":"https://github.com/keyboard-magpie/isopad/delete/main/isopad_via.hex","deleteTooltip":"Fork this repository and delete the file"},"editInfo":{"editTooltip":"Fork this repository and edit the file"},"ghDesktopPath":"https://desktop.github.com","gitLfsPath":null,"onBranch":true,"shortPath":"72d0259","siteNavLoginPath":"/login?return_to=https%3A%2F%2Fgithub.com%2Fkeyboard-magpie%2Fisopad%2Fblob%2Fmain%2Fisopad_via.hex","isCSV":false,"isRichtext":false,"toc":null,"lineInfo":{"truncatedLoc":"1168","truncatedSloc":"1168"},"mode":"file"},"image":false,"isCodeownersFile":null,"isValidLegacyIssueTemplate":false,"issueTemplateHelpUrl":"https://docs.github.com/articles/about-issue-and-pull-request-templates","issueTemplate":null,"discussionTemplate":null,"language":null,"large":false,"loggedIn":true,"newDiscussionPath":"/keyboard-magpie/isopad/discussions/new","newIssuePath":"/keyboard-magpie/isopad/issues/new","planSupportInfo":{"repoIsFork":null,"repoOwnedByCurrentUser":null,"requestFullPath":"/keyboard-magpie/isopad/blob/main/isopad_via.hex","showFreeOrgGatedFeatureMessage":null,"showPlanSupportBanner":null,"upgradeDataAttributes":null,"upgradePath":null},"publishBannersInfo":{"dismissActionNoticePath":"/settings/dismiss-notice/publish_action_from_dockerfile","dismissStackNoticePath":"/settings/dismiss-notice/publish_stack_from_file","releasePath":"/keyboard-magpie/isopad/releases/new?marketplace=true","showPublishActionBanner":false,"showPublishStackBanner":false},"renderImageOrRaw":false,"richText":null,"renderedFileInfo":null,"tabSize":8,"topBannersInfo":{"overridingGlobalFundingFile":false,"globalPreferredFundingPath":null,"repoOwner":"keyboard-magpie","repoName":"isopad","showInvalidCitationWarning":false,"citationHelpUrl":"https://docs.github.com/en/github/creating-cloning-and-archiving-repositories/creating-a-repository-on-github/about-citation-files","showDependabotConfigurationBanner":false,"actionsOnboardingTip":null},"truncated":false,"viewable":true,"workflowRedirectUrl":null,"symbols":{"timedOut":false,"notAnalyzed":true,"symbols":[]}},"copilotAccessInfo":{"accessAllowed":false,"hasSubscriptionEnded":false,"orgHasCFBAccess":false,"userHasCFIAccess":false,"userIsOrgAdmin":false,"userIsOrgMember":false,"business":null},"csrf_tokens":{"/keyboard-magpie/isopad/branches":{"post":"7M7D0MtM212bSfhP7IaLP8VGIQfQkuJQbkTt2iKalLb6eUqLZZUsOVBddEgk76wZMct_DPAoGru0eoMTSV8pMQ"}}},"title":"isopad/isopad_via.hex at main · keyboard-magpie/isopad","locale":"en"}