:100000000C9427030C94B7270C9444030C944403DA
:100010000C9444030C9444030C9444030C94440344
:100020000C9444030C9444030C94C0220C9484223A
:100030000C9429240C9444030C9444030C9444031E
:100040000C9444030C9444030C9444030C94440314
:100050000C9444030C9403240C9444030C94440324
:100060000C9444030C9444030C9444030C944403F4
:100070000C9444030C9444030C9444030C944403E4
:100080000C9444030C9444030C9444030C944403D4
:100090000C9444030C9444030C9444030C944403C4
:1000A0000C9444030C9444030C9444031B0006007A
:1000B00000001300340000000E000F0000003600A6
:1000C000370000000631FF0974A1010975150026EB
:1000D000FF00952075088102C005010980A10185F6
:1000E0000319012AB700150126B700950175108183
:1000F00000C0050C0901A101850419012AA00215FF
:100100000126A002950175108100C005010906A114
:1001100001050719E029E7150025019508750181FA
:10012000029501750881010507190029FF150026B0
:10013000FF009506750881000508190129051500BD
:100140002501950575019102950175039101C06224
:1001500061636B6C69676874206465637265617361
:10016000653A2025750A006261636B6C6967687483
:1001700020696E6372656173653A2025750A0062B5
:1001800061636B6C696768742064697361626C6534
:100190000A006261636B6C6967687420746F6767DB
:1001A0006C653A2025750A006261636B6C6967684B
:1001B0007420737465703A2025750A0000000000F1
:1001C000000000000000000000000000000000002F
:1001D000000000000000000000000000000000001F
:1001E0007E0F00D4FFFFFFC7000000780000000072
:1001F000000000002A2B2800000000000000000082
:100200000000000000000029000000002C1E342027
:10021000212224342627252E362D3738271E1F204D
:100220002122232425263333362E37381F04050692
:100230000708090A0B0C0D0E0F10111213141516D6
:100240001718191A1B1C1D2F3130232D35040506D4
:100250000708090A0B0C0D0E0F10111213141516B6
:100260001718191A1B1C1D2F3130354C44454255A7
:10027000473A2064697361626C65642E0A004445E4
:100280004255473A20656E61626C65642E0A004FE4
:100290006E6573686F743A206163746976653A209D
:1002A00025640A000A002530325820006B65796207
:1002B0006F6172645F7265706F72743A20253032BC
:1002C00058207C200029001E001F00200021002251
:1002D000002B0014001A0008001500170029210443
:1002E000001600070009000A0064241D001B000618
:1002F0000019000500000000004A00E3002B412A1D
:10030000002A00270026002500240023004C0013AB
:100310000012000C0018001C00340033000F000E07
:10032000000D000B00283238003700360010001195
:1003300000000000004D00E00028422C0035021EA5
:10034000021F0220022102220229003A003B003C47
:10035000003D000100E0003E003F00400041002859
:1003600013E10042004300440045000F0800000074
:10037000002602E200010028004C052A002B00297B
:10038000004C05350001002700260025002400232D
:1003900000460034004F0052005100500044002835
:1003A000324D004B004E004A00000000002702E3DF
:1003B00000437E280045003A003B003C003D003EE3
:1003C0000035001E001F0020000100460019132107
:1003D00000220023000100191351132400250026D8
:1003E0000027005113000000002602E200437E2C8B
:1003F00000440043004200410040003F004C002701
:10040000022602250224020100350030002F002EB2
:10041000002D000100D100B700B6006400320001D9
:1004200000000000000100E30001002800007C0142
:1004300000010001000100010001000100010001B4
:1004400000010001000100010001000100010001A4
:100450000001000100010001000100010000000096
:100460000001000100010001000100010001000184
:100470000001000100010001000100010001000174
:100480000001000100010001000100010001000164
:10049000000100010001000100000000000100E374
:1004A000000100280054617267657420636F6E6EEE
:1004B00065637465640D0A00546172676574206435
:1004C0006973636F6E6E65637465642C2074687203
:1004D0006F74746C696E6720636F6E6E65637469A8
:1004E0006F6E20617474656D7074730D0A004661DF
:1004F000696C656420746F20657865637574652028
:1005000025730A0073757370656E64696E67206B7E
:100510006579626F6172640D0A000A0025303862E5
:10052000003A200025303258000A722F6320303103
:100530003233343536370A006C65645F7461736B2F
:100540003A20253032580A006261636B6C69676833
:10055000745F696E6974206261636B6C696768744B
:100560005F636F6E6669672E76616C6964203D20FB
:10057000302E2057726974652064656661756C74ED
:100580002076616C75657320746F20454550524F1D
:100590004D2E0A006261636B6C6967687420656E3A
:1005A00061626C650A005B435D005B445D005B5308
:1005B0005D005B575D005B525D0009025400030162
:1005C00000A0FA0904000001030101000921110142
:1005D000000122440007058103080001090401000D
:1005E000010300000009211101000122320007056A
:1005F0008203200001090402000103000000092118
:1006000011010001221500070583032000011201DA
:1006100000020000000810CB562200020102000177
:100620001803490072006900730020005200650041
:1006300076002E002000320000000E034B00650003
:100640006500620069006F000000040309041124C2
:100650001FBECFEFDAE0DEBFCDBF11E0A0E0B1E01A
:10066000EEECF3E502C005900D92A63CB107D9F778
:1006700023E0A6ECB1E001C01D92AD37B207E1F76F
:100680000E9452240C94E5290C940000FF93EF93F0
:10069000E091C601F091C701309709F00995EF91FB
:1006A000FF910895FC018591803011F0EFDFFBCFC1
:1006B0000895FF27E0E230E247FF0CC0419597FF25
:1006C00009C0EDE26095709580959095611D711D52
:1006D000811D911D27FF02C0219530E350E2AA271A
:1006E000660F771F881F991FAA1FA41710F0A41B5D
:1006F00063955A95A9F7AA3008F0A95FA05DAF935A
:10070000F395611571058105910541F7ED3211F4FD
:10071000EF93F395F21718F43F93F395FBCF8F9176
:10072000B5DFFA95E1F70895E991F9918591803067
:1007300021F0853219F0AADFF9CF089520E0E8947E
:1007400055915532C1F3503311F4689455915A3391
:1007500048F4505390F3220F022E220F220F200D47
:10076000250FF4CF0EF4219589919991533619F301
:10077000533729F1533559F1BC0188279927E8945B
:100780005C3621F48991999168945591543639F4E5
:1007900046EF7EF077FF0DC08FEF9FEF0AC0553711
:1007A0004AE039F0583540E121F0523642E009F094
:1007B0000895FF93EF937DDFEF91FF91B7CFFF9304
:1007C000EF93FC0181918030B9F360DFFBCFFF93A1
:1007D000EF9368DFF1CFDF93CF93CDB7DEB72596E8
:1007E000A3DFCF91DF910895482F20917703909157
:1007F0002E0359E0291302C080E0089530E0529F93
:10080000F001539FF00D1124E15DFC4F81816813CD
:1008100006C08081481303C085818111EECF2F5F10
:100820003F4F2770E7CFFC01AC014B5F5F4F8FEF6D
:1008300091E32191822728E030E087FF09C0880FEB
:10084000892721503109C9F7E417F50791F7089571
:10085000880FF7CFE8EDF0E080818E7F80831092E3
:10086000E2001092DA001092E100A0EEB0E08C916C
:1008700081608C9380818F77808319BCA7EDB0E075
:100880008C918E7F8C9380818F7E80831092170352
:1008900008952091E4003091E50085E69091EC0008
:1008A00090FF06C09091E80090FF06C080E0089598
:1008B0009091E80092FDFACF90912403992391F052
:1008C000953091F09091EB0095FD10C04091E400BF
:1008D0005091E5002417350709F381509A01F1F68C
:1008E00084E0089582E0089583E0089581E008950A
:1008F0008091260387FF13C08091E80082FF06C025
:100900008091E8008B778093E80004C080912403F5
:100910008111F2CF0895809124038823D9F3809127
:10092000E80080FFF8CF8091E8008E77ECCF982F19
:100930009093E900242F762F50E0891731F07091C1
:10094000EC002091ED005091F00021FD07C09F5F69
:10095000973071F78093E90081E008953091EB00C2
:100960003E7F3093EB003091ED003D7F3093ED0002
:100970003091EB0031603093EB007093EC002093EA
:10098000ED005093F0002091EE0027FDE0CF80E0D5
:100990000895B0E0A0E0EFECF4E00C94DE28C8EDA0
:1009A000D0E088818F7E8883E7EDF0E080818160F0
:1009B000808384E082BF81E08093170388818E7FEB
:1009C000888302EE10E0F80110821092DA0081EEC6
:1009D000C82ED12CF601108288818F778883888178
:1009E0008068888388818F7D888319BC1092240356
:1009F00010922503109223031092220390EEE92E09
:100A0000F12CF70180818B7F8083888181608883CE
:100A100042E060E080E00E949704F60180818E7FD2
:100A20008083F801808181608083808188608083F9
:100A3000F70180818E7F8083888180618883CDB734
:100A4000DEB7E8E00C94FA28FC0180912C03909129
:100A50002D0386179707A0F06115710529F4909171
:100A6000E8009E779093E80090E06115710551F4DD
:100A7000911108C08091E80082FF35C080E00895A0
:100A8000BC01F2CF809124038823C9F18530C9F1DC
:100A90008091E80083FD31C08091E80082FDEACFBB
:100AA0008091E80080FFE1CF2091F3008091F20077
:100AB000322F282F6115710519F02830310558F0B3
:100AC00091E02830310509F090E02091E8002E7780
:100AD0002093E800CACF81918093F10061507109A1
:100AE0002F5F3F4FE7CF80912403882341F085306B
:100AF00041F08091E80083FFBDCF81E0089582E05E
:100B0000089583E008950895089580911903089544
:100B10009C014FB7F8948091100390911103A0911C
:100B20001203B09113034FBF821B930B08952FB78D
:100B3000F8946091100370911103809112039091C9
:100B400013032FBF08952FB7F8948091100390914D
:100B50001103A0911203B09113032FBF0895E8EC85
:100B6000F1E09281891301C01282319691E0EE3C4E
:100B7000F907B9F70895AAECB1E0EFEF90E02D91F5
:100B8000821751F0EF3F19F4211101C0E92F9F5F47
:100B90009630A9F7EF3F09F408950E2E000CFF0BD5
:100BA000E853FE4F82830895A3E0B0E0EAEDF5E05C
:100BB0000C94E42820910D0330910E032817390777
:100BC000A1F090930E0380930D03E0910B03F0913D
:100BD0000C03309751F024E029839B838A8300849F
:100BE000F185E02DCE01019609952396E2E00C9463
:100BF0000029A3E0B0E0EFEFF5E00C94E4282091A9
:100C0000090330910A0328173907A1F090930A03CA
:100C100080930903E0910B03F0910C03309751F09E
:100C200023E029839B838A830084F185E02DCE0114
:100C3000019609952396E2E00C9400298091070320
:100C4000882359F0E0910B03F0910C03309729F0C1
:100C50000190F081E02D0995089580E00895AC01A0
:100C60008091030360910403982F691301C00895D4
:100C7000292F30E0F901EE0FFF1FE550FD4F0190E5
:100C8000F081E02DE417F507C1F4F0E0E0E0443036
:100C9000510540F467E0649FF001659FF00D112459
:100CA000E05DFE4F41E044839813E1CF2F5F3F4F5B
:100CB000237033272093030308952F5F3F4F922F14
:100CC0009370D3CF10928F0210928E02E0E3F1E086
:100CD0008CE491E02581211102C01482168237969E
:100CE0008E179F07B9F708958F929F92AF92BF9288
:100CF000EF92FF920F931F93CF93DF938630B0F55F
:100D0000811135C0909180009F7790938000A091D1
:100D10008600B0918700282F30E00E94B52925E099
:100D200030E040E050E00E948D2989019A018091D5
:100D30008600909187006CE070E00E94792960172E
:100D40007107C8F0C80169E070E00E9479297093CA
:100D5000890060938800DF91CF911F910F91FF90E0
:100D6000EF90BF90AF909F908F90089585E0909105
:100D700080009068CACF8091860090918700E090B3
:100D80008600F0908700E0918600F0918700C6E031
:100D9000D0E0BE010E947929060F171F211D311DC9
:100DA0004801590185E0880C991CAA1CBB1C8A9536
:100DB000D1F7C701BE010E9479299F0150E040E0B0
:100DC000260F371F411D511DC501B4010E948D29F9
:100DD00049015A01E0918600F0918700CA01B901EA
:100DE0000E945D299B01AC01DF010E94C4299B0187
:100DF000AC01C501B4010E945D292FE0969587954D
:100E0000779567952A95D1F7009186001091870014
:100E100030E020E0061717072807390708F097CFBA
:100E2000609186007091870092CF863008F085E04F
:100E3000909168029770282F220F220F220F922B79
:100E400090936802987F21E009F420E09091680275
:100E500020FB90F9909368020E9474060895F8941C
:100E6000E82FE295EF70F0E031A1282F2F7081E09C
:100E700090E001C0880F2A95EAF7982F9095932368
:100E800091A392A1892B82A3789408950F931F9325
:100E900080910703882329F00E9497051F910F91E5
:100EA00008950E9497050091350210913602209115
:100EB000370230913802600F711F821F931FEECFEF
:100EC0009091470292FF10C041E0282F24712430F6
:100ED00009F040E031E0282F2871283009F030E097
:100EE000431711F02CE0822793FF10C041E0282F18
:100EF0002471243109F040E031E0282F2871283195
:100F000009F030E0431711F02CE0822730914802BD
:100F100030FF10C051E0282F2171213009F050E03E
:100F200041E0282F2871283009F040E0541711F0D3
:100F300029E0822731FF10C041E0282F21712131A3
:100F400009F040E031E0282F2871283109F030E025
:100F5000431711F029E0822794FD877E0895823897
:100F60009105B9F1B0F48133910509F47DC048F4DD
:100F70008932910509F46DC08A32910509F479C06E
:100F800008958533910509F45FC08933910509F10E
:100F90000895833E9105D9F138F4803E910529F1F9
:100FA000823E910579F10895863E9105D9F1873EFB
:100FB000910509F43EC0843E910541F52091480217
:100FC00021FF24C08091470284FD19C087EE90E084
:100FD000089520914702237009F056C020914802DD
:100FE00023FF14C089E290E008952091470220FD7C
:100FF00038C03091480230FF09C024FF3FC090E064
:1010000080E008952091470222FDF7CF08952091B6
:10101000470222FD36C03091480230FD35C024FD24
:10102000EECFF4CF2091470223FFF0CF24FDE7CF8E
:10103000CDCF2091470223FD2AC03091480231FFD5
:10104000EECF84EE90E008952091470225FDCACFAF
:1010500008952091470225FD1DC02091480223FFDD
:10106000D5CF89E390E008952091470226FD15C071
:1010700008952091470226FD13C0089583EE90E065
:10108000089582EE90E0089580EE90E0089586EE57
:1010900090E0089585E390E008958AE290E0089555
:1010A00081E390E0B3CF7A30B8F46630A8F48430AE
:1010B000B0F4E62FF0E096E0799FE00DF11D1124E9
:1010C0009CE3899FE00DF11D1124EE0FFF1FEB53F0
:1010D000FD4F85919491089580E090E0089581E01E
:1010E000FCCF1F93CF93DF930E94AF07EC01C11594
:1010F00080E5D807E8F5C11580E4D80708F09BC063
:10110000C03ED10518F5CD3CD10508F081C0C83AE4
:10111000D10570F4C53AD10508F072C0C130D105CF
:1011200011F118F0C430D105F0F4D0E0C0E01BC0DC
:10113000C33CD105D0F7C85AD0E0CC0FDD1FCD5845
:10114000DE4F0990D881C02DD4640DC0C11580E256
:10115000D80708F0CBC0C11581E0D80708F05AC005
:10116000C83ED10510F7CE01DF91CF911F910895B0
:10117000C03682E5D80718F5C03482E5D80708F0F4
:1011800069C0C03282E5D80708F05DC0C11582E5AC
:10119000D80708F493C02C2F2695269580E2289F27
:1011A000900111248C2F8370C1E0D0E002C0CC0FDD
:1011B000DD1F8A95E2F7C22BD32BDD68D4CFC03A6E
:1011C00082E5D80760F4C03882E5D80708F457C034
:1011D000CF71D0E0DC2FCC27C46FD06AC4CFC03C25
:1011E00082E5D80708F45EC0C03E82E5D80708F063
:1011F0009CCFDC2FCC27CC27DF71C06FD06AB3CF58
:10120000C55AD0E0C059DE4FC881D0E0D064ABCF22
:10121000D065A9CF8D2F0E946007182FCE01992786
:101220000E94AF07C12FD0E0DC2FCC27CC27DF7185
:10123000C82BD92B98CFCE0199270E94AF07CC2776
:10124000DF70D06AF5CFCF71D0E0DC2FCC27C16F33
:10125000D06A89CF2C2F26952695277080E2289F6B
:10126000900111248C2F8370C1E0D0E002C0CC0F1C
:10127000DD1F8A95E2F7DC68C22BD32B74CF2C2FAD
:1012800026952695277080E2289F900111248C2FA7
:101290008370C1E0D0E002C0CC0FDD1F8A95E2F779
:1012A000DA68EACF8C2F8F710E946007C82FD0E0D8
:1012B000DC2FCC27CC27DF71D06255CF8C2F8F71DC
:1012C0000E94600755E0D695C7955A95E1F7CF7013
:1012D000D0E0DC2FCC27282F30E084FF05C044E08D
:1012E000220F331F4A95E1F7D069C6CF8D2F8F713A
:1012F0000E946007182FCE0199270E94AF07C12FC7
:10130000D0E0DC2FCC27CC27DF71906291CF909179
:10131000480292FF05C090910B02981380930B0234
:101320000895982F9095809169028923809369028E
:1013300008958091770390912E03981301C008952A
:101340008F5F8770FACFB0E0A0E0E9EAF9E00C9493
:10135000DD287C0100917B0310917C038091450284
:1013600090914602082B192BCFE0D0E0CC24C394F7
:10137000D12CBC2EC6010C2E02C0880F991F0A94D6
:10138000E2F780239123892B49F4219790F7B12C20
:101390008B2DCDB7DEB7E9E00C94F928B7018C2F7F
:1013A0000E9453080E947108019779F3F1CFCF93FF
:1013B000DF93EC010E94A309BE010E9453080E9422
:1013C0007108DF91CF9108959A3078F5863068F5ED
:1013D000E82FF0E086E0989FE00DF11D11249E2F8C
:1013E000977083E0F695E7958A95E1F7EE0FFF1F7A
:1013F000EE0FFF1FE752FE4F50E040E080E02191EA
:1014000030E0092E02C0369527950A94E2F7217044
:101410003327042E01C0220F0A94EAF7822B4F5F74
:101420005F4F4430510559F7089580E008959A3090
:1014300098F5863088F5E82FF0E086E0989FE00D7B
:10144000F11D11248E2F877041E001C0440F8A9551
:10145000EAF783E0F695E7958A95E1F7EE0FFF1F2F
:10146000EE0FFF1FE752FE4F30E020E070E0519199
:10147000DF011197CB01022E02C0969587950A9441
:10148000E2F7817081958527842385278C932F5FD0
:101490003F4F2430310559F7089590937C03809392
:1014A0007B03089580917B0390917C039C012670BF
:1014B00033272630310521F488600E944D0A0895B3
:1014C000877FFBCF21E030E002C0220F331F8A95D7
:1014D000E2F72095309580917B0390917C038223E5
:1014E00093230E944D0A08959091020280958923CA
:1014F00080930202282F277069F4891759F0909180
:10150000480292FF07C08695869586950E94620ADA
:1015100010920202089521E030E002C0220F331F32
:101520008A95E2F780917B0390917C03822B932B29
:101530000E944D0A089590934602809345020895B3
:10154000FC0124812223F1F087819085009789F0A6
:101550000E94710892959F709630B1F078F4925085
:10156000923080F4803F19F058F4883E58F481E0BE
:101570000895808191810E94D709ECCF9A50F0CFD5
:10158000843FA9F380E00895883E88F3813FD1F736
:10159000EECF829590E09C01220F331F220F331F64
:1015A0002C7C95958795959587958373282B30E0AE
:1015B000C901880F991F8A7A359527952575822B41
:1015C0000895A6E0B0E0E7EEFAE00C94E328FC0111
:1015D000878190850097E9F4CF0126E0DE0111961E
:1015E00001900D922A95E1F7FC01258189819A816C
:1015F000222399F0662389F00E94A309182F682FEF
:1016000089819A810E94170A69817A81812F0E94BB
:1016100053082696E3E00C94FF280E94E409182F53
:10162000F3CF9C013A9521153F4150F5FC01EE277F
:10163000F170BC0166277270AC01442754709C01A4
:101640002227387094FF0EC080E0EF2B09F080E174
:10165000672B09F08062452B09F08064232B89F009
:101660008068089581E0EF2B09F480E0672B09F092
:101670008260452B09F08460232B19F0886008955F
:1016800080E008959FB7F894109215039FBF909142
:101690002403943009F049C02091E9002F70909103
:1016A000EC0090FD30C090E0922B23E02093E90005
:1016B0002091EB0020FF36C02091EE0027FF32C0C2
:1016C00020911403222321F02091E80025FF2AC055
:1016D0001092140326E03091E80035FF16C0809385
:1016E000F1008091E80085FD29C08091E80080FF2D
:1016F000FCCF8091E8008E778093E8009F709093F4
:10170000E90080E0089590E8CFCF30912403343091
:1017100049F43091EB0035FD05C0215041F481E0E2
:10172000809314039F709093E9008FEF0895EFE981
:10173000FFE03197F1F700C00000CDCF8FB7F894EC
:1017400021E0209315038FBFD9CF0F931F93CF9321
:10175000DF938B01EA0190912403943061F580932B
:10176000E9008FEF9091E800815095FD06C095ED5E
:101770009A95F1F700008111F5CF8091E80085FF7F
:101780001AC00E944904811111C08091E80085FDB2
:1017900006C08091E8008E778093E800F2CFF801D0
:1017A00081918F018093F100219779F78091E80072
:1017B0008E778093E800DF91CF911F910F9108956C
:1017C00043E050E0BC0182E00E94A50B0895CF9356
:1017D000DF93EC0148E050E0BC0181E00E94A50BE2
:1017E00088E0FE01AAE1B3E001900D928A95E1F74D
:1017F000DF91CF910895B0E0A0E0E1E0FCE00C942F
:10180000D9287C015B01842E752E69018091180214
:1018100001E010E08A3010F40AE010E0C1E0D0E00E
:10182000B501C701F6010995982E811114C02196C2
:101830000C171D07B4F48091670280FF0CC07F92E3
:101840008F928EEE94E09F938F930E94EB030F9004
:101850000F900F900F90892DCDB7DEB7EDE00C946F
:10186000F528CC9F9001CD9F300D300D112490E0D4
:1018700080E045E34A95F1F7000001962817390703
:10188000C1F7CECF682F86E090E00E942929089505
:101890000E941507809168020E94420C0895809171
:1018A000680280FD1FC0816080936802813019F456
:1018B00089E080936802809168020E94420C8091C6
:1018C000670280FF08C084E995E09F938F930E9490
:1018D000EB030F900F908091680286958695869510
:1018E0000E947406089586E090E00E940B29809380
:1018F000680282FD11C08091670280FF08C088E401
:1019000095E09F938F930E94EB030F900F908DE2D1
:10191000809368020E94420C80916802803320F01C
:1019200087708862809368028091680280FF06C099
:101930008695869586950E947406089580E0FBCF73
:10194000CF939091480292FB222720F9281709F1A2
:10195000C82F892FC0FB82F980934802609147020B
:101960007091480284E090E00E94472982E00E9442
:10197000740A8091670280FF0CC01F92CF938FE89A
:1019800092E09F938F930E94EB030F900F900F9024
:101990000F90CF910895A4E0B0E0E1EDFCE00C944D
:1019A000E328409122025091230260912402709119
:1019B00025022FB7F8948091100390911103A09104
:1019C0001203B09113032FBF841B950BA60BB70B0B
:1019D00011E084369105A105B10570F10E9446071A
:1019E0006E5F7F4F8F4F9F4F69837A838B839C837A
:1019F00080911301909114018A5D9D4F40911201D5
:101A000050E04530510510F044E050E0BE016F5FFA
:101A10007F4F0E94DC2982E090E00E945D28182F11
:101A2000882351F00E94970560932202709323024D
:101A30008093240290932502812F2496E3E00C9456
:101A4000FF28A1E0B0E0E7E2FDE00C94E2288091FD
:101A5000680280FF4EC08695869586958983909111
:101A60003002009131021091320220913302309104
:101A70003402EFB7F8944091100350911103609134
:101A8000120370911303EFBF401B510B620B730BDA
:101A9000443651056105710518F411E0981721F1DC
:101AA00080911B0190911C018A5D9D4F40911A010C
:101AB00050E04115510511F041E050E0BE016F5F6B
:101AC0007F4F0E94DC2983E090E00E945D28182F60
:101AD000882351F00E94970560933102709332027F
:101AE0008093330290933402812F2196E4E00C948A
:101AF000FE2880E0B3CFEF92FF921F93CF93DF9346
:101B000000D000D000D0CDB7DEB77B0190E080E000
:101B10000E945D28182F882309F46DC040910501AB
:101B200050E04115510511F041E050E0609106018F
:101B3000709107016A5D7D4FCE0106960E94DC29F7
:101B400040911E0250911F0260912002709121026B
:101B50002FB7F8948091100390911103A091120374
:101B6000B09113032FBF841B950BA60BB70B8436C4
:101B70009105A105B10538F487E292E00E941304B3
:101B80009E818917C1F181E090E00E945D28182FA5
:101B9000882391F040910D0150E04630510510F03E
:101BA00045E050E060910E0170910F016A5D7D4F3C
:101BB000CE0101960E94DC2987E292E00E94130484
:101BC00091E02E81281390E0192301F10E949705DE
:101BD00060931E0270931F02809320029093210253
:101BE00085E0FE013196A9E1B2E001900D928A955F
:101BF000E1F711E00BC085E0E7E2F2E0DE011196CB
:101C000001900D928A95E1F71111EACF85E0E9E1A3
:101C1000F2E0D70101900D928A95E1F7812F269687
:101C20000FB6F894DEBF0FBECDBFDF91CF911F91ED
:101C3000FF90EF900895AFE0B0E0E1E2FEE00C9499
:101C4000D7288E010F5F1F4F8AE0F80111928A9505
:101C5000E9F78BEAE82E81E0F82E680190EB692E17
:101C600091E0792EAA24A394B12C36EB832E31E097
:101C7000932EF70181917F018F3F09F440C0F894C2
:101C8000E82FE295EF70F0E021A18F70A50102C06E
:101C9000440F551F8A95E2F7CA01922F982B91A302
:101CA00092A18095892382A3789400C0E0EBF1E0B3
:101CB000512C31E021912F3F09F49DC0A22FA29514
:101CC000AF70B0E090968C9190E02F7002C0959527
:101CD00087952A95E2F780FD8EC0832F582A330F0F
:101CE0008E169F0639F7F701319780818F3F11F0EB
:101CF0000E942F0750EA5A95F1F7F6015082FFEF44
:101D0000CF1ADF0A6E147F0409F0B3CF4AE050E027
:101D1000B80189E392E00E94CF29009741F02AE0C0
:101D2000F801A9E3B2E001900D922A95E1F7009144
:101D3000440210E0075B1D4F892B09F45EC081E06F
:101D4000809310020E94A30590930F0280930E02CD
:101D5000C12CD0900703DD2009F4C1C07E012BE027
:101D6000E20EF11C85E0F70111928A95E9F7B09037
:101D70001802F9E0FB1508F464C02BE73DE04EE4DF
:101D800051E0B701C8010E94FB0B882309F47BC016
:101D90002BEC3CE04BE551E0B701C8010E94FB0B86
:101DA000882309F470C021E23DE046E651E0B70126
:101DB000C8010E94FB0B882309F465C049E04B155C
:101DC00008F480C0109218028091430290E045E030
:101DD00050E0B701875B9D4F0E94CF2921E02093FF
:101DE0001702892B09F042C0D12C8D2D8C292F96FA
:101DF000EFE00C94F32880E071CFC0901002CC206B
:101E000009F4A6CF80910E0290910F020E948805DE
:101E1000059708F49DCF45E050E069E372E0C80102
:101E20000E94CF29892B59F085E0E9E3F2E0D8013F
:101E300001900D928A95E1F7109210028ACFC12C81
:101E4000FBCF80911102909112020E948805843F7D
:101E5000914008F092CF80911702882329F285E003
:101E6000F70111928A95E9F710921702A0914302A7
:101E7000B0E0A75BBD4F85E0FE013B9601900D925F
:101E80008A95E1F7B2CF809118028F3F19F08F5FEA
:101E900080931802809118028A3008F495CF0E942E
:101EA000A30590931202809311028091670280FF34
:101EB000D2CF88EB94E09F938F930E94EB030F9017
:101EC0000F90C9CF8091670280FF7CCF85EA94E0B4
:101ED0009F938F930E94EB030F900F9073CF85E039
:101EE000F801A7E2B2E001900D928A95E1F787E24E
:101EF00092E00E9413048093260280902C0290901E
:101F00002D02A0902E02B0902F028091130290918A
:101F10001402A0911502B091160288169906AA061D
:101F2000BB06B1F08092130290921402A0921502A7
:101F3000B09216020E949705861A970AA80AB90A53
:101F40008092350290923602A0923702B092380207
:101F5000809130020E94150748CF0F931F93CF93B3
:101F6000DF938091690290919002892B90910B02EE
:101F7000992359F0892BEAECF1E027E090E0215019
:101F800009F065C0911110920B028093C80148E0DE
:101F900050E063E072E088EC91E00E94CF29892B49
:101FA00009F450C088E0E8ECF1E0A3E0B2E0019071
:101FB0000D928A95E1F7E0910B03F0910C033097B5
:101FC00009F440C00280F381E02D88EC91E009958E
:101FD0008091670282FF36C080FF0EC08091C801E9
:101FE0001F928F938CEA92E09F938F930E94EB0352
:101FF0000F900F900F900F90D0E0C0E006EA12E033
:102000008091670280FF0EC0FE01E853FE4F82817F
:102010001F928F931F930F930E94EB030F900F90CB
:102020000F900F902196C630D10551F7809167022D
:1020300080FF08C084EA92E09F938F930E94EB0395
:102040000F900F90DF91CF911F910F9108953191D3
:10205000332309F494CF9F5F92CF10926902EAEC88
:10206000F1E086E0DF011D928A95E9F790E080E0DB
:102070000E94F90590E080E00E94D4051092900241
:102080000E94AD0F0895AAE2B0E0E9E4F0E10C94FB
:10209000E328E6E2F3E08091F100819383E0EE3201
:1020A000F807C9F780912703833009F47DC008F54C
:1020B000813009F454C0823009F4BEC08091E80038
:1020C00083FFF8C080912603909127039A3008F08F
:1020D000F1C0E92FF0E0E159FF4E0C94AF292D112A
:1020E00053115A1153115A11AB11CD115A11CC126F
:1020F000D9128A3009F48FC08B3009F472C089304C
:10210000E9F6809126038132C9F680912A039091E5
:102110002B03029798F68091E800877F8093E80070
:102120008091E80082FF3BC08091F3009091F20023
:10213000892798278927029731F48091F10081300F
:1021400011F0863021F48091F10080931903809181
:10215000E8008B778093E8000E947804AFCF8091ED
:102160002603813A09F0AACF8091E800877F809307
:10217000E80080912A0390912B03892B61F060E0A5
:1021800090E080E070E00E9424058091E8008B7769
:102190008093E80093CF68E08AE193E0F3CF8091E9
:1021A00024038111BDCF8ACF80912603813A09F0A3
:1021B00085CF80912A0390912B03892B09F07ECF44
:1021C0008091E800877F8093E8008091E80080FF9D
:1021D000FCCF80914D018093F1008091E8008E77D3
:1021E000B9CF80912603813209F068CF80912A030C
:1021F00090912B03892B09F061CF8091E800877FB4
:102200008093E8000E9478048091280380934D0118
:102210000E942D1053CF80912603813209F04ECFBA
:102220008091E800877F8093E8000E947804809185
:1022300029038093180342CF80912603813A09F045
:102240003DCF8091E800877F8093E8008091E8008F
:1022500080FFFCCF80911803BECF803889F0823890
:1022600049F580912A038F70873020F58093E9002B
:102270008091EB0085FB882780F91092E90006C069
:102280008091220390912303911182609091E80044
:10229000977F9093E8008093F1001092F100809175
:1022A000E8008E7727C0282F2D7F21F48823A1F006
:1022B000823029F18091E80083FF0AC08091E80014
:1022C000877F8093E8008091EB0080628093EB0031
:1022D000AA96E3E00C94FF2880912803813051F7FF
:1022E000933009F080E0809323031092E9008091FD
:1022F000E800877F8093E8000E947804DBCF80911C
:1023000028038111F2CF80912A038F702FEF280FBD
:10231000263080F68093E9002091EB0020FFE5CF86
:10232000933031F48091EB0080628093EB00DDCF3D
:102330009091EB0090619093EB0021E030E001C0C0
:10234000220F8A95EAF72093EA001092EA00809122
:10235000EB008860EACF8111ADCF109128031F7781
:102360008091E3008078812B8093E3008091E800E6
:10237000877F8093E8000E9478048091E80080FFC6
:10238000FCCF8091E30080688093E30083E011112B
:1023900001C082E0809324038DCF8058823008F002
:1023A00089CF20912803309129032C3DA3E03A07DF
:1023B000A1F583E08A838AE289834FB7F894DE012E
:1023C000139620E03EE051E2E32FF0E050935700F7
:1023D000E49120FF03C0E295EF703F5FEF708E2F16
:1023E00090E0EA30C0F0C7968D939D932F5F243123
:1023F00059F74FBF8091E800877F8093E8006AE239
:1024000070E0CE0101960E9424058091E8008B7750
:102410008093E8004FCFC096E7CF80912A03909138
:102420002B03432F55274330510509F44FC078F54E
:102430004130510509F445C084E590E0EAEBF5E050
:102440004230510509F036CF2091E800277F2093D4
:10245000E80020912C0330912D038217930708F494
:102460009C0140E02115310509F063C0411161C0B4
:102470008091E80082FDC9CF80912403882329F24E
:10248000853019F28091E80083FFF2CFBECF413250
:10249000510509F43FC04232510509F00BCF83309A
:1024A000910508F007CFFC01EE0FFF1FE754FE4F28
:1024B0000190F081E02D8A549E4FDC018C9190E0D8
:1024C0001DC082E190E0EEE0F6E0BECF3327213080
:1024D0003105C1F060F02230310509F0EBCEE0E2C9
:1024E000F6E0E4918E2F90E0E0E2F6E007C0EAE447
:1024F000F6E0E4918E2F90E0EAE4F6E0009709F42C
:10250000D9CEA2CFEAE3F6E0E4918E2F90E0EAE3A1
:10251000F6E0F4CF8330910508F0CCCE880F991FF8
:10252000FC01E154FE4F0190F081E02D89E090E044
:102530008BCF80912403882309F467CF853009F479
:1025400064CF8091E80083FD60CF8091E80082FD38
:102550008FCF8091E80080FF85CF8091F30090912C
:10256000F2008927982789272115310519F088302D
:10257000910550F041E0089709F040E08091E800B3
:102580008E778093E8006ECF44914093F1003196AE
:10259000215031090196E8CF803809F08BCE809127
:1025A000E800877F8093E800809125038093F10005
:1025B00076CE81117FCE10912803123008F07ACEAA
:1025C0008091E800877F8093E800109325030E94A4
:1025D00078041123A9F084E08093240342E061ECA5
:1025E00081E00E94970442E261EC82E00E9497043D
:1025F00042E261EC83E00E949704809124035ACE6A
:102600008091E30087FDE7CF81E0E6CF0E942D10A7
:102610002FEF84E39CE0215080409040E1F700C020
:10262000000088E19AE00FB6F894A89580936000C6
:102630000FBE90936000FFCF80912F01877F809322
:102640002F01909190029D7F9093900284FF08C08B
:102650008F7E80932F01809169028260809369024E
:1026600080912F0185FF08C08F7D80932F0180917D
:1026700069028062809369020E94AD0F08958823E9
:1026800041F08095909190028923809390020E945E
:10269000AD0F0895882339F090919002892B809393
:1026A00090020E94AD0F0895882321F00E949109A5
:1026B0000E94AD0F0895882339F090916902892B0B
:1026C000809369020E94AD0F0895882309F44DC0DC
:1026D000823879F40E941E0681FF47C089E30E9478
:1026E000BB050E94AD0F89E30E94AF050E94AD0FAC
:1026F0000895833859F40E941E0680FF36C083E592
:102700000E94BB050E94AD0F83E5EECF843859F4DB
:102710000E941E0682FF29C087E40E94BB050E941A
:10272000AD0F87E4E1CF9CEF980F913AE8F290E289
:10273000980F983050F4877091E001C0990F8A95F6
:10274000EAF7892F0E949109D1CF9BE5980F93302A
:1027500028F490E080E00E94F9050895885A8B31B2
:1027600020F490E080E00E94D4050895CF93DF9399
:10277000EC010E946513CE010E94110B9E01205EA8
:1027800031092830310510F0CD2B29F40E94541363
:10279000DF91CF9108950E943F13FACFCF93882302
:1027A000D1F0C82F8238C9F40E941E0681FD13C0E3
:1027B00089E30E94BB050E94AD0F2FEF87EE93E0E7
:1027C000215080409040E1F700C0000089E30E9462
:1027D000AF050E94AD0FCF9108958338A1F40E94F8
:1027E0001E0680FDF8CF83E50E94BB050E94AD0F59
:1027F0002FEF81EE94E0215080409040E1F700C03F
:10280000000083E5E4CF8438A1F40E941E0682FD17
:10281000E2CF87E40E94BB050E94AD0F2FEF81EE4F
:1028200094E0215080409040E1F700C0000087E430
:10283000CECF8CEF8C0F813A70F4EAECF1E080EDB2
:1028400091E02191C21799F18E179F07D1F78C2F34
:102850000E94BB05BECF80E28C0F883068F4C77041
:1028600021E030E001C0220FCA95EAF780916902A9
:10287000822B80936902ADCFEBE5EC0FE33040F49F
:10288000F0E0E059FE4F808190E00E94F905A3CF6F
:10289000C85ACB3108F09FCFEC2FF0E0EE0FFF1FAE
:1028A000ED58FE4F808191810E94D40594CF8C2FEA
:1028B0000E94AF050E94AD0FCACFCF93DF93EC010A
:1028C0000E94110B9E01205E31092830310510F065
:1028D000209741F40E945B138C2F0E94CE13DF914E
:1028E000CF9108950E944A13F7CFB0E0A0E0EBE744
:1028F000F4E10C94DF28EC018B0180912F0182FF21
:1029000085C0E0908C02F0908D02EC16FD0619F067
:10291000209709F07BC080912F018B7F80932F013E
:1029200081FD6DC080918A0290918B02A801481BA5
:10293000590B81E020912D0130912E014217530750
:1029400008F480E08170D82E80912F01D0FA81F9AF
:1029500080932F01E701DD27FE0184E0F695E795DE
:102960008A95E1F7EE0FFF1FE659FD4F2081318177
:10297000A7014F70552781E090E002C0880F991F92
:102980004A95E2F7DD20E9F1822B932B9183808336
:102990008091690281FF08C080912F01806180933E
:1029A0002F0182E00E9491098091690285FF08C091
:1029B00080912F01806280932F0180E20E94910913
:1029C000DD2029F080919002826080939002C701FF
:1029D00090528115904308F0E701CE010E945D14EA
:1029E00080918C0290918D029C01305221153043D0
:1029F00008F499270E94B6130E941C1317C081E0A7
:102A0000A1CF8095909582239323C0CFCE01905281
:102A100081159043A0F4CE0199270E94B6138091AE
:102A20008C0290918D02C817D90731F310938B0255
:102A300000938A02CDB7DEB7E7E00C94FB28CE0105
:102A4000ECCF1F93CF93DF93182FEB010E94CE138F
:102A5000209739F4812F0E946513DF91CF911F9148
:102A600008958FE99FE00197F1F700C000002197DA
:102A7000EFCF0F931F93CF93DF93C62FD42F122F37
:102A8000FC0185818823A9F060937A030E94A30545
:102A90009093790380937803C77081E001C0880F19
:102AA000CA95EAF70E945B13DF91CF911F910F91B6
:102AB000089580917A03681334C0809178039091CF
:102AC00079030E948805883C910558F500E20D0FB6
:102AD000CD17B9F080E28C0F883040F4C77081E0E8
:102AE00001C0880FCA95EAF70E945413083000F518
:102AF00081E09D2F977001C0880F9A95EAF70E9498
:102B00005B1370E060E0812F0E942115083060F6B1
:102B1000D77081E001C0880FDA95EAF70E9454135C
:102B2000C3CFC77081E001C0880FCA95EAF7F6CF1E
:102B300070E060E0812F0E942115B6CFB0E0A0E0E8
:102B4000E4EAF5E10C94D428FC012481222309F461
:102B5000ADC08C0161E00E94E10AEC01F8018581C1
:102B6000C134FEE7DF0709F4A6C008F076C0C03420
:102B70003EE7D30709F480C08111B3C00E94A305CA
:102B80004C01F8018581882309F4BAC280912F0194
:102B900082FF07C04DE552E0B40190E080E00E9462
:102BA0007514C231FCE7DF0709F4A1C108F070C158
:102BB000C0313CE7D30709F494C1C1318CE7D80791
:102BC00009F485C1CE0190528115904308F0A7C247
:102BD00010928D0210928C02F8018581882309F4ED
:102BE00014C710927A03CE019057839708F0FCC661
:102BF00084E090E00E94132990934802809347025A
:102C0000FE01E150F047E232F10508F04AC3E55F0A
:102C1000F94E0C94AF298B19001A93195D1961199B
:102C2000971965199B19A7197119F9197519AB1914
:102C30007919AF19D7197D19B319DE198319B91983
:102C4000C11969199F196D19A3198719BD19CD19D2
:102C5000E719F71957198F19071AC2349EE7D907D0
:102C6000B1F1C334EEE7DE0709F086CF8823A9F17E
:102C700083E00E948B0A0BC0882349F061E083E067
:102C800090E00E94292981E090E00E949B0A8091B7
:102C90000202877059F0F8018581882339F080910C
:102CA000480282FF03C082E00E94740ACDB7DEB7FB
:102CB000E2E10C94F028882321F081E00E948B0A45
:102CC00003C081E00E94620A0E94520AE0CF88237A
:102CD00011F082E0F3CF82E0F5CF83E00E94620A38
:102CE000D6CFC230F8E7DF0709F49EC060F4C11503
:102CF00038E7D30709F440C0C13088E7D80709F0A6
:102D00003DCF80E03AC0C43098E7D90709F467C0E6
:102D1000B8F1C530F8E7DF0709F030CF90916802CD
:102D2000892F8695869586958F5F8F7197708630EF
:102D300008F0ABC0880F880F880F892B809368023A
:102D400080916802887F91E009F490E080916802A8
:102D500090FB80F9809368020E94420C8091670288
:102D600080FF37C0809168028695869586951F9270
:102D70008F9388EA91E025C085E00E94480C87CFB8
:102D800080916802982F987F79F08850809368022C
:102D9000887F91E009F490E08091680290FB80F9CF
:102DA000809368020E94420C8091670280FF11C0EC
:102DB000809168028695869586951F928F938FE401
:102DC00091E09F938F930E94EB030F900F900F90D1
:102DD0000F908091680286958695869553C0809164
:102DE0006802982F969596959695953040F49F5F3A
:102DF000990F990F990F8770892B809368028091A2
:102E000068028160809368020E94420C8091670290
:102E100080FFDFCF809168028695869586951F9208
:102E20008F9387E691E0CDCFC0916802C170809109
:102E3000670280FFD4C51F92CF9382E991E09F93F0
:102E40008F930E94EB030F900F900F900F90CC2365
:102E500009F4C7C58091680280FF19CF809168028C
:102E60008E7F809368020E94420C8091670280FFEF
:102E700008C08FE791E09F938F930E94EB030F9020
:102E80000F9080E00E94740602CF9093680258CFA2
:102E9000C4319CE7D907B9F080F090912F01892FB8
:102EA0008E7F90FF8160C531FCE7DF0709F08ACE95
:102EB00080932F010E941C1385CE80912F01816089
:102EC00080932F017FCE80912F018E7FF1CF809153
:102ED0002D0190912E01059690932E0180932D0146
:102EE00071CE80912D0190912E010597F5CF4090E4
:102EF0002D0150902E018091000190910101481602
:102F0000590621F48091D6018032B9F15092010125
:102F10004092000180E28093D601712C612C1092C6
:102F2000D50175EDE72E71E0F72EEAE0AE2EB12C5B
:102F3000C12CD12C1701C301B201A60195010E9439
:102F40008D29605D603319F42E143F0431F0411473
:102F500051046104710409F460E2F70162937F0196
:102F6000C301B201A60195010E948D2929013A01F0
:102F7000F0EDEF16F1E0FF06F1F680ED91E07C0157
:102F80000196F70120812032D1F36AE0462EF70145
:102F90002081222309F416CE213009F056C0818108
:102FA000813099F46701F2E0CF0ED11CF7018281E4
:102FB00060E570E0893311F070E060E00E94211557
:102FC00076019FEFE91AF90AE2CF823049F46701EE
:102FD000F2E0CF0ED11CF70182810E94CE13F0CF18
:102FE000833049F46701F2E0CF0ED11CF7018281F2
:102FF0000E946513E5CF843021F0FFEFEF1AFF0A3E
:10300000E0CF2281C70102967C0190E080E0A70119
:103010004F5F5F4F2053330B2A30310550F000973C
:1030200081F2EFE9FFE03197F1F700C0000001976E
:10303000F6CF489EB001499E700D1124C901860F3C
:10304000971FF70121817A01E2CFE22FF0E0E451EE
:10305000FE4F5490822F86958695869590E0FC01D0
:10306000E452FE4F64902770712C022E02C07594BA
:1030700067940A94E2F7F1E06F227724FC01E453AD
:10308000FE4FA490B12C022E02C0B594A7940A94CE
:10309000E2F731E0A322BB24FC01E454FE4FC490CC
:1030A000D12C02C0D594C7942A95E2F781E0C822BA
:1030B000DD246114710419F081EE0E94CE13A11475
:1030C000B10419F086EE0E94CE1370E060E0852D09
:1030D0000E942115A114B10419F086EE0E94651317
:1030E0006114710419F081EE0E946513C114D104BA
:1030F00009F467CF70E060E08CE20E94211561CF97
:1031000080912F018F7EC13ED10539F0C53ED1059A
:1031100009F04FC080912F018F7D80932F01809106
:103120002F0180FF4CC0F8018581CB32D10549F0D9
:1031300008F04DC09E01245031092432310508F0B9
:1031400051C0882309F489C080910B0290916902D3
:10315000982B292F2D7F09F45DC010928D021092BB
:103160008C02FE0144E0F695E7954A95E1F7EE0FF3
:10317000FF1FE659FD4F9E012F70332781E090E03D
:1031800002C0880F991F2A95E2F7809590952081BB
:1031900031818223932391838083CE010E945D1429
:1031A00080910B028D7F0E94870982E00E94740A41
:1031B0006ECDCE0190528115904308F0B0CFFE0144
:1031C000E851FC47E730F10508F006CD18C0CD32D4
:1031D000D10540F0C933D10508F4B3CFC436D105C9
:1031E00009F4AFCF882359F310928D0210928C020C
:1031F000FE01E851FC47E730F10508F0F2CCED5F45
:10320000F64E0C94AF293E19421933193A19461952
:103210004A194E1929E0F801ADE5B2E001900D928E
:103220002A95E1F71092600210925F0220912F011F
:1032300091FB21F920932F018D7F0E948709D09364
:103240008D02C0938C0290928B0280928A028091B0
:103250002F01846080932F01A8CFA801B401CE0173
:103260000E94751414CD26E241EE61EEC8010E9461
:1032700039150DCD27E245EE65EEF8CF26E241EE99
:1032800060EEF4CF27E245EE64EEF0CF26E241EEA9
:1032900062EEECCF27E245EE66EEE8CF28E241E0B1
:1032A000EBCF8091470281608093470295C0809167
:1032B00048028860809348028FC0809147028260F4
:1032C000F3CF809147028460EFCF809147028860FE
:1032D000EBCF809148028160EDCF809148028260FF
:1032E000E9CF809147028061DFCF80914702806201
:1032F000DBCF809147028064D7CF0E942D10809150
:1033000047028068D1CF809147028860DCCF8091EE
:1033100048028260E0CF809147028E7FC5CF8091C6
:103320004802877FC7CF809147028D7FBDCF8091B4
:1033300047028B7FB9CF80914702877FB5CF8091BD
:1033400048028E7FB7CF809148028D7FB3CF8091A6
:1033500047028F7EA9CF809147028F7DA5CF8091B4
:1033600047028F7BA1CF0E942D10809147028F775B
:103370009BCF80914702877FDCCF809148028D7F71
:10338000E0CF8091470282FB992790F921E09227B4
:1033900090FB82F990FB83F987CF80914802982FA8
:1033A000909591708E7F892B90FB81F983CF9091BE
:1033B0004702892F8F7B96FF806476CF0E942D1065
:1033C00090914702892F97FB87F980586DCF61E074
:1033D0008EE090E00E942929609147027091480296
:1033E00084E090E00E9447290E942D1050CC60E0BC
:1033F000EFCF90914702892F8F7E94FF806154CF49
:1034000090914702892F8E7F90FF81604DCF9091E0
:103410004802892F877F93FF88604CCF85E30E9405
:10342000BB050E94AD0F33CC85E3F8C2C330FCE787
:10343000DF0709F49EC008F05AC0C1303CE7D3074B
:1034400009F49DC008F07FC0C115DC4709F45FC0D6
:10345000F80187819085009709F49FC00E94710848
:10346000D82FC92FF801D580C680C2943FE0C3226F
:1034700080910202877001F1ED2CDD20F1F0892F9F
:10348000807F803461F080E28D0F8830A8F0892F32
:10349000807E803221F4D23078F0CC2069F08091A7
:1034A000480282FF09C082E00E94740A80910202F1
:1034B0008770EE24E3948111E12CFC2EF2942FE02E
:1034C000F222FBE0FF1508F4DEC0EF2DF0E0E55935
:1034D000F54E0C94AF29E41AE41A1D1B1D1BB41BF6
:1034E000431B431B431BD51B5E1C6F1C6F1CCB3542
:1034F000ECE7DE0709F44FC0CC35FCE7DF0709F441
:1035000040C0CA35DC4709F0A3CF81E041C00E942A
:103510002D103FEF84E39CE0315080409040E1F774
:1035200000C0000087E797E79093010880930008A8
:1035300088E19AE00FB6F894A895809360000FBEDA
:1035400090936000FFCF90916702892F8E7F90FF4C
:1035500081608093670280FF09C08EE792E09F93AD
:103560008F930E94EB030F900F9091CB8CE692E02B
:10357000F6CF6FEF7FEF90E080E00E9447290E9436
:1035800006138091480282FB882780F991E0892701
:103590000E94A00C5DCF80E0FBCF8581C081D181EE
:1035A000882369F0CE010E94A309F82E682FCE016E
:1035B0000E94170ABE018F2D0E9453084FCFCE01E3
:1035C0000E94E409F82EF6CF2C2F2F70F22EC07F28
:1035D00019F0F29490EFF922DD20B9F0FF2069F0A4
:1035E00080E28D0F883010F0D11109C080916902FE
:1035F000F82AF09269020E94AD0F8D2F42C080918F
:103600009002F82AF0929002F6CF8D2F0E94651357
:10361000FF20C9F180E28D0F883010F0D11104C075
:103620008F2D0E94910906C0F09480919002F8229B
:10363000F09290020E94AD0F26C03C2F3F70F32EF7
:10364000C07FC03219F0F29480EFF822DD2349F0F8
:10365000D13009F469C0DD2009F475C0CC20C9F16E
:10366000CCCF8091480282FD30C0DD2041F1FF20A7
:1036700039F080916902F82AF09269020E94AD0F38
:1036800080E00E94CE13EE20A9F08091020280FD1E
:1036900011C0F80115828695869586950E948B0A41
:1036A000C8010E949E158091020286958695869596
:1036B0000E94620A60E0C8010E94E10AF7CA80E045
:1036C0000E946513FF20F9F2ABCFDD2099F0C11005
:1036D00004C08F2D0E945B13D6CF81E0C812D3CFD8
:1036E00080910B029F2D9823F91669F2F82AF09227
:1036F0000B02C9CFC110C7CF8F2D0E9454139091D8
:103700000B028F2D892329F08F2D8095892380939B
:103710000B028091D8019F2D982309F4B4CFF09427
:10372000F822F092D801AFCFDD2029F095E09C156A
:1037300008F4A9CFCECFE4E0EC1508F4A4CF8F2D88
:103740000E945413A0CFCC20D1F3D93349F4FFEF1A
:1037500027EE33E0F15020403040E1F700C0000098
:103760008D2F0E9465138FCF8C2F86958695837041
:1037700041F0813081F088EF8F0D843008F083CFE5
:1037800048C08D2F9C2F9370D11002C080E090E034
:103790000E94F90578CF8D2F9C2F9370D11002C015
:1037A00080E090E00E94D4056ECF8C2F837009F0EA
:1037B00041C0D1102EC04D2F429546954770440F01
:1037C000440F2D2F2F7030E0042E02C0220F331F24
:1037D0000A94E2F790E080E0D4FF09C08FE090E027
:1037E00002C0880F991F4A95E2F780959095C6957B
:1037F000C695C370C230A9F088F44091450250913B
:103800004602C13049F0822B932B842395230E94DA
:103810009B0A0E941E0637CF242B352B822B932B1D
:10382000F6CF822B932B20914502309146028227BE
:103830009327EDCF8695DD2011F08C2F81708823A2
:1038400041F34D2F429546954770440F440F2D2F5D
:103850002F7030E0042E02C0220F331F0A94E2F7CB
:1038600090E080E0D4FF09C08FE090E002C0880FB4
:10387000991F4A95E2F780959095C695C695C370B5
:10388000C23099F078F440917B0350917C03C130B1
:1038900039F0822B932B842395230E944D0AB9CFB4
:1038A000242B352B822B932BF8CF822B932B20911B
:1038B0007B0330917C0382279327EFCFCF70DD20ED
:1038C00039F08C2F0E948B0A8D2F0E945B13A1CFA1
:1038D0008D2F0E9454138C2F0E94620A9ACFD23FE0
:1038E000D1F170F4D03FD9F0D13F91F0DD2009F44F
:1038F00062C0CC2009F45CC08D2F0E94CE133BCF58
:10390000D33F81F1D43F91F79091480292FD37C0A7
:103910008C2F8F71DD2019F10E948B0A2CCFDD20B6
:10392000A9F084E08C1508F426CFCF7181E090E0F7
:1039300002C0880F991FCA95E2F720917B0330914E
:103940007C03822793270E944D0A15CF95E09C1592
:1039500008F411CFEACF8C2F8F71DD20E9F20E949D
:10396000620A09CF90E080E0DD2069F3CF7181E049
:1039700090E002C0880F991FCA95E2F7E4CFDD20DE
:1039800061F08C2F8F7192FFC7CFE8E08E9F90017E
:103990001124236020930202BFCF81E00E94740AA9
:1039A000F1E0FC1508F0E7CE82E00E94740AE3CE55
:1039B0008C2F8F71B1CFCC2079F0D93349F42FEF10
:1039C00037EE83E0215030408040E1F700C0000036
:1039D0008D2F0E946513CFCE8C2F8F71C0CFC11158
:1039E0003DCA0E944F0C53C9C631FCE7DF0709F0FE
:1039F0001DCD809169028A7A91E009F490E090935C
:103A0000D70181110BCD89E20ACDC631DC4709F01F
:103A10001FCD8091D701811107CD89E20E94AF05AA
:103A200000CDCF93DF938091FF01807F09F04DC0DF
:103A30008091FE01882309F448C0E09177035091FA
:103A40002E03C091FA01D091F9016091FB017091B0
:103A5000FC0149E05E17C9F18E2F90E0E49FF00170
:103A60001124E15DFC4F2481222391F1489FF00154
:103A7000499FF00D1124DF01A15DBC4F11962C91DF
:103A800011972C1325C02C912D1322C015962C9123
:103A9000159721111DC012962D913C91261B370BB5
:103AA000283C3105A8F48091FF018F7080618093DC
:103AB000FF01EB5CFC4F80818F708061808389EF18
:103AC00091E00E949E150E949909DF91CF9108957F
:103AD000FC013196E770BECFA8E1B0E0E2E7FDE17E
:103AE0000C94DA288C0186E0F801DE0153960190EF
:103AF0000D928A95E1F7F8018481E58099EFA92E6E
:103B000091E0B92E9091FD01911128C0882319F1FF
:103B1000EE20F1F0C8010E94A00AF82E8823C1F01F
:103B200089E0F801D50101900D928A95E1F7809125
:103B3000FD01813031F48091F9019091FA010E94E8
:103B4000D7090E94111D8F2D6896ECE00C94F62881
:103B5000C8010E949E15FF24F394F5CFD080C18048
:103B600082809380F090FE012091FB013091FC0156
:103B7000A401421B530BFF2009F40CC1483C510522
:103B800008F0B5C08823F9F29091FA018091FF0105
:103B9000282F207F09F05EC0C9121DC09091F90145
:103BA000D91219C04091000250910102278130853D
:103BB0004217530781F4E11047C08F7080618093F2
:103BC000FF0189EF91E00E949E158091FF01F801AD
:103BD0008683F12CB8CFE11037C06C2D8D2D0E945B
:103BE000F4036C2D8D2D0E94F403E82E8111F1CF8A
:103BF000DB8ACC8A8B899C890E94D709292F229540
:103C00002F70243058F49F70223080F0992391F067
:103C1000F8019681907F71F4FE2C95CF2A502230C6
:103C200068F0C8010E949E15EF2CF6CF992311F081
:103C3000882391F3805E8830A0F7EECF803F60F359
:103C4000815F833070F7E8CF8091FF0181608093BE
:103C5000FF01BFCFC9121CC09091F901D91218C041
:103C6000409100025091010227813085421753078D
:103C700079F4E1100DC08683C8010E949E1589E089
:103C8000F801A9EFB1E001900D928A95E1F75BCFC1
:103C9000C8010E94A00A882309F45ACFEE2009F433
:103CA00057CF8091FF018032B8F02091F901309117
:103CB000FA013B872A879D868C869091FD019E871D
:103CC0001F86888B80910002909101029A8B898BCC
:103CD000CE010A960E949E1589E0F801A9EFB1E095
:103CE00001900D928A95E1F70E94111D34CF9091B9
:103CF000FF01292F207F51F489EF91E00E949E154A
:103D000089E0F50111928A95E9F763CF882309F4D8
:103D10001ACF8091FA018C1119C08091F901D81243
:103D200015C0409100025091010227813085421751
:103D3000530761F4E1100AC09683C8010E949E15E2
:103D400089E0F50111928A95E9F7FDCEC8010E943C
:103D5000A00A882309F4FCCEEE2009F4F9CE809164
:103D6000FF01803208F4B8CF2091F9013091FA01B7
:103D70003A8329839C828B829091FD019D831E82D0
:103D80008F83809100029091010299878887CE01EC
:103D90000196A0CF483C510598F6882309F4DBCE64
:103DA000FE2CEE2009F4D4CE8091FA018C1120C0B3
:103DB0008091F901D8121CC02091000230910102BB
:103DC000878190852817390799F49091FF0190FD1C
:103DD00056CF907F09F453CF8091FF018683903FA7
:103DE00009F44ACF982F907F905F8F70892B43CF33
:103DF000C8010E94A00A81116FCF8091FF018160EC
:103E00008093FF01C8010E949E159DCEA2E1B0E003
:103E1000ECE0FFE10C94E2280A871B872C873D87A2
:103E20004E875F87688B798B8A8BCE010A960E94BA
:103E30006C1D81112AC089E0FE013A96DE011196BF
:103E400001900D928A95E1F78E858823F1F02091FB
:103E50002E0330E0C90101968770992740917703BE
:103E60004817190659F199E0929FD001939FB00D20
:103E70001124A15DBC4FFE01319601900D929A95DF
:103E8000E1F780932E030E94990919E0809177034E
:103E900090912E038917F9F0819FC0011124815D53
:103EA0009C4F0E946C1D8823B1F08091770390E0B5
:103EB00001968770992780937703E8CF0E942D1091
:103EC00010922E031092770389E0E9EFF1E0DF0111
:103ED0001D928A95E9F76296E4E00C94FE28EF9231
:103EE000FF920F931F93CF93DF93809192028823C9
:103EF00061F0E09191028DE0F82E80919202E81736
:103F000048F01092920210929102CDB7DEB7E6E02F
:103F10000C94FC28EE24E394EE0EE0929102CE2F56
:103F2000D0E0EF9DF0011124ED56FD4F84818823F0
:103F3000E9F087819085892B21F48185928501960E
:103F400059F4008111812281338144815581668138
:103F5000778180850E94061FFC9EF001FD9EF00D7A
:103F60001124ED56FD4F148210929002EE2DC5CF14
:103F7000109206031092050310924C0180910403E5
:103F8000809303030E9462060E946F1F0895B0E0B1
:103F9000A0E0EDECFFE10C94D428C091030397E07E
:103FA000892E01E010E02DE0922E34E0232E809146
:103FB00004038C1309C00E946F1F0E946206CDB7D4
:103FC000DEB7E2E10C94F028D0E0FE01EE0FFF1F17
:103FD000E550FD4F80819181B0E0A0E084309105F3
:103FE00038F4889ED001899EB00D1124A05DBE4F8B
:103FF00014962C911497211152C03090920243E9EB
:1040000052E030E020E0412C231508F046C0FA01D0
:10401000C384D4846D907C9011976FEF7FEF512C07
:10402000A52CB12CF501EE0FFF1FE60DF71DE59055
:10403000F490CE14DF0409F4B501E114F10411F099
:104040005394EECF6F3F760779F1F80102C0EE0F7F
:10405000FF1F6A95E2F74E2AB801052C02C0660FD1
:10406000771F0A94E2F76150710946161706D1F4DA
:1040700012964D915C911397929EF001939EF00DD4
:104080001124ED56FD4F5087478324821082118200
:1040900092878187F1E01596FC930E942F06219666
:1040A000C37085CFFA0114822F5F3F4F435F5F4F8C
:1040B000ABCFAEE1B0E0EFE5F0E20C94D4284B8B4F
:1040C0005C8B6D8B7E8B8F8B988F911110929002F1
:1040D000188A198A1A8A86E0FE017396DE011A96FA
:1040E00001900D928A95E1F78E8581110FC00A85A6
:1040F0001B852C853D854E855F85688979898A89F0
:104100000E94061F6E96E2E10C94F02861E0CE0159
:104110000A960E94E10A6C018F8520E5C2162CE701
:10412000D20651F48823F1F081E080934C0181E0C4
:1041300090E080FDDCCFE6CF41E5C4164CE7D40625
:1041400029F4882379F00E94B81FF1CF52E5C516F3
:104150005CE7D50639F4882329F080914C01882347
:1041600019F3F1CFB0E3EB2EB1E0FB2E512CB12CC3
:10417000A12C88248394912C87E0482EBE016F5F88
:104180007F4F7A8F698F33243394F70140815181B7
:104190009FEF8FEF20E0622E712CF301EE0FFF1FD7
:1041A000E40FF51F65917491C616D70611F0692EBC
:1041B000782E672B21F02F5F962D872DECCF10E006
:1041C000FFEF6F167F0609F443C0F7014481109199
:1041D0004C01812F411180E0182F1170F7012580CB
:1041E00086819F85992309F4FAC0112309F4F7C049
:1041F000211014C0A401062C01C0440F0A94EAF750
:10420000842B868380918E0290918F02C29730F426
:1042100042E350E050938F0240938E02C40102C0EB
:10422000880F991F2A95E2F70197F7012681281731
:10423000190671F48091050390910603009709F423
:104240004AC00E948805C39708F445C0F70134822C
:10425000512AFFEFAF1ABF0A27E0E20EF11C44E03B
:10426000A416B10409F091CF8F85882309F416C1F3
:10427000552009F413C10E94A3059093060380936F
:10428000050380919202883010F591E0980F909389
:10429000920299E0FE013A96DE01119601900D928C
:1042A0009A95E1F75DE0859FC00111248D569D4FE1
:1042B00029E0FE013196DC0101900D922A95E1F78B
:1042C0002FEF3FEFFC0132872187D486C38681E040
:1042D0005826852D2ECF8091030360910403982FDB
:1042E000F0E0E0E0861314C090930303EE16FF069F
:1042F00009F4AECF90E0FC01EE0FFF1FE550FD4F3B
:10430000B182A08201968370992780930403A0CF85
:10431000282F30E0F901EE0FFF1FE550FD4F4081DF
:104320005181B0E0A0E04430510538F4449ED00102
:10433000459EB00D1124A05DBE4F4D915C9111972B
:104340005E8F4D8F00E070E0212CE22DF0E0EE0F4B
:10435000FF1F4D8D5E8DE40FF51F65907490611405
:104360007104E1F0F7010190F081E02DFC8FEB8FFB
:1043700070E005C06416750609F4012F7F5FE72F12
:10438000F0E0EE0FFF1F4B8D5C8DE40FF51F4591A4
:1043900054914115510571F72394D7CF002329F08B
:1043A000721530F0FD01109721F4F0E0E0E012C04A
:1043B000F7013482EE16FF0621F490930303102FC9
:1043C00047CF891307C0AE17BF0721F4C901019673
:1043D000982F93702F5F3F4F822F837083CF90E091
:1043E000211020C0B40102C0660F771F2A95E2F7A2
:1043F0009B01215031098217930731F4442309F4BA
:104400004BC0C5010E942F06C401062C01C0880FB5
:104410000A94EAF7982F9095F7018681892386837D
:10442000122D16CFAC01062C02C0559547950A9463
:10443000E2F7BA01617077279C012150310982238C
:104440009323892B29F5672B19F1F7018281938139
:10445000892BD9F0E98DFA8D242D11922A95E9F74F
:104460000E94A305282F8B839C8344E04D83F70192
:1044700082819381782F8887998709811A813C816D
:104480005E816F81892F0E94061FF7011582BCCFC4
:10449000F42FF1702F2EB8CF212EB6CF90910303B9
:1044A00080910403981719F00E94C71F10CF0E9433
:1044B0006F1F10920603109205030E94620607CF39
:1044C000A6E0B0E0E6E6F2E20C94E2280E94A30542
:1044D0008C0180910C0290910D028017910781F060
:1044E00019821A820E94A305682F49815A81792F67
:1044F00080E090E00E94592010930D0200930C027E
:104500002696E4E00C94FE281F920F920FB60F92AD
:1045100011242F933F934F935F936F937F938F93C8
:104520009F93AF93BF93CF93EF93FF93C091E90015
:10453000CF708091EC001092E9008091F000877FAD
:104540008093F00078940E9443101092E9008091CB
:10455000F00088608093F000C093E900FF91EF9134
:10456000CF91BF91AF919F918F917F916F915F910B
:104570004F913F912F910F900FBE0F901F90189564
:104580001F920F920FB60F9211242F933F934F93C8
:104590005F936F937F938F939F93AF93BF93EF93AB
:1045A000FF938091E10082FF15C08091E20082FFBD
:1045B00011C08091E1008B7F8093E1002091160370
:1045C0002F5F822F62E30E946D29992309F4CEC0E8
:1045D000209316038091DA0080FF2CC08091D800D0
:1045E00080FF28C08091DA008E7F8093DA0080916E
:1045F000D90080FFF2C080E189BD82E189BD09B4A4
:1046000000FEFDCF81E08093240386EA95E09F932E
:104610008F930E94EB03809117030F900F908111ED
:1046200009C00E942A040E94C9048091E2008460AB
:104630008093E2008091E10080FF1FC08091E20042
:1046400080FF1BC08091E2008E7F8093E20080910A
:10465000E20080618093E2008091D80080628093C4
:10466000D80019BC85E0809324038EEA95E09F93DF
:104670008F930E94EB030F900F908091E10084FFD5
:1046800031C08091E20084FF2DC080E189BD82E1CC
:1046900089BD09B400FEFDCF8091D8008F7D809345
:1046A000D8008091E1008F7E8093E1008091E2004C
:1046B0008F7E8093E2008091E20081608093E2002F
:1046C00080912503882309F496C084E08093240315
:1046D00082EB95E09F938F930E94EB0380912403DC
:1046E0000F900F908091E10083FF2FC08091E20036
:1046F00083FF2BC08091E100877F8093E10082E0FF
:1047000080932403109225038091E1008E7F809393
:10471000E1008091E2008E7F8093E2008091E200D0
:1047200080618093E20042E060E080E00E949704B4
:104730008091F00088608093F00086EB95E09F9375
:104740008F930E94EB030F900F90FF91EF91BF9119
:10475000AF919F918F917F916F915F914F913F9119
:104760002F910F900FBE0F901F9018951092160367
:1047700080911503882309F42DCF80912403843080
:10478000B9F49091E9009F708091EC0080FD13C016
:1047900080E0892B93E09093E9009091EB0090FFEB
:1047A00004C09091EE0097FD0AC08F708093E900DD
:1047B000109215030FCF80E8ECCF1092F10090918A
:1047C000E80095FDFACF9091E80090FFEECF909130
:1047D000E8009E779093E800E8CF19BC109224037C
:1047E0008AEA95E09F938F930E94EB031092170340
:1047F0000F900F901FCF8091E30087FD02C081E0F2
:1048000065CF83E063CF78941F920F920FB60F921B
:1048100011248F939F93AF93BF9380911003909136
:104820001103A0911203B09113030196A11DB11DB4
:104830008093100390931103A0931203B09313037A
:10484000BF91AF919F918F910F900FBE0F901F90CE
:1048500018951F920F920FB60F9211248F939F936A
:10486000AF93BF9380910F03811113C08091100308
:1048700090911103A0911203B09113034196A11DD1
:10488000B11D8093100390931103A0931203B09372
:104890001303BF91AF919F918F910F900FBE0F9017
:1048A0001F901895A8E0B0E0E8E5F4E20C94D42855
:1048B00085B7806885BF85B7806885BF84B7877FE7
:1048C00084BF0FB6F894A8958091600088618093AA
:1048D0006000109260000FBE80E890E00FB6F89480
:1048E00080936100909361000FBE82E49BE09093FF
:1048F000C7018093C6010E942A040E94C9048091C6
:10490000E20084608093E2007894809124038823FD
:1049100099F01091E9001F708091EC0080FDC0C1FA
:1049200080E0182B1092E9008091E80083FD0E943E
:1049300043101F701093E90082E084BD93E095BDA1
:104940009AEF97BD80936E00109235021092360256
:1049500010923702109238028091D80080618093C3
:10496000D8002AE12A95F1F700C08091D900182FCC
:10497000117080FD04C00E942A0410922403109339
:104980000703109308031093220111110E9471274D
:10499000809122018091220195E0811190E0909315
:1049A000440285E0891B809343020BEA11E0E0EBAF
:1049B000EE2EE1E0FE2ED8018D918D018F3F11F09A
:1049C0000E942F07E016F106B1F700EB11E076EB3D
:1049D000E72E71E0F72EF80181918F018F3F11F0E2
:1049E0000E942F07E016F106B1F78AE0E9E4F2E051
:1049F000DF01282F1D922A95E9F7E9E3F2E0DF01B4
:104A00001D928A95E9F790E080E00E941329853E87
:104A10009E4F09F466C065EE7EEF90E080E00E9454
:104A2000472960E082E090E00E94292981E090E03F
:104A3000909346028093450261E083E090E00E94FB
:104A4000292960E074E184E090E00E94472960E059
:104A500086E090E00E94292960E087E090E00E94D3
:104A6000292940E050E0BA0188E090E00E943B290B
:104A700060E083E290E00E94292960E08CE090E011
:104A80000E94292960E08DE090E00E942929198286
:104A90001A821B821C821D821E821F82188648E099
:104AA00050E067E170E0CE0101960E94192940E0D4
:104AB00050E0BA018FE190E00E943B290E944F0C28
:104AC00083E00E94480C40E050E0BA018FE090E0A3
:104AD0000E943B2940E050E0BA0183E190E00E944F
:104AE0003B2982E090E00E940B298093670284E0DA
:104AF00090E00E941329909348028093470283E03C
:104B000090E00E940B2990E00E949B0A259A2D9824
:104B100082E88093800089E1809381008FEF9FEF8E
:104B200090938700809386000E94730C0E94730C00
:104B300080910703811102C00E94742783E291E0F3
:104B400090930C0380930B03809124038530B9F478
:104B50008091670280FF08C0E4E0F5E0FF93EF93E7
:104B60000E94EB030F900F9080912403853009F48D
:104B700099C00E942D100E94730C0E941E060E9474
:104B80001B0E53E5452E52E0552E69E4262E62E0B9
:104B9000362ED101F20191918D9122E0ED35F2078F
:104BA00009F4B8C09817B9F38091670281FF41C03A
:104BB00089E295E09F938F930E94EB030F900F90F3
:104BC00089E4C82E82E0D82E10E000E094E2892E1D
:104BD00095E0992E21E2A22E25E0B22E3CE1E32EB3
:104BE00035E0F32E4AE1642E45E0742E1F930F93B7
:104BF0009F928F920E94EB03BF92AF920E94EB03B1
:104C0000D6018D916D010E94C90A1F928F93FF9268
:104C1000EF920E94EB037F926F920E94EB030F5F73
:104C20001F4F0FB6F894DEBF0FBECDBF0A3011057F
:104C3000E9F6C090070310E0D1010D911D01F201CA
:104C4000D1902F01D01631F1F12CEE24E394D0262F
:104C50008D2D8E21B9F0CC20A9F0F9821A830E9403
:104C6000A3059C838B83F1E0FD8391E08E2D80234F
:104C700009F490E09E8349815A816B817C818D810A
:104C80000E945920F394EE0C26E0F212E1CFF201DB
:104C9000319700831F5F1A3079F60E9446073EC0A5
:104CA00080E83FCE80912403843039F180E00E9477
:104CB000150710920F0388E190E0A0E40FB6F89476
:104CC000A895809360000FBEA093600083B7817F9A
:104CD000846083BF83B7816083BF7894889583B7EE
:104CE0008E7F83BF0FB6F894A8958091600088618D
:104CF00080936000109260000FBE0E941B0EE9E4DA
:104D0000F2E08191811178C083E592E08E179F07D0
:104D1000C1F72ACF981348CF0E94602280910703E1
:104D2000882309F441C080914C01882301F18091CE
:104D30000503909106030097D1F00E948805209109
:104D40008E0230918F022817390788F4909103035F
:104D500080910403981709F446C00E94C71F10925F
:104D60008F0210928E02109206031092050380911A
:104D70002F0182FF19C00E94A30520918A02309161
:104D80008B02AC01421B530B20912D0130912E015F
:104D90004217530748F04DE552E0BC0180918C0268
:104DA00090918D020E9475140E941E06182F80910A
:104DB0006602181709F4C8CE109366020E94970580
:104DC000809167028570853009F0BECE1F921F93D7
:104DD00088E395E09F938F930E94EB030F900F90D1
:104DE0000F900F90B1CE0E946F1F10920603109289
:104DF00005030E946206BBCF80912303882309F438
:104E0000B3CE90E199BDA2E1A9BD09B400FEFDCFEA
:104E10008091D8008F7D8093D8008091E0008260DF
:104E20008093E0008091E00081FDFCCF0E942D1076
:104E30009BCE8EE1489B02C08150E1F7489BFECF9C
:104E40000895589880E28A95F1F7589A0895FC01E0
:104E50003BE03A95F1F798E020E080E031E040E176
:104E60004A95F1F7880F489B02C08160232742E0F2
:104E70004A95F1F7000040E14A95F1F7915079F732
:104E800090E19A95F1F799B132E03A95F1F7000087
:104E900040E14A95F1F7917092272081920F90831B
:104EA0000895A1E0B0E0E7E5F7E20C94E02819826C
:104EB0008C017C01E60EF11C0E151F0541F481E00A
:104EC0009981911180E02196E6E00C94FC280E94E3
:104ED0001927CE0101960E942727F80181938F019F
:104EE000EBCF509A589A08955098589AE89AE9E664
:104EF000F0E080818C7F808308956150770B91E092
:104F000001C0990F6A95EAF720E031E0911108C0DD
:104F1000222391F0589A80E28A95F1F758980895E3
:104F2000492F482339F0589A232740E24A95F1F750
:104F30009695ECCF5898F9CF5898EDCFFF920F93F4
:104F40001F93CF93DF93EC018C01060F111DC01747
:104F5000D10729F4CDB7DEB7E5E00C94FD28F99030
:104F60000E94212768E08F2D0E947D27F0CF1F929D
:104F70000F920FB60F9211240F931F932F933F930D
:104F80004F935F936F937F938F939F93AF93BF9351
:104F9000EF93FF93CF93DF931F92CDB7DEB71982C4
:104FA0000E941927CE0101960E942727082F0695F7
:104FB00006950695982F92959570202F2570920F43
:104FC000292F237096959695920F877089135FC04D
:104FD000898181115CC0053008F059C080E18A9553
:104FE000F1F7589A509A82E08A95F1F700C05898E4
:104FF00088E0089F80011124D801AE5FBE4F16964D
:10500000ED91FC9117973097A9F06091A9017091EB
:10501000AA0114962D913C911597260F371F1196D2
:105020008D919C911297680F791F13964C9113974D
:105030008C910995F801EE5FFE4F6381662351F074
:105040008091A9019091AA0124813581820F931F3B
:105050000E949E270E94212780E18A95F1F75898A7
:105060005098589A80E18A95F1F7F801EE5FFE4F6B
:105070006081662351F08091A9019091AA0121815C
:105080003281820F931F0E9451270E9419270F908F
:10509000DF91CF91FF91EF91BF91AF919F918F9150
:1050A0007F916F915F914F913F912F911F910F9140
:1050B0000F900FBE0F901F9018950F931F93CF93D3
:1050C000DF93853091050CF04DC0EC01F894509AB7
:1050D000589885E08A95F1F700009C2F9695957079
:1050E0008C2F8570980F892F83709695969523E065
:1050F000CC0FDD1F2A95E1F7980F8E01092B0E9436
:10510000212700C068E0802F0E947D2780E18A95DA
:10511000F1F75098589A489B1EC087E090E0489954
:105120001CC0FE01EE5FFE4F63816623F9F08091A3
:10513000A9019091AA0124813581820F931F0E94B9
:105140005127811113C0509A589A7894DF91CF91CA
:105150001F910F91089500C0DECF019729F4509A56
:10516000589A789480E0F2CF00C0D9CF0E941927D6
:1051700080E28A95F1F75898509A80E18A95F1F784
:10518000CE5FDE4F6881662351F08091A901909136
:10519000AA0129813A81820F931F0E949E270E94B3
:1051A0002127789481E0D2CF2F923F924F925F9245
:1051B0006F927F928F929F92AF92BF92CF92DF9227
:1051C000EF92FF920F931F93CF93DF93CDB7DEB78C
:1051D000CA1BDB0B0FB6F894DEBF0FBECDBF099420
:1051E0002A88398848885F846E847D848C849B8477
:1051F000AA84B984C884DF80EE80FD800C811B8185
:10520000AA81B981CE0FD11D0FB6F894DEBF0FBEB3
:10521000CDBFED010895F999FECF92BD81BDF89AF9
:10522000992780B50895A8E1B0E042E050E00C94E1
:105230004F29DC01A40FB51F4150504048F0CB016D
:10524000840F951F2E910E942A2941505040D0F77B
:105250000895262FF999FECF92BD81BDF89A019746
:1052600000B4021639F01FBA20BD0FB6F894FA9AAE
:10527000F99A0FBE08950396272F0E942A290E94AB
:105280002929252F0E942A29242F0C942A290196A6
:10529000272F0E942A290C942929DC01CB01FC012B
:1052A000F999FECF06C0F2BDE1BDF89A319600B47F
:1052B0000D9241505040B8F70895DB018F939F93B2
:1052C0000E94C429BF91AF91A29F800D911DA39F01
:1052D000900DB29F900D11240895991B79E004C0A0
:1052E000991F961708F0961B881F7A95C9F7809525
:1052F0000895AA1BBB1B51E107C0AA1FBB1FA6171D
:10530000B70710F0A61BB70B881F991F5A95A9F76E
:1053100080959095BC01CD010895A1E21A2EAA1B9B
:10532000BB1BFD010DC0AA1FBB1FEE1FFF1FA21755
:10533000B307E407F50720F0A21BB30BE40BF50B52
:10534000661F771F881F991F1A9469F760957095DB
:10535000809590959B01AC01BD01CF010895EE0FA2
:10536000FF1F0590F491E02D0994A29FB001B39F17
:10537000C001A39F700D811D1124911DB29F700D5E
:10538000811D1124911D08950E94B529A59F900D9E
:10539000B49F900DA49F800D911D11240895FB01D1
:1053A000DC0104C08D910190801921F441505040DE
:1053B000C8F7881B990B0895FB01DC0102C001901E
:0E53C0000D9241505040D8F70895F894FFCF59
:1053CE00FF000000000100000000000000050100C9
:1053DE0000000406000000000000010A00000000AA
:1053EE000000018505E70B83058405E00BAF000186
:1053FE00BE00E200000000B800E000000000B200B5
:10540E002A00000000AC00E3000000000101736CF4
:10541E006176655F6D61747269780073796E635F32
:10542E0074696D6572006261636B6C6967687400A4
:10543E00818283E200E900EA00B500B600B700CD34
:10544E00008301CC008A01920194012102230224DF
:10545E00022502260227022A02B300B4006F007052
:10546E00009F01CB019F02A002260297C6349294A0
:10547E00F6F7313332364432150B01D900C400CC65
:06548E0005E505FE050026
:00000001FF
