:100000000C9442030C94E9270C945F030C945F0357
:100010000C945F030C945F030C945F030C945F03D8
:100020000C945F030C945F030C94B71D0C94F91CA3
:100030000C94D4200C945F030C945F030C945F0326
:100040000C945F030C945F030C945F030C945F03A8
:100050000C945F030C9487200C945F030C945F0353
:100060000C945F030C945F030C945F030C945F0388
:100070000C945F030C945F030C945F030C945F0378
:100080000C945F030C945F030C945F030C945F0368
:100090000C945F030C945F030C945F030C945F0358
:1000A0000C945F030C945F030C945F039C0710088F
:1000B000A4076E077207A8077507AB07B607800786
:1000C00006088407BA078807BE07E8078C07C20737
:1000D000F2079207C807D2077907AF077C07B20774
:1000E0009707CD07DE07FE0700086A07A007190873
:1000F0003F084508330839084B0851085708480994
:1001000048097B097B09EB09210B210B210B090A0B
:10011000970AA80AA80A161B3D1BE11C3D1BE11CFF
:10012000891BAC1BE11CA21CB11C6261636B6C6976
:100130006768742064656372656173653A2025752C
:100140000A006261636B6C6967687420696E637230
:10015000656173653A2025750A006261636B6C699D
:100160006768742064697361626C650A0062616328
:100170006B6C6967687420746F67676C653A2025DB
:10018000750A006261636B6C6967687420737465DB
:10019000703A2025750A00000000000000000000F1
:1001A000000000000000000000000000000000004F
:1001B00000000000000000000000007E0F00D4FFDF
:1001C000FFFFC70000007800000000000000002AC8
:1001D0002B280000000000000000000000000000CC
:1001E000000029000000002C1E3420212224342687
:1001F00027252E362D3738271E1F20212223242580
:10020000263333362E37381F0405060708090A0B34
:100210000C0D0E0F101112131415161718191A1BA6
:100220001C1D2F3130232D350405060708090A0B44
:100230000C0D0E0F101112131415161718191A1B86
:100240001C1D2F3130354C44454255473A206469D6
:100250007361626C65642E0A0044454255473A203A
:10026000656E61626C65642E0A004661696C656446
:1002700020746F20657865637574652025730A00A6
:1002800073757370656E64696E67206B6579626FF4
:100290006172640D0A000A0025303862003A2000BD
:1002A00025303258000A722F632030313233343512
:1002B00036370A000A0025303258006C65645F74D6
:1002C00061736B3A20006261636B6C6967687420CC
:1002D000656E61626C650A004F6E6573686F743A93
:1002E000206163746976653A2025640A000A002556
:1002F00030325820006B6579626F6172645F72659D
:10030000706F72743A200029001E001F0020002127
:100310000022002B0014001A000800150017002905
:100320002104001600070009000A0064221D001BBA
:1003300000060019000500000000004A002B242BD5
:10034000412A002A00270026002500240023004C13
:1003500000130012000C0018001C00340033000FC2
:10036000000E000D000B0028323800370036001058
:10037000001100000000004D00E00028422C003574
:10038000021E021F0220022102220229003A003B23
:10039000003C003D000100E0003E003F0040004105
:1003A000002813E10042004300440045000F08000C
:1003B0000000002602E200010028004C052A002B64
:1003C0000029004C053500010027002600250024E7
:1003D000002300460034004F0052005100500044FA
:1003E0000028324D004B004E004A0000000000275C
:1003F00002E300437E280045003A003B003C003DFC
:10040000003E0035001E001F0020000100460019BC
:100410001321002200230001001913511324002589
:1004200000260027005113000000002602E20043CE
:100430007E2C00440043004200410040003F004C3D
:100440000027022602250224020100350030002F79
:10045000002E002D000100D100B700B6006400326C
:10046000000100000000000100E30001002800007E
:100470007C010001000100010001000100010001F8
:100480000001000100010001000100010001000164
:100490000001000100010001000100010001000055
:1004A0000000000100010001000100010001000145
:1004B0000001000100010001000100010001000134
:1004C0000001000100010001000100010001000124
:1004D0000001000100010001000100000000000116
:1004E00000E3000100280054617267657420636FA7
:1004F0006E6E65637465640D0A005461726765749D
:1005000020646973636F6E6E65637465642C207418
:1005100068726F74746C696E6720636F6E6E65636A
:1005200074696F6E20617474656D7074730D0A0068
:100530000631FF0974A1010975150026FF009520F9
:10054000750881020976150026FF0095207508912F
:1005500002C005010980A101850319012AB7001510
:100560000126B700950175108100C0050C0901A195
:1005700001850419012AA002150126A00295017522
:10058000108100C005010906A101050719E029E74E
:1005900015002501950875018102950175088101F5
:1005A0000507190029FF150026FF0095067508812B
:1005B000000508190129051500250195057501910A
:1005C00002950175039101C05B435D005B445D00D2
:1005D0005B535D005B575D005B525D0009025B0091
:1005E000030100A0FA090400000103010100092130
:1005F00011010001224400070581030800010904DC
:100600000100010300000009211101000122320054
:100610000705820320000109040200020300000014
:100620000921110100012222000705830320000196
:10063000070503032000011201000200000008105A
:10064000CB56220002010200011803490072006922
:1006500000730020005200650076002E002000325A
:100660000000000E034B0065006500620069006F2A
:10067000000000040309040E000F000000360037DC
:100680000000000011241FBECFEFDAE0DEBFCDBFB7
:1006900011E0A0E0B1E0EAE3F4E502C005900D92BC
:1006A000A63BB107D9F723E0A6EBB1E001C01D924C
:1006B000AC36B207E1F70E94180D0C941B2A0C947B
:1006C0000000FF93EF93E091B601F091B7013097EE
:1006D00009F00995EF91FF910895FC018591803013
:1006E00011F0EFDFFBCF0895FF27E0E230E247FF94
:1006F0000CC0419597FF09C0EDE26095709580951B
:100700009095611D711D811D911D27FF02C02195CE
:1007100030E350E2AA27660F771F881F991FAA1F90
:10072000A41710F0A41B63955A95A9F7AA3008F0F6
:10073000A95FA05DAF93F3956115710581059105E2
:1007400041F7ED3211F4EF93F395F21718F43F935C
:10075000F395FBCF8F91B5DFFA95E1F70895E99115
:10076000F9918591803021F0853219F0AADFF9CF17
:10077000089520E0E89455915532C1F3503311F4B7
:10078000689455915A3348F4505390F3220F022E37
:10079000220F220F200D250FF4CF0EF42195899101
:1007A0009991533619F3533729F1533559F1BC0157
:1007B00088279927E8945C3621F489919991689467
:1007C0005591543639F446EF7EF077FF0DC08FEF28
:1007D0009FEF0AC055374AE039F0583540E121F023
:1007E000523642E009F00895FF93EF937DDFEF91D9
:1007F000FF91B7CFFF93EF93FC0181918030B9F364
:1008000060DFFBCFFF93EF9368DFF1CFDF93CF93F0
:10081000CDB7DEB72596A3DFCF91DF910895A0E095
:10082000B0E0E5E1F4E00C940A29FC0124812223E4
:1008300009F437C77C0161E00E94D524EC01F7017F
:100840008581C134FEE7DF07E1F028F4C0343EE7DC
:10085000D30751F032C0C2349EE7D907E1F0C33468
:10086000EEE7DE0701F129C0882309F43EC461E008
:1008700083E090E00E945F2981E090E00E944E18A2
:1008800034C4882311F081E009C081E00E942C1853
:100890000E940F1A2AC4882321F082E00E943E1889
:1008A000F7CF82E0F3CF882321F083E00E943E1847
:1008B0001CC483E00E942C1818C4882309F4E2C0E9
:1008C000C230F8E7DF0709F46EC058F4C11538E705
:1008D000D30791F0C13088E7D80709F0D3C080E092
:1008E0000CC0C43098E7D907A1F150F0C530F8E743
:1008F000DF0709F487C0C6C085E00E94ED0CF5C390
:1009000080910F02982F969596959695A1F0915EFD
:10091000990F990F990F8770892B80930F02887F09
:1009200091E009F490E080910F0290FB80F98093B0
:100930000F020E94902480910E0280FF9BC0809144
:100940000F028695869586951F928F938AE291E095
:1009500089C020910F02822F869586958695482F13
:1009600050E04530510554F48F5F982F990F990F3F
:10097000990F822F8770892B80930F0280910F022D
:10098000816080930F020E94902480910E0280FF6C
:1009900071C080910F028695869586951F928F93E0
:1009A00082E491E05FC0C0910F02C17080910E029D
:1009B00080FF0CC01F92CF938DE691E09F938F93A1
:1009C0000E9406040F900F900F900F90CC23B9F067
:1009D00080910F0280FF89C38E7F80930F020E9457
:1009E000902480910E0280FF08C08AE591E09F93D9
:1009F0008F930E9406040F900F9080E040C00E94E9
:100A0000F40C73C380910F02282F26952695269506
:100A10002F5F2F71922F990F990F990F8770892B44
:100A200080930F02263018F0877080930F02809118
:100A30000F02887F91E009F490E080910F0290FB13
:100A400080F980930F020E94902480910E0280FF13
:100A500011C080910F028695869586951F928F937F
:100A600083E891E09F938F930E9406040F900F906C
:100A70000F900F9080910F028695869586950E9423
:100A8000EE2333C30E94C8206C01F70185818823BF
:100A900009F453C180912E0182FF07C044E052E067
:100AA000B60180E090E00E943F23C2312CE7D207DC
:100AB000C9F178F4C0318CE7D80751F1C1319CE716
:100AC000D90709F030C180912C0190912D01059634
:100AD00024C0C431ECE7DE0799F060F0C5312CE7A3
:100AE000D20709F020C180912E01982F909590FB9C
:100AF00080F909C080912E01816080932E0113C17D
:100B000080912E018E7F80932E010E941C230BC1A9
:100B100080912C0190912D01059790932D01809348
:100B20002C0101C180902C0190902D018091000139
:100B3000909101018816990639F48091BE018032A6
:100B400019F488EB91E03BC0909201018092000182
:100B500080E28093BE01A12CB12C1092BD014DEB1F
:100B6000242E41E0342E00E010E05AE0452E512CB6
:100B7000612C712CC501B401A30192010E94C3290B
:100B8000605D603319F40115110539F08114910489
:100B9000A104B10419F460E201C060E3F1016293C1
:100BA0001F01C501B401A30192010E94C32949019B
:100BB0005A010F5F1F4F05301105E1F6C2CF8C01BE
:100BC0000196F80120812032D1F33AE0432EF8015A
:100BD0002081222309F4A7C0213009F04CC0818173
:100BE000813049F45801F2E0AF0EB11CF801828166
:100BF0000E94F0190AC0823051F45801F2E0AF0EA1
:100C0000B11CF80182810E945519850189C0833089
:100C100049F45801F2E0AF0EB11CF80182810E9444
:100C2000FC18F3CF843019F00F5F1F4F79C0F80123
:100C300022810E5F1F4F80E090E030E020533109A9
:100C40002A30310568F4489EA001499E500D1124B8
:100C5000C901840F951F0F5F1F4FF8012081EDCF51
:100C6000009709F45DC0EFE9FFE03197F1F700C0AC
:100C700000000197F5CFE22FF0E0E953FE4F5490CA
:100C8000822F86958695869590E0FC01E954FE4F6B
:100C900064902770712C022E02C0759467940A9498
:100CA000E2F7F1E06F227724FC01E955FE4F8490D2
:100CB000912C022E02C0959487940A94E2F731E0B9
:100CC00083229924FC01E956FE4FA490B12C02C066
:100CD000B594A7942A95E2F781E0A822BB24611479
:100CE000710419F081EE0E9455198114910419F0D4
:100CF00086EE0E945519852D0E94F01981149104E9
:100D000019F086EE0E94FC186114710419F081EE4E
:100D10000E94FC18A114B10419F08CE20E94F01991
:100D20000F5F1F4F54CFCE01905281159043D8F4DE
:100D30001092E3021092E202A4C0C13ED10521F458
:100D400080912E018F7E06C0C53ED10531F4809181
:100D50002E018F7D80932E0106C0CE019052811509
:100D6000904308F48EC080912E0180FF8AC0F70165
:100D70008581CB32D105A1F040F49E012450310988
:100D80002432310508F070C00BC0CD32D10508F413
:100D90006BC0C933D10520F0C436D10509F064C059
:100DA000882309F45BC0809174029091BF02982B54
:100DB000292F2D7F49F11092E3021092E202FE01E9
:100DC00094E0F695E7959A95E1F7EE0FFF1FE05452
:100DD000FD4F9E012F70332781E090E002C0880F05
:100DE000991F2A95E2F78095909520813181822381
:100DF000932391838083CE010E94362780917402D1
:100E00008D7F0E94501426C029E0F701A4E0B2E0D3
:100E100001900D922A95E1F71092090210920702B3
:100E2000109206029695917020912E0190FB21F967
:100E300020932E018D7F0E945014D093E302C09323
:100E4000E202D092E102C092E00280912E01846021
:100E500080932E0182E00E94D61447C1A701B601FB
:100E6000CE010E943F2341C1882359F01092E30232
:100E70001092E202FE01E851FC47E730F10568F408
:100E8000EEC0FE01E851FC47E730F10508F4E7C089
:100E9000F7018581882309F43AC110925F03CE01DE
:100EA0009057839708F00CC184E090E00E94492994
:100EB0009093EF018093EE01FE01E150F047E232A2
:100EC000F10520F4EA5AFF4F0C94E5298091EE01D8
:100ED0008160ACC08091EF018860B4C08091EE0168
:100EE0008260A4C08091EE0120C08091EE018860F4
:100EF0009DC08091EF011EC08091EF018260A2C071
:100F00008091EE01806192C08091EE0180628EC07E
:100F10008091EE0180648AC00E9453188091EE0196
:100F2000806884C08091EE01886084607FC0809179
:100F3000EF018260816086C08091EE018E7F76C075
:100F40008091EF01877F7EC08091EE018D7F6EC022
:100F50008091EE0120C08091EE01877F67C0809173
:100F6000EF011EC08091EF018D7F6CC08091EE017A
:100F70008F7E5CC08091EE018F7D58C08091EE0124
:100F80008F7B54C00E9453188091EE018F774EC022
:100F90008091EE01877F8B7F49C08091EF018D7F2B
:100FA0008E7F50C08091EE0182FB222720F991E0D4
:100FB000922790FB82F990FB83F938C08091EF0172
:100FC000982F909591708E7F892B90FB81F93AC074
:100FD0008091EE0186FB222720F991E0922790FB79
:100FE00086F924C00E9453188091EE0187FB2227C6
:100FF00020F991E0922790FB87F918C061E001C0C9
:1010000060E08EE090E00E945F291EC08091EE01BA
:1010100084FB222720F991E0922790FB84F906C0F7
:101020008091EE01982F909590FB80F98093EE01CE
:101030000BC08091EF0183FB222720F991E09227DA
:1010400090FB83F98093EF016091EE017091EF01C5
:1010500084E090E00E947D290E94531846C0E85821
:10106000FF4F0C94E52906E221EE41EE6AE17CE7B0
:1010700023C007E225EE45EE6BE17CE71DC006E2EA
:1010800021EE40EE68E17CE717C007E225EE44EE72
:1010900069E17CE711C006E221EE42EE6CE17CE7FB
:1010A0000BC007E225EE46EE6DE17CE705C008E2E5
:1010B00021E045EE6EE17CE7C7010E947F2115C06B
:1010C000C631FCE7DF0741F58091BF028A7A91E0E3
:1010D00009F490E09093BF018111D5C269E280E1EB
:1010E00092E00E940A210E94611480916B02877035
:1010F00009F4D7C2F7018581882309F4D2C280910F
:10110000EF0182FFCEC282E00E94D614CAC2C6316D
:101110002CE7D20709F4B9C2F7018581882309F4C5
:1011200061C0C330FCE7DF0709F448C030F5C130C7
:101130003CE7D30709F448C070F5C115DC4709F056
:1011400051C00E9453183FEF84E39CE0315080402F
:101150009040E1F700C0000087E797E7909301080F
:10116000809300089AE088E10FB6F894A8958093E0
:1011700060000FBE909360000DC0CB35ECE7DE073A
:1011800071F1CC35FCE7DF0711F1CA35DC4751F5C9
:1011900081E026C0FFCF80910E02982F909591702C
:1011A00090FB80F980930E02992319F089E592E073
:1011B00002C087E492E00E946D0397CF6FEF7FEF4C
:1011C00080E090E00E947D290E9406278ECF8091CA
:1011D000EF0182FB882780F991E0892701C080E038
:1011E0000E94ED14F701878190850097B9F4F7010B
:1011F0008581C081D181882349F0CE010E949B1551
:10120000182F682FCE010E94F31704C0CE010E9450
:10121000C017182FBE01812F0E947F120E949C12BE
:10122000D82FC92FF7011581068102950F70809183
:101230006B028770E9F01123D9F0892F807F803409
:1012400051F080E28D0F883098F0011104C0892F91
:10125000807E803269F08091EF0182FF09C082E0D8
:101260000E94D61480916B028770DD24D394811183
:10127000D12CCC2EC2948FE0C8228C2D90E08C30E3
:10128000910508F0DEC1FC01E158FF4F0C94E529FF
:101290008C2F807FCF70882311F0C295C07F1123DF
:1012A000B9F0CC2309F4BBC180E28D0F883010F077
:1012B000D11106C09091BF02C92BC093BF0205C0D7
:1012C0009091E602C92BC093E6020E946114A7C167
:1012D0008D2F0E94FC18CC2309F4B3C180E28D0F3E
:1012E000883078F1DD2369F1C0959091E602C92339
:1012F000C093E60229C08C2F807FCF70803211F01E
:10130000C295C07FDD2321F0D13009F44CC055C017
:101310008091EF0182FD1BC0112369F0CC2339F0CD
:101320009091BF02C92BC093BF020E94611480E05C
:101330000E94551986C180E00E94FC18CC2309F454
:1013400080C18C2F0E945A140E9461147AC111230B
:1013500081F00023B1F1013009F073C19091740262
:101360008C2F8923C81709F46CC1C92BC093740250
:1013700068C1011166C18C2F0E94EB188091740224
:101380009C2F982329F09C2F909589238093740299
:101390009091C0018C2F892309F453C1C095C923B2
:1013A000C093C0014EC1112321F0063008F049C19D
:1013B00008C0053008F045C10AC0112331F0011101
:1013C0002EC18C2F0E94F2183CC101112CC18C2F10
:1013D0000E94EB1836C18C2F86958695837019F084
:1013E000813061F02EC1112321F08D2F9C2F93703D
:1013F00002C080E090E00E94492129C1112321F020
:101400008D2F9C2F937002C080E090E00E942421D9
:101410001EC18C2F837009F041C0111116C12D2FF0
:10142000229526952770220F220F8D2F8F7090E026
:10143000022E02C0880F991F0A94E2F7D4FF0BC056
:101440004FE050E002C0440F551F2A95E2F79A0181
:101450002095309502C020E030E0C695C695C37057
:10146000C23099F068F44091750250917602C13013
:1014700029F0822B932B8423952304C0842B952B56
:10148000822B932B0E944E18E0C0822B932B20912D
:1014900075023091760282279327F4CF112319F039
:1014A0008C2F817001C08695882309F4CEC02D2F22
:1014B000229526952770220F220F8D2F8F7090E096
:1014C000022E02C0880F991F0A94E2F7D4FF0BC0C6
:1014D0004FE050E002C0440F551F2A95E2F79A01F1
:1014E0002095309502C020E030E0C695C695C370C7
:1014F000C23079F0B8F44091BD025091BE02C130C3
:1015000029F0822B932B842395230EC0842B952BBB
:1015100009C0822B932B2091BD023091BE028227FD
:10152000932702C0822B932B0E9427188EC0CF7066
:10153000112339F08C2F0E943E188D2F0E94F21833
:1015400084C08D2F0E94EB188C2F0E942C187DC018
:10155000D23F61F128F4D03F41F0D13F11F15BC09F
:10156000D33F59F1D43FC9F056C0112391F0053053
:1015700008F067C0CF7181E090E002C0880F991F2A
:10158000CA95E2F72091BD023091BE0282279327CF
:1015900021C0063008F055C0EDCF8091EF0182FDEB
:1015A0001CC0112329F08C2F8F7129C01123D9F36E
:1015B0008C2F8F710E942C1844C0112349F0CF71D9
:1015C00081E090E002C0880F991FCA95E2F702C03F
:1015D00080E090E00E94271834C0112399F0CF7169
:1015E0008C2F0E943E188091EF0182FF07C0E8E037
:1015F000CE9FC0011124836080936B028C2F0E94C8
:101600003E181FC081E00E94D6140230D0F082E064
:101610000E94D61416C0112321F0002321F28D2F31
:1016200087CE002329F2D93349F4FFEF27EE33E0C8
:10163000F15020403040E1F700C000008D2F0E94A3
:10164000FC1888EF8C0D843010F40E946E21DD2090
:10165000A9F080916B0280FD11C0F701158286957B
:10166000869586950E943E18C7010E940F048091BE
:101670006B028695869586950E942C1860E0C701BE
:101680000E94D5240EC065E32ACD8091BF0181114F
:1016900006C069E280E192E00E94FD2024CD65E36E
:1016A000F9CFCDB7DEB7E2E10C94262980E090E0D7
:1016B0000E944929863E9E4F51F00E94DD13809181
:1016C0000F028470896280930F020E94902486E04A
:1016D00090E00E94412980930F02282F269526959D
:1016E000269530E02630310524F08770886280939B
:1016F0000F0280910F0280FF04C086958695869523
:1017000001C080E00E94EE230895A4E0B0E0EBE881
:10171000FBE00C941A294091CB015091CC016091CF
:10172000CD017091CE012FB7F8948091670390910D
:101730006803A0916903B0916A032FBF841B950BC6
:10174000A60BB70B84369105A105B10570F10E9477
:101750006512DC01CB010296A11DB11D89839A831C
:10176000AB83BC83809113019091140181539E4FF0
:101770004091120150E04530510510F044E050E036
:10178000BE016F5F7F4F0E94122A82E090E00E94AC
:101790008F28882359F00E94BC206093CB0170935E
:1017A000CC018093CD019093CE0181E02496E2E0BC
:1017B0000C943629A1E0B0E0E0EEFBE00C9418298F
:1017C00080910F0280FF04C086958695869501C0A2
:1017D00080E089839091D9010091DA011091DB01B9
:1017E0002091DC013091DD01EFB7F894409167035F
:1017F000509168036091690370916A03EFBF401BC9
:10180000510B620B730B443651056105710510F4E1
:10181000891719F180911B0190911C0181539E4FF2
:1018200040911A0150E04115510511F041E050E09E
:10183000BE016F5F7F4F0E94122A83E090E00E94FA
:101840008F28882359F00E94BC206093DA0170939E
:10185000DB018093DC019093DD0181E02196E4E0DF
:101860000C943429EF92FF921F93CF93DF9300D013
:1018700000D000D0CDB7DEB77B0180E090E00E94C1
:101880008F28882309F463C04091050150E0411579
:10189000510511F041E050E060910601709107019F
:1018A00061537E4FCE0106960E94122A4091C701D5
:1018B0005091C8016091C9017091CA012FB7F89485
:1018C0008091670390916803A0916903B0916A03C6
:1018D0002FBF841B950BA60BB70B84369105A10572
:1018E000B10538F480ED91E00E941F1A9E8189179E
:1018F00081F181E090E00E948F28182F882391F0D9
:1019000040910D0150E04630510510F045E050E0A7
:1019100060910E0170910F0161537E4FCE010196CF
:101920000E94122A80ED91E00E941F1A91E02E8100
:10193000281390E0192311F10E94BC206093C70185
:101940007093C8018093C9019093CA010CC010E044
:1019500001C011E085E0E0EDF1E0DE0111960190BB
:101960000D928A95E1F7112349F085E0FE01319649
:10197000A2ECB1E001900D928A95E1F785E0E2ECEE
:10198000F1E0D70101900D928A95E1F7812F26961B
:101990000FB6F894DEBF0FBECDBFDF91CF911F9180
:1019A000FF90EF900895863008F085E090910F0247
:1019B0009770282F220F220F220F922B90930F0245
:1019C000987F21E009F420E090910F0220FB90F92C
:1019D00090930F020E94EE2308950E94D30C8091F1
:1019E0000F020E949024089580910F0280FD1FC075
:1019F000816080930F02813019F489E080930F0297
:101A000080910F020E94902480910E0280FF08C0F6
:101A100086EC92E09F938F930E9406040F900F90A4
:101A200080910F028695869586950E94EE230895F3
:101A3000A6E0B0E0EEE1FDE00C940A2985B78068ED
:101A400085BF85B7806885BF84B7877F84BF0FB6A1
:101A5000F894A8958091600088618093600010924E
:101A600060000FBE90E080E80FB6F89480936100AC
:101A7000909361000FBE89E19FE19093B70180933D
:101A8000B6010E943D1D0E945C1D8091E2008460B1
:101A90008093E20078948091B3028823A1F01091A2
:101AA000E9001F709091EC00892F817090FD80E813
:101AB000182B1092E9008091E80083FD0E94361AED
:101AC0001F701093E90082E084BD93E095BD9AEF0A
:101AD00097BD80936E001092DE011092DF0110928C
:101AE000E0011092E1010E949C10809322010E946B
:101AF0009C1081110E94A4278091220180912201D3
:101B0000811102C095E001C090E09093ED0185E065
:101B1000891B8093EC0100E411E0D8018D918D01C7
:101B20008F3F11F00E94BF10B1E005341B07A9F7E9
:101B300005E411E0F80181918F018F3F11F00E94BF
:101B4000BF10F1E00B341F07A9F78AE0E0EFF1E0E6
:101B5000DF01282F1D922A95E9F7E2EEF1E0DF017F
:101B60001D928A95E9F780E090E00E944929863E1F
:101B70009E4F11F00E94DD1382E090E00E94412907
:101B800080930E0284E090E00E9449299093EF0137
:101B90008093EE0183E090E00E94412990E00E9452
:101BA0004E18259A2D9882E88093800089E18093D1
:101BB00081008FEF9FEF90938700809386000E94B3
:101BC000560B0E94560B0E949C10811102C00E946D
:101BD000A72783E291E0909363038093620330EA46
:101BE000432E32E0532E48E9642E42E0742E56EB29
:101BF000C52E52E0D52E8091B302853009F050C039
:101C000080910E0280FF04C080E892E00E946D0384
:101C100012E18091B302853009F03CC08091B3029B
:101C2000843039F180E00E94D30C10926603E8E121
:101C3000F0E020E40FB6F894A895E09360000FBEA2
:101C40002093600083B7817F846083BF83B7816006
:101C500083BF7894889583B78E7F83BF0FB6F8943F
:101C6000A895809160008861809360001092600068
:101C70000FBE8091B202882309F4CBCF0E94D61008
:101C8000E0EFF1E0819181110AC181E0EA3FF807BC
:101C9000C9F7BFCF0E9453180E94560B0E946E21B5
:101CA0000E94D6109AEFE92E91E0F92E20EFA22E95
:101CB00021E0B22ED501F70191918D91892792E013
:101CC000E430F90719F08823B9F305C0811103C086
:101CD0000E94B91369C080910E0281FD05C00E9467
:101CE0009C10382E10E02EC085EA92E00E946D0311
:101CF00080EF882E81E0982E00E010E01F930F9374
:101D00005F924F920E9406048DE992E00E946D035B
:101D1000D4018D914D010E94C3241F928F937F9215
:101D20006F920E94060486E992E00E946D030F5FA5
:101D30001F4F0FB6F894DEBF0FBECDBF0A3011059E
:101D4000E9F6CDCFD5018D905D01F70120802824E3
:101D500019F100E099249394822D8921B9F0332060
:101D6000A9F009831A830E94C8209C838B83F1E029
:101D7000FD8391E0892D882109F490E09E834981BB
:101D80005A816B817C818D810E9405250F5F990CA2
:101D9000063011F7D7018C921F5FBFEFEB1AFB0AD9
:101DA0001A3081F60E9465120E949C10882309F463
:101DB00049C080913D01882341F180915B0390915E
:101DC0005C03009711F10E94AD202091E402309154
:101DD000E50228173907C8F49091590380915A03F6
:101DE000981759F00E9484221092E5021092E402A2
:101DF00010925C0310925B0308C00E94162210929E
:101E00005C0310925B030E94602280912E0182FF8E
:101E100019C00E94C8202091E0023091E102AC017B
:101E2000421B530B20912C0130912D014217530777
:101E300048F044E052E0BC018091E2029091E3025C
:101E40000E943F230E946E21182F80910D021817C7
:101E500009F4D1CE10930D020E94BC2080910E0295
:101E600082FFC9CE80FF04C08BEB92E00E946D031D
:101E700080910E0280FF0AC01F921F93DF92CF92C3
:101E80000E9406040F900F900F900F9080910E0209
:101E900080FFB1CE84EB92E00E946D03ACCEE0E116
:101EA000E9BD19BD09B400FEFDCF8091D8008F7D3A
:101EB0008093D8008091E00082608093E000809160
:101EC000E00081FDFCCF0E945318A3CEA0E0B0E05B
:101ED000ECE6FFE00C9410297C015B01942E852E2A
:101EE00069018091C1018A3018F001E010E002C060
:101EF0000AE010E0C1E0D0E0B501C701F6010995A4
:101F0000811129C021960C171D078CF0CC9F9001E0
:101F1000CD9F300D300D112480E090E045E34A95CF
:101F2000F1F70000019628173907C1F7E5CF909126
:101F30000E02892F817090FF0FC08F929F928AE6C8
:101F400092E09F938F930E9406040F900F900F9042
:101F50000F9080E001C081E0CDB7DEB7ECE00C94DB
:101F60002C299091EE0192FF10C041E0282F24719E
:101F7000243009F040E031E0282F2871283009F0A2
:101F800030E0431711F02CE0822793FF10C041E0AE
:101F9000282F2471243109F040E031E0282F2871E6
:101FA000283109F030E0431711F02CE082273091FE
:101FB000EF0130FF10C051E0282F2171213009F0CE
:101FC00050E041E0282F2871283009F040E05417F4
:101FD00011F029E0822731FF10C041E0282F217144
:101FE000213109F040E031E0282F2871283109F033
:101FF00030E0431711F029E0822794FD877E089591
:102000008238910569F1B0F48133910509F475C006
:1020100048F48932910509F467C08A32910509F4C0
:1020200071C008958533910509F459C0893391052C
:10203000B9F00895833E910589F138F4803E910509
:10204000D1F0823E910529F10895863E9105C9F1AE
:10205000873E9105D9F1843E910509F06CC027C0F7
:102060002091EE0120FD57C021FD55C02091EF01C8
:1020700023FD5BC008958091EE0180FD48C08091F2
:10208000EF0180FF48C08091EE0184FD46C083EEE1
:1020900051C08091EE0182FF3CC0F5CF8091EE01EE
:1020A00082FD37C08091EF0180FD35C0ECCF80917B
:1020B000EF0181FF36C08091EE0184FD2EC087EED6
:1020C00039C08091EE0183FF2AC0F5CF8091EE01E7
:1020D00083FD25C08091EF0181FD23C0ECCF80916D
:1020E000EE0185FD22C01FC08091EE0185FD1BC061
:1020F0008091EF0183FF19C00AC08091EE0186FD37
:1021000016C017C08091EE0186FD13C010C089E390
:1021100011C082EE0FC080EE0DC080E00BC086EED5
:1021200009C084EE07C085E305C089E203C08AE2E6
:1021300001C081E390E0089580918302811118C06D
:102140008091D80080618093D8008AE18A95F1F768
:1021500000C08091D90080FD02C082E001C081E012
:1021600080938302823021F40E943D1D1092B302BD
:1021700081E090918302913009F080E00895F89415
:10218000E82FE295EF70F0E031A1282F2F7081E069
:1021900090E001C0880F2A95EAF7982F9095932335
:1021A00091A392A1892B82A378940895AFE0B0E027
:1021B000ECEDF0E10C940D29AE014F5F5F4F7A0119
:1021C0008AE0DA011D928A95E9F700E411E06A01DC
:1021D00085E4682E81E0782EAA24A394B12C2BE408
:1021E000822E21E0922EF80180818F3F09F440C0B9
:1021F000F894E82FE295EF70F0E021A18F70A5012F
:1022000002C0440F551F8A95E2F7CA01922F982BFE
:1022100091A392A18095892382A3789400C0E5E4DC
:10222000F1E0512C31E021912F3F89F0A22FA295AE
:10223000AF70B0E090968C9190E02F7002C09595B1
:1022400087952A95E2F780FD02C0832F01C080E0C8
:10225000582A330F8E169F0631F7D8018C918F3F85
:1022600011F00E94BF10B0EABA95F1F7F601508262
:102270000F5F1F4FFFEFCF1ADF0A6016710609F0DC
:10228000B2CF4AE050E0B70182EE91E00E94052A09
:10229000009741F02AE0F701A2EEB1E001900D9223
:1022A0002A95E1F70091ED01892B49F081E08093B7
:1022B0007B020E94C82090937A02809379028091D9
:1022C0007B02811102C0D12C22C0809179029091B1
:1022D0007A020E94AD200597B0F310E000511E4F26
:1022E00045E050E062EE71E0C8010E94052A892BAA
:1022F00059F085E0E2EEF1E0D80101900D928A9567
:10230000E1F7DD24D39401C0D12C10927B020E940E
:102310009C10E091ED01882309F43EC07E012BE082
:10232000E20EF11C85E0D7011D928A95E9F70E2F88
:1023300010E000511E4FC090C101B9E0BC1560F023
:1023400022E33CE04BE451E0B701C8010E94660F74
:10235000882309F487C00AC080917C0290917D0295
:102360000E94AD20843F914058F795C025E83BE09E
:1023700048E551E0B701C8010E94660F882309F4BF
:1023800071C02AED3BE043E651E0B701C8010E946D
:10239000660F81114AC066C0F0E0E051FE4F85E053
:1023A000A0EDB1E001900D928A95E1F780ED91E00A
:1023B0000E941F1A8093CF018090D5019090D60182
:1023C000A090D701B090D80180917E0290917F02B9
:1023D000A0918002B091810288169906AA06BB06D8
:1023E000D1F080927E0290927F02A0928002B09201
:1023F00081020E949C1081110EC00E94BC20861A8E
:10240000970AA80AB90A8092DE019092DF01A09291
:10241000E001B092E1018091D9010E94D30C80E0EB
:102420008D292F96EFE00C942929B9E0BC1540F4D2
:1024300080910E0280FF04C087EE94E00E946D033D
:102440001092C1018091EC0190E045E050E0B701AD
:1024500080519E4F0E94052A21E020938202892B01
:1024600031F5DDCF8091C1018F3F19F08F5F8093EF
:10247000C1018091C1018A3028F30E94C820909345
:102480007D0280937C0280910E0280FF04C08AEF5F
:1024900094E00E946D0380918202882309F4BFCFEB
:1024A00085E0D7011D928A95E9F710928202A091EA
:1024B000EC01B0E0A051BE4F85E0FE013B960190DB
:1024C0000D928A95E1F781E0ABCF0F931F930E94A5
:1024D0009C10882319F00E94BC200EC00E94BC20D2
:1024E0000091DE011091DF012091E0013091E101C6
:1024F000600F711F821F931F1F910F9108957A30F3
:10250000B0F46630A0F48430A0F49CE3899FF0011D
:10251000112486E0789FE00DF11D1124E60FF11DD6
:10252000EE0FFF1FE95FFC4F85919491089580E0C5
:1025300001C081E090E008951F93CF93DF930E9444
:102540000010EC01C11580E5D807E8F5C11590E44D
:10255000D90708F0A8C0C03ED10530F5CD3CD10563
:1025600008F094C0C83AD10578F4C53AD10508F00E
:1025700083C0C130D10509F47CC008F4F2C0C43076
:10258000D10508F0F1C0EDC0C33CD10508F0E9C0A9
:10259000C85AD0E0CC0FDD1FC059DE4F0990D8815A
:1025A000C02DCE019464E1C0C11580E2D80708F0C7
:1025B000CBC0C11591E0D90708F06BC0C83ED1056A
:1025C00008F4D2C0CEC0C03682E5D80728F5C034A2
:1025D00092E5D90708F079C0C03282E5D80708F043
:1025E0006CC0C11592E5D90708F481C04C2F4695FF
:1025F000469580E2489FA0011124C37021E030E09D
:10260000C90102C0880F991FCA95E2F7EA01C82BD9
:10261000D92BCE019D68A9C0C03A82E5D807B8F48D
:102620008C2F8F71C03892E5D90708F07BC0869552
:10263000869590E2899F90011124C37081E090E01B
:1026400002C0880F991FCA95E2F79A6868C0C03C1B
:1026500082E5D80708F46DC0C03E92E5D90708F0BE
:1026600080C0CF71DD27DC2FCC27CE01806F906A30
:102670007CC081E090E079C0C55AD0E0C359DE4FFC
:102680008881C82FD0E0CE0190646FC0CE019065E4
:102690006CC08D2F0E94B10F182FCE0199270E9478
:1026A00000101F715CC0CE0199270E940010CC273A
:1026B000DF70D06A8C2B9D2B58C0CF71D0E0DC2FFF
:1026C000CC27CE01816F906A50C08C2F8F71869578
:1026D000869590E2899F90011124C37081E090E07B
:1026E00002C0880F991FCA95E2F79C6818C08C2F0A
:1026F0008F710E94B10F95E0D695C7959A95E1F735
:10270000CF70D0E0DC2FCC27282F30E084FF05C02D
:1027100084E0220F331F8A95E1F7D069CE01822B26
:10272000932B23C090E0D82FCC27CE01846F906AE2
:102730001CC08C2F8F710E94B10F8F7190E0D82F29
:10274000CC27CE01906211C08D2F8F710E94B10FE6
:10275000182FCE0199270E9400101F719062912BB3
:1027600004C080E090E001C0CE01DF91CF911F91C5
:102770000895A6E0B0E0EFEBF3E10C9418290E9475
:10278000C8208C0180917702909178020817190770
:1027900081F019821A820E94C820682F49815A81CB
:1027A000792F80E090E00E94052510937802009335
:1027B00077022696E4E00C943429A8E0B0E0E3EE3A
:1027C000F3E10C941A2966EE7EEF80E090E00E941F
:1027D0007D2960E082E090E00E945F2960E083E074
:1027E00090E00E945F29109276021092750260E0DC
:1027F00074E184E090E00E947D2960E086E090E052
:102800000E945F296FEF87E090E00E945F2940E01F
:1028100050E0BA0188E090E00E94712960E084E213
:1028200090E00E945F2960E087E190E00E945F29CC
:1028300060E08CE090E00E945F2960E08DE090E035
:102840000E945F2919821A821B821C821D821E82AD
:102850001F82188648E050E068E170E0CE010196E2
:102860000E944F2940E050E0BA0180E290E00E94CF
:1028700071290E94F40C83E00E94ED0C40E050E0CE
:10288000BA018FE090E00E94712940E050E0BA0167
:1028900083E190E00E9471292896E2E00C943629A9
:1028A0009091EF0192FF05C090917402981380936C
:1028B0007402089580959091BF0289238093BF028E
:1028C0000895EF92FF920F931F93CF939091BF02C1
:1028D0008091E602982B90931002809174028823D5
:1028E00089F0892B80931002E2E1F2E097E080E02A
:1028F000915029F021912223D9F38F5FF9CF8111D3
:102900001092740248E050E06CE672E080E192E0E0
:102910000E94052A892B09F443C088E0E0E1F2E037
:10292000ACE6B2E001900D928A95E1F7E091620386
:10293000F09163033097A1F10280F381E02D80E1F3
:1029400092E0099580910E0282FF2AC080FF04C0A8
:1029500085EF92E00E946D0300E112E0C8E08FEE87
:10296000E82E82E0F82E80910E0280FF0CC0F80164
:1029700080811F928F93FF92EF920E9406040F9026
:102980000F900F900F90C1500F5F1F4FC111EBCFF1
:1029900080910E0280FF04C08DEE92E00E946D03D4
:1029A000CF911F910F91FF90EF90089590916B023E
:1029B0008095892380936B02282F277069F49817DC
:1029C00059F09091EF0192FF07C086958695869504
:1029D0000E942C1810926B020895CF939091EF01F2
:1029E00092FB222720F9281709F1C82F892FC0FB55
:1029F00082F98093EF016091EE017091EF0184E024
:102A000090E00E947D2982E00E94D61480910E02FF
:102A100080FF0CC01F92CF9388ED92E09F938F931D
:102A20000E9406040F900F900F900F90CF91089581
:102A300020916A029091210259E02917A9F030E013
:102A4000529FF001539FF00D1124EE5DFD4F7181F7
:102A5000761306C07081781303C07581741306C0A5
:102A60002F5F3F4F2770E9CF80E0089581E0089500
:102A700080916A0290912102891719F08F5F877007
:102A8000FBCF0895CF93DF9380911E0282958F70C4
:102A900009F04EC080911D02882309F449C080913D
:102AA0006A02409121025091190260911802C0916E
:102AB0001A02D0911B0279E08417D1F190E0789F3F
:102AC000F001799FF00D1124DF01AE5DBD4F14962A
:102AD0002C911497222349F111962C9111972513CB
:102AE00024C02C91261321C015962C9115972111E5
:102AF0001CC012962D913C9113972C1B3D0B283C2A
:102B0000310598F480911E028F70806180931E02BF
:102B1000E85DFD4F80818F708061808388E192E065
:102B20000E940F040E94381503C001968770C4CF1D
:102B3000DF91CF910895A0E0B0E0E1EAF5E10C94D7
:102B400013297C010091BD021091BE028091750293
:102B500090917602082B192BCFE0D0E0CC24C394BF
:102B6000D12CC6010C2E02C0880F991F0A94E2F7DF
:102B700080239123892B21F4219798F7B12C09C048
:102B8000BC2EB7018C2F0E947F120E949C120197CD
:102B900099F38B2DCDB7DEB7E9E00C942F29CF93B5
:102BA000DF93EC010E949B15BE010E947F120E94E0
:102BB0009C12DF91CF910895FC012481222311F111
:102BC00087819085009719F00E949C1204C0808133
:102BD00091810E94CF1592959F70963079F010F4F4
:102BE000925001C09A50923068F4803F69F018F416
:102BF000883E40F409C0843F29F406C0883E20F096
:102C0000813F11F080E0089581E00895A8E1B0E0EF
:102C1000ECE0F6E10C9410298C0186E0F801DE016D
:102C2000539601900D928A95E1F7F8018481E58031
:102C300098E1892E92E0992E90911C02911120C06A
:102C4000882309F496C1EE2009F442C0C8010E940D
:102C5000DC15F82E8823E1F189E0F801D401019018
:102C60000D928A95E1F780911C02813031F48091B8
:102C70001802909119020E94CF150E9442157BC143
:102C8000F801D080C180A280B380F0901D02209115
:102C90001A0230911B02FF2009F410C1A501421B4A
:102CA000530B483C510508F0B6C0882309F463C1B2
:102CB00080911E02282F207F90911902222361F01B
:102CC0009C1509F469C0C8010E94DC15811176C009
:102CD000C8010E940F044DC19C111CC090911802A4
:102CE0009D1118C040911F0250912002278130850C
:102CF0004217530779F4E1100DC08F708061809303
:102D00001E0288E192E00E940F0480911E02F801E9
:102D100086832DC1E1103AC040E06C2D8D2D0E94BC
:102D2000181540E06C2D8D2D0E941815E82E81118C
:102D30001EC1DB8ACC8A8B899C890E94CF15292FE2
:102D400022952F70243020F49F70223028F009C083
:102D50002A50223080F014C0992349F0811107C015
:102D600013C0992321F0F8019681907F69F0805E6D
:102D7000883030F409C0803F38F0815F833020F024
:102D8000C8010E940F04EF2CFE2CF5C080911E029A
:102D9000816080931E02EBC0909118029D1193CF29
:102DA00040911F0250912002F8012781308542177F
:102DB000530709F088CFE11086CFB8C0EE2009F4A0
:102DC00087CF20911E02822F82958F7090E002970C
:102DD000BCF080911802909119029B878A87BD866A
:102DE000AC8680911C028E871F86288B80911F02E3
:102DF000909120029A8B898BCE010A960E940F0433
:102E000089E0F801A8E1B2E001900D928A95E1F71E
:102E10000E944215AEC090911E02292F207F51F4CE
:102E200088E192E00E940F0489E0F40111928A95F2
:102E3000E9F79DC0882309F49EC0809119028C1186
:102E400015C0809118028D1111C040911F02509140
:102E50002002F801278130854217530739F4E11029
:102E600005C09683C8010E940F047BC0C8010E9460
:102E7000DC15882309F42CCFEE2009F429CF20910A
:102E80001E02822F82958F7090E002970CF4B8CFCB
:102E900080911802909119029A838983BC82AB8237
:102EA00080911C028D831E822F8380911F0290913E
:102EB000200299878887CE010196A0CFA21AB30A73
:102EC000F8ECAF16B10408F04CC0882309F451C0E7
:102ED000FE2CEE2009F4FCCE809119028C1133C037
:102EE000809118028D112FC020911F023091200275
:102EF000F801878190852817390729F580911E02EE
:102F000080FD18C082958F70482F50E04115510503
:102F100089F020911E0226834F30510541F08F5FCA
:102F2000982F9295907F822F8F70892B8683C8016E
:102F30000E940F0489E0F801A8E1B2E001900D922F
:102F40008A95E1F718C0C8010E94DC15811158CF9D
:102F500080911E02816080931E02C8010E940F04AE
:102F60000AC089E0F40111928A95E9F704C0F12CB6
:102F700002C0FF24F3948F2D6896ECE00C942C296A
:102F80009A3078F5863068F5E82FF0E086E0989F73
:102F9000E00DF11D11249E2F977083E0F695E795C3
:102FA0008A95E1F7EE0FFF1FEE0FFF1FEC57FD4F65
:102FB00040E050E080E0219130E0092E02C03695DB
:102FC00027950A94E2F721703327042E01C0220FBF
:102FD0000A94EAF7822B4F5F5F4F4430510559F74F
:102FE000089580E008959A3088F5863078F5E82FC6
:102FF000F0E086E0989FE00DF11D11248E2F877080
:1030000051E001C0550F8A95EAF783E0F695E79500
:103010008A95E1F7EE0FFF1FEE0FFF1FEC57FD4FF4
:1030200020E030E070E04081CB01022E02C0969596
:1030300087950A94E2F781708195842785238427F8
:1030400081932F5F3F4F2430310569F708959093A6
:10305000BE028093BD02089521E030E002C0220F3D
:10306000331F8A95E2F7209530958091BD029091AB
:10307000BE02822393230E942718089521E030E0A6
:1030800002C0220F331F8A95E2F78091BD02909112
:10309000BE02822B932B0E942718089590937602EC
:1030A0008093750208951092BF0286E0E2E1F2E09B
:1030B000DF011D928A95E9F780E090E00E944921A6
:1030C00080E090E00E9424211092E6020E946114A8
:1030D0000895A2E1B0E0EFE6F8E10C9418290A8720
:1030E0001B872C873D874E875F87688B798B8A8B00
:1030F000CE010A960E94061681113BC089E0FE01AE
:103100003A96DE01119601900D928A95E1F76E854F
:10311000662379F12091210230E0C9010196877080
:10312000992740916A0250E084179507A1F06D83BA
:1031300099E0929FD001939FB00D1124AE5DBD4FD9
:10314000FE01319601900D929A95E1F7809321024C
:103150000E9438150EC00E9453181092210210923E
:103160006A02E8E1F2E089E0DF011D928A95E9F761
:1031700019C019E080916A0290912102891791F09B
:10318000189FC00111248E5D9D4F0E940616882352
:1031900049F080916A0290E00196877099278093A8
:1031A0006A02E8CF6296E4E00C943429882341F067
:1031B00080959091E60289238093E6020E94611433
:1031C0000895882339F09091E602892B8093E602D6
:1031D0000E9461140895882321F00E945A140E94CD
:1031E00061140895882339F09091BF02892B809350
:1031F000BF020E9461140895882309F455C0682F06
:10320000823869F40E946E2181FF4EC069E380E13B
:1032100092E00E940A210E94611469E30EC0833883
:1032200099F40E946E2180FF3FC063E580E192E047
:103230000E940A210E94611463E580E192E00E94ED
:10324000FD200E9461140895843869F40E946E2163
:1032500082FF2AC067E480E192E00E940A210E9476
:10326000611467E4EACF8CEF860F813A30F380E295
:10327000860F883048F4677081E001C0880F6A9536
:10328000EAF70E945A14DDCF8BE5860F833028F4CD
:1032900080E090E00E9449210895685A6B3120F443
:1032A00080E090E00E9424210895CF93882309F4C0
:1032B00095C0C82F8238B1F40E946E2181FD8EC066
:1032C00069E380E192E00E940A210E9461142FEFDD
:1032D00087EE93E0215080409040E1F700C000006D
:1032E00069E317C08338E1F40E946E2180FD76C047
:1032F00063E580E192E00E940A210E9461142FEFB1
:1033000081EE94E0215080409040E1F700C0000041
:1033100063E580E192E00E94FD200E9461145EC09E
:103320008438B1F40E946E2182FD58C067E480E1C8
:1033300092E00E940A210E9461142FEF81EE94E036
:10334000215080409040E1F700C0000067E4E1CFE9
:103350008CEF8C0F813A78F4E2E1F2E08191C817AA
:10336000A9F122E0E831F207C9F76C2F80E192E081
:103370000E940A21D2CF80E28C0F883068F4C77097
:1033800081E090E001C0880FCA95EAF79091BF02F2
:10339000892B8093BF02C1CFEBE5EC0FE33040F403
:1033A000F0E0E359FE4F808190E00E94492116C071
:1033B000C85ACB3198F4EC2FF0E0EE0FFF1FE05924
:1033C000FE4F808191810E94242108C06C2F80E1F2
:1033D00092E00E94FD200E946114C7CFCF91089512
:1033E0001F93CF93DF93182F893319F0C0E0D0E0FB
:1033F00002C0C0E5D0E0812F0E945519209741F00E
:103400008FE99FE00197F1F700C000002197F6CF08
:10341000812F0E94FC18DF91CF911F910895809118
:10342000BD029091BE029C012670332726303105E3
:1034300011F4886001C0877F0E9427180895FC015D
:10344000AC014B5F5F4F8FEF91E32191822728E022
:1034500030E087FF03C0880F892701C0880F215003
:103460003109B9F7E417F50781F70895AAE2B0E04A
:10347000ECE3FAE10C941929E5EBF2E08091F1001C
:10348000819342E0ED3BF407C9F78091B6028330A7
:1034900009F461C030F4813071F0823009F49BC0CE
:1034A000B2C08A3009F487C08B3009F46CC089300F
:1034B00009F0A9C020C08091B502813A09F0A3C0EB
:1034C0008091E800877F8093E8008091B902909115
:1034D000BA02892B21F468E089EA92E003C060E037
:1034E00080E090E070E00E9429208091E8008B77D6
:1034F0008093E80088C08091B502813209F083C0D2
:103500008091B9029091BA02029708F07CC0809134
:10351000E800877F8093E8008091E80082FD05C085
:103520008091B3028111F8CF6EC02091F300809199
:10353000F20090E0922B029731F48091F1008130FB
:1035400011F0863021F48091F1008093A8028091DF
:10355000E8008B7754C08091B502813A09F053C0DE
:103560008091B9029091BA02892B09F04CC08091E8
:10357000E800877F8093E8008091E80080FFFCCF1F
:1035800080912B0137C08091B5028132E1F58091A5
:10359000B9029091BA02892BB1F58091E800877F3A
:1035A0008093E8000E94D51F8091B70280932B0181
:1035B0000E94531828C08091B502813221F5809174
:1035C000E800877F8093E8000E94D51F8091B802B1
:1035D0008093A70218C08091B502813AA1F480912E
:1035E000E800877F8093E8008091E80080FFFCCFAF
:1035F0008091A7028093F1008091E8008E778093FC
:10360000E8000E94D51F8091E80083FFDAC1809115
:10361000B5029091B602492F50E04A30510508F0AA
:10362000D0C1FA01E557FF4F0C94E529803821F00D
:10363000823809F0C6C108C08091B1029091B202EF
:10364000992389F082600FC08091B9028F70873012
:1036500008F0B7C18093E9008091EB0085FB8827D3
:1036600080F91092E9009091E800977F9093E8002C
:103670008093F1001092F10070C1282F2D7F09F086
:10368000A0C1882319F0823061F09BC18091B702FC
:10369000813009F096C1933009F080E08093B20246
:1036A0002EC08091B70281112AC08091B9028F701B
:1036B0002FEF280F263008F084C18093E900209175
:1036C000EB0020FF1CC0933021F48091EB0080625E
:1036D00014C09091EB0090619093EB0021E030E0FA
:1036E000A90102C0440F551F8A95E2F74093EA00F2
:1036F0001092EA008091EB0088608093EB001092BA
:10370000E9008091E800877F8093E8000E94D51F40
:1037100058C1811156C11091B7021F778091E30003
:103720008078812B8093E3008091E800877F8093ED
:10373000E8000E94D51F8091E80080FFFCCF8091B7
:10374000E30080688093E300111102C082E001C0B1
:1037500083E08093B30235C18058823008F031C1D4
:103760002091B7023091B8022C3D53E0350779F52E
:1037700083E08A838AE289834FB7F894DE01139647
:1037800020E03EE051E2E32FF0E050935700E49157
:1037900020FF03C0E295EF703F5FEF708E2F90E047
:1037A000EA3010F0C79601C0C0968D939D932F5FAD
:1037B000243149F74FBF8091E800877F8093E8006C
:1037C0006AE270E0CE0101960E942920B5C0809186
:1037D000B9029091BA02432F552743305105A9F001
:1037E00068F44130510509F4FBC04230510509F03D
:1037F000E8C08BE590E0ECEDF5E04BC041325105BF
:1038000029F14232510589F1DCC0C9019927813083
:103810009105A1F058F0029709F0D3C0E9E4F6E071
:10382000E4918E2F90E0E9E4F6E030C0E3E7F6E0C3
:10383000E4918E2F90E0E3E7F6E028C0E3E6F6E0BF
:10384000E4918E2F90E0E3E6F6E020C0833091050E
:1038500008F0B7C0880F991FFC01E155FE4F019099
:10386000F081E02D89E090E014C08330910508F0EC
:10387000A8C0FC01EE0FFF1FE755FE4F0190F0813D
:10388000E02DDC01AA55BE4F8C9190E0009709F421
:1038900098C02091E800277F2093E8002091BB0288
:1038A0003091BC028217930708F49C0140E0211577
:1038B000310589F18091B302882309F43DC0853038
:1038C000D9F18091E80083FD37C08091E80082FD46
:1038D0002FC08091E80080FFEACF4091F3008091F3
:1038E000F20090E0942B2115310559F088309105B4
:1038F00040F444914093F1003196215031090196F2
:10390000F2CF41E0089709F040E08091E8008E771F
:103910008093E800CCCF4111CDCF0AC08091B30293
:10392000882351F0853041F08091E80083FD04C088
:103930008091E80082FFF2CF8091E8008B7780933E
:10394000E8003FC08038E9F58091E800877F8093E8
:10395000E8008091B4028093F1008091E8008E77B6
:10396000D3CE81112EC08091B7029091B8029927D1
:1039700002973CF58091E800877F8093E8001091E2
:10398000B7021093B4020E94D51F111106C0809196
:10399000E30087FD02C081E001C084E08093B302B0
:1039A00042E061EC81E00E94F41F42E261EC82E0BF
:1039B0000E94F41F42E261EC83E00E94F41F8091B8
:1039C000B3028091E80083FF10C08091E800877FF8
:1039D0008093E8008091EB0080628093EB0005C04B
:1039E00082E190E0E7E3F6E054CFAA96E3E00C949E
:1039F00035291F920F920FB60F9211242F933F93E8
:103A00004F935F936F937F938F939F93AF93BF93E6
:103A1000CF93DF93EF93FF93C091E900CF70809134
:103A2000EC00D82FD17080FDD0E81092E900809191
:103A3000F000877F8093F00078940E94361A1092ED
:103A4000E9008091F00088608093F000CD2BCF706A
:103A5000C093E900FF91EF91DF91CF91BF91AF91BA
:103A60009F918F917F916F915F914F913F912F9196
:103A70000F900FBE0F901F901895E8EDF0E0808139
:103A80008E7F80831092E2001092DA001092E100A3
:103A9000A0EEB0E08C9181608C9380818F778083E1
:103AA00019BCA7EDB0E08C918E7F8C9380818F7EC6
:103AB00080831092A6020895A0E0B0E0E2E6FDE166
:103AC0000C941429C8EDD0E088818F7E8883E7EDBF
:103AD000F0E080818160808384E082BF81E0809318
:103AE000A60288818E7F888302EE10E0F8011082A2
:103AF0001092DA0081EEC82ED12CF6011082888156
:103B00008F77888388818068888388818F7D888388
:103B100019BC1092B3021092B4021092B202109229
:103B2000B10290EEE92EF12CF70180818B7F80832A
:103B300088818160888342E060E080E00E94F41F19
:103B4000F60180818E7F8083F8018081816080838F
:103B5000808188608083F70180818E7F8083888167
:103B600080618883CDB7DEB7E8E00C9430291F92DE
:103B70000F920FB60F9211242F933F934F935F93A1
:103B80006F937F938F939F93AF93BF93EF93FF9325
:103B90008091E10082FF49C08091E20082FF45C030
:103BA0008091E1008B7F8093E1002091A5022F5F3F
:103BB000822F62E30E94A329992319F02093A50282
:103BC00034C01092A5028091A402882371F18091E3
:103BD000B302843041F58091E9008F702091EC00B0
:103BE000922F917020FD90E8892B93E09093E9004B
:103BF0009091EB0090FF14C09091EE0097FF10C0E1
:103C00009091E80095FF03C01092F100F9CF9091D8
:103C1000E80090FF05C09091E8009E779093E8003F
:103C20008F708093E9001092A4028091DA0080FFE7
:103C300032C08091D80080FF2EC08091DA008E7F44
:103C40008093DA008091D90080FF1CC080E189BD9B
:103C500082E189BD09B400FEFDCF81E08093B3020B
:103C600088EC95E00E946D038091A602811113C03B
:103C70000E943D1D0E945C1D8091E2008460809343
:103C8000E20009C019BC1092B3028CEC95E00E94CE
:103C90006D031092A6028091E10080FF1BC080910D
:103CA000E20080FF17C08091E2008E7F8093E200E7
:103CB0008091E20080618093E2008091D800806270
:103CC0008093D80019BC85E08093B30280ED95E025
:103CD0000E946D038091E10084FF34C08091E20076
:103CE00084FF30C080E189BD82E189BD09B400FE56
:103CF000FDCF8091D8008F7D8093D8008091E10026
:103D00008F7E8093E1008091E2008F7E8093E200BD
:103D10008091E20081608093E2008091B402882368
:103D200011F084E007C08091E30087FD02C081E0CC
:103D300001C083E08093B30284ED95E00E946D039F
:103D40008091B3028091E10083FF2BC08091E2005B
:103D500083FF27C08091E100877F8093E10082E0AC
:103D60008093B3021092B4028091E1008E7F809321
:103D7000E1008091E2008E7F8093E2008091E2007A
:103D800080618093E20042E060E080E00E94F41FE6
:103D90008091F00088608093F00088ED95E00E94AB
:103DA0006D03FF91EF91BF91AF919F918F917F91A3
:103DB0006F915F914F913F912F910F900FBE0F9098
:103DC0001F9018952091E4003091E50095E6409110
:103DD000EC00842F817040FF23C08091E80080FDBB
:103DE0001DC08091B302882399F0853099F08091AD
:103DF000EB0085FD11C04091E4005091E5002417CF
:103E0000350729F3915011F09A01E1CF84E008952C
:103E100082E0089583E0089581E0089580E00895A8
:103E20004091E80042FFDDCF089508958091A802F7
:103E300008959FB7F8941092A4029FBF9091B30287
:103E4000943009F057C09091E9009F703091EC00D8
:103E5000232F217030FD20E8922B23E02093E900EE
:103E60002091EB0020FF43C02091EE0027FF3FC0D0
:103E700020916B03222321F02091E80025FF37C019
:103E800010926B0326E03091E80035FD15C03091AB
:103E9000B302343061F53091EB0035FD28C021507C
:103EA00021F481E080936B0322C0EFE9FFE03197BA
:103EB000F1F700C00000E7CF8093F1008091E800A7
:103EC00085FD0AC08091E80080FFFCCF8091E8006A
:103ED0008E778093E80006C08FB7F89421E0209396
:103EE000A4028FBF9F709093E90080E008959F70B7
:103EF0009093E9008FEF08950F931F93CF93DF9373
:103F00008B01EA019091B302943079F58F70809320
:103F1000E9008FEF9091E800815095FD06C095ED86
:103F20009A95F1F700008111F5CF8091E80085FFA7
:103F30001CC00E94E21E882361F08091E8008E7709
:103F40008093E80012C0F80181918F018093F10005
:103F50002197209791F38091E80085FDF4CF80911F
:103F6000E8008E778093E800E4CFDF91CF911F9136
:103F70000F91089543E050E0BC0182E00E947C1F55
:103F80000895CF93DF93EC0148E050E0BC0181E05D
:103F90000E947C1F88E0FE01A9EAB2E001900D9228
:103FA0008A95E1F7DF91CF9108958091B50287FF5F
:103FB00011C08091E80082FD05C08091B30281119B
:103FC000F8CF11C08091E8008B770BC08091B302CD
:103FD000882349F08091E80080FFF8CF8091E800C5
:103FE0008E778093E8000895982F973068F5909326
:103FF000E900981739F07091EC002091ED00509194
:10400000F00003C0242F762F50E021FD02C09F5FF7
:10401000ECCF3091EB003E7F3093EB003091ED0020
:104020003D7F3093ED003091EB0031603093EB0039
:104030007093EC002093ED005093F0002091EE007F
:1040400027FDE5CF80E008958F708093E90081E03F
:1040500008952091BB023091BC022617370748F023
:104060006115710539F42091E8002E772093E8005E
:1040700001C0B901FC0120E06115710579F1809161
:10408000B3028823F1F18530F1F18091E80083FDDE
:104090003CC08091E80082FD2EC08091E80080FF46
:1040A000EBCF2091F3008091F20090E0922B61150C
:1040B000710551F08830910538F421912093F10079
:1040C000615071090196F3CF21E0089709F020E0D3
:1040D0008091E8008E778093E800CECF2111CFCF7A
:1040E0000AC08091B302882361F0853061F080912D
:1040F000E80083FD0AC08091E80082FFF2CF80E0F3
:10410000089582E0089583E0089581E00895789409
:104110001F920F920FB60F9211248F939F93AF931C
:10412000BF938091670390916803A0916903B09158
:104130006A030196A11DB11D8093670390936803E4
:10414000A0936903B0936A03BF91AF919F918F9140
:104150000F900FBE0F901F9018959C014FB7F894C9
:104160008091670390916803A0916903B0916A03FD
:104170004FBF821B930B08952FB7F894609167038C
:10418000709168038091690390916A032FBF08952D
:104190002FB7F8948091670390916803A091690309
:1041A000B0916A032FBF08951F920F920FB60F921E
:1041B00011248F939F93AF93BF93809166038111D6
:1041C00013C08091670390916803A0916903B09137
:1041D0006A034196A11DB11D809367039093680304
:1041E000A0936903B0936A03BF91AF919F918F91A0
:1041F0000F900FBE0F901F9018959C012A5F3F4FA4
:10420000FC014281461301C0128201968217930776
:10421000B9F708959C01FC0132969FEF80E041912F
:10422000461789F09F3F19F4411101C0982F8F5F05
:104230008630A9F79F3F39F0F901E90FF11D97FD8D
:10424000FA95628308950895A3E0B0E0EAE2F1E20E
:104250000C941A29209164033091650328173907BB
:10426000A1F09093650380936403E0916203F09161
:104270006303309751F024E029839B838A8306806F
:10428000F781E02DCE01019609952396E2E00C948A
:104290003629A3E0B0E0EFE4F1E20C941A29209172
:1042A00060033091610328173907A1F090936103EF
:1042B00080936003E0916203F0916303309751F0C3
:1042C00023E029839B838A830680F781E02DCE013A
:1042D000019609952396E2E00C9436290E949C10E1
:1042E000882359F0E0916203F0916303309729F03D
:1042F0000190F081E02D0995089580E008950F93D5
:104300001F93CF93DF93C42FD22FFC018581882385
:10431000B1F040935F030E94C82090935E038093A6
:104320005D0380E28C0F883008F04DC0C77081E0DB
:1043300001C0880FCA95EAF70E94F21844C0809124
:104340005F03481330C080915D0390915E030E942B
:10435000AD20883C910538F510E21D0FCD17B9F05E
:1043600080E28C0F883040F4C77081E001C0880F74
:10437000CA95EAF70E94EB18183010F581E09D2FDE
:10438000977001C0880F9A95EAF70E94F218802F63
:104390000E94F0191830B8F4D77081E001C0880F7E
:1043A000DA95EAF70AC080E28C0F883060F4C770B3
:1043B00081E001C0880FCA95EAF70E94EB1803C09C
:1043C000802F0E94F019DF91CF911F910F910895D6
:1043D000BC014091590380915A03942F981729F1F9
:1043E000292F30E0F901EE0FFF1FEF5AFC4F01902B
:1043F000F081E02DE617F70799F487E0869FF0013A
:10440000879FF00D1124E15DFE4F81E084839413BA
:104410000CC02F5F3F4F237033272093590308951B
:104420002F5F3F4F922F9370D9CF0895EF92FF9255
:104430000F931F93CF93DF938091E8028823D9F1E4
:10444000C091E7028DE0F82E8091E802C81778F558
:10445000EE24E394EC0EE092E702D0E0FC9EF00143
:10446000FD9EF00D1124E751FD4F84818823E9F072
:1044700087819085892B21F481859285019659F455
:104480000081118122813381448155816681778148
:1044900080850E946918FC9EF001FD9EF00D11249C
:1044A000E751FD4F14821092E602CE2DCDCF10922F
:1044B000E8021092E702CDB7DEB7E6E00C943229AD
:1044C0001092E5021092E40280913401811104C03F
:1044D000109233011092350180913B01811104C08B
:1044E00010923A0110923C01089510925C031092D0
:1044F0005B0310923D0180915A03809359030E94FF
:1045000060220E9416220895A0E0B0E0EAE8F2E2FC
:104510000C940A29C0915903E7E0FE2E01E010E057
:10452000FDE02F2EEE24E39480915A03C81709F47E
:104530007AC0D0E0FE01EE0FFF1FEF5AFC4F8081E2
:104540009181F89EF001F99EF00D1124E15DFE4F7E
:104550002481211165C06090E802A9EEB2E020E05C
:1045600030E0712C5F01261508F058C01B964D9065
:104570005C901C97F501808091804FEF5FEF312CAC
:10458000C32CD12CF601EE0FFF1FE80DF91D65912C
:1045900074914616570609F4A601672B11F033945F
:1045A000EFCF4F3FFFEF5F07A9F1B80102C0660FE1
:1045B000771F4A95E2F7762AA801032C02C0440F20
:1045C000551F0A94E2F741505109672D70E04617D4
:1045D0005707E9F4229EF001239EF00D1124E751C4
:1045E000FD4FF89ED001F99EB00D1124A15DBE4F84
:1045F00012962D913C9113973087278374E0748332
:1046000010821182928781871596EC9207C01496CA
:104610001C9214972F5F3F4F1D96A5CF0E94E82153
:104620002196C37081CF0E9416220E946022CDB7CE
:10463000DEB7E2E10C94262980912E01877F8093DA
:104640002E019091E6029D7F9093E60284FF08C0C0
:104650008F7E80932E018091BF0282608093BF0283
:1046600080912E0185FF08C08F7D80932E0180915F
:10467000BF0280628093BF020E9461140895A0E08F
:10468000B0E0E5E4F3E20C9415298C01EB01809194
:104690002E0182FF86C0E090E202F090E302E01675
:1046A000F10621F00115110509F07BC080912E0162
:1046B0008B7F80932E0181FD11C08091E00290914B
:1046C000E102AE01481B590B81E020912C01309191
:1046D0002D014217530718F480E001C081E081707A
:1046E000D82E80912E01D0FA81F980932E01870176
:1046F0001127F80184E0F695E7958A95E1F797018F
:104700002F703327EE0FFF1FE054FD4F81E090E044
:1047100002C0880F991F2A95E2F7DD2029F0208139
:104720003181822B932B06C0809590952081318119
:1047300082239323918380838091BF0281FF08C0ED
:1047400080912E01806180932E0182E00E945A1494
:104750008091BF0285FF08C080912E018062809306
:104760002E0180E20E945A14DD2029F08091E60299
:1047700082608093E602C70190528115904308F44D
:104780007801C7010E9436278091E2029091E302EE
:104790009C0130522115304308F499270E941C27B0
:1047A00012C0C80190528115904318F4C80199278E
:1047B00001C0C8010E941C278091E2029091E3028F
:1047C0000817190711F40E941C23D093E102C0932B
:1047D000E002CDB7DEB7E7E00C943129A0E0B0E00D
:1047E000E4EFF3E20C941029863030F4811105C017
:1047F000909180009F7704C085E090918000906840
:1048000090938000A0918600B0918700282F30E01F
:104810000E94EB2925E030E040E050E00E94C329EF
:104820000027122F232F342F012F122F232F33274E
:1048300080918600909187006CE070E00E94AF2923
:104840006017710730F0C80169E070E00E94AF297D
:104850005EC08091860090918700E0908600F09085
:104860008700E0918600F0918700C6E0D0E0BE01AD
:104870000E94AF29060F171F211D311D4801590144
:1048800085E0880C991CAA1CBB1C8A95D1F7C7012E
:10489000BE010E94AF296F01E12CF12CA701960106
:1048A000260F371F411D511DC501B4010E94C329A8
:1048B00069017A01E0918600F0918700CA01B9018F
:1048C0000E9493299B01AC01DF010E94FA299B0100
:1048D000AC01C701B6010E949329DC01CB012FE096
:1048E000B695A795979587952A95D1F7009186005B
:1048F0001091870020E030E0081719072A073B07CE
:1049000028F46091860070918700CB01BC01709300
:10491000890060938800CDB7DEB7ECE00C942C29B9
:10492000682F86E090E00E945F2908959C013A95E7
:1049300021153F4130F5BC0166277270AC01442758
:1049400054709C012227387094FF0FC090FF02C062
:1049500080E101C080E0672B09F08062452B09F0FF
:104960008064232B79F080680895892F8170672BEC
:1049700009F08260452B09F08460232B19F08860D0
:10498000089580E008958295982F937344E0949F52
:10499000900111248C7C86958695282B822F857515
:1049A000880F2A7A2695822B0895A6E0B0E0EBEDD9
:1049B000F4E20C941929FC0187819085009709F590
:1049C000CF0126E0DE01119601900D922A95E1F7C4
:1049D000FC01258189819A81222359F0662349F0BF
:1049E0000E949B15182F682F89819A810E94F317C6
:1049F00003C00E94C017182F69817A81812F0E94FD
:104A00007F122696E3E00C943529ADE1B0E0EBE0AF
:104A1000F5E20C940A294B8B5C8B6D8B7E8B8F8B14
:104A2000988F91111092E602CE010A9629E0FC01BE
:104A300011922A95E9F726E0FE017396DC010190B8
:104A40000D922A95E1F72E8521110CC00A851B8550
:104A50002C853D854E855F85688979898A890E9484
:104A60006918D0C161E00E94D5246C018035FCE753
:104A70009F0739F48F858823C9F081E080933D0139
:104A8000BEC181352CE7920731F48F85882371F000
:104A90000E947522B4C182359C4741F48F858823DA
:104AA00029F080913D01882341F3F2CFFFE2EF2E00
:104AB000F1E0FF2E512CA12CB12C88248394912C51
:104AC00044244394CE0101969A8F898FF701408147
:104AD000518166246A94762C60E0262F30E0F9013B
:104AE000EE0FFF1FE40FF51F85919491C816D906AC
:104AF00009F43901892B11F06F5FEFCFFFEF6F16CB
:104B00007F0609F41AC1F7017481711103C0809105
:104B10003D0102C080E090E081701F85F701958122
:104B20002681112309F4AFC0882309F4ACC0911188
:104B300014C0C401062C01C0880F0A94EAF7282B80
:104B400026838091E4029091E502C29730F482E3DB
:104B500090E09093E5028093E402940102C0220F5A
:104B6000331F6A95E2F721503109F701868190E001
:104B70002817390709F0E2C080915B0390915C032C
:104B8000009729F00E94AD20C39708F032C18091B0
:104B90005903B0915A03982FE0E0F0E08B1709F425
:104BA0005EC0282F30E0F901EE0FFF1FEF5AFC4FD7
:104BB0006080718047E0469DF001479DF00D112413
:104BC000E15DFE4F008141814D8FA0E060E070E02B
:104BD000E02FFD8DE70FF11DE70FF11D25903490BB
:104BE00021143104D1F0F701F081FB8FF701F1813D
:104BF000FC8F60E0EB8DFC8DE60FF11DE60FF11DE3
:104C0000459154914115510531F02416350609F4AA
:104C1000A1E06F5FEFCF7F5FDBCFAA23C9F06717FB
:104C200008F4E1C047E0469DF001479DF00D1124D6
:104C3000E15DFE4F309771F04482EE16FF0609F4F5
:104C4000DBC0891307C0C9010196982F937002C079
:104C5000E0E0F0E02F5F3F4F822F83709FCF909373
:104C60005903EE15FF0509F469C090E0FC01EE0F51
:104C7000FF1FEF5AFC4FB182A082019683709927E3
:104C800080935A035BC0911112C0A40102C0440F6B
:104C9000551F6A95E2F74150510930E0421753071A
:104CA000F1F57723E9F1C5010E94E82138C0822F90
:104CB00090E09C012150310928233923062C02C0A1
:104CC000959587950A94E2F7232B39F580FF25C047
:104CD000F70182819381892BE1F089E0E98DFA8DDA
:104CE00011928A95E9F70E94C820282F8B839C8314
:104CF00084E08D83F70182819381782F888799875B
:104D000009811A813C8144E05E816F81892F0E9474
:104D10006918F701158281E003C0817001C080E04D
:104D20009401062C01C0220F0A94EAF72095F7019E
:104D3000968129232683182F01C010E0512AFFEF06
:104D4000AF1ABF0A27E0E20EF11C42E0A416B1043C
:104D500009F0BCCE8F85882379F1552069F10E9436
:104D6000C82090935C0380935B038091E8028830B5
:104D7000A0F591E0980F9093E80299E0FE013A9631
:104D8000DE01119601900D929A95E1F7EDE08E9F6C
:104D9000C001112487519D4F29E0FE013196DC01AD
:104DA00001900D922A95E1F72FEF3FEFFC0132873A
:104DB0002187D486C38611C09091590380915A03EC
:104DC000981719F00E94842208C00E94162210929F
:104DD0005C0310925B030E94602281E05826852DBF
:104DE00080FD34CE0FC0E114F10409F431CF90936B
:104DF0005903F7014482A2CF909359039FCF81E0DA
:104E000090E0EECF6D96E2E10C9426290E945318B3
:104E10002FEF84E39CE0215080409040E1F700C0F8
:104E200000009AE088E10FB6F894A895809360009E
:104E30000FBE90936000FFCFCF93DF93EC010E94F1
:104E4000FC18CE01805E9109089710F0209731F48C
:104E5000CE010E9496240E94EB1805C0CE010E944C
:104E600096240E94D618DF91CF910895CF93DF93B7
:104E7000EC01805E9109089710F0209731F4CE0183
:104E80000E9496240E94F21805C0CE010E9496242A
:104E90000E94E1188C2F0E945519DF91CF9108953F
:104EA0008EE1489B02C08150E1F7489BFECF0895F8
:104EB000589880E28A95F1F7589A0895FC012AE003
:104EC0002A95F1F728E090E080E031E040E14A9552
:104ED000F1F7880F489B02C08160932700C0000053
:104EE00040E14A95F1F7215089F720E12A95F1F741
:104EF00029B100C0000030E13A95F1F72170922706
:104F00002081920F90830895A1E0B0E0EAE8F7E2F3
:104F10000C94162919828C017C01E60EF11C0E15E9
:104F20001F0551F00E945027CE0101960E945E2776
:104F3000F80181938F01F3CF81E09981911180E095
:104F40002196E6E00C943229509A589A0895509888
:104F5000589AE89AE9E6F0E080818C7F8083089592
:104F6000615091E001C0990F6A95EAF720E031E0C5
:104F7000992361F0492F482319F0589A232701C03B
:104F8000589840E24A95F1F79695F2CF222311F016
:104F9000589A01C0589880E28A95F1F75898089578
:104FA000FF920F931F93CF93DF93EC018C01060FB9
:104FB000111DC017D10741F0F9900E94582768E0F1
:104FC0008F2D0E94B027F5CFCDB7DEB7E5E00C946A
:104FD00033291F920F920FB60F9211240F931F9334
:104FE0002F933F934F935F936F937F938F939F93F1
:104FF000AF93BF93EF93FF93CF93DF931F92CDB700
:10500000DEB719820E945027CE0101960E945E27CA
:10501000082F069506950695902F96959570202F4A
:105020002570920F292F237096959695920F877071
:1050300089135FC0898181115CC0053008F059C0B7
:1050400080E18A95F1F7589A509A82E08A95F1F7B3
:1050500000C0589888E0089F80011124D801AE5FF5
:10506000BE4F1696ED91FC9117973097A9F060917D
:105070003E0170913F0114962D913C911597260F9A
:10508000371F11968D919C911297680F791F139677
:105090004C9113978C910995F801EE5FFE4F638157
:1050A000662351F080913E0190913F01248135812A
:1050B000820F931F0E94D0270E94582780E18A9573
:1050C000F1F758985098589A80E18A95F1F7F801CD
:1050D000EE5FFE4F6081662351F080913E0190911A
:1050E0003F0121813281820F931F0E9484270E94F9
:1050F00050270F90DF91CF91FF91EF91BF91AF912A
:105100009F918F917F916F915F914F913F912F91DF
:105110001F910F910F900FBE0F901F9018950F9336
:105120001F93CF93DF93853091050CF06DC0EC0198
:10513000F894509A589885E08A95F1F700009C2FD2
:10514000969595702C2F2570920F892F83709695C8
:10515000969523E0CC0FDD1F2A95E1F7980F8E017D
:10516000092B0E94582784E08A95F1F700C068E077
:10517000802F0E94B02780E18A95F1F75098589AC5
:10518000489902C000C0FCCF87E090E0489B08C06F
:10519000019721F4509A589A789436C000C0F6CFFF
:1051A000FE01EE5FFE4F6381662381F080913E0138
:1051B00090913F0124813581820F931F0E948427A3
:1051C000811104C0509A589A78941FC00E945027A9
:1051D00080E28A95F1F75898509A80E18A95F1F724
:1051E000CE5FDE4F6881662351F080913E01909141
:1051F0003F0129813A81820F931F0E94D0270E948C
:105200005827789481E001C080E0DF91CF911F9111
:105210000F9108952F923F924F925F926F927F92DB
:105220008F929F92AF92BF92CF92DF92EF92FF92B6
:105230000F931F93CF93DF93CDB7DEB7CA1BDB0B62
:105240000FB6F894DEBF0FBECDBF09942A88398807
:1052500048885F846E847D848C849B84AA84B9840E
:10526000C884DF80EE80FD800C811B81AA81B9811A
:10527000CE0FD11D0FB6F894DEBF0FBECDBFED012E
:105280000895F999FECF92BD81BDF89A992780B50E
:105290000895A8E1B0E042E050E00C948529DC01DB
:1052A000A40FB51F4150504048F0CB01840F951F0B
:1052B0002E910E94602941505040D0F70895262F2A
:1052C000F999FECF92BD81BDF89A019700B40216FC
:1052D00039F01FBA20BD0FB6F894FA9AF99A0FBEAA
:1052E00008950396272F0E9460290E945F29252F89
:1052F0000E946029242F0C9460290196272F0E9478
:1053000060290C945F29DC01CB01FC01F999FECFE7
:1053100006C0F2BDE1BDF89A319600B40D9241503D
:105320005040B8F70895DB018F939F930E94FA29AC
:10533000BF91AF91A29F800D911DA39F900DB29F31
:10534000900D11240895991B79E004C0991F9617B8
:1053500008F0961B881F7A95C9F780950895AA1BB7
:10536000BB1B51E107C0AA1FBB1FA617B70710F050
:10537000A61BB70B881F991F5A95A9F78095909582
:10538000BC01CD010895A1E21A2EAA1BBB1BFD0191
:105390000DC0AA1FBB1FEE1FFF1FA217B307E40714
:1053A000F50720F0A21BB30BE40BF50B661F771F6C
:1053B000881F991F1A9469F760957095809590954C
:1053C0009B01AC01BD01CF010895EE0FFF1F0590B9
:1053D000F491E02D0994A29FB001B39FC001A39F57
:1053E000700D811D1124911DB29F700D811D11241E
:1053F000911D08950E94EB29A59F900DB49F900DDB
:10540000A49F800D911D11240895FB01DC0104C0AF
:105410008D910190801921F441505040C8F7881BAC
:10542000990B0895FB01DC0102C001900D924150DF
:0A5430005040D8F70895F894FFCF1C
:10543A00FF0000000001000000000000000501005C
:10544A0000000406000000000000010A000000003D
:10545A00000001161FC11F151FBA1F01AF00017DF1
:10546A0006E2000000007706E00000000001CF011C
:10547A0097C6349294F6F731333236736C61766597
:10548A005F6D61747269780073796E635F74696DB8
:10549A006572006261636B6C6967687400818283FC
:1054AA00E200E900EA00B500B600B700CD008301CA
:1054BA00CC008A01920194012102230224022502CE
:1054CA00260227022A02B300B4006F0070009F016F
:1054DA00CB019F02A002443222840552053005EE18
:0654EA0005070620060084
:00000001FF
