:100000000C9408030C9440030C9440030C9440039C
:100010000C9440030C9440030C9440030C94400354
:100020000C9440030C9440030C9425280C94F7285E
:100030000C94F2220C9440030C9440030C94400363
:100040000C9440030C9440030C9440030C94400324
:100050000C9440030C947B230C9440030C944003B9
:100060000C9440030C9440030C9440030C94400304
:100070000C9440030C9440030C9440030C944003F4
:100080000C9440030C9440030C9440030C944003E4
:100090000C9440030C9440030C9440030C944003D4
:1000A0000C9440030C9440030C9440030D060D0681
:1000B00039063906A106BF06D707D707CA06630760
:1000C000740774075F2986297E2A86297E2AD22909
:1000D000F5297E2A4C2A5B2A29001E001F002000D9
:1000E00021002200230024002500260027002D00E7
:1000F0002E0000002A002B0014001A000800150032
:1001000017001C0018000C00120013002F00300014
:1001100000000000390004001600070009000A0072
:100120000B000D000E000F003300340032002800D9
:100130000000E10064001D001B000600190005001E
:10014000110010003600370038000000E500000004
:10015000E000E300E2000000000000002C000000CE
:10016000000000000151E3007600E00000003500CF
:100170003A003B003C003D003E003F004000410093
:10018000420043004400450000004C0001004A00CA
:1001900052004D004B000100010001000100010070
:1001A00049004A004B0000000000010050005100CF
:1001B0004F004E00010001000100010001004C0051
:1001C0004D004E004600000001000100BE5CC05C16
:1001D000BF5C01000100AC00AE00AB00A800AA00AB
:1001E0000000A90000000100010001000000000063
:1001F00000000100000000000000010002510100A9
:10020000010000000100C35CC45CC65CC75CC85C44
:10021000C95CCA5CCB5C420043004400450000005E
:1002200001000100010001000100010001000100C6
:1002300001000100010001000100010000000000B8
:1002400001000100010001000100010001000100A6
:100250000100010001000100010001000000010097
:100260000100010001000100010001000100010086
:100270000100010001000000010000000100010078
:10028000010000000000000001000000000000006C
:100290000100010001000100000000047F3F1F6415
:1002A0003214643214783C1E1E140A0522232526BB
:1002B00028292A2C2D2F3032333536383A3B3D3E13
:1002C0004042434547494A4C4E5051535557595A5D
:1002D0005C5E6062646668696B6D6F717375777977
:1002E0007B7D7F81838587898A8C8E909294969876
:1002F0009A9C9E9FA1A3A5A7A8AAACAEAFB1B3B488
:10030000B6B8B9BBBCBEBFC1C2C3C5C6C7C9CACBDC
:10031000CCCDCED0D1D2D2D3D4D5D6D7D7D8D9D9A7
:10032000DADADBDBDBDCDCDCDCDCDDDDDDDDDCDC10
:10033000DCDCDCDBDBDBDADAD9D9D8D7D7D6D5D42D
:10034000D3D2D2D1D0CECDCCCBCAC9C7C6C5C3C2F9
:10035000C1BFBEBCBBB9B8B6B4B3B1AFAEACAAA84E
:10036000A7A5A3A19F9E9C9A98969492908E8C8A02
:1003700089878583817F7D7B79777573716F6D6BDD
:100380006968666462605E5C5A5957555351504EB5
:100390004C4A4947454342403E3D3B3A3836353367
:1003A00032302F2D2C2A292826252322FFAA7F55DB
:1003B00040000101010101010101010202020202EA
:1003C00002020202030303030303030304040404FD
:1003D00004040405050505050606060606070707C5
:1003E000070708080808090909090A0A0A0B0B0B7C
:1003F0000C0C0C0D0D0D0E0E0E0F0F0F1010111119
:10040000111212131314141515161617171818199C
:10041000191A1A1B1B1C1D1D1E1E1F202021222203
:10042000232424252626272829292A2B2C2D2D2E46
:100430002F30313232333435363738393A3B3C3D60
:100440003E3F404142434445464748494A4C4D4E51
:100450004F50515354555658595A5B5D5E5F616217
:1004600064656668696B6C6D6F7072737577787AA6
:100470007B7D7E8082838587888A8C8E8F91939501
:1004800096989A9C9EA0A2A3A5A7A9ABADAFB1B325
:10049000B5B7BABCBEC0C2C4C6C9CBCDCFD1D4D605
:1004A000D8DBDDDFE2E4E7E9EBEEF0F3F5F8FAFDA7
:1004B000FF0A034F004B003600300000000A034FD4
:1004C000004B003600300000000403090409023B21
:1004D00000020100A0FA0904000001030101000963
:1004E00021110100012240000705810308000109D4
:1004F000040100010300000009211101000122B6DE
:10050000000705820320000112010002000000081C
:10051000364B606001000102000105010902A101E2
:1005200085020901A1000509190129081500250105
:100530009508750181020501093009311581257F72
:1005400095027508810609381581257F9501750882
:100550008106050C0A38021581257F9501750881F1
:1005600006C0C005010980A101850319012AB70051
:10057000150126B700950175108100C0050C090111
:10058000A101850419012AA002150126A0029501E6
:1005900075108100C005010906A10185060507192E
:1005A000E029E71500250195087501810205071965
:1005B0000029EF1500250195F07501810205081944
:1005C000012905950575019102950175039101C0F9
:1005D00005010906A101050719E029E71500250114
:1005E00095087501810295017508810105071900BB
:1005F00029FF150026FF00950675088100050819DA
:10060000012905950575019102950175039101C0B8
:1006100011241FBECFEFDAE0DEBFCDBF04B603FE6C
:1006200018C080912B0390912C03A0912D03B091C1
:100630002E038730904BA740B04B59F410922B03F8
:1006400010922C0310922D0310922E03E0E0F8E399
:10065000099511E0A0E0B1E0E4EEF7E502C00590F5
:100660000D92A63CB107D9F723E0A6ECB1E001C09A
:100670001D92AB32B207E1F70E94AD130C94F02B40
:100680000C94000081E0089581E008950E944403E5
:10069000089508950E9449030895A5E0B0E0E3E5B8
:1006A000F3E00C945A2B49835A833091C901898114
:1006B0009A81311114C0662359F0222349F00E9417
:1006C000310A182F682F89819A810E940D0A03C070
:1006D0000E941F0A182F69817A81812F04C00E940D
:1006E000310A69817A810E941F112596E3E00C94FA
:1006F000762BFC01262F4081518162817381848198
:100700000E944D03089581E00895CF93DF93EC019B
:1007100060E00E947903BE010E944A03DF91CF91FD
:1007200008950E94721208950E946C12089508950F
:100730000E945A080E9497032FEF84E39CE0215007
:1007400080409040E1F700C0000008950E949803A7
:100750000E94A12308950E9498030E94C523089532
:100760000F931F93CF93DF938C0161E00E94790375
:10077000EC01B8010E944603882309F44EC0B80179
:10078000CE010E94201E882309F447C0B801CE0183
:100790000E941B21882309F440C0B801CE010E94A9
:1007A000391F8823D1F1B801CE010E94812088230E
:1007B000A1F1B801CE010E94581C882371F1F80103
:1007C0008281882331F1CB358DE5D807E9F050F4EB
:1007D000C115FCE5DF0779F0CF3DDC45D1F40E947F
:1007E000330F0CC0CD35EDE5DE0759F080F0C83A87
:1007F000DD4521F00EC00E94A6030FC00E94AB038E
:100800000CC00E946A0E05C00E94740E02C00E94B5
:10081000780EC8010E94420301C080E0DF91CF91B1
:100820001F910F9108950E94CA2280E00E94551ED8
:100830000E94350408950E943B1D0E9439040E94C5
:10084000D322089508950E942204089581E0089516
:100850000E94260408950895CF93C82F0E94230470
:100860008C2F0E942804CF91089580E00E942C04D0
:1008700008950E9477210E942C0408950E947721F8
:100880009091C801891721F08093C8010E942C041F
:100890000895ABE0B0E0EFE4F4E00C945B2B4F8301
:1008A000588769877A878B8761110E94B20D9E01F4
:1008B0002F5F3F4F86E0F90111928A95E9F785E0B5
:1008C000FE013796D90101900D928A95E1F7898151
:1008D0009A814C815D81452B31F09F3F31F491E04D
:1008E0008F3F19F403C091E001C090E090FF09C070
:1008F00049815A816B817C818D819E810E94DE0CB1
:1009000005C0C9010E9483038111F2CF2B96E2E05A
:100910000C94772BFC01808191810E946B0A0895D1
:10092000CF93882309F4A3C0C82F8238C1F40E9452
:10093000772181FD9CC069E38091000190910101C4
:100940000E946E220E94D60D2FEF81EE94E021507E
:1009500080409040E1F700C0000069E319C083388F
:1009600001F50E94772180FD82C063E5809100013E
:10097000909101010E946E220E94D60D2FEF81EE10
:1009800094E0215080409040E1F700C0000063E512
:1009900080910001909101010E947C220E94D60D5D
:1009A00066C08438C1F40E94772182FD60C067E48C
:1009B00080910001909101010E946E220E94D60D4B
:1009C0002FEF81EE94E0215080409040E1F700C08D
:1009D000000067E4DDCF8CEF8C0F813AD0F46C2FF0
:1009E00080910001909101010E94EE21882349F03D
:1009F0006C2F80910001909101010E947C220E9445
:100A0000D60D6C2F80910001909101010E946E2201
:100A1000C5CF80E28C0F883048F4C77081E001C0F8
:100A2000880FCA95EAF70E94950DB8CFEBE5EC0F59
:100A3000E33040F4F0E0E85AFE4F808190E00E94FD
:100A4000AC2115C0E8E5EC0FE73150F4F0E0EE0F13
:100A5000FF1FE65DFE4F808191810E94C22107C089
:100A6000CD3E28F08C2F0E9432140E940415CF91A5
:100A70000895882309F467C0823879F40E947721A9
:100A800081FF61C069E380910001909101010E94A2
:100A90006E220E94D60D69E310C08338B9F40E941B
:100AA000772180FF50C063E58091000190910101A2
:100AB0000E946E220E94D60D63E580910001909104
:100AC00001010E947C220E94D60D0895843879F499
:100AD0000E94772182FF37C067E4809100019091E6
:100AE00001010E946E220E94D60D67E4E6CF9CEFC2
:100AF000980F913A10F4682FE0CF90E2980F983059
:100B000050F4877091E001C0990F8A95EAF7892F18
:100B10000E949B0DD8CF9BE5980F933028F480E07E
:100B200090E00E94AC21089598E5980F973128F441
:100B300080E090E00E94C22108958D3E20F00E9446
:100B40008D140E94041508951F93CF93DF93182FDF
:100B5000EB010E949004209741F08FE99FE00197FC
:100B6000F1F700C000002197F6CF812F0E943905D0
:100B7000DF91CF911F910895893319F060E070E003
:100B800002C060E570E00E94A4050895882321F06A
:100B90000E94950D0E94D60D0895882321F00E9491
:100BA0009B0D0E94D60D0895A0E0B0E0EAEDF5E0BF
:100BB0000C94552B7C01D62FC72FFC011281058187
:100BC00002950F700E948B0D8823B9F01123A9F0B4
:100BD0008C2F807F803421F080E28D0F883068F088
:100BE0008091E10282FF09C082E00E94380E0E94DB
:100BF0008B0D91E0D82ED92601C0D12CCC2EC294D9
:100C00008FE0C8228C2D90E08C30910508F0CFC188
:100C1000FC01EA5AFF4F0C94142B8C2F807FCF706D
:100C2000882311F0C295C07F112399F0CC2309F4D9
:100C3000AAC180E28D0F883010F0D11104C08C2F32
:100C40000E94950D03C08C2F0E94A50D0E94D60D09
:100C50009AC18D2F0E943905CC2309F4A8C180E2E6
:100C60008D0F883038F1DD2329F18C2F0E94AB0DD8
:100C700024C08C2F807FCF70803211F0C295C07F4E
:100C8000DD2319F0D130A1F13DC08091E10282FD58
:100C900017C0112349F0CC2329F08C2F0E94950D09
:100CA0000E94D60D80E070C180E00E943905CC23FF
:100CB00009F47DC18C2F0E949B0D0E94D60D77C137
:100CC000112371F0002341F0013031F40E94B50D81
:100CD0008C2B0E94BF0D6BC10E94B50D8C2B1DC0CB
:100CE000002319F0013009F462C10E94CC0D25C027
:100CF000112321F0063008F05AC10EC0053008F06B
:100D000056C11BC0112361F0002331F0F70185812A
:100D100080FF39C18F7085838C2F0E94C60547C123
:100D2000002359F0D93309F03FC1FFEF07EE13E07C
:100D3000F15000401040E1F735C18C2F0E94CD05E5
:100D400036C18C2F86958695837019F0813061F0BD
:100D50002EC1112321F08D2F9C2F937002C080E0B3
:100D600090E00E94AC212BC1112321F08D2F9C2FEC
:100D7000937002C080E090E00E94C22120C18D2FBC
:100D8000112319F00E94321402C00E948D140E9497
:100D9000041515C18C2F837009F047C011110BC1C8
:100DA0002D2F229526952770220F220F6D2F6F7001
:100DB000862F90E0A0E0B0E0022E04C0880F991FBB
:100DC000AA1FBB1F0A94D2F7D4FF10C04FE050E017
:100DD00060E070E004C0440F551F661F771F2A951E
:100DE000D2F7409550956095709503C040E050E073
:100DF000BA01C695C695C3708A019B01082B192BB1
:100E00002A2B3B2BC901B801C23049F058F4C1303C
:100E100019F00E94C108CFC00E94AE08CCC00E9449
:100E2000D408C9C00E94AB08C6C0112319F08C2F8A
:100E3000817001C08695882309F4BDC02D2F2295AD
:100E400026952770220F220F6D2F6F70862F90E04E
:100E5000A0E0B0E0022E04C0880F991FAA1FBB1F9C
:100E60000A94D2F7D4FF10C04FE050E060E070E089
:100E700004C0440F551F661F771F2A95D2F740956F
:100E800050956095709503C040E050E0BA01C6955A
:100E9000C695C3708A019B01082B192B2A2B3B2B6B
:100EA000C901B801C23049F058F4C13019F00E94AC
:100EB000900981C00E947D097EC00E94A3097BC069
:100EC0000E94EA0878C0CF70112339F08C2F0E945D
:100ED00013098D2F0E94C6056EC08D2F0E94CD056F
:100EE0008C2F0E94350967C0D23F21F128F4D03FF2
:100EF00041F0D13FC1F043C0D33F19F1D43F79F065
:100F00003EC0112341F0053008F051C08C2F8F7185
:100F10000E945B094CC0063008F049C0F7CF8091B1
:100F2000E10282FD18C0112339F08C2F8F710E94CD
:100F300013093DC01123C9F38C2F8F710E9435090D
:100F400036C0112329F08C2F8F710E94FD082FC00D
:100F50000E94F7082CC0112349F0CF718C2F0E94FA
:100F6000130963E08C2F0E941A0E21C081E00E94B9
:100F7000380E0230E0F082E00E94380E18C01123D3
:100F800031F0002391F28D2F0E94900410C00023B5
:100F900099F2D93349F41FEF27EE33E01150204086
:100FA0003040E1F700C000008D2F0E94390588EF26
:100FB0008C0D843020F40E9477210E942C04DD20C7
:100FC00089F00E94870D80FD0DC0F70112820E94FA
:100FD000810D0E941309C7010E940F080E94810D14
:100FE0000E943509CDB7DEB7E8E00C94712B0F9362
:100FF0001F93CF93DF93EC01688179818A810E94EE
:10100000760A8C010E94B6090E949608B801CE01AA
:101010000E94D405DF91CF911F910F910895CF9336
:10102000DF93EC01988189812B813C81232B31F066
:101030008F3F31F481E09F3F19F403C081E001C08C
:1010400080E080FD1AC0CE010E94B00381110FC064
:101050000E948B0D882389F08A81882371F080910A
:10106000E10282FF0AC082E00E94380E06C0CE0173
:101070000E94F707CE010E948503DF91CF9108956A
:1010800080E090E00E94AC2180E090E00E94C221CC
:101090000E94B20D0E94D60D0E9423150E940415D5
:1010A000089580910001909101010E948A220E947E
:1010B000400808950E94A20D0E945108089592953B
:1010C0009F70963079F010F4925001C09A5092308F
:1010D00068F4803F69F018F4883E40F409C0843F0A
:1010E00029F406C0883E20F0813F11F080E0089589
:1010F00081E00895FC01808191810E946B0A0E9429
:101100005F080895A5E0B0E0E8E8F8E00C945B2BF8
:101110002596E2E00C94772BA6E0B0E0E2E9F8E057
:101120000C945B2B2696E2E00C94772B089508959F
:101130000E94970808950E94980808950E949B08AD
:101140006093000270930102809302029093030265
:101150000E94400808950E949E0808950F931F93CF
:1011600000910002109101022091020230910302CD
:10117000602B712B822B932B0E949E081F910F9145
:1011800008950F931F930091000210910102209186
:1011900002023091030260237123822393230E9471
:1011A0009E081F910F9108950F931F9300910002C5
:1011B00010910102209102023091030260277127F1
:1011C000822793270E949E081F910F9108950E94E5
:1011D000970808950E94E7086093FC017093FD0151
:1011E0008093FE019093FF010E944008089560E003
:1011F00070E0CB010E94EA0808950F931F9341E02D
:1012000050E060E070E08A019B0104C0000F111FF4
:10121000221F331F8A95D2F7C901B8010E94EA083C
:101220001F910F9108950F931F9341E050E060E0EC
:1012300070E004C0440F551F661F771F8A95D2F7D0
:101240008091FC019091FD01A091FE01B091FF0100
:101250008A019B01082B192B2A2B3B2BC901B801B2
:101260000E94EA081F910F9108950F931F9341E088
:1012700050E060E070E004C0440F551F661F771F08
:101280008A95D2F740955095609570958091FC01B4
:101290009091FD01A091FE01B091FF018A019B0197
:1012A000082319232A233B23C901B8010E94EA0815
:1012B0001F910F9108950F931F9341E050E060E05C
:1012C00070E004C0440F551F661F771F8A95D2F740
:1012D0008091FC019091FD01A091FE01B091FF0170
:1012E0008A019B01082719272A273B27C901B80132
:1012F0000E94EA081F910F9108950F931F93009188
:10130000FC011091FD012091FE013091FF01602B45
:10131000712B822B932B0E94EA081F910F91089545
:101320000F931F930091FC011091FD012091FE018C
:101330003091FF0160237123822393230E94EA08E6
:101340001F910F9108950F931F930091FC0110912D
:10135000FD012091FE013091FF0160277127822756
:1013600093270E94EA081F910F9108950895962FE0
:101370009770A1E001C0AA0F9A95EAF793E07695DD
:1013800067959A95E1F795E0969F9001979F300DAC
:101390001124FA01E20FF31F40E050E0682F70E0E3
:1013A00090819B01042E02C0369527950A94E2F79E
:1013B0002170219529272A23292721934F5F5F4FE9
:1013C0004530510569F70895FB01782F777023E0C8
:1013D000969587952A95E1F745E0489F9001499FAA
:1013E000300D1124E20FF31F40E050E080E0219126
:1013F00030E0072E02C0369527950A94E2F7217057
:101400003327042E01C0220F0A94EAF7822B4F5F84
:101410005F4F4530510559F70895282F953070F4E6
:101420008F3060F4862F622F70E02FE0929F600D66
:10143000711D11244AEC51E00E94B70908959530BE
:1014400070F48F3060F4292F90E06AEC71E03FE097
:10145000239F800D911D11240E94E409089580E0CE
:101460000895A0E0B0E0E7E3FAE00C94542B8C017F
:10147000C090FC01D090FD01E090FE01F090FF01D2
:101480008091000290910102A0910202B0910302AA
:10149000C82AD92AEA2AFB2ACFE1D0E0D701C6011F
:1014A0000C2E04C0B695A795979587950A94D2F708
:1014B00080FD04C0219790F7B12C07C0BC2EB80165
:1014C0008C2F0E9438110197A9F38B2DCDB7DEB771
:1014D000E9E00C94702BCF93DF93EC010E94310A6A
:1014E000BE010E943811DF91CF9108951F93CF93D1
:1014F000DF93EB019091C901992321F0CB010E9468
:101500006B0A13C0882349F0CB010E94310A182FBF
:10151000682FCE010E940D0A04C0CB010E941F0A51
:10152000182FBE01812F0E943811DF91CF911F919A
:1015300008951F93CF93DF93C091040216E080912A
:101540000502C81799F0D0E01C9FF0011D9FF00D17
:101550001124EA5FFD4F4081518162817381848152
:1015600095810E948C082196C770E9CFDF91CF91B9
:101570001F910895409136025091370260913802D0
:101580007091390280913A0290913B020E948C083E
:1015900008950F931F93CF93DF9380913B02829521
:1015A0008F7009F05AC080913802882309F455C021
:1015B0008091040210910502609136027091370209
:1015C000C0913902D0913A0291E06F3F09F090E06A
:1015D000292F06E0811709F440C0209721F07F3FB2
:1015E00021F030E003C031E001C0322F90E030FD47
:1015F00031C0089FF001099FF00D1124DF01AA5F9F
:10160000BD4F11963C911197371324C03C9136136E
:1016100021C012963C91129731111CC013964D9126
:101620005C9114974C1B5D0B483C510598F48091DC
:101630003B028F70806180933B02E55FFD4F8081AC
:101640008F708061808386E392E00E940F080E9481
:10165000990A03C001968770BDCFDF91CF911F918A
:101660000F910895A1E1B0E0E8E3FBE00C94522B68
:101670008C0185E0F801DE011D9601900D928A959E
:10168000E1F7F801E28090913602609137022091F3
:10169000390230913A022115310531F06F3F31F4B2
:1016A00081E09F3F19F403C081E001C080E0F82F82
:1016B000F1709F2E80FD40C1F80140815181A380CF
:1016C000B48086E3C82E82E0D82EF0903802F5016F
:1016D000E21BF30BFF2009F4DAC080913B02E83CE7
:1016E000F10508F096C0282F207F09F053C056134B
:1016F00013C0491311C0FE2CE1100EC08F70806121
:1017000080933B020E94BA0AC6010E940F08809192
:101710003B02F80185834DC1A114B10431F05F3F54
:1017200031F481E04F3F19F403C081E001C080E053
:1017300080FD03C081E08E2502C080E090E0F82F9C
:10174000F170FF2E80FF1CC08091040220910502E1
:1017500036E0821709F40BC190E0389FF001399F01
:10176000F00D1124EA5FFD4F6181561306C06081C0
:10177000461303C06281E61203C001968770E9CF69
:10178000FE2CEE2009F415C180913B02816080930C
:101790003B0254C0561306C0491304C0E11002C0F6
:1017A000F80199C0C8010E947A08882361F1EE20EF
:1017B00051F120913B02822F82958F7090E0029729
:1017C00074F0809136029091370298878F83198642
:1017D000BB86AA862C87CE0107960E940F0886E05A
:1017E000F801A6E3B2E001900D928A95E1F70E941C
:1017F000C90A0E94BA0A0AC0561711F1C8010E940C
:101800007A0881112CC0C8010E940F08FF24F394AC
:10181000D0C0282F207F81F77A2DB98AA88A6E2D13
:1018200089890E94820886E392E00E940F0886E080
:10183000F60111928A95E9F70E94BA0AF12CB9C013
:101840004913DCCFE110DACFF8018583C8010E948B
:101850000F0886E0F60111928A95E9F7AAC0EE20FA
:1018600091F220913B02822F82958F7090E0029737
:101870000CF4B5CF80913602909137029A83898318
:101880001B82BD82AC822E83CE010196A6CFE83C9E
:10189000F10508F044C0FE2CEE2009F4B4CF561335
:1018A00030C049132EC020913B0220FD21C0822F61
:1018B00082958F70482F50E041155105C9F0F8010D
:1018C00025834F30510541F08F5F982F9295907F7F
:1018D000822F8F70892B8583C8010E940F0886E0B4
:1018E000F801A6E3B2E001900D928A95E1F73CC0C1
:1018F00086E0F801A6E3B2E001900D928A95E1F747
:1019000058C0C8010E947A08811169CF80913B02BA
:10191000816080933B02C8010E940F084AC07A2D63
:10192000B98AA88A6E2D89890E94820886E0F6010C
:1019300011928A95E9F718C0EE2009F464CFC80126
:101940000E947A08F82E882309F45DCF86E0F8011A
:10195000A6E3B2E001900D928A95E1F786E392E06A
:101960000E948A040E94C90A0E94BA0A22C04D87B6
:101970005E878D859E850E946B0A292F22952F7088
:10198000223028F49F7039F0811105C00BC024303B
:1019900028F49F7049F4805E883020F0C8010E94CE
:1019A0000F089F2CF92C05C0F8019581907F99F7BD
:1019B000F9CF8F2D6196EBE00C946E2BACE0B0E08C
:1019C000E4EEFCE00C945A2B4F83588769877A87A2
:1019D0008B879C87CE0107960E94320B8823D1F01B
:1019E0009F8188852A853B85232B31F08F3F31F4F9
:1019F00081E09F3F19F403C081E001C080E080FDD9
:101A000047C04F81588569857A858B859C850E9462
:101A10008C083EC086E0FE013796DE0111960190EB
:101A20000D928A95E1F7FF81E8856A857B856115CE
:101A3000710531F0EF3F31F481E0FF3F19F403C04D
:101A400081E001C080E080FD23C02091050230E0EC
:101A5000C9010196877099274091040250E08417CC
:101A60009507F1F1F983EA837D836C8396E0929F79
:101A7000D001939FB00D1124AA5FBD4FFE01319696
:101A800001900D929A95E1F7809305020E94990AC0
:101A900016E08091040290910502891771F1189F58
:101AA000C00111248A5F9D4F0E94320B882329F1C7
:101AB000E09104021E9FF0011124EA5FFD4F408176
:101AC000518162817381848195810E948C0880910B
:101AD000040290E001968770992780930402D9CF81
:101AE0000E945A081092050210920402E6E3F2E006
:101AF00086E0DF011D928A95E9F72C96E3E00C94CD
:101B0000762B80915C0285958595859508958091C9
:101B10005C028770089590915C02977081E009F4EF
:101B200080E0089580917F02089590917F02892B33
:101B300080937F020895809590917F0289238093FE
:101B40007F02089510927F02089590917E02892B62
:101B500080937E020895809590917E0289238093E0
:101B60007E02089510927E02089580915D0208958C
:101B700008950E94B80D08950E94B90D089590919E
:101B8000E10292FF08C090915D02981721F08093C6
:101B90005D020E94BC0D089580915D02882329F0AA
:101BA00010925D0280E00E94BC0D0895CF93DF93F8
:101BB000E0910001F091010180917F028083E0912A
:101BC0000001F0910101908180917E02892B808338
:101BD00080915D02882381F0E0910001F091010184
:101BE0009081892B808380910001909101010E9456
:101BF000D82181110E94CC0DC0910001D09101012A
:101C000040E250E06CE372E0CE010E949B2B892BF6
:101C100059F080E2FE01ACE3B2E001900D928A95AA
:101C2000E1F7CE010E948421DF91CF9108950E94B7
:101C3000B80D08959091E10292FF11C098E0899F3C
:101C400090011124262B20935C020E94130980919D
:101C50005C028595859585950E94170E08950E94D2
:101C60001309089510925C0280E00E94170E0895F7
:101C700020915C028095822380935C02982F97705C
:101C800099F430E0482F082E000C550B2417350727
:101C900059F09091E10292FF07C085958595859551
:101CA0000E9435090E94320E08959091E10292FB44
:101CB000222720F9281769F080FB92F99093E1021E
:101CC0008091E0029091E1020E94A90E82E00E94C0
:101CD000380E08958091E10282FB882780F991E017
:101CE00089270E94550E089581E00E94550E08959F
:101CF00080E00E94550E08956FEF7FEF80E090E046
:101D00000E94DA2B089580E090E00E94B62B21E03B
:101D1000883E9E4F09F020E0822F089582E090E0F7
:101D20000E94A82B089583E090E00E94A82B0895BC
:101D3000CF9384E090E00E94A82BC82F82E290E02D
:101D40000E94A82B2C2F30E0A901582BCA01CF915B
:101D50000895CF93C92F682F84E090E00E94BC2B98
:101D60006C2F82E290E00E94BC2BCF910895AB01D2
:101D7000BC018FE090E00E94CE2B0895AB01BC0126
:101D800083E190E00E94CE2B089560E070E0CB01EB
:101D90000E94BE0E089560E070E0CB010E94B70E75
:101DA0000E94C50E089568EE7EEF80E090E00E94EC
:101DB000DA2B60E082E090E00E94BC2B60E083E0E0
:101DC00090E00E94BC2B109200021092010210922F
:101DD00002021092030260E084E090E00E94BC2BBB
:101DE00064E082E290E00E94BC2B60E085E090E03D
:101DF0000E94BC2B60E086E090E00E94BC2B6FEF5D
:101E000087E090E00E94BC2B40E050E0BA0188E0FF
:101E100090E00E94CE2B60E08DE090E00E94BC2B11
:101E200040E050E0BA0188E190E00E94CE2B60E0F3
:101E300087E190E00E94BC2B40E050E0BA018CE1C9
:101E400090E00E94CE2B60E070E080E290E00E9483
:101E5000DA2B40E050E0BA0188E190E00E94CE2BFE
:101E60000E94CB0E08950E94D30E0895682F8EE035
:101E700090E00E94BC2B08950E94602360938E0224
:101E800070938F02809390029093910260938A02E4
:101E900070938B0280938C0290938D02089581E061
:101EA00008950E944F0F089508950E94540F0895B9
:101EB0000E94540F08950E94580F08950E94540FD5
:101EC00008950E945E0F08950E94540F089584E1C2
:101ED00092E10E946D210E94640F0E94610F08959B
:101EE0000E94550F0E94540F08950E9430120E94C4
:101EF0002B040E94FD1E08950E944B230E94131381
:101F00000E94750F0E943B1D0E947A1B0E945B0F6E
:101F10000895AAE0B0E0EFE8FFE00C944E2B0E9499
:101F20002913C82E81110E943C0F30E8832E32E025
:101F3000932E00E010E0502E802F0E9455125C017D
:101F4000F401619071904F01682679266114710443
:101F5000B1F40F5F1F4F0530110569F78FEF8983CB
:101F60008A831B820E9454238160782F9D838C83F7
:101F700049815A816B818D810E9449043BC08091C7
:101F8000920281FD0E945E12D12CEE24E394F12C8A
:101F9000C3018E219F21892B31F10E94510F88238B
:101FA000B1F0DE825F82AE20BF2081E0A114B104D7
:101FB00009F480E088870E9454238160782F9A87F3
:101FC00089874E815F8168858A850E944904000F58
:101FD000111FF801E058FD4F80819181E826F92614
:101FE000F182E08207C0D394EE0CFF1CFFE0DF1209
:101FF000CFCFAFCF81E0C11001C080E02A96EFE0E3
:102000000C946A2B0E94890F0E94AD1B0E94FC1E3B
:102010000E9445150E943E040895CF93DF930E94CD
:102020003D11EC01811521E5920708F045C08115AD
:1020300030E5930708F094C0883E910528F5803E6E
:10204000910508F0F8C0883A910570F4853A910539
:1020500008F07CC08130910509F475C008F4E8C02F
:10206000049708F0E8C0E4C08F3B910508F0E0C099
:10207000C85AD0E0CC0FDD1FC55ADE4F0990D88179
:10208000C02DCE019464D8C0811540E2940758F465
:10209000811551E0950708F0CEC08D3E910508F4FA
:1020A000C7C09065C9C0C11580E4D80708F4C0C096
:1020B000DF70CE01906AC0C0811525E59207A8F4B3
:1020C000811534E5930708F095C0811543E5940721
:1020D00008F07BC0811552E5950708F061C0D82F44
:1020E000CC27CE01816F906AA7C0C11589E5D807BA
:1020F000A0F4C11528E5D20708F082C0C11536E565
:10210000D30708F095C08C2F0E94D1118F7190E0F9
:10211000D82FCC27CE0190628FC0C1154AE5D407D5
:1021200008F474C0CE0190568115904208F080C02A
:102130008D2F8F710E94D111DD27D0628F71AE017A
:10214000582BCA0179C081E090E076C0C55AD0E032
:10215000C757DE4F8881C82FD0E0CE0190646CC095
:1021600074E0969587957A95E1F7282F23703C2F98
:10217000337081E090E002C0880F991F3A95E2F732
:102180009C68AC01522B9A019C2F9F709695969556
:1021900050E2959FE0011124C9018C2B9D2B4CC06E
:1021A0008370992721E030E002C0220F331F8A9507
:1021B000E2F79C2F9695969580E2989FE001112476
:1021C000C22BD32BCE019C6837C08370992721E0A6
:1021D00030E002C0220F331F8A95E2F79C2F9695BC
:1021E000969540E2949FE0011124C22BD32BCE019F
:1021F0009A6822C0D82FCC27CE01846F906A1CC069
:10220000DC2FCC27CE01806F906A16C08C2F8F7088
:102210000E94D11194E0D695C7959A95E1F7CF70B9
:10222000D0E0DC2FCC27D0699E01282BC90104C047
:1022300080E090E001C0CE01DF91CF91089575302C
:10224000A0F46F3090F49BE4899FF00111248FE09B
:10225000789FE00DF11D1124E60FF11DEE0FFF1F19
:10226000E852FF4F85919491089580E090E00895A1
:102270000E941F110E940D1008958238910569F186
:10228000B0F48133910509F46DC048F489329105A9
:1022900009F463C08A32910509F469C00895853351
:1022A000910509F455C089339105B9F00895833E2D
:1022B000910569F138F4803E9105B1F0823E9105B7
:1022C00009F10895863E9105A9F1873E9105B9F17E
:1022D000843E910509F064C023C02091E00220FDF6
:1022E0004FC021FD4DC008958091E00280FD44C0A3
:1022F0008091E10280FF44C08091E00284FD42C0F1
:1023000083EE4DC08091E00282FF38C0F5CF80910E
:10231000E00282FD33C08091E10280FD31C0ECCF4C
:102320008091E10281FF32C08091E00284FD2AC0E9
:1023300087EE35C08091E00283FF26C0F5CF809103
:10234000E00283FD21C08091E10281FD1FC0ECCF3E
:102350008091E00285FD1CC01DC08091E00285FDDA
:1023600019C016C08091E00286FD16C017C080918A
:10237000E00286FD13C010C089E311C082EE0FC0D9
:1023800080EE0DC080E00BC086EE09C084EE07C071
:1023900089E205C085E303C08AE201C081E390E0E1
:1023A00008959091E00292FF0DC0282F28712830E7
:1023B00019F4877F846006C0282F2471243011F41B
:1023C0008B7F886093FF0DC0282F2871283119F466
:1023D000877E846106C0282F2471243111F48B7EFE
:1023E00088612091E10220FF0DC0382F387138300C
:1023F00019F4877F816006C0382F3171313011F4B4
:102400008E7F886021FF0DC0282F2871283119F494
:10241000877E816106C0282F2171213111F48E7EC3
:10242000886194FD877E089580E008950E947C0E67
:1024300008950E9429138FE39CE90197F1F700C0EA
:1024400000000E94291380E00E94551280FF04C002
:102450000E9416120E94A12308950E941912089545
:102460000E94830E811102C00E94330F0E948E0EC3
:10247000809392020E94980E9093E1028093E00272
:102480000E942D120E94930E682F70E080E090E071
:102490000E94AB086091FC017091FD018091FE01EA
:1024A0009091FF010E94E7080895E82FF0E0EE0FF9
:1024B000FF1FE451FD4F808191810895089580EAC6
:1024C0008A95F1F7089500C008950E945F1208955B
:1024D00008950E94681208950E94691208950E944A
:1024E000681208950E946F120895F894E82FE295FB
:1024F000EF70F0E031A1282F2F7081E090E001C053
:10250000880F2A95EAF7982F9095932391A392A18B
:10251000892B82A3789408950F931F93CF93DF9311
:10252000CBE9D1E089918F3F11F00E94751281E0D3
:10253000C03AD807B9F7CCE8D1E00BE911E08991AE
:102540008F3F11F00E9475120C171D07C1F7DF9124
:10255000CF911F910F910895A0E0B0E0E2EBF2E17E
:102560000C94542B8C01C62FD0E0CE0185569E4F83
:102570006C01FC0190819F3F09F450C0B62EF89485
:10258000E92FE295EF70F0E081A19F7021E030E04B
:1025900001C0220F9A95EAF7822B81A382A1209590
:1025A000282322A378940E946312ECE8F1E04BE91F
:1025B00051E021E030E0E12CF12C61916F3F89F096
:1025C000A62FA295AF70B0E090968C9190E06F70BE
:1025D00002C0959587956A95E2F780FD02C0C90112
:1025E00002C080E090E0E82AF92A220F331F4E173C
:1025F0005F0719F7F60180818F3F11F00E94751275
:1026000061E0E114F10409F460E08B2D0E94651291
:10261000CC0FDD1FC00FD11FF982E882CDB7DEB726
:10262000E9E00C94702B0E948C128AE0ECEEF2E050
:10263000DF01982F1D929A95E9F7E2EEF2E0DF01B3
:102640001D928A95E9F785E00E9465130E94910327
:102650000895AAE0B0E0EFE2F3E10C94582B8E016C
:102660000F5F1F4F8AE0F80111928A95E9F7F12C6C
:102670006F2DC8010E94AC12F394F5E0FF12F8CF61
:102680004AE050E0B80182EE92E00E949B2BFF24CA
:10269000F394009709F4F12C892B41F08AE0F801BA
:1026A000A2EEB2E001900D928A95E1F72F2D45E060
:1026B0006CEE72E082EE92E00E9466130E94940338
:1026C0008F2D2A96E5E00C94742B0895FF920F93BA
:1026D0001F93CF93DF93F82E092F162FD72FC42FD8
:1026E000222349F081E0809395020E945423909325
:1026F000940280939302809195028823D9F080916F
:102700009302909194020E946C23059798F0EF2D0C
:10271000F02FA12FBD2F80E090E04C2F50E08417C8
:10272000950734F4219131912D933D930196F7CF84
:1027300010929502CDB7DEB7E5E00C94742B0E94A1
:102740007F250E947C0F0E948C2508950E94912570
:102750000E9402100E94AB2508950E94EB220E9465
:1027600065250E94670F0E949F130E94A6130E9476
:10277000700FFBCF80919C0280FF06C06091070123
:1027800070E0660F771F26C081FF04C060910701CB
:1027900084E005C082FF07C06091070188E0689F60
:1027A000B001112417C090919B029923D1F0609140
:1027B0000601961788F72091070188E0289F90016D
:1027C0001124929FA001939F500D112470E0CA0123
:1027D0000E94DE2A6038710540F46115710519F414
:1027E00006C068E070E0862F08958FE7089581E0C5
:1027F000089580919C0280FF08C06091030170E001
:10280000759567957595679521C081FF06C06091A4
:10281000030170E07595679519C082FF04C060914F
:10282000030170E010C090919A02992399F0609191
:1028300002019617A0F780910301899FC00111241E
:1028400070E00E94DE2A6038710540F46115710560
:1028500019F406C061E070E0862F08958FE70895AF
:1028600081E008958D3E21F40E94BA13819504C041
:102870008E3E29F40E94BA138093A00208958F3EE1
:1028800021F40E94BA13819504C0803F29F40E946C
:10289000BA1380939F020895893F19F40E94F91397
:1028A00005C08A3F31F40E94F91381958093A102FB
:1028B00008958B3F21F40E94F913819504C08C3F49
:1028C00029F40E94F9138093A20208959FE0980FC3
:1028D000983078F421E030E0A90102C0440F551F80
:1028E0009A95E2F7CA0190919E02892B80939E02ED
:1028F00008958D3F21F480919C0281600BC08E3F32
:1029000021F480919C02826005C08F3F29F4809160
:102910009C02846080939C0208958D3E39F49091CE
:10292000A00297FF35C01092A00259C08E3E29F434
:102930009091A0021916BCF32BC090919F028F3E7C
:1029400029F497FF25C010929F0249C0803F19F4D7
:102950001916CCF31DC09091A102893F29F41916D4
:10296000BCF41092A1023BC08A3F19F497FF10C03B
:10297000F8CF8B3F39F49091A20297FF09C01092D3
:10298000A2022DC08C3F21F49091A2021916BCF333
:102990009FE0980F983080F421E030E0A90102C058
:1029A000440F551F9A95E2F7CA01809590919E02B7
:1029B000892380939E0213C08D3F21F480919C0255
:1029C0008E7F0BC08E3F21F480919C028D7F05C0CD
:1029D0008F3F29F480919C028B7F80939C02809191
:1029E0009F02811106C08091A002811102C0109245
:1029F0009B028091A102811106C08091A2028111E7
:102A000002C010929A0208950E94542320919F02BE
:102A1000211104C02091A002222321F09093990259
:102A2000809398022091A102211104C02091A2025A
:102A3000222321F090939702809396028DE992E0F1
:102A40000E949E210895EDE9F2E086E0DF011D92EB
:102A50008A95E9F710929B0210929A0210929C02BA
:102A60000895FC01828181110DC0838181110AC00A
:102A70008481811107C091E08581811101C090E0BE
:102A8000892F01C081E081700895A6E0B0E0EBE4F9
:102A9000F5E10C945A2B86E0EDE9F2E0DE011196A7
:102AA00001900D928A95E1F710929F021092A00278
:102AB0001092A1021092A2028B81811104C08C811C
:102AC000882309F45FC080919802909199020E9436
:102AD0006C23AC0190919B02992339F0209108015D
:102AE00030E02417350758F04DC0209109018AE0E5
:102AF000289F900111242417350718F043C09F3FE9
:102B000019F09F5F90939B021B81112361F00E943B
:102B1000BA13111614F09FEF01C091E0989F902D09
:102B2000112490939F021C81112361F00E94BA131B
:102B3000111614F09FEF01C091E0989F902D112481
:102B40009093A00230919F023323E1F02091A002E4
:102B50002223C1F045EB3403C0011124992319F05D
:102B600090939F0203C081E080939F0235EB230383
:102B7000C0011124992319F09093A00203C081E0B1
:102B80008093A0028D81811104C08E81882309F475
:102B90005FC080919602909197020E946C23AC01D5
:102BA00090919A02992339F02091040130E0241782
:102BB000350758F04DC0209105018AE0289F90010B
:102BC00011242417350718F043C09F3F19F09F5F69
:102BD00090939A021D81112361F00E94F91311163E
:102BE00014F09FEF01C091E0989F902D11249093D5
:102BF000A1021E81112361F00E94F913111614F035
:102C00009FEF01C091E0989F902D11249093A20214
:102C10003091A1023323E1F02091A2022223C1F0DE
:102C200045EB3403C0011124992319F09093A102BC
:102C300003C081E08093A10235EB2303C00111247E
:102C4000992319F09093A20203C081E08093A2021D
:102C5000BE016F5F7F4F8DE992E00E949C2281113F
:102C600005C08DE992E00E94311581110E94041582
:102C700086E0FE013196ADE9B2E001900D928A95B1
:102C8000E1F72696E3E00C94762BEF92FF920F93F8
:102C90001F93CF93DF938B01682F11110AC0442338
:102CA00029F0E82FF0E0EF54FC4F6491762F862F47
:102CB00075C0212F30E0E82FF0E0442321F0EF54DD
:102CC000FC4FE491F0E046E0049FC0011124CFEFF7
:102CD000D0E0BE010E94CA2A4BEA4603C001479FCA
:102CE000900D1124800F911D800F911D982F990F29
:102CF000890FAE01421B530B4E9FD0014F9FB00D69
:102D00005E9FB00D11249B2F189FA0011124452F09
:102D100055278E01041B150B0E9FA0010F9F500D10
:102D20001E9F500D11247E01E81AF108E29E8001D9
:102D3000E39E100DF29E100D1124212F3327C21B8C
:102D4000D30BCE9F9001CF9F300DDE9F300D11240D
:102D500062307105A9F048F46115710569F06130C0
:102D60007105C9F48B2F752F0DC06430710581F08A
:102D700058F06630710579F47E2F8B2F932F0DC09C
:102D8000832F7B2F9E2F09C08E2F7B2F952F05C061
:102D90008E2F732F02C07E2F852F692FCDB7DEB700
:102DA000E6E00C94732B41E00E94451608950895C7
:102DB0000E94D3160895CF93DF93762FE901682FF1
:102DC000842F0E94D816798368838A83DF91CF91FC
:102DD00008958091F602282F269530E021153105BF
:102DE00019F48170826005C02532310524F08170AC
:102DF00088648093F602089588E090E00E94B02BEA
:102E00000895CF92DF92EF92FF926B017C010E94B6
:102E1000E916B701A60188E090E00E94CE2BFF9052
:102E2000EF90DF90CF900895E6EFF2E083E08083AB
:102E300011828FEF8283838314826081718182810A
:102E400093810E94011708958091F60280FF02C0CD
:102E50008695089580E008959091FA02933018F4D1
:102E60009F5F9093FA02882351F06091F60270916F
:102E7000F7028091F8029091F9020E9401170895DB
:102E800081E00E942C1708959091FA02992319F07D
:102E900091509093FA02882351F06091F60270915C
:102EA000F7028091F8029091F9020E9401170895AB
:102EB00081E00E944417089570E00E940E1F08955B
:102EC00060910E018091F60280FF0BC080910D0190
:102ED00023E0829FC001112485509D4F0E945C1702
:102EE000089580910F0190911001891778F7E82FCC
:102EF000F0E09F01220F331FE20FF31FE550FD4F5B
:102F00001182108212828F5FF0CF9091F60290FFB3
:102F100016C090910F0120911001921770F4E92FC3
:102F2000F0E0DF01AA0FBB1FEA0FFB1FE550FD4FCA
:102F30008183608342839F5FF0CF0E946017089572
:102F4000A3E0B0E0E6EAF7E10C945B2B9091F60287
:102F500090FF0AC09E012F5F3F4F0E94DB164B81FE
:102F600069818A810E9485172396E2E00C94772B71
:102F7000CF93DF93EC01EC81F0E0E455FD4F4491F9
:102F8000E6EFF2E0628181810E94A0178C818F5F61
:102F90008C83DF91CF910895CF93DF93EC01E6EF1F
:102FA000F2E0438162818C810E94A0178C818F5F47
:102FB0008C83DF91CF910895A3E0B0E0E2EEF7E1DA
:102FC0000C94592B8C018091A30281110AC09E019F
:102FD0002F5F3F4F4FEF6FEF0E94DB168A81809388
:102FE000A302F8018481813051F028F0823061F42D
:102FF0004091A3020AC08091A30240E007C0609103
:10300000A30240E080E003C040E080E060E00E9476
:103010008517F801848190E0019663E070E00E94DA
:10302000DE2A84832396E4E00C94752BA3E0B0E0C1
:10303000ECE1F8E10C94542B082FE62EF42ED22E5E
:103040009091F60290FF67C0E92FE695AE2FB0E0B1
:10305000A056BE4F8C918093AD029E7F923061F45A
:103060009E012F5F3F4F802F0E94DB164B816981AD
:103070008A810E9485173DC0823019F4F090F902D0
:1030800038C0863019F40091F70233C08930D9F383
:10309000893179F5E9518E2F8170C82EE695F0E0DF
:1030A000E455FC4F1491B12C60911101B616F8F45F
:1030B000B19EC001112470E00E94CA2A802FC11065
:1030C00002C0860F01C0861B90910F012B2D30E0AE
:1030D000290F311DA901440F551F240F351F2550FD
:1030E0003D4F4F2D6E2D0E94DB16B394DDCF0E9415
:1030F00060170093F702E092F802F092F902DD20E7
:1031000051F06091F6027091F7028091F80290916F
:10311000F9020E9401172396E9E00C94702BE6EF68
:10312000F2E09181282F4381628188E0890F0E941B
:103130001618089581E00E948F180895E6EFF2E0D6
:103140009181282F4381628188EF890F0E94161890
:10315000089581E00E949E180895E6EFF2E06281F2
:1031600028E0620F08F46FEF282F438181810E94CD
:103170001618089581E00E94AD180895E6EFF2E078
:10318000628128E0621B08F460E0282F438181817E
:103190000E941618089581E00E94BE180895E6EF77
:1031A000F2E0438128E0420F08F44FEF282F6281BC
:1031B00081810E941618089581E00E94CF18089519
:1031C000E6EFF2E0438128E0421B08F440E0282FBC
:1031D000628181810E941618089581E00E94E018A2
:1031E000089520E00E9416180895FF920F931F93F0
:1031F000CF93DF93EC01F12C0FEF10E06091110100
:10320000F616F0F480910F012F2D30E0280F311DBC
:10321000C901880F991F280F391F25503D4F70E0B5
:10322000C8010E94DE2A962F8C814091F90260919C
:10323000F802F99E800D11240E94DB16F394DECF74
:103240000E9460179A818C8190FF02C08F5F01C03D
:1032500081508C83CDB7DEB7E5E00C94742BA0E0F1
:10326000B0E0E5E3F9E10C94532BFC01828180FF8F
:1032700002C00FEF01C001E010E04AE0A42E8091EF
:103280001101181708F043C080910F01C12ED12CF5
:10329000E601C80FD11DCE01880F991FC80FD91F95
:1032A000C550DD4F198218821A8234E0E32EF12CCA
:1032B000B12C8091A5028B0D8B302CF06A2D0E94D1
:1032C000BC2A892F05C087FF03C090911101890F87
:1032D000082E000C990BC816D90691F48091F902BA
:1032E0008E9DA0018F9D500D1124559547955595A4
:1032F00047959E016091F8028091F7020E94DB16CB
:10330000B00EF1E0EF1AF108A1F61F5FB8CF0E94EE
:1033100060178091A502013031F4811102C08091C3
:103320001101815007C090E001966091110170E099
:103330000E94DE2A8093A502CDB7DEB7EAE00C94A6
:103340006F2BCF9380910F0190911001891770F42A
:10335000E82FF0E09F01220F331FE20FF31FE5502B
:10336000FD4F1182108212828F5FF0CFC0E060911A
:103370001101C617C0F5EC2FF0E070E0CF010E94FC
:10338000DE2A20910F01820F2091A402022E000C50
:10339000330B90E0E217F307CCF020910C01022EE2
:1033A000000C330B2E173F078CF09C01220F331FAC
:1033B000820F931F9C0125503D4F4091F90260916F
:1033C000F8028091F7020E94DB160BC0FC01EE0FA1
:1033D000FF1F8E0F9F1FFC01E550FD4F11821082D1
:1033E0001282CF5FC4CF0E94601720910B018091A1
:1033F000A402820F8093A40290910C01920F9093EB
:103400000C0119165CF4082E000C990B4091110167
:1034100050E041505109841795071CF021952093E5
:103420000B01CF910895A0E0B0E0E9E1FAE10C943E
:10343000512B8C01FC014481C42FD0E09E01DE01A0
:103440000E94222B9B01AC010E94382B6B017C0156
:10345000E0E2F0E0EC1BFD0BA5E5B0E09B01AC0168
:103460000E94382B4B015C019F01DF010E941A2B47
:103470009B01AC010E94432B9B01AC012C0D3D1D17
:103480004E1D5F1DC501B4010E94F22AC22FD22F2A
:103490002A3228F4F3E02F9F900111240DC025E576
:1034A00030E02C1B3109C901880F991F280F391FE3
:1034B00037FF02C02F5F3F4F35952795C22FC0952C
:1034C000F12C85E5E82EED1A80911101F816C8F46B
:1034D000F1FC02C08E2D01C08D2F90910F012F2D78
:1034E00030E0290F311DA901440F551F240F351F4E
:1034F00025503D4F4C2F6091F8020E94DB16F3944B
:10350000E3CF0E946017F8018481811102C091E02D
:1035100003C0803219F49FEF90930A0190910A0141
:10352000890FF8018483CDB7DEB7ECE00C946D2BE6
:103530000F931F93CF93DF93EC0100E010E0809195
:103540001101282F30E00217130724F590910F0185
:103550009801290F311DA901440F551F240F351F54
:1035600025503D4F869590E04C81081719071CF4B3
:10357000442331F002C0411103C04091F90201C05F
:1035800040E06091F8028091F7020E94DB160F5F25
:103590001F4FD5CF0E9460178C8190E001968170FB
:1035A00099278C83DF91CF911F910F910895E6EFBA
:1035B000F2E080818E7F808360817181828193813E
:1035C0000E9401171092AE022FEF80E792E0215087
:1035D00080409040E1F700C000000E94601708950D
:1035E0006091F602669570E04BE050E082E191E078
:1035F0000E948E2B892B19F481E08093AE020E94E9
:1036000054239093A7028093A60208959091F60206
:1036100090FF35C09170811102C0926006C0853262
:1036200010F0986402C0880F982B9093F6026623DE
:1036300051F06091F6027091F7028091F80290913A
:10364000F9020E9401176091F602669570E04BE066
:1036500050E082E191E00E948E2B892B19F01092AC
:10366000AE0202C00E94F01A81E08093A90240914C
:10367000F9026091F8028091F7020E94F118089512
:10368000682F9091F602969581E0890F853208F0B7
:1036900081E00E94061B089581E00E94401B08956E
:1036A000682F9091F60296958FEF890F09F484E2C6
:1036B0000E94061B089581E00E94501B089561E05E
:1036C0000E94061B0895E6EFF2E08081816080830E
:1036D00086950E945F1B08958091F60280FF03C0CB
:1036E0000E94D71A08950E94631B089560E00E940B
:1036F000061B08958091AC0281112EC00E94830E9A
:10370000811104C00E94330F0E9414170E94FC16FE
:103710006093F6027093F7028093F8029093F90297
:103720006E7F61F40E9414170E94FC166093F602EB
:103730007093F7028093F8029093F9020E94E916C1
:103740001092AE028091F60280FF03C086950E941F
:10375000761B81E08093AC0208950F931F93CF9363
:10376000DF938091AE02882309F481C08091AD027D
:10377000E091F602E695E81BE093A802823049F456
:10378000F0E0E855FD4FE491CE2FD0E008EB17E1D3
:1037900049C0863049F4F0E0EB55FD4FE491CE2F5F
:1037A000D0E00CEC17E13EC0893051F4E695F0E032
:1037B000EE55FD4FE491CE2FD0E005EF18E132C079
:1037C0008F3051F4E695F0E0E156FD4FE491CE2FB5
:1037D000D0E00FE219E126C0853149F4F0E0E4566B
:1037E000FD4FE491CE2FD0E001EA19E11BC08831F2
:1037F00081F0833239F4EAE9F2E0C591D4910CED1D
:1038000017E110C0843251F4C4EFD1E008E91AE1A5
:1038100009C0C8E2D0E003E11AE104C0C0EDD7E07E
:1038200007ED16E18091A902882361F01092A902A8
:103830000E9454239093A7028093A6021092AB0299
:103840001092AA020E945423E091A602F091A702CE
:103850008E1B9F0B8F3F9F4750F4EC0FFD1FF09383
:10386000A702E093A60286EA92E0F8010995DF91AB
:10387000CF911F910F910895882311F0FA0101C093
:10388000FB0109950895CF93DF93C82FD62F0E948F
:1038900024178C1738F00E9424178D1718F40E94F3
:1038A0004C1B03C08C2F0E945F1BDF91CF910895AA
:1038B0001F93CF93DF93FB0112811111C3C0EC0161
:1038C0000E94920D8272CD3CFCE5DF0709F49AC09C
:1038D000A8F5C73CECE5DE0709F476C0A8F4C43CC3
:1038E0009CE5D90709F45FC028F4C33CDC4509F422
:1038F00057C054C0C53C9CE5D90709F459C0C63C23
:10390000DC4509F45CC04AC0CA3CFCE5DF0709F4A9
:103910006AC050F4C83CECE5DE0709F45AC0C93C63
:10392000DC4509F45BC03AC0CB3C9CE5D90709F4FF
:103930005FC0CC3CDC4509F460C030C0C23DFCE552
:10394000DF0709F46FC088F4CF3C9CE5D90709F480
:1039500060C008F45CC0C03DFCE5DF0709F45CC052
:10396000C13DDC4509F45BC019C0C53D9CE5D907E4
:1039700009F460C050F4C33DFCE5DF0709F455C00D
:10398000C43DDC4509F454C009C0C63D9CE5D907D7
:1039900009F455C0CE35DD4509F454C011E052C0DC
:1039A0000E946C1B4FC04BE55BE16CE47BE104C003
:1039B0004CE45BE16BE57BE10E943C1C43C049EABF
:1039C00058E16AE978E1F8CF4AE958E169EA78E133
:1039D000F3CF4BEC58E16AEB78E1EECF4AEB58E1DC
:1039E0006BEC78E1E9CF4DEE58E16CED78E1E4CF96
:1039F0004CED58E16DEE78E1DFCF48E557E160E44A
:103A000077E1DACF40E457E168E577E1D5CF81E0AF
:103A100017C065E082E010C068E086E00DC06EE08F
:103A200089E00AC064E18FE007C067E185E104C076
:103A300088E106C062E289E10E94431C03C083E280
:103A40000E945F1B812FDF91CF911F91089586E027
:103A500090E00E94A82B0895682F86E090E00E94D5
:103A6000BC2B089580911903847089628093190397
:103A70000E942C1D08950E94830E811104C00E9493
:103A8000330F0E94321D0E94271D80931903282F97
:103A900026952695269530E02630310524F087704E
:103AA0008862809319038091190380FF04C0869572
:103AB0008695869501C080E00E94551E089520914C
:103AC0001903822F869586958695482F50E04530BC
:103AD000510554F48F5F982F990F990F990F822FEA
:103AE0008770892B809319038091190381608093DB
:103AF00019030E942C1D8091190386958695869541
:103B00000E94551E089580911903982F96959695B9
:103B10009695A1F0915E990F990F990F8770892B57
:103B200080931903887F91E009F490E08091190354
:103B300090FB80F9809319030E942C1D809119033A
:103B40008695869586950E94551E08958091190345
:103B500080FD13C0816080931903813019F489E0DE
:103B600080931903809119030E942C1D80911903E1
:103B70008695869586950E94551E08958091190315
:103B800080FF08C08E7F809319030E942C1D80E067
:103B90000E94551E08958091190380FF03C00E9462
:103BA000BE1D08950E94A61D089590911903892FA6
:103BB0008695869586958F5F8F719770863038F4DD
:103BC000880F880F880F892B8093190302C0909368
:103BD000190380911903887F91E009F490E08091A6
:103BE000190390FB80F9809319030E942C1D80918A
:103BF00019038695869586950E94551E08958630F0
:103C000008F085E0909119039770282F220F220F5A
:103C1000220F922B90931903987F21E009F420E062
:103C20009091190320FB90F9909319030E94551E5F
:103C300008950E94FF1D809119030E942C1D089574
:103C40009C01FB018281882349F12E3BFCE53F0763
:103C5000C9F040F42C3BECE53E0769F02D3B3C45B8
:103C600061F00895203C9CE5390791F070F0213C0B
:103C70003C4589F0089585E001C080E00E94191E4E
:103C800080E008950E94831DFBCF0E945F1DF8CF46
:103C90000E94CB1DF5CF0E94D51DF2CF81E0089583
:103CA000279A2F9808952F980895A0E0B0E0EBE5AB
:103CB000FEE10C94512BC82F863050F4811109C0BD
:103CC00080918000877F809380000E94531E06C0F1
:103CD000C5E080918000886080938000A09186007C
:103CE000B09187002C2F30E00E94222B25E030E09D
:103CF00040E050E00E94F22A0027122F232F342F99
:103D0000012F122F232F3327809186009091870057
:103D10006CE070E00E94CA2A6017710730F0C80199
:103D200069E070E00E94CA2A5EC08091860090918E
:103D30008700E0908600F0908700E0918600F09187
:103D40008700C6E0D0E0BE010E94CA2A060F171FF6
:103D5000211D311D4801590185E0880C991CAA1CC0
:103D6000BB1C8A95D1F7C701BE010E94CA2A6F0108
:103D7000E12CF12CA7019601260F371F411D511D83
:103D8000C501B4010E94F22A69017A01E09186001E
:103D9000F0918700CA01B9010E94AC2A9B01AC01D5
:103DA000DF010E94382B9B01AC01C701B6010E94C4
:103DB000AC2ADC01CB012FE0B695A79597958795A6
:103DC0002A95D1F7009186001091870020E030E01D
:103DD000081719072A073B0728F46091860070919D
:103DE0008700CB01BC0170938D0060938C00CDB730
:103DF000DEB7ECE00C946D2B08950E94501E8AE013
:103E00008093800089E1809381008FEF9FEF9093F2
:103E10008700809386000E943B1D0895869A21B3F7
:103E20002F7B31B330644FB7F894FC01CB01880F7E
:103E3000991F680F791F6E0F7F1FE617F70789F02C
:103E4000819198E031BB000000C087FF21BB880F43
:103E5000000000C000C000C021BB00C09A9591F7CF
:103E6000ECCF4FBF8FE594E00197F1F700C0000061
:103E70000895CF93DF93EC01FB018281882309F43D
:103E80003CC1C430FDE5DF0760F4CB3F9CE5D907BA
:103E900088F49E0122503C452431310508F02EC1A2
:103EA00009C0C236EDE5DE0729F0C63AFDE5DF07B9
:103EB00009F024C10E94980E9093E1028093E002E1
:103EC000C1318CE5D80709F4C6C008F042C0C9303A
:103ED000ECE5DE0709F49BC000F5C5308CE5D8079A
:103EE00009F485C078F4C330ECE5DE0709F478C046
:103EF00008F07AC0C230DC4509F0F5C08091E002DC
:103F00008160EFC0C7309CE5D90709F478C008F09C
:103F10007AC08091E0028061E4C0CD30FCE5DF072B
:103F200009F487C058F4CB309CE5D90709F479C06F
:103F300008F07BC08091E00288606FC0CF30FCE564
:103F4000DF0709F480C008F082C08091E002877F1B
:103F5000C8C0CE3F9CE5D90709F471C000F5C53152
:103F6000FCE5DF0709F485C068F4C3319CE5D90797
:103F700009F475C008F095C00E945A088091E002CB
:103F80008F77AFC0CC3FFCE5DF07A9F108F054C044
:103F9000CB3FDC4509F0A7C08091E10240C0C230B0
:103FA000EDE5DE0709F489C058F4C1158DE5D807A1
:103FB00009F45AC008F069C08091E10282602FC004
:103FC000C236EDE5DE0709F47CC0C63AFDE5DF0741
:103FD00009F481C0C330DD4509F085C080E06EC0C2
:103FE0008091E00282607DC08091E00216C08091E5
:103FF000E002886076C08091E10282604FC08091CB
:10400000E00280626EC08091E00280646AC00E941B
:104010005A088091E002806864C0846062C0816058
:104020003DC08091E0028E7F5CC08091E0028D7F78
:1040300058C08091E00216C08091E10218C08091C2
:10404000E1028D7F2BC08091E0028F7E4AC080917B
:10405000E0028F7D46C08091E0028F7B42C080915C
:10406000E002877F8B7F3DC08091E1028D7F8E7F54
:1040700015C08091E00282FB222720F991E092276F
:1040800090FB82F990FB83F92CC08091E102982F7C
:10409000909591708E7F892B90FB81F98093E1023E
:1040A00022C00E945A088091E00287FB222720F953
:1040B00091E0922790FB87F914C081E00E94360FAF
:1040C00012C08091E00284FB222720F991E0922720
:1040D00090FB84F906C08091E002982F909590FBA8
:1040E00080F98093E0028091E0029091E1020E94C9
:1040F000A90E0E945A0880E001C081E0DF91CF91B3
:104100000895CF93DF9386319C4541F5EB010E94E2
:10411000920D982F8A81209100013091010188230E
:1041200079F09A7A81E009F480E08093AF029111EE
:1041300002C069E201C065E3C9010E946E220AC0A3
:104140008091AF02811102C069E201C065E3C9013B
:104150000E947C220E94D60D80E001C081E0DF91A8
:10416000CF9108950F931F93CF93DF93C42FD22F36
:10417000FC0182818823B1F04093B2020E94542353
:104180009093B1028093B00280E28C0F883008F0E7
:104190004DC0C77081E001C0880FCA95EAF70E9440
:1041A000C60544C08091B202481330C08091B0026D
:1041B0009091B1020E946C23883C910538F510E281
:1041C0001D0FCD17B9F080E28C0F883040F4C77016
:1041D00081E001C0880FCA95EAF70E94CD0518302A
:1041E00010F581E09D2F977001C0880F9A95EAF72E
:1041F0000E94C605802F0E94BC051830B8F4D77005
:1042000081E001C0880FDA95EAF70AC080E28C0FDE
:10421000883060F4C77081E001C0880FCA95EAF762
:104220000E94CD0503C0802F0E94BC05DF91CF9175
:104230001F910F9108950F939C01CB01243F4CE5F2
:10424000340731F188F4293DFCE53F07D9F02A3DD8
:104250004CE5340779F1283D3C45A9F506E221EE0D
:1042600041EE68ED7CE52BC0263FFCE53F07E1F021
:10427000A8F0273F3C4539F507E225EE46EE67EF0B
:104280007CE51DC007E225EE45EE69ED7CE517C033
:1042900006E221EE40EE64EF7CE511C007E225EE78
:1042A00044EE65EF7CE50BC006E221EE42EE66EFE0
:1042B0007CE505C008E221E045EE6AED7CE50E9460
:1042C000B22080E008C0FC018281882319F010929E
:1042D000B20201C081E00F9108959093C7018093CD
:1042E000C60108959093B8028093B7020895E091B3
:1042F000B702F091B802309729F00190F081E02DDB
:104300000995089580E00895FC01A091B702B0914D
:10431000B802109791F080912901882341F0809193
:10432000E00287FF04C08081818386E08083CF0123
:104330001296ED91FC91139709950895E091B702BB
:10434000F091B802309739F022E0DC012C93048020
:10435000F581E02D099508952091B5023091B602BE
:104360002817390771F09093B6028093B502E09157
:10437000B702F091B802309721F00680F781E02D66
:10438000099508952091B3023091B4022817390796
:1043900071F09093B4028093B302E091B702F09170
:1043A000B802309721F00084F185E02D0995089539
:1043B000FC01329680912901882331F08091E0023E
:1043C00087FF02C09EE101C096E080E0915028F096
:1043D00021912223D9F38F5FF9CF0895662351F1FC
:1043E000209129012223E9F02091E00227FF19C042
:1043F000462F4695469546954E31E0F4677021E08C
:1044000030E002C0220F331F6A95E2F7FC01E40F8F
:10441000F11D828190E02823392381E0232B69F468
:1044200009C0FC01329608962191621729F0E8171D
:10443000F907D1F780E0089581E008959C01FC011F
:1044400032969FEF80E04191461789F09F3F19F423
:10445000411101C0982F8F5F8630A9F79F3F39F037
:10446000F901E90FF11D97FDFA956283089508950A
:104470009C012A5F3F4FFC014281461301C012821A
:10448000019682179307B9F70895262F269526954A
:1044900026952E3168F4FC01E20FF11D677021E0D2
:1044A00030E001C0220F6A95EAF78281282B22832F
:1044B0000895262F2695269526952E3170F4FC0119
:1044C000E20FF11D677021E030E001C0220F6A9514
:1044D000EAF72095828128232283089520912901DB
:1044E000222339F02091E00227FF03C00E944522D9
:1044F00008950E941E22089520912901222339F057
:104500002091E00227FF03C00E94592208950E94D3
:104510003822089520912901FC013296222331F09E
:104520008091E00287FF02C08EE101C086E0DF01DA
:104530001D928A95E9F7089546E050E00E949B2B72
:1045400021E0892B09F420E0822F089508950E942C
:10455000A622089583E08093B9020E94A7220895BD
:10456000811102C081E001C082E08093B9020E9403
:10457000A72208950E94B022089581E08093B90295
:104580000E94A72208950E94BD22089508950E94C6
:10459000C62208950E94C72208950E94C622089547
:1045A0000E94C62208950E94C6220895CF930E94B9
:1045B000D0220E9429130E94CD22C0E08C2F0E949D
:1045C0005512892B29F4CF5FC530C1F780E001C0B7
:1045D00081E0CF91089585B7806885BF85B78068F1
:1045E00085BF08951F920F920FB60F9211248F93DB
:1045F0009F93AF93BF938091BA02811113C08091B2
:104600001A0390911B03A0911C03B0911D034196C6
:10461000A11DB11D80931A0390931B03A0931C034B
:10462000B0931D03BF91AF919F918F910F900FBEDB
:104630000F901F90189580912203843031F10E94D1
:1046400013041092BA0220E488E190E00FB6F894C7
:10465000A895809360000FBE2093600083B7817F90
:10466000846083BF83B7816083BF7894889583B764
:104670008E7F83BF0FB6F894A89580916000886103
:1046800080936000109260000FBE08950E945A0847
:104690000E941B04089582E084BD93E095BD9AEFCB
:1046A00097BD80936E0008952FB7F89480911A03F8
:1046B00090911B03A0911C03B0911D032FBF08957F
:1046C0002FB7F89460911A0370911B0380911C031B
:1046D00090911D032FBF08959C014FB7F8948091CE
:1046E0001A0390911B03A0911C03B0911D034FBFAF
:1046F000821B930B089578941F920F920FB60F921E
:1047000011248F939F93AF93BF9380911A0390913D
:104710001B03A0911C03B0911D030196A11DB11DA7
:1047200080931A0390931B03A0931C03B0931D0363
:10473000BF91AF919F918F910F900FBE0F901F90DF
:10474000189581E08093E00080E28093D800109279
:10475000C9008FE19EE40197F1F700C0000087E0F7
:1047600090EBDC0180932B0390932C03A0932D03FB
:10477000B0932E039CE088E10FB6F894A89580933F
:1047800060000FBE90936000FFCF9CE088E10FB601
:10479000F894A895809360000FBE90936000FFCFBF
:1047A0008091DE020895089522E02093E9002FEF22
:1047B0003091E800215035FD06C035ED3A95F1F70E
:1047C00000002111F5CF2091E80025FF0BC040E04B
:1047D00050E066E070E00E941E268091E8008E772F
:1047E0008093E8000895CF93DF932091290122233D
:1047F00039F02091E00227FF03C060E222E002C00E
:1048000068E021E02093E9002FEF3091E80021508B
:1048100035FD06C035ED3A95F1F700002111F5CFD1
:104820002091E80025FF1DC0EC0180912901811134
:1048300005C040E050E068E070E003C070E040E098
:1048400050E0CE010E941E268091E8008E77809372
:10485000E80080E2FE01AEEBB2E001900D928A9595
:10486000E1F7DF91CF9108958093BB027093BD0271
:104870006093BC0280912203843001F582E0809332
:10488000E9008FEF9091E800815095FD06C095ED0D
:104890009A95F1F700008111F5CF8091E80085FF2E
:1048A0000DC040E050E063E070E08BEB92E00E94CE
:1048B0001E268091E8008E778093E8000895BC0161
:1048C00084E00E9434240895BC0183E00E943424D3
:1048D000089580912103811109C00E94A9270E9497
:1048E00006288091E20084608093E200089510928F
:1048F000210308950E94C322089560911E0381E060
:10490000611101C080E00E94AA22089590912203C3
:1049100081E0943009F080E060911E030E94B02293
:10492000089542E061EC81E00E94222742E261ECBE
:1049300082E00E9422279091220381E0943009F0C6
:1049400080E060911E030E94BA22089580912403A2
:10495000833009F461C030F4813071F0823009F4A1
:104960009BC008958A3009F487C08B3009F46CC06D
:10497000893009F0A9C020C080912303813A09F051
:10498000A3C08091E800877F8093E800809127038F
:1049900090912803892B21F460E28EEB92E003C012
:1049A00060E080E090E070E00E9463268091E80083
:1049B0008B778093E800089580912303813209F07A
:1049C00083C08091270390912803029708F07CC050
:1049D0008091E800877F8093E8008091E80082FD65
:1049E00005C0809122038111F8CF6EC02091F300A1
:1049F0008091F20090E0922B029731F48091F100C7
:104A0000813011F0863021F48091F1008093DE0234
:104A10008091E8008B7754C080912303813A09F09C
:104A200053C08091270390912803892B09F04CC033
:104A30008091E800877F8093E8008091E80080FF04
:104A4000FCCF8091290137C0809123038132E1F5A9
:104A50008091270390912803892BB1F58091E8007C
:104A6000877F8093E8000E945727809125038093D9
:104A700029010E945A08089580912303813221F56B
:104A80008091E800877F8093E8000E9457278091FB
:104A900026038093DF02089580912303813AA1F4D5
:104AA0008091E800877F8093E8008091E80080FF94
:104AB000FCCF8091DF028093F1008091E8008E7737
:104AC0008093E8000E945727089584B7877F84BFAA
:104AD0000FB6F894A895809160008861809360007B
:104AE000109260000FBE90E080E80FB6F8948093BB
:104AF0006100909361000FBE0E94BD2208950E9444
:104B0000A9270E940628E2EEF0E08081846080837D
:104B100078940E94912A08958DE191E00E9472217B
:104B20000895809122038530A9F480912203853075
:104B300079F40E941B23809120038823B1F30E9403
:104B4000D622882391F30E9408260E945A08EDCFAE
:104B50000E944623089508950E94AF250895292FA5
:104B6000332723303105C9F060F42130310581F05D
:104B70002230310509F044C08BE390E02DEC34E0A5
:104B800043C021323105E1F02232310549F138C00C
:104B900082E190E028E035E037C099278130910527
:104BA00049F028F0029761F5E1EBF4E005C0E9EC8B
:104BB000F4E002C0EDEBF4E0849190E09F0124C0AA
:104BC0006115710541F061307105D1F489E090E023
:104BD00028EF34E019C089E090E02FED34E014C0F4
:104BE0006115710541F06130710551F486EB90E07B
:104BF0002AE135E009C080E490E020ED35E004C012
:104C000080E090E020E030E0FA01318320830895D5
:104C100080E189BD82E189BD09B400FEFDCF8091AC
:104C2000D8008F7D8093D8008091E00082608093CF
:104C3000E0008091E00081FDFCCF0895A0E0B0E0AD
:104C4000E4E2F6E20C94552BEC018B017A010E9410
:104C50007627811133C0E114F10439F0F701808126
:104C60009181081B190BC80FD91FC12CD12C01151C
:104C7000110519F18091E80085FD16C08091E800CA
:104C80008E778093E800E114F10449F0F701808108
:104C90009181C80ED91ED182C08285E00FC00E94CA
:104CA0007627882321F30AC089918093F10001506F
:104CB0001109FFEFCF1ADF0ADACF80E0CDB7DEB7F8
:104CC000E8E00C94712B2091290330912A032617D8
:104CD000370748F06115710539F42091E8002E7707
:104CE0002093E80001C0B901FC0120E061157105C5
:104CF00079F1809122038823F1F18530F1F18091DF
:104D0000E80083FD3CC08091E80082FD2EC08091C8
:104D1000E80080FFEBCF2091F3008091F20090E05B
:104D2000922B6115710551F08830910538F421916D
:104D30002093F100615071090196F3CF21E00897AB
:104D400009F020E08091E8008E778093E800CECFD4
:104D50002111CFCF0AC080912203882361F08530D2
:104D600061F08091E80083FD0AC08091E80082FF35
:104D7000F2CF80E0089582E0089583E0089581E015
:104D800008952091290330912A032617370748F008
:104D90006115710539F42091E8002E772093E80021
:104DA00001C0B901FC0120E06115710591F180910C
:104DB0002203882309F440C0853009F43FC0809164
:104DC000E80083FD3DC08091E80082FD2FC0809106
:104DD000E80080FFE9CF2091F3008091F20090E09D
:104DE000922B6115710559F08830910540F424919A
:104DF0002093F1003196615071090196F2CF21E0C4
:104E0000089709F020E08091E8008E778093E80011
:104E1000CBCF2111CCCF0AC080912203882361F02F
:104E2000853061F08091E80083FD0AC08091E80040
:104E300082FFF2CF80E0089582E0089583E0089534
:104E400081E00895982F973068F59093E9009817BE
:104E500039F07091EC002091ED005091F00003C00A
:104E6000242F762F50E021FD02C09F5FECCF3091C0
:104E7000EB003E7F3093EB003091ED003D7F3093AF
:104E8000ED003091EB0031603093EB007093EC005B
:104E90002093ED005093F0002091EE0027FDE5CF28
:104EA00080E008958F708093E90081E008958091FB
:104EB000230387FF11C08091E80082FD05C0809127
:104EC00022038111F8CF11C08091E8008B770BC0CD
:104ED00080912203882349F08091E80080FFF8CF79
:104EE0008091E8008E778093E80008952091E40097
:104EF0003091E50095E64091EC00842F817040FFF1
:104F000023C08091E80080FD1DC08091220388238A
:104F100099F0853099F08091EB0085FD11C04091AA
:104F2000E4005091E5002417350729F3915011F062
:104F30009A01E1CF84E0089582E0089583E0089526
:104F400081E0089580E008954091E80042FFDDCFC0
:104F500008950E9418280E942028E0EEF0E0808149
:104F600081608083E8EDF0E080818F77808319BCD9
:104F7000A7EDB0E08C918E7F8C9380818F7E8083B3
:104F80001092210308950F931F93CF93DF930E94F4
:104F900018280E942028C8EDD0E088818F77888368
:104FA00088818068888388818F7D888319BC10926E
:104FB000220310921E031092200310921F0300EE92
:104FC00010E0F80180818B7F8083888181608883F5
:104FD00042E060E080E00E942227E1EEF0E0808184
:104FE0008E7F8083E2EEF0E080818160808380812B
:104FF00088608083F80180818E7F808388818061D2
:105000008883DF91CF911F910F910895E8EDF0E033
:1050100080818F7E8083E7EDF0E0808181608083F6
:1050200084E082BF81E0809321030E94C32708951A
:10503000E8EDF0E080818E7F80831092E200089599
:105040001092DA001092E10008951F920F920FB6AD
:105050000F9211242F933F934F935F936F937F93FE
:105060008F939F93AF93BF93EF93FF938091E10052
:1050700082FF0BC08091E20082FF07C08091E100B7
:105080008B7F8093E1000E94902A8091DA0080FF5C
:105090001FC08091D80080FF1BC08091DA008E7FF6
:1050A0008093DA008091D90080FF0DC080E189BD36
:1050B00082E189BD09B400FEFDCF81E08093220327
:1050C0000E94692405C019BC109222030E94772413
:1050D0008091E10080FF19C08091E20080FF15C03F
:1050E0008091E2008E7F8093E2008091E2008061F7
:1050F0008093E2008091D80080628093D80019BC30
:1051000085E0809322030E947D248091E10084FF4A
:1051100030C08091E20084FF2CC080E189BD82E133
:1051200089BD09B400FEFDCF8091D8008F7D8093AA
:10513000D8008091E1008F7E8093E1008091E200B1
:105140008F7E8093E2008091E20081608093E20094
:1051500080911E03882311F084E007C08091E30052
:1051600087FD02C081E001C083E0809322030E949A
:1051700086248091E10083FF29C08091E20083FFB3
:1051800025C08091E100877F8093E10082E08093D9
:10519000220310921E038091E1008E7F8093E10034
:1051A0008091E2008E7F8093E2008091E200806136
:1051B0008093E20042E060E080E00E94222780913C
:1051C000F00088608093F0000E947A24FF91EF91B4
:1051D000BF91AF919F918F917F916F915F914F910F
:1051E0003F912F910F900FBE0F901F9018951F9217
:1051F0000F920FB60F9211242F933F934F935F930B
:105200006F937F938F939F93AF93BF93CF93DF93CE
:10521000EF93FF93C091E900CF708091EC00D82FFD
:10522000D17080FDD0E81092E9008091F000877F76
:105230008093F00078940E943B291092E9008091BD
:10524000F00088608093F000CD2BCF70C093E90010
:10525000FF91EF91DF91CF91BF91AF919F918F918E
:105260007F916F915F914F913F912F910F900FBE62
:105270000F901F901895AAE2B0E0E1E4F9E20C94D7
:105280005A2BE3E2F3E08091F100819323E0EB32CB
:10529000F207C9F70E94A6248091E80083FF2EC17F
:1052A0008091230390912403492F50E04A30510507
:1052B00008F024C1FA01EE59FF4F0C94142B8038EA
:1052C00021F0823809F01AC108C080911F03909123
:1052D0002003992389F082600FC0809127038F708B
:1052E000873008F00BC18093E9008091EB0085FBCB
:1052F000882780F91092E9009091E800977F9093B9
:10530000E8008093F1001092F100D1C0282F2D7F8A
:1053100009F0F4C0882319F0823061F0EFC0809169
:105320002503813009F0EAC0933009F080E08093D2
:1053300020032EC08091250381112AC0809127036C
:105340008F702FEF280F263008F0D8C08093E90027
:105350002091EB0020FF1CC0933021F48091EB00E2
:10536000806214C09091EB0090619093EB0021E07B
:1053700030E0A90102C0440F551F8A95E2F740931F
:10538000EA001092EA008091EB0088608093EB00C5
:105390001092E9008091E800877F8093E8000E94E6
:1053A0005727ACC08111AAC0109125031F778091A7
:1053B000E3008078812B8093E3008091E800877F71
:1053C0008093E8000E9457278091E80080FFFCCF7F
:1053D0008091E30080688093E300111102C082E0B5
:1053E00001C083E08093220389C08058823008F096
:1053F00085C080912503909126038C3D53E095074D
:1054000079F583E08A838AE289834FB7F894DE01D5
:10541000139620E03EE051E2E32FF0E05093570076
:10542000E49120FF03C0E295EF703F5FEF708E2F95
:1054300090E0EA3010F0C79601C0C0968D939D931E
:105440002F5F243149F74FBF8091E800877F809319
:10545000E8006AE270E0CE0101960E94632616C061
:105460006091270370912803AE014F5F5F4F0E9448
:10547000AC25BC01892B09F441C09091E800977FCD
:105480009093E80089819A810E94C1268091E8006A
:105490008B778093E80032C0803881F58091E800F6
:1054A000877F8093E80080911E038093F1008091B4
:1054B000E8008E7772CF811121C0809125039091F1
:1054C000260399270297D4F48091E800877F809380
:1054D000E8008091250380931E030E945727809146
:1054E0001E03811106C08091E30087FD02C081E0A8
:1054F00001C084E0809322030E9491248091E800FF
:1055000083FF0AC08091E800877F8093E800809144
:10551000EB0080628093EB00AA96E3E00C94762B7C
:105520000895CF93809122038823A1F0C091E900D0
:10553000CF709091EC00892F817090FD80E8C82B8E
:105540001092E9008091E80083FD0E943B29CF7012
:10555000C093E900CF910895DB018F939F930E9440
:10556000382BBF91AF91A29F800D911DA39F900DED
:10557000B29F900D1124089587FB082E062687FD03
:10558000819567FD61950E94822B0EF4919507FC31
:1055900081950895AA1BBB1B51E107C0AA1FBB1F21
:1055A000A617B70710F0A61BB70B881F991F5A95AF
:1055B000A9F780959095BC01CD01089597FB072E22
:1055C00016F4009407D077FD09D00E94CA2A07FC80
:1055D00005D03EF4909581959F4F08957095619503
:1055E0007F4F0895A1E21A2EAA1BBB1BFD010DC01F
:1055F000AA1FBB1FEE1FFF1FA217B307E407F50783
:1056000020F0A21BB30BE40BF50B661F771F881F5E
:10561000991F1A9469F760957095809590959B01F4
:10562000AC01BD01CF010895EE0FFF1F0590F4916D
:10563000E02D09940E94222B332312F48A1B9B0B2A
:105640000C94332BA29FB001B39FC001A39F700D98
:10565000811D1124911DB29F700D811D1124911D7A
:1056600008950E94222BB7FF0895821B930B089583
:105670000E94222BA59F900DB49F900DA49F800D9A
:10568000911D11240895B7FF0C94382B0E94382BDC
:10569000821B930B08952F923F924F925F926F92CD
:1056A0007F928F929F92AF92BF92CF92DF92EF92B2
:1056B000FF920F931F93CF93DF93CDB7DEB7CA1B33
:1056C000DB0B0FB6F894DEBF0FBECDBF09942A885E
:1056D000398848885F846E847D848C849B84AA8406
:1056E000B984C884DF80EE80FD800C811B81AA8193
:1056F000B981CE0FD11D0FB6F894DEBF0FBECDBF5E
:10570000ED010895991B79E004C0991F961708F0E0
:10571000961B881F7A95C9F780950895FC01415022
:10572000504030F001900616D1F73197CF0108951F
:10573000882799270895FB01DC0104C08D91019011
:10574000801921F441505040C8F7881B990B0895E7
:10575000F999FECF92BD81BDF89A992780B5089539
:10576000A6E1B0E044E050E00C94E22BA8E1B0E008
:1057700042E050E00C94E22B262FF999FECF92BD27
:1057800081BDF89A019700B4021639F01FBA20BD06
:105790000FB6F894FA9AF99A0FBE08950396272F38
:1057A0000E94BD2B0E94BC2B252F0E94BD2B242FB5
:1057B0000C94BD2B0196272F0E94BD2B0C94BC2B63
:1057C000DC01CB01FC01F999FECF06C0F2BDE1BDC1
:1057D000F89A319600B40D9241505040B8F70895B0
:0457E000F894FFCF6B
:1057E4005E02280850011E0A1401010102000A0089
:1057F4000A0A01191A1B1C1D1E1F202122D023F383
:1058040023D42364245F24D32301E200E900EA00C3
:10581400B500B600B700CD008301CC008A01920127
:1058240094012102230224022502260227022A02CD
:10583400B300B4006F007000818283E200E900EAE3
:1058440000B500B600B700CD008301CC008A0192F8
:105854000194012102230224022502260227022A9E
:1058640002B300B4006F0070008182839091929320
:1058740095366667F1F0C6333231303534979694F5
:105884000001020202020606060909090909090FB4
:105894000F0F0F0F0F1515151819191919191919B3
:0658A4001919192324006C
:00000001FF
