:100000000C94FD020C9435030C9435030C943503C9
:100010000C9435030C9435030C9435030C94350380
:100020000C9435030C9435030C9489270C945B28AD
:100030000C9496220C9435030C9435030C943503E0
:100040000C9435030C9435030C9435030C94350350
:100050000C9435030C941F230C9435030C94350336
:100060000C9435030C9435030C9435030C94350330
:100070000C9435030C9435030C9435030C94350320
:100080000C9435030C9435030C9435030C94350310
:100090000C9435030C9435030C9435030C94350300
:1000A0000C9435030C9435030C943503490649062A
:1000B00075067506E3060107F007F00706077C07DB
:1000C0008D078D07BE1CC11CC61CCD1CD21CD71CA5
:1000D000DC1CE11CE61CEB1CF01CF51CF71CFA1CDC
:1000E000FD1C001D031D061D081D0B1D0F1D821F7D
:1000F000F41F8A1F541F581F8E1F5B1F911F9C1FC8
:10010000661FEA1F6A1FA01F6E1FA41FCE1F721F4B
:10011000A81FD81F781FAE1FB81F5F1F951F621F33
:10012000981F7D1FB31FC41FE41FE61F501F861FAB
:10013000FD1FC820CE20BC20C220D420DA20E02021
:10014000C328EA28E229EA28E22936295929E2299E
:10015000B029BF2929001E001F0020002100220015
:10016000230024002500260027002D002E0000007B
:100170002A002B0014001A000800150017001C00AC
:1001800018000C00120013002F00300000000000C7
:10019000322104001600070009000A000B000D00C0
:1001A0000E000F0033003400310028000000E10091
:1001B00064001D001B00060019000500110010005E
:1001C0003600370038000000283221523E212152EB
:1001D000E2000000000000002C0000000000000011
:1001E0005024512852344F310000007C3A003B002B
:1001F0003C003D003E003F00400041004200430003
:100200004400450000004C00010020785200217895
:1002100023782478257826782778287846000100E6
:100220000100000000000100500051004F000100DB
:1002300001000100010001000100010001000100B6
:100240000100000001000100010003780278047839
:100250000100157014700100010001000000010090
:100260000100010001000100000000000000010089
:100270000000000000004A004E004B004D0000004E
:100280001E0F0500047F3F1F643214643214783C53
:100290001E1E140A052223252628292A2C2D2F303C
:1002A00032333536383A3B3D3E4042434547494A72
:1002B0004C4E5051535557595A5C5E6062646668A3
:1002C000696B6D6F71737577797B7D7F81838587AE
:1002D000898A8C8E90929496989A9C9E9FA1A3A5B1
:1002E000A7A8AAACAEAFB1B3B4B6B8B9BBBCBEBFD9
:1002F000C1C2C3C5C6C7C9CACBCCCDCED0D1D2D25C
:10030000D3D4D5D6D7D7D8D9D9DADADBDBDBDCDC66
:10031000DCDCDCDDDDDDDDDCDCDCDCDCDBDBDBDA1E
:10032000DAD9D9D8D7D7D6D5D4D3D2D2D1D0CECD89
:10033000CCCBCAC9C7C6C5C3C2C1BFBEBCBBB9B896
:10034000B6B4B3B1AFAEACAAA8A7A5A3A19F9E9C1B
:100350009A98969492908E8C8A89878583817F7DE6
:100360007B79777573716F6D6B6968666462605EC7
:100370005C5A5957555351504E4C4A494745434290
:10038000403E3D3B3A3836353332302F2D2C2A292A
:100390002826252322FFAA7F5540000101010101E3
:1003A000010101010202020202020202020303032E
:1003B00003030303030404040404040405050505FE
:1003C00005060606060607070707070808080809BE
:1003D0000909090A0A0A0B0B0B0C0C0C0D0D0D0E6A
:1003E0000E0E0F0F0F1010111111121213131414FF
:1003F000151516161717181819191A1A1B1B1C1D74
:100400001D1E1E1F202021222223242425262627CC
:100410002829292A2B2C2D2D2E2F303132323334FE
:1004200035363738393A3B3C3D3E3F404142434404
:1004300045464748494A4C4D4E4F505153545556E6
:1004400058595A5B5D5E5F616264656668696B6C92
:100450006D6F7072737577787A7B7D7E808283850D
:1004600087888A8C8E8F91939596989A9C9EA0A24D
:10047000A3A5A7A9ABADAFB1B3B5B7BABCBEC0C257
:10048000C4C6C9CBCDCFD1D4D6D8DBDDDFE2E4E71B
:10049000E9EBEEF0F3F5F8FAFDFF0A034F004B002D
:1004A0003600300000000A034F004B0036003000D9
:1004B00000000403090409023B00020100A0FA093C
:1004C0000400000103010100092111010001224083
:1004D0000007058103080001090401000103000071
:1004E0000009211101000122B60007058203200046
:1004F000011201000200000008364B60600100019B
:1005000002000105010902A10185020901A10005FE
:1005100009190129081500250195087501810205B1
:1005200001093009311581257F9502750881060979
:10053000381581257F950175088106050C0A38025A
:100540001581257F950175088106C0C005010980C8
:10055000A101850319012AB700150126B7009501ED
:1005600075108100C0050C0901A101850419012A3B
:10057000A002150126A002950175108100C0050199
:100580000906A1018506050719E029E715002501DF
:100590009508750181020507190029EF150025014D
:1005A00095F0750181020508190129059505750168
:1005B0009102950175039101C005010906A101058C
:1005C0000719E029E71500250195087501810295B5
:1005D00001750881010507190029FF150026FF0094
:1005E000950675088100050819012905950575010D
:1005F0009102950175039101C00011241FBECFEF38
:10060000DAE0DEBFCDBF04B603FE18C08091600300
:1006100090916103A0916203B09163038730904B86
:10062000A740B04B59F410926003109261031092EE
:10063000620310926303E0E0F8E3099511E0A0E0A3
:10064000B1E0E4EBF7E502C005900D92A43DB107DF
:10065000D9F723E0A4EDB1E001C01D92A036B207A6
:10066000E1F70E9417130C94D82B0C9400008230F1
:10067000B0F46530A0F44F3090F49BE4899FF00112
:1006800011248FE0689FE00DF11D1124E40FF11D8E
:10069000EE0FFF1FEC5AFE4F85919491089580E074
:1006A00090E008950E943703089581E0089581E065
:1006B00008950E945703089508950E945C030895C9
:1006C000A5E0B0E0E6E6F3E00C94CA2A49835A8339
:1006D0003091DB0189819A81311114C0662359F070
:1006E000222349F00E94CE09182F682F89819A8110
:1006F0000E94AA0903C00E94BC09182F69817A814F
:10070000812F04C00E94CE0969817A810E949410D1
:100710002596E3E00C94E62AFC01262F40815181C6
:100720006281738184810E946003089581E008954D
:10073000CF93DF93EC0160E00E948C03BE010E9426
:100740005D03DF91CF9108950E94DB1108950E940F
:10075000D511089508950E9473080E94AA032FEFEF
:1007600084E39CE0215080409040E1F700C000000D
:1007700008950E94AB030E94452308950E94AB0395
:100780000E94692308950F931F93CF93DF938C01E9
:1007900061E00E948C03EC01B8010E945903882398
:1007A00009F450C0B801CE010E94131E882309F439
:1007B00049C0B801CE010E94B020882309F442C08C
:1007C000B801CE010E942C1F8823E1F1B801CE01AF
:1007D0000E9416208823B1F1B801CE010E94A81C06
:1007E000882381F1F8018281882341F1C3308CE7AD
:1007F000D807D1F040F4C115FCE7DF0791F0C13014
:10080000DC47A1F01BC0CB35ECE7DE07A9F0CC3507
:10081000FCE7DF0771F0CA35DC4781F40E94090E5E
:100820000DC00E94B9030EC00E94110E0E94BE03AB
:1008300009C00E94FF0D02C00E940D0EC8010E9457
:10084000550301C080E0DF91CF911F910F91089572
:100850000E946E2280E00E94481E0E945704089564
:100860000E942E1D0E945B040E9477220895089525
:100870000E943704089581E008950895CF93DF938F
:10088000D82F0E943B04C82F882319F08D2F0E9477
:100890003D048C2FDF91CF9108950895CF93C82FF9
:1008A0000E9438048C2F0E943E04CF91089580E06E
:1008B0000E944E0408950E94FD200E944E04089557
:1008C000CF930E94FD20C82F8091D601C81779F0E0
:1008D000C093D6010E9404236093D7017093D8017E
:1008E0008093D9019093DA018C2F0E944E04CF910E
:1008F0000895ABE0B0E0EFE7F4E00C94CB2A4F832F
:10090000588769877A878B8761110E94470D9E01FE
:100910002F5F3F4F86E0F90111928A95E9F785E054
:10092000FE013796D90101900D928A95E1F78981F0
:100930009A814C815D81452B31F09F3F31F491E0EC
:100940008F3F19F403C091E001C090E090FF09C00F
:1009500049815A816B817C818D819E810E94730CBB
:1009600005C0C9010E9496038111F2CF2B96E2E0E7
:100970000C94E72AFC01808191810E94000A08956D
:10098000662319F00E949C1302C00E94F7130E9474
:100990006E140895CF93882309F4A4C0C82F823819
:1009A000C1F40E94FD2081FD9DC069E38091040196
:1009B000909105010E9412220E946B0D2FEF87EE8D
:1009C00093E0215080409040E1F700C0000069E3CF
:1009D00019C0833801F50E94FD2080FD83C063E5C6
:1009E00080910401909105010E9412220E946B0DDA
:1009F0002FEF81EE94E0215080409040E1F700C05D
:100A0000000063E580910401909105010E9420227D
:100A10000E946B0D67C08438C1F40E94FD2082FDE6
:100A200061C067E480910401909105010E94122247
:100A30000E946B0D2FEF81EE94E02150804090409A
:100A4000E1F700C0000067E4DDCF8CEF8C0F813A46
:100A5000D0F46C2F80910401909105010E949221A5
:100A6000882349F06C2F80910401909105010E9428
:100A700020220E946B0D6C2F809104019091050142
:100A80000E941222C5CF80E28C0F883048F4C770D4
:100A900081E001C0880FCA95EAF70E942A0DB8CFFD
:100AA000EBE5EC0FE33040F4F0E0E45AFE4F8081D8
:100AB00090E00E94322116C0E8E5EC0FE93150F4D5
:100AC000F0E0EE0FFF1FE65DFE4F808191810E94F6
:100AD000572108C083E38C0F833120F461E08C2F11
:100AE0000E94C004CF910895882309F468C0823819
:100AF00079F40E94FD2081FF62C069E380910401C6
:100B0000909105010E9412220E946B0D69E310C0B2
:100B10008338B9F40E94FD2080FF51C063E58091C5
:100B20000401909105010E9412220E946B0D63E561
:100B300080910401909105010E9420220E946B0D7A
:100B40000895843879F40E94FD2082FF38C067E45C
:100B500080910401909105010E9412220E946B0D68
:100B600067E4E6CF9CEF980F913A10F4682FE0CF3E
:100B700090E2980F983050F4877091E001C0990F7F
:100B80008A95EAF7892F0E94300DD8CF9BE5980F00
:100B9000933028F480E090E00E943221089598E597
:100BA000980F993128F480E090E00E945721089531
:100BB00093E3980F933118F460E00E94C004089505
:100BC0001F93CF93DF93182FEB010E94CA04209745
:100BD00041F08FE99FE00197F1F700C000002197F5
:100BE000F6CF812F0E947405DF91CF911F91089558
:100BF000893319F060E070E002C060E570E00E94A7
:100C0000E0050895882321F00E942A0D0E946B0DB3
:100C10000895882321F00E94300D0E946B0D0895E5
:100C2000A0E0B0E0E6E1F6E00C94C52A7C01162FC6
:100C3000C72FFC01D281058102950F700E94200D03
:100C40008823B9F0DD23A9F08C2F807F803421F038
:100C500080E2810F883068F08091160382FF09C01E
:100C600082E00E94CD0D0E94200D91E0D82ED92661
:100C700001C0D12CCC2EC2948FE0C8228C2D90E0E4
:100C80008C30910508F0ACC1FC01EA5AFF4F0C947E
:100C9000842A8C2F807FCF70882311F0C295C07F6B
:100CA000DD2399F0CC2309F487C180E2810F8830DD
:100CB00010F0111104C08C2F0E942A0D03C08C2F3C
:100CC0000E943A0D0E946B0D77C1812F0E9474051E
:100CD000CC2309F485C180E2810F883038F11123DB
:100CE00029F18C2F0E94400D24C08C2F807FCF7063
:100CF000803211F0C295C07F112319F01130D1F16B
:100D000043C08091160382FD17C0DD2349F0CC2338
:100D100029F08C2F0E942A0D0E946B0D80E04DC19E
:100D200080E00E947405CC2309F45AC18C2F0E94E4
:100D3000300D0E946B0D54C1DD2371F0002341F092
:100D4000013031F40E944A0D8C2B0E94540D48C191
:100D50000E944A0D8C2B23C0011103C00E94610D1B
:100D60002EC0013009F43CC18C2F0E9409060E945C
:100D7000610D36C1DD2321F0063008F031C10EC00F
:100D8000053008F02DC11BC0DD2361F0002331F0D8
:100D9000F701858180FF10C18F7085838C2F0E94A1
:100DA00002061EC1002359F0193309F016C1FFEFE6
:100DB00027EE83E0F15020408040E1F70CC18C2FFA
:100DC0000E9409060DC18C2F86958695837019F0B7
:100DD000813061F005C1DD2321F0812F9C2F9370BC
:100DE00002C080E090E00E94322102C1DD2321F0A8
:100DF000812F9C2F937002C080E090E00E945721C9
:100E0000F7C06D2F812F0E94C004F2C08C2F837019
:100E1000B1F5D111E9C0412F429546954770440F75
:100E2000440F812F8F7090E09C01042E02C0220F8E
:100E3000331F0A94E2F714FF0AC08FE090E002C06B
:100E4000880F991F4A95E2F78095909502C080E03F
:100E500090E0C695C695C370822B932BC23049F0A3
:100E600058F4C13019F00E94DD08BEC00E94D408B9
:100E7000BBC00E94E608B8C00E94D108B5C0DD23FF
:100E800019F08C2F817001C08695882309F4ACC0BD
:100E9000412F429546954770440F440F812F8F7024
:100EA00090E09C01042E02C0220F331F0A94E2F747
:100EB00014FF0AC08FE090E002C0880F991F4A9586
:100EC000E2F78095909502C080E090E0C695C695C7
:100ED000C370822B932BC23049F058F4C13019F003
:100EE0000E94450981C00E943C097EC00E944E09B3
:100EF0007BC00E94F20878C0CF70DD2339F08C2FC0
:100F00000E940A09812F0E9402066EC0812F0E9452
:100F100009068C2F0E941A0967C0123F21F128F49C
:100F2000103F41F0113FC1F043C0133F19F1143F8E
:100F300079F03EC0DD2341F0053008F051C08C2F20
:100F40008F710E942C094CC0063008F049C0F7CFC1
:100F50008091160382FD18C0DD2339F08C2F8F712C
:100F60000E940A093DC0DD23C9F38C2F8F710E94B6
:100F70001A0936C0DD2329F08C2F8F710E94FE08DC
:100F80002FC00E94F9082CC0DD2349F0CF718C2FAF
:100F90000E940A0963E08C2F0E94AF0D21C081E0FE
:100FA0000E94CD0D0230E0F082E00E94CD0D18C00D
:100FB000DD2331F0002391F2812F0E94CA0410C07A
:100FC000002399F2193349F49FEFE7EEF3E09150D3
:100FD000E040F040E1F700C00000812F0E9474055E
:100FE00088EF8C0D843020F40E94FD200E944E0476
:100FF000DD2089F00E941C0D80FD0DC0F7011282DA
:101000000E94160D0E940A09C7010E9428080E942A
:10101000160D0E941A09CDB7DEB7E8E00C94E12A5C
:101020000F931F93CF93DF93EC01688179818A81BD
:101030000E940B0A8C010E9457090E94C208B80145
:10104000CE010E941006DF91CF911F910F9108955C
:10105000CF93DF93EC01988189812B813C81232BF5
:1010600031F08F3F31F481E09F3F19F403C081E0FC
:1010700001C080E080FD1AC0CE010E94C30381112F
:101080000FC00E94200D882389F08A81882371F087
:101090008091160382FF0AC082E00E94CD0D06C037
:1010A000CE010E941008CE010E949803DF91CF91DB
:1010B000089580E090E00E94322180E090E00E945C
:1010C00057210E94470D0E946B0D0E948D140E94B3
:1010D0006E14089580910401909105010E942E22C2
:1010E0000E94590808950E94370D0E946A080895C9
:1010F00092959F70963079F010F4925001C09A50FA
:10110000923068F4803F69F018F4883E40F409C0DA
:10111000843F29F406C0883E20F0813F11F080E032
:10112000089581E00895FC019081818123813481BB
:10113000232B31F08F3F31F481E09F3F19F403C03E
:1011400081E001C080E080FD07C0808191810E9424
:10115000000A0E947808089580E00895A5E0B0E0B4
:10116000E4EBF8E00C94CB2A2596E2E00C94E72A15
:10117000A6E0B0E0EEEBF8E00C94CB2A2696E2E095
:101180000C94E72A089508950E94C30808950E94C8
:10119000C40808950E94C70890930702809306022E
:1011A00008950E94CA08089520910602309107020E
:1011B000822B932B0E94CA08089520910602309139
:1011C0000702822393230E94CA08089520910602F1
:1011D00030910702822793270E94CA0808950E942F
:1011E000C30808950E94EF089093050280930402BB
:1011F000089580E090E00E94F208089521E030E038
:10120000A90102C0440F551F8A95E2F7CA010E9446
:10121000F208089521E030E002C0220F331F8A95C2
:10122000E2F78091040290910502822B932B0E9499
:10123000F208089521E030E002C0220F331F8A95A2
:10124000E2F7209530958091040290910502822367
:1012500093230E94F208089521E030E002C0220F9B
:10126000331F8A95E2F7809104029091050282274C
:1012700093270E94F20808952091040230910502FC
:10128000822B932B0E94F208089520910402309142
:101290000502822393230E94F208089520910402FC
:1012A00030910502822793270E94F208089508953D
:1012B000962F9770A1E001C0AA0F9A95EAF793E0E4
:1012C000769567959A95E1F7660F771F660F771FFA
:1012D000FA01E60FF71F40E050E0682F70E09081C0
:1012E0009B01042E02C0369527950A94E2F72170DF
:1012F000219529272A23292721934F5F5F4F4430C7
:10130000510569F70895FB01782F777023E09695D2
:1013100087952A95E1F7880F991F880F991FE80F85
:10132000F91F40E050E080E0219130E0072E02C03C
:10133000369527950A94E2F721703327042E01C0D1
:10134000220F0A94EAF7822B4F5F5F4F443051051A
:1013500059F70895282F953070F48F3060F4862F58
:10136000622F70E02FE0929F600D711D11244CEDF3
:1013700051E00E9458090895953070F48F3060F460
:10138000292F90E06CED71E03FE0239F800D911DCF
:1013900011240E948309089580E00895A0E0B0E040
:1013A000E4EDF9E00C94C42A7C0100910402109150
:1013B00005028091060290910702082B192BCFE0BD
:1013C000D0E0CC24C394D12CC6010C2E02C0880FCF
:1013D000991F0A94E2F780239123892B21F4219706
:1013E00098F7B12C07C0BC2EB7018C2F0E94A0101B
:1013F0000197A9F38B2DCDB7DEB7E9E00C94E02A75
:10140000CF93DF93EC010E94CE09BE010E94A01091
:10141000DF91CF9108951F93CF93DF93EB019091CC
:10142000DB01992321F0CB010E94000A13C088231D
:1014300049F0CB010E94CE09182F682FCE010E94DF
:10144000AA0904C0CB010E94BC09182FBE01812F3C
:101450000E94A010DF91CF911F9108951F93CF9309
:10146000DF93C091080216E080910902C81799F035
:10147000D0E01C9FF0011D9FF00D1124E65FFD4F91
:101480004081518162817381848195810E94B80875
:101490002196C770E9CFDF91CF911F9108954091B8
:1014A0003A0250913B0260913C0270913D02809162
:1014B0003E0290913F020E94B80808950F931F9337
:1014C000CF93DF9380913F0282958F7009F05AC0CD
:1014D00080913C02882309F455C080910802109144
:1014E000090260913A0270913B02C0913D02D09195
:1014F0003E0291E06F3F09F090E0292F06E081174E
:1015000009F440C0209721F07F3F21F030E003C074
:1015100031E001C0322F90E030FD31C0089FF00172
:10152000099FF00D1124DF01A65FBD4F11963C917C
:101530001197371324C03C91361321C012963C9169
:10154000129731111CC013964D915C9114974C1B4E
:101550005D0B483C510598F480913F028F7080618B
:1015600080933F02E15FFD4F80818F7080618083B7
:101570008AE392E00E9428080E942E0A03C0019686
:101580008770BDCFDF91CF911F910F910895A1E199
:10159000B0E0EDECFAE00C94C22A8C0185E0F80191
:1015A000DE011D9601900D928A95E1F7F801E28027
:1015B00090913A0260913B0220913D0230913E02AF
:1015C0002115310531F06F3F31F481E09F3F19F46F
:1015D00003C081E001C080E0F82FF1709F2E80FDF4
:1015E00040C1F80140815181A380B4808AE3C82EB4
:1015F00082E0D82EF0903C02F501E21BF30BFF20B5
:1016000009F4DAC080913F02E83CF10508F096C089
:10161000282F207F09F053C0561313C0491311C05F
:10162000FE2CE1100EC08F70806180933F020E94FB
:101630004F0AC6010E94280880913F02F801858365
:101640004DC1A114B10431F05F3F31F481E04F3F4F
:1016500019F403C081E001C080E080FD03C081E097
:101660008E2502C080E090E0F82FF170FF2E80FF01
:101670001CC0809108022091090236E0821709F40B
:101680000BC190E0389FF001399FF00D1124E65F07
:10169000FD4F6181561306C06081461303C062810D
:1016A000E61203C001968770E9CFFE2CEE2009F404
:1016B00015C180913F02816080933F0254C0561350
:1016C00006C0491304C0E11002C0F80199C0C80166
:1016D0000E949308882361F1EE2051F120913F028E
:1016E000822F82958F7090E0029774F080913A0279
:1016F00090913B0298878F831986BB86AA862C8798
:10170000CE0107960E94280886E0F801AAE3B2E01D
:1017100001900D928A95E1F70E945E0A0E944F0A9D
:101720000AC0561711F1C8010E94930881112CC0FC
:10173000C8010E942808FF24F394D0C0282F207FDE
:1017400081F77A2DB98AA88A6E2D89890E94AE0800
:101750008AE392E00E94280886E0F60111928A95B9
:10176000E9F70E944F0AF12CB9C04913DCCFE11010
:10177000DACFF8018583C8010E94280886E0F601C7
:1017800011928A95E9F7AAC0EE2091F220913F02CA
:10179000822F82958F7090E002970CF4B5CF8091E4
:1017A0003A0290913B029A8389831B82BD82AC826C
:1017B0002E83CE010196A6CFE83CF10508F044C087
:1017C000FE2CEE2009F4B4CF561330C049132EC0BE
:1017D00020913F0220FD21C0822F82958F70482FDB
:1017E00050E041155105C9F0F80125834F305105EE
:1017F00041F08F5F982F9295907F822F8F70892B69
:101800008583C8010E94280886E0F801AAE3B2E0B7
:1018100001900D928A95E1F73CC086E0F801AAE3B9
:10182000B2E001900D928A95E1F758C0C8010E947C
:101830009308811169CF80913F02816080933F02BC
:10184000C8010E9428084AC07A2DB98AA88A6E2D3C
:1018500089890E94AE0886E0F60111928A95E9F71F
:1018600018C0EE2009F464CFC8010E949308F82E36
:10187000882309F45DCF86E0F801AAE3B2E0019085
:101880000D928A95E1F78AE392E00E94BA040E94E1
:101890005E0A0E944F0A22C04D875E878D859E8515
:1018A0000E94000A292F22952F70223028F49F7061
:1018B00039F0811105C00BC0243028F49F7049F421
:1018C000805E883020F0C8010E9428089F2CF92CE7
:1018D00005C0F8019581907F99F7F9CF8F2D61961A
:1018E000EBE00C94DE2AACE0B0E0E9E7FCE00C941D
:1018F000CA2A4F83588769877A878B879C87CE014E
:1019000007960E94C70A8823D1F09F8188852A857F
:101910003B85232B31F08F3F31F481E09F3F19F459
:1019200003C081E001C080E080FD47C04F81588541
:1019300069857A858B859C850E94B8083EC086E0C3
:10194000FE013796DE01119601900D928A95E1F71E
:10195000FF81E8856A857B856115710531F0EF3F70
:1019600031F481E0FF3F19F403C081E001C080E061
:1019700080FD23C02091090230E0C90101968770E3
:1019800099274091080250E084179507F1F1F983F7
:10199000EA837D836C8396E0929FD001939FB00D84
:1019A0001124A65FBD4FFE01319601900D929A95CC
:1019B000E1F7809309020E942E0A16E08091080246
:1019C00090910902891771F1189FC0011124865F57
:1019D0009D4F0E94C70A882329F1E09108021E9FAB
:1019E000F0011124E65FFD4F4081518162817381D6
:1019F000848195810E94B8088091080290E0019648
:101A00008770992780930802D9CF0E94730810929B
:101A1000090210920802EAE3F2E086E0DF011D927B
:101A20008A95E9F72C96E3E00C94E62A809160020F
:101A300085958595859508958091600287700895B4
:101A400090916002977081E009F480E008958091A0
:101A50008302089590918302892B809383020895D5
:101A60008095909183028923809383020895109238
:101A70008302089590918202892B809382020895B7
:101A8000809590918202892380938202089510921A
:101A90008202089580916102089508950E944D0D7B
:101AA00008950E944E0D08959091160392FF08C06C
:101AB00090916102981721F0809361020E94510D6C
:101AC000089580916102882329F01092610280E0DC
:101AD0000E94510D0895CF93DF93E0910401F0919E
:101AE0000501809183028083E0910401F09105015A
:101AF000908180918202892B80838091610288236A
:101B000081F0E0910401F09105019081892B80839F
:101B100080910401909105010E947C2181110E9415
:101B2000610DC0910401D091050140E250E060E4F4
:101B300072E0CE010E945B2B892B59F080E2FE01FE
:101B4000A0E4B2E001900D928A95E1F7CE010E94E7
:101B50000A21DF91CF9108950E944D0D0895909133
:101B6000160392FF11C098E0899F90011124262B43
:101B7000209360020E940A098091600285958595F4
:101B800085950E94AC0D08950E940A09089510924F
:101B9000600280E00E94AC0D089520916002809563
:101BA000822380936002982F977099F430E0482F39
:101BB000082E000C550B2417350759F09091160389
:101BC00092FF07C08595859585950E941A090E9408
:101BD000C70D08959091160392FB222720F928172C
:101BE00069F080FB92F99093160380911503909110
:101BF00016030E94320E82E00E94CD0D089580915E
:101C0000160382FB882780F991E089270E94EA0D5C
:101C1000089581E00E94EA0D089580E00E94EA0D97
:101C200008956FEF7FEF80E090E00E94A32B08956E
:101C300080E090E00E947F2B21E0873E9E4F09F0DC
:101C400020E0822F089582E090E00E94712B089599
:101C500083E090E00E94712B089584E090E00E9460
:101C60007F2B0895BC0184E090E00E94A32B08958F
:101C7000AB01BC018FE090E00E94972B0895AB016F
:101C8000BC0183E190E00E94972B089560E070E032
:101C9000CB010E943F0E089560E070E0CB010E94EE
:101CA000380E0E94460E089567EE7EEF80E090E0C9
:101CB0000E94A32B60E082E090E00E94852B60E010
:101CC00083E090E00E94852B10920702109206029A
:101CD00060E074E184E090E00E94A32B60E086E085
:101CE00090E00E94852B6FEF87E090E00E94852BAB
:101CF00040E050E0BA0188E090E00E94972B60E05D
:101D00008DE090E00E94852B40E050E0BA0188E130
:101D100090E00E94972B60E087E190E00E94852B85
:101D200040E050E0BA018CE190E00E94972B60E027
:101D300070E080E290E00E94A32B40E050E0BA0106
:101D400088E190E00E94972B0E944C0E08950E941B
:101D5000540E0895682F8EE090E00E94852B089520
:101D60000E940423609394027093950280939602DC
:101D700090939702609390027093910280939202E5
:101D800090939302089581E008950E94C30E0895F0
:101D900008950E94C80E08950E94C80E08950E94DA
:101DA000CC0E08950E94C80E08950E94D20E089588
:101DB0000E94C80E089584E891E10E94F3200E94D9
:101DC000D80E0E94D50E08950E94C90E0E94C80E1A
:101DD00008950E94A0110E944D040E94F01E0895D3
:101DE0000E94EF220E947C120E94E90E0E942E1D8A
:101DF0000E94BA1B0E94CF0E0895AAE0B0E0E3E073
:101E0000FFE00C94C02A0E94921226E8E22E22E003
:101E1000F22E5701D12CF501019111915F018D2D09
:101E20000E94BE1180279127D394F5E0DF1619F0A8
:101E3000892B89F322C0892B01F50E94F8228C019D
:101E400080918402909185020817190709F45BC0FC
:101E50008FEF89838A831B820E94F8228160782F0A
:101E60009D838C8349815A816B818D810E94790485
:101E7000109385020093840246C08091980281FDF0
:101E80000E94C7110E94C50E782E10E0812F0E947B
:101E9000BE114C01F701A080B180A826B926A1147B
:101EA000B10449F100E0CC24C394D12CC5018C21AC
:101EB0009D21892BC1F07720B1F00E831F8321E093
:101EC000C4018C219D21892B09F420E028870E94E0
:101ED000F8228160782F9A8789874E815F81688593
:101EE0008A850E9479040F5FCC0CDD1C0F30F1F65F
:101EF000F701918280821F5FF2E0EF0EF11C153036
:101F000029F60E94B00E0E94ED1B0E94EF1E0E9457
:101F1000AF140E9460042A96EDE00C94DC2ACF9363
:101F2000DF930E94A510EC01811520E59207E0F5F2
:101F3000811530E4930708F09FC0803E910528F595
:101F40008D3C910508F096C0883A910570F4853A69
:101F5000910508F085C08130910509F47EC008F430
:101F6000DCC0049708F0DCC0D8C0813C910508F0C3
:101F7000D4C0C85AD0E0CC0FDD1FC15ADE4F099043
:101F8000D881C02DCE019464CCC0811540E2940765
:101F900008F0B8C0811551E0950708F0C1C0883E2F
:101FA000910508F4BDC0B9C0803662E5960720F5FA
:101FB000803472E5970708F06CC0C03282E5D8071C
:101FC00008F05EC0C11592E5D90708F489C02C2F2E
:101FD0002695269560E2269F90011124C37081E02A
:101FE00090E002C0880F991FCA95E2F7E901C82B5B
:101FF000D92BCE019D6895C0803A22E59207E0F486
:102000008F71C03832E5D30708F059C086958695A0
:1020100070E2879F900111249C2F9370C1E0D0E063
:10202000AE0102C0440F551F9A95E2F7EA01DA6843
:10203000C9018C2B9D2B75C0803C42E5940708F4A8
:1020400045C0803E924508F068C0CF71DD27DC2F87
:10205000CC27CE01806F906A64C081E090E061C0BF
:10206000C55AD0E0CF56DE4F8881C82FD0E0CE01D0
:10207000906457C0906555C0DF70CE01906A51C022
:10208000CF718C2F90E0D82FCC27CE01816F906A32
:1020900048C08F718695869570E2879FA0011124B4
:1020A0009C2F937021E030E0B90102C0660F771FCA
:1020B0009A95E2F7CB019C68842B952B32C090E077
:1020C000D82FCC27CE01846F906A2BC08F710E94CD
:1020D00041118F7190E0D82FCC27CE01906221C0A2
:1020E0008C2F8F710E94411195E0D695C7959A95D6
:1020F000E1F7CF70D0E0DC2FCC27D069BE01682B90
:10210000CB010FC08D2F8F710E944111DD27D0624E
:102110008F719E01382BC90104C080E090E001C09E
:10212000CE01DF91CF910895753038F46F3028F4E7
:10213000462F672F0E945203089580E090E0089593
:102140000E9494100E948F0F08958238910569F1C2
:10215000B0F48133910509F475C048F489329105D2
:1021600009F467C08A32910509F471C00895853376
:10217000910509F459C089339105B9F00895833E5A
:10218000910589F138F4803E9105D1F0823E9105A8
:1021900029F10895863E9105C9F1873E9105D9F14F
:1021A000843E910509F06CC027C02091150320FDE5
:1021B00057C021FD55C02091160323FD5BC0089533
:1021C0008091150380FD48C08091160380FF48C0B0
:1021D0008091150384FD46C083EE51C080911503A4
:1021E00082FF3CC0F5CF8091150382FD37C08091FE
:1021F000160380FD35C0ECCF8091160381FF36C0F9
:102200008091150384FD2EC087EE39C0809115039F
:1022100083FF2AC0F5CF8091150383FD25C08091EF
:10222000160381FD23C0ECCF8091150385FD22C0EC
:102230001FC08091150385FD1BC08091160383FF8D
:1022400019C00AC08091150386FD16C017C0809181
:10225000150386FD13C010C089E311C082EE0FC0C4
:1022600080EE0DC080E00BC086EE09C084EE07C092
:1022700085E305C089E203C08AE201C081E390E002
:1022800008959091150392FF0DC0282F28712830D2
:1022900019F4877F846006C0282F2471243011F43C
:1022A0008B7F886093FF0DC0282F2871283119F487
:1022B000877E846106C0282F2471243111F48B7E1F
:1022C00088612091160320FF0DC0382F38713830F7
:1022D00019F4877F816006C0382F3171313011F4D5
:1022E0008E7F886021FF0DC0282F2871283119F4B6
:1022F000877E816106C0282F2171213111F48E7EE5
:10230000886194FD877E089580E008950E94110EF3
:1023100008950E9492128FE39CE90197F1F700C0A3
:1023200000000E94921280E00E94BE1180FF04C053
:102330000E9486110E94452308950E9489110895E4
:102340000E94180E811102C00E94A70E0E94230E47
:10235000809398020E942D0E90931603809315038C
:102360000E949D110E94280E90E00E94D108809149
:102370000402909105020E94EF080895E82FF0E012
:10238000EE0FFF1FEF5DFC4F80819181089508954E
:1023900080EA8A95F1F7089500C008950E94C81157
:1023A000089508950E94D11108950E94D2110895B0
:1023B0000E94D11108950E94D8110895F894E82F31
:1023C000E295EF70F0E031A1282F2F7081E090E0CE
:1023D00001C0880F2A95EAF7982F9095932391A32F
:1023E00092A1892B82A3789408950F931F93CF9382
:1023F000DF93C3EAD1E089918F3F11F00E94DE1193
:1024000081E0C83AD807B9F7C4E9D1E003EA11E09E
:1024100089918F3F11F00E94DE110C171D07C1F743
:10242000DF91CF911F910F910895A0E0B0E0EBE113
:10243000F2E10C94C42A8C01C62FD0E0CE018D5558
:102440009E4F6C01FC0190819F3F09F450C0B62E55
:10245000F894E92FE295EF70F0E081A19F7021E000
:1024600030E001C0220F9A95EAF7822B81A382A166
:102470002095282322A378940E94CC11E4E9F1E06E
:1024800043EA51E021E030E0E12CF12C61916F3F13
:1024900089F0A62FA295AF70B0E090968C9190E055
:1024A0006F7002C0959587956A95E2F780FD02C02E
:1024B000C90102C080E090E0E82AF92A220F331F08
:1024C0004E175F0719F7F60180818F3F11F00E94C8
:1024D000DE1161E0E114F10409F460E08B2D0E944B
:1024E000CE11CC0FDD1FC00FD11FF982E882CDB70E
:1024F000DEB7E9E00C94E02A0E94F5118AE0E1E2FF
:10250000F3E0DF01982F1D929A95E9F7E7E1F3E0F8
:10251000DF011D928A95E9F785E00E94CD120E94A5
:10252000A4030895AAE0B0E0E8E9F2E10C94C82A17
:102530008E010F5F1F4F8AE0F80111928A95E9F72B
:10254000F12C6F2DC8010E941512F394F5E0FF12D3
:10255000F8CF4AE050E0B80187E193E00E945B2B9E
:1025600021E0009709F420E0892B41F08AE0F8018E
:10257000A7E1B3E001900D928A95E1F745E061E2B1
:1025800073E087E193E00E94CE12182F0E94A70308
:10259000812F2A96E5E00C94E42A0895EF92FF92A9
:1025A0000F931F93CF93DF937C018B01C42F2223C2
:1025B00049F081E080939B020E94F82290939A0256
:1025C0008093990280919B02811102C080E01CC01F
:1025D0008091990290919A020E9410230597B0F37E
:1025E000D0E0CC0FDD1FAE01B701C8010E945B2B0C
:1025F000892B39F0AE01B701C8010E94682B81E038
:1026000001C080E010929B02CDB7DEB7E6E00C94EB
:10261000E32A0E94E3240E94F00E0E94F024089511
:102620000E94F5240E94FD0E0E940F2508950E942D
:102630008F220E94C9240E94DB0E0E9409130E946F
:1026400010130E94E40EFBCF8091A20280FF06C00F
:1026500060910B0170E0660F771F26C081FF04C0F8
:1026600060910B0184E005C082FF07C060910B01FF
:1026700088E0689FB001112417C09091A1029923AE
:10268000D1F060910A01961788F720910B0188E03C
:10269000289F90011124929FA001939F500D112417
:1026A00070E0CA010E944E2A6038710540F461153D
:1026B000710519F406C068E070E0862F08958FE771
:1026C000089581E008958091A20280FF08C0609182
:1026D000070170E0759567957595679521C081FF35
:1026E00006C06091070170E07595679519C082FF7B
:1026F00004C06091070170E010C09091A00299237E
:1027000099F0609106019617A0F780910701899FC3
:10271000C001112470E00E944E2A6038710540F417
:102720006115710519F406C061E070E0862F089507
:102730008FE7089581E008958D3C21F40E942413D1
:10274000819504C08E3C29F40E9424138093A60234
:1027500008958F3C21F40E942413819504C0803D8C
:1027600029F40E9424138093A5020895893D19F449
:102770000E94631305C08A3D31F40E946313819562
:102780008093A70208958B3D21F40E9463138195E5
:1027900004C08C3D29F40E9463138093A80208951D
:1027A0009FE2980F983078F421E030E0A90102C050
:1027B000440F551F9A95E2F7CA019091A402892B04
:1027C0008093A40208958D3D21F48091A20281603E
:1027D0000BC08E3D21F48091A202826005C08F3D26
:1027E00029F48091A20284608093A20208958D3C16
:1027F00039F49091A60297FF35C01092A60259C0F5
:102800008E3C29F49091A6021916BCF32BC090912E
:10281000A5028F3C29F497FF25C01092A50249C05C
:10282000803D19F41916CCF31DC09091A702893D83
:1028300029F41916BCF41092A7023BC08A3D19F482
:1028400097FF10C0F8CF8B3D39F49091A80297FF05
:1028500009C01092A8022DC08C3D21F49091A802CD
:102860001916BCF39FE2980F983080F421E030E015
:10287000A90102C0440F551F9A95E2F7CA0180953D
:102880009091A40289238093A40213C08D3D21F46A
:102890008091A2028E7F0BC08E3D21F48091A20216
:1028A0008D7F05C08F3D29F48091A2028B7F80939C
:1028B000A2028091A502811106C08091A602811119
:1028C00002C01092A1028091A702811106C08091DE
:1028D000A802811102C01092A00208950E94F8225D
:1028E0002091A502211104C02091A602222321F0EB
:1028F00090939F0280939E022091A702211104C011
:102900002091A802222321F090939D0280939C02A3
:1029100083EA92E00E9424210895E3EAF2E086E04F
:10292000DF011D928A95E9F71092A1021092A00290
:102930001092A2020895FC01828181110DC0838151
:1029400081110AC08481811107C091E085818111C4
:1029500001C090E0892F01C081E081700895A6E058
:10296000B0E0E5EBF4E10C94CA2A86E0E3EAF2E099
:10297000DE01119601900D928A95E1F71092A50261
:102980001092A6021092A7021092A8028B818111C8
:1029900004C08C81882309F45FC080919E029091CD
:1029A0009F020E941023AC019091A102992339F05B
:1029B00020910C0130E02417350758F04DC02091CC
:1029C0000D018AE0289F900111242417350718F083
:1029D00043C09F3F19F09F5F9093A1021B81112379
:1029E00061F00E942413111614F09FEF01C091E0D2
:1029F000989F902D11249093A5021C81112361F0C2
:102A00000E942413111614F09FEF01C091E0989FCB
:102A1000902D11249093A6023091A5023323E1F06A
:102A20002091A6022223C1F045EB3403C0011124FA
:102A3000992319F09093A50203C081E08093A50229
:102A400035EB2303C0011124992319F09093A602BA
:102A500003C081E08093A6028D81811104C08E8124
:102A6000882309F45FC080919C0290919D020E948E
:102A70001023AC019091A002992339F02091080114
:102A800030E02417350758F04DC0209109018AE045
:102A9000289F900111242417350718F043C09F3F49
:102AA00019F09F5F9093A0021D81112361F00E9495
:102AB0006313111614F09FEF01C091E0989F902DC1
:102AC00011249093A7021E81112361F00E946313C9
:102AD000111614F09FEF01C091E0989F902D1124E2
:102AE0009093A8023091A7023323E1F02091A8022D
:102AF0002223C1F045EB3403C0011124992319F0BE
:102B00009093A70203C081E08093A70235EB2303D3
:102B1000C0011124992319F09093A80203C081E009
:102B20008093A802BE016F5F7F4F83EA92E00E940C
:102B30004022811105C083EA92E00E949B1481111A
:102B40000E946E1486E0FE013196A3EAB2E0019085
:102B50000D928A95E1F72696E3E00C94E62AEF922F
:102B6000FF920F931F93CF93DF938B01682F111167
:102B70000AC0442329F0E82FF0E0E656FC4F6491A8
:102B8000762F862F75C0212F30E0E82FF0E0442308
:102B900021F0E656FC4FE491F0E046E0049FC001CE
:102BA0001124CFEFD0E0BE010E943A2A4BEA46033F
:102BB000C001479F900D1124800F911D800F911D22
:102BC000982F990F890FAE01421B530B4E9FD001D6
:102BD0004F9FB00D5E9FB00D11249B2F189FA00139
:102BE0001124452F55278E01041B150B0E9FA001A4
:102BF0000F9F500D1E9F500D11247E01E81AF10801
:102C0000E29E8001E39E100DF29E100D1124212FF3
:102C10003327C21BD30BCE9F9001CF9F300DDE9F79
:102C2000300D112462307105A9F048F46115710569
:102C300069F061307105C9F48B2F752F0DC06430B8
:102C4000710581F058F06630710579F47E2F8B2F75
:102C5000932F0DC0832F7B2F9E2F09C08E2F7B2F8C
:102C6000952F05C08E2F732F02C07E2F852F692FC1
:102C7000CDB7DEB7E6E00C94E32A41E00E94AF1541
:102C8000089508950E943D160895CF93DF93762FFF
:102C9000E901682F842F0E944216798368838A8312
:102CA000DF91CF91089580912B03282F269530E056
:102CB0002115310519F48170826005C02B32310570
:102CC00024F08170846580932B03089588E090E060
:102CD0000E94792B0895CF92DF92EF92FF926B01C1
:102CE0007C010E945316B701A60188E090E00E9483
:102CF000972BFF90EF90DF90CF900895EBE2F3E0F9
:102D000083E0808311828FEF8283838314826081CA
:102D10007181828193810E946B16089580912B03AB
:102D200080FF02C08695089580E0089590912F035A
:102D3000933018F49F5F90932F03882351F0609194
:102D40002B0370912C0380912D0390912E030E94F0
:102D50006B16089581E00E949616089590912F03B6
:102D6000992319F0915090932F03882351F060918B
:102D70002B0370912C0380912D0390912E030E94C0
:102D80006B16089581E00E94AE16089570E00E94CF
:102D9000011F08956091120180912B0380FF0BC0E9
:102DA0008091110123E0829FC0011124805D9C4F1E
:102DB0000E94C616089580911301909114018917FD
:102DC00078F7E82FF0E09F01220F331FE20FF31F87
:102DD000E05DFC4F1182108212828F5FF0CF9091E4
:102DE0002B0390FF16C090911301209114019217AC
:102DF00070F4E92FF0E0DF01AA0FBB1FEA0FFB1F01
:102E0000E05DFC4F8183608342839F5FF0CF0E942F
:102E1000CA160895A3E0B0E0E0E1F7E10C94CB2AF4
:102E200090912B0390FF0AC09E012F5F3F4F0E949D
:102E300045164B8169818A810E94EF162396E2E054
:102E40000C94E72ACF93DF93EC01EC81F0E0EB5692
:102E5000FD4F4491EBE2F3E0628181810E940A1709
:102E60008C818F5F8C83DF91CF910895CF93DF9317
:102E7000EC01EBE2F3E0438162818C810E940A174E
:102E80008C818F5F8C83DF91CF910895A3E0B0E0B8
:102E9000ECE4F7E10C94C92A8C018091A90281111C
:102EA0000AC09E012F5F3F4F4FEF6FEF0E94451604
:102EB0008A818093A902F8018481813051F028F041
:102EC000823061F44091A9020AC08091A90240E0D9
:102ED00007C06091A90240E080E003C040E080E0CC
:102EE00060E00E94EF16F801848190E0019663E0B3
:102EF00070E00E944E2A84832396E4E00C94E52A35
:102F0000A3E0B0E0E6E8F7E10C94C42A082FE62E2F
:102F1000F42ED22E90912B0390FF67C0E92FE695F7
:102F2000AE2FB0E0A855BE4F8C918093E5029E7FF6
:102F3000923061F49E012F5F3F4F802F0E94451613
:102F40004B8169818A810E94EF163DC0823019F45D
:102F5000F0902E0338C0863019F400912C0333C052
:102F60008930D9F3893179F5E9518E2F8170C82ED6
:102F7000E695F0E0EB56FC4F1491B12C60911501F1
:102F8000B616F8F4B19EC001112470E00E943A2AEE
:102F9000802FC11002C0860F01C0861B90911301C3
:102FA0002B2D30E0290F311DA901440F551F240F8F
:102FB000351F205D3C4F4F2D6E2D0E944516B3945A
:102FC000DDCF0E94CA1600932C03E0922D03F092ED
:102FD0002E03DD2051F060912B0370912C03809122
:102FE0002D0390912E030E946B162396E9E00C941A
:102FF000E02AEBE2F3E09181282F4381628188E0AF
:10300000890F0E948017089581E00E94F9170895A2
:10301000EBE2F3E09181282F4381628188EF890FF1
:103020000E948017089581E00E9408180895EBE23D
:10303000F3E0628128E0620F08F46FEF282F4381EC
:1030400081810E948017089581E00E9417180895D9
:10305000EBE2F3E0628128E0621B08F460E0282FD5
:10306000438181810E948017089581E00E94281881
:103070000895EBE2F3E0438128E0420F08F44FEFBC
:10308000282F628181810E948017089581E00E942B
:1030900039180895EBE2F3E0438128E0421B08F47D
:1030A00040E0282F628181810E948017089581E08D
:1030B0000E944A18089520E00E9480170895FF9208
:1030C0000F931F93CF93DF93EC01F12C0FEF10E0E0
:1030D00060911501F616F0F4809113012F2D30E068
:1030E000280F311DC901880F991F280F391F205D36
:1030F0003C4F70E0C8010E944E2A962F8C8140916F
:103100002E0360912D03F99E800D11240E94451617
:10311000F394DECF0E94CA169A818C8190FF02C080
:103120008F5F01C081508C83CDB7DEB7E5E00C9492
:10313000E42AA0E0B0E0EFE9F8E10C94C32AFC0136
:10314000828180FF02C00FEF01C001E010E04AE081
:10315000A42E80911501181708F043C08091130127
:10316000C12ED12CE601C80FD11DCE01880F991FA9
:10317000C80FD91FC05DDC4F198218821A8234E053
:10318000E32EF12CB12C8091AB028B0D8B302CF007
:103190006A2D0E942C2A892F05C087FF03C09091B9
:1031A0001501890F082E000C990BC816D90691F449
:1031B00080912E038E9DA0018F9D500D1124559559
:1031C0004795559547959E0160912D0380912C035D
:1031D0000E944516B00EF1E0EF1AF108A1F61F5F4C
:1031E000B8CF0E94CA168091AB02013031F4811130
:1031F00002C080911501815007C090E00196609156
:10320000150170E00E944E2A8093AB02CDB7DEB765
:10321000EAE00C94DF2ACF9380911301909114017E
:10322000891770F4E82FF0E09F01220F331FE20F9F
:10323000F31FE05DFC4F1182108212828F5FF0CF8E
:10324000C0E060911501C617C0F5EC2FF0E070E00A
:10325000CF010E944E2A20911301820F2091AA02D1
:10326000022E000C330B90E0E217F307CCF0209114
:103270001001022E000C330B2E173F078CF09C011F
:10328000220F331F820F931F9C01205D3C4F409102
:103290002E0360912D0380912C030E9445160BC0D4
:1032A000FC01EE0FFF1F8E0F9F1FFC01E05DFC4F26
:1032B000118210821282CF5FC4CF0E94CA16209161
:1032C0000F018091AA02820F8093AA0290911001AF
:1032D000920F9093100119165CF4082E000C990BB4
:1032E0004091150150E041505109841795071CF099
:1032F000219520930F01CF910895A0E0B0E0E3E87D
:10330000F9E10C94C12A8C01FC014481C42FD0E066
:103310009E01DE010E94922A9B01AC010E94A82A14
:103320006B017C01E0E2F0E0EC1BFD0BA5E5B0E0F9
:103330009B01AC010E94A82A4B015C019F01DF01A7
:103340000E948A2A9B01AC010E94B32A9B01AC0116
:103350002C0D3D1D4E1D5F1DC501B4010E94622A4A
:10336000C22FD22F2A3228F4F3E02F9F900111248C
:103370000DC025E530E02C1B3109C901880F991FCC
:10338000280F391F37FF02C02F5F3F4F3595279514
:10339000C22FC095F12C85E5E82EED1A809115011C
:1033A000F816C8F4F1FC02C08E2D01C08D2F90914B
:1033B00013012F2D30E0290F311DA901440F551F96
:1033C000240F351F205D3C4F4C2F60912D030E9430
:1033D0004516F394E3CF0E94CA16F8018481811147
:1033E00002C091E003C0803219F49FEF90930E0168
:1033F00090910E01890FF8018483CDB7DEB7ECE020
:103400000C94DD2A0F931F93CF93DF93EC0100E020
:1034100010E080911501282F30E00217130724F5E2
:10342000909113019801290F311DA901440F551FD7
:10343000240F351F205D3C4F869590E04C81081786
:1034400019071CF4442331F002C0411103C040911C
:103450002E0301C040E060912D0380912C030E9457
:1034600045160F5F1F4FD5CF0E94CA168C8190E082
:103470000196817099278C83DF91CF911F910F91D5
:1034800008952F923F925F926F927F928F929F92B8
:10349000AF92BF92CF92DF92EF92FF920F931F9362
:1034A000CF93DF93FC016280548081E08483E5E95F
:1034B000F2E07490E4E1F3E0E491C0912E03C6954C
:1034C000C158D0E0CC0FDD1F2D2E3324812C75E0A8
:1034D000972EAA24AA94B12CE719EE2EF12C8091F4
:1034E0001501881608F098C0C82CD12C22E02615AA
:1034F00068F09C9CF0019D9CF00D1124E455FD4F5B
:1035000080912C03808380912D03818351100AC008
:103510009C9CF0019D9CF00D1124E455FD4F1382FD
:10352000128260C09C9C80019D9C100D1124E801BA
:10353000C455DD4F8B818823F9F081508B832FEFA9
:10354000829FC00111246C8170E00E943A2AFB0125
:10355000FF27EB56FD4F8491E82FE7192FEFE29FED
:10356000C0011124B7010E943A2A80912E03689F5E
:10357000B00111247A8336C00E943E2BB5010E940F
:103580004E2A8215930574F582E0861588F40E9410
:103590003E2BB5010E944E2A88830E943E2B20912B
:1035A0002D032695622F70E00E944E2A280F298352
:1035B0009C9CF0019D9CF00D1124E455FD4F12825E
:1035C00080912E03843120F0893C18F088EC01C0F2
:1035D00084E19C9CF0019D9CF00D1124E455FD4F6D
:1035E00084838383809113019601280F311DC901C3
:1035F000880F991F280F391F205D3C4F9C9CF001BC
:103600009D9CF00D1124E455FD4F42816181808124
:103610000E944516839463CF0E94CA16DF91CF9112
:103620001F910F91FF90EF90DF90CF90BF90AF90E0
:103630009F908F907F906F905F903F902F90089514
:10364000EBE2F3E080818E7F8083608171818281F3
:1036500093810E946B161092E6020E94CA1608958A
:1036600060912B03669570E04BE050E086E191E0BD
:103670000E944E2B892B19F481E08093E6020E9470
:10368000F8229093DF028093DE02089590912B033D
:1036900090FF35C09170811102C0926006C08B32DC
:1036A00010F0946502C0880F982B90932B0366232B
:1036B00051F060912B0370912C0380912D03909118
:1036C0002E030E946B1660912B03669570E04BE011
:1036D00050E086E191E00E944E2B892B19F0109268
:1036E000E60202C00E94301B81E08093E10240911B
:1036F0002E0360912D0380912C030E945B18089586
:10370000682F90912B03969581E0890F8B3208F0FA
:1037100081E00E94461B089581E00E94801B08956D
:10372000682F90912B0396958FEF890F09F48AE209
:103730000E94461B089581E00E94901B089561E05D
:103740000E94461B0895EBE2F3E080818160808354
:1037500086950E949F1B089580912B0380FF03C0D4
:103760000E94201B08950E94A31B089560E00E9400
:10377000461B08958091E40281112EC00E94180E0C
:10378000811104C00E94A70E0E947E160E94661638
:1037900060932B0370932C0380932D0390932E033F
:1037A0006E7F61F40E947E160E94661660932B0362
:1037B00070932C0380932D0390932E030E94531635
:1037C0001092E60280912B0380FF03C086950E9431
:1037D000B61B81E08093E40208950F931F93CF936B
:1037E000DF938091E602882309F491C08091E5027D
:1037F000E0912B03E695E81BE093E002823049F468
:10380000F0E0EF56FD4FE491CE2FD0E002E217E159
:1038100059C0863049F4F0E0E257FD4FE491CE2FD5
:10382000D0E006E317E14EC0893051F4E695F0E0B0
:10383000E557FD4FE491CE2FD0E00FE518E142C0EF
:103840008F3051F4E695F0E0E857FD4FE491CE2F2C
:10385000D0E009E918E136C0853149F4F0E0EB57D2
:10386000FD4FE491CE2FD0E00BE019E12BC0883161
:10387000D9F0833239F4E3E8F2E0C591D49106E45B
:1038800017E120C08432A9F08532C1F48E2F63E0A5
:103890000E94202AE92FF0E0E058FD4FE491CE2F5E
:1038A000D0E001E41AE10EC0C8E2D0E00DE719E172
:1038B00009C0C4EFD1E002E01AE104C0C0EDD7E0D6
:1038C00001E416E18091E102882361F01092E102A7
:1038D0000E94F8229093DF028093DE021092E302AE
:1038E0001092E2020E94F822E091DE02F091DF02E3
:1038F0008E1B9F0B8F3F9F4750F4EC0FFD1FF093E3
:10390000DF02E093DE028EED92E0F8010995DF918F
:10391000CF911F910F910895882311F0FA0101C0F2
:10392000FB0109950895CF93DF93C82FD62F0E94EE
:103930008E168C1738F00E948E168D1718F40E9480
:103940008C1B03C08C2F0E949F1BDF91CF91089589
:103950001F93CF93DF93FB011281111166C0EC011D
:103960000E94270D8272FE01E052F847E531F10511
:1039700008F05AC0EE59FF4F0C94842A0E94AC1BE9
:1039800054C04BE95BE16CE87BE104C04CE85BE1CF
:103990006BE97BE10E948C1C48C043E158E164E084
:1039A00078E1F8CF44E058E163E178E1F3CF45E313
:1039B00058E164E278E1EECF44E258E165E378E172
:1039C000E9CF47E558E166E478E1E4CF46E458E121
:1039D00067E578E1DFCF42EC56E16AEA76E1DACFDB
:1039E0004AEA56E162EC76E1D5CF81E015C065E0A8
:1039F00082E017C068E086E014C06EE089E011C084
:103A000064E18FE00EC067E185E10BC088E104C08E
:103A100062E289E106C083E20E949F1B06C06AE25F
:103A200085E20E94931C01C011E0812FDF91CF91AC
:103A30001F91089586E090E00E94712B0895682FF1
:103A400086E090E00E94852B089580914E0384705B
:103A5000896280934E030E941F1D08950E94180ED4
:103A6000811104C00E94A70E0E94251D0E941A1DEC
:103A700080934E03282F26952695269530E02630F4
:103A8000310524F08770886280934E0380914E0345
:103A900080FF04C086958695869501C080E00E94CF
:103AA000481E089520914E03822F8695869586950F
:103AB000482F50E04530510554F48F5F982F990FEF
:103AC000990F990F822F8770892B80934E038091D5
:103AD0004E03816080934E030E941F1D80914E0310
:103AE0008695869586950E94481E089580914E037E
:103AF000982F969596959695A1F0915E990F990FAE
:103B0000990F8770892B80934E03887F91E009F489
:103B100090E080914E0390FB80F980934E030E94C9
:103B20001F1D80914E038695869586950E94481E9E
:103B3000089580914E0380FD13C0816080934E03F1
:103B4000813019F489E080934E0380914E030E94E6
:103B50001F1D80914E038695869586950E94481E6E
:103B6000089580914E0380FF08C08E7F80934E039E
:103B70000E941F1D80E00E94481E089580914E0300
:103B800080FF03C00E94B11D08950E94991D0895F1
:103B900090914E03892F8695869586958F5F8F71BC
:103BA0009770863038F4880F880F880F892B8093A0
:103BB0004E0302C090934E0380914E03887F91E0A4
:103BC00009F490E080914E0390FB80F980934E03BE
:103BD0000E941F1D80914E038695869586950E94B2
:103BE000481E0895863008F085E090914E03977046
:103BF000282F220F220F220F922B90934E03987F93
:103C000021E009F420E090914E0320FB90F990937D
:103C10004E030E94481E08950E94F21D80914E039B
:103C20000E941F1D08959C01FB018281882349F198
:103C30002230F8E73F07F9F040F42115E8E73E07A6
:103C400069F02130384761F00895243098E739074A
:103C500079F058F02530384789F0089585E001C0A3
:103C600080E00E940C1E80E008950E94761DFBCF2C
:103C70000E94521DF8CF0E94BE1DF5CF0E94C81DA4
:103C8000F2CF81E00895279A2F9808952F980895EC
:103C9000A0E0B0E0EEE4FEE10C94C12AC82F86302B
:103CA00050F4811109C080918000877F809380004B
:103CB0000E94461E06C0C5E0809180008860809307
:103CC0008000A0918600B09187002C2F30E00E94E8
:103CD000922A25E030E040E050E00E94622A00276E
:103CE000122F232F342F012F122F232F33278091B0
:103CF0008600909187006CE070E00E943A2A60177D
:103D0000710730F0C80169E070E00E943A2A5EC095
:103D10008091860090918700E0908600F090870067
:103D2000E0918600F0918700C6E0D0E0BE010E94DD
:103D30003A2A060F171F211D311D4801590185E040
:103D4000880C991CAA1CBB1C8A95D1F7C701BE011F
:103D50000E943A2A6F01E12CF12CA7019601260F4F
:103D6000371F411D511DC501B4010E94622A69011E
:103D70007A01E0918600F0918700CA01B9010E94A2
:103D8000102A9B01AC01DF010E94A82A9B01AC0113
:103D9000C701B6010E94102ADC01CB012FE0B695C5
:103DA000A795979587952A95D1F700918600109150
:103DB000870020E030E0081719072A073B0728F49E
:103DC0006091860070918700CB01BC0170938D00DB
:103DD00060938C00CDB7DEB7ECE00C94DD2A08953B
:103DE0000E94431E8AE08093800089E180938100D5
:103DF0008FEF9FEF90938700809386000E942E1D87
:103E00000895869A21B32F7B31B330644FB7F8946D
:103E1000FC01CB01880F991F680F791F6E0F7F1F60
:103E2000E617F70789F0819198E031BB000000C0E8
:103E300087FF21BB880F000000C000C000C021BB6D
:103E400000C09A9591F7ECCF4FBF8FE594E00197B2
:103E5000F1F700C000000895CF93DF93FC01DB0170
:103E600012968C91882309F4DDC09F0130572332CC
:103E7000310508F0D8C0EF010E942D0E9093160373
:103E800080931503FE01E150F047E232F10520F482
:103E9000E958FF4F0C94842A809115038160AAC0D1
:103EA000809116038860B2C0809115038260A2C021
:103EB0008091150320C08091150388609BC080917C
:103EC00016031EC0809116038260A0C08091150366
:103ED000806190C08091150380628CC08091150331
:103EE000806488C00E94730880911503806882C036
:103EF00080911503886084607DC080911603826084
:103F0000816084C0809115038E7F74C080911603F8
:103F1000877F7CC0809115038D7F6CC080911503D5
:103F200020C080911503877F65C0809116031EC055
:103F3000809116038D7F6AC0809115038F7E5AC0D1
:103F4000809115038F7D56C0809115038F7B52C0E1
:103F50000E947308809115038F774CC080911503E0
:103F6000877F8B7F47C0809116038D7F8E7F4EC0E9
:103F70008091150382FB222720F991E0922790FB84
:103F800082F990FB83F936C080911603982F9095A3
:103F900091708E7F892B90FB81F938C08091150339
:103FA00086FB222720F991E0922790FB86F922C018
:103FB0000E9473088091150387FB222720F991E066
:103FC000922790FB87F916C081E001C080E00E9433
:103FD000AA0E1EC08091150384FB222720F991E0D0
:103FE000922790FB84F906C080911503982F909535
:103FF00090FB80F9809315030BC08091160383FB1F
:10400000222720F991E0922790FB83F980931603F1
:1040100080911503909116030E94320E0E9473083E
:1040200080E001C081E0DF91CF910895CF93DF93CD
:1040300086319C4741F5EB010E94270D982F8A811C
:104040002091040130910501882379F09A7A81E06A
:1040500009F480E08093E702911102C069E201C097
:1040600065E3C9010E9412220AC08091E702811112
:1040700002C069E201C065E3C9010E9420220E94DA
:104080006B0D80E001C081E0DF91CF9108950F9327
:104090001F93CF93DF93C42FD22FFC0182818823FB
:1040A000B1F04093EA020E94F8229093E9028093D3
:1040B000E80280E28C0F883008F04DC0C77081E0C4
:1040C00001C0880FCA95EAF70E94020644C0809199
:1040D000EA02481330C08091E8029091E9020E9400
:1040E0001023883C910538F510E21D0FCD17B9F06B
:1040F00080E28C0F883040F4C77081E001C0880FE7
:10410000CA95EAF70E940906183010F581E09D2F44
:10411000977001C0880F9A95EAF70E940206802FD7
:104120000E94F8051830B8F4D77081E001C0880FFC
:10413000DA95EAF70AC080E28C0F883060F4C77025
:1041400081E001C0880FCA95EAF70E94090603C002
:10415000802F0E94F805DF91CF911F910F91089554
:104160000F93FC01E851FC47E730F10590F5CB01D6
:10417000E756FF4F0C94842A06E221EE41EE6AE1F5
:104180007CE723C007E225EE45EE6BE17CE71DC02E
:1041900006E221EE40EE68E17CE717C007E225EE7B
:1041A00044EE69E17CE711C006E221EE42EE6CE1EB
:1041B0007CE70BC007E225EE46EE6DE17CE705C02B
:1041C00008E221E045EE6EE17CE70E94472080E0B6
:1041D00008C0FB018281882319F01092EA0201C015
:1041E00081E00F9108959093D5018093D4010895B3
:1041F0009093F0028093EF020895E091EF02F09126
:10420000F002309729F00190F081E02D0995089592
:1042100080E00895FC01A091EF02B091F0021097A8
:1042200091F080912901882341F08091150387FF47
:1042300004C08081818386E08083CF011296ED9156
:10424000FC91139709950895E091EF02F091F00227
:10425000309739F022E0DC012C930480F581E02DC9
:1042600009950895A3E0B0E0E8E3F1E20C94CB2ACD
:104270002091ED023091EE0228173907A1F09093BA
:10428000EE028093ED02E091EF02F091F0023097A0
:1042900051F023E029839B838A830680F781E02DF8
:1042A000CE01019609952396E2E00C94E72AA3E05B
:1042B000B0E0EDE5F1E20C94CB2A2091EB023091D5
:1042C000EC0228173907A1F09093EC028093EB02DF
:1042D000E091EF02F091F002309751F024E0298351
:1042E0009B838A830680F781E02DCE010196099594
:1042F0002396E2E00C94E72AFC0132968091290192
:10430000882331F08091150387FF02C09EE101C030
:1043100096E080E0915028F021912223D9F38F5F1D
:10432000F9CF0895662351F1209129012223E9F064
:104330002091150327FF19C0462F469546954695AF
:104340004E31E0F4677021E030E002C0220F331FED
:104350006A95E2F7FC01E40FF11D828190E02823C9
:10436000392381E0232B69F409C0FC0132960896B9
:104370002191621729F0E817F907D1F780E0089535
:1043800081E008959C01FC0132969FEF80E041910D
:10439000461789F09F3F19F4411101C0982F8F5F94
:1043A0008630A9F79F3F39F0F901E90FF11D97FD1C
:1043B000FA956283089508959C012A5F3F4FFC019E
:1043C0004281461301C01282019682179307B9F702
:1043D0000895262F2695269526952E3168F4FC0102
:1043E000E20FF11D677021E030E001C0220F6A95F5
:1043F000EAF78281282B22830895262F2695269579
:1044000026952E3170F4FC01E20FF11D677021E05A
:1044100030E001C0220F6A95EAF7209582812823B7
:104420002283089520912901222339F02091150338
:1044300027FF03C00E94E92108950E94C221089528
:1044400020912901222339F02091150327FF03C071
:104450000E94FD2108950E94DC21089520912901E8
:10446000FC013296222331F08091150387FF02C0B0
:104470008EE101C086E0DF011D928A95E9F708957B
:1044800046E050E00E945B2B21E0892B09F420E0FC
:10449000822F089508950E944A22089583E0809310
:1044A000F1020E944B220895811102C081E001C0F7
:1044B00082E08093F1020E944B2208950E945422D0
:1044C000089581E08093F1020E944B2208950E949A
:1044D0006122089508950E946A2208950E946B2225
:1044E00008950E946A2208950E946A2208950E94F7
:1044F0006A220895CF930E9474220E9492120E9411
:104500007122C0E08C2F0E94BE11892B29F4CF5F4D
:10451000C530C1F780E001C081E0CF91089585B733
:10452000806885BF85B7806885BF08951F920F9208
:104530000FB60F9211248F939F93AF93BF938091E7
:10454000F202811113C080914F0390915003A0910A
:104550005103B09152034196A11DB11D80934F03A9
:1045600090935003A0935103B0935203BF91AF9126
:104570009F918F910F900FBE0F901F901895809173
:104580005703843031F10E9428041092F20220E493
:1045900088E190E00FB6F894A895809360000FBE74
:1045A0002093600083B7817F846083BF83B781607D
:1045B00083BF7894889583B78E7F83BF0FB6F894B6
:1045C000A8958091600088618093600010926000DF
:1045D0000FBE08950E9473080E943004089582E07F
:1045E00084BD93E095BD9AEF97BD80936E000895CA
:1045F0002FB7F89480914F0390915003A0915103ED
:10460000B09152032FBF08952FB7F89460914F03D4
:104610007091500380915103909152032FBF0895E0
:104620009C014FB7F89480914F0390915003A09153
:104630005103B09152034FBF821B930B089578949E
:104640001F920F920FB60F9211248F939F93AF93E7
:10465000BF9380914F0390915003A0915103B0916B
:1046600052030196A11DB11D80934F0390935003F7
:10467000A0935103B0935203BF91AF919F918F913B
:104680000F900FBE0F901F90189581E08093E0006F
:1046900080E28093D8001092C9008FE19EE40197D8
:1046A000F1F700C0000087E090EBDC01809360032D
:1046B00090936103A0936203B09363039CE088E14D
:1046C0000FB6F894A895809360000FBE9093600099
:1046D000FFCF9CE088E10FB6F894A8958093600026
:1046E0000FBE90936000FFCF8091130308959B014C
:1046F000909157039430F1F48F708093E9008FEF1D
:104700009091E800815095FD06C095ED9A95F1F7DE
:1047100000008111F5CF8091E80085FF0BC0BA0140
:10472000C90140E050E00E9482258091E8008E7728
:104730008093E800089543E050E0BC0182E00E94CD
:104740007723089546E050E0BC0182E00E94772381
:104750000895CF93DF93EC0180912901811105C069
:1047600048E050E0BE0181E00BC08091150387FF57
:1047700003C040E282E002C048E081E050E0BE01B8
:104780000E94772380E2FE01A3EFB2E001900D9238
:104790008A95E1F7DF91CF910895809156038111B9
:1047A00009C00E940D270E946A278091E200846060
:1047B0008093E20008951092560308950E946722A4
:1047C00008956091530381E0611101C080E00E946F
:1047D0004E2208959091570381E0943009F080E0D3
:1047E000609153030E945422089542E061EC81E0FD
:1047F0000E94862642E261EC82E00E948626909129
:10480000570381E0943009F080E0609153030E94E7
:104810005E22089580915903833009F461C030F419
:10482000813071F0823009F49BC008958A3009F418
:1048300087C08B3009F46CC0893009F0A9C020C052
:1048400080915803813A09F0A3C08091E800877FE6
:104850008093E80080915C0390915D03892B21F4A3
:1048600060E283EF92E003C060E080E090E070E0FF
:104870000E94C7258091E8008B778093E800089517
:1048800080915803813209F083C080915C0390913C
:104890005D03029708F07CC08091E800877F8093D9
:1048A000E8008091E80082FD05C0809157038111E6
:1048B000F8CF6EC02091F3008091F20090E0922B2F
:1048C000029731F48091F100813011F0863021F4AB
:1048D0008091F100809313038091E8008B7754C09E
:1048E00080915803813A09F053C080915C03909104
:1048F0005D03892B09F04CC08091E800877F80938D
:10490000E8008091E80080FFFCCF8091290137C04A
:10491000809158038132E1F580915C0390915D03B1
:10492000892BB1F58091E800877F8093E8000E9491
:10493000BB2680915A03809329010E947308089531
:1049400080915803813221F58091E800877F809320
:10495000E8000E94BB2680915B03809314030895B6
:1049600080915803813AA1F48091E800877F809379
:10497000E8008091E80080FFFCCF809114038093D1
:10498000F1008091E8008E778093E8000E94BB26BA
:10499000089584B7877F84BF0FB6F894A895809157
:1049A0006000886180936000109260000FBE90E00C
:1049B00080E80FB6F89480936100909361000FBE79
:1049C0000E94612208950E940D270E946A27E2EE4C
:1049D000F0E080818460808378940E94F5290895B6
:1049E00081E291E00E94F82008958091570385307C
:1049F000A9F480915703853079F40E94BF228091F9
:104A000055038823B1F30E947A22882391F30E94F0
:104A10006C250E947308EDCF0E94EA220895089544
:104A20000E9413250895292F332723303105C9F01B
:104A300060F42130310581F02230310509F044C0A5
:104A40008BE390E026EB34E043C021323105E1F006
:104A50002232310549F138C082E190E021EF34E0A3
:104A600037C099278130910549F028F0029761F508
:104A7000EAE9F4E005C0E2EBF4E002C0E6EAF4E0C3
:104A8000849190E09F0124C06115710541F061306F
:104A90007105D1F489E090E021EE34E019C089E09D
:104AA00090E028EC34E014C06115710541F06130EC
:104AB000710551F486EB90E023E035E009C080E415
:104AC00090E029EB35E004C080E090E020E030E0A9
:104AD000FA0131832083089580E189BD82E189BD97
:104AE00009B400FEFDCF8091D8008F7D8093D8005F
:104AF0008091E00082608093E0008091E00081FD81
:104B0000FCCF0895A0E0B0E0E8E8F5E20C94C52AF7
:104B1000EC018B017A010E94DA26811133C0E11485
:104B2000F10439F0F70180819181081B190BC80F3E
:104B3000D91FC12CD12C0115110519F18091E80064
:104B400085FD16C08091E8008E778093E800E1141F
:104B5000F10449F0F70180819181C80ED91ED182FC
:104B6000C08285E00FC00E94DA26882321F30AC0A4
:104B700089918093F10001501109FFEFCF1ADF0AEC
:104B8000DACF80E0CDB7DEB7E8E00C94E12A2091DF
:104B90005E0330915F032617370748F061157105F2
:104BA00039F42091E8002E772093E80001C0B90184
:104BB000FC0120E06115710579F18091570388238C
:104BC000F1F18530F1F18091E80083FD3CC08091E6
:104BD000E80082FD2EC08091E80080FFEBCF20919D
:104BE000F3008091F20090E0922B6115710551F075
:104BF0008830910538F421912093F10061507109BA
:104C00000196F3CF21E0089709F020E08091E800B9
:104C10008E778093E800CECF2111CFCF0AC080914C
:104C20005703882361F0853061F08091E80083FDAF
:104C30000AC08091E80082FFF2CF80E0089582E010
:104C4000089583E0089581E0089520915E033091F6
:104C50005F032617370748F06115710539F4209175
:104C6000E8002E772093E80001C0B901FC0120E0A4
:104C70006115710591F180915703882309F440C0B3
:104C8000853009F43FC08091E80083FD3DC08091EC
:104C9000E80082FD2FC08091E80080FFE9CF2091DD
:104CA000F3008091F20090E0922B6115710559F0AC
:104CB0008830910540F424912093F10031966150A1
:104CC00071090196F2CF21E0089709F020E0809168
:104CD000E8008E778093E800CBCF2111CCCF0AC0BB
:104CE00080915703882361F0853061F08091E8005E
:104CF00083FD0AC08091E80082FFF2CF80E0089532
:104D000082E0089583E0089581E00895982F973018
:104D100068F59093E900981739F07091EC002091B4
:104D2000ED005091F00003C0242F762F50E021FDBC
:104D300002C09F5FECCF3091EB003E7F3093EB00E1
:104D40003091ED003D7F3093ED003091EB0031600C
:104D50003093EB007093EC002093ED005093F00043
:104D60002091EE0027FDE5CF80E008958F708093BD
:104D7000E90081E008958091580387FF11C0809178
:104D8000E80082FD05C0809157038111F8CF11C062
:104D90008091E8008B770BC080915703882349F0FE
:104DA0008091E80080FFF8CF8091E8008E778093B3
:104DB000E80008952091E4003091E50095E64091E7
:104DC000EC00842F817040FF23C08091E80080FDBB
:104DD0001DC080915703882399F0853099F0809108
:104DE000EB0085FD11C04091E4005091E5002417CF
:104DF000350729F3915011F09A01E1CF84E008952D
:104E000082E0089583E0089581E0089580E00895A8
:104E10004091E80042FFDDCF08950E947C270E9468
:104E20008427E0EEF0E0808181608083E8EDF0E0AF
:104E300080818F77808319BCA7EDB0E08C918E7F45
:104E40008C9380818F7E80831092560308950F93F8
:104E50001F93CF93DF930E947C270E948427C8ED85
:104E6000D0E088818F778883888180688883888173
:104E70008F7D888319BC10925703109253031092B0
:104E800055031092540300EE10E0F80180818B7FEF
:104E9000808388818160888342E060E080E00E94B6
:104EA0008626E1EEF0E080818E7F8083E2EEF0E006
:104EB000808181608083808188608083F801808127
:104EC0008E7F8083888180618883DF91CF911F915D
:104ED0000F910895E8EDF0E080818F7E8083E7ED0B
:104EE000F0E080818160808384E082BF81E08093F4
:104EF00056030E9427270895E8EDF0E080818E7F19
:104F000080831092E20008951092DA001092E1007E
:104F100008951F920F920FB60F9211242F933F9373
:104F20004F935F936F937F938F939F93AF93BF93B1
:104F3000EF93FF938091E10082FF0BC08091E2002C
:104F400082FF07C08091E1008B7F8093E1000E9487
:104F5000F4298091DA0080FF1FC08091D80080FF83
:104F60001BC08091DA008E7F8093DA008091D90097
:104F700080FF0DC080E189BD82E189BD09B400FEDA
:104F8000FDCF81E0809357030E94CD2305C019BC5B
:104F9000109257030E94DB238091E10080FF19C02B
:104FA0008091E20080FF15C08091E2008E7F8093A7
:104FB000E2008091E20080618093E2008091D8005D
:104FC00080628093D80019BC85E0809357030E94CB
:104FD000E1238091E10084FF30C08091E20084FFF2
:104FE0002CC080E189BD82E189BD09B400FEFDCFFE
:104FF0008091D8008F7D8093D8008091E1008F7ED2
:105000008093E1008091E2008F7E8093E2008091A6
:10501000E20081608093E20080915303882311F0C5
:1050200084E007C08091E30087FD02C081E001C0F9
:1050300083E0809357030E94EA238091E10083FF7D
:1050400029C08091E20083FF25C08091E100877F25
:105050008093E10082E08093570310925303809184
:10506000E1008E7F8093E1008091E2008E7F80934B
:10507000E2008091E20080618093E20042E060E023
:1050800080E00E9486268091F00088608093F00086
:105090000E94DE23FF91EF91BF91AF919F918F917D
:1050A0007F916F915F914F913F912F910F900FBE24
:1050B0000F901F9018951F920F920FB60F92112408
:1050C0002F933F934F935F936F937F938F939F9310
:1050D000AF93BF93CF93DF93EF93FF93C091E9001A
:1050E000CF708091EC00D82FD17080FDD0E8109265
:1050F000E9008091F000877F8093F00078940E940F
:105100009F281092E9008091F00088608093F00061
:10511000CD2BCF70C093E900FF91EF91DF91CF913C
:10512000BF91AF919F918F917F916F915F914F91BF
:105130003F912F910F900FBE0F901F901895AAE2EC
:10514000B0E0E5EAF8E20C94CA2AE8E5F3E08091E1
:10515000F100819323E0E036F207C9F70E940A24A8
:105160008091E80083FF2EC18091580390915903EC
:10517000492F50E04A30510508F024C1FA01E056A9
:10518000FF4F0C94842A803821F0823809F01AC12C
:1051900008C08091540390915503992389F082604F
:1051A0000FC080915C038F70873008F00BC1809333
:1051B000E9008091EB0085FB882780F91092E900D7
:1051C0009091E800977F9093E8008093F10010920F
:1051D000F100D1C0282F2D7F09F0F4C0882319F0E9
:1051E000823061F0EFC080915A03813009F0EAC04B
:1051F000933009F080E0809355032EC080915A03CC
:1052000081112AC080915C038F702FEF280F263008
:1052100008F0D8C08093E9002091EB0020FF1CC06B
:10522000933021F48091EB00806214C09091EB00E8
:1052300090619093EB0021E030E0A90102C0440F9F
:10524000551F8A95E2F74093EA001092EA00809198
:10525000EB0088608093EB001092E9008091E800F9
:10526000877F8093E8000E94BB26ACC08111AAC052
:1052700010915A031F778091E3008078812B8093EF
:10528000E3008091E800877F8093E8000E94BB26BE
:105290008091E80080FFFCCF8091E30080688093DC
:1052A000E300111102C082E001C083E08093570344
:1052B00089C08058823008F085C080915A0390914F
:1052C0005B038C3D53E0950779F583E08A838AE29E
:1052D00089834FB7F894DE01139620E03EE051E257
:1052E000E32FF0E050935700E49120FF03C0E295D4
:1052F000EF703F5FEF708E2F90E0EA3010F0C796AE
:1053000001C0C0968D939D932F5F243149F74FBF05
:105310008091E800877F8093E8006AE270E0CE0128
:1053200001960E94C72516C060915C0370915D03D1
:10533000AE014F5F5F4F0E941025BC01892B09F41D
:1053400041C09091E800977F9093E80089819A810D
:105350000E9425268091E8008B778093E80032C078
:10536000803881F58091E800877F8093E800809104
:1053700053038093F1008091E8008E7772CF811102
:1053800021C080915A0390915B0399270297D4F42E
:105390008091E800877F8093E80080915A03809392
:1053A00053030E94BB2680915303811106C0809154
:1053B000E30087FD02C081E001C084E080935703D1
:1053C0000E94F5238091E80083FF0AC08091E800E5
:1053D000877F8093E8008091EB0080628093EB00F0
:1053E000AA96E3E00C94E62A0895CF9380915703A0
:1053F0008823A1F0C091E900CF709091EC00892F33
:10540000817090FD80E8C82B1092E9008091E8003F
:1054100083FD0E949F28CF70C093E900CF9108952B
:10542000DB018F939F930E94A82ABF91AF91A29F07
:10543000800D911DA39F900DB29F900D1124089592
:10544000991B79E004C0991F961708F0961B881FD6
:105450007A95C9F78095089587FB082E062687FD63
:10546000819567FD61950E94202A0EF4919507FCB5
:1054700081950895AA1BBB1B51E107C0AA1FBB1F42
:10548000A617B70710F0A61BB70B881F991F5A95D0
:10549000A9F780959095BC01CD01089597FB072E43
:1054A00016F4009407D077FD09D00E943A2A07FC31
:1054B00005D03EF4909581959F4F08957095619524
:1054C0007F4F0895A1E21A2EAA1BBB1BFD010DC040
:1054D000AA1FBB1FEE1FFF1FA217B307E407F507A4
:1054E00020F0A21BB30BE40BF50B661F771F881F80
:1054F000991F1A9469F760957095809590959B0116
:10550000AC01BD01CF010895EE0FFF1F0590F4918E
:10551000E02D09940E94922A332312F48A1B9B0BDC
:105520000C94A32AA29FB001B39FC001A39F700D4A
:10553000811D1124911DB29F700D811D1124911D9B
:1055400008950E94922AB7FF0895821B930B089535
:105550000E94922AA59F900DB49F900DA49F800D4C
:10556000911D11240895B7FF0C94A82A0E94A82A1F
:10557000821B930B08952F923F924F925F926F92EE
:105580007F928F929F92AF92BF92CF92DF92EF92D3
:10559000FF920F931F93CF93DF93CDB7DEB7CA1B54
:1055A000DB0B0FB6F894DEBF0FBECDBF09942A887F
:1055B000398848885F846E847D848C849B84AA8427
:1055C000B984C884DF80EE80FD800C811B81AA81B4
:1055D000B981CE0FD11D0FB6F894DEBF0FBECDBF7F
:1055E000ED0108958F929F92AF92BF92CF92DF927A
:1055F000EF92FF92CF93DF93EC01688179818A81EA
:105600009B81611571058105910521F464E279EDB5
:105610008BE597E02DE133EF41E050E00E94B92B9C
:1056200049015A019B01AC01A7EAB1E40E94A82AF2
:105630006B017C01ACEEB4EFA50194010E94B62A87
:10564000DC01CB018C0D9D1DAE1DBF1DB7FF03C03E
:105650000197A109B04888839983AA83BB839F7768
:10566000DF91CF91FF90EF90DF90CF90BF90AF9000
:105670009F908F9008950E94F22A089580E091E013
:105680000E94F22A0895A0E0B0E080930001909378
:105690000101A0930201B09303010895FC01415060
:1056A000504030F001900616D1F73197CF010895A0
:1056B000882799270895FB01DC0104C08D91019092
:1056C000801921F441505040C8F7881B990B089568
:1056D000FB01DC0102C001900D9241505040D8F70F
:1056E0000895F999FECF92BD81BDF89A992780B5AA
:1056F0000895A6E1B0E044E050E00C94AB2BA8E1A3
:10570000B0E042E050E00C94AB2B262FF999FECF8D
:1057100092BD81BDF89A019700B4021639F01FBA04
:1057200020BD0FB6F894FA9AF99A0FBE0895039621
:10573000272F0E94862B0E94852B252F0E94862BC7
:10574000242F0C94862B0196272F0E94862B0C94D5
:10575000852BDC01CB01FC01F999FECF06C0F2BD1F
:10576000E1BDF89A319600B40D9241505040B8F71F
:105770000895052E97FB1EF400940E94D02B57FD30
:1057800007D00E94622A07FC03D04EF40C94D02B61
:1057900050954095309521953F4F4F4F5F4F08955D
:1057A00090958095709561957F4F8F4F9F4F08958D
:0457B000F894FFCF9B
:1057B400010000006202280850011E0A14010101C0
:1057C40002000A000A0A01191A1B1C1D1E1F2021AF
:1057D400227423A923A2239B2301E200E900EA0007
:1057E400B500B600B700CD008301CC008A01920158
:1057F40094012102230224022502260227022A02FE
:10580400B300B4006F0070009F01CB01818283E27A
:1058140000E900EA00B500B600B700CD008301CC72
:10582400008A019201940121022302240225022606
:105834000227022A02B300B4006F0070009F01CB5C
:10584400018182839091929395366667F1F0C63315
:105854003231303534979694000102020202060672
:10586400060909090909090F0F0F0F0F0F1515155F
:10587400181919191919191919191923242525255C
:0458840025252500B1
:00000001FF
